{
  "_format": "hh-sol-artifact-1",
  "contractName": "HeadenFinanceParent",
  "sourceName": "contracts/headenFInanceParent.sol",
  "abi": [
    {
      "inputs": [
        {
          "internalType": "uint256",
          "name": "_interval",
          "type": "uint256"
        },
        {
          "internalType": "uint8",
          "name": "_chainId",
          "type": "uint8"
        },
        {
          "internalType": "address",
          "name": "_multichainRouter",
          "type": "address"
        },
        {
          "internalType": "string",
          "name": "_hashSalt",
          "type": "string"
        },
        {
          "internalType": "address",
          "name": "_swapRouter",
          "type": "address"
        },
        {
          "internalType": "address",
          "name": "_usdc",
          "type": "address"
        },
        {
          "internalType": "address",
          "name": "_dai",
          "type": "address"
        },
        {
          "internalType": "address",
          "name": "_matic",
          "type": "address"
        },
        {
          "components": [
            {
              "internalType": "uint64",
              "name": "supplyKink",
              "type": "uint64"
            },
            {
              "internalType": "uint64",
              "name": "supplyPerYearInterestRateSlopeLow",
              "type": "uint64"
            },
            {
              "internalType": "uint64",
              "name": "supplyPerYearInterestRateSlopeHigh",
              "type": "uint64"
            },
            {
              "internalType": "uint64",
              "name": "supplyPerYearInterestRateBase",
              "type": "uint64"
            },
            {
              "internalType": "uint64",
              "name": "borrowKink",
              "type": "uint64"
            },
            {
              "internalType": "uint64",
              "name": "borrowPerYearInterestRateSlopeLow",
              "type": "uint64"
            },
            {
              "internalType": "uint64",
              "name": "borrowPerYearInterestRateSlopeHigh",
              "type": "uint64"
            },
            {
              "internalType": "uint64",
              "name": "borrowPerYearInterestRateBase",
              "type": "uint64"
            }
          ],
          "internalType": "struct HeadenFinanceParent.Configuration",
          "name": "config",
          "type": "tuple"
        }
      ],
      "stateMutability": "nonpayable",
      "type": "constructor"
    },
    {
      "anonymous": false,
      "inputs": [
        {
          "components": [
            {
              "internalType": "address",
              "name": "user",
              "type": "address"
            },
            {
              "internalType": "uint256",
              "name": "totalStakes",
              "type": "uint256"
            },
            {
              "internalType": "uint256",
              "name": "totalBorrows",
              "type": "uint256"
            }
          ],
          "indexed": false,
          "internalType": "struct HeadenFinanceParent.FullUpdateData[]",
          "name": "usersdata",
          "type": "tuple[]"
        }
      ],
      "name": "FullParentChainSynced",
      "type": "event"
    },
    {
      "anonymous": false,
      "inputs": [
        {
          "indexed": true,
          "internalType": "address",
          "name": "previousOwner",
          "type": "address"
        },
        {
          "indexed": true,
          "internalType": "address",
          "name": "newOwner",
          "type": "address"
        }
      ],
      "name": "OwnershipTransferred",
      "type": "event"
    },
    {
      "anonymous": false,
      "inputs": [
        {
          "indexed": false,
          "internalType": "address",
          "name": "user",
          "type": "address"
        },
        {
          "indexed": false,
          "internalType": "uint256",
          "name": "totalStakes",
          "type": "uint256"
        },
        {
          "indexed": false,
          "internalType": "uint256",
          "name": "totalBorrows",
          "type": "uint256"
        }
      ],
      "name": "ParentChainSynced",
      "type": "event"
    },
    {
      "inputs": [],
      "name": "SECONDS_PER_YEAR",
      "outputs": [
        {
          "internalType": "uint256",
          "name": "",
          "type": "uint256"
        }
      ],
      "stateMutability": "view",
      "type": "function"
    },
    {
      "inputs": [
        {
          "internalType": "address",
          "name": "_relayer",
          "type": "address"
        }
      ],
      "name": "addRelayers",
      "outputs": [],
      "stateMutability": "nonpayable",
      "type": "function"
    },
    {
      "inputs": [
        {
          "internalType": "uint128",
          "name": "_id",
          "type": "uint128"
        }
      ],
      "name": "borrowInterestRates",
      "outputs": [
        {
          "internalType": "uint256",
          "name": "",
          "type": "uint256"
        }
      ],
      "stateMutability": "nonpayable",
      "type": "function"
    },
    {
      "inputs": [],
      "name": "borrowKink",
      "outputs": [
        {
          "internalType": "uint256",
          "name": "",
          "type": "uint256"
        }
      ],
      "stateMutability": "view",
      "type": "function"
    },
    {
      "inputs": [],
      "name": "borrowPerSecondInterestRateBase",
      "outputs": [
        {
          "internalType": "uint256",
          "name": "",
          "type": "uint256"
        }
      ],
      "stateMutability": "view",
      "type": "function"
    },
    {
      "inputs": [],
      "name": "borrowPerSecondInterestRateSlopeHigh",
      "outputs": [
        {
          "internalType": "uint256",
          "name": "",
          "type": "uint256"
        }
      ],
      "stateMutability": "view",
      "type": "function"
    },
    {
      "inputs": [],
      "name": "borrowPerSecondInterestRateSlopeLow",
      "outputs": [
        {
          "internalType": "uint256",
          "name": "",
          "type": "uint256"
        }
      ],
      "stateMutability": "view",
      "type": "function"
    },
    {
      "inputs": [
        {
          "internalType": "address",
          "name": "_tokenAddress",
          "type": "address"
        },
        {
          "internalType": "uint256",
          "name": "_amountToBorrow",
          "type": "uint256"
        }
      ],
      "name": "borrowToken",
      "outputs": [],
      "stateMutability": "nonpayable",
      "type": "function"
    },
    {
      "inputs": [
        {
          "internalType": "address",
          "name": "_tokenAddress",
          "type": "address"
        },
        {
          "internalType": "uint256",
          "name": "_amountToBorrow",
          "type": "uint256"
        },
        {
          "internalType": "address",
          "name": "_collateralAddress",
          "type": "address"
        },
        {
          "internalType": "uint256",
          "name": "_collateralAmount",
          "type": "uint256"
        }
      ],
      "name": "borrowTokenWithCollateral",
      "outputs": [],
      "stateMutability": "nonpayable",
      "type": "function"
    },
    {
      "inputs": [],
      "name": "chainId",
      "outputs": [
        {
          "internalType": "uint8",
          "name": "",
          "type": "uint8"
        }
      ],
      "stateMutability": "view",
      "type": "function"
    },
    {
      "inputs": [
        {
          "internalType": "bytes",
          "name": "",
          "type": "bytes"
        }
      ],
      "name": "checkUpkeep",
      "outputs": [
        {
          "internalType": "bool",
          "name": "upkeepNeeded",
          "type": "bool"
        },
        {
          "internalType": "bytes",
          "name": "",
          "type": "bytes"
        }
      ],
      "stateMutability": "view",
      "type": "function"
    },
    {
      "inputs": [
        {
          "internalType": "address",
          "name": "_token",
          "type": "address"
        }
      ],
      "name": "createMarket",
      "outputs": [],
      "stateMutability": "nonpayable",
      "type": "function"
    },
    {
      "inputs": [
        {
          "internalType": "address",
          "name": "_token",
          "type": "address"
        },
        {
          "internalType": "uint256",
          "name": "amount",
          "type": "uint256"
        }
      ],
      "name": "createMarketPool",
      "outputs": [],
      "stateMutability": "nonpayable",
      "type": "function"
    },
    {
      "inputs": [],
      "name": "dai",
      "outputs": [
        {
          "internalType": "address",
          "name": "",
          "type": "address"
        }
      ],
      "stateMutability": "view",
      "type": "function"
    },
    {
      "inputs": [],
      "name": "fullUpdateChildChain",
      "outputs": [],
      "stateMutability": "nonpayable",
      "type": "function"
    },
    {
      "inputs": [],
      "name": "getRiskLevel",
      "outputs": [
        {
          "internalType": "uint256",
          "name": "",
          "type": "uint256"
        }
      ],
      "stateMutability": "view",
      "type": "function"
    },
    {
      "inputs": [],
      "name": "interval",
      "outputs": [
        {
          "internalType": "uint256",
          "name": "",
          "type": "uint256"
        }
      ],
      "stateMutability": "view",
      "type": "function"
    },
    {
      "inputs": [],
      "name": "lastTimeStamp",
      "outputs": [
        {
          "internalType": "uint256",
          "name": "",
          "type": "uint256"
        }
      ],
      "stateMutability": "view",
      "type": "function"
    },
    {
      "inputs": [
        {
          "internalType": "address",
          "name": "",
          "type": "address"
        }
      ],
      "name": "marketTokens",
      "outputs": [
        {
          "internalType": "bool",
          "name": "available",
          "type": "bool"
        },
        {
          "internalType": "uint128",
          "name": "_id",
          "type": "uint128"
        }
      ],
      "stateMutability": "view",
      "type": "function"
    },
    {
      "inputs": [
        {
          "internalType": "uint128",
          "name": "",
          "type": "uint128"
        }
      ],
      "name": "markets",
      "outputs": [
        {
          "internalType": "address",
          "name": "tokenAddress",
          "type": "address"
        },
        {
          "internalType": "bool",
          "name": "available",
          "type": "bool"
        },
        {
          "internalType": "uint256",
          "name": "amountStaked",
          "type": "uint256"
        },
        {
          "internalType": "uint256",
          "name": "amountBorrowed",
          "type": "uint256"
        },
        {
          "internalType": "uint256",
          "name": "timeLastBorrowed",
          "type": "uint256"
        },
        {
          "internalType": "uint256",
          "name": "timeLastStaked",
          "type": "uint256"
        },
        {
          "internalType": "uint256",
          "name": "borrowRate",
          "type": "uint256"
        },
        {
          "internalType": "uint256",
          "name": "supplyRate",
          "type": "uint256"
        }
      ],
      "stateMutability": "view",
      "type": "function"
    },
    {
      "inputs": [],
      "name": "matic",
      "outputs": [
        {
          "internalType": "address",
          "name": "",
          "type": "address"
        }
      ],
      "stateMutability": "view",
      "type": "function"
    },
    {
      "inputs": [],
      "name": "multichainRouter",
      "outputs": [
        {
          "internalType": "address",
          "name": "",
          "type": "address"
        }
      ],
      "stateMutability": "view",
      "type": "function"
    },
    {
      "inputs": [],
      "name": "owner",
      "outputs": [
        {
          "internalType": "address",
          "name": "",
          "type": "address"
        }
      ],
      "stateMutability": "view",
      "type": "function"
    },
    {
      "inputs": [
        {
          "internalType": "bytes",
          "name": "",
          "type": "bytes"
        }
      ],
      "name": "performUpkeep",
      "outputs": [],
      "stateMutability": "nonpayable",
      "type": "function"
    },
    {
      "inputs": [
        {
          "components": [
            {
              "internalType": "address",
              "name": "userAddress",
              "type": "address"
            },
            {
              "internalType": "bool",
              "name": "available",
              "type": "bool"
            },
            {
              "internalType": "uint256",
              "name": "totalAmountBorrowed",
              "type": "uint256"
            },
            {
              "internalType": "uint256",
              "name": "totalAmountStaked",
              "type": "uint256"
            },
            {
              "internalType": "uint256",
              "name": "creditScore",
              "type": "uint256"
            },
            {
              "internalType": "uint256",
              "name": "ltv",
              "type": "uint256"
            },
            {
              "internalType": "bool",
              "name": "lock",
              "type": "bool"
            }
          ],
          "internalType": "struct HeadenFinanceParent.User",
          "name": "user",
          "type": "tuple"
        },
        {
          "internalType": "uint8",
          "name": "_chainId",
          "type": "uint8"
        }
      ],
      "name": "receiveUpdateFromChildChain",
      "outputs": [],
      "stateMutability": "nonpayable",
      "type": "function"
    },
    {
      "inputs": [
        {
          "internalType": "uint8",
          "name": "_chainId",
          "type": "uint8"
        }
      ],
      "name": "registerChildChain",
      "outputs": [],
      "stateMutability": "nonpayable",
      "type": "function"
    },
    {
      "inputs": [
        {
          "internalType": "address",
          "name": "",
          "type": "address"
        }
      ],
      "name": "relayers",
      "outputs": [
        {
          "internalType": "bool",
          "name": "",
          "type": "bool"
        }
      ],
      "stateMutability": "view",
      "type": "function"
    },
    {
      "inputs": [],
      "name": "renounceOwnership",
      "outputs": [],
      "stateMutability": "nonpayable",
      "type": "function"
    },
    {
      "inputs": [
        {
          "internalType": "address",
          "name": "_tokenAddress",
          "type": "address"
        },
        {
          "internalType": "uint256",
          "name": "_amount",
          "type": "uint256"
        }
      ],
      "name": "repayLoan",
      "outputs": [],
      "stateMutability": "nonpayable",
      "type": "function"
    },
    {
      "inputs": [
        {
          "internalType": "address",
          "name": "_tokenAddress",
          "type": "address"
        },
        {
          "internalType": "uint256",
          "name": "_amountToStake",
          "type": "uint256"
        }
      ],
      "name": "stakeToken",
      "outputs": [],
      "stateMutability": "nonpayable",
      "type": "function"
    },
    {
      "inputs": [
        {
          "internalType": "uint128",
          "name": "_id",
          "type": "uint128"
        }
      ],
      "name": "supplyInterestRates",
      "outputs": [
        {
          "internalType": "uint256",
          "name": "",
          "type": "uint256"
        }
      ],
      "stateMutability": "nonpayable",
      "type": "function"
    },
    {
      "inputs": [],
      "name": "supplyKink",
      "outputs": [
        {
          "internalType": "uint256",
          "name": "",
          "type": "uint256"
        }
      ],
      "stateMutability": "view",
      "type": "function"
    },
    {
      "inputs": [],
      "name": "supplyPerSecondInterestRateBase",
      "outputs": [
        {
          "internalType": "uint256",
          "name": "",
          "type": "uint256"
        }
      ],
      "stateMutability": "view",
      "type": "function"
    },
    {
      "inputs": [],
      "name": "supplyPerSecondInterestRateSlopeHigh",
      "outputs": [
        {
          "internalType": "uint256",
          "name": "",
          "type": "uint256"
        }
      ],
      "stateMutability": "view",
      "type": "function"
    },
    {
      "inputs": [],
      "name": "supplyPerSecondInterestRateSlopeLow",
      "outputs": [
        {
          "internalType": "uint256",
          "name": "",
          "type": "uint256"
        }
      ],
      "stateMutability": "view",
      "type": "function"
    },
    {
      "inputs": [],
      "name": "tax",
      "outputs": [
        {
          "internalType": "uint256",
          "name": "",
          "type": "uint256"
        }
      ],
      "stateMutability": "view",
      "type": "function"
    },
    {
      "inputs": [
        {
          "internalType": "address",
          "name": "newOwner",
          "type": "address"
        }
      ],
      "name": "transferOwnership",
      "outputs": [],
      "stateMutability": "nonpayable",
      "type": "function"
    },
    {
      "inputs": [
        {
          "internalType": "address",
          "name": "user",
          "type": "address"
        }
      ],
      "name": "updateChildChain",
      "outputs": [],
      "stateMutability": "nonpayable",
      "type": "function"
    },
    {
      "inputs": [
        {
          "components": [
            {
              "internalType": "uint64",
              "name": "supplyKink",
              "type": "uint64"
            },
            {
              "internalType": "uint64",
              "name": "supplyPerYearInterestRateSlopeLow",
              "type": "uint64"
            },
            {
              "internalType": "uint64",
              "name": "supplyPerYearInterestRateSlopeHigh",
              "type": "uint64"
            },
            {
              "internalType": "uint64",
              "name": "supplyPerYearInterestRateBase",
              "type": "uint64"
            },
            {
              "internalType": "uint64",
              "name": "borrowKink",
              "type": "uint64"
            },
            {
              "internalType": "uint64",
              "name": "borrowPerYearInterestRateSlopeLow",
              "type": "uint64"
            },
            {
              "internalType": "uint64",
              "name": "borrowPerYearInterestRateSlopeHigh",
              "type": "uint64"
            },
            {
              "internalType": "uint64",
              "name": "borrowPerYearInterestRateBase",
              "type": "uint64"
            }
          ],
          "internalType": "struct HeadenFinanceParent.Configuration",
          "name": "config",
          "type": "tuple"
        }
      ],
      "name": "updateConfiguration",
      "outputs": [],
      "stateMutability": "nonpayable",
      "type": "function"
    },
    {
      "inputs": [
        {
          "internalType": "uint256",
          "name": "amount",
          "type": "uint256"
        }
      ],
      "name": "usd_amount",
      "outputs": [
        {
          "internalType": "uint256",
          "name": "",
          "type": "uint256"
        }
      ],
      "stateMutability": "view",
      "type": "function"
    },
    {
      "inputs": [],
      "name": "usdc",
      "outputs": [
        {
          "internalType": "address",
          "name": "",
          "type": "address"
        }
      ],
      "stateMutability": "view",
      "type": "function"
    },
    {
      "inputs": [
        {
          "internalType": "uint8",
          "name": "",
          "type": "uint8"
        },
        {
          "internalType": "address",
          "name": "",
          "type": "address"
        }
      ],
      "name": "users",
      "outputs": [
        {
          "internalType": "address",
          "name": "userAddress",
          "type": "address"
        },
        {
          "internalType": "bool",
          "name": "available",
          "type": "bool"
        },
        {
          "internalType": "uint256",
          "name": "totalAmountBorrowed",
          "type": "uint256"
        },
        {
          "internalType": "uint256",
          "name": "totalAmountStaked",
          "type": "uint256"
        },
        {
          "internalType": "uint256",
          "name": "creditScore",
          "type": "uint256"
        },
        {
          "internalType": "uint256",
          "name": "ltv",
          "type": "uint256"
        },
        {
          "internalType": "bool",
          "name": "lock",
          "type": "bool"
        }
      ],
      "stateMutability": "view",
      "type": "function"
    },
    {
      "inputs": [
        {
          "internalType": "bytes32",
          "name": "",
          "type": "bytes32"
        }
      ],
      "name": "usersborrows",
      "outputs": [
        {
          "internalType": "address",
          "name": "userAddress",
          "type": "address"
        },
        {
          "internalType": "address",
          "name": "tokenAddress",
          "type": "address"
        },
        {
          "internalType": "bool",
          "name": "available",
          "type": "bool"
        },
        {
          "internalType": "uint256",
          "name": "amountBorrowed",
          "type": "uint256"
        },
        {
          "internalType": "address",
          "name": "collateralAddress",
          "type": "address"
        },
        {
          "internalType": "uint256",
          "name": "collateralAmount",
          "type": "uint256"
        },
        {
          "internalType": "address",
          "name": "borrowRouter",
          "type": "address"
        },
        {
          "internalType": "uint256",
          "name": "timeLastBorrowed",
          "type": "uint256"
        }
      ],
      "stateMutability": "view",
      "type": "function"
    },
    {
      "inputs": [
        {
          "internalType": "bytes32",
          "name": "",
          "type": "bytes32"
        }
      ],
      "name": "userstakes",
      "outputs": [
        {
          "internalType": "address",
          "name": "userAddress",
          "type": "address"
        },
        {
          "internalType": "address",
          "name": "tokenAddress",
          "type": "address"
        },
        {
          "internalType": "bool",
          "name": "available",
          "type": "bool"
        },
        {
          "internalType": "uint256",
          "name": "amountStaked",
          "type": "uint256"
        },
        {
          "internalType": "uint256",
          "name": "timeLastStaked",
          "type": "uint256"
        }
      ],
      "stateMutability": "view",
      "type": "function"
    },
    {
      "inputs": [],
      "name": "validateUsers",
      "outputs": [],
      "stateMutability": "nonpayable",
      "type": "function"
    },
    {
      "inputs": [
        {
          "internalType": "address",
          "name": "_tokenAddress",
          "type": "address"
        },
        {
          "internalType": "uint256",
          "name": "_amountToWithdraw",
          "type": "uint256"
        },
        {
          "internalType": "uint256",
          "name": "_chainId",
          "type": "uint256"
        },
        {
          "internalType": "address",
          "name": "_to",
          "type": "address"
        }
      ],
      "name": "withdrawToken",
      "outputs": [],
      "stateMutability": "nonpayable",
      "type": "function"
    }
  ],
  "bytecode": "0x60a0604052738fffffd4afb6115b954bd326cbe7b4ba576818f66000806101000a81548173ffffffffffffffffffffffffffffffffffffffff021916908373ffffffffffffffffffffffffffffffffffffffff16021790555061015e600555426006556301e13380600855670de0b6b3a7640000600d556000601c60006101000a8154816fffffffffffffffffffffffffffffffff02191690836fffffffffffffffffffffffffffffffff160217905550348015620000bd57600080fd5b50604051620090dc380380620090dc8339818101604052810190620000e3919062000861565b600180819055506200010a620000fe6200053c60201b60201c565b6200054460201b60201c565b88608081815250504260068190555087600760006101000a81548160ff021916908360ff16021790555086600960006101000a81548173ffffffffffffffffffffffffffffffffffffffff021916908373ffffffffffffffffffffffffffffffffffffffff1602179055506001601b60003373ffffffffffffffffffffffffffffffffffffffff1673ffffffffffffffffffffffffffffffffffffffff16815260200190815260200160002060006101000a81548160ff0219169083151502179055508560049080519060200190620001e59291906200060a565b5084600360006101000a81548173ffffffffffffffffffffffffffffffffffffffff021916908373ffffffffffffffffffffffffffffffffffffffff16021790555082600b60006101000a81548173ffffffffffffffffffffffffffffffffffffffff021916908373ffffffffffffffffffffffffffffffffffffffff16021790555083600a60006101000a81548173ffffffffffffffffffffffffffffffffffffffff021916908373ffffffffffffffffffffffffffffffffffffffff16021790555081600c60006101000a81548173ffffffffffffffffffffffffffffffffffffffff021916908373ffffffffffffffffffffffffffffffffffffffff160217905550601e8890806001815401808255809150506001900390600052602060002090602091828204019190069091909190916101000a81548160ff021916908360ff160217905550806000015167ffffffffffffffff16600e81905550600854816020015167ffffffffffffffff16816200038b577f4e487b7100000000000000000000000000000000000000000000000000000000600052601260045260246000fd5b04600f81905550600854816040015167ffffffffffffffff1681620003d9577f4e487b7100000000000000000000000000000000000000000000000000000000600052601260045260246000fd5b04601081905550600854816060015167ffffffffffffffff168162000427577f4e487b7100000000000000000000000000000000000000000000000000000000600052601260045260246000fd5b04601181905550806080015167ffffffffffffffff166012819055506008548160a0015167ffffffffffffffff16816200048a577f4e487b7100000000000000000000000000000000000000000000000000000000600052601260045260246000fd5b046013819055506008548160c0015167ffffffffffffffff1681620004d8577f4e487b7100000000000000000000000000000000000000000000000000000000600052601260045260246000fd5b046014819055506008548160e0015167ffffffffffffffff168162000526577f4e487b7100000000000000000000000000000000000000000000000000000000600052601260045260246000fd5b0460158190555050505050505050505062000b8a565b600033905090565b6000600260009054906101000a900473ffffffffffffffffffffffffffffffffffffffff16905081600260006101000a81548173ffffffffffffffffffffffffffffffffffffffff021916908373ffffffffffffffffffffffffffffffffffffffff1602179055508173ffffffffffffffffffffffffffffffffffffffff168173ffffffffffffffffffffffffffffffffffffffff167f8be0079c531659141344cd1fd0a4f28419497f9722a3daafe3b4186f6b6457e060405160405180910390a35050565b828054620006189062000a47565b90600052602060002090601f0160209004810192826200063c576000855562000688565b82601f106200065757805160ff191683800117855562000688565b8280016001018555821562000688579182015b82811115620006875782518255916020019190600101906200066a565b5b5090506200069791906200069b565b5090565b5b80821115620006b65760008160009055506001016200069c565b5090565b6000620006d1620006cb846200097c565b62000953565b905082815260208101848484011115620006ea57600080fd5b620006f784828562000a11565b509392505050565b600081519050620007108162000b22565b92915050565b600082601f8301126200072857600080fd5b81516200073a848260208601620006ba565b91505092915050565b600061010082840312156200075757600080fd5b6200076461010062000953565b90506000620007768482850162000833565b60008301525060206200078c8482850162000833565b6020830152506040620007a28482850162000833565b6040830152506060620007b88482850162000833565b6060830152506080620007ce8482850162000833565b60808301525060a0620007e48482850162000833565b60a08301525060c0620007fa8482850162000833565b60c08301525060e0620008108482850162000833565b60e08301525092915050565b6000815190506200082d8162000b3c565b92915050565b600081519050620008448162000b56565b92915050565b6000815190506200085b8162000b70565b92915050565b60008060008060008060008060006102008a8c0312156200088157600080fd5b6000620008918c828d016200081c565b9950506020620008a48c828d016200084a565b9850506040620008b78c828d01620006ff565b97505060608a015167ffffffffffffffff811115620008d557600080fd5b620008e38c828d0162000716565b9650506080620008f68c828d01620006ff565b95505060a0620009098c828d01620006ff565b94505060c06200091c8c828d01620006ff565b93505060e06200092f8c828d01620006ff565b925050610100620009438c828d0162000743565b9150509295985092959850929598565b60006200095f62000972565b90506200096d828262000a7d565b919050565b6000604051905090565b600067ffffffffffffffff8211156200099a576200099962000ae2565b5b620009a58262000b11565b9050602081019050919050565b6000620009bf82620009c6565b9050919050565b600073ffffffffffffffffffffffffffffffffffffffff82169050919050565b6000819050919050565b600067ffffffffffffffff82169050919050565b600060ff82169050919050565b60005b8381101562000a3157808201518184015260208101905062000a14565b8381111562000a41576000848401525b50505050565b6000600282049050600182168062000a6057607f821691505b6020821081141562000a775762000a7662000ab3565b5b50919050565b62000a888262000b11565b810181811067ffffffffffffffff8211171562000aaa5762000aa962000ae2565b5b80604052505050565b7f4e487b7100000000000000000000000000000000000000000000000000000000600052602260045260246000fd5b7f4e487b7100000000000000000000000000000000000000000000000000000000600052604160045260246000fd5b6000601f19601f8301169050919050565b62000b2d81620009b2565b811462000b3957600080fd5b50565b62000b4781620009e6565b811462000b5357600080fd5b50565b62000b6181620009f0565b811462000b6d57600080fd5b50565b62000b7b8162000a04565b811462000b8757600080fd5b50565b60805161852862000bb46000396000818161130e01528181612b7a01526134af01526185286000f3fe608060405234801561001057600080fd5b506004361061028a5760003560e01c80638da5cb5b1161015c578063b6b0b097116100ce578063f2fde38b11610087578063f2fde38b146107d1578063f39a476c146107ed578063f4b9fa7514610809578063f5a96d3f14610827578063f739ed9e14610831578063f78217e11461084d5761028a565b8063b6b0b0971461070d578063b8e9c9001461072b578063c6f4c5781461075b578063e0b5330714610779578063e6a69ab814610797578063f0c4e886146107b55761028a565b806399c8d5561161012057806399c8d5561461065d5780639a8a05921461067b578063a2953f3714610699578063a5b4ff79146106c9578063a5be54cd146106e7578063b1ebf729146106f15761028a565b80638da5cb5b146105c95780639241a561146105e757806393a595f514610605578063947a36fb1461062157806394920cca1461063f5761028a565b806352fcaa7911610200578063674a5423116101b9578063674a5423146105005780636e04ff0d14610536578063715018a6146105675780637914acc7146105715780637c1083331461058f578063804de71f146105ab5761028a565b806352fcaa79146104155780635300f841146104495780635a91b39c146104795780635a94b8d1146104955780635db11f79146104b357806365c65076146104e45761028a565b80633d3e49fc116102525780633d3e49fc1461033a5780633e413bee146103715780633f3b3b271461038f5780634585e33b146103ad5780634b69775a146103c95780634b98e0e5146103e55761028a565b806317967e4a1461028f5780631f3929e3146102ab5780632a48cf12146102c75780632d05670b146102e5578063396ce21314610303575b600080fd5b6102a960048036038101906102a491906169d3565b610869565b005b6102c560048036038101906102c0919061677d565b610d65565b005b6102cf6110fe565b6040516102dc91906175fc565b60405180910390f35b6102ed611104565b6040516102fa91906175fc565b60405180910390f35b61031d60048036038101906103189190616912565b61110a565b60405161033198979695949392919061706c565b60405180910390f35b610354600480360381019061034f9190616a10565b6111df565b604051610368989796959493929190617228565b60405180910390f35b610379611254565b6040516103869190617051565b60405180910390f35b61039761127a565b6040516103a491906175fc565b60405180910390f35b6103c760048036038101906103c2919061693b565b611280565b005b6103e360048036038101906103de91906169a9565b61135d565b005b6103ff60048036038101906103fa9190616a10565b6115d0565b60405161040c91906175fc565b60405180910390f35b61042f600480360381019061042a9190616912565b6116d4565b6040516104409594939291906170ea565b60405180910390f35b610463600480360381019061045e9190616754565b611757565b6040516104709190617328565b60405180910390f35b610493600480360381019061048e919061677d565b611777565b005b61049d611ff6565b6040516104aa91906175fc565b60405180910390f35b6104cd60048036038101906104c89190616754565b611ffc565b6040516104db929190617373565b60405180910390f35b6104fe60048036038101906104f991906167b9565b612049565b005b61051a60048036038101906105159190616add565b612aeb565b60405161052d97969594939291906171b9565b60405180910390f35b610550600480360381019061054b919061693b565b612b74565b60405161055e929190617343565b60405180910390f35b61056f612bb1565b005b610579612bc5565b60405161058691906175fc565b60405180910390f35b6105a960048036038101906105a49190616754565b612bcb565b005b6105b3612f89565b6040516105c091906175fc565b60405180910390f35b6105d1612f8f565b6040516105de9190617051565b60405180910390f35b6105ef612fb9565b6040516105fc91906175fc565b60405180910390f35b61061f600480360381019061061a919061677d565b612fbf565b005b6106296134ad565b60405161063691906175fc565b60405180910390f35b6106476134d1565b60405161065491906175fc565b60405180910390f35b6106656134d7565b60405161067291906175fc565b60405180910390f35b6106836134dd565b6040516106909190617647565b60405180910390f35b6106b360048036038101906106ae9190616a10565b6134f0565b6040516106c091906175fc565b60405180910390f35b6106d16135f4565b6040516106de91906175fc565b60405180910390f35b6106ef6135fa565b005b61070b60048036038101906107069190616754565b61395d565b005b610715613af7565b6040516107229190617051565b60405180910390f35b61074560048036038101906107409190616a39565b613b1d565b60405161075291906175fc565b60405180910390f35b610763613bdc565b6040516107709190617051565b60405180910390f35b610781613c02565b60405161078e91906175fc565b60405180910390f35b61079f613d27565b6040516107ac91906175fc565b60405180910390f35b6107cf60048036038101906107ca919061681c565b613d2d565b005b6107eb60048036038101906107e69190616754565b61447e565b005b61080760048036038101906108029190616754565b614502565b005b610811614565565b60405161081e9190617051565b60405180910390f35b61082f61458b565b005b61084b6004803603810190610846919061677d565b6146aa565b005b61086760048036038101906108629190616a8b565b614f79565b005b601b60003373ffffffffffffffffffffffffffffffffffffffff1673ffffffffffffffffffffffffffffffffffffffff16815260200190815260200160002060009054906101000a900460ff166108f5576040517f08c379a00000000000000000000000000000000000000000000000000000000081526004016108ec9061739c565b60405180910390fd5b60166000600760009054906101000a900460ff1660ff1660ff16815260200190815260200160002060008360000160208101906109329190616754565b73ffffffffffffffffffffffffffffffffffffffff1673ffffffffffffffffffffffffffffffffffffffff16815260200190815260200160002060000160149054906101000a900460ff16156109ff5781601660008360ff1660ff16815260200190815260200160002060008460000160208101906109b19190616754565b73ffffffffffffffffffffffffffffffffffffffff1673ffffffffffffffffffffffffffffffffffffffff16815260200190815260200160002081816109f791906183e6565b905050610c20565b601d826000016020810190610a149190616754565b9080600181540180825580915050600190039060005260206000200160009091909190916101000a81548173ffffffffffffffffffffffffffffffffffffffff021916908373ffffffffffffffffffffffffffffffffffffffff1602179055506040518060e00160405280836000016020810190610a929190616754565b73ffffffffffffffffffffffffffffffffffffffff1681526020016001151581526020018360400135815260200183606001358152602001836080013581526020018360a0013581526020018360c0016020810190610af191906168c0565b151581525060166000600760009054906101000a900460ff1660ff1660ff1681526020019081526020016000206000846000016020810190610b339190616754565b73ffffffffffffffffffffffffffffffffffffffff1673ffffffffffffffffffffffffffffffffffffffff16815260200190815260200160002060008201518160000160006101000a81548173ffffffffffffffffffffffffffffffffffffffff021916908373ffffffffffffffffffffffffffffffffffffffff16021790555060208201518160000160146101000a81548160ff02191690831515021790555060408201518160010155606082015181600201556080820151816003015560a0820151816004015560c08201518160050160006101000a81548160ff0219169083151502179055509050505b7ff55d29b60dedfbb54c4e0ca2dfb26f4db2a0e1319086f002722f41ce851365b3826000016020810190610c549190616754565b60166000600760009054906101000a900460ff1660ff1660ff1681526020019081526020016000206000856000016020810190610c919190616754565b73ffffffffffffffffffffffffffffffffffffffff1673ffffffffffffffffffffffffffffffffffffffff1681526020019081526020016000206002015460166000600760009054906101000a900460ff1660ff1660ff1681526020019081526020016000206000866000016020810190610d0c9190616754565b73ffffffffffffffffffffffffffffffffffffffff1673ffffffffffffffffffffffffffffffffffffffff16815260200190815260200160002060010154604051610d59939291906172cf565b60405180910390a15050565b6001601c60008282829054906101000a90046fffffffffffffffffffffffffffffffff16610d939190617772565b92506101000a8154816fffffffffffffffffffffffffffffffff02191690836fffffffffffffffffffffffffffffffff160217905550601a60008373ffffffffffffffffffffffffffffffffffffffff1673ffffffffffffffffffffffffffffffffffffffff16815260200190815260200160002060000160009054906101000a900460ff1615610e59576040517f08c379a0000000000000000000000000000000000000000000000000000000008152600401610e509061751c565b60405180910390fd5b6040518061010001604052808373ffffffffffffffffffffffffffffffffffffffff168152602001600115158152602001600081526020016000815260200142815260200142815260200160008152602001600081525060196000601c60009054906101000a90046fffffffffffffffffffffffffffffffff166fffffffffffffffffffffffffffffffff166fffffffffffffffffffffffffffffffff16815260200190815260200160002060008201518160000160006101000a81548173ffffffffffffffffffffffffffffffffffffffff021916908373ffffffffffffffffffffffffffffffffffffffff16021790555060208201518160000160146101000a81548160ff02191690831515021790555060408201518160010155606082015181600201556080820151816003015560a0820151816004015560c0820151816005015560e082015181600601559050506040518060400160405280600115158152602001601c60009054906101000a90046fffffffffffffffffffffffffffffffff166fffffffffffffffffffffffffffffffff16815250601a60008473ffffffffffffffffffffffffffffffffffffffff1673ffffffffffffffffffffffffffffffffffffffff16815260200190815260200160002060008201518160000160006101000a81548160ff02191690831515021790555060208201518160000160016101000a8154816fffffffffffffffffffffffffffffffff02191690836fffffffffffffffffffffffffffffffff16021790555090505060006110a08383614fc9565b90506110ad610dac613b1d565b8110156110ef576040517f08c379a00000000000000000000000000000000000000000000000000000000081526004016110e69061743c565b60405180910390fd5b6110f983836146aa565b505050565b60145481565b60135481565b60176020528060005260406000206000915090508060000160009054906101000a900473ffffffffffffffffffffffffffffffffffffffff16908060010160009054906101000a900473ffffffffffffffffffffffffffffffffffffffff16908060010160149054906101000a900460ff16908060020154908060030160009054906101000a900473ffffffffffffffffffffffffffffffffffffffff16908060040154908060050160009054906101000a900473ffffffffffffffffffffffffffffffffffffffff16908060060154905088565b60196020528060005260406000206000915090508060000160009054906101000a900473ffffffffffffffffffffffffffffffffffffffff16908060000160149054906101000a900460ff16908060010154908060020154908060030154908060040154908060050154908060060154905088565b600a60009054906101000a900473ffffffffffffffffffffffffffffffffffffffff1681565b60065481565b601b60003373ffffffffffffffffffffffffffffffffffffffff1673ffffffffffffffffffffffffffffffffffffffff16815260200190815260200160002060009054906101000a900460ff1661130c576040517f08c379a00000000000000000000000000000000000000000000000000000000081526004016113039061739c565b60405180910390fd5b7f00000000000000000000000000000000000000000000000000000000000000006006544261133b9190617a0a565b111561135957426006819055506113506135fa565b61135861458b565b5b5050565b611365614ff4565b8060000160208101906113789190616a62565b67ffffffffffffffff16600e8190555060085481602001602081019061139e9190616a62565b67ffffffffffffffff16816113dc577f4e487b7100000000000000000000000000000000000000000000000000000000600052601260045260246000fd5b04600f819055506008548160400160208101906113f99190616a62565b67ffffffffffffffff1681611437577f4e487b7100000000000000000000000000000000000000000000000000000000600052601260045260246000fd5b046010819055506008548160600160208101906114549190616a62565b67ffffffffffffffff1681611492577f4e487b7100000000000000000000000000000000000000000000000000000000600052601260045260246000fd5b046011819055508060800160208101906114ac9190616a62565b67ffffffffffffffff166012819055506008548160a00160208101906114d29190616a62565b67ffffffffffffffff1681611510577f4e487b7100000000000000000000000000000000000000000000000000000000600052601260045260246000fd5b046013819055506008548160c001602081019061152d9190616a62565b67ffffffffffffffff168161156b577f4e487b7100000000000000000000000000000000000000000000000000000000600052601260045260246000fd5b046014819055506008548160e00160208101906115889190616a62565b67ffffffffffffffff16816115c6577f4e487b7100000000000000000000000000000000000000000000000000000000600052601260045260246000fd5b0460158190555050565b60008060196000846fffffffffffffffffffffffffffffffff166fffffffffffffffffffffffffffffffff1681526020019081526020016000206001015461165160196000866fffffffffffffffffffffffffffffffff166fffffffffffffffffffffffffffffffff16815260200190815260200160002060020154613b1d565b61165b919061780e565b90506012548111611689578060135461167491906179b0565b60155461168191906177b8565b9150506116cf565b601254816116979190617a0a565b6014546116a491906179b0565b6012546013546116b491906179b0565b6015546116c191906177b8565b6116cb91906177b8565b9150505b919050565b60186020528060005260406000206000915090508060000160009054906101000a900473ffffffffffffffffffffffffffffffffffffffff16908060010160009054906101000a900473ffffffffffffffffffffffffffffffffffffffff16908060010160149054906101000a900460ff16908060020154908060030154905085565b601b6020528060005260406000206000915054906101000a900460ff1681565b60166000600760009054906101000a900460ff1660ff1660ff16815260200190815260200160002060003373ffffffffffffffffffffffffffffffffffffffff1673ffffffffffffffffffffffffffffffffffffffff16815260200190815260200160002060000160149054906101000a900460ff1661182c576040517f08c379a00000000000000000000000000000000000000000000000000000000081526004016118239061757c565b60405180910390fd5b60166000600760009054906101000a900460ff1660ff1660ff16815260200190815260200160002060003373ffffffffffffffffffffffffffffffffffffffff1673ffffffffffffffffffffffffffffffffffffffff16815260200190815260200160002060050160009054906101000a900460ff16156118e2576040517f08c379a00000000000000000000000000000000000000000000000000000000081526004016118d99061755c565b60405180910390fd5b60026001541415611928576040517f08c379a000000000000000000000000000000000000000000000000000000000815260040161191f9061759c565b60405180910390fd5b6002600181905550601a60008373ffffffffffffffffffffffffffffffffffffffff1673ffffffffffffffffffffffffffffffffffffffff16815260200190815260200160002060000160009054906101000a900460ff166119bf576040517f08c379a00000000000000000000000000000000000000000000000000000000081526004016119b69061747c565b60405180910390fd5b6000338360046040516020016119d793929190617018565b604051602081830303815290604052805190602001209050600061271083600554611a0291906179b0565b611a0c919061780e565b90506000611a1a8585614fc9565b9050600a8111611a5f576040517f08c379a0000000000000000000000000000000000000000000000000000000008152600401611a56906174dc565b60405180910390fd5b611a6833615072565b611b5860166000600760009054906101000a900460ff1660ff1660ff16815260200190815260200160002060003373ffffffffffffffffffffffffffffffffffffffff1673ffffffffffffffffffffffffffffffffffffffff168152602001908152602001600020600201546127108360166000600760009054906101000a900460ff1660ff1660ff16815260200190815260200160002060003373ffffffffffffffffffffffffffffffffffffffff1673ffffffffffffffffffffffffffffffffffffffff16815260200190815260200160002060010154611b4b91906177b8565b611b5591906179b0565b611b5f919061780e565b10611b9f576040517f08c379a0000000000000000000000000000000000000000000000000000000008152600401611b969061753c565b60405180910390fd5b6017600084815260200190815260200160002060010160149054906101000a900460ff1615611c155783601760008581526020019081526020016000206002016000828254611bee91906177b8565b92505081905550426017600085815260200190815260200160002060060181905550611e1e565b6040518061010001604052803373ffffffffffffffffffffffffffffffffffffffff1681526020018673ffffffffffffffffffffffffffffffffffffffff168152602001600115158152602001858152602001600073ffffffffffffffffffffffffffffffffffffffff16815260200160008152602001600073ffffffffffffffffffffffffffffffffffffffff168152602001428152506017600085815260200190815260200160002060008201518160000160006101000a81548173ffffffffffffffffffffffffffffffffffffffff021916908373ffffffffffffffffffffffffffffffffffffffff16021790555060208201518160010160006101000a81548173ffffffffffffffffffffffffffffffffffffffff021916908373ffffffffffffffffffffffffffffffffffffffff16021790555060408201518160010160146101000a81548160ff0219169083151502179055506060820151816002015560808201518160030160006101000a81548173ffffffffffffffffffffffffffffffffffffffff021916908373ffffffffffffffffffffffffffffffffffffffff16021790555060a0820151816004015560c08201518160050160006101000a81548173ffffffffffffffffffffffffffffffffffffffff021916908373ffffffffffffffffffffffffffffffffffffffff16021790555060e082015181600601559050505b8060166000600760009054906101000a900460ff1660ff1660ff16815260200190815260200160002060003373ffffffffffffffffffffffffffffffffffffffff1673ffffffffffffffffffffffffffffffffffffffff1681526020019081526020016000206001016000828254611e9691906177b8565b925050819055508473ffffffffffffffffffffffffffffffffffffffff1663a9059cbb338487611ec69190617a0a565b6040518363ffffffff1660e01b8152600401611ee39291906172a6565b602060405180830381600087803b158015611efd57600080fd5b505af1158015611f11573d6000803e3d6000fd5b505050506040513d601f19601f82011682018060405250810190611f3591906168e9565b611f74576040517f08c379a0000000000000000000000000000000000000000000000000000000008152600401611f6b9061745c565b60405180910390fd5b611fdf84600180601a60008a73ffffffffffffffffffffffffffffffffffffffff1673ffffffffffffffffffffffffffffffffffffffff16815260200190815260200160002060000160019054906101000a90046fffffffffffffffffffffffffffffffff1661532d565b611fe83361395d565b505050600180819055505050565b600f5481565b601a6020528060005260406000206000915090508060000160009054906101000a900460ff16908060000160019054906101000a90046fffffffffffffffffffffffffffffffff16905082565b60166000600760009054906101000a900460ff1660ff1660ff16815260200190815260200160002060003373ffffffffffffffffffffffffffffffffffffffff1673ffffffffffffffffffffffffffffffffffffffff16815260200190815260200160002060000160149054906101000a900460ff166120fe576040517f08c379a00000000000000000000000000000000000000000000000000000000081526004016120f59061757c565b60405180910390fd5b60166000600760009054906101000a900460ff1660ff1660ff16815260200190815260200160002060003373ffffffffffffffffffffffffffffffffffffffff1673ffffffffffffffffffffffffffffffffffffffff16815260200190815260200160002060050160009054906101000a900460ff16156121b4576040517f08c379a00000000000000000000000000000000000000000000000000000000081526004016121ab9061755c565b60405180910390fd5b600260015414156121fa576040517f08c379a00000000000000000000000000000000000000000000000000000000081526004016121f19061759c565b60405180910390fd5b6002600181905550601a60008573ffffffffffffffffffffffffffffffffffffffff1673ffffffffffffffffffffffffffffffffffffffff16815260200190815260200160002060000160009054906101000a900460ff16612291576040517f08c379a00000000000000000000000000000000000000000000000000000000081526004016122889061747c565b60405180910390fd5b6000338560046040516020016122a993929190617018565b6040516020818303038152906040528051906020012090506000612710856005546122d491906179b0565b6122de919061780e565b905060006122ec8787614fc9565b905060006123058684876123009190617a0a565b614fc9565b9050600a821161234a576040517f08c379a0000000000000000000000000000000000000000000000000000000008152600401612341906174dc565b60405180910390fd5b600a811161238d576040517f08c379a0000000000000000000000000000000000000000000000000000000008152600401612384906173dc565b60405180910390fd5b61239633615072565b611b588160166000600760009054906101000a900460ff1660ff1660ff16815260200190815260200160002060003373ffffffffffffffffffffffffffffffffffffffff1673ffffffffffffffffffffffffffffffffffffffff1681526020019081526020016000206002015461240d91906177b8565b6127108460166000600760009054906101000a900460ff1660ff1660ff16815260200190815260200160002060003373ffffffffffffffffffffffffffffffffffffffff1673ffffffffffffffffffffffffffffffffffffffff1681526020019081526020016000206001015461248491906177b8565b61248e91906179b0565b612498919061780e565b106124d8576040517f08c379a00000000000000000000000000000000000000000000000000000000081526004016124cf9061753c565b60405180910390fd5b6017600085815260200190815260200160002060010160149054906101000a900460ff161561254e578660176000868152602001908152602001600020600201600082825461252791906177b8565b92505081905550426017600086815260200190815260200160002060060181905550612757565b6040518061010001604052803373ffffffffffffffffffffffffffffffffffffffff1681526020018973ffffffffffffffffffffffffffffffffffffffff168152602001600115158152602001888152602001600073ffffffffffffffffffffffffffffffffffffffff16815260200160008152602001600073ffffffffffffffffffffffffffffffffffffffff168152602001428152506017600086815260200190815260200160002060008201518160000160006101000a81548173ffffffffffffffffffffffffffffffffffffffff021916908373ffffffffffffffffffffffffffffffffffffffff16021790555060208201518160010160006101000a81548173ffffffffffffffffffffffffffffffffffffffff021916908373ffffffffffffffffffffffffffffffffffffffff16021790555060408201518160010160146101000a81548160ff0219169083151502179055506060820151816002015560808201518160030160006101000a81548173ffffffffffffffffffffffffffffffffffffffff021916908373ffffffffffffffffffffffffffffffffffffffff16021790555060a0820151816004015560c08201518160050160006101000a81548173ffffffffffffffffffffffffffffffffffffffff021916908373ffffffffffffffffffffffffffffffffffffffff16021790555060e082015181600601559050505b8160166000600760009054906101000a900460ff1660ff1660ff16815260200190815260200160002060003373ffffffffffffffffffffffffffffffffffffffff1673ffffffffffffffffffffffffffffffffffffffff16815260200190815260200160002060010160008282546127cf91906177b8565b925050819055508060166000600760009054906101000a900460ff1660ff1660ff16815260200190815260200160002060003373ffffffffffffffffffffffffffffffffffffffff1673ffffffffffffffffffffffffffffffffffffffff168152602001908152602001600020600201600082825461284e91906177b8565b925050819055508573ffffffffffffffffffffffffffffffffffffffff166323b872dd3330886040518463ffffffff1660e01b81526004016128929392919061713d565b602060405180830381600087803b1580156128ac57600080fd5b505af11580156128c0573d6000803e3d6000fd5b505050506040513d601f19601f820116820180604052508101906128e491906168e9565b612923576040517f08c379a000000000000000000000000000000000000000000000000000000000815260040161291a9061745c565b60405180910390fd5b8773ffffffffffffffffffffffffffffffffffffffff1663a9059cbb33858a61294c9190617a0a565b6040518363ffffffff1660e01b81526004016129699291906172a6565b602060405180830381600087803b15801561298357600080fd5b505af1158015612997573d6000803e3d6000fd5b505050506040513d601f19601f820116820180604052508101906129bb91906168e9565b6129fa576040517f08c379a00000000000000000000000000000000000000000000000000000000081526004016129f19061745c565b60405180910390fd5b612a6587600180601a60008d73ffffffffffffffffffffffffffffffffffffffff1673ffffffffffffffffffffffffffffffffffffffff16815260200190815260200160002060000160019054906101000a90046fffffffffffffffffffffffffffffffff1661532d565b612ad18560006001601a60008b73ffffffffffffffffffffffffffffffffffffffff1673ffffffffffffffffffffffffffffffffffffffff16815260200190815260200160002060000160019054906101000a90046fffffffffffffffffffffffffffffffff1661532d565b612ada3361395d565b505050506001808190555050505050565b6016602052816000526040600020602052806000526040600020600091509150508060000160009054906101000a900473ffffffffffffffffffffffffffffffffffffffff16908060000160149054906101000a900460ff16908060010154908060020154908060030154908060040154908060050160009054906101000a900460ff16905087565b600060607f000000000000000000000000000000000000000000000000000000000000000060065442612ba79190617a0a565b1191509250929050565b612bb9614ff4565b612bc36000615519565b565b60155481565b601b60003373ffffffffffffffffffffffffffffffffffffffff1673ffffffffffffffffffffffffffffffffffffffff16815260200190815260200160002060009054906101000a900460ff16612c57576040517f08c379a0000000000000000000000000000000000000000000000000000000008152600401612c4e9061739c565b60405180910390fd5b6001601c60008282829054906101000a90046fffffffffffffffffffffffffffffffff16612c859190617772565b92506101000a8154816fffffffffffffffffffffffffffffffff02191690836fffffffffffffffffffffffffffffffff160217905550601a60008273ffffffffffffffffffffffffffffffffffffffff1673ffffffffffffffffffffffffffffffffffffffff16815260200190815260200160002060000160009054906101000a900460ff1615612d4b576040517f08c379a0000000000000000000000000000000000000000000000000000000008152600401612d429061751c565b60405180910390fd5b6040518061010001604052808273ffffffffffffffffffffffffffffffffffffffff168152602001600115158152602001600081526020016000815260200142815260200142815260200160008152602001600081525060196000601c60009054906101000a90046fffffffffffffffffffffffffffffffff166fffffffffffffffffffffffffffffffff166fffffffffffffffffffffffffffffffff16815260200190815260200160002060008201518160000160006101000a81548173ffffffffffffffffffffffffffffffffffffffff021916908373ffffffffffffffffffffffffffffffffffffffff16021790555060208201518160000160146101000a81548160ff02191690831515021790555060408201518160010155606082015181600201556080820151816003015560a0820151816004015560c0820151816005015560e082015181600601559050506040518060400160405280600115158152602001601c60009054906101000a90046fffffffffffffffffffffffffffffffff166fffffffffffffffffffffffffffffffff16815250601a60008373ffffffffffffffffffffffffffffffffffffffff1673ffffffffffffffffffffffffffffffffffffffff16815260200190815260200160002060008201518160000160006101000a81548160ff02191690831515021790555060208201518160000160016101000a8154816fffffffffffffffffffffffffffffffff02191690836fffffffffffffffffffffffffffffffff16021790555090505050565b60105481565b6000600260009054906101000a900473ffffffffffffffffffffffffffffffffffffffff16905090565b60125481565b60166000600760009054906101000a900460ff1660ff1660ff16815260200190815260200160002060003373ffffffffffffffffffffffffffffffffffffffff1673ffffffffffffffffffffffffffffffffffffffff16815260200190815260200160002060000160149054906101000a900460ff16613074576040517f08c379a000000000000000000000000000000000000000000000000000000000815260040161306b9061757c565b60405180910390fd5b60166000600760009054906101000a900460ff1660ff1660ff16815260200190815260200160002060003373ffffffffffffffffffffffffffffffffffffffff1673ffffffffffffffffffffffffffffffffffffffff16815260200190815260200160002060050160009054906101000a900460ff161561312a576040517f08c379a00000000000000000000000000000000000000000000000000000000081526004016131219061755c565b60405180910390fd5b60026001541415613170576040517f08c379a00000000000000000000000000000000000000000000000000000000081526004016131679061759c565b60405180910390fd5b6002600181905550601a60008373ffffffffffffffffffffffffffffffffffffffff1673ffffffffffffffffffffffffffffffffffffffff16815260200190815260200160002060000160009054906101000a900460ff16613207576040517f08c379a00000000000000000000000000000000000000000000000000000000081526004016131fe9061747c565b60405180910390fd5b60003383600460405160200161321f93929190617018565b60405160208183030381529060405280519060200120905060006127108360055461324a91906179b0565b613254919061780e565b905060006132628585614fc9565b9050600a81116132a7576040517f08c379a000000000000000000000000000000000000000000000000000000000815260040161329e906173bc565b60405180910390fd5b6132b033615072565b836017600085815260200190815260200160002060020160008282546132d69190617a0a565b925050819055508060166000600760009054906101000a900460ff1660ff1660ff16815260200190815260200160002060003373ffffffffffffffffffffffffffffffffffffffff1673ffffffffffffffffffffffffffffffffffffffff16815260200190815260200160002060010160008282546133559190617a0a565b925050819055506133c88460016000601a60008a73ffffffffffffffffffffffffffffffffffffffff1673ffffffffffffffffffffffffffffffffffffffff16815260200190815260200160002060000160019054906101000a90046fffffffffffffffffffffffffffffffff1661532d565b8473ffffffffffffffffffffffffffffffffffffffff166323b872dd3330876040518463ffffffff1660e01b81526004016134059392919061713d565b602060405180830381600087803b15801561341f57600080fd5b505af1158015613433573d6000803e3d6000fd5b505050506040513d601f19601f8201168201806040525081019061345791906168e9565b613496576040517f08c379a000000000000000000000000000000000000000000000000000000000815260040161348d9061745c565b60405180910390fd5b61349f3361395d565b505050600180819055505050565b7f000000000000000000000000000000000000000000000000000000000000000081565b60115481565b60055481565b600760009054906101000a900460ff1681565b60008060196000846fffffffffffffffffffffffffffffffff166fffffffffffffffffffffffffffffffff1681526020019081526020016000206001015461357160196000866fffffffffffffffffffffffffffffffff166fffffffffffffffffffffffffffffffff16815260200190815260200160002060020154613b1d565b61357b919061780e565b9050600e5481116135a95780600f5461359491906179b0565b6011546135a191906177b8565b9150506135ef565b600e54816135b79190617a0a565b6010546135c491906179b0565b600e54600f546135d491906179b0565b6011546135e191906177b8565b6135eb91906177b8565b9150505b919050565b600e5481565b601b60003373ffffffffffffffffffffffffffffffffffffffff1673ffffffffffffffffffffffffffffffffffffffff16815260200190815260200160002060009054906101000a900460ff16613686576040517f08c379a000000000000000000000000000000000000000000000000000000000815260040161367d9061739c565b60405180910390fd5b606060005b601d805490508110156139225760006040518060600160405280601d84815481106136df577f4e487b7100000000000000000000000000000000000000000000000000000000600052603260045260246000fd5b9060005260206000200160009054906101000a900473ffffffffffffffffffffffffffffffffffffffff1673ffffffffffffffffffffffffffffffffffffffff16815260200160166000600760009054906101000a900460ff1660ff1660ff1681526020019081526020016000206000601d8681548110613789577f4e487b7100000000000000000000000000000000000000000000000000000000600052603260045260246000fd5b9060005260206000200160009054906101000a900473ffffffffffffffffffffffffffffffffffffffff1673ffffffffffffffffffffffffffffffffffffffff1673ffffffffffffffffffffffffffffffffffffffff16815260200190815260200160002060020154815260200160166000600760009054906101000a900460ff1660ff1660ff1681526020019081526020016000206000601d868154811061385b577f4e487b7100000000000000000000000000000000000000000000000000000000600052603260045260246000fd5b9060005260206000200160009054906101000a900473ffffffffffffffffffffffffffffffffffffffff1673ffffffffffffffffffffffffffffffffffffffff1673ffffffffffffffffffffffffffffffffffffffff16815260200190815260200160002060010154815250905080838381518110613903577f4e487b7100000000000000000000000000000000000000000000000000000000600052603260045260246000fd5b602002602001018190525050808061391a90617ceb565b91505061368b565b507faaf8c6b9b810a1670be7b114d93e7171681228e4e31f6d8bf2367c2501118af1816040516139529190617306565b60405180910390a150565b601b60003373ffffffffffffffffffffffffffffffffffffffff1673ffffffffffffffffffffffffffffffffffffffff16815260200190815260200160002060009054906101000a900460ff166139e9576040517f08c379a00000000000000000000000000000000000000000000000000000000081526004016139e09061739c565b60405180910390fd5b7ff55d29b60dedfbb54c4e0ca2dfb26f4db2a0e1319086f002722f41ce851365b38160166000600760009054906101000a900460ff1660ff1660ff16815260200190815260200160002060008473ffffffffffffffffffffffffffffffffffffffff1673ffffffffffffffffffffffffffffffffffffffff1681526020019081526020016000206002015460166000600760009054906101000a900460ff1660ff1660ff16815260200190815260200160002060008573ffffffffffffffffffffffffffffffffffffffff1673ffffffffffffffffffffffffffffffffffffffff16815260200190815260200160002060010154604051613aec939291906172cf565b60405180910390a150565b600c60009054906101000a900473ffffffffffffffffffffffffffffffffffffffff1681565b60008060009054906101000a900473ffffffffffffffffffffffffffffffffffffffff1673ffffffffffffffffffffffffffffffffffffffff1663313ce5676040518163ffffffff1660e01b815260040160206040518083038186803b158015613b8657600080fd5b505afa158015613b9a573d6000803e3d6000fd5b505050506040513d601f19601f82011682018060405250810190613bbe9190616ab4565b600a613bca9190617892565b82613bd591906179b0565b9050919050565b600960009054906101000a900473ffffffffffffffffffffffffffffffffffffffff1681565b600060166000600760009054906101000a900460ff1660ff1660ff16815260200190815260200160002060003373ffffffffffffffffffffffffffffffffffffffff1673ffffffffffffffffffffffffffffffffffffffff16815260200190815260200160002060000160149054906101000a900460ff16613cb9576040517f08c379a0000000000000000000000000000000000000000000000000000000008152600401613cb0906175dc565b60405180910390fd5b60166000600760009054906101000a900460ff1660ff1660ff16815260200190815260200160002060003373ffffffffffffffffffffffffffffffffffffffff1673ffffffffffffffffffffffffffffffffffffffff16815260200190815260200160002060040154905090565b60085481565b60166000600760009054906101000a900460ff1660ff1660ff16815260200190815260200160002060003373ffffffffffffffffffffffffffffffffffffffff1673ffffffffffffffffffffffffffffffffffffffff16815260200190815260200160002060000160149054906101000a900460ff16613de2576040517f08c379a0000000000000000000000000000000000000000000000000000000008152600401613dd99061757c565b60405180910390fd5b60166000600760009054906101000a900460ff1660ff1660ff16815260200190815260200160002060003373ffffffffffffffffffffffffffffffffffffffff1673ffffffffffffffffffffffffffffffffffffffff16815260200190815260200160002060050160009054906101000a900460ff1615613e98576040517f08c379a0000000000000000000000000000000000000000000000000000000008152600401613e8f9061755c565b60405180910390fd5b60026001541415613ede576040517f08c379a0000000000000000000000000000000000000000000000000000000008152600401613ed59061759c565b60405180910390fd5b6002600181905550601a60008573ffffffffffffffffffffffffffffffffffffffff1673ffffffffffffffffffffffffffffffffffffffff16815260200190815260200160002060000160009054906101000a900460ff16613f75576040517f08c379a0000000000000000000000000000000000000000000000000000000008152600401613f6c9061747c565b60405180910390fd5b600033856004604051602001613f8d93929190617018565b604051602081830303815290604052805190602001209050600061271085600554613fb891906179b0565b613fc2919061780e565b90506000613fdb878388613fd69190617a0a565b614fc9565b9050600a8111614020576040517f08c379a00000000000000000000000000000000000000000000000000000000081526004016140179061749c565b60405180910390fd5b85601860008581526020019081526020016000206002015411614078576040517f08c379a000000000000000000000000000000000000000000000000000000000815260040161406f906175bc565b60405180910390fd5b61408133615072565b611b588160166000600760009054906101000a900460ff1660ff1660ff16815260200190815260200160002060003373ffffffffffffffffffffffffffffffffffffffff1673ffffffffffffffffffffffffffffffffffffffff168152602001908152602001600020600201546140f89190617a0a565b61271060166000600760009054906101000a900460ff1660ff1660ff16815260200190815260200160002060003373ffffffffffffffffffffffffffffffffffffffff1673ffffffffffffffffffffffffffffffffffffffff1681526020019081526020016000206001015461416e91906179b0565b614178919061780e565b106141b8576040517f08c379a00000000000000000000000000000000000000000000000000000000081526004016141af9061753c565b60405180910390fd5b856018600085815260200190815260200160002060020160008282546141de9190617a0a565b925050819055508060166000600760009054906101000a900460ff1660ff1660ff16815260200190815260200160002060003373ffffffffffffffffffffffffffffffffffffffff1673ffffffffffffffffffffffffffffffffffffffff168152602001908152602001600020600201600082825461425d9190617a0a565b9250508190555084600760009054906101000a900460ff1660ff161461432057600960009054906101000a900473ffffffffffffffffffffffffffffffffffffffff1673ffffffffffffffffffffffffffffffffffffffff1663241dc2df8886858a6142c99190617a0a565b896040518563ffffffff1660e01b81526004016142e99493929190617174565b600060405180830381600087803b15801561430357600080fd5b505af1158015614317573d6000803e3d6000fd5b505050506143fa565b8673ffffffffffffffffffffffffffffffffffffffff166323b872dd3033858a61434a9190617a0a565b6040518463ffffffff1660e01b81526004016143689392919061713d565b602060405180830381600087803b15801561438257600080fd5b505af1158015614396573d6000803e3d6000fd5b505050506040513d601f19601f820116820180604052508101906143ba91906168e9565b6143f9576040517f08c379a00000000000000000000000000000000000000000000000000000000081526004016143f09061745c565b60405180910390fd5b5b61446586600080601a60008c73ffffffffffffffffffffffffffffffffffffffff1673ffffffffffffffffffffffffffffffffffffffff16815260200190815260200160002060000160019054906101000a90046fffffffffffffffffffffffffffffffff1661532d565b61446e3361395d565b5050506001808190555050505050565b614486614ff4565b600073ffffffffffffffffffffffffffffffffffffffff168173ffffffffffffffffffffffffffffffffffffffff1614156144f6576040517f08c379a00000000000000000000000000000000000000000000000000000000081526004016144ed9061741c565b60405180910390fd5b6144ff81615519565b50565b61450a614ff4565b6001601b60008373ffffffffffffffffffffffffffffffffffffffff1673ffffffffffffffffffffffffffffffffffffffff16815260200190815260200160002060006101000a81548160ff02191690831515021790555050565b600b60009054906101000a900473ffffffffffffffffffffffffffffffffffffffff1681565b601b60003373ffffffffffffffffffffffffffffffffffffffff1673ffffffffffffffffffffffffffffffffffffffff16815260200190815260200160002060009054906101000a900460ff16614617576040517f08c379a000000000000000000000000000000000000000000000000000000000815260040161460e9061739c565b60405180910390fd5b60005b601d805490508110156146a757614694601d8281548110614664577f4e487b7100000000000000000000000000000000000000000000000000000000600052603260045260246000fd5b9060005260206000200160009054906101000a900473ffffffffffffffffffffffffffffffffffffffff166155df565b808061469f90617ceb565b91505061461a565b50565b60166000600760009054906101000a900460ff1660ff1660ff16815260200190815260200160002060003373ffffffffffffffffffffffffffffffffffffffff1673ffffffffffffffffffffffffffffffffffffffff16815260200190815260200160002060000160149054906101000a900460ff166148f2576040518060e001604052803373ffffffffffffffffffffffffffffffffffffffff168152602001600115158152602001600081526020016000815260200160008152602001600081526020016000151581525060166000600760009054906101000a900460ff1660ff1660ff16815260200190815260200160002060003373ffffffffffffffffffffffffffffffffffffffff1673ffffffffffffffffffffffffffffffffffffffff16815260200190815260200160002060008201518160000160006101000a81548173ffffffffffffffffffffffffffffffffffffffff021916908373ffffffffffffffffffffffffffffffffffffffff16021790555060208201518160000160146101000a81548160ff02191690831515021790555060408201518160010155606082015181600201556080820151816003015560a0820151816004015560c08201518160050160006101000a81548160ff021916908315150217905550905050601d339080600181540180825580915050600190039060005260206000200160009091909190916101000a81548173ffffffffffffffffffffffffffffffffffffffff021916908373ffffffffffffffffffffffffffffffffffffffff1602179055505b60166000600760009054906101000a900460ff1660ff1660ff16815260200190815260200160002060003373ffffffffffffffffffffffffffffffffffffffff1673ffffffffffffffffffffffffffffffffffffffff16815260200190815260200160002060000160149054906101000a900460ff166149a7576040517f08c379a000000000000000000000000000000000000000000000000000000000815260040161499e9061757c565b60405180910390fd5b60166000600760009054906101000a900460ff1660ff1660ff16815260200190815260200160002060003373ffffffffffffffffffffffffffffffffffffffff1673ffffffffffffffffffffffffffffffffffffffff16815260200190815260200160002060050160009054906101000a900460ff1615614a5d576040517f08c379a0000000000000000000000000000000000000000000000000000000008152600401614a549061755c565b60405180910390fd5b60026001541415614aa3576040517f08c379a0000000000000000000000000000000000000000000000000000000008152600401614a9a9061759c565b60405180910390fd5b6002600181905550601a60008373ffffffffffffffffffffffffffffffffffffffff1673ffffffffffffffffffffffffffffffffffffffff16815260200190815260200160002060000160009054906101000a900460ff16614b3a576040517f08c379a0000000000000000000000000000000000000000000000000000000008152600401614b319061747c565b60405180910390fd5b600033836004604051602001614b5293929190617018565b604051602081830303815290604052805190602001209050600061271083600554614b7d91906179b0565b614b87919061780e565b90506000614ba0858386614b9b9190617a0a565b614fc9565b9050600a8111614be5576040517f08c379a0000000000000000000000000000000000000000000000000000000008152600401614bdc906174bc565b60405180910390fd5b614bee33615072565b6018600084815260200190815260200160002060010160149054906101000a900460ff1615614c6f578184614c239190617a0a565b601860008581526020019081526020016000206002016000828254614c4891906177b8565b92505081905550426018600085815260200190815260200160002060030181905550614da9565b6040518060a001604052803373ffffffffffffffffffffffffffffffffffffffff1681526020018673ffffffffffffffffffffffffffffffffffffffff1681526020016001151581526020018386614cc79190617a0a565b8152602001428152506018600085815260200190815260200160002060008201518160000160006101000a81548173ffffffffffffffffffffffffffffffffffffffff021916908373ffffffffffffffffffffffffffffffffffffffff16021790555060208201518160010160006101000a81548173ffffffffffffffffffffffffffffffffffffffff021916908373ffffffffffffffffffffffffffffffffffffffff16021790555060408201518160010160146101000a81548160ff02191690831515021790555060608201518160020155608082015181600301559050505b8060166000600760009054906101000a900460ff1660ff1660ff16815260200190815260200160002060003373ffffffffffffffffffffffffffffffffffffffff1673ffffffffffffffffffffffffffffffffffffffff1681526020019081526020016000206002016000828254614e2191906177b8565b92505081905550614e948460006001601a60008a73ffffffffffffffffffffffffffffffffffffffff1673ffffffffffffffffffffffffffffffffffffffff16815260200190815260200160002060000160019054906101000a90046fffffffffffffffffffffffffffffffff1661532d565b8473ffffffffffffffffffffffffffffffffffffffff166323b872dd3330876040518463ffffffff1660e01b8152600401614ed19392919061713d565b602060405180830381600087803b158015614eeb57600080fd5b505af1158015614eff573d6000803e3d6000fd5b505050506040513d601f19601f82011682018060405250810190614f2391906168e9565b614f62576040517f08c379a0000000000000000000000000000000000000000000000000000000008152600401614f599061745c565b60405180910390fd5b614f6b3361395d565b505050600180819055505050565b614f81614ff4565b601e8190806001815401808255809150506001900390600052602060002090602091828204019190069091909190916101000a81548160ff021916908360ff16021790555050565b6000600d5482614fd8856159a4565b614fe291906179b0565b614fec919061780e565b905092915050565b614ffc615afb565b73ffffffffffffffffffffffffffffffffffffffff1661501a612f8f565b73ffffffffffffffffffffffffffffffffffffffff1614615070576040517f08c379a0000000000000000000000000000000000000000000000000000000008152600401615067906174fc565b60405180910390fd5b565b60005b601e80549050816fffffffffffffffffffffffffffffffff1611615329576000601e826fffffffffffffffffffffffffffffffff16815481106150e1577f4e487b7100000000000000000000000000000000000000000000000000000000600052603260045260246000fd5b90600052602060002090602091828204019190069054906101000a900460ff16905061510c83615b03565b601660008360ff1660ff16815260200190815260200160002060008573ffffffffffffffffffffffffffffffffffffffff1673ffffffffffffffffffffffffffffffffffffffff1681526020019081526020016000206001018190555061517283615cd6565b601660008360ff1660ff16815260200190815260200160002060008573ffffffffffffffffffffffffffffffffffffffff1673ffffffffffffffffffffffffffffffffffffffff1681526020019081526020016000206002018190555060166000600760009054906101000a900460ff1660ff1660ff16815260200190815260200160002060008473ffffffffffffffffffffffffffffffffffffffff1673ffffffffffffffffffffffffffffffffffffffff16815260200190815260200160002060020154612710601660008460ff1660ff16815260200190815260200160002060008673ffffffffffffffffffffffffffffffffffffffff1673ffffffffffffffffffffffffffffffffffffffff1681526020019081526020016000206001015461529f91906179b0565b6152a9919061780e565b60166000600760009054906101000a900460ff1660ff1660ff16815260200190815260200160002060008573ffffffffffffffffffffffffffffffffffffffff1673ffffffffffffffffffffffffffffffffffffffff1681526020019081526020016000206004018190555050808061532190617cb2565b915050615075565b5050565b821561542557811561538f578360196000836fffffffffffffffffffffffffffffffff166fffffffffffffffffffffffffffffffff168152602001908152602001600020600201600082825461538391906177b8565b925050819055506153e1565b8360196000836fffffffffffffffffffffffffffffffff166fffffffffffffffffffffffffffffffff16815260200190815260200160002060020160008282546153d99190617a0a565b925050819055505b4260196000836fffffffffffffffffffffffffffffffff166fffffffffffffffffffffffffffffffff16815260200190815260200160002060030181905550615513565b8115615481578360196000836fffffffffffffffffffffffffffffffff166fffffffffffffffffffffffffffffffff168152602001908152602001600020600101600082825461547591906177b8565b925050819055506154d3565b8360196000836fffffffffffffffffffffffffffffffff166fffffffffffffffffffffffffffffffff16815260200190815260200160002060010160008282546154cb9190617a0a565b925050819055505b4260196000836fffffffffffffffffffffffffffffffff166fffffffffffffffffffffffffffffffff168152602001908152602001600020600401819055505b50505050565b6000600260009054906101000a900473ffffffffffffffffffffffffffffffffffffffff16905081600260006101000a81548173ffffffffffffffffffffffffffffffffffffffff021916908373ffffffffffffffffffffffffffffffffffffffff1602179055508173ffffffffffffffffffffffffffffffffffffffff168173ffffffffffffffffffffffffffffffffffffffff167f8be0079c531659141344cd1fd0a4f28419497f9722a3daafe3b4186f6b6457e060405160405180910390a35050565b6155e881615072565b6000611b59905061232860166000600760009054906101000a900460ff1660ff1660ff16815260200190815260200160002060008473ffffffffffffffffffffffffffffffffffffffff1673ffffffffffffffffffffffffffffffffffffffff16815260200190815260200160002060030154111561566b576121359050615761565b611f4060166000600760009054906101000a900460ff1660ff1660ff16815260200190815260200160002060008473ffffffffffffffffffffffffffffffffffffffff1673ffffffffffffffffffffffffffffffffffffffff1681526020019081526020016000206003015411156156e757611f419050615760565b611b5860166000600760009054906101000a900460ff1660ff1660ff16815260200190815260200160002060008473ffffffffffffffffffffffffffffffffffffffff1673ffffffffffffffffffffffffffffffffffffffff16815260200190815260200160002060030154111561575f57611d4d90505b5b5b8060166000600760009054906101000a900460ff1660ff1660ff16815260200190815260200160002060008473ffffffffffffffffffffffffffffffffffffffff1673ffffffffffffffffffffffffffffffffffffffff1681526020019081526020016000206004015411156159a05760005b601c60009054906101000a90046fffffffffffffffffffffffffffffffff166fffffffffffffffffffffffffffffffff16816fffffffffffffffffffffffffffffffff161161599e5760008360196000846fffffffffffffffffffffffffffffffff166fffffffffffffffffffffffffffffffff16815260200190815260200160002060000160009054906101000a900473ffffffffffffffffffffffffffffffffffffffff16600460405160200161588f93929190617018565b6040516020818303038152906040528051906020012090508260166000600760009054906101000a900460ff1660ff1660ff16815260200190815260200160002060008673ffffffffffffffffffffffffffffffffffffffff1673ffffffffffffffffffffffffffffffffffffffff16815260200190815260200160002060040154101561591d575061599e565b6159818460196000856fffffffffffffffffffffffffffffffff166fffffffffffffffffffffffffffffffff16815260200190815260200160002060000160009054906101000a900473ffffffffffffffffffffffffffffffffffffffff16615ea9565b61598a84615072565b50808061599690617cb2565b9150506157d4565b505b5050565b6000806159b083615ead565b905060008151116159f6576040517f08c379a00000000000000000000000000000000000000000000000000000000081526004016159ed906173fc565b60405180910390fd5b6000615a33600d546001615a0a91906179b0565b600360009054906101000a900473ffffffffffffffffffffffffffffffffffffffff1684616469565b905060008060009054906101000a900473ffffffffffffffffffffffffffffffffffffffff1673ffffffffffffffffffffffffffffffffffffffff166350d25bcd6040518163ffffffff1660e01b815260040160206040518083038186803b158015615a9e57600080fd5b505afa158015615ab2573d6000803e3d6000fd5b505050506040513d601f19601f82011682018060405250810190615ad69190616980565b9050600d548183615ae791906179b0565b615af1919061780e565b9350505050919050565b600033905090565b600060026001541415615b4b576040517f08c379a0000000000000000000000000000000000000000000000000000000008152600401615b429061759c565b60405180910390fd5b60026001819055506000805b601c60009054906101000a90046fffffffffffffffffffffffffffffffff166fffffffffffffffffffffffffffffffff16816fffffffffffffffffffffffffffffffff1611615cc55760008460196000846fffffffffffffffffffffffffffffffff166fffffffffffffffffffffffffffffffff16815260200190815260200160002060000160009054906101000a900473ffffffffffffffffffffffffffffffffffffffff166004604051602001615c1293929190617018565b604051602081830303815290604052805190602001209050615ca460196000846fffffffffffffffffffffffffffffffff166fffffffffffffffffffffffffffffffff16815260200190815260200160002060000160009054906101000a900473ffffffffffffffffffffffffffffffffffffffff166017600084815260200190815260200160002060020154614fc9565b83615caf91906177b8565b9250508080615cbd90617cb2565b915050615b57565b508091505060018081905550919050565b600060026001541415615d1e576040517f08c379a0000000000000000000000000000000000000000000000000000000008152600401615d159061759c565b60405180910390fd5b60026001819055506000805b601c60009054906101000a90046fffffffffffffffffffffffffffffffff166fffffffffffffffffffffffffffffffff16816fffffffffffffffffffffffffffffffff1611615e985760008460196000846fffffffffffffffffffffffffffffffff166fffffffffffffffffffffffffffffffff16815260200190815260200160002060000160009054906101000a900473ffffffffffffffffffffffffffffffffffffffff166004604051602001615de593929190617018565b604051602081830303815290604052805190602001209050615e7760196000846fffffffffffffffffffffffffffffffff166fffffffffffffffffffffffffffffffff16815260200190815260200160002060000160009054906101000a900473ffffffffffffffffffffffffffffffffffffffff166018600084815260200190815260200160002060020154614fc9565b83615e8291906177b8565b9250508080615e9090617cb2565b915050615d2a565b508091505060018081905550919050565b5050565b60606000600267ffffffffffffffff811115615ef2577f4e487b7100000000000000000000000000000000000000000000000000000000600052604160045260246000fd5b604051908082528060200260200182016040528015615f205781602001602082028036833780820191505090505b5090508281600081518110615f5e577f4e487b7100000000000000000000000000000000000000000000000000000000600052603260045260246000fd5b602002602001019073ffffffffffffffffffffffffffffffffffffffff16908173ffffffffffffffffffffffffffffffffffffffff1681525050600a60009054906101000a900473ffffffffffffffffffffffffffffffffffffffff1681600181518110615ff5577f4e487b7100000000000000000000000000000000000000000000000000000000600052603260045260246000fd5b602002602001019073ffffffffffffffffffffffffffffffffffffffff16908173ffffffffffffffffffffffffffffffffffffffff1681525050600061606c600d54600161604391906179b0565b600360009054906101000a900473ffffffffffffffffffffffffffffffffffffffff1684616469565b90506000811115616081578192505050616464565b600b60009054906101000a900473ffffffffffffffffffffffffffffffffffffffff16826001815181106160de577f4e487b7100000000000000000000000000000000000000000000000000000000600052603260045260246000fd5b602002602001019073ffffffffffffffffffffffffffffffffffffffff16908173ffffffffffffffffffffffffffffffffffffffff1681525050600a60009054906101000a900473ffffffffffffffffffffffffffffffffffffffff1682600281518110616175577f4e487b7100000000000000000000000000000000000000000000000000000000600052603260045260246000fd5b602002602001019073ffffffffffffffffffffffffffffffffffffffff16908173ffffffffffffffffffffffffffffffffffffffff16815250506161ea600d5460016161c191906179b0565b600360009054906101000a900473ffffffffffffffffffffffffffffffffffffffff1684616469565b905060008111156161ff578192505050616464565b600367ffffffffffffffff811115616240577f4e487b7100000000000000000000000000000000000000000000000000000000600052604160045260246000fd5b60405190808252806020026020018201604052801561626e5781602001602082028036833780820191505090505b509150600c60009054906101000a900473ffffffffffffffffffffffffffffffffffffffff16826001815181106162ce577f4e487b7100000000000000000000000000000000000000000000000000000000600052603260045260246000fd5b602002602001019073ffffffffffffffffffffffffffffffffffffffff16908173ffffffffffffffffffffffffffffffffffffffff1681525050600a60009054906101000a900473ffffffffffffffffffffffffffffffffffffffff1682600281518110616365577f4e487b7100000000000000000000000000000000000000000000000000000000600052603260045260246000fd5b602002602001019073ffffffffffffffffffffffffffffffffffffffff16908173ffffffffffffffffffffffffffffffffffffffff16815250506163da600d5460016163b191906179b0565b600360009054906101000a900473ffffffffffffffffffffffffffffffffffffffff1684616469565b905060008111156163ef578192505050616464565b600067ffffffffffffffff811115616430577f4e487b7100000000000000000000000000000000000000000000000000000000600052604160045260246000fd5b60405190808252806020026020018201604052801561645e5781602001602082028036833780820191505090505b50925050505b919050565b6000808373ffffffffffffffffffffffffffffffffffffffff1663d06ca61f86856040518363ffffffff1660e01b81526004016164a7929190617617565b60006040518083038186803b1580156164bf57600080fd5b505afa1580156164d3573d6000803e3d6000fd5b505050506040513d6000823e3d601f19601f820116820180604052508101906164fc919061687f565b9050806001825161650d9190617a0a565b81518110616544577f4e487b7100000000000000000000000000000000000000000000000000000000600052603260045260246000fd5b60200260200101519150509392505050565b600061656961656484617687565b617662565b9050808382526020820190508285602086028201111561658857600080fd5b60005b858110156165b8578161659e8882616700565b84526020840193506020830192505060018101905061658b565b5050509392505050565b6000813590506165d18161843a565b92915050565b600082601f8301126165e857600080fd5b81516165f8848260208601616556565b91505092915050565b60008135905061661081618451565b92915050565b60008151905061662581618451565b92915050565b60008135905061663a81618468565b92915050565b60008083601f84011261665257600080fd5b8235905067ffffffffffffffff81111561666b57600080fd5b60208301915083600182028301111561668357600080fd5b9250929050565b6000815190506166998161847f565b92915050565b600061010082840312156166b257600080fd5b81905092915050565b600060e082840312156166cd57600080fd5b81905092915050565b6000813590506166e581618496565b92915050565b6000813590506166fa816184ad565b92915050565b60008151905061670f816184ad565b92915050565b600081359050616724816184c4565b92915050565b600081359050616739816184db565b92915050565b60008151905061674e816184db565b92915050565b60006020828403121561676657600080fd5b6000616774848285016165c2565b91505092915050565b6000806040838503121561679057600080fd5b600061679e858286016165c2565b92505060206167af858286016166eb565b9150509250929050565b600080600080608085870312156167cf57600080fd5b60006167dd878288016165c2565b94505060206167ee878288016166eb565b93505060406167ff878288016165c2565b9250506060616810878288016166eb565b91505092959194509250565b6000806000806080858703121561683257600080fd5b6000616840878288016165c2565b9450506020616851878288016166eb565b9350506040616862878288016166eb565b9250506060616873878288016165c2565b91505092959194509250565b60006020828403121561689157600080fd5b600082015167ffffffffffffffff8111156168ab57600080fd5b6168b7848285016165d7565b91505092915050565b6000602082840312156168d257600080fd5b60006168e084828501616601565b91505092915050565b6000602082840312156168fb57600080fd5b600061690984828501616616565b91505092915050565b60006020828403121561692457600080fd5b60006169328482850161662b565b91505092915050565b6000806020838503121561694e57600080fd5b600083013567ffffffffffffffff81111561696857600080fd5b61697485828601616640565b92509250509250929050565b60006020828403121561699257600080fd5b60006169a08482850161668a565b91505092915050565b600061010082840312156169bc57600080fd5b60006169ca8482850161669f565b91505092915050565b60008061010083850312156169e757600080fd5b60006169f5858286016166bb565b92505060e0616a068582860161672a565b9150509250929050565b600060208284031215616a2257600080fd5b6000616a30848285016166d6565b91505092915050565b600060208284031215616a4b57600080fd5b6000616a59848285016166eb565b91505092915050565b600060208284031215616a7457600080fd5b6000616a8284828501616715565b91505092915050565b600060208284031215616a9d57600080fd5b6000616aab8482850161672a565b91505092915050565b600060208284031215616ac657600080fd5b6000616ad48482850161673f565b91505092915050565b60008060408385031215616af057600080fd5b6000616afe8582860161672a565b9250506020616b0f858286016165c2565b9150509250929050565b6000616b258383616b49565b60208301905092915050565b6000616b3d8383616f9a565b60608301905092915050565b616b5281617a3e565b82525050565b616b6181617a3e565b82525050565b616b78616b7382617a3e565b617d34565b82525050565b6000616b89826176e8565b616b938185617723565b9350616b9e836176b3565b8060005b83811015616bcf578151616bb68882616b19565b9750616bc183617709565b925050600181019050616ba2565b5085935050505092915050565b6000616be7826176f3565b616bf18185617734565b9350616bfc836176c3565b8060005b83811015616c2d578151616c148882616b31565b9750616c1f83617716565b925050600181019050616c00565b5085935050505092915050565b616c4381617a50565b82525050565b6000616c54826176fe565b616c5e8185617745565b9350616c6e818560208601617b31565b616c7781617e74565b840191505092915050565b60008154616c8f81617c4f565b616c998186617767565b94506001821660008114616cb45760018114616cc557616cf8565b60ff19831686528186019350616cf8565b616cce856176d3565b60005b83811015616cf057815481890152600182019150602081019050616cd1565b838801955050505b50505092915050565b6000616d0e602f83617756565b9150616d1982617eb9565b604082019050919050565b6000616d31601883617756565b9150616d3c82617f08565b602082019050919050565b6000616d54601d83617756565b9150616d5f82617f31565b602082019050919050565b6000616d77602d83617756565b9150616d8282617f5a565b604082019050919050565b6000616d9a602683617756565b9150616da582617fa9565b604082019050919050565b6000616dbd602983617756565b9150616dc882617ff8565b604082019050919050565b6000616de0602283617756565b9150616deb82618047565b604082019050919050565b6000616e03601c83617756565b9150616e0e82618096565b602082019050919050565b6000616e26601d83617756565b9150616e31826180bf565b602082019050919050565b6000616e49601a83617756565b9150616e54826180e8565b602082019050919050565b6000616e6c601c83617756565b9150616e7782618111565b602082019050919050565b6000616e8f602083617756565b9150616e9a8261813a565b602082019050919050565b6000616eb2602083617756565b9150616ebd82618163565b602082019050919050565b6000616ed5603583617756565b9150616ee08261818c565b604082019050919050565b6000616ef8602f83617756565b9150616f03826181db565b604082019050919050565b6000616f1b601783617756565b9150616f268261822a565b602082019050919050565b6000616f3e601f83617756565b9150616f4982618253565b602082019050919050565b6000616f61602083617756565b9150616f6c8261827c565b602082019050919050565b6000616f84600d83617756565b9150616f8f826182a5565b602082019050919050565b606082016000820151616fb06000850182616b49565b506020820151616fc36020850182616feb565b506040820151616fd66040850182616feb565b50505050565b616fe581617a70565b82525050565b616ff481617aac565b82525050565b61700381617aac565b82525050565b61701281617aca565b82525050565b60006170248286616b67565b6014820191506170348285616b67565b6014820191506170448284616c82565b9150819050949350505050565b60006020820190506170666000830184616b58565b92915050565b600061010082019050617082600083018b616b58565b61708f602083018a616b58565b61709c6040830189616c3a565b6170a96060830188616ffa565b6170b66080830187616b58565b6170c360a0830186616ffa565b6170d060c0830185616b58565b6170dd60e0830184616ffa565b9998505050505050505050565b600060a0820190506170ff6000830188616b58565b61710c6020830187616b58565b6171196040830186616c3a565b6171266060830185616ffa565b6171336080830184616ffa565b9695505050505050565b60006060820190506171526000830186616b58565b61715f6020830185616b58565b61716c6040830184616ffa565b949350505050565b60006080820190506171896000830187616b58565b6171966020830186616b58565b6171a36040830185616ffa565b6171b06060830184616ffa565b95945050505050565b600060e0820190506171ce600083018a616b58565b6171db6020830189616c3a565b6171e86040830188616ffa565b6171f56060830187616ffa565b6172026080830186616ffa565b61720f60a0830185616ffa565b61721c60c0830184616c3a565b98975050505050505050565b60006101008201905061723e600083018b616b58565b61724b602083018a616c3a565b6172586040830189616ffa565b6172656060830188616ffa565b6172726080830187616ffa565b61727f60a0830186616ffa565b61728c60c0830185616ffa565b61729960e0830184616ffa565b9998505050505050505050565b60006040820190506172bb6000830185616b58565b6172c86020830184616ffa565b9392505050565b60006060820190506172e46000830186616b58565b6172f16020830185616ffa565b6172fe6040830184616ffa565b949350505050565b600060208201905081810360008301526173208184616bdc565b905092915050565b600060208201905061733d6000830184616c3a565b92915050565b60006040820190506173586000830185616c3a565b818103602083015261736a8184616c49565b90509392505050565b60006040820190506173886000830185616c3a565b6173956020830184616fdc565b9392505050565b600060208201905081810360008301526173b581616d01565b9050919050565b600060208201905081810360008301526173d581616d24565b9050919050565b600060208201905081810360008301526173f581616d47565b9050919050565b6000602082019050818103600083015261741581616d6a565b9050919050565b6000602082019050818103600083015261743581616d8d565b9050919050565b6000602082019050818103600083015261745581616db0565b9050919050565b6000602082019050818103600083015261747581616dd3565b9050919050565b6000602082019050818103600083015261749581616df6565b9050919050565b600060208201905081810360008301526174b581616e19565b9050919050565b600060208201905081810360008301526174d581616e3c565b9050919050565b600060208201905081810360008301526174f581616e5f565b9050919050565b6000602082019050818103600083015261751581616e82565b9050919050565b6000602082019050818103600083015261753581616ea5565b9050919050565b6000602082019050818103600083015261755581616ec8565b9050919050565b6000602082019050818103600083015261757581616eeb565b9050919050565b6000602082019050818103600083015261759581616f0e565b9050919050565b600060208201905081810360008301526175b581616f31565b9050919050565b600060208201905081810360008301526175d581616f54565b9050919050565b600060208201905081810360008301526175f581616f77565b9050919050565b60006020820190506176116000830184616ffa565b92915050565b600060408201905061762c6000830185616ffa565b818103602083015261763e8184616b7e565b90509392505050565b600060208201905061765c6000830184617009565b92915050565b600061766c61767d565b90506176788282617c81565b919050565b6000604051905090565b600067ffffffffffffffff8211156176a2576176a1617de5565b5b602082029050602081019050919050565b6000819050602082019050919050565b6000819050602082019050919050565b60008190508160005260206000209050919050565b600081519050919050565b600081519050919050565b600081519050919050565b6000602082019050919050565b6000602082019050919050565b600082825260208201905092915050565b600082825260208201905092915050565b600082825260208201905092915050565b600082825260208201905092915050565b600081905092915050565b600061777d82617a70565b915061778883617a70565b9250826fffffffffffffffffffffffffffffffff038211156177ad576177ac617d58565b5b828201905092915050565b60006177c382617aac565b91506177ce83617aac565b9250827fffffffffffffffffffffffffffffffffffffffffffffffffffffffffffffffff0382111561780357617802617d58565b5b828201905092915050565b600061781982617aac565b915061782483617aac565b92508261783457617833617d87565b5b828204905092915050565b6000808291508390505b60018511156178895780860481111561786557617864617d58565b5b60018516156178745780820291505b808102905061788285617eac565b9450617849565b94509492505050565b600061789d82617aac565b91506178a883617aca565b92506178d57fffffffffffffffffffffffffffffffffffffffffffffffffffffffffffffffff84846178dd565b905092915050565b6000826178ed57600190506179a9565b816178fb57600090506179a9565b8160018114617911576002811461791b5761794a565b60019150506179a9565b60ff84111561792d5761792c617d58565b5b8360020a91508482111561794457617943617d58565b5b506179a9565b5060208310610133831016604e8410600b841016171561797f5782820a90508381111561797a57617979617d58565b5b6179a9565b61798c848484600161783f565b925090508184048111156179a3576179a2617d58565b5b81810290505b9392505050565b60006179bb82617aac565b91506179c683617aac565b9250817fffffffffffffffffffffffffffffffffffffffffffffffffffffffffffffffff04831182151516156179ff576179fe617d58565b5b828202905092915050565b6000617a1582617aac565b9150617a2083617aac565b925082821015617a3357617a32617d58565b5b828203905092915050565b6000617a4982617a8c565b9050919050565b60008115159050919050565b6000819050919050565b6000819050919050565b60006fffffffffffffffffffffffffffffffff82169050919050565b600073ffffffffffffffffffffffffffffffffffffffff82169050919050565b6000819050919050565b600067ffffffffffffffff82169050919050565b600060ff82169050919050565b6000617ae282617afb565b9050919050565b6000617af482617a50565b9050919050565b6000617b0682617b0d565b9050919050565b6000617b1882617a8c565b9050919050565b6000617b2a82617aac565b9050919050565b60005b83811015617b4f578082015181840152602081019050617b34565b83811115617b5e576000848401525b50505050565b600081016000830180617b7681617e32565b9050617b8281846183a0565b505050600081016020830180617b9781617e48565b9050617ba38184618417565b505050600181016040830180617bb881617e5e565b9050617bc481846183f4565b505050600281016060830180617bd981617e5e565b9050617be581846183f4565b505050600381016080830180617bfa81617e5e565b9050617c0681846183f4565b5050506004810160a0830180617c1b81617e5e565b9050617c2781846183f4565b5050506005810160c0830180617c3c81617e48565b9050617c4881846183c3565b5050505050565b60006002820490506001821680617c6757607f821691505b60208210811415617c7b57617c7a617db6565b5b50919050565b617c8a82617e74565b810181811067ffffffffffffffff82111715617ca957617ca8617de5565b5b80604052505050565b6000617cbd82617a70565b91506fffffffffffffffffffffffffffffffff821415617ce057617cdf617d58565b5b600182019050919050565b6000617cf682617aac565b91507fffffffffffffffffffffffffffffffffffffffffffffffffffffffffffffffff821415617d2957617d28617d58565b5b600182019050919050565b6000617d3f82617d46565b9050919050565b6000617d5182617e9f565b9050919050565b7f4e487b7100000000000000000000000000000000000000000000000000000000600052601160045260246000fd5b7f4e487b7100000000000000000000000000000000000000000000000000000000600052601260045260246000fd5b7f4e487b7100000000000000000000000000000000000000000000000000000000600052602260045260246000fd5b7f4e487b7100000000000000000000000000000000000000000000000000000000600052604160045260246000fd5b6000819050919050565b6000819050919050565b6000819050919050565b60008135617e3f8161843a565b80915050919050565b60008135617e5581618451565b80915050919050565b60008135617e6b816184ad565b80915050919050565b6000601f19601f8301169050919050565b60008160001b9050919050565b60008160a01b9050919050565b60008160601b9050919050565b60008160011c9050919050565b7f55736572206e6f7420616c6c6f77656420666f7220746869732066756e63746960008201527f6f6e2c2041646d696e206f6e6c792e0000000000000000000000000000000000602082015250565b7f416d6f756e7420746f6f206c6f7720666f722072657061790000000000000000600082015250565b7f416d6f756e7420746f6f206c6f7720666f7220636f6c616c746572616c000000600082015250565b7f70617468206d75737420626520646566696e697469766520616e64206772656160008201527f746572207468616e207a65726f00000000000000000000000000000000000000602082015250565b7f4f776e61626c653a206e6577206f776e657220697320746865207a65726f206160008201527f6464726573730000000000000000000000000000000000000000000000000000602082015250565b7f4e6f7420656e6f75676820616d6f756e7420746f206b69636b7374617274206160008201527f206e657720706f6f6c0000000000000000000000000000000000000000000000602082015250565b7f7472616e7366657246726f6d206661696c65642066726f6d20636f6e7472616360008201527f742e000000000000000000000000000000000000000000000000000000000000602082015250565b7f6d61726b6574206e6f74206f70656e206f7220617661696c61626c6500000000600082015250565b7f416d6f756e7420746f6f206c6f7720666f72207769746864726177616c000000600082015250565b7f416d6f756e7420746f6f206c6f7720666f72207374616b696e67000000000000600082015250565b7f416d6f756e7420746f6f206c6f7720666f7220626f72726f77696e6700000000600082015250565b7f4f776e61626c653a2063616c6c6572206973206e6f7420746865206f776e6572600082015250565b7f6d61726b657420616c7265616479206f70656e206f7220617661696c61626c65600082015250565b7f416d6f756e742067726561746572207468616e20616c6c6f77656420616d6f7560008201527f6e7420666f72207573657220746f20626f72726f770000000000000000000000602082015250565b7f4e6f7420616c6c6f77656420746f20706572666f726d2061207472616e73616360008201527f74696f6e207269676874206e6f772e0000000000000000000000000000000000602082015250565b7f7573657220646f6573206e6f7420657869737420796574000000000000000000600082015250565b7f5265656e7472616e637947756172643a207265656e7472616e742063616c6c00600082015250565b7f4e6f7420656e6f756768206c697175696469747920746f207769746864726177600082015250565b7f55736572206e6f742066756e6400000000000000000000000000000000000000600082015250565b600060ff6182db84617e85565b9350801983169250808416831791505092915050565b600074ff000000000000000000000000000000000000000061831284617e92565b9350801983169250808416831791505092915050565b600073ffffffffffffffffffffffffffffffffffffffff61834884617e85565b9350801983169250808416831791505092915050565b60007fffffffffffffffffffffffffffffffffffffffffffffffffffffffffffffffff61838a84617e85565b9350801983169250808416831791505092915050565b6183a982617ad7565b6183bc6183b582617e14565b8354618328565b8255505050565b6183cc82617ae9565b6183df6183d882617e1e565b83546182ce565b8255505050565b6183f08282617b64565b5050565b6183fd82617b1f565b61841061840982617e28565b835461835e565b8255505050565b61842082617ae9565b61843361842c82617e1e565b83546182f1565b8255505050565b61844381617a3e565b811461844e57600080fd5b50565b61845a81617a50565b811461846557600080fd5b50565b61847181617a5c565b811461847c57600080fd5b50565b61848881617a66565b811461849357600080fd5b50565b61849f81617a70565b81146184aa57600080fd5b50565b6184b681617aac565b81146184c157600080fd5b50565b6184cd81617ab6565b81146184d857600080fd5b50565b6184e481617aca565b81146184ef57600080fd5b5056fea264697066735822122065e90eee9b75af316442e1cd4f654e4aa1365ced9f588e66a7e70b3aaceb6a0c64736f6c63430008040033",
  "linkReferences": {},
  "deployedLinkReferences": {}
}