{
  "_format": "hh-sol-artifact-1",
  "contractName": "HeadenFinanceParent",
  "sourceName": "contracts/headenFInanceParent.sol",
  "abi": [
    {
      "inputs": [
        {
          "internalType": "uint256",
          "name": "_interval",
          "type": "uint256"
        },
        {
          "internalType": "uint32",
          "name": "_chainId",
          "type": "uint32"
        },
        {
          "internalType": "address",
          "name": "_multichainRouter",
          "type": "address"
        },
        {
          "internalType": "string",
          "name": "_hashSalt",
          "type": "string"
        },
        {
          "internalType": "address",
          "name": "_swapRouter",
          "type": "address"
        },
        {
          "internalType": "address",
          "name": "_usdc",
          "type": "address"
        },
        {
          "internalType": "address",
          "name": "_dai",
          "type": "address"
        },
        {
          "internalType": "address",
          "name": "_matic",
          "type": "address"
        },
        {
          "components": [
            {
              "internalType": "uint64",
              "name": "supplyKink",
              "type": "uint64"
            },
            {
              "internalType": "uint64",
              "name": "supplyPerYearInterestRateSlopeLow",
              "type": "uint64"
            },
            {
              "internalType": "uint64",
              "name": "supplyPerYearInterestRateSlopeHigh",
              "type": "uint64"
            },
            {
              "internalType": "uint64",
              "name": "supplyPerYearInterestRateBase",
              "type": "uint64"
            },
            {
              "internalType": "uint64",
              "name": "borrowKink",
              "type": "uint64"
            },
            {
              "internalType": "uint64",
              "name": "borrowPerYearInterestRateSlopeLow",
              "type": "uint64"
            },
            {
              "internalType": "uint64",
              "name": "borrowPerYearInterestRateSlopeHigh",
              "type": "uint64"
            },
            {
              "internalType": "uint64",
              "name": "borrowPerYearInterestRateBase",
              "type": "uint64"
            }
          ],
          "internalType": "struct HeadenFinanceParent.Configuration",
          "name": "config",
          "type": "tuple"
        }
      ],
      "stateMutability": "nonpayable",
      "type": "constructor"
    },
    {
      "anonymous": false,
      "inputs": [
        {
          "indexed": true,
          "internalType": "address",
          "name": "abacusConnectionManager",
          "type": "address"
        }
      ],
      "name": "AbacusConnectionManagerSet",
      "type": "event"
    },
    {
      "anonymous": false,
      "inputs": [
        {
          "components": [
            {
              "internalType": "address",
              "name": "user",
              "type": "address"
            },
            {
              "internalType": "uint256",
              "name": "totalStakes",
              "type": "uint256"
            },
            {
              "internalType": "uint256",
              "name": "totalBorrows",
              "type": "uint256"
            }
          ],
          "indexed": false,
          "internalType": "struct HeadenFinanceParent.FullUpdateData[]",
          "name": "usersdata",
          "type": "tuple[]"
        }
      ],
      "name": "FullParentChainSynced",
      "type": "event"
    },
    {
      "anonymous": false,
      "inputs": [
        {
          "indexed": false,
          "internalType": "uint8",
          "name": "version",
          "type": "uint8"
        }
      ],
      "name": "Initialized",
      "type": "event"
    },
    {
      "anonymous": false,
      "inputs": [
        {
          "indexed": true,
          "internalType": "address",
          "name": "interchainGasPaymaster",
          "type": "address"
        }
      ],
      "name": "InterchainGasPaymasterSet",
      "type": "event"
    },
    {
      "anonymous": false,
      "inputs": [
        {
          "indexed": true,
          "internalType": "address",
          "name": "previousOwner",
          "type": "address"
        },
        {
          "indexed": true,
          "internalType": "address",
          "name": "newOwner",
          "type": "address"
        }
      ],
      "name": "OwnershipTransferred",
      "type": "event"
    },
    {
      "anonymous": false,
      "inputs": [
        {
          "indexed": false,
          "internalType": "address",
          "name": "user",
          "type": "address"
        },
        {
          "indexed": false,
          "internalType": "uint256",
          "name": "totalStakes",
          "type": "uint256"
        },
        {
          "indexed": false,
          "internalType": "uint256",
          "name": "totalBorrows",
          "type": "uint256"
        }
      ],
      "name": "ParentChainSynced",
      "type": "event"
    },
    {
      "anonymous": false,
      "inputs": [
        {
          "indexed": true,
          "internalType": "uint32",
          "name": "domain",
          "type": "uint32"
        },
        {
          "indexed": true,
          "internalType": "bytes32",
          "name": "router",
          "type": "bytes32"
        }
      ],
      "name": "RemoteRouterEnrolled",
      "type": "event"
    },
    {
      "inputs": [],
      "name": "SECONDS_PER_YEAR",
      "outputs": [
        {
          "internalType": "uint256",
          "name": "",
          "type": "uint256"
        }
      ],
      "stateMutability": "view",
      "type": "function"
    },
    {
      "inputs": [],
      "name": "abacusConnectionManager",
      "outputs": [
        {
          "internalType": "contract IAbacusConnectionManager",
          "name": "",
          "type": "address"
        }
      ],
      "stateMutability": "view",
      "type": "function"
    },
    {
      "inputs": [
        {
          "internalType": "uint128",
          "name": "_id",
          "type": "uint128"
        }
      ],
      "name": "borrowInterestRates",
      "outputs": [
        {
          "internalType": "uint256",
          "name": "",
          "type": "uint256"
        }
      ],
      "stateMutability": "nonpayable",
      "type": "function"
    },
    {
      "inputs": [],
      "name": "borrowKink",
      "outputs": [
        {
          "internalType": "uint256",
          "name": "",
          "type": "uint256"
        }
      ],
      "stateMutability": "view",
      "type": "function"
    },
    {
      "inputs": [],
      "name": "borrowPerSecondInterestRateBase",
      "outputs": [
        {
          "internalType": "uint256",
          "name": "",
          "type": "uint256"
        }
      ],
      "stateMutability": "view",
      "type": "function"
    },
    {
      "inputs": [],
      "name": "borrowPerSecondInterestRateSlopeHigh",
      "outputs": [
        {
          "internalType": "uint256",
          "name": "",
          "type": "uint256"
        }
      ],
      "stateMutability": "view",
      "type": "function"
    },
    {
      "inputs": [],
      "name": "borrowPerSecondInterestRateSlopeLow",
      "outputs": [
        {
          "internalType": "uint256",
          "name": "",
          "type": "uint256"
        }
      ],
      "stateMutability": "view",
      "type": "function"
    },
    {
      "inputs": [
        {
          "internalType": "address",
          "name": "_tokenAddress",
          "type": "address"
        },
        {
          "internalType": "uint256",
          "name": "_amountToBorrow",
          "type": "uint256"
        }
      ],
      "name": "borrowToken",
      "outputs": [],
      "stateMutability": "nonpayable",
      "type": "function"
    },
    {
      "inputs": [
        {
          "internalType": "address",
          "name": "_tokenAddress",
          "type": "address"
        },
        {
          "internalType": "uint256",
          "name": "_amountToBorrow",
          "type": "uint256"
        },
        {
          "internalType": "address",
          "name": "_collateralAddress",
          "type": "address"
        },
        {
          "internalType": "uint256",
          "name": "_collateralAmount",
          "type": "uint256"
        }
      ],
      "name": "borrowTokenWithCollateral",
      "outputs": [],
      "stateMutability": "nonpayable",
      "type": "function"
    },
    {
      "inputs": [],
      "name": "chainId",
      "outputs": [
        {
          "internalType": "uint32",
          "name": "",
          "type": "uint32"
        }
      ],
      "stateMutability": "view",
      "type": "function"
    },
    {
      "inputs": [
        {
          "internalType": "bytes",
          "name": "",
          "type": "bytes"
        }
      ],
      "name": "checkUpkeep",
      "outputs": [
        {
          "internalType": "bool",
          "name": "upkeepNeeded",
          "type": "bool"
        },
        {
          "internalType": "bytes",
          "name": "",
          "type": "bytes"
        }
      ],
      "stateMutability": "view",
      "type": "function"
    },
    {
      "inputs": [
        {
          "internalType": "address",
          "name": "_token",
          "type": "address"
        }
      ],
      "name": "createMarket",
      "outputs": [],
      "stateMutability": "nonpayable",
      "type": "function"
    },
    {
      "inputs": [
        {
          "internalType": "address",
          "name": "_token",
          "type": "address"
        },
        {
          "internalType": "uint256",
          "name": "amount",
          "type": "uint256"
        }
      ],
      "name": "createMarketPool",
      "outputs": [],
      "stateMutability": "nonpayable",
      "type": "function"
    },
    {
      "inputs": [],
      "name": "dai",
      "outputs": [
        {
          "internalType": "address",
          "name": "",
          "type": "address"
        }
      ],
      "stateMutability": "view",
      "type": "function"
    },
    {
      "inputs": [],
      "name": "defaultId",
      "outputs": [
        {
          "internalType": "uint32",
          "name": "",
          "type": "uint32"
        }
      ],
      "stateMutability": "view",
      "type": "function"
    },
    {
      "inputs": [
        {
          "internalType": "uint32",
          "name": "_domain",
          "type": "uint32"
        },
        {
          "internalType": "bytes32",
          "name": "_router",
          "type": "bytes32"
        }
      ],
      "name": "enrollRemoteRouter",
      "outputs": [],
      "stateMutability": "nonpayable",
      "type": "function"
    },
    {
      "inputs": [],
      "name": "fullUpdateChildChain",
      "outputs": [],
      "stateMutability": "nonpayable",
      "type": "function"
    },
    {
      "inputs": [],
      "name": "getRiskLevel",
      "outputs": [
        {
          "internalType": "uint256",
          "name": "",
          "type": "uint256"
        }
      ],
      "stateMutability": "view",
      "type": "function"
    },
    {
      "inputs": [
        {
          "internalType": "uint32",
          "name": "_origin",
          "type": "uint32"
        },
        {
          "internalType": "bytes32",
          "name": "_sender",
          "type": "bytes32"
        },
        {
          "internalType": "bytes",
          "name": "_message",
          "type": "bytes"
        }
      ],
      "name": "handle",
      "outputs": [],
      "stateMutability": "nonpayable",
      "type": "function"
    },
    {
      "inputs": [],
      "name": "interchainGasPaymaster",
      "outputs": [
        {
          "internalType": "contract IInterchainGasPaymaster",
          "name": "",
          "type": "address"
        }
      ],
      "stateMutability": "view",
      "type": "function"
    },
    {
      "inputs": [],
      "name": "interval",
      "outputs": [
        {
          "internalType": "uint256",
          "name": "",
          "type": "uint256"
        }
      ],
      "stateMutability": "view",
      "type": "function"
    },
    {
      "inputs": [],
      "name": "lastTimeStamp",
      "outputs": [
        {
          "internalType": "uint256",
          "name": "",
          "type": "uint256"
        }
      ],
      "stateMutability": "view",
      "type": "function"
    },
    {
      "inputs": [
        {
          "internalType": "address",
          "name": "",
          "type": "address"
        }
      ],
      "name": "marketTokens",
      "outputs": [
        {
          "internalType": "bool",
          "name": "available",
          "type": "bool"
        },
        {
          "internalType": "uint128",
          "name": "_id",
          "type": "uint128"
        }
      ],
      "stateMutability": "view",
      "type": "function"
    },
    {
      "inputs": [
        {
          "internalType": "uint128",
          "name": "",
          "type": "uint128"
        }
      ],
      "name": "markets",
      "outputs": [
        {
          "internalType": "address",
          "name": "tokenAddress",
          "type": "address"
        },
        {
          "internalType": "bool",
          "name": "available",
          "type": "bool"
        },
        {
          "internalType": "uint256",
          "name": "amountStaked",
          "type": "uint256"
        },
        {
          "internalType": "uint256",
          "name": "amountBorrowed",
          "type": "uint256"
        },
        {
          "internalType": "uint256",
          "name": "timeLastBorrowed",
          "type": "uint256"
        },
        {
          "internalType": "uint256",
          "name": "timeLastStaked",
          "type": "uint256"
        },
        {
          "internalType": "uint256",
          "name": "borrowRate",
          "type": "uint256"
        },
        {
          "internalType": "uint256",
          "name": "supplyRate",
          "type": "uint256"
        }
      ],
      "stateMutability": "view",
      "type": "function"
    },
    {
      "inputs": [],
      "name": "matic",
      "outputs": [
        {
          "internalType": "address",
          "name": "",
          "type": "address"
        }
      ],
      "stateMutability": "view",
      "type": "function"
    },
    {
      "inputs": [],
      "name": "multichainRouter",
      "outputs": [
        {
          "internalType": "address",
          "name": "",
          "type": "address"
        }
      ],
      "stateMutability": "view",
      "type": "function"
    },
    {
      "inputs": [],
      "name": "owner",
      "outputs": [
        {
          "internalType": "address",
          "name": "",
          "type": "address"
        }
      ],
      "stateMutability": "view",
      "type": "function"
    },
    {
      "inputs": [
        {
          "internalType": "uint256",
          "name": "amount",
          "type": "uint256"
        }
      ],
      "name": "per_amount",
      "outputs": [
        {
          "internalType": "uint256",
          "name": "",
          "type": "uint256"
        }
      ],
      "stateMutability": "view",
      "type": "function"
    },
    {
      "inputs": [
        {
          "internalType": "bytes",
          "name": "",
          "type": "bytes"
        }
      ],
      "name": "performUpkeep",
      "outputs": [],
      "stateMutability": "nonpayable",
      "type": "function"
    },
    {
      "inputs": [
        {
          "components": [
            {
              "internalType": "address",
              "name": "userAddress",
              "type": "address"
            },
            {
              "internalType": "bool",
              "name": "available",
              "type": "bool"
            },
            {
              "internalType": "uint256",
              "name": "totalAmountBorrowed",
              "type": "uint256"
            },
            {
              "internalType": "uint256",
              "name": "totalAmountStaked",
              "type": "uint256"
            },
            {
              "internalType": "uint256",
              "name": "creditScore",
              "type": "uint256"
            },
            {
              "internalType": "uint256",
              "name": "ltv",
              "type": "uint256"
            },
            {
              "internalType": "bool",
              "name": "lock",
              "type": "bool"
            }
          ],
          "internalType": "struct HeadenFinanceParent.User",
          "name": "user",
          "type": "tuple"
        },
        {
          "internalType": "uint32",
          "name": "_chainId",
          "type": "uint32"
        }
      ],
      "name": "receiveUpdateFromChildChain",
      "outputs": [],
      "stateMutability": "nonpayable",
      "type": "function"
    },
    {
      "inputs": [
        {
          "internalType": "uint32",
          "name": "_chainId",
          "type": "uint32"
        }
      ],
      "name": "registerChildChain",
      "outputs": [],
      "stateMutability": "nonpayable",
      "type": "function"
    },
    {
      "inputs": [
        {
          "internalType": "address",
          "name": "",
          "type": "address"
        }
      ],
      "name": "relayers",
      "outputs": [
        {
          "internalType": "bool",
          "name": "",
          "type": "bool"
        }
      ],
      "stateMutability": "view",
      "type": "function"
    },
    {
      "inputs": [],
      "name": "renounceOwnership",
      "outputs": [],
      "stateMutability": "nonpayable",
      "type": "function"
    },
    {
      "inputs": [
        {
          "internalType": "address",
          "name": "_tokenAddress",
          "type": "address"
        },
        {
          "internalType": "uint256",
          "name": "_amount",
          "type": "uint256"
        }
      ],
      "name": "repayLoan",
      "outputs": [],
      "stateMutability": "nonpayable",
      "type": "function"
    },
    {
      "inputs": [
        {
          "internalType": "uint32",
          "name": "",
          "type": "uint32"
        }
      ],
      "name": "routers",
      "outputs": [
        {
          "internalType": "bytes32",
          "name": "",
          "type": "bytes32"
        }
      ],
      "stateMutability": "view",
      "type": "function"
    },
    {
      "inputs": [
        {
          "internalType": "address",
          "name": "_abacusConnectionManager",
          "type": "address"
        }
      ],
      "name": "setAbacusConnectionManager",
      "outputs": [],
      "stateMutability": "nonpayable",
      "type": "function"
    },
    {
      "inputs": [
        {
          "internalType": "address",
          "name": "_interchainGasPaymaster",
          "type": "address"
        }
      ],
      "name": "setInterchainGasPaymaster",
      "outputs": [],
      "stateMutability": "nonpayable",
      "type": "function"
    },
    {
      "inputs": [
        {
          "internalType": "address",
          "name": "_tokenAddress",
          "type": "address"
        },
        {
          "internalType": "uint256",
          "name": "_amountToStake",
          "type": "uint256"
        }
      ],
      "name": "stakeToken",
      "outputs": [],
      "stateMutability": "nonpayable",
      "type": "function"
    },
    {
      "inputs": [
        {
          "internalType": "uint128",
          "name": "_id",
          "type": "uint128"
        }
      ],
      "name": "supplyInterestRates",
      "outputs": [
        {
          "internalType": "uint256",
          "name": "",
          "type": "uint256"
        }
      ],
      "stateMutability": "nonpayable",
      "type": "function"
    },
    {
      "inputs": [],
      "name": "supplyKink",
      "outputs": [
        {
          "internalType": "uint256",
          "name": "",
          "type": "uint256"
        }
      ],
      "stateMutability": "view",
      "type": "function"
    },
    {
      "inputs": [],
      "name": "supplyPerSecondInterestRateBase",
      "outputs": [
        {
          "internalType": "uint256",
          "name": "",
          "type": "uint256"
        }
      ],
      "stateMutability": "view",
      "type": "function"
    },
    {
      "inputs": [],
      "name": "supplyPerSecondInterestRateSlopeHigh",
      "outputs": [
        {
          "internalType": "uint256",
          "name": "",
          "type": "uint256"
        }
      ],
      "stateMutability": "view",
      "type": "function"
    },
    {
      "inputs": [],
      "name": "supplyPerSecondInterestRateSlopeLow",
      "outputs": [
        {
          "internalType": "uint256",
          "name": "",
          "type": "uint256"
        }
      ],
      "stateMutability": "view",
      "type": "function"
    },
    {
      "inputs": [],
      "name": "tax",
      "outputs": [
        {
          "internalType": "uint256",
          "name": "",
          "type": "uint256"
        }
      ],
      "stateMutability": "view",
      "type": "function"
    },
    {
      "inputs": [
        {
          "internalType": "address",
          "name": "newOwner",
          "type": "address"
        }
      ],
      "name": "transferOwnership",
      "outputs": [],
      "stateMutability": "nonpayable",
      "type": "function"
    },
    {
      "inputs": [
        {
          "internalType": "address",
          "name": "user",
          "type": "address"
        }
      ],
      "name": "updateChildChain",
      "outputs": [],
      "stateMutability": "nonpayable",
      "type": "function"
    },
    {
      "inputs": [
        {
          "components": [
            {
              "internalType": "uint64",
              "name": "supplyKink",
              "type": "uint64"
            },
            {
              "internalType": "uint64",
              "name": "supplyPerYearInterestRateSlopeLow",
              "type": "uint64"
            },
            {
              "internalType": "uint64",
              "name": "supplyPerYearInterestRateSlopeHigh",
              "type": "uint64"
            },
            {
              "internalType": "uint64",
              "name": "supplyPerYearInterestRateBase",
              "type": "uint64"
            },
            {
              "internalType": "uint64",
              "name": "borrowKink",
              "type": "uint64"
            },
            {
              "internalType": "uint64",
              "name": "borrowPerYearInterestRateSlopeLow",
              "type": "uint64"
            },
            {
              "internalType": "uint64",
              "name": "borrowPerYearInterestRateSlopeHigh",
              "type": "uint64"
            },
            {
              "internalType": "uint64",
              "name": "borrowPerYearInterestRateBase",
              "type": "uint64"
            }
          ],
          "internalType": "struct HeadenFinanceParent.Configuration",
          "name": "config",
          "type": "tuple"
        },
        {
          "internalType": "address",
          "name": "_relayer",
          "type": "address"
        }
      ],
      "name": "updateSettings",
      "outputs": [],
      "stateMutability": "nonpayable",
      "type": "function"
    },
    {
      "inputs": [],
      "name": "usdc",
      "outputs": [
        {
          "internalType": "address",
          "name": "",
          "type": "address"
        }
      ],
      "stateMutability": "view",
      "type": "function"
    },
    {
      "inputs": [
        {
          "internalType": "uint32",
          "name": "",
          "type": "uint32"
        },
        {
          "internalType": "address",
          "name": "",
          "type": "address"
        }
      ],
      "name": "users",
      "outputs": [
        {
          "internalType": "address",
          "name": "userAddress",
          "type": "address"
        },
        {
          "internalType": "bool",
          "name": "available",
          "type": "bool"
        },
        {
          "internalType": "uint256",
          "name": "totalAmountBorrowed",
          "type": "uint256"
        },
        {
          "internalType": "uint256",
          "name": "totalAmountStaked",
          "type": "uint256"
        },
        {
          "internalType": "uint256",
          "name": "creditScore",
          "type": "uint256"
        },
        {
          "internalType": "uint256",
          "name": "ltv",
          "type": "uint256"
        },
        {
          "internalType": "bool",
          "name": "lock",
          "type": "bool"
        }
      ],
      "stateMutability": "view",
      "type": "function"
    },
    {
      "inputs": [
        {
          "internalType": "bytes32",
          "name": "",
          "type": "bytes32"
        }
      ],
      "name": "usersborrows",
      "outputs": [
        {
          "internalType": "address",
          "name": "userAddress",
          "type": "address"
        },
        {
          "internalType": "address",
          "name": "tokenAddress",
          "type": "address"
        },
        {
          "internalType": "bool",
          "name": "available",
          "type": "bool"
        },
        {
          "internalType": "uint256",
          "name": "amountBorrowed",
          "type": "uint256"
        },
        {
          "internalType": "address",
          "name": "collateralAddress",
          "type": "address"
        },
        {
          "internalType": "uint256",
          "name": "collateralAmount",
          "type": "uint256"
        },
        {
          "internalType": "address",
          "name": "borrowRouter",
          "type": "address"
        },
        {
          "internalType": "uint256",
          "name": "timeLastBorrowed",
          "type": "uint256"
        }
      ],
      "stateMutability": "view",
      "type": "function"
    },
    {
      "inputs": [
        {
          "internalType": "bytes32",
          "name": "",
          "type": "bytes32"
        }
      ],
      "name": "userstakes",
      "outputs": [
        {
          "internalType": "address",
          "name": "userAddress",
          "type": "address"
        },
        {
          "internalType": "address",
          "name": "tokenAddress",
          "type": "address"
        },
        {
          "internalType": "bool",
          "name": "available",
          "type": "bool"
        },
        {
          "internalType": "uint256",
          "name": "amountStaked",
          "type": "uint256"
        },
        {
          "internalType": "uint256",
          "name": "timeLastStaked",
          "type": "uint256"
        }
      ],
      "stateMutability": "view",
      "type": "function"
    },
    {
      "inputs": [],
      "name": "validateUsers",
      "outputs": [],
      "stateMutability": "nonpayable",
      "type": "function"
    },
    {
      "inputs": [
        {
          "internalType": "address",
          "name": "_tokenAddress",
          "type": "address"
        },
        {
          "internalType": "uint256",
          "name": "_amountToWithdraw",
          "type": "uint256"
        },
        {
          "internalType": "uint256",
          "name": "_chainId",
          "type": "uint256"
        },
        {
          "internalType": "address",
          "name": "_to",
          "type": "address"
        }
      ],
      "name": "withdrawToken",
      "outputs": [],
      "stateMutability": "nonpayable",
      "type": "function"
    }
  ],
  "bytecode": "0x60c060405273572ddec9087154dc5dfbb1546bb62713147e0ab06000806101000a81548173ffffffffffffffffffffffffffffffffffffffff021916908373ffffffffffffffffffffffffffffffffffffffff16021790555061015e60cd554260ce55600063ffffffff1660a09063ffffffff1660e01b8152506301e1338060d055670de0b6b3a764000060d555600060e460006101000a8154816fffffffffffffffffffffffffffffffff02191690836fffffffffffffffffffffffffffffffff160217905550348015620000d457600080fd5b506040516200bb613803806200bb618339818101604052810190620000fa9190620008f1565b6001808190555088608081815250504260ce819055508760cf60006101000a81548163ffffffff021916908363ffffffff1602179055508660d160006101000a81548173ffffffffffffffffffffffffffffffffffffffff021916908373ffffffffffffffffffffffffffffffffffffffff160217905550600160e360003373ffffffffffffffffffffffffffffffffffffffff1673ffffffffffffffffffffffffffffffffffffffff16815260200190815260200160002060006101000a81548160ff0219169083151502179055508560cc9080519060200190620001e29291906200069a565b508460cb60006101000a81548173ffffffffffffffffffffffffffffffffffffffff021916908373ffffffffffffffffffffffffffffffffffffffff1602179055508260d360006101000a81548173ffffffffffffffffffffffffffffffffffffffff021916908373ffffffffffffffffffffffffffffffffffffffff1602179055508360d260006101000a81548173ffffffffffffffffffffffffffffffffffffffff021916908373ffffffffffffffffffffffffffffffffffffffff1602179055508160d460006101000a81548173ffffffffffffffffffffffffffffffffffffffff021916908373ffffffffffffffffffffffffffffffffffffffff16021790555060e68890806001815401808255809150506001900390600052602060002090600891828204019190066004029091909190916101000a81548163ffffffff021916908363ffffffff1602179055506200035a73b636b2c65a75d41f0dbe98fb33eb563d245a241a6200058c60201b60201c565b6200037f739a27744c249a11f68b3b56f09d280599585dfbb86200061360201b60201c565b806000015167ffffffffffffffff1660d68190555060d054816020015167ffffffffffffffff1681620003db577f4e487b7100000000000000000000000000000000000000000000000000000000600052601260045260246000fd5b0460d78190555060d054816040015167ffffffffffffffff168162000429577f4e487b7100000000000000000000000000000000000000000000000000000000600052601260045260246000fd5b0460d88190555060d054816060015167ffffffffffffffff168162000477577f4e487b7100000000000000000000000000000000000000000000000000000000600052601260045260246000fd5b0460d981905550806080015167ffffffffffffffff1660da8190555060d0548160a0015167ffffffffffffffff1681620004da577f4e487b7100000000000000000000000000000000000000000000000000000000600052601260045260246000fd5b0460db8190555060d0548160c0015167ffffffffffffffff168162000528577f4e487b7100000000000000000000000000000000000000000000000000000000600052601260045260246000fd5b0460dc8190555060d0548160e0015167ffffffffffffffff168162000576577f4e487b7100000000000000000000000000000000000000000000000000000000600052601260045260246000fd5b0460dd8190555050505050505050505062000c1d565b80606760006101000a81548173ffffffffffffffffffffffffffffffffffffffff021916908373ffffffffffffffffffffffffffffffffffffffff1602179055508073ffffffffffffffffffffffffffffffffffffffff167f7c10de8878ed89478ff01b9cd8c11a5271ea8ac91d46f662e6aea7e3adf5b11f60405160405180910390a250565b80606860006101000a81548173ffffffffffffffffffffffffffffffffffffffff021916908373ffffffffffffffffffffffffffffffffffffffff1602179055508073ffffffffffffffffffffffffffffffffffffffff167fb87f5a0bface22cde699143559fb99f990ae54eea236995fc54178af91af859f60405160405180910390a250565b828054620006a89062000ada565b90600052602060002090601f016020900481019282620006cc576000855562000718565b82601f10620006e757805160ff191683800117855562000718565b8280016001018555821562000718579182015b8281111562000717578251825591602001919060010190620006fa565b5b5090506200072791906200072b565b5090565b5b80821115620007465760008160009055506001016200072c565b5090565b6000620007616200075b8462000a0c565b620009e3565b9050828152602081018484840111156200077a57600080fd5b6200078784828562000aa4565b509392505050565b600081519050620007a08162000bb5565b92915050565b600082601f830112620007b857600080fd5b8151620007ca8482602086016200074a565b91505092915050565b60006101008284031215620007e757600080fd5b620007f4610100620009e3565b905060006200080684828501620008da565b60008301525060206200081c84828501620008da565b60208301525060406200083284828501620008da565b60408301525060606200084884828501620008da565b60608301525060806200085e84828501620008da565b60808301525060a06200087484828501620008da565b60a08301525060c06200088a84828501620008da565b60c08301525060e0620008a084828501620008da565b60e08301525092915050565b600081519050620008bd8162000bcf565b92915050565b600081519050620008d48162000be9565b92915050565b600081519050620008eb8162000c03565b92915050565b60008060008060008060008060006102008a8c0312156200091157600080fd5b6000620009218c828d01620008ac565b9950506020620009348c828d01620008c3565b9850506040620009478c828d016200078f565b97505060608a015167ffffffffffffffff8111156200096557600080fd5b620009738c828d01620007a6565b9650506080620009868c828d016200078f565b95505060a0620009998c828d016200078f565b94505060c0620009ac8c828d016200078f565b93505060e0620009bf8c828d016200078f565b925050610100620009d38c828d01620007d3565b9150509295985092959850929598565b6000620009ef62000a02565b9050620009fd828262000b10565b919050565b6000604051905090565b600067ffffffffffffffff82111562000a2a5762000a2962000b75565b5b62000a358262000ba4565b9050602081019050919050565b600062000a4f8262000a56565b9050919050565b600073ffffffffffffffffffffffffffffffffffffffff82169050919050565b6000819050919050565b600063ffffffff82169050919050565b600067ffffffffffffffff82169050919050565b60005b8381101562000ac457808201518184015260208101905062000aa7565b8381111562000ad4576000848401525b50505050565b6000600282049050600182168062000af357607f821691505b6020821081141562000b0a5762000b0962000b46565b5b50919050565b62000b1b8262000ba4565b810181811067ffffffffffffffff8211171562000b3d5762000b3c62000b75565b5b80604052505050565b7f4e487b7100000000000000000000000000000000000000000000000000000000600052602260045260246000fd5b7f4e487b7100000000000000000000000000000000000000000000000000000000600052604160045260246000fd5b6000601f19601f8301169050919050565b62000bc08162000a42565b811462000bcc57600080fd5b50565b62000bda8162000a76565b811462000be657600080fd5b50565b62000bf48162000a80565b811462000c0057600080fd5b50565b62000c0e8162000a90565b811462000c1a57600080fd5b50565b60805160a05160e01c61ae8862000cd96000396000818161368e015281816138e2015281816139a801528181613a2801528181613af401528181613b7401528181614056015281816140e8015281816161b90152818161623d015281816162c001528181616343015281816163d20152818161660e015281816166a101528181616734015281816167c301528181616896015281816175cc015261765001526000818161143901528181612ab901526133e9015261ae886000f3fe608060405234801561001057600080fd5b50600436106103275760003560e01c8063804de71f116101b8578063b1ebf72911610104578063e6a69ab8116100a2578063f2fde38b1161007c578063f2fde38b14610984578063f4b9fa75146109a0578063f5a96d3f146109be578063f739ed9e146109c857610327565b8063e6a69ab81461092e578063f0c4e8861461094c578063f1bd6f0a1461096857610327565b8063c1070fd6116100de578063c1070fd6146108a6578063c44814a6146108c2578063c6f4c578146108f2578063e0b533071461091057610327565b8063b1ebf72914610850578063b49c53a71461086c578063b6b0b0971461088857610327565b806399c8d55611610171578063a2953f371161014b578063a2953f37146107da578063a5b4ff791461080a578063a5be54cd14610828578063ae4b19ce1461083257610327565b806399c8d556146107805780639a35c3591461079e5780639a8a0592146107bc57610327565b8063804de71f146106ce5780638da5cb5b146106ec5780639241a5611461070a57806393a595f514610728578063947a36fb1461074457806394920cca1461076257610327565b80634585e33b116102775780635a94b8d1116102305780636e04ff0d1161020a5780636e04ff0d14610659578063715018a61461068a5780637914acc7146106945780637c108333146106b257610327565b80635a94b8d1146105ee5780635db11f791461060c57806365c650761461063d57610327565b80634585e33b146105065780634b98e0e51461052257806352fcaa79146105525780635300f8411461058657806356d5d475146105b65780635a91b39c146105d257610327565b80632ead72f6116102e45780633ca1355f116102be5780633ca1355f146104775780633d3e49fc146104935780633e413bee146104ca5780633f3b3b27146104e857610327565b80632ead72f6146103f2578063396ce2131461042257806339bb4ad91461045957610327565b80630ba8af3c1461032c57806312b1d7801461034857806313e1441b146103645780631f3929e31461039a5780632a48cf12146103b65780632d05670b146103d4575b600080fd5b61034660048036038101906103419190618fea565b6109e4565b005b610362600480360381019061035d9190618c39565b610a3d565b005b61037e60048036038101906103799190619013565b610a51565b604051610391979695949392919061987a565b60405180910390f35b6103b460048036038101906103af9190618c62565b610ada565b005b6103be610f1f565b6040516103cb9190619da5565b60405180910390f35b6103dc610f25565b6040516103e99190619da5565b60405180910390f35b61040c60048036038101906104079190618fea565b610f2b565b6040516104199190619a94565b60405180910390f35b61043c60048036038101906104379190618df7565b610f43565b60405161045098979695949392919061972d565b60405180910390f35b610461611018565b60405161046e9190619aca565b60405180910390f35b610491600480360381019061048c9190618eb7565b61103e565b005b6104ad60048036038101906104a89190618f6f565b61130a565b6040516104c19897969594939291906198e9565b60405180910390f35b6104d261137f565b6040516104df9190619712565b60405180910390f35b6104f06113a5565b6040516104fd9190619da5565b60405180910390f35b610520600480360381019061051b9190618e20565b6113ab565b005b61053c60048036038101906105379190618f6f565b611490565b6040516105499190619da5565b60405180910390f35b61056c60048036038101906105679190618df7565b611594565b60405161057d9594939291906197ab565b60405180910390f35b6105a0600480360381019061059b9190618c39565b611617565b6040516105ad9190619a20565b60405180910390f35b6105d060048036038101906105cb919061908b565b611637565b005b6105ec60048036038101906105e79190618c62565b6116dc565b005b6105f6611f88565b6040516106039190619da5565b60405180910390f35b61062660048036038101906106219190618c39565b611f8e565b604051610634929190619a6b565b60405180910390f35b61065760048036038101906106529190618c9e565b611fdb565b005b610673600480360381019061066e9190618e20565b612ab3565b604051610681929190619a3b565b60405180910390f35b610692612af0565b005b61069c612b04565b6040516106a99190619da5565b60405180910390f35b6106cc60048036038101906106c79190618c39565b612b0a565b005b6106d6612ec8565b6040516106e39190619da5565b60405180910390f35b6106f4612ece565b6040516107019190619712565b60405180910390f35b610712612ef8565b60405161071f9190619da5565b60405180910390f35b610742600480360381019061073d9190618c62565b612efe565b005b61074c6133e7565b6040516107599190619da5565b60405180910390f35b61076a61340b565b6040516107779190619da5565b60405180910390f35b610788613411565b6040516107959190619da5565b60405180910390f35b6107a6613417565b6040516107b39190619aaf565b60405180910390f35b6107c461343d565b6040516107d19190619df0565b60405180910390f35b6107f460048036038101906107ef9190618f6f565b613453565b6040516108019190619da5565b60405180910390f35b610812613557565b60405161081f9190619da5565b60405180910390f35b61083061355d565b005b61083a6138e0565b6040516108479190619df0565b60405180910390f35b61086a60048036038101906108659190618c39565b613904565b005b6108866004803603810190610881919061904f565b613c08565b005b610890613c1e565b60405161089d9190619712565b60405180910390f35b6108c060048036038101906108bb9190618ef5565b613c44565b005b6108dc60048036038101906108d79190618f98565b61418f565b6040516108e99190619da5565b60405180910390f35b6108fa6141a6565b6040516109079190619712565b60405180910390f35b6109186141cc565b6040516109259190619da5565b60405180910390f35b610936614303565b6040516109439190619da5565b60405180910390f35b61096660048036038101906109619190618d01565b614309565b005b610982600480360381019061097d9190618c39565b614a8d565b005b61099e60048036038101906109999190618c39565b614aa1565b005b6109a8614b25565b6040516109b59190619712565b60405180910390f35b6109c6614b4b565b005b6109e260048036038101906109dd9190618c62565b614c6a565b005b6109ec615566565b60e68190806001815401808255809150506001900390600052602060002090600891828204019190066004029091909190916101000a81548163ffffffff021916908363ffffffff16021790555050565b610a45615566565b610a4e816155e4565b50565b60de602052816000526040600020602052806000526040600020600091509150508060000160009054906101000a900473ffffffffffffffffffffffffffffffffffffffff16908060000160149054906101000a900460ff16908060010154908060020154908060030154908060040154908060050160009054906101000a900460ff16905087565b600160e460008282829054906101000a90046fffffffffffffffffffffffffffffffff16610b089190619f8a565b92506101000a8154816fffffffffffffffffffffffffffffffff02191690836fffffffffffffffffffffffffffffffff16021790555060e260008373ffffffffffffffffffffffffffffffffffffffff1673ffffffffffffffffffffffffffffffffffffffff16815260200190815260200160002060000160009054906101000a900460ff1615610bce576040517f08c379a0000000000000000000000000000000000000000000000000000000008152600401610bc590619c85565b60405180910390fd5b6040518061010001604052808373ffffffffffffffffffffffffffffffffffffffff168152602001600115158152602001600081526020016000815260200142815260200142815260200160008152602001600081525060e1600060e460009054906101000a90046fffffffffffffffffffffffffffffffff166fffffffffffffffffffffffffffffffff166fffffffffffffffffffffffffffffffff16815260200190815260200160002060008201518160000160006101000a81548173ffffffffffffffffffffffffffffffffffffffff021916908373ffffffffffffffffffffffffffffffffffffffff16021790555060208201518160000160146101000a81548160ff02191690831515021790555060408201518160010155606082015181600201556080820151816003015560a0820151816004015560c0820151816005015560e08201518160060155905050604051806040016040528060011515815260200160e460009054906101000a90046fffffffffffffffffffffffffffffffff166fffffffffffffffffffffffffffffffff1681525060e260008473ffffffffffffffffffffffffffffffffffffffff1673ffffffffffffffffffffffffffffffffffffffff16815260200190815260200160002060008201518160000160006101000a81548160ff02191690831515021790555060208201518160000160016101000a8154816fffffffffffffffffffffffffffffffff02191690836fffffffffffffffffffffffffffffffff1602179055509050506000610e15838361566b565b905060008054906101000a900473ffffffffffffffffffffffffffffffffffffffff1673ffffffffffffffffffffffffffffffffffffffff1663313ce5676040518163ffffffff1660e01b815260040160206040518083038186803b158015610e7d57600080fd5b505afa158015610e91573d6000803e3d6000fd5b505050506040513d601f19601f82011682018060405250810190610eb5919061911b565b600a610ec1919061a0aa565b610dac610ece919061a1c8565b811015610f10576040517f08c379a0000000000000000000000000000000000000000000000000000000008152600401610f0790619b85565b60405180910390fd5b610f1a8383614c6a565b505050565b60dc5481565b60db5481565b60996020528060005260406000206000915090505481565b60df6020528060005260406000206000915090508060000160009054906101000a900473ffffffffffffffffffffffffffffffffffffffff16908060010160009054906101000a900473ffffffffffffffffffffffffffffffffffffffff16908060010160149054906101000a900460ff16908060020154908060030160009054906101000a900473ffffffffffffffffffffffffffffffffffffffff16908060040154908060050160009054906101000a900473ffffffffffffffffffffffffffffffffffffffff16908060060154905088565b606860009054906101000a900473ffffffffffffffffffffffffffffffffffffffff1681565b611046615566565b600160e360008373ffffffffffffffffffffffffffffffffffffffff1673ffffffffffffffffffffffffffffffffffffffff16815260200190815260200160002060006101000a81548160ff0219169083151502179055508160000160208101906110b191906190f2565b67ffffffffffffffff1660d68190555060d0548260200160208101906110d791906190f2565b67ffffffffffffffff1681611115577f4e487b7100000000000000000000000000000000000000000000000000000000600052601260045260246000fd5b0460d78190555060d05482604001602081019061113291906190f2565b67ffffffffffffffff1681611170577f4e487b7100000000000000000000000000000000000000000000000000000000600052601260045260246000fd5b0460d88190555060d05482606001602081019061118d91906190f2565b67ffffffffffffffff16816111cb577f4e487b7100000000000000000000000000000000000000000000000000000000600052601260045260246000fd5b0460d9819055508160800160208101906111e591906190f2565b67ffffffffffffffff1660da8190555060d0548260a001602081019061120b91906190f2565b67ffffffffffffffff1681611249577f4e487b7100000000000000000000000000000000000000000000000000000000600052601260045260246000fd5b0460db8190555060d0548260c001602081019061126691906190f2565b67ffffffffffffffff16816112a4577f4e487b7100000000000000000000000000000000000000000000000000000000600052601260045260246000fd5b0460dc8190555060d0548260e00160208101906112c191906190f2565b67ffffffffffffffff16816112ff577f4e487b7100000000000000000000000000000000000000000000000000000000600052601260045260246000fd5b0460dd819055505050565b60e16020528060005260406000206000915090508060000160009054906101000a900473ffffffffffffffffffffffffffffffffffffffff16908060000160149054906101000a900460ff16908060010154908060020154908060030154908060040154908060050154908060060154905088565b60d260009054906101000a900473ffffffffffffffffffffffffffffffffffffffff1681565b60ce5481565b60e360003373ffffffffffffffffffffffffffffffffffffffff1673ffffffffffffffffffffffffffffffffffffffff16815260200190815260200160002060009054906101000a900460ff16611437576040517f08c379a000000000000000000000000000000000000000000000000000000000815260040161142e90619ae5565b60405180910390fd5b7f000000000000000000000000000000000000000000000000000000000000000060ce5442611466919061a222565b111561148c574260ce8190555061147b61355d565b611483614b4b565b61148b6157d4565b5b5050565b60008060e16000846fffffffffffffffffffffffffffffffff166fffffffffffffffffffffffffffffffff1681526020019081526020016000206001015461151160e16000866fffffffffffffffffffffffffffffffff166fffffffffffffffffffffffffffffffff1681526020019081526020016000206002015461418f565b61151b919061a026565b905060da548111611549578060db54611534919061a1c8565b60dd546115419190619fd0565b91505061158f565b60da5481611557919061a222565b60dc54611564919061a1c8565b60da5460db54611574919061a1c8565b60dd546115819190619fd0565b61158b9190619fd0565b9150505b919050565b60e06020528060005260406000206000915090508060000160009054906101000a900473ffffffffffffffffffffffffffffffffffffffff16908060010160009054906101000a900473ffffffffffffffffffffffffffffffffffffffff16908060010160149054906101000a900460ff16908060020154908060030154905085565b60e36020528060005260406000206000915054906101000a900460ff1681565b6116403361583f565b61167f576040517f08c379a000000000000000000000000000000000000000000000000000000000815260040161167690619c65565b60405180910390fd5b828261168b82826158f3565b6116ca576040517f08c379a00000000000000000000000000000000000000000000000000000000081526004016116c190619cc5565b60405180910390fd5b6116d585858561591f565b5050505050565b60de600060cf60009054906101000a900463ffffffff1663ffffffff1663ffffffff16815260200190815260200160002060003373ffffffffffffffffffffffffffffffffffffffff1673ffffffffffffffffffffffffffffffffffffffff16815260200190815260200160002060000160149054906101000a900460ff1661179a576040517f08c379a000000000000000000000000000000000000000000000000000000000815260040161179190619d05565b60405180910390fd5b60de600060cf60009054906101000a900463ffffffff1663ffffffff1663ffffffff16815260200190815260200160002060003373ffffffffffffffffffffffffffffffffffffffff1673ffffffffffffffffffffffffffffffffffffffff16815260200190815260200160002060050160009054906101000a900460ff1615611859576040517f08c379a000000000000000000000000000000000000000000000000000000000815260040161185090619ce5565b60405180910390fd5b6002600154141561189f576040517f08c379a000000000000000000000000000000000000000000000000000000000815260040161189690619d25565b60405180910390fd5b600260018190555060e260008373ffffffffffffffffffffffffffffffffffffffff1673ffffffffffffffffffffffffffffffffffffffff16815260200190815260200160002060000160009054906101000a900460ff16611936576040517f08c379a000000000000000000000000000000000000000000000000000000000815260040161192d90619bc5565b60405180910390fd5b6000338360cc60405160200161194e939291906196d9565b60405160208183030381529060405280519060200120905060006127108360cd54611979919061a1c8565b611983919061a026565b90506000611991858561566b565b9050600a81116119d6576040517f08c379a00000000000000000000000000000000000000000000000000000000081526004016119cd90619c25565b60405180910390fd5b6119df3361594b565b611b5860de600060cf60009054906101000a900463ffffffff1663ffffffff1663ffffffff16815260200190815260200160002060003373ffffffffffffffffffffffffffffffffffffffff1673ffffffffffffffffffffffffffffffffffffffff168152602001908152602001600020600201546127108360de600060cf60009054906101000a900463ffffffff1663ffffffff1663ffffffff16815260200190815260200160002060003373ffffffffffffffffffffffffffffffffffffffff1673ffffffffffffffffffffffffffffffffffffffff16815260200190815260200160002060010154611ad49190619fd0565b611ade919061a1c8565b611ae8919061a026565b10611b28576040517f08c379a0000000000000000000000000000000000000000000000000000000008152600401611b1f90619ca5565b60405180910390fd5b60df600084815260200190815260200160002060010160149054906101000a900460ff1615611b9e578360df60008581526020019081526020016000206002016000828254611b779190619fd0565b925050819055504260df600085815260200190815260200160002060060181905550611da7565b6040518061010001604052803373ffffffffffffffffffffffffffffffffffffffff1681526020018673ffffffffffffffffffffffffffffffffffffffff168152602001600115158152602001858152602001600073ffffffffffffffffffffffffffffffffffffffff16815260200160008152602001600073ffffffffffffffffffffffffffffffffffffffff1681526020014281525060df600085815260200190815260200160002060008201518160000160006101000a81548173ffffffffffffffffffffffffffffffffffffffff021916908373ffffffffffffffffffffffffffffffffffffffff16021790555060208201518160010160006101000a81548173ffffffffffffffffffffffffffffffffffffffff021916908373ffffffffffffffffffffffffffffffffffffffff16021790555060408201518160010160146101000a81548160ff0219169083151502179055506060820151816002015560808201518160030160006101000a81548173ffffffffffffffffffffffffffffffffffffffff021916908373ffffffffffffffffffffffffffffffffffffffff16021790555060a0820151816004015560c08201518160050160006101000a81548173ffffffffffffffffffffffffffffffffffffffff021916908373ffffffffffffffffffffffffffffffffffffffff16021790555060e082015181600601559050505b8060de600060cf60009054906101000a900463ffffffff1663ffffffff1663ffffffff16815260200190815260200160002060003373ffffffffffffffffffffffffffffffffffffffff1673ffffffffffffffffffffffffffffffffffffffff1681526020019081526020016000206001016000828254611e289190619fd0565b925050819055508473ffffffffffffffffffffffffffffffffffffffff1663a9059cbb338487611e58919061a222565b6040518363ffffffff1660e01b8152600401611e75929190619967565b602060405180830381600087803b158015611e8f57600080fd5b505af1158015611ea3573d6000803e3d6000fd5b505050506040513d601f19601f82011682018060405250810190611ec79190618dce565b611f06576040517f08c379a0000000000000000000000000000000000000000000000000000000008152600401611efd90619ba5565b60405180910390fd5b611f718460018060e260008a73ffffffffffffffffffffffffffffffffffffffff1673ffffffffffffffffffffffffffffffffffffffff16815260200190815260200160002060000160019054906101000a90046fffffffffffffffffffffffffffffffff16615c1e565b611f7a33613904565b505050600180819055505050565b60d75481565b60e26020528060005260406000206000915090508060000160009054906101000a900460ff16908060000160019054906101000a90046fffffffffffffffffffffffffffffffff16905082565b60de600060cf60009054906101000a900463ffffffff1663ffffffff1663ffffffff16815260200190815260200160002060003373ffffffffffffffffffffffffffffffffffffffff1673ffffffffffffffffffffffffffffffffffffffff16815260200190815260200160002060000160149054906101000a900460ff16612099576040517f08c379a000000000000000000000000000000000000000000000000000000000815260040161209090619d05565b60405180910390fd5b60de600060cf60009054906101000a900463ffffffff1663ffffffff1663ffffffff16815260200190815260200160002060003373ffffffffffffffffffffffffffffffffffffffff1673ffffffffffffffffffffffffffffffffffffffff16815260200190815260200160002060050160009054906101000a900460ff1615612158576040517f08c379a000000000000000000000000000000000000000000000000000000000815260040161214f90619ce5565b60405180910390fd5b6002600154141561219e576040517f08c379a000000000000000000000000000000000000000000000000000000000815260040161219590619d25565b60405180910390fd5b600260018190555060e260008573ffffffffffffffffffffffffffffffffffffffff1673ffffffffffffffffffffffffffffffffffffffff16815260200190815260200160002060000160009054906101000a900460ff16612235576040517f08c379a000000000000000000000000000000000000000000000000000000000815260040161222c90619bc5565b60405180910390fd5b6000338560cc60405160200161224d939291906196d9565b60405160208183030381529060405280519060200120905060006127108560cd54612278919061a1c8565b612282919061a026565b90506000612290878761566b565b905060006122a98684876122a4919061a222565b61566b565b9050600a82116122ee576040517f08c379a00000000000000000000000000000000000000000000000000000000081526004016122e590619c25565b60405180910390fd5b600a8111612331576040517f08c379a000000000000000000000000000000000000000000000000000000000815260040161232890619b25565b60405180910390fd5b61233a3361594b565b611b588160de600060cf60009054906101000a900463ffffffff1663ffffffff1663ffffffff16815260200190815260200160002060003373ffffffffffffffffffffffffffffffffffffffff1673ffffffffffffffffffffffffffffffffffffffff168152602001908152602001600020600201546123ba9190619fd0565b6127108460de600060cf60009054906101000a900463ffffffff1663ffffffff1663ffffffff16815260200190815260200160002060003373ffffffffffffffffffffffffffffffffffffffff1673ffffffffffffffffffffffffffffffffffffffff1681526020019081526020016000206001015461243a9190619fd0565b612444919061a1c8565b61244e919061a026565b1061248e576040517f08c379a000000000000000000000000000000000000000000000000000000000815260040161248590619ca5565b60405180910390fd5b60df600085815260200190815260200160002060010160149054906101000a900460ff1615612504578660df600086815260200190815260200160002060020160008282546124dd9190619fd0565b925050819055504260df60008681526020019081526020016000206006018190555061270d565b6040518061010001604052803373ffffffffffffffffffffffffffffffffffffffff1681526020018973ffffffffffffffffffffffffffffffffffffffff168152602001600115158152602001888152602001600073ffffffffffffffffffffffffffffffffffffffff16815260200160008152602001600073ffffffffffffffffffffffffffffffffffffffff1681526020014281525060df600086815260200190815260200160002060008201518160000160006101000a81548173ffffffffffffffffffffffffffffffffffffffff021916908373ffffffffffffffffffffffffffffffffffffffff16021790555060208201518160010160006101000a81548173ffffffffffffffffffffffffffffffffffffffff021916908373ffffffffffffffffffffffffffffffffffffffff16021790555060408201518160010160146101000a81548160ff0219169083151502179055506060820151816002015560808201518160030160006101000a81548173ffffffffffffffffffffffffffffffffffffffff021916908373ffffffffffffffffffffffffffffffffffffffff16021790555060a0820151816004015560c08201518160050160006101000a81548173ffffffffffffffffffffffffffffffffffffffff021916908373ffffffffffffffffffffffffffffffffffffffff16021790555060e082015181600601559050505b8160de600060cf60009054906101000a900463ffffffff1663ffffffff1663ffffffff16815260200190815260200160002060003373ffffffffffffffffffffffffffffffffffffffff1673ffffffffffffffffffffffffffffffffffffffff168152602001908152602001600020600101600082825461278e9190619fd0565b925050819055508060de600060cf60009054906101000a900463ffffffff1663ffffffff1663ffffffff16815260200190815260200160002060003373ffffffffffffffffffffffffffffffffffffffff1673ffffffffffffffffffffffffffffffffffffffff16815260200190815260200160002060020160008282546128169190619fd0565b925050819055508573ffffffffffffffffffffffffffffffffffffffff166323b872dd3330886040518463ffffffff1660e01b815260040161285a939291906197fe565b602060405180830381600087803b15801561287457600080fd5b505af1158015612888573d6000803e3d6000fd5b505050506040513d601f19601f820116820180604052508101906128ac9190618dce565b6128eb576040517f08c379a00000000000000000000000000000000000000000000000000000000081526004016128e290619ba5565b60405180910390fd5b8773ffffffffffffffffffffffffffffffffffffffff1663a9059cbb33858a612914919061a222565b6040518363ffffffff1660e01b8152600401612931929190619967565b602060405180830381600087803b15801561294b57600080fd5b505af115801561295f573d6000803e3d6000fd5b505050506040513d601f19601f820116820180604052508101906129839190618dce565b6129c2576040517f08c379a00000000000000000000000000000000000000000000000000000000081526004016129b990619ba5565b60405180910390fd5b612a2d8760018060e260008d73ffffffffffffffffffffffffffffffffffffffff1673ffffffffffffffffffffffffffffffffffffffff16815260200190815260200160002060000160019054906101000a90046fffffffffffffffffffffffffffffffff16615c1e565b612a99856000600160e260008b73ffffffffffffffffffffffffffffffffffffffff1673ffffffffffffffffffffffffffffffffffffffff16815260200190815260200160002060000160019054906101000a90046fffffffffffffffffffffffffffffffff16615c1e565b612aa233613904565b505050506001808190555050505050565b600060607f000000000000000000000000000000000000000000000000000000000000000060ce5442612ae6919061a222565b1191509250929050565b612af8615566565b612b026000615e13565b565b60dd5481565b60e360003373ffffffffffffffffffffffffffffffffffffffff1673ffffffffffffffffffffffffffffffffffffffff16815260200190815260200160002060009054906101000a900460ff16612b96576040517f08c379a0000000000000000000000000000000000000000000000000000000008152600401612b8d90619ae5565b60405180910390fd5b600160e460008282829054906101000a90046fffffffffffffffffffffffffffffffff16612bc49190619f8a565b92506101000a8154816fffffffffffffffffffffffffffffffff02191690836fffffffffffffffffffffffffffffffff16021790555060e260008273ffffffffffffffffffffffffffffffffffffffff1673ffffffffffffffffffffffffffffffffffffffff16815260200190815260200160002060000160009054906101000a900460ff1615612c8a576040517f08c379a0000000000000000000000000000000000000000000000000000000008152600401612c8190619c85565b60405180910390fd5b6040518061010001604052808273ffffffffffffffffffffffffffffffffffffffff168152602001600115158152602001600081526020016000815260200142815260200142815260200160008152602001600081525060e1600060e460009054906101000a90046fffffffffffffffffffffffffffffffff166fffffffffffffffffffffffffffffffff166fffffffffffffffffffffffffffffffff16815260200190815260200160002060008201518160000160006101000a81548173ffffffffffffffffffffffffffffffffffffffff021916908373ffffffffffffffffffffffffffffffffffffffff16021790555060208201518160000160146101000a81548160ff02191690831515021790555060408201518160010155606082015181600201556080820151816003015560a0820151816004015560c0820151816005015560e08201518160060155905050604051806040016040528060011515815260200160e460009054906101000a90046fffffffffffffffffffffffffffffffff166fffffffffffffffffffffffffffffffff1681525060e260008373ffffffffffffffffffffffffffffffffffffffff1673ffffffffffffffffffffffffffffffffffffffff16815260200190815260200160002060008201518160000160006101000a81548160ff02191690831515021790555060208201518160000160016101000a8154816fffffffffffffffffffffffffffffffff02191690836fffffffffffffffffffffffffffffffff16021790555090505050565b60d85481565b6000603560009054906101000a900473ffffffffffffffffffffffffffffffffffffffff16905090565b60da5481565b60de600060cf60009054906101000a900463ffffffff1663ffffffff1663ffffffff16815260200190815260200160002060003373ffffffffffffffffffffffffffffffffffffffff1673ffffffffffffffffffffffffffffffffffffffff16815260200190815260200160002060000160149054906101000a900460ff16612fbc576040517f08c379a0000000000000000000000000000000000000000000000000000000008152600401612fb390619d05565b60405180910390fd5b60de600060cf60009054906101000a900463ffffffff1663ffffffff1663ffffffff16815260200190815260200160002060003373ffffffffffffffffffffffffffffffffffffffff1673ffffffffffffffffffffffffffffffffffffffff16815260200190815260200160002060050160009054906101000a900460ff161561307b576040517f08c379a000000000000000000000000000000000000000000000000000000000815260040161307290619ce5565b60405180910390fd5b600260015414156130c1576040517f08c379a00000000000000000000000000000000000000000000000000000000081526004016130b890619d25565b60405180910390fd5b600260018190555060e260008373ffffffffffffffffffffffffffffffffffffffff1673ffffffffffffffffffffffffffffffffffffffff16815260200190815260200160002060000160009054906101000a900460ff16613158576040517f08c379a000000000000000000000000000000000000000000000000000000000815260040161314f90619bc5565b60405180910390fd5b6000338360cc604051602001613170939291906196d9565b6040516020818303038152906040528051906020012090506000613194848461566b565b9050600a81116131d9576040517f08c379a00000000000000000000000000000000000000000000000000000000081526004016131d090619b05565b60405180910390fd5b6131e23361594b565b8260df60008481526020019081526020016000206002016000828254613208919061a222565b925050819055508060de600060cf60009054906101000a900463ffffffff1663ffffffff1663ffffffff16815260200190815260200160002060003373ffffffffffffffffffffffffffffffffffffffff1673ffffffffffffffffffffffffffffffffffffffff1681526020019081526020016000206001016000828254613290919061a222565b92505081905550613303836001600060e260008973ffffffffffffffffffffffffffffffffffffffff1673ffffffffffffffffffffffffffffffffffffffff16815260200190815260200160002060000160019054906101000a90046fffffffffffffffffffffffffffffffff16615c1e565b8373ffffffffffffffffffffffffffffffffffffffff166323b872dd3330866040518463ffffffff1660e01b8152600401613340939291906197fe565b602060405180830381600087803b15801561335a57600080fd5b505af115801561336e573d6000803e3d6000fd5b505050506040513d601f19601f820116820180604052508101906133929190618dce565b6133d1576040517f08c379a00000000000000000000000000000000000000000000000000000000081526004016133c890619ba5565b60405180910390fd5b6133da33613904565b5050600180819055505050565b7f000000000000000000000000000000000000000000000000000000000000000081565b60d95481565b60cd5481565b606760009054906101000a900473ffffffffffffffffffffffffffffffffffffffff1681565b60cf60009054906101000a900463ffffffff1681565b60008060e16000846fffffffffffffffffffffffffffffffff166fffffffffffffffffffffffffffffffff168152602001908152602001600020600101546134d460e16000866fffffffffffffffffffffffffffffffff166fffffffffffffffffffffffffffffffff1681526020019081526020016000206002015461418f565b6134de919061a026565b905060d654811161350c578060d7546134f7919061a1c8565b60d9546135049190619fd0565b915050613552565b60d6548161351a919061a222565b60d854613527919061a1c8565b60d65460d754613537919061a1c8565b60d9546135449190619fd0565b61354e9190619fd0565b9150505b919050565b60d65481565b60e360003373ffffffffffffffffffffffffffffffffffffffff1673ffffffffffffffffffffffffffffffffffffffff16815260200190815260200160002060009054906101000a900460ff166135e9576040517f08c379a00000000000000000000000000000000000000000000000000000000081526004016135e090619ae5565b60405180910390fd5b606060005b60e5805490508110156138a5576000604051806060016040528060e58481548110613642577f4e487b7100000000000000000000000000000000000000000000000000000000600052603260045260246000fd5b9060005260206000200160009054906101000a900473ffffffffffffffffffffffffffffffffffffffff1673ffffffffffffffffffffffffffffffffffffffff16815260200160de60007f000000000000000000000000000000000000000000000000000000000000000063ffffffff1663ffffffff168152602001908152602001600020600060e58681548110613703577f4e487b7100000000000000000000000000000000000000000000000000000000600052603260045260246000fd5b9060005260206000200160009054906101000a900473ffffffffffffffffffffffffffffffffffffffff1673ffffffffffffffffffffffffffffffffffffffff1673ffffffffffffffffffffffffffffffffffffffff16815260200190815260200160002060020154815260200160de600060cf60009054906101000a900463ffffffff1663ffffffff1663ffffffff168152602001908152602001600020600060e586815481106137de577f4e487b7100000000000000000000000000000000000000000000000000000000600052603260045260246000fd5b9060005260206000200160009054906101000a900473ffffffffffffffffffffffffffffffffffffffff1673ffffffffffffffffffffffffffffffffffffffff1673ffffffffffffffffffffffffffffffffffffffff16815260200190815260200160002060010154815250905080838381518110613886577f4e487b7100000000000000000000000000000000000000000000000000000000600052603260045260246000fd5b602002602001018190525050808061389d9061a57c565b9150506135ee565b507faaf8c6b9b810a1670be7b114d93e7171681228e4e31f6d8bf2367c2501118af1816040516138d591906199fe565b60405180910390a150565b7f000000000000000000000000000000000000000000000000000000000000000081565b60e360003373ffffffffffffffffffffffffffffffffffffffff1673ffffffffffffffffffffffffffffffffffffffff16815260200190815260200160002060009054906101000a900460ff16613990576040517f08c379a000000000000000000000000000000000000000000000000000000000815260040161398790619ae5565b60405180910390fd5b61399981615ed9565b613acc6361722d728260de60007f000000000000000000000000000000000000000000000000000000000000000063ffffffff1663ffffffff16815260200190815260200160002060008573ffffffffffffffffffffffffffffffffffffffff1673ffffffffffffffffffffffffffffffffffffffff1681526020019081526020016000206002015460de60007f000000000000000000000000000000000000000000000000000000000000000063ffffffff1663ffffffff16815260200190815260200160002060008673ffffffffffffffffffffffffffffffffffffffff1673ffffffffffffffffffffffffffffffffffffffff16815260200190815260200160002060010154604051602001613ab493929190619990565b604051602081830303815290604052620186a0616454565b7ff55d29b60dedfbb54c4e0ca2dfb26f4db2a0e1319086f002722f41ce851365b38160de60007f000000000000000000000000000000000000000000000000000000000000000063ffffffff1663ffffffff16815260200190815260200160002060008473ffffffffffffffffffffffffffffffffffffffff1673ffffffffffffffffffffffffffffffffffffffff1681526020019081526020016000206002015460de60007f000000000000000000000000000000000000000000000000000000000000000063ffffffff1663ffffffff16815260200190815260200160002060008573ffffffffffffffffffffffffffffffffffffffff1673ffffffffffffffffffffffffffffffffffffffff16815260200190815260200160002060010154604051613bfd93929190619990565b60405180910390a150565b613c10615566565b613c1a8282616512565b5050565b60d460009054906101000a900473ffffffffffffffffffffffffffffffffffffffff1681565b60e360003373ffffffffffffffffffffffffffffffffffffffff1673ffffffffffffffffffffffffffffffffffffffff16815260200190815260200160002060009054906101000a900460ff16613cd0576040517f08c379a0000000000000000000000000000000000000000000000000000000008152600401613cc790619ae5565b60405180910390fd5b60de600060cf60009054906101000a900463ffffffff1663ffffffff1663ffffffff1681526020019081526020016000206000836000016020810190613d169190618c39565b73ffffffffffffffffffffffffffffffffffffffff1673ffffffffffffffffffffffffffffffffffffffff16815260200190815260200160002060000160149054906101000a900460ff1615613de9578160de60008363ffffffff1663ffffffff1681526020019081526020016000206000846000016020810190613d9b9190618c39565b73ffffffffffffffffffffffffffffffffffffffff1673ffffffffffffffffffffffffffffffffffffffff1681526020019081526020016000208181613de1919061ad18565b905050614001565b60e5826000016020810190613dfe9190618c39565b9080600181540180825580915050600190039060005260206000200160009091909190916101000a81548173ffffffffffffffffffffffffffffffffffffffff021916908373ffffffffffffffffffffffffffffffffffffffff1602179055506040518060e00160405280836000016020810190613e7c9190618c39565b73ffffffffffffffffffffffffffffffffffffffff1681526020016001151581526020018360400135815260200183606001358152602001836080013581526020018360a0013581526020018360c0016020810190613edb9190618da5565b151581525060de60008363ffffffff1663ffffffff1681526020019081526020016000206000846000016020810190613f149190618c39565b73ffffffffffffffffffffffffffffffffffffffff1673ffffffffffffffffffffffffffffffffffffffff16815260200190815260200160002060008201518160000160006101000a81548173ffffffffffffffffffffffffffffffffffffffff021916908373ffffffffffffffffffffffffffffffffffffffff16021790555060208201518160000160146101000a81548160ff02191690831515021790555060408201518160010155606082015181600201556080820151816003015560a0820151816004015560c08201518160050160006101000a81548160ff0219169083151502179055509050505b61401c8260000160208101906140179190618c39565b615ed9565b7ff55d29b60dedfbb54c4e0ca2dfb26f4db2a0e1319086f002722f41ce851365b38260000160208101906140509190618c39565b60de60007f000000000000000000000000000000000000000000000000000000000000000063ffffffff1663ffffffff16815260200190815260200160002060008560000160208101906140a49190618c39565b73ffffffffffffffffffffffffffffffffffffffff1673ffffffffffffffffffffffffffffffffffffffff1681526020019081526020016000206002015460de60007f000000000000000000000000000000000000000000000000000000000000000063ffffffff1663ffffffff16815260200190815260200160002060008660000160208101906141369190618c39565b73ffffffffffffffffffffffffffffffffffffffff1673ffffffffffffffffffffffffffffffffffffffff1681526020019081526020016000206001015460405161418393929190619990565b60405180910390a15050565b60006127108261419f919061a1c8565b9050919050565b60d160009054906101000a900473ffffffffffffffffffffffffffffffffffffffff1681565b600060de600060cf60009054906101000a900463ffffffff1663ffffffff1663ffffffff16815260200190815260200160002060003373ffffffffffffffffffffffffffffffffffffffff1673ffffffffffffffffffffffffffffffffffffffff16815260200190815260200160002060000160149054906101000a900460ff1661428c576040517f08c379a000000000000000000000000000000000000000000000000000000000815260040161428390619d65565b60405180910390fd5b60de600060cf60009054906101000a900463ffffffff1663ffffffff1663ffffffff16815260200190815260200160002060003373ffffffffffffffffffffffffffffffffffffffff1673ffffffffffffffffffffffffffffffffffffffff16815260200190815260200160002060040154905090565b60d05481565b60de600060cf60009054906101000a900463ffffffff1663ffffffff1663ffffffff16815260200190815260200160002060003373ffffffffffffffffffffffffffffffffffffffff1673ffffffffffffffffffffffffffffffffffffffff16815260200190815260200160002060000160149054906101000a900460ff166143c7576040517f08c379a00000000000000000000000000000000000000000000000000000000081526004016143be90619d05565b60405180910390fd5b60de600060cf60009054906101000a900463ffffffff1663ffffffff1663ffffffff16815260200190815260200160002060003373ffffffffffffffffffffffffffffffffffffffff1673ffffffffffffffffffffffffffffffffffffffff16815260200190815260200160002060050160009054906101000a900460ff1615614486576040517f08c379a000000000000000000000000000000000000000000000000000000000815260040161447d90619ce5565b60405180910390fd5b600260015414156144cc576040517f08c379a00000000000000000000000000000000000000000000000000000000081526004016144c390619d25565b60405180910390fd5b600260018190555060e260008573ffffffffffffffffffffffffffffffffffffffff1673ffffffffffffffffffffffffffffffffffffffff16815260200190815260200160002060000160009054906101000a900460ff16614563576040517f08c379a000000000000000000000000000000000000000000000000000000000815260040161455a90619bc5565b60405180910390fd5b6000338560cc60405160200161457b939291906196d9565b60405160208183030381529060405280519060200120905060006127108560cd546145a6919061a1c8565b6145b0919061a026565b905060006145c98783886145c4919061a222565b61566b565b9050600a811161460e576040517f08c379a000000000000000000000000000000000000000000000000000000000815260040161460590619be5565b60405180910390fd5b8560e060008581526020019081526020016000206002015411614666576040517f08c379a000000000000000000000000000000000000000000000000000000000815260040161465d90619d45565b60405180910390fd5b61466f3361594b565b611b588160de600060cf60009054906101000a900463ffffffff1663ffffffff1663ffffffff16815260200190815260200160002060003373ffffffffffffffffffffffffffffffffffffffff1673ffffffffffffffffffffffffffffffffffffffff168152602001908152602001600020600201546146ef919061a222565b61271060de600060cf60009054906101000a900463ffffffff1663ffffffff1663ffffffff16815260200190815260200160002060003373ffffffffffffffffffffffffffffffffffffffff1673ffffffffffffffffffffffffffffffffffffffff1681526020019081526020016000206001015461476e919061a1c8565b614778919061a026565b106147b8576040517f08c379a00000000000000000000000000000000000000000000000000000000081526004016147af90619ca5565b60405180910390fd5b8560e0600085815260200190815260200160002060020160008282546147de919061a222565b925050819055508060de600060cf60009054906101000a900463ffffffff1663ffffffff1663ffffffff16815260200190815260200160002060003373ffffffffffffffffffffffffffffffffffffffff1673ffffffffffffffffffffffffffffffffffffffff1681526020019081526020016000206002016000828254614866919061a222565b925050819055508460cf60009054906101000a900463ffffffff1663ffffffff161461492f5760d160009054906101000a900473ffffffffffffffffffffffffffffffffffffffff1673ffffffffffffffffffffffffffffffffffffffff1663241dc2df8886858a6148d8919061a222565b896040518563ffffffff1660e01b81526004016148f89493929190619835565b600060405180830381600087803b15801561491257600080fd5b505af1158015614926573d6000803e3d6000fd5b50505050614a09565b8673ffffffffffffffffffffffffffffffffffffffff166323b872dd3033858a614959919061a222565b6040518463ffffffff1660e01b8152600401614977939291906197fe565b602060405180830381600087803b15801561499157600080fd5b505af11580156149a5573d6000803e3d6000fd5b505050506040513d601f19601f820116820180604052508101906149c99190618dce565b614a08576040517f08c379a00000000000000000000000000000000000000000000000000000000081526004016149ff90619ba5565b60405180910390fd5b5b614a748660008060e260008c73ffffffffffffffffffffffffffffffffffffffff1673ffffffffffffffffffffffffffffffffffffffff16815260200190815260200160002060000160019054906101000a90046fffffffffffffffffffffffffffffffff16615c1e565b614a7d33613904565b5050506001808190555050505050565b614a95615566565b614a9e8161656e565b50565b614aa9615566565b600073ffffffffffffffffffffffffffffffffffffffff168173ffffffffffffffffffffffffffffffffffffffff161415614b19576040517f08c379a0000000000000000000000000000000000000000000000000000000008152600401614b1090619b65565b60405180910390fd5b614b2281615e13565b50565b60d360009054906101000a900473ffffffffffffffffffffffffffffffffffffffff1681565b60e360003373ffffffffffffffffffffffffffffffffffffffff1673ffffffffffffffffffffffffffffffffffffffff16815260200190815260200160002060009054906101000a900460ff16614bd7576040517f08c379a0000000000000000000000000000000000000000000000000000000008152600401614bce90619ae5565b60405180910390fd5b60005b60e580549050811015614c6757614c5460e58281548110614c24577f4e487b7100000000000000000000000000000000000000000000000000000000600052603260045260246000fd5b9060005260206000200160009054906101000a900473ffffffffffffffffffffffffffffffffffffffff166165f5565b8080614c5f9061a57c565b915050614bda565b50565b60de600060cf60009054906101000a900463ffffffff1663ffffffff1663ffffffff16815260200190815260200160002060003373ffffffffffffffffffffffffffffffffffffffff1673ffffffffffffffffffffffffffffffffffffffff16815260200190815260200160002060000160149054906101000a900460ff16614ec4576040518060e001604052803373ffffffffffffffffffffffffffffffffffffffff168152602001600115158152602001600081526020016000815260200160008152602001600081526020016000151581525060de600060cf60009054906101000a900463ffffffff1663ffffffff1663ffffffff16815260200190815260200160002060003373ffffffffffffffffffffffffffffffffffffffff1673ffffffffffffffffffffffffffffffffffffffff16815260200190815260200160002060008201518160000160006101000a81548173ffffffffffffffffffffffffffffffffffffffff021916908373ffffffffffffffffffffffffffffffffffffffff16021790555060208201518160000160146101000a81548160ff02191690831515021790555060408201518160010155606082015181600201556080820151816003015560a0820151816004015560c08201518160050160006101000a81548160ff02191690831515021790555090505060e5339080600181540180825580915050600190039060005260206000200160009091909190916101000a81548173ffffffffffffffffffffffffffffffffffffffff021916908373ffffffffffffffffffffffffffffffffffffffff1602179055505b60de600060cf60009054906101000a900463ffffffff1663ffffffff1663ffffffff16815260200190815260200160002060003373ffffffffffffffffffffffffffffffffffffffff1673ffffffffffffffffffffffffffffffffffffffff16815260200190815260200160002060000160149054906101000a900460ff16614f82576040517f08c379a0000000000000000000000000000000000000000000000000000000008152600401614f7990619d05565b60405180910390fd5b60de600060cf60009054906101000a900463ffffffff1663ffffffff1663ffffffff16815260200190815260200160002060003373ffffffffffffffffffffffffffffffffffffffff1673ffffffffffffffffffffffffffffffffffffffff16815260200190815260200160002060050160009054906101000a900460ff1615615041576040517f08c379a000000000000000000000000000000000000000000000000000000000815260040161503890619ce5565b60405180910390fd5b60026001541415615087576040517f08c379a000000000000000000000000000000000000000000000000000000000815260040161507e90619d25565b60405180910390fd5b600260018190555060e260008373ffffffffffffffffffffffffffffffffffffffff1673ffffffffffffffffffffffffffffffffffffffff16815260200190815260200160002060000160009054906101000a900460ff1661511e576040517f08c379a000000000000000000000000000000000000000000000000000000000815260040161511590619bc5565b60405180910390fd5b6000338360cc604051602001615136939291906196d9565b60405160208183030381529060405280519060200120905060006127108360cd54615161919061a1c8565b61516b919061a026565b9050600061518485838661517f919061a222565b61566b565b9050600a81116151c9576040517f08c379a00000000000000000000000000000000000000000000000000000000081526004016151c090619c05565b60405180910390fd5b6151d23361594b565b60e0600084815260200190815260200160002060010160149054906101000a900460ff1615615253578184615207919061a222565b60e06000858152602001908152602001600020600201600082825461522c9190619fd0565b925050819055504260e060008581526020019081526020016000206003018190555061538d565b6040518060a001604052803373ffffffffffffffffffffffffffffffffffffffff1681526020018673ffffffffffffffffffffffffffffffffffffffff16815260200160011515815260200183866152ab919061a222565b81526020014281525060e0600085815260200190815260200160002060008201518160000160006101000a81548173ffffffffffffffffffffffffffffffffffffffff021916908373ffffffffffffffffffffffffffffffffffffffff16021790555060208201518160010160006101000a81548173ffffffffffffffffffffffffffffffffffffffff021916908373ffffffffffffffffffffffffffffffffffffffff16021790555060408201518160010160146101000a81548160ff02191690831515021790555060608201518160020155608082015181600301559050505b8060de600060cf60009054906101000a900463ffffffff1663ffffffff1663ffffffff16815260200190815260200160002060003373ffffffffffffffffffffffffffffffffffffffff1673ffffffffffffffffffffffffffffffffffffffff168152602001908152602001600020600201600082825461540e9190619fd0565b92505081905550615481846000600160e260008a73ffffffffffffffffffffffffffffffffffffffff1673ffffffffffffffffffffffffffffffffffffffff16815260200190815260200160002060000160019054906101000a90046fffffffffffffffffffffffffffffffff16615c1e565b8473ffffffffffffffffffffffffffffffffffffffff166323b872dd3330876040518463ffffffff1660e01b81526004016154be939291906197fe565b602060405180830381600087803b1580156154d857600080fd5b505af11580156154ec573d6000803e3d6000fd5b505050506040513d601f19601f820116820180604052508101906155109190618dce565b61554f576040517f08c379a000000000000000000000000000000000000000000000000000000000815260040161554690619ba5565b60405180910390fd5b61555833613904565b505050600180819055505050565b61556e616a0e565b73ffffffffffffffffffffffffffffffffffffffff1661558c612ece565b73ffffffffffffffffffffffffffffffffffffffff16146155e2576040517f08c379a00000000000000000000000000000000000000000000000000000000081526004016155d990619c45565b60405180910390fd5b565b80606760006101000a81548173ffffffffffffffffffffffffffffffffffffffff021916908373ffffffffffffffffffffffffffffffffffffffff1602179055508073ffffffffffffffffffffffffffffffffffffffff167f7c10de8878ed89478ff01b9cd8c11a5271ea8ac91d46f662e6aea7e3adf5b11f60405160405180910390a250565b60008061567784616a16565b905060008151116156bd576040517f08c379a00000000000000000000000000000000000000000000000000000000081526004016156b490619b45565b60405180910390fd5b60006156fa60d55460016156d1919061a1c8565b60cb60009054906101000a900473ffffffffffffffffffffffffffffffffffffffff1684617047565b905060d55460d554858360008054906101000a900473ffffffffffffffffffffffffffffffffffffffff1673ffffffffffffffffffffffffffffffffffffffff166350d25bcd6040518163ffffffff1660e01b815260040160206040518083038186803b15801561576a57600080fd5b505afa15801561577e573d6000803e3d6000fd5b505050506040513d601f19601f820116820180604052508101906157a29190618e8e565b6157ac919061a1c8565b6157b6919061a1c8565b6157c0919061a026565b6157ca919061a1c8565b9250505092915050565b60005b60e460009054906101000a90046fffffffffffffffffffffffffffffffff166fffffffffffffffffffffffffffffffff16816fffffffffffffffffffffffffffffffff161161583c5761582981617134565b80806158349061a543565b9150506157d7565b50565b6000606760009054906101000a900473ffffffffffffffffffffffffffffffffffffffff1673ffffffffffffffffffffffffffffffffffffffff1663282f51eb836040518263ffffffff1660e01b815260040161589c9190619712565b60206040518083038186803b1580156158b457600080fd5b505afa1580156158c8573d6000803e3d6000fd5b505050506040513d601f19601f820116820180604052508101906158ec9190618dce565b9050919050565b600081609960008563ffffffff1663ffffffff1681526020019081526020016000205414905092915050565b600080828060200190518101906159369190618f32565b915091506159448282617213565b5050505050565b60005b60e680549050816fffffffffffffffffffffffffffffffff1611615c1a57600060e6826fffffffffffffffffffffffffffffffff16815481106159ba577f4e487b7100000000000000000000000000000000000000000000000000000000600052603260045260246000fd5b90600052602060002090600891828204019190066004029054906101000a900463ffffffff1690506159eb836176e9565b60de60008363ffffffff1663ffffffff16815260200190815260200160002060008573ffffffffffffffffffffffffffffffffffffffff1673ffffffffffffffffffffffffffffffffffffffff16815260200190815260200160002060010181905550615a57836178bc565b60de60008363ffffffff1663ffffffff16815260200190815260200160002060008573ffffffffffffffffffffffffffffffffffffffff1673ffffffffffffffffffffffffffffffffffffffff1681526020019081526020016000206002018190555060de600060cf60009054906101000a900463ffffffff1663ffffffff1663ffffffff16815260200190815260200160002060008473ffffffffffffffffffffffffffffffffffffffff1673ffffffffffffffffffffffffffffffffffffffff1681526020019081526020016000206002015461271060de60008463ffffffff1663ffffffff16815260200190815260200160002060008673ffffffffffffffffffffffffffffffffffffffff1673ffffffffffffffffffffffffffffffffffffffff16815260200190815260200160002060010154615b99919061a1c8565b615ba3919061a026565b60de60008363ffffffff1663ffffffff16815260200190815260200160002060008573ffffffffffffffffffffffffffffffffffffffff1673ffffffffffffffffffffffffffffffffffffffff16815260200190815260200160002060040181905550508080615c129061a543565b91505061594e565b5050565b8215615d16578115615c80578360e16000836fffffffffffffffffffffffffffffffff166fffffffffffffffffffffffffffffffff1681526020019081526020016000206002016000828254615c749190619fd0565b92505081905550615cd2565b8360e16000836fffffffffffffffffffffffffffffffff166fffffffffffffffffffffffffffffffff1681526020019081526020016000206002016000828254615cca919061a222565b925050819055505b4260e16000836fffffffffffffffffffffffffffffffff166fffffffffffffffffffffffffffffffff16815260200190815260200160002060030181905550615e04565b8115615d72578360e16000836fffffffffffffffffffffffffffffffff166fffffffffffffffffffffffffffffffff1681526020019081526020016000206001016000828254615d669190619fd0565b92505081905550615dc4565b8360e16000836fffffffffffffffffffffffffffffffff166fffffffffffffffffffffffffffffffff1681526020019081526020016000206001016000828254615dbc919061a222565b925050819055505b4260e16000836fffffffffffffffffffffffffffffffff166fffffffffffffffffffffffffffffffff168152602001908152602001600020600401819055505b615e0d81617134565b50505050565b6000603560009054906101000a900473ffffffffffffffffffffffffffffffffffffffff16905081603560006101000a81548173ffffffffffffffffffffffffffffffffffffffff021916908373ffffffffffffffffffffffffffffffffffffffff1602179055508173ffffffffffffffffffffffffffffffffffffffff168173ffffffffffffffffffffffffffffffffffffffff167f8be0079c531659141344cd1fd0a4f28419497f9722a3daafe3b4186f6b6457e060405160405180910390a35050565b615ee28161594b565b60008060005b60e680549050816fffffffffffffffffffffffffffffffff16116161b157600060e6826fffffffffffffffffffffffffffffffff1681548110615f54577f4e487b7100000000000000000000000000000000000000000000000000000000600052603260045260246000fd5b90600052602060002090600891828204019190066004029054906101000a900463ffffffff16905060de60008263ffffffff1663ffffffff16815260200190815260200160002060008673ffffffffffffffffffffffffffffffffffffffff1673ffffffffffffffffffffffffffffffffffffffff1681526020019081526020016000206001015484615fe79190619fd0565b935060de60008263ffffffff1663ffffffff16815260200190815260200160002060008673ffffffffffffffffffffffffffffffffffffffff1673ffffffffffffffffffffffffffffffffffffffff16815260200190815260200160002060020154836160549190619fd0565b925060de600060cf60009054906101000a900463ffffffff1663ffffffff1663ffffffff16815260200190815260200160002060008673ffffffffffffffffffffffffffffffffffffffff1673ffffffffffffffffffffffffffffffffffffffff1681526020019081526020016000206002015461613060de60008463ffffffff1663ffffffff16815260200190815260200160002060008873ffffffffffffffffffffffffffffffffffffffff1673ffffffffffffffffffffffffffffffffffffffff1681526020019081526020016000206001015461418f565b61613a919061a026565b60de60008363ffffffff1663ffffffff16815260200190815260200160002060008773ffffffffffffffffffffffffffffffffffffffff1673ffffffffffffffffffffffffffffffffffffffff168152602001908152602001600020600401819055505080806161a99061a543565b915050615ee8565b508060de60007f000000000000000000000000000000000000000000000000000000000000000063ffffffff1663ffffffff16815260200190815260200160002060008573ffffffffffffffffffffffffffffffffffffffff1673ffffffffffffffffffffffffffffffffffffffff168152602001908152602001600020600101819055508160de60007f000000000000000000000000000000000000000000000000000000000000000063ffffffff1663ffffffff16815260200190815260200160002060008573ffffffffffffffffffffffffffffffffffffffff1673ffffffffffffffffffffffffffffffffffffffff1681526020019081526020016000206002018190555060de60007f000000000000000000000000000000000000000000000000000000000000000063ffffffff1663ffffffff16815260200190815260200160002060008473ffffffffffffffffffffffffffffffffffffffff1673ffffffffffffffffffffffffffffffffffffffff168152602001908152602001600020600201546163c260de60007f000000000000000000000000000000000000000000000000000000000000000063ffffffff1663ffffffff16815260200190815260200160002060008673ffffffffffffffffffffffffffffffffffffffff1673ffffffffffffffffffffffffffffffffffffffff1681526020019081526020016000206001015461418f565b6163cc919061a026565b60de60007f000000000000000000000000000000000000000000000000000000000000000063ffffffff1663ffffffff16815260200190815260200160002060008573ffffffffffffffffffffffffffffffffffffffff1673ffffffffffffffffffffffffffffffffffffffff16815260200190815260200160002060040181905550505050565b600061645e617a8f565b9050600061646d828686617b36565b9050600083111561650b57606860009054906101000a900473ffffffffffffffffffffffffffffffffffffffff1673ffffffffffffffffffffffffffffffffffffffff1663a5703c8e848484896040518563ffffffff1660e01b81526004016164d8939291906199c7565b6000604051808303818588803b1580156164f157600080fd5b505af1158015616505573d6000803e3d6000fd5b50505050505b5050505050565b80609960008463ffffffff1663ffffffff16815260200190815260200160002081905550808263ffffffff167f97fd51fef1f80c854cbd0150c248e8b2ac4ecdc97cc05e742b5f61c9f4dc645860405160405180910390a35050565b80606860006101000a81548173ffffffffffffffffffffffffffffffffffffffff021916908373ffffffffffffffffffffffffffffffffffffffff1602179055508073ffffffffffffffffffffffffffffffffffffffff167fb87f5a0bface22cde699143559fb99f990ae54eea236995fc54178af91af859f60405160405180910390a250565b6165fe8161594b565b6000611b59905061232860de60007f000000000000000000000000000000000000000000000000000000000000000063ffffffff1663ffffffff16815260200190815260200160002060008473ffffffffffffffffffffffffffffffffffffffff1673ffffffffffffffffffffffffffffffffffffffff1681526020019081526020016000206003015411156166985761213590506167bc565b611f4060de60007f000000000000000000000000000000000000000000000000000000000000000063ffffffff1663ffffffff16815260200190815260200160002060008473ffffffffffffffffffffffffffffffffffffffff1673ffffffffffffffffffffffffffffffffffffffff16815260200190815260200160002060030154111561672b57611f4190506167bb565b611b5860de60007f000000000000000000000000000000000000000000000000000000000000000063ffffffff1663ffffffff16815260200190815260200160002060008473ffffffffffffffffffffffffffffffffffffffff1673ffffffffffffffffffffffffffffffffffffffff1681526020019081526020016000206003015411156167ba57611d4d90505b5b5b8060de60007f000000000000000000000000000000000000000000000000000000000000000063ffffffff1663ffffffff16815260200190815260200160002060008473ffffffffffffffffffffffffffffffffffffffff1673ffffffffffffffffffffffffffffffffffffffff168152602001908152602001600020600401541115616a0a5760005b60e460009054906101000a90046fffffffffffffffffffffffffffffffff166fffffffffffffffffffffffffffffffff16816fffffffffffffffffffffffffffffffff1611616a08578160de60007f000000000000000000000000000000000000000000000000000000000000000063ffffffff1663ffffffff16815260200190815260200160002060008573ffffffffffffffffffffffffffffffffffffffff1673ffffffffffffffffffffffffffffffffffffffff16815260200190815260200160002060040154101561691b57616a08565b61697f8360e16000846fffffffffffffffffffffffffffffffff166fffffffffffffffffffffffffffffffff16815260200190815260200160002060000160009054906101000a900473ffffffffffffffffffffffffffffffffffffffff16617bdd565b6169e38360e16000846fffffffffffffffffffffffffffffffff166fffffffffffffffffffffffffffffffff16815260200190815260200160002060000160009054906101000a900473ffffffffffffffffffffffffffffffffffffffff1661848f565b6169ec8361594b565b6169f583615ed9565b8080616a009061a543565b915050616846565b505b5050565b600033905090565b60606000600267ffffffffffffffff811115616a5b577f4e487b7100000000000000000000000000000000000000000000000000000000600052604160045260246000fd5b604051908082528060200260200182016040528015616a895781602001602082028036833780820191505090505b5090508281600081518110616ac7577f4e487b7100000000000000000000000000000000000000000000000000000000600052603260045260246000fd5b602002602001019073ffffffffffffffffffffffffffffffffffffffff16908173ffffffffffffffffffffffffffffffffffffffff168152505060d260009054906101000a900473ffffffffffffffffffffffffffffffffffffffff1681600181518110616b5e577f4e487b7100000000000000000000000000000000000000000000000000000000600052603260045260246000fd5b602002602001019073ffffffffffffffffffffffffffffffffffffffff16908173ffffffffffffffffffffffffffffffffffffffff16815250506000616bd560d5546001616bac919061a1c8565b60cb60009054906101000a900473ffffffffffffffffffffffffffffffffffffffff1684617047565b90506000811115616bea578192505050617042565b600367ffffffffffffffff811115616c2b577f4e487b7100000000000000000000000000000000000000000000000000000000600052604160045260246000fd5b604051908082528060200260200182016040528015616c595781602001602082028036833780820191505090505b5091508382600081518110616c97577f4e487b7100000000000000000000000000000000000000000000000000000000600052603260045260246000fd5b602002602001019073ffffffffffffffffffffffffffffffffffffffff16908173ffffffffffffffffffffffffffffffffffffffff168152505060d360009054906101000a900473ffffffffffffffffffffffffffffffffffffffff1682600181518110616d2e577f4e487b7100000000000000000000000000000000000000000000000000000000600052603260045260246000fd5b602002602001019073ffffffffffffffffffffffffffffffffffffffff16908173ffffffffffffffffffffffffffffffffffffffff168152505060d260009054906101000a900473ffffffffffffffffffffffffffffffffffffffff1682600281518110616dc5577f4e487b7100000000000000000000000000000000000000000000000000000000600052603260045260246000fd5b602002602001019073ffffffffffffffffffffffffffffffffffffffff16908173ffffffffffffffffffffffffffffffffffffffff1681525050616e3a60d5546001616e11919061a1c8565b60cb60009054906101000a900473ffffffffffffffffffffffffffffffffffffffff1684617047565b90506000811115616e4f578192505050617042565b60d460009054906101000a900473ffffffffffffffffffffffffffffffffffffffff1682600181518110616eac577f4e487b7100000000000000000000000000000000000000000000000000000000600052603260045260246000fd5b602002602001019073ffffffffffffffffffffffffffffffffffffffff16908173ffffffffffffffffffffffffffffffffffffffff168152505060d260009054906101000a900473ffffffffffffffffffffffffffffffffffffffff1682600281518110616f43577f4e487b7100000000000000000000000000000000000000000000000000000000600052603260045260246000fd5b602002602001019073ffffffffffffffffffffffffffffffffffffffff16908173ffffffffffffffffffffffffffffffffffffffff1681525050616fb860d5546001616f8f919061a1c8565b60cb60009054906101000a900473ffffffffffffffffffffffffffffffffffffffff1684617047565b90506000811115616fcd578192505050617042565b600067ffffffffffffffff81111561700e577f4e487b7100000000000000000000000000000000000000000000000000000000600052604160045260246000fd5b60405190808252806020026020018201604052801561703c5781602001602082028036833780820191505090505b50925050505b919050565b6000808373ffffffffffffffffffffffffffffffffffffffff1663d06ca61f86856040518363ffffffff1660e01b8152600401617085929190619dc0565b60006040518083038186803b15801561709d57600080fd5b505afa1580156170b1573d6000803e3d6000fd5b505050506040513d6000823e3d601f19601f820116820180604052508101906170da9190618d64565b905080600182516170eb919061a222565b81518110617122577f4e487b7100000000000000000000000000000000000000000000000000000000600052603260045260246000fd5b60200260200101519150509392505050565b60e16000826fffffffffffffffffffffffffffffffff166fffffffffffffffffffffffffffffffff16815260200190815260200160002060000160149054906101000a900460ff16156172105761718a81611490565b60e16000836fffffffffffffffffffffffffffffffff166fffffffffffffffffffffffffffffffff168152602001908152602001600020600501819055506171d181613453565b60e16000836fffffffffffffffffffffffffffffffff166fffffffffffffffffffffffffffffffff168152602001908152602001600020600601819055505b50565b60de600060cf60009054906101000a900463ffffffff1663ffffffff1663ffffffff1681526020019081526020016000206000836000015173ffffffffffffffffffffffffffffffffffffffff1673ffffffffffffffffffffffffffffffffffffffff16815260200190815260200160002060000160149054906101000a900460ff16156173b3578160de60008363ffffffff1663ffffffff1681526020019081526020016000206000846000015173ffffffffffffffffffffffffffffffffffffffff1673ffffffffffffffffffffffffffffffffffffffff16815260200190815260200160002060008201518160000160006101000a81548173ffffffffffffffffffffffffffffffffffffffff021916908373ffffffffffffffffffffffffffffffffffffffff16021790555060208201518160000160146101000a81548160ff02191690831515021790555060408201518160010155606082015181600201556080820151816003015560a0820151816004015560c08201518160050160006101000a81548160ff021916908315150217905550905050617593565b60e582600001519080600181540180825580915050600190039060005260206000200160009091909190916101000a81548173ffffffffffffffffffffffffffffffffffffffff021916908373ffffffffffffffffffffffffffffffffffffffff1602179055506040518060e00160405280836000015173ffffffffffffffffffffffffffffffffffffffff1681526020016001151581526020018360400151815260200183606001518152602001836080015181526020018360a0015181526020018360c00151151581525060de60008363ffffffff1663ffffffff1681526020019081526020016000206000846000015173ffffffffffffffffffffffffffffffffffffffff1673ffffffffffffffffffffffffffffffffffffffff16815260200190815260200160002060008201518160000160006101000a81548173ffffffffffffffffffffffffffffffffffffffff021916908373ffffffffffffffffffffffffffffffffffffffff16021790555060208201518160000160146101000a81548160ff02191690831515021790555060408201518160010155606082015181600201556080820151816003015560a0820151816004015560c08201518160050160006101000a81548160ff0219169083151502179055509050505b6175a08260000151615ed9565b7ff55d29b60dedfbb54c4e0ca2dfb26f4db2a0e1319086f002722f41ce851365b3826000015160de60007f000000000000000000000000000000000000000000000000000000000000000063ffffffff1663ffffffff1681526020019081526020016000206000856000015173ffffffffffffffffffffffffffffffffffffffff1673ffffffffffffffffffffffffffffffffffffffff1681526020019081526020016000206002015460de60007f000000000000000000000000000000000000000000000000000000000000000063ffffffff1663ffffffff1681526020019081526020016000206000866000015173ffffffffffffffffffffffffffffffffffffffff1673ffffffffffffffffffffffffffffffffffffffff168152602001908152602001600020600101546040516176dd93929190619990565b60405180910390a15050565b600060026001541415617731576040517f08c379a000000000000000000000000000000000000000000000000000000000815260040161772890619d25565b60405180910390fd5b60026001819055506000805b60e460009054906101000a90046fffffffffffffffffffffffffffffffff166fffffffffffffffffffffffffffffffff16816fffffffffffffffffffffffffffffffff16116178ab5760008460e16000846fffffffffffffffffffffffffffffffff166fffffffffffffffffffffffffffffffff16815260200190815260200160002060000160009054906101000a900473ffffffffffffffffffffffffffffffffffffffff1660cc6040516020016177f8939291906196d9565b60405160208183030381529060405280519060200120905061788a60e16000846fffffffffffffffffffffffffffffffff166fffffffffffffffffffffffffffffffff16815260200190815260200160002060000160009054906101000a900473ffffffffffffffffffffffffffffffffffffffff1660df60008481526020019081526020016000206002015461566b565b836178959190619fd0565b92505080806178a39061a543565b91505061773d565b508091505060018081905550919050565b600060026001541415617904576040517f08c379a00000000000000000000000000000000000000000000000000000000081526004016178fb90619d25565b60405180910390fd5b60026001819055506000805b60e460009054906101000a90046fffffffffffffffffffffffffffffffff166fffffffffffffffffffffffffffffffff16816fffffffffffffffffffffffffffffffff1611617a7e5760008460e16000846fffffffffffffffffffffffffffffffff166fffffffffffffffffffffffffffffffff16815260200190815260200160002060000160009054906101000a900473ffffffffffffffffffffffffffffffffffffffff1660cc6040516020016179cb939291906196d9565b604051602081830303815290604052805190602001209050617a5d60e16000846fffffffffffffffffffffffffffffffff166fffffffffffffffffffffffffffffffff16815260200190815260200160002060000160009054906101000a900473ffffffffffffffffffffffffffffffffffffffff1660e060008481526020019081526020016000206002015461566b565b83617a689190619fd0565b9250508080617a769061a543565b915050617910565b508091505060018081905550919050565b6000606760009054906101000a900473ffffffffffffffffffffffffffffffffffffffff1673ffffffffffffffffffffffffffffffffffffffff1663ce11e6ab6040518163ffffffff1660e01b815260040160206040518083038186803b158015617af957600080fd5b505afa158015617b0d573d6000803e3d6000fd5b505050506040513d601f19601f82011682018060405250810190617b319190618e65565b905090565b600080617b4284618875565b90508473ffffffffffffffffffffffffffffffffffffffff1663fa31de018583866040518463ffffffff1660e01b8152600401617b8193929190619e0b565b602060405180830381600087803b158015617b9b57600080fd5b505af1158015617baf573d6000803e3d6000fd5b505050506040513d601f19601f82011682018060405250810190617bd39190618fc1565b9150509392505050565b600061070890506000838360cc604051602001617bfc939291906196d9565b604051602081830303815290604052805190602001209050600082617c7e60e260008773ffffffffffffffffffffffffffffffffffffffff1673ffffffffffffffffffffffffffffffffffffffff16815260200190815260200160002060000160019054906101000a90046fffffffffffffffffffffffffffffffff16611490565b617c88919061a1c8565b9050600083617cf460e260008873ffffffffffffffffffffffffffffffffffffffff1673ffffffffffffffffffffffffffffffffffffffff16815260200190815260200160002060000160019054906101000a90046fffffffffffffffffffffffffffffffff16613453565b617cfe919061a1c8565b9050600061271060de600060cf60009054906101000a900463ffffffff1663ffffffff1663ffffffff16815260200190815260200160002060008973ffffffffffffffffffffffffffffffffffffffff1673ffffffffffffffffffffffffffffffffffffffff16815260200190815260200160002060020154600260cd54617d86919061a1c8565b617d90919061a1c8565b617d9a919061a026565b905060008054906101000a900473ffffffffffffffffffffffffffffffffffffffff1673ffffffffffffffffffffffffffffffffffffffff1663313ce5676040518163ffffffff1660e01b815260040160206040518083038186803b158015617e0257600080fd5b505afa158015617e16573d6000803e3d6000fd5b505050506040513d601f19601f82011682018060405250810190617e3a919061911b565b600a617e46919061a0aa565b60e060008681526020019081526020016000206002015483617e68919061a1c8565b617e72919061a026565b60e060008681526020019081526020016000206002016000828254617e979190619fd0565b9250508190555060008054906101000a900473ffffffffffffffffffffffffffffffffffffffff1673ffffffffffffffffffffffffffffffffffffffff1663313ce5676040518163ffffffff1660e01b815260040160206040518083038186803b158015617f0457600080fd5b505afa158015617f18573d6000803e3d6000fd5b505050506040513d601f19601f82011682018060405250810190617f3c919061911b565b600a617f48919061a0aa565b60df60008681526020019081526020016000206002015484617f6a919061a1c8565b617f74919061a026565b60df60008681526020019081526020016000206002016000828254617f999190619fd0565b925050819055508060008054906101000a900473ffffffffffffffffffffffffffffffffffffffff1673ffffffffffffffffffffffffffffffffffffffff1663313ce5676040518163ffffffff1660e01b815260040160206040518083038186803b15801561800757600080fd5b505afa15801561801b573d6000803e3d6000fd5b505050506040513d601f19601f8201168201806040525081019061803f919061911b565b600a61804b919061a0aa565b60de600060cf60009054906101000a900463ffffffff1663ffffffff1663ffffffff16815260200190815260200160002060008a73ffffffffffffffffffffffffffffffffffffffff1673ffffffffffffffffffffffffffffffffffffffff16815260200190815260200160002060020154846180c8919061a1c8565b6180d2919061a026565b6180dc919061a222565b60de600060cf60009054906101000a900463ffffffff1663ffffffff1663ffffffff16815260200190815260200160002060008973ffffffffffffffffffffffffffffffffffffffff1673ffffffffffffffffffffffffffffffffffffffff168152602001908152602001600020600201600082825461815c9190619fd0565b9250508190555060008054906101000a900473ffffffffffffffffffffffffffffffffffffffff1673ffffffffffffffffffffffffffffffffffffffff1663313ce5676040518163ffffffff1660e01b815260040160206040518083038186803b1580156181c957600080fd5b505afa1580156181dd573d6000803e3d6000fd5b505050506040513d601f19601f82011682018060405250810190618201919061911b565b600a61820d919061a0aa565b60de600060cf60009054906101000a900463ffffffff1663ffffffff1663ffffffff16815260200190815260200160002060008973ffffffffffffffffffffffffffffffffffffffff1673ffffffffffffffffffffffffffffffffffffffff168152602001908152602001600020600101548461828a919061a1c8565b618294919061a026565b60de600060cf60009054906101000a900463ffffffff1663ffffffff1663ffffffff16815260200190815260200160002060008973ffffffffffffffffffffffffffffffffffffffff1673ffffffffffffffffffffffffffffffffffffffff16815260200190815260200160002060010160008282546183149190619fd0565b9250508190555060de600060cf60009054906101000a900463ffffffff1663ffffffff1663ffffffff16815260200190815260200160002060008873ffffffffffffffffffffffffffffffffffffffff1673ffffffffffffffffffffffffffffffffffffffff1681526020019081526020016000206002015461840760de600060cf60009054906101000a900463ffffffff1663ffffffff1663ffffffff16815260200190815260200160002060008a73ffffffffffffffffffffffffffffffffffffffff1673ffffffffffffffffffffffffffffffffffffffff1681526020019081526020016000206001015461418f565b618411919061a026565b60de600060cf60009054906101000a900463ffffffff1663ffffffff1663ffffffff16815260200190815260200160002060008973ffffffffffffffffffffffffffffffffffffffff1673ffffffffffffffffffffffffffffffffffffffff1681526020019081526020016000206004018190555050505050505050565b611b5960de600060cf60009054906101000a900463ffffffff1663ffffffff1663ffffffff16815260200190815260200160002060008473ffffffffffffffffffffffffffffffffffffffff1673ffffffffffffffffffffffffffffffffffffffff1681526020019081526020016000206004015411618544576040517f08c379a000000000000000000000000000000000000000000000000000000000815260040161853b90619d85565b60405180910390fd5b61854d8261594b565b6000828260cc604051602001618565939291906196d9565b604051602081830303815290604052805190602001209050600061859f8360e060008581526020019081526020016000206002015461566b565b9050600061271082600260cd546185b6919061a1c8565b6185c0919061a1c8565b6185ca919061a026565b9050600060e060008581526020019081526020016000206002018190555080826185f49190619fd0565b60de600060cf60009054906101000a900463ffffffff1663ffffffff1663ffffffff16815260200190815260200160002060008773ffffffffffffffffffffffffffffffffffffffff1673ffffffffffffffffffffffffffffffffffffffff1681526020019081526020016000206002016000828254618674919061a222565b925050819055508160de600060cf60009054906101000a900463ffffffff1663ffffffff1663ffffffff16815260200190815260200160002060008773ffffffffffffffffffffffffffffffffffffffff1673ffffffffffffffffffffffffffffffffffffffff16815260200190815260200160002060010160008282546186fc919061a222565b9250508190555060de600060cf60009054906101000a900463ffffffff1663ffffffff1663ffffffff16815260200190815260200160002060008673ffffffffffffffffffffffffffffffffffffffff1673ffffffffffffffffffffffffffffffffffffffff168152602001908152602001600020600201546187ef60de600060cf60009054906101000a900463ffffffff1663ffffffff1663ffffffff16815260200190815260200160002060008873ffffffffffffffffffffffffffffffffffffffff1673ffffffffffffffffffffffffffffffffffffffff1681526020019081526020016000206001015461418f565b6187f9919061a026565b60de600060cf60009054906101000a900463ffffffff1663ffffffff1663ffffffff16815260200190815260200160002060008773ffffffffffffffffffffffffffffffffffffffff1673ffffffffffffffffffffffffffffffffffffffff168152602001908152602001600020600401819055505050505050565b6000609960008363ffffffff1663ffffffff1681526020019081526020016000205490506000801b8114156188df576040517f08c379a00000000000000000000000000000000000000000000000000000000081526004016188d690619cc5565b60405180910390fd5b919050565b60006188f76188f284619e6e565b619e49565b9050808382526020820190508285602086028201111561891657600080fd5b60005b85811015618946578161892c8882618bd0565b845260208401935060208301925050600181019050618919565b5050509392505050565b600061896361895e84619e9a565b619e49565b90508281526020810184848401111561897b57600080fd5b61898684828561a3b3565b509392505050565b60008135905061899d8161ad6c565b92915050565b6000815190506189b28161ad6c565b92915050565b600082601f8301126189c957600080fd5b81516189d98482602086016188e4565b91505092915050565b6000813590506189f18161ad83565b92915050565b600081519050618a068161ad83565b92915050565b600081359050618a1b8161ad9a565b92915050565b60008083601f840112618a3357600080fd5b8235905067ffffffffffffffff811115618a4c57600080fd5b602083019150836001820283011115618a6457600080fd5b9250929050565b600082601f830112618a7c57600080fd5b8135618a8c848260208601618950565b91505092915050565b600081519050618aa48161adb1565b92915050565b600081519050618ab98161adc8565b92915050565b60006101008284031215618ad257600080fd5b81905092915050565b600060e08284031215618aed57600080fd5b81905092915050565b600060e08284031215618b0857600080fd5b618b1260e0619e49565b90506000618b22848285016189a3565b6000830152506020618b36848285016189f7565b6020830152506040618b4a84828501618bd0565b6040830152506060618b5e84828501618bd0565b6060830152506080618b7284828501618bd0565b60808301525060a0618b8684828501618bd0565b60a08301525060c0618b9a848285016189f7565b60c08301525092915050565b600081359050618bb58161addf565b92915050565b600081359050618bca8161adf6565b92915050565b600081519050618bdf8161adf6565b92915050565b600081359050618bf48161ae0d565b92915050565b600081519050618c098161ae0d565b92915050565b600081359050618c1e8161ae24565b92915050565b600081519050618c338161ae3b565b92915050565b600060208284031215618c4b57600080fd5b6000618c598482850161898e565b91505092915050565b60008060408385031215618c7557600080fd5b6000618c838582860161898e565b9250506020618c9485828601618bbb565b9150509250929050565b60008060008060808587031215618cb457600080fd5b6000618cc28782880161898e565b9450506020618cd387828801618bbb565b9350506040618ce48782880161898e565b9250506060618cf587828801618bbb565b91505092959194509250565b60008060008060808587031215618d1757600080fd5b6000618d258782880161898e565b9450506020618d3687828801618bbb565b9350506040618d4787828801618bbb565b9250506060618d588782880161898e565b91505092959194509250565b600060208284031215618d7657600080fd5b600082015167ffffffffffffffff811115618d9057600080fd5b618d9c848285016189b8565b91505092915050565b600060208284031215618db757600080fd5b6000618dc5848285016189e2565b91505092915050565b600060208284031215618de057600080fd5b6000618dee848285016189f7565b91505092915050565b600060208284031215618e0957600080fd5b6000618e1784828501618a0c565b91505092915050565b60008060208385031215618e3357600080fd5b600083013567ffffffffffffffff811115618e4d57600080fd5b618e5985828601618a21565b92509250509250929050565b600060208284031215618e7757600080fd5b6000618e8584828501618a95565b91505092915050565b600060208284031215618ea057600080fd5b6000618eae84828501618aaa565b91505092915050565b6000806101208385031215618ecb57600080fd5b6000618ed985828601618abf565b925050610100618eeb8582860161898e565b9150509250929050565b6000806101008385031215618f0957600080fd5b6000618f1785828601618adb565b92505060e0618f2885828601618be5565b9150509250929050565b6000806101008385031215618f4657600080fd5b6000618f5485828601618af6565b92505060e0618f6585828601618bfa565b9150509250929050565b600060208284031215618f8157600080fd5b6000618f8f84828501618ba6565b91505092915050565b600060208284031215618faa57600080fd5b6000618fb884828501618bbb565b91505092915050565b600060208284031215618fd357600080fd5b6000618fe184828501618bd0565b91505092915050565b600060208284031215618ffc57600080fd5b600061900a84828501618be5565b91505092915050565b6000806040838503121561902657600080fd5b600061903485828601618be5565b92505060206190458582860161898e565b9150509250929050565b6000806040838503121561906257600080fd5b600061907085828601618be5565b925050602061908185828601618a0c565b9150509250929050565b6000806000606084860312156190a057600080fd5b60006190ae86828701618be5565b93505060206190bf86828701618a0c565b925050604084013567ffffffffffffffff8111156190dc57600080fd5b6190e886828701618a6b565b9150509250925092565b60006020828403121561910457600080fd5b600061911284828501618c0f565b91505092915050565b60006020828403121561912d57600080fd5b600061913b84828501618c24565b91505092915050565b60006191508383619174565b60208301905092915050565b6000619168838361965b565b60608301905092915050565b61917d8161a256565b82525050565b61918c8161a256565b82525050565b6191a361919e8261a256565b61a5c5565b82525050565b60006191b482619f00565b6191be8185619f3b565b93506191c983619ecb565b8060005b838110156191fa5781516191e18882619144565b97506191ec83619f21565b9250506001810190506191cd565b5085935050505092915050565b600061921282619f0b565b61921c8185619f4c565b935061922783619edb565b8060005b8381101561925857815161923f888261915c565b975061924a83619f2e565b92505060018101905061922b565b5085935050505092915050565b61926e8161a268565b82525050565b61927d8161a274565b82525050565b600061928e82619f16565b6192988185619f5d565b93506192a881856020860161a3c2565b6192b18161a705565b840191505092915050565b6192c58161a335565b82525050565b6192d48161a359565b82525050565b600081546192e78161a4e0565b6192f18186619f7f565b9450600182166000811461930c576001811461931d57619350565b60ff19831686528186019350619350565b61932685619eeb565b60005b8381101561934857815481890152600182019150602081019050619329565b838801955050505b50505092915050565b6000619366602f83619f6e565b91506193718261a74a565b604082019050919050565b6000619389601883619f6e565b91506193948261a799565b602082019050919050565b60006193ac601d83619f6e565b91506193b78261a7c2565b602082019050919050565b60006193cf602d83619f6e565b91506193da8261a7eb565b604082019050919050565b60006193f2602683619f6e565b91506193fd8261a83a565b604082019050919050565b6000619415602983619f6e565b91506194208261a889565b604082019050919050565b6000619438602283619f6e565b91506194438261a8d8565b604082019050919050565b600061945b601c83619f6e565b91506194668261a927565b602082019050919050565b600061947e601d83619f6e565b91506194898261a950565b602082019050919050565b60006194a1601a83619f6e565b91506194ac8261a979565b602082019050919050565b60006194c4601c83619f6e565b91506194cf8261a9a2565b602082019050919050565b60006194e7602083619f6e565b91506194f28261a9cb565b602082019050919050565b600061950a600683619f6e565b91506195158261a9f4565b602082019050919050565b600061952d602083619f6e565b91506195388261aa1d565b602082019050919050565b6000619550603583619f6e565b915061955b8261aa46565b604082019050919050565b6000619573600783619f6e565b915061957e8261aa95565b602082019050919050565b6000619596602f83619f6e565b91506195a18261aabe565b604082019050919050565b60006195b9601783619f6e565b91506195c48261ab0d565b602082019050919050565b60006195dc601f83619f6e565b91506195e78261ab36565b602082019050919050565b60006195ff602083619f6e565b915061960a8261ab5f565b602082019050919050565b6000619622600d83619f6e565b915061962d8261ab88565b602082019050919050565b6000619645602783619f6e565b91506196508261abb1565b604082019050919050565b6060820160008201516196716000850182619174565b50602082015161968460208501826196ac565b50604082015161969760408501826196ac565b50505050565b6196a68161a29a565b82525050565b6196b58161a2d6565b82525050565b6196c48161a2d6565b82525050565b6196d38161a2e0565b82525050565b60006196e58286619192565b6014820191506196f58285619192565b60148201915061970582846192da565b9150819050949350505050565b60006020820190506197276000830184619183565b92915050565b600061010082019050619743600083018b619183565b619750602083018a619183565b61975d6040830189619265565b61976a60608301886196bb565b6197776080830187619183565b61978460a08301866196bb565b61979160c0830185619183565b61979e60e08301846196bb565b9998505050505050505050565b600060a0820190506197c06000830188619183565b6197cd6020830187619183565b6197da6040830186619265565b6197e760608301856196bb565b6197f460808301846196bb565b9695505050505050565b60006060820190506198136000830186619183565b6198206020830185619183565b61982d60408301846196bb565b949350505050565b600060808201905061984a6000830187619183565b6198576020830186619183565b61986460408301856196bb565b61987160608301846196bb565b95945050505050565b600060e08201905061988f600083018a619183565b61989c6020830189619265565b6198a960408301886196bb565b6198b660608301876196bb565b6198c360808301866196bb565b6198d060a08301856196bb565b6198dd60c0830184619265565b98975050505050505050565b6000610100820190506198ff600083018b619183565b61990c602083018a619265565b61991960408301896196bb565b61992660608301886196bb565b61993360808301876196bb565b61994060a08301866196bb565b61994d60c08301856196bb565b61995a60e08301846196bb565b9998505050505050505050565b600060408201905061997c6000830185619183565b61998960208301846196bb565b9392505050565b60006060820190506199a56000830186619183565b6199b260208301856196bb565b6199bf60408301846196bb565b949350505050565b60006060820190506199dc6000830186619183565b6199e960208301856196bb565b6199f660408301846196ca565b949350505050565b60006020820190508181036000830152619a188184619207565b905092915050565b6000602082019050619a356000830184619265565b92915050565b6000604082019050619a506000830185619265565b8181036020830152619a628184619283565b90509392505050565b6000604082019050619a806000830185619265565b619a8d602083018461969d565b9392505050565b6000602082019050619aa96000830184619274565b92915050565b6000602082019050619ac460008301846192bc565b92915050565b6000602082019050619adf60008301846192cb565b92915050565b60006020820190508181036000830152619afe81619359565b9050919050565b60006020820190508181036000830152619b1e8161937c565b9050919050565b60006020820190508181036000830152619b3e8161939f565b9050919050565b60006020820190508181036000830152619b5e816193c2565b9050919050565b60006020820190508181036000830152619b7e816193e5565b9050919050565b60006020820190508181036000830152619b9e81619408565b9050919050565b60006020820190508181036000830152619bbe8161942b565b9050919050565b60006020820190508181036000830152619bde8161944e565b9050919050565b60006020820190508181036000830152619bfe81619471565b9050919050565b60006020820190508181036000830152619c1e81619494565b9050919050565b60006020820190508181036000830152619c3e816194b7565b9050919050565b60006020820190508181036000830152619c5e816194da565b9050919050565b60006020820190508181036000830152619c7e816194fd565b9050919050565b60006020820190508181036000830152619c9e81619520565b9050919050565b60006020820190508181036000830152619cbe81619543565b9050919050565b60006020820190508181036000830152619cde81619566565b9050919050565b60006020820190508181036000830152619cfe81619589565b9050919050565b60006020820190508181036000830152619d1e816195ac565b9050919050565b60006020820190508181036000830152619d3e816195cf565b9050919050565b60006020820190508181036000830152619d5e816195f2565b9050919050565b60006020820190508181036000830152619d7e81619615565b9050919050565b60006020820190508181036000830152619d9e81619638565b9050919050565b6000602082019050619dba60008301846196bb565b92915050565b6000604082019050619dd560008301856196bb565b8181036020830152619de781846191a9565b90509392505050565b6000602082019050619e0560008301846196ca565b92915050565b6000606082019050619e2060008301866196ca565b619e2d6020830185619274565b8181036040830152619e3f8184619283565b9050949350505050565b6000619e53619e64565b9050619e5f828261a512565b919050565b6000604051905090565b600067ffffffffffffffff821115619e8957619e8861a676565b5b602082029050602081019050919050565b600067ffffffffffffffff821115619eb557619eb461a676565b5b619ebe8261a705565b9050602081019050919050565b6000819050602082019050919050565b6000819050602082019050919050565b60008190508160005260206000209050919050565b600081519050919050565b600081519050919050565b600081519050919050565b6000602082019050919050565b6000602082019050919050565b600082825260208201905092915050565b600082825260208201905092915050565b600082825260208201905092915050565b600082825260208201905092915050565b600081905092915050565b6000619f958261a29a565b9150619fa08361a29a565b9250826fffffffffffffffffffffffffffffffff03821115619fc557619fc461a5e9565b5b828201905092915050565b6000619fdb8261a2d6565b9150619fe68361a2d6565b9250827fffffffffffffffffffffffffffffffffffffffffffffffffffffffffffffffff0382111561a01b5761a01a61a5e9565b5b828201905092915050565b600061a0318261a2d6565b915061a03c8361a2d6565b92508261a04c5761a04b61a618565b5b828204905092915050565b6000808291508390505b600185111561a0a15780860481111561a07d5761a07c61a5e9565b5b600185161561a08c5780820291505b808102905061a09a8561a73d565b945061a061565b94509492505050565b600061a0b58261a2d6565b915061a0c08361a304565b925061a0ed7fffffffffffffffffffffffffffffffffffffffffffffffffffffffffffffffff848461a0f5565b905092915050565b60008261a105576001905061a1c1565b8161a113576000905061a1c1565b816001811461a129576002811461a1335761a162565b600191505061a1c1565b60ff84111561a1455761a14461a5e9565b5b8360020a91508482111561a15c5761a15b61a5e9565b5b5061a1c1565b5060208310610133831016604e8410600b841016171561a1975782820a90508381111561a1925761a19161a5e9565b5b61a1c1565b61a1a4848484600161a057565b9250905081840481111561a1bb5761a1ba61a5e9565b5b81810290505b9392505050565b600061a1d38261a2d6565b915061a1de8361a2d6565b9250817fffffffffffffffffffffffffffffffffffffffffffffffffffffffffffffffff048311821515161561a2175761a21661a5e9565b5b828202905092915050565b600061a22d8261a2d6565b915061a2388361a2d6565b92508282101561a24b5761a24a61a5e9565b5b828203905092915050565b600061a2618261a2b6565b9050919050565b60008115159050919050565b6000819050919050565b600061a2898261a256565b9050919050565b6000819050919050565b60006fffffffffffffffffffffffffffffffff82169050919050565b600073ffffffffffffffffffffffffffffffffffffffff82169050919050565b6000819050919050565b600063ffffffff82169050919050565b600067ffffffffffffffff82169050919050565b600060ff82169050919050565b600061a31c8261a37d565b9050919050565b600061a32e8261a268565b9050919050565b600061a3408261a347565b9050919050565b600061a3528261a2b6565b9050919050565b600061a3648261a36b565b9050919050565b600061a3768261a2b6565b9050919050565b600061a3888261a38f565b9050919050565b600061a39a8261a2b6565b9050919050565b600061a3ac8261a2d6565b9050919050565b82818337600083830152505050565b60005b8381101561a3e057808201518184015260208101905061a3c5565b8381111561a3ef576000848401525b50505050565b60008101600083018061a4078161a6c3565b905061a413818461acd2565b50505060008101602083018061a4288161a6d9565b905061a434818461ad49565b50505060018101604083018061a4498161a6ef565b905061a455818461ad26565b50505060028101606083018061a46a8161a6ef565b905061a476818461ad26565b50505060038101608083018061a48b8161a6ef565b905061a497818461ad26565b5050506004810160a083018061a4ac8161a6ef565b905061a4b8818461ad26565b5050506005810160c083018061a4cd8161a6d9565b905061a4d9818461acf5565b5050505050565b6000600282049050600182168061a4f857607f821691505b6020821081141561a50c5761a50b61a647565b5b50919050565b61a51b8261a705565b810181811067ffffffffffffffff8211171561a53a5761a53961a676565b5b80604052505050565b600061a54e8261a29a565b91506fffffffffffffffffffffffffffffffff82141561a5715761a57061a5e9565b5b600182019050919050565b600061a5878261a2d6565b91507fffffffffffffffffffffffffffffffffffffffffffffffffffffffffffffffff82141561a5ba5761a5b961a5e9565b5b600182019050919050565b600061a5d08261a5d7565b9050919050565b600061a5e28261a730565b9050919050565b7f4e487b7100000000000000000000000000000000000000000000000000000000600052601160045260246000fd5b7f4e487b7100000000000000000000000000000000000000000000000000000000600052601260045260246000fd5b7f4e487b7100000000000000000000000000000000000000000000000000000000600052602260045260246000fd5b7f4e487b7100000000000000000000000000000000000000000000000000000000600052604160045260246000fd5b6000819050919050565b6000819050919050565b6000819050919050565b6000813561a6d08161ad6c565b80915050919050565b6000813561a6e68161ad83565b80915050919050565b6000813561a6fc8161adf6565b80915050919050565b6000601f19601f8301169050919050565b60008160001b9050919050565b60008160a01b9050919050565b60008160601b9050919050565b60008160011c9050919050565b7f55736572206e6f7420616c6c6f77656420666f7220746869732066756e63746960008201527f6f6e2c2041646d696e206f6e6c792e0000000000000000000000000000000000602082015250565b7f416d6f756e7420746f6f206c6f7720666f722072657061790000000000000000600082015250565b7f416d6f756e7420746f6f206c6f7720666f7220636f6c616c746572616c000000600082015250565b7f70617468206d75737420626520646566696e697469766520616e64206772656160008201527f746572207468616e207a65726f00000000000000000000000000000000000000602082015250565b7f4f776e61626c653a206e6577206f776e657220697320746865207a65726f206160008201527f6464726573730000000000000000000000000000000000000000000000000000602082015250565b7f4e6f7420656e6f75676820616d6f756e7420746f206b69636b7374617274206160008201527f206e657720706f6f6c0000000000000000000000000000000000000000000000602082015250565b7f7472616e7366657246726f6d206661696c65642066726f6d20636f6e7472616360008201527f742e000000000000000000000000000000000000000000000000000000000000602082015250565b7f6d61726b6574206e6f74206f70656e206f7220617661696c61626c6500000000600082015250565b7f416d6f756e7420746f6f206c6f7720666f72207769746864726177616c000000600082015250565b7f416d6f756e7420746f6f206c6f7720666f72207374616b696e67000000000000600082015250565b7f416d6f756e7420746f6f206c6f7720666f7220626f72726f77696e6700000000600082015250565b7f4f776e61626c653a2063616c6c6572206973206e6f7420746865206f776e6572600082015250565b7f21696e626f780000000000000000000000000000000000000000000000000000600082015250565b7f6d61726b657420616c7265616479206f70656e206f7220617661696c61626c65600082015250565b7f416d6f756e742067726561746572207468616e20616c6c6f77656420616d6f7560008201527f6e7420666f72207573657220746f20626f72726f770000000000000000000000602082015250565b7f21726f7574657200000000000000000000000000000000000000000000000000600082015250565b7f4e6f7420616c6c6f77656420746f20706572666f726d2061207472616e73616360008201527f74696f6e207269676874206e6f772e0000000000000000000000000000000000602082015250565b7f7573657220646f6573206e6f7420657869737420796574000000000000000000600082015250565b7f5265656e7472616e637947756172643a207265656e7472616e742063616c6c00600082015250565b7f4e6f7420656e6f756768206c697175696469747920746f207769746864726177600082015250565b7f55736572206e6f742066756e6400000000000000000000000000000000000000600082015250565b7f4c69717569646174696f6e206e6f7420706f737369626c6520666f722073616660008201527f6520757365727300000000000000000000000000000000000000000000000000602082015250565b600060ff61ac0d8461a716565b9350801983169250808416831791505092915050565b600074ff000000000000000000000000000000000000000061ac448461a723565b9350801983169250808416831791505092915050565b600073ffffffffffffffffffffffffffffffffffffffff61ac7a8461a716565b9350801983169250808416831791505092915050565b60007fffffffffffffffffffffffffffffffffffffffffffffffffffffffffffffffff61acbc8461a716565b9350801983169250808416831791505092915050565b61acdb8261a311565b61acee61ace78261a6a5565b835461ac5a565b8255505050565b61acfe8261a323565b61ad1161ad0a8261a6af565b835461ac00565b8255505050565b61ad22828261a3f5565b5050565b61ad2f8261a3a1565b61ad4261ad3b8261a6b9565b835461ac90565b8255505050565b61ad528261a323565b61ad6561ad5e8261a6af565b835461ac23565b8255505050565b61ad758161a256565b811461ad8057600080fd5b50565b61ad8c8161a268565b811461ad9757600080fd5b50565b61ada38161a274565b811461adae57600080fd5b50565b61adba8161a27e565b811461adc557600080fd5b50565b61add18161a290565b811461addc57600080fd5b50565b61ade88161a29a565b811461adf357600080fd5b50565b61adff8161a2d6565b811461ae0a57600080fd5b50565b61ae168161a2e0565b811461ae2157600080fd5b50565b61ae2d8161a2f0565b811461ae3857600080fd5b50565b61ae448161a304565b811461ae4f57600080fd5b5056fea2646970667358221220c666e2f635bee4dd8a638e5957a59c31a1153e4f0ea5d17968a47de00180db0464736f6c63430008040033",
  "linkReferences": {},
  "deployedLinkReferences": {}
}