{
  "_format": "hh-sol-artifact-1",
  "contractName": "HeadenFinanceChild",
  "sourceName": "contracts/headenFInanceParent.sol",
  "abi": [
    {
      "inputs": [
        {
          "internalType": "uint256",
          "name": "_interval",
          "type": "uint256"
        },
        {
          "internalType": "address",
          "name": "_multichainRouter",
          "type": "address"
        },
        {
          "internalType": "string",
          "name": "_hashSalt",
          "type": "string"
        },
        {
          "internalType": "address",
          "name": "_swapRouter",
          "type": "address"
        },
        {
          "internalType": "address",
          "name": "_usdc",
          "type": "address"
        },
        {
          "internalType": "address",
          "name": "_dai",
          "type": "address"
        },
        {
          "internalType": "address",
          "name": "_matic",
          "type": "address"
        },
        {
          "components": [
            {
              "internalType": "address",
              "name": "_abacusManager",
              "type": "address"
            },
            {
              "internalType": "address",
              "name": "_abacusPay",
              "type": "address"
            }
          ],
          "internalType": "struct HeadenFinanceChild.Abacus",
          "name": "_abacus",
          "type": "tuple"
        },
        {
          "components": [
            {
              "internalType": "address",
              "name": "_address",
              "type": "address"
            },
            {
              "internalType": "uint256",
              "name": "_chainId",
              "type": "uint256"
            },
            {
              "internalType": "uint32",
              "name": "_hlId",
              "type": "uint32"
            },
            {
              "internalType": "bool",
              "name": "_exists",
              "type": "bool"
            }
          ],
          "internalType": "struct HeadenFinanceChild.Chain",
          "name": "_parent",
          "type": "tuple"
        },
        {
          "internalType": "uint256",
          "name": "_chainId",
          "type": "uint256"
        },
        {
          "components": [
            {
              "internalType": "uint64",
              "name": "supplyKink",
              "type": "uint64"
            },
            {
              "internalType": "uint64",
              "name": "supplyPerYearInterestRateSlopeLow",
              "type": "uint64"
            },
            {
              "internalType": "uint64",
              "name": "supplyPerYearInterestRateSlopeHigh",
              "type": "uint64"
            },
            {
              "internalType": "uint64",
              "name": "supplyPerYearInterestRateBase",
              "type": "uint64"
            },
            {
              "internalType": "uint64",
              "name": "borrowKink",
              "type": "uint64"
            },
            {
              "internalType": "uint64",
              "name": "borrowPerYearInterestRateSlopeLow",
              "type": "uint64"
            },
            {
              "internalType": "uint64",
              "name": "borrowPerYearInterestRateSlopeHigh",
              "type": "uint64"
            },
            {
              "internalType": "uint64",
              "name": "borrowPerYearInterestRateBase",
              "type": "uint64"
            }
          ],
          "internalType": "struct HeadenUtils.Configuration",
          "name": "config",
          "type": "tuple"
        }
      ],
      "stateMutability": "nonpayable",
      "type": "constructor"
    },
    {
      "anonymous": false,
      "inputs": [
        {
          "indexed": true,
          "internalType": "address",
          "name": "abacusConnectionManager",
          "type": "address"
        }
      ],
      "name": "AbacusConnectionManagerSet",
      "type": "event"
    },
    {
      "anonymous": false,
      "inputs": [
        {
          "indexed": false,
          "internalType": "uint256",
          "name": "_amount",
          "type": "uint256"
        },
        {
          "indexed": false,
          "internalType": "address",
          "name": "tokenAddress",
          "type": "address"
        }
      ],
      "name": "Borrowed",
      "type": "event"
    },
    {
      "anonymous": false,
      "inputs": [],
      "name": "FullChainSyncRequired",
      "type": "event"
    },
    {
      "anonymous": false,
      "inputs": [
        {
          "indexed": false,
          "internalType": "uint8",
          "name": "version",
          "type": "uint8"
        }
      ],
      "name": "Initialized",
      "type": "event"
    },
    {
      "anonymous": false,
      "inputs": [
        {
          "indexed": true,
          "internalType": "address",
          "name": "interchainGasPaymaster",
          "type": "address"
        }
      ],
      "name": "InterchainGasPaymasterSet",
      "type": "event"
    },
    {
      "anonymous": false,
      "inputs": [
        {
          "indexed": true,
          "internalType": "address",
          "name": "previousOwner",
          "type": "address"
        },
        {
          "indexed": true,
          "internalType": "address",
          "name": "newOwner",
          "type": "address"
        }
      ],
      "name": "OwnershipTransferred",
      "type": "event"
    },
    {
      "anonymous": false,
      "inputs": [
        {
          "indexed": true,
          "internalType": "uint32",
          "name": "domain",
          "type": "uint32"
        },
        {
          "indexed": true,
          "internalType": "bytes32",
          "name": "router",
          "type": "bytes32"
        }
      ],
      "name": "RemoteRouterEnrolled",
      "type": "event"
    },
    {
      "anonymous": false,
      "inputs": [
        {
          "indexed": false,
          "internalType": "uint256",
          "name": "_amount",
          "type": "uint256"
        },
        {
          "indexed": false,
          "internalType": "address",
          "name": "tokenAddress",
          "type": "address"
        }
      ],
      "name": "Repayed",
      "type": "event"
    },
    {
      "anonymous": false,
      "inputs": [
        {
          "indexed": false,
          "internalType": "uint256",
          "name": "_amount",
          "type": "uint256"
        },
        {
          "indexed": false,
          "internalType": "address",
          "name": "tokenAddress",
          "type": "address"
        }
      ],
      "name": "Staked",
      "type": "event"
    },
    {
      "anonymous": false,
      "inputs": [
        {
          "components": [
            {
              "internalType": "address",
              "name": "userAddress",
              "type": "address"
            },
            {
              "internalType": "bool",
              "name": "available",
              "type": "bool"
            },
            {
              "internalType": "uint256",
              "name": "totalAmountBorrowed",
              "type": "uint256"
            },
            {
              "internalType": "uint256",
              "name": "totalAmountStaked",
              "type": "uint256"
            },
            {
              "internalType": "uint256",
              "name": "ltv",
              "type": "uint256"
            },
            {
              "internalType": "bool",
              "name": "lock",
              "type": "bool"
            },
            {
              "internalType": "uint256",
              "name": "lastAPRUpdated",
              "type": "uint256"
            }
          ],
          "indexed": false,
          "internalType": "struct HeadenFinanceChild.User",
          "name": "user",
          "type": "tuple"
        }
      ],
      "name": "UpdateChildChains",
      "type": "event"
    },
    {
      "anonymous": false,
      "inputs": [
        {
          "indexed": false,
          "internalType": "uint256",
          "name": "_amount",
          "type": "uint256"
        },
        {
          "indexed": false,
          "internalType": "address",
          "name": "tokenAddress",
          "type": "address"
        }
      ],
      "name": "Withdrawn",
      "type": "event"
    },
    {
      "inputs": [],
      "name": "SECONDS_PER_YEAR",
      "outputs": [
        {
          "internalType": "uint256",
          "name": "",
          "type": "uint256"
        }
      ],
      "stateMutability": "view",
      "type": "function"
    },
    {
      "inputs": [],
      "name": "abacusConnectionManager",
      "outputs": [
        {
          "internalType": "contract IAbacusConnectionManager",
          "name": "",
          "type": "address"
        }
      ],
      "stateMutability": "view",
      "type": "function"
    },
    {
      "inputs": [
        {
          "components": [
            {
              "internalType": "address",
              "name": "_address",
              "type": "address"
            },
            {
              "internalType": "uint256",
              "name": "_chainId",
              "type": "uint256"
            },
            {
              "internalType": "uint32",
              "name": "_hlId",
              "type": "uint32"
            },
            {
              "internalType": "bool",
              "name": "_exists",
              "type": "bool"
            }
          ],
          "internalType": "struct HeadenFinanceChild.Chain",
          "name": "_child",
          "type": "tuple"
        }
      ],
      "name": "addChildChain",
      "outputs": [],
      "stateMutability": "nonpayable",
      "type": "function"
    },
    {
      "inputs": [
        {
          "internalType": "uint128",
          "name": "_id",
          "type": "uint128"
        }
      ],
      "name": "borrowInterestRates",
      "outputs": [
        {
          "internalType": "uint256",
          "name": "",
          "type": "uint256"
        }
      ],
      "stateMutability": "view",
      "type": "function"
    },
    {
      "inputs": [],
      "name": "borrowKink",
      "outputs": [
        {
          "internalType": "uint256",
          "name": "",
          "type": "uint256"
        }
      ],
      "stateMutability": "view",
      "type": "function"
    },
    {
      "inputs": [],
      "name": "borrowPerSecondInterestRateBase",
      "outputs": [
        {
          "internalType": "uint256",
          "name": "",
          "type": "uint256"
        }
      ],
      "stateMutability": "view",
      "type": "function"
    },
    {
      "inputs": [],
      "name": "borrowPerSecondInterestRateSlopeHigh",
      "outputs": [
        {
          "internalType": "uint256",
          "name": "",
          "type": "uint256"
        }
      ],
      "stateMutability": "view",
      "type": "function"
    },
    {
      "inputs": [],
      "name": "borrowPerSecondInterestRateSlopeLow",
      "outputs": [
        {
          "internalType": "uint256",
          "name": "",
          "type": "uint256"
        }
      ],
      "stateMutability": "view",
      "type": "function"
    },
    {
      "inputs": [
        {
          "internalType": "address",
          "name": "_tokenAddress",
          "type": "address"
        },
        {
          "internalType": "uint256",
          "name": "_amountToBorrow",
          "type": "uint256"
        }
      ],
      "name": "borrowToken",
      "outputs": [],
      "stateMutability": "nonpayable",
      "type": "function"
    },
    {
      "inputs": [
        {
          "internalType": "address",
          "name": "_tokenAddress",
          "type": "address"
        },
        {
          "internalType": "uint256",
          "name": "_amountToBorrow",
          "type": "uint256"
        },
        {
          "internalType": "address",
          "name": "_collateralAddress",
          "type": "address"
        },
        {
          "internalType": "uint256",
          "name": "_collateralAmount",
          "type": "uint256"
        }
      ],
      "name": "borrowTokenWithCollateral",
      "outputs": [],
      "stateMutability": "nonpayable",
      "type": "function"
    },
    {
      "inputs": [],
      "name": "chainId",
      "outputs": [
        {
          "internalType": "uint256",
          "name": "",
          "type": "uint256"
        }
      ],
      "stateMutability": "view",
      "type": "function"
    },
    {
      "inputs": [
        {
          "internalType": "uint256",
          "name": "",
          "type": "uint256"
        }
      ],
      "name": "chains",
      "outputs": [
        {
          "internalType": "address",
          "name": "_address",
          "type": "address"
        },
        {
          "internalType": "uint256",
          "name": "_chainId",
          "type": "uint256"
        },
        {
          "internalType": "uint32",
          "name": "_hlId",
          "type": "uint32"
        },
        {
          "internalType": "bool",
          "name": "_exists",
          "type": "bool"
        }
      ],
      "stateMutability": "view",
      "type": "function"
    },
    {
      "inputs": [
        {
          "internalType": "bytes",
          "name": "",
          "type": "bytes"
        }
      ],
      "name": "checkUpkeep",
      "outputs": [
        {
          "internalType": "bool",
          "name": "upkeepNeeded",
          "type": "bool"
        },
        {
          "internalType": "bytes",
          "name": "",
          "type": "bytes"
        }
      ],
      "stateMutability": "view",
      "type": "function"
    },
    {
      "inputs": [
        {
          "internalType": "address",
          "name": "_token",
          "type": "address"
        }
      ],
      "name": "createMarket",
      "outputs": [],
      "stateMutability": "nonpayable",
      "type": "function"
    },
    {
      "inputs": [
        {
          "internalType": "address",
          "name": "_token",
          "type": "address"
        },
        {
          "internalType": "uint256",
          "name": "amount",
          "type": "uint256"
        }
      ],
      "name": "createMarketPool",
      "outputs": [],
      "stateMutability": "nonpayable",
      "type": "function"
    },
    {
      "inputs": [],
      "name": "dai",
      "outputs": [
        {
          "internalType": "address",
          "name": "",
          "type": "address"
        }
      ],
      "stateMutability": "view",
      "type": "function"
    },
    {
      "inputs": [],
      "name": "defaultId",
      "outputs": [
        {
          "internalType": "uint32",
          "name": "",
          "type": "uint32"
        }
      ],
      "stateMutability": "view",
      "type": "function"
    },
    {
      "inputs": [
        {
          "internalType": "uint32",
          "name": "_domain",
          "type": "uint32"
        },
        {
          "internalType": "bytes32",
          "name": "_router",
          "type": "bytes32"
        }
      ],
      "name": "enrollRemoteRouter",
      "outputs": [],
      "stateMutability": "nonpayable",
      "type": "function"
    },
    {
      "inputs": [],
      "name": "getRiskLevel",
      "outputs": [
        {
          "internalType": "uint256",
          "name": "",
          "type": "uint256"
        }
      ],
      "stateMutability": "view",
      "type": "function"
    },
    {
      "inputs": [
        {
          "internalType": "uint32",
          "name": "_origin",
          "type": "uint32"
        },
        {
          "internalType": "bytes32",
          "name": "_sender",
          "type": "bytes32"
        },
        {
          "internalType": "bytes",
          "name": "_message",
          "type": "bytes"
        }
      ],
      "name": "handle",
      "outputs": [],
      "stateMutability": "nonpayable",
      "type": "function"
    },
    {
      "inputs": [],
      "name": "hlParentId",
      "outputs": [
        {
          "internalType": "uint32",
          "name": "",
          "type": "uint32"
        }
      ],
      "stateMutability": "view",
      "type": "function"
    },
    {
      "inputs": [],
      "name": "interchainGasPaymaster",
      "outputs": [
        {
          "internalType": "contract IInterchainGasPaymaster",
          "name": "",
          "type": "address"
        }
      ],
      "stateMutability": "view",
      "type": "function"
    },
    {
      "inputs": [],
      "name": "interval",
      "outputs": [
        {
          "internalType": "uint256",
          "name": "",
          "type": "uint256"
        }
      ],
      "stateMutability": "view",
      "type": "function"
    },
    {
      "inputs": [],
      "name": "lastAPRUpdate",
      "outputs": [
        {
          "internalType": "uint256",
          "name": "",
          "type": "uint256"
        }
      ],
      "stateMutability": "view",
      "type": "function"
    },
    {
      "inputs": [],
      "name": "lastTimeStamp",
      "outputs": [
        {
          "internalType": "uint256",
          "name": "",
          "type": "uint256"
        }
      ],
      "stateMutability": "view",
      "type": "function"
    },
    {
      "inputs": [
        {
          "internalType": "address",
          "name": "",
          "type": "address"
        }
      ],
      "name": "marketTokens",
      "outputs": [
        {
          "internalType": "bool",
          "name": "available",
          "type": "bool"
        },
        {
          "internalType": "uint128",
          "name": "_id",
          "type": "uint128"
        }
      ],
      "stateMutability": "view",
      "type": "function"
    },
    {
      "inputs": [],
      "name": "market_pools",
      "outputs": [
        {
          "internalType": "uint128",
          "name": "",
          "type": "uint128"
        }
      ],
      "stateMutability": "view",
      "type": "function"
    },
    {
      "inputs": [
        {
          "internalType": "uint128",
          "name": "",
          "type": "uint128"
        }
      ],
      "name": "markets",
      "outputs": [
        {
          "internalType": "address",
          "name": "tokenAddress",
          "type": "address"
        },
        {
          "internalType": "bool",
          "name": "available",
          "type": "bool"
        },
        {
          "internalType": "uint256",
          "name": "amountStaked",
          "type": "uint256"
        },
        {
          "internalType": "uint256",
          "name": "amountBorrowed",
          "type": "uint256"
        },
        {
          "internalType": "uint256",
          "name": "timeLastBorrowed",
          "type": "uint256"
        },
        {
          "internalType": "uint256",
          "name": "timeLastStaked",
          "type": "uint256"
        },
        {
          "internalType": "uint256",
          "name": "borrowRate",
          "type": "uint256"
        },
        {
          "internalType": "uint256",
          "name": "supplyRate",
          "type": "uint256"
        }
      ],
      "stateMutability": "view",
      "type": "function"
    },
    {
      "inputs": [],
      "name": "matic",
      "outputs": [
        {
          "internalType": "address",
          "name": "",
          "type": "address"
        }
      ],
      "stateMutability": "view",
      "type": "function"
    },
    {
      "inputs": [],
      "name": "maxLTV",
      "outputs": [
        {
          "internalType": "uint256",
          "name": "",
          "type": "uint256"
        }
      ],
      "stateMutability": "view",
      "type": "function"
    },
    {
      "inputs": [],
      "name": "multichainRouter",
      "outputs": [
        {
          "internalType": "address",
          "name": "",
          "type": "address"
        }
      ],
      "stateMutability": "view",
      "type": "function"
    },
    {
      "inputs": [],
      "name": "owner",
      "outputs": [
        {
          "internalType": "address",
          "name": "",
          "type": "address"
        }
      ],
      "stateMutability": "view",
      "type": "function"
    },
    {
      "inputs": [],
      "name": "parentAddress",
      "outputs": [
        {
          "internalType": "address",
          "name": "",
          "type": "address"
        }
      ],
      "stateMutability": "view",
      "type": "function"
    },
    {
      "inputs": [],
      "name": "parentChainId",
      "outputs": [
        {
          "internalType": "uint256",
          "name": "",
          "type": "uint256"
        }
      ],
      "stateMutability": "view",
      "type": "function"
    },
    {
      "inputs": [
        {
          "internalType": "uint256",
          "name": "amount",
          "type": "uint256"
        }
      ],
      "name": "per_amount",
      "outputs": [
        {
          "internalType": "uint256",
          "name": "",
          "type": "uint256"
        }
      ],
      "stateMutability": "pure",
      "type": "function"
    },
    {
      "inputs": [
        {
          "internalType": "bytes",
          "name": "",
          "type": "bytes"
        }
      ],
      "name": "performUpkeep",
      "outputs": [],
      "stateMutability": "nonpayable",
      "type": "function"
    },
    {
      "inputs": [
        {
          "components": [
            {
              "internalType": "address",
              "name": "user",
              "type": "address"
            },
            {
              "internalType": "uint256",
              "name": "totalStakes",
              "type": "uint256"
            },
            {
              "internalType": "uint256",
              "name": "totalBorrows",
              "type": "uint256"
            }
          ],
          "internalType": "struct HeadenFinanceChild.FullUpdateData[]",
          "name": "usersData",
          "type": "tuple[]"
        },
        {
          "internalType": "uint256",
          "name": "_chainId",
          "type": "uint256"
        }
      ],
      "name": "receiveFullUpdateFromChildChain",
      "outputs": [],
      "stateMutability": "nonpayable",
      "type": "function"
    },
    {
      "inputs": [
        {
          "internalType": "address",
          "name": "user",
          "type": "address"
        },
        {
          "internalType": "uint256",
          "name": "totalStakes",
          "type": "uint256"
        },
        {
          "internalType": "uint256",
          "name": "totalBorrows",
          "type": "uint256"
        },
        {
          "internalType": "uint256",
          "name": "_chainId",
          "type": "uint256"
        }
      ],
      "name": "receiveUpdateFromChildChain",
      "outputs": [],
      "stateMutability": "nonpayable",
      "type": "function"
    },
    {
      "inputs": [
        {
          "internalType": "address",
          "name": "",
          "type": "address"
        }
      ],
      "name": "relayers",
      "outputs": [
        {
          "internalType": "bool",
          "name": "",
          "type": "bool"
        }
      ],
      "stateMutability": "view",
      "type": "function"
    },
    {
      "inputs": [],
      "name": "renounceOwnership",
      "outputs": [],
      "stateMutability": "nonpayable",
      "type": "function"
    },
    {
      "inputs": [
        {
          "internalType": "address",
          "name": "_tokenAddress",
          "type": "address"
        },
        {
          "internalType": "uint256",
          "name": "_amount",
          "type": "uint256"
        }
      ],
      "name": "repayLoan",
      "outputs": [],
      "stateMutability": "nonpayable",
      "type": "function"
    },
    {
      "inputs": [
        {
          "internalType": "uint32",
          "name": "",
          "type": "uint32"
        }
      ],
      "name": "routers",
      "outputs": [
        {
          "internalType": "bytes32",
          "name": "",
          "type": "bytes32"
        }
      ],
      "stateMutability": "view",
      "type": "function"
    },
    {
      "inputs": [
        {
          "internalType": "address",
          "name": "_abacusConnectionManager",
          "type": "address"
        }
      ],
      "name": "setAbacusConnectionManager",
      "outputs": [],
      "stateMutability": "nonpayable",
      "type": "function"
    },
    {
      "inputs": [
        {
          "internalType": "address",
          "name": "_interchainGasPaymaster",
          "type": "address"
        }
      ],
      "name": "setInterchainGasPaymaster",
      "outputs": [],
      "stateMutability": "nonpayable",
      "type": "function"
    },
    {
      "inputs": [
        {
          "internalType": "address",
          "name": "_tokenAddress",
          "type": "address"
        },
        {
          "internalType": "uint256",
          "name": "_amountToStake",
          "type": "uint256"
        }
      ],
      "name": "stakeToken",
      "outputs": [],
      "stateMutability": "nonpayable",
      "type": "function"
    },
    {
      "inputs": [
        {
          "internalType": "uint128",
          "name": "_id",
          "type": "uint128"
        }
      ],
      "name": "supplyInterestRates",
      "outputs": [
        {
          "internalType": "uint256",
          "name": "",
          "type": "uint256"
        }
      ],
      "stateMutability": "view",
      "type": "function"
    },
    {
      "inputs": [],
      "name": "supplyKink",
      "outputs": [
        {
          "internalType": "uint256",
          "name": "",
          "type": "uint256"
        }
      ],
      "stateMutability": "view",
      "type": "function"
    },
    {
      "inputs": [],
      "name": "supplyPerSecondInterestRateBase",
      "outputs": [
        {
          "internalType": "uint256",
          "name": "",
          "type": "uint256"
        }
      ],
      "stateMutability": "view",
      "type": "function"
    },
    {
      "inputs": [],
      "name": "supplyPerSecondInterestRateSlopeHigh",
      "outputs": [
        {
          "internalType": "uint256",
          "name": "",
          "type": "uint256"
        }
      ],
      "stateMutability": "view",
      "type": "function"
    },
    {
      "inputs": [],
      "name": "supplyPerSecondInterestRateSlopeLow",
      "outputs": [
        {
          "internalType": "uint256",
          "name": "",
          "type": "uint256"
        }
      ],
      "stateMutability": "view",
      "type": "function"
    },
    {
      "inputs": [],
      "name": "tax",
      "outputs": [
        {
          "internalType": "uint256",
          "name": "",
          "type": "uint256"
        }
      ],
      "stateMutability": "view",
      "type": "function"
    },
    {
      "inputs": [
        {
          "internalType": "address",
          "name": "newOwner",
          "type": "address"
        }
      ],
      "name": "transferOwnership",
      "outputs": [],
      "stateMutability": "nonpayable",
      "type": "function"
    },
    {
      "inputs": [
        {
          "components": [
            {
              "internalType": "uint64",
              "name": "supplyKink",
              "type": "uint64"
            },
            {
              "internalType": "uint64",
              "name": "supplyPerYearInterestRateSlopeLow",
              "type": "uint64"
            },
            {
              "internalType": "uint64",
              "name": "supplyPerYearInterestRateSlopeHigh",
              "type": "uint64"
            },
            {
              "internalType": "uint64",
              "name": "supplyPerYearInterestRateBase",
              "type": "uint64"
            },
            {
              "internalType": "uint64",
              "name": "borrowKink",
              "type": "uint64"
            },
            {
              "internalType": "uint64",
              "name": "borrowPerYearInterestRateSlopeLow",
              "type": "uint64"
            },
            {
              "internalType": "uint64",
              "name": "borrowPerYearInterestRateSlopeHigh",
              "type": "uint64"
            },
            {
              "internalType": "uint64",
              "name": "borrowPerYearInterestRateBase",
              "type": "uint64"
            }
          ],
          "internalType": "struct HeadenUtils.Configuration",
          "name": "config",
          "type": "tuple"
        },
        {
          "internalType": "address",
          "name": "_relayer",
          "type": "address"
        }
      ],
      "name": "updateSettings",
      "outputs": [],
      "stateMutability": "nonpayable",
      "type": "function"
    },
    {
      "inputs": [],
      "name": "usdc",
      "outputs": [
        {
          "internalType": "address",
          "name": "",
          "type": "address"
        }
      ],
      "stateMutability": "view",
      "type": "function"
    },
    {
      "inputs": [
        {
          "internalType": "uint256",
          "name": "",
          "type": "uint256"
        }
      ],
      "name": "userAddresses",
      "outputs": [
        {
          "internalType": "address",
          "name": "",
          "type": "address"
        }
      ],
      "stateMutability": "view",
      "type": "function"
    },
    {
      "inputs": [
        {
          "internalType": "uint256",
          "name": "",
          "type": "uint256"
        },
        {
          "internalType": "address",
          "name": "",
          "type": "address"
        }
      ],
      "name": "users",
      "outputs": [
        {
          "internalType": "address",
          "name": "userAddress",
          "type": "address"
        },
        {
          "internalType": "bool",
          "name": "available",
          "type": "bool"
        },
        {
          "internalType": "uint256",
          "name": "totalAmountBorrowed",
          "type": "uint256"
        },
        {
          "internalType": "uint256",
          "name": "totalAmountStaked",
          "type": "uint256"
        },
        {
          "internalType": "uint256",
          "name": "ltv",
          "type": "uint256"
        },
        {
          "internalType": "bool",
          "name": "lock",
          "type": "bool"
        },
        {
          "internalType": "uint256",
          "name": "lastAPRUpdated",
          "type": "uint256"
        }
      ],
      "stateMutability": "view",
      "type": "function"
    },
    {
      "inputs": [
        {
          "internalType": "bytes32",
          "name": "",
          "type": "bytes32"
        }
      ],
      "name": "usersborrows",
      "outputs": [
        {
          "internalType": "address",
          "name": "userAddress",
          "type": "address"
        },
        {
          "internalType": "address",
          "name": "tokenAddress",
          "type": "address"
        },
        {
          "internalType": "bool",
          "name": "available",
          "type": "bool"
        },
        {
          "internalType": "uint256",
          "name": "amountBorrowed",
          "type": "uint256"
        }
      ],
      "stateMutability": "view",
      "type": "function"
    },
    {
      "inputs": [
        {
          "internalType": "bytes32",
          "name": "",
          "type": "bytes32"
        }
      ],
      "name": "userstakes",
      "outputs": [
        {
          "internalType": "address",
          "name": "userAddress",
          "type": "address"
        },
        {
          "internalType": "address",
          "name": "tokenAddress",
          "type": "address"
        },
        {
          "internalType": "bool",
          "name": "available",
          "type": "bool"
        },
        {
          "internalType": "uint256",
          "name": "amountStaked",
          "type": "uint256"
        }
      ],
      "stateMutability": "view",
      "type": "function"
    },
    {
      "inputs": [
        {
          "internalType": "address",
          "name": "user",
          "type": "address"
        },
        {
          "internalType": "address",
          "name": "token",
          "type": "address"
        }
      ],
      "name": "validateUser",
      "outputs": [],
      "stateMutability": "nonpayable",
      "type": "function"
    },
    {
      "inputs": [],
      "name": "validateUsers",
      "outputs": [],
      "stateMutability": "nonpayable",
      "type": "function"
    },
    {
      "inputs": [
        {
          "internalType": "address",
          "name": "_tokenAddress",
          "type": "address"
        },
        {
          "internalType": "uint256",
          "name": "_amountToWithdraw",
          "type": "uint256"
        },
        {
          "internalType": "uint256",
          "name": "_chainId",
          "type": "uint256"
        },
        {
          "internalType": "address",
          "name": "_to",
          "type": "address"
        }
      ],
      "name": "withdrawToken",
      "outputs": [],
      "stateMutability": "nonpayable",
      "type": "function"
    }
  ],
  "bytecode": "0x60c060405273103a2d37ea6b3b4da2f5bb44e001001729e743546000806101000a81548173ffffffffffffffffffffffffffffffffffffffff021916908373ffffffffffffffffffffffffffffffffffffffff16021790555061015e600455670de0b6b3a76400006009556301e13380600a55600063ffffffff1660809063ffffffff1660e01b815250611b58600d5542600e55600060e760006101000a8154816fffffffffffffffffffffffffffffffff02191690836fffffffffffffffffffffffffffffffff160217905550348015620000da57600080fd5b506040516200bc6b3803806200bc6b833981810160405281019062000100919062000ae5565b8a8a8a8a8a8a8a88886001808190555087600560006101000a81548173ffffffffffffffffffffffffffffffffffffffff021916908373ffffffffffffffffffffffffffffffffffffffff160217905550866003908051906020019062000169929190620007a5565b5085600260006101000a81548173ffffffffffffffffffffffffffffffffffffffff021916908373ffffffffffffffffffffffffffffffffffffffff16021790555083600760006101000a81548173ffffffffffffffffffffffffffffffffffffffff021916908373ffffffffffffffffffffffffffffffffffffffff16021790555084600660006101000a81548173ffffffffffffffffffffffffffffffffffffffff021916908373ffffffffffffffffffffffffffffffffffffffff16021790555082600860006101000a81548173ffffffffffffffffffffffffffffffffffffffff021916908373ffffffffffffffffffffffffffffffffffffffff1602179055508860a0818152505042600b8190555081600c81905550806000015167ffffffffffffffff16600f81905550600a54816020015167ffffffffffffffff1681620002e0577f4e487b7100000000000000000000000000000000000000000000000000000000600052601260045260246000fd5b04601081905550600a54816040015167ffffffffffffffff16816200032e577f4e487b7100000000000000000000000000000000000000000000000000000000600052601260045260246000fd5b04601181905550600a54816060015167ffffffffffffffff16816200037c577f4e487b7100000000000000000000000000000000000000000000000000000000600052601260045260246000fd5b04601281905550806080015167ffffffffffffffff16601381905550600a548160a0015167ffffffffffffffff1681620003df577f4e487b7100000000000000000000000000000000000000000000000000000000600052601260045260246000fd5b04601481905550600a548160c0015167ffffffffffffffff16816200042d577f4e487b7100000000000000000000000000000000000000000000000000000000600052601260045260246000fd5b04601581905550600a548160e0015167ffffffffffffffff16816200047b577f4e487b7100000000000000000000000000000000000000000000000000000000600052601260045260246000fd5b04601681905550505050505050505050600160e560003373ffffffffffffffffffffffffffffffffffffffff1673ffffffffffffffffffffffffffffffffffffffff16815260200190815260200160002060006101000a81548160ff021916908315150217905550620004f884600001516200069760201b60201c565b6200050d84602001516200071e60201b60201c565b6040518060800160405280846000015173ffffffffffffffffffffffffffffffffffffffff16815260200184602001518152602001846040015163ffffffff1681526020016001151581525060e66000856040015163ffffffff16815260200190815260200160002060008201518160000160006101000a81548173ffffffffffffffffffffffffffffffffffffffff021916908373ffffffffffffffffffffffffffffffffffffffff1602179055506020820151816001015560408201518160020160006101000a81548163ffffffff021916908363ffffffff16021790555060608201518160020160046101000a81548160ff021916908315150217905550905050826040015160e960006101000a81548163ffffffff021916908363ffffffff160217905550826000015160e960046101000a81548173ffffffffffffffffffffffffffffffffffffffff021916908373ffffffffffffffffffffffffffffffffffffffff160217905550826020015160ea81905550505050505050505050505062000e65565b80607c60006101000a81548173ffffffffffffffffffffffffffffffffffffffff021916908373ffffffffffffffffffffffffffffffffffffffff1602179055508073ffffffffffffffffffffffffffffffffffffffff167f7c10de8878ed89478ff01b9cd8c11a5271ea8ac91d46f662e6aea7e3adf5b11f60405160405180910390a250565b80607d60006101000a81548173ffffffffffffffffffffffffffffffffffffffff021916908373ffffffffffffffffffffffffffffffffffffffff1602179055508073ffffffffffffffffffffffffffffffffffffffff167fb87f5a0bface22cde699143559fb99f990ae54eea236995fc54178af91af859f60405160405180910390a250565b828054620007b39062000d08565b90600052602060002090601f016020900481019282620007d7576000855562000823565b82601f10620007f257805160ff191683800117855562000823565b8280016001018555821562000823579182015b828111156200082257825182559160200191906001019062000805565b5b50905062000832919062000836565b5090565b5b808211156200085157600081600090555060010162000837565b5090565b60006200086c620008668462000c2e565b62000c05565b9050828152602081018484840111156200088557600080fd5b6200089284828562000cd2565b509392505050565b600081519050620008ab8162000de3565b92915050565b600081519050620008c28162000dfd565b92915050565b600082601f830112620008da57600080fd5b8151620008ec84826020860162000855565b91505092915050565b6000604082840312156200090857600080fd5b62000914604062000c05565b9050600062000926848285016200089a565b60008301525060206200093c848285016200089a565b60208301525092915050565b6000608082840312156200095b57600080fd5b62000967608062000c05565b9050600062000979848285016200089a565b60008301525060206200098f8482850162000aa0565b6020830152506040620009a58482850162000ab7565b6040830152506060620009bb84828501620008b1565b60608301525092915050565b60006101008284031215620009db57600080fd5b620009e861010062000c05565b90506000620009fa8482850162000ace565b600083015250602062000a108482850162000ace565b602083015250604062000a268482850162000ace565b604083015250606062000a3c8482850162000ace565b606083015250608062000a528482850162000ace565b60808301525060a062000a688482850162000ace565b60a08301525060c062000a7e8482850162000ace565b60c08301525060e062000a948482850162000ace565b60e08301525092915050565b60008151905062000ab18162000e17565b92915050565b60008151905062000ac88162000e31565b92915050565b60008151905062000adf8162000e4b565b92915050565b60008060008060008060008060008060006102c08c8e03121562000b0857600080fd5b600062000b188e828f0162000aa0565b9b5050602062000b2b8e828f016200089a565b9a505060408c015167ffffffffffffffff81111562000b4957600080fd5b62000b578e828f01620008c8565b995050606062000b6a8e828f016200089a565b985050608062000b7d8e828f016200089a565b97505060a062000b908e828f016200089a565b96505060c062000ba38e828f016200089a565b95505060e062000bb68e828f01620008f5565b94505061012062000bca8e828f0162000948565b9350506101a062000bde8e828f0162000aa0565b9250506101c062000bf28e828f01620009c7565b9150509295989b509295989b9093969950565b600062000c1162000c24565b905062000c1f828262000d3e565b919050565b6000604051905090565b600067ffffffffffffffff82111562000c4c5762000c4b62000da3565b5b62000c578262000dd2565b9050602081019050919050565b600062000c718262000c84565b9050919050565b60008115159050919050565b600073ffffffffffffffffffffffffffffffffffffffff82169050919050565b6000819050919050565b600063ffffffff82169050919050565b600067ffffffffffffffff82169050919050565b60005b8381101562000cf257808201518184015260208101905062000cd5565b8381111562000d02576000848401525b50505050565b6000600282049050600182168062000d2157607f821691505b6020821081141562000d385762000d3762000d74565b5b50919050565b62000d498262000dd2565b810181811067ffffffffffffffff8211171562000d6b5762000d6a62000da3565b5b80604052505050565b7f4e487b7100000000000000000000000000000000000000000000000000000000600052602260045260246000fd5b7f4e487b7100000000000000000000000000000000000000000000000000000000600052604160045260246000fd5b6000601f19601f8301169050919050565b62000dee8162000c64565b811462000dfa57600080fd5b50565b62000e088162000c78565b811462000e1457600080fd5b50565b62000e228162000ca4565b811462000e2e57600080fd5b50565b62000e3c8162000cae565b811462000e4857600080fd5b50565b62000e568162000cbe565b811462000e6257600080fd5b50565b60805160e01c60a05161ad7b62000ef0600039600081816114d4015281816131cd0152613b73015260008181613d01015281816164cf0152818161655f015281816165f001528181616670015281816166ed01528181616776015281816167fa01528181616d7e01528181616df801528181616fe101528181617610015261768e015261ad7b6000f3fe608060405234801561001057600080fd5b50600436106103ae5760003560e01c80637c108333116101f4578063b49c53a71161011a578063e6a69ab8116100ad578063f384bd051161007c578063f384bd0514610b2d578063f4b9fa7514610b4b578063f5a96d3f14610b69578063f739ed9e14610b73576103ae565b8063e6a69ab814610abb578063f0c4e88614610ad9578063f1bd6f0a14610af5578063f2fde38b14610b11576103ae565b8063c44814a6116100e9578063c44814a614610a33578063c6f4c57814610a63578063cb170b3014610a81578063e0b5330714610a9d576103ae565b8063b49c53a7146109a7578063b6b0b097146109c3578063b9d02df4146109e1578063bff0dbc414610a17576103ae565b806397ac1fc9116101925780639c65582c116101615780639c65582c1461091d578063a2953f371461093b578063a5b4ff791461096b578063ae4b19ce14610989576103ae565b806397ac1fc9146108a557806399c8d556146108c35780639a35c359146108e15780639a8a0592146108ff576103ae565b80639241a561116101ce5780639241a5611461082f57806393a595f51461084d578063947a36fb1461086957806394920cca14610887576103ae565b80637c108333146107d7578063804de71f146107f35780638da5cb5b14610811576103ae565b80634c24d521116102d95780635a91b39c116102775780636cf2ed94116102465780636cf2ed94146107605780636e04ff0d1461077e578063715018a6146107af5780637914acc7146107b9576103ae565b80635a91b39c146106d95780635a94b8d1146106f55780635db11f791461071357806365c6507614610744576103ae565b806352fcaa79116102b357806352fcaa79146106275780635300f8411461065a578063550325b51461068a57806356d5d475146106bd576103ae565b80634c24d521146105bf578063502c9bd5146105db57806352de57271461060b576103ae565b806339bb4ad9116103515780633e413bee116103205780633e413bee146105375780633f3b3b27146105555780634585e33b146105735780634b98e0e51461058f576103ae565b806339bb4ad9146104a85780633ca1355f146104c65780633cd83bda146104e25780633d3e49fc14610500576103ae565b80632a48cf121161038d5780632a48cf12146104095780632d05670b146104275780632ead72f614610445578063396ce21314610475576103ae565b8062821de3146103b357806312b1d780146103d15780631f3929e3146103ed575b600080fd5b6103bb610b8f565b6040516103c89190619721565b60405180910390f35b6103eb60048036038101906103e69190618ad7565b610bb5565b005b61040760048036038101906104029190618b8b565b610bc9565b005b61041161100c565b60405161041e9190619e18565b60405180910390f35b61042f611012565b60405161043c9190619e18565b60405180910390f35b61045f600480360381019061045a9190618f90565b611018565b60405161046c9190619a71565b60405180910390f35b61048f600480360381019061048a9190618db2565b611030565b60405161049f949392919061973c565b60405180910390f35b6104b06110ad565b6040516104bd9190619aa7565b60405180910390f35b6104e060048036038101906104db9190618e9b565b6110d3565b005b6104ea61139f565b6040516104f79190619e18565b60405180910390f35b61051a60048036038101906105159190618ed9565b6113a5565b60405161052e98979695949392919061986c565b60405180910390f35b61053f61141a565b60405161054c9190619721565b60405180910390f35b61055d611440565b60405161056a9190619e18565b60405180910390f35b61058d60048036038101906105889190618ddb565b611446565b005b6105a960048036038101906105a49190618ed9565b61154f565b6040516105b69190619e18565b60405180910390f35b6105d960048036038101906105d49190618e72565b611653565b005b6105f560048036038101906105f09190618f02565b6117e6565b6040516106029190619721565b60405180910390f35b61062560048036038101906106209190618b4f565b611825565b005b610641600480360381019061063c9190618db2565b6119c3565b604051610651949392919061973c565b60405180910390f35b610674600480360381019061066f9190618ad7565b611a40565b60405161068191906199fd565b60405180910390f35b6106a4600480360381019061069f9190618f02565b611a60565b6040516106b494939291906199b8565b60405180910390f35b6106d760048036038101906106d29190618ff5565b611acd565b005b6106f360048036038101906106ee9190618b8b565b611b72565b005b6106fd612444565b60405161070a9190619e18565b60405180910390f35b61072d60048036038101906107289190618ad7565b61244a565b60405161073b929190619a48565b60405180910390f35b61075e60048036038101906107599190618bc7565b612497565b005b6107686131b1565b6040516107759190619e8c565b60405180910390f35b61079860048036038101906107939190618ddb565b6131c7565b6040516107a6929190619a18565b60405180910390f35b6107b7613204565b005b6107c1613218565b6040516107ce9190619e18565b60405180910390f35b6107f160048036038101906107ec9190618ad7565b61321e565b005b6107fb6135dc565b6040516108089190619e18565b60405180910390f35b6108196135e2565b6040516108269190619721565b60405180910390f35b61083761360c565b6040516108449190619e18565b60405180910390f35b61086760048036038101906108629190618b8b565b613612565b005b610871613b71565b60405161087e9190619e18565b60405180910390f35b61088f613b95565b60405161089c9190619e18565b60405180910390f35b6108ad613b9b565b6040516108ba9190619dfd565b60405180910390f35b6108cb613bbd565b6040516108d89190619e18565b60405180910390f35b6108e9613bc3565b6040516108f69190619a8c565b60405180910390f35b610907613be9565b6040516109149190619e18565b60405180910390f35b610925613bef565b6040516109329190619e18565b60405180910390f35b61095560048036038101906109509190618ed9565b613bf5565b6040516109629190619e18565b60405180910390f35b610973613cf9565b6040516109809190619e18565b60405180910390f35b610991613cff565b60405161099e9190619e8c565b60405180910390f35b6109c160048036038101906109bc9190618fb9565b613d23565b005b6109cb613d39565b6040516109d89190619721565b60405180910390f35b6109fb60048036038101906109f69190618f54565b613d5f565b604051610a0e97969594939291906197fd565b60405180910390f35b610a316004803603810190610a2c9190618cf0565b613de8565b005b610a4d6004803603810190610a489190618f02565b613fd0565b604051610a5a9190619e18565b60405180910390f35b610a6b613fe7565b604051610a789190619721565b60405180910390f35b610a9b6004803603810190610a969190618c8d565b61400d565b005b610aa5614109565b604051610ab29190619e18565b60405180910390f35b610ac3614208565b604051610ad09190619e18565b60405180910390f35b610af36004803603810190610aee9190618c2a565b61420e565b005b610b0f6004803603810190610b0a9190618ad7565b614aa7565b005b610b2b6004803603810190610b269190618ad7565b614abb565b005b610b35614b3f565b604051610b429190619e18565b60405180910390f35b610b53614b45565b604051610b609190619721565b60405180910390f35b610b71614b6b565b005b610b8d6004803603810190610b889190618b8b565b614ea9565b005b60e960049054906101000a900473ffffffffffffffffffffffffffffffffffffffff1681565b610bbd615272565b610bc6816152f0565b50565b600160e760008282829054906101000a90046fffffffffffffffffffffffffffffffff16610bf79190619fed565b92506101000a8154816fffffffffffffffffffffffffffffffff02191690836fffffffffffffffffffffffffffffffff16021790555060e460008373ffffffffffffffffffffffffffffffffffffffff1673ffffffffffffffffffffffffffffffffffffffff16815260200190815260200160002060000160009054906101000a900460ff1615610cbd576040517f08c379a0000000000000000000000000000000000000000000000000000000008152600401610cb490619d82565b60405180910390fd5b6040518061010001604052808373ffffffffffffffffffffffffffffffffffffffff1681526020016001151581526020018281526020016000815260200142815260200142815260200160008152602001600081525060e3600060e760009054906101000a90046fffffffffffffffffffffffffffffffff166fffffffffffffffffffffffffffffffff166fffffffffffffffffffffffffffffffff16815260200190815260200160002060008201518160000160006101000a81548173ffffffffffffffffffffffffffffffffffffffff021916908373ffffffffffffffffffffffffffffffffffffffff16021790555060208201518160000160146101000a81548160ff02191690831515021790555060408201518160010155606082015181600201556080820151816003015560a0820151816004015560c0820151816005015560e08201518160060155905050604051806040016040528060011515815260200160e760009054906101000a90046fffffffffffffffffffffffffffffffff166fffffffffffffffffffffffffffffffff1681525060e460008473ffffffffffffffffffffffffffffffffffffffff1673ffffffffffffffffffffffffffffffffffffffff16815260200190815260200160002060008201518160000160006101000a81548160ff02191690831515021790555060208201518160000160016101000a8154816fffffffffffffffffffffffffffffffff02191690836fffffffffffffffffffffffffffffffff1602179055509050506000610f038383615377565b9050610fae60008054906101000a900473ffffffffffffffffffffffffffffffffffffffff1673ffffffffffffffffffffffffffffffffffffffff1663313ce5676040518163ffffffff1660e01b815260040160206040518083038186803b158015610f6e57600080fd5b505afa158015610f82573d6000803e3d6000fd5b505050506040513d601f19601f82011682018060405250810190610fa69190619085565b60ff166156d0565b610dac610fbb919061a22b565b811015610ffd576040517f08c379a0000000000000000000000000000000000000000000000000000000008152600401610ff490619b82565b60405180910390fd5b61100783836156e6565b505050565b60155481565b60145481565b60ae6020528060005260406000206000915090505481565b60e16020528060005260406000206000915090508060000160009054906101000a900473ffffffffffffffffffffffffffffffffffffffff16908060010160009054906101000a900473ffffffffffffffffffffffffffffffffffffffff16908060010160149054906101000a900460ff16908060020154905084565b607d60009054906101000a900473ffffffffffffffffffffffffffffffffffffffff1681565b6110db615272565b600160e560008373ffffffffffffffffffffffffffffffffffffffff1673ffffffffffffffffffffffffffffffffffffffff16815260200190815260200160002060006101000a81548160ff021916908315150217905550816000016020810190611146919061905c565b67ffffffffffffffff16600f81905550600a5482602001602081019061116c919061905c565b67ffffffffffffffff16816111aa577f4e487b7100000000000000000000000000000000000000000000000000000000600052601260045260246000fd5b04601081905550600a548260400160208101906111c7919061905c565b67ffffffffffffffff1681611205577f4e487b7100000000000000000000000000000000000000000000000000000000600052601260045260246000fd5b04601181905550600a54826060016020810190611222919061905c565b67ffffffffffffffff1681611260577f4e487b7100000000000000000000000000000000000000000000000000000000600052601260045260246000fd5b0460128190555081608001602081019061127a919061905c565b67ffffffffffffffff16601381905550600a548260a00160208101906112a0919061905c565b67ffffffffffffffff16816112de577f4e487b7100000000000000000000000000000000000000000000000000000000600052601260045260246000fd5b04601481905550600a548260c00160208101906112fb919061905c565b67ffffffffffffffff1681611339577f4e487b7100000000000000000000000000000000000000000000000000000000600052601260045260246000fd5b04601581905550600a548260e0016020810190611356919061905c565b67ffffffffffffffff1681611394577f4e487b7100000000000000000000000000000000000000000000000000000000600052601260045260246000fd5b046016819055505050565b600e5481565b60e36020528060005260406000206000915090508060000160009054906101000a900473ffffffffffffffffffffffffffffffffffffffff16908060000160149054906101000a900460ff16908060010154908060020154908060030154908060040154908060050154908060060154905088565b600660009054906101000a900473ffffffffffffffffffffffffffffffffffffffff1681565b600b5481565b60e560003373ffffffffffffffffffffffffffffffffffffffff1673ffffffffffffffffffffffffffffffffffffffff16815260200190815260200160002060009054906101000a900460ff166114d2576040517f08c379a00000000000000000000000000000000000000000000000000000000081526004016114c990619ac2565b60405180910390fd5b7f0000000000000000000000000000000000000000000000000000000000000000600b5442611501919061a285565b111561154b5742600b819055507f4c046938d8adaf12f829530d5ab0441e591705682189298941fd0d767cc22eab60405160405180910390a1611542614b6b565b61154a615c44565b5b5050565b60008060e36000846fffffffffffffffffffffffffffffffff166fffffffffffffffffffffffffffffffff168152602001908152602001600020600101546115d060e36000866fffffffffffffffffffffffffffffffff166fffffffffffffffffffffffffffffffff16815260200190815260200160002060020154613fd0565b6115da919061a089565b9050601354811161160857806014546115f3919061a22b565b601654611600919061a033565b91505061164e565b60135481611616919061a285565b601554611623919061a22b565b601354601454611633919061a22b565b601654611640919061a033565b61164a919061a033565b9150505b919050565b60e560003373ffffffffffffffffffffffffffffffffffffffff1673ffffffffffffffffffffffffffffffffffffffff16815260200190815260200160002060009054906101000a900460ff166116df576040517f08c379a00000000000000000000000000000000000000000000000000000000081526004016116d690619ac2565b60405180910390fd5b6040518060800160405280826000015173ffffffffffffffffffffffffffffffffffffffff16815260200182602001518152602001826040015163ffffffff1681526020016001151581525060e66000836040015163ffffffff16815260200190815260200160002060008201518160000160006101000a81548173ffffffffffffffffffffffffffffffffffffffff021916908373ffffffffffffffffffffffffffffffffffffffff1602179055506020820151816001015560408201518160020160006101000a81548163ffffffff021916908363ffffffff16021790555060608201518160020160046101000a81548160ff02191690831515021790555090505050565b60e881815481106117f657600080fd5b906000526020600020016000915054906101000a900473ffffffffffffffffffffffffffffffffffffffff1681565b60e560003373ffffffffffffffffffffffffffffffffffffffff1673ffffffffffffffffffffffffffffffffffffffff16815260200190815260200160002060009054906101000a900460ff166118b1576040517f08c379a00000000000000000000000000000000000000000000000000000000081526004016118a890619ac2565b60405180910390fd5b6118bb8282615caf565b50600d5460e06000600c54815260200190815260200160002060008473ffffffffffffffffffffffffffffffffffffffff1673ffffffffffffffffffffffffffffffffffffffff168152602001908152602001600020600301541061192e576119248282616380565b61192d82616879565b5b7fab8c9917d424586fd5d8b63bc0f89a035700c3234b1dc521a6fa0c510d23498e60e06000600c54815260200190815260200160002060008473ffffffffffffffffffffffffffffffffffffffff1673ffffffffffffffffffffffffffffffffffffffff1681526020019081526020016000206040516119ae9190619de2565b60405180910390a16119bf82616d04565b5050565b60e26020528060005260406000206000915090508060000160009054906101000a900473ffffffffffffffffffffffffffffffffffffffff16908060010160009054906101000a900473ffffffffffffffffffffffffffffffffffffffff16908060010160149054906101000a900460ff16908060020154905084565b60e56020528060005260406000206000915054906101000a900460ff1681565b60e66020528060005260406000206000915090508060000160009054906101000a900473ffffffffffffffffffffffffffffffffffffffff16908060010154908060020160009054906101000a900463ffffffff16908060020160049054906101000a900460ff16905084565b611ad633616ead565b611b15576040517f08c379a0000000000000000000000000000000000000000000000000000000008152600401611b0c90619c82565b60405180910390fd5b8282611b218282616f61565b611b60576040517f08c379a0000000000000000000000000000000000000000000000000000000008152600401611b5790619ca2565b60405180910390fd5b611b6b858585616f8d565b5050505050565b60e06000600c54815260200190815260200160002060003373ffffffffffffffffffffffffffffffffffffffff1673ffffffffffffffffffffffffffffffffffffffff16815260200190815260200160002060000160149054906101000a900460ff16611c14576040517f08c379a0000000000000000000000000000000000000000000000000000000008152600401611c0b90619d02565b60405180910390fd5b60e06000600c54815260200190815260200160002060003373ffffffffffffffffffffffffffffffffffffffff1673ffffffffffffffffffffffffffffffffffffffff16815260200190815260200160002060040160009054906101000a900460ff1615611cb7576040517f08c379a0000000000000000000000000000000000000000000000000000000008152600401611cae90619ce2565b60405180910390fd5b60026001541415611cfd576040517f08c379a0000000000000000000000000000000000000000000000000000000008152600401611cf490619d42565b60405180910390fd5b600260018190555060e460008373ffffffffffffffffffffffffffffffffffffffff1673ffffffffffffffffffffffffffffffffffffffff16815260200190815260200160002060000160009054906101000a900460ff16611d94576040517f08c379a0000000000000000000000000000000000000000000000000000000008152600401611d8b90619da2565b60405180910390fd5b600033836003604051602001611dac939291906196e8565b604051602081830303815290604052805190602001209050600061271083600454611dd7919061a22b565b611de1919061a089565b90506000611def8585615377565b905060058111611e34576040517f08c379a0000000000000000000000000000000000000000000000000000000008152600401611e2b90619b02565b60405180910390fd5b611e3d33616879565b600d5460e06000600c54815260200190815260200160002060003373ffffffffffffffffffffffffffffffffffffffff1673ffffffffffffffffffffffffffffffffffffffff168152602001908152602001600020600201546127108360e06000600c54815260200190815260200160002060003373ffffffffffffffffffffffffffffffffffffffff1673ffffffffffffffffffffffffffffffffffffffff16815260200190815260200160002060010154611efa919061a033565b611f04919061a22b565b611f0e919061a089565b10611f4e576040517f08c379a0000000000000000000000000000000000000000000000000000000008152600401611f4590619c02565b60405180910390fd5b60e1600084815260200190815260200160002060010160149054906101000a900460ff1615611fa9578360e160008581526020019081526020016000206002016000828254611f9d919061a033565b925050819055506120c8565b60405180608001604052803373ffffffffffffffffffffffffffffffffffffffff1681526020018673ffffffffffffffffffffffffffffffffffffffff1681526020016001151581526020018581525060e1600085815260200190815260200160002060008201518160000160006101000a81548173ffffffffffffffffffffffffffffffffffffffff021916908373ffffffffffffffffffffffffffffffffffffffff16021790555060208201518160010160006101000a81548173ffffffffffffffffffffffffffffffffffffffff021916908373ffffffffffffffffffffffffffffffffffffffff16021790555060408201518160010160146101000a81548160ff021916908315150217905550606082015181600201559050505b8060e06000600c54815260200190815260200160002060003373ffffffffffffffffffffffffffffffffffffffff1673ffffffffffffffffffffffffffffffffffffffff168152602001908152602001600020600101600082825461212d919061a033565b92505081905550838573ffffffffffffffffffffffffffffffffffffffff166370a08231306040518263ffffffff1660e01b815260040161216e9190619721565b60206040518083038186803b15801561218657600080fd5b505afa15801561219a573d6000803e3d6000fd5b505050506040513d601f19601f820116820180604052508101906121be9190618f2b565b1015612220576121da856002866121d5919061a22b565b6171a8565b600061221b576040517f08c379a000000000000000000000000000000000000000000000000000000000815260040161221290619c62565b60405180910390fd5b6122f8565b8473ffffffffffffffffffffffffffffffffffffffff1663a9059cbb338487612249919061a285565b6040518363ffffffff1660e01b81526004016122669291906198ea565b602060405180830381600087803b15801561228057600080fd5b505af1158015612294573d6000803e3d6000fd5b505050506040513d601f19601f820116820180604052508101906122b89190618d89565b6122f7576040517f08c379a00000000000000000000000000000000000000000000000000000000081526004016122ee90619c22565b60405180910390fd5b5b6123638460018060e460008a73ffffffffffffffffffffffffffffffffffffffff1673ffffffffffffffffffffffffffffffffffffffff16815260200190815260200160002060000160019054906101000a90046fffffffffffffffffffffffffffffffff1661727d565b61236c33617472565b7fab8c9917d424586fd5d8b63bc0f89a035700c3234b1dc521a6fa0c510d23498e60e06000600c54815260200190815260200160002060003373ffffffffffffffffffffffffffffffffffffffff1673ffffffffffffffffffffffffffffffffffffffff1681526020019081526020016000206040516123ec9190619de2565b60405180910390a17f84d6fc9f7244aba67b2ad2bfc67d8d3ed92b7e4932a482888bac6a4595019a158486604051612425929190619e33565b60405180910390a161243633616d04565b505050600180819055505050565b60105481565b60e46020528060005260406000206000915090508060000160009054906101000a900460ff16908060000160019054906101000a90046fffffffffffffffffffffffffffffffff16905082565b60e06000600c54815260200190815260200160002060003373ffffffffffffffffffffffffffffffffffffffff1673ffffffffffffffffffffffffffffffffffffffff16815260200190815260200160002060000160149054906101000a900460ff16612539576040517f08c379a000000000000000000000000000000000000000000000000000000000815260040161253090619d02565b60405180910390fd5b60e06000600c54815260200190815260200160002060003373ffffffffffffffffffffffffffffffffffffffff1673ffffffffffffffffffffffffffffffffffffffff16815260200190815260200160002060040160009054906101000a900460ff16156125dc576040517f08c379a00000000000000000000000000000000000000000000000000000000081526004016125d390619ce2565b60405180910390fd5b60026001541415612622576040517f08c379a000000000000000000000000000000000000000000000000000000000815260040161261990619d42565b60405180910390fd5b600260018190555060e460008573ffffffffffffffffffffffffffffffffffffffff1673ffffffffffffffffffffffffffffffffffffffff16815260200190815260200160002060000160009054906101000a900460ff166126b9576040517f08c379a00000000000000000000000000000000000000000000000000000000081526004016126b090619da2565b60405180910390fd5b60e460008373ffffffffffffffffffffffffffffffffffffffff1673ffffffffffffffffffffffffffffffffffffffff16815260200190815260200160002060000160009054906101000a900460ff16612748576040517f08c379a000000000000000000000000000000000000000000000000000000000815260040161273f90619dc2565b60405180910390fd5b600033856003604051602001612760939291906196e8565b60405160208183030381529060405280519060200120905060006127108560045461278b919061a22b565b612795919061a089565b905060006127a38787615377565b905060006127b18686615377565b9050600582116127f6576040517f08c379a00000000000000000000000000000000000000000000000000000000081526004016127ed90619d62565b60405180910390fd5b60058111612839576040517f08c379a000000000000000000000000000000000000000000000000000000000815260040161283090619ae2565b60405180910390fd5b61284233616879565b600d548160e06000600c54815260200190815260200160002060003373ffffffffffffffffffffffffffffffffffffffff1673ffffffffffffffffffffffffffffffffffffffff168152602001908152602001600020600201546128a6919061a033565b6127108460e06000600c54815260200190815260200160002060003373ffffffffffffffffffffffffffffffffffffffff1673ffffffffffffffffffffffffffffffffffffffff1681526020019081526020016000206001015461290a919061a033565b612914919061a22b565b61291e919061a089565b1061295e576040517f08c379a000000000000000000000000000000000000000000000000000000000815260040161295590619c02565b60405180910390fd5b60e1600085815260200190815260200160002060010160149054906101000a900460ff16156129b9578660e1600086815260200190815260200160002060020160008282546129ad919061a033565b92505081905550612ad8565b60405180608001604052803373ffffffffffffffffffffffffffffffffffffffff1681526020018973ffffffffffffffffffffffffffffffffffffffff1681526020016001151581526020018881525060e1600086815260200190815260200160002060008201518160000160006101000a81548173ffffffffffffffffffffffffffffffffffffffff021916908373ffffffffffffffffffffffffffffffffffffffff16021790555060208201518160010160006101000a81548173ffffffffffffffffffffffffffffffffffffffff021916908373ffffffffffffffffffffffffffffffffffffffff16021790555060408201518160010160146101000a81548160ff021916908315150217905550606082015181600201559050505b60e2600085815260200190815260200160002060010160149054906101000a900460ff1615612b33578460e260008681526020019081526020016000206002016000828254612b27919061a033565b92505081905550612c52565b60405180608001604052803373ffffffffffffffffffffffffffffffffffffffff1681526020018973ffffffffffffffffffffffffffffffffffffffff1681526020016001151581526020018681525060e2600086815260200190815260200160002060008201518160000160006101000a81548173ffffffffffffffffffffffffffffffffffffffff021916908373ffffffffffffffffffffffffffffffffffffffff16021790555060208201518160010160006101000a81548173ffffffffffffffffffffffffffffffffffffffff021916908373ffffffffffffffffffffffffffffffffffffffff16021790555060408201518160010160146101000a81548160ff021916908315150217905550606082015181600201559050505b8160e06000600c54815260200190815260200160002060003373ffffffffffffffffffffffffffffffffffffffff1673ffffffffffffffffffffffffffffffffffffffff1681526020019081526020016000206001016000828254612cb7919061a033565b925050819055508060e06000600c54815260200190815260200160002060003373ffffffffffffffffffffffffffffffffffffffff1673ffffffffffffffffffffffffffffffffffffffff1681526020019081526020016000206002016000828254612d23919061a033565b92505081905550868873ffffffffffffffffffffffffffffffffffffffff166370a08231306040518263ffffffff1660e01b8152600401612d649190619721565b60206040518083038186803b158015612d7c57600080fd5b505afa158015612d90573d6000803e3d6000fd5b505050506040513d601f19601f82011682018060405250810190612db49190618f2b565b1015612e1657612dd088600289612dcb919061a22b565b6171a8565b6000612e11576040517f08c379a0000000000000000000000000000000000000000000000000000000008152600401612e0890619c62565b60405180910390fd5b612fbc565b8573ffffffffffffffffffffffffffffffffffffffff166323b872dd3330886040518463ffffffff1660e01b8152600401612e5393929190619781565b602060405180830381600087803b158015612e6d57600080fd5b505af1158015612e81573d6000803e3d6000fd5b505050506040513d601f19601f82011682018060405250810190612ea59190618d89565b612ee4576040517f08c379a0000000000000000000000000000000000000000000000000000000008152600401612edb90619c22565b60405180910390fd5b8773ffffffffffffffffffffffffffffffffffffffff1663a9059cbb33858a612f0d919061a285565b6040518363ffffffff1660e01b8152600401612f2a9291906198ea565b602060405180830381600087803b158015612f4457600080fd5b505af1158015612f58573d6000803e3d6000fd5b505050506040513d601f19601f82011682018060405250810190612f7c9190618d89565b612fbb576040517f08c379a0000000000000000000000000000000000000000000000000000000008152600401612fb290619c22565b60405180910390fd5b5b613028876001600060e460008d73ffffffffffffffffffffffffffffffffffffffff1673ffffffffffffffffffffffffffffffffffffffff16815260200190815260200160002060000160019054906101000a90046fffffffffffffffffffffffffffffffff1661727d565b613094856000600160e460008b73ffffffffffffffffffffffffffffffffffffffff1673ffffffffffffffffffffffffffffffffffffffff16815260200190815260200160002060000160019054906101000a90046fffffffffffffffffffffffffffffffff1661727d565b61309d33617472565b7fab8c9917d424586fd5d8b63bc0f89a035700c3234b1dc521a6fa0c510d23498e60e06000600c54815260200190815260200160002060003373ffffffffffffffffffffffffffffffffffffffff1673ffffffffffffffffffffffffffffffffffffffff16815260200190815260200160002060405161311d9190619de2565b60405180910390a17f6e47dcdd359b6cd69456f0f97d394bd4540a2e7c4adc1b9da076859df53756c78589604051613156929190619e33565b60405180910390a17f84d6fc9f7244aba67b2ad2bfc67d8d3ed92b7e4932a482888bac6a4595019a15878960405161318f929190619e33565b60405180910390a16131a033616d04565b505050506001808190555050505050565b60e960009054906101000a900463ffffffff1681565b600060607f0000000000000000000000000000000000000000000000000000000000000000600b54426131fa919061a285565b1191509250929050565b61320c615272565b613216600061770a565b565b60165481565b60e560003373ffffffffffffffffffffffffffffffffffffffff1673ffffffffffffffffffffffffffffffffffffffff16815260200190815260200160002060009054906101000a900460ff166132aa576040517f08c379a00000000000000000000000000000000000000000000000000000000081526004016132a190619ac2565b60405180910390fd5b60e460008273ffffffffffffffffffffffffffffffffffffffff1673ffffffffffffffffffffffffffffffffffffffff16815260200190815260200160002060000160009054906101000a900460ff161561333a576040517f08c379a000000000000000000000000000000000000000000000000000000000815260040161333190619d82565b60405180910390fd5b600160e760008282829054906101000a90046fffffffffffffffffffffffffffffffff166133689190619fed565b92506101000a8154816fffffffffffffffffffffffffffffffff02191690836fffffffffffffffffffffffffffffffff1602179055506040518061010001604052808273ffffffffffffffffffffffffffffffffffffffff168152602001600115158152602001600081526020016000815260200142815260200142815260200160008152602001600081525060e3600060e760009054906101000a90046fffffffffffffffffffffffffffffffff166fffffffffffffffffffffffffffffffff166fffffffffffffffffffffffffffffffff16815260200190815260200160002060008201518160000160006101000a81548173ffffffffffffffffffffffffffffffffffffffff021916908373ffffffffffffffffffffffffffffffffffffffff16021790555060208201518160000160146101000a81548160ff02191690831515021790555060408201518160010155606082015181600201556080820151816003015560a0820151816004015560c0820151816005015560e08201518160060155905050604051806040016040528060011515815260200160e760009054906101000a90046fffffffffffffffffffffffffffffffff166fffffffffffffffffffffffffffffffff1681525060e460008373ffffffffffffffffffffffffffffffffffffffff1673ffffffffffffffffffffffffffffffffffffffff16815260200190815260200160002060008201518160000160006101000a81548160ff02191690831515021790555060208201518160000160016101000a8154816fffffffffffffffffffffffffffffffff02191690836fffffffffffffffffffffffffffffffff16021790555090505050565b60115481565b6000604a60009054906101000a900473ffffffffffffffffffffffffffffffffffffffff16905090565b60135481565b60e06000600c54815260200190815260200160002060003373ffffffffffffffffffffffffffffffffffffffff1673ffffffffffffffffffffffffffffffffffffffff16815260200190815260200160002060000160149054906101000a900460ff166136b4576040517f08c379a00000000000000000000000000000000000000000000000000000000081526004016136ab90619d02565b60405180910390fd5b60e06000600c54815260200190815260200160002060003373ffffffffffffffffffffffffffffffffffffffff1673ffffffffffffffffffffffffffffffffffffffff16815260200190815260200160002060040160009054906101000a900460ff1615613757576040517f08c379a000000000000000000000000000000000000000000000000000000000815260040161374e90619ce2565b60405180910390fd5b6002600154141561379d576040517f08c379a000000000000000000000000000000000000000000000000000000000815260040161379490619d42565b60405180910390fd5b600260018190555060e460008373ffffffffffffffffffffffffffffffffffffffff1673ffffffffffffffffffffffffffffffffffffffff16815260200190815260200160002060000160009054906101000a900460ff16613834576040517f08c379a000000000000000000000000000000000000000000000000000000000815260040161382b90619da2565b60405180910390fd5b60003383600360405160200161384c939291906196e8565b60405160208183030381529060405280519060200120905060006138708484615377565b9050600581116138b5576040517f08c379a00000000000000000000000000000000000000000000000000000000081526004016138ac90619b42565b60405180910390fd5b6138be33616879565b8260e1600084815260200190815260200160002060020160008282546138e4919061a285565b925050819055508060e06000600c54815260200190815260200160002060003373ffffffffffffffffffffffffffffffffffffffff1673ffffffffffffffffffffffffffffffffffffffff1681526020019081526020016000206001016000828254613950919061a285565b925050819055506139c3836001600060e460008973ffffffffffffffffffffffffffffffffffffffff1673ffffffffffffffffffffffffffffffffffffffff16815260200190815260200160002060000160019054906101000a90046fffffffffffffffffffffffffffffffff1661727d565b8373ffffffffffffffffffffffffffffffffffffffff166323b872dd3330866040518463ffffffff1660e01b8152600401613a0093929190619781565b602060405180830381600087803b158015613a1a57600080fd5b505af1158015613a2e573d6000803e3d6000fd5b505050506040513d601f19601f82011682018060405250810190613a529190618d89565b613a91576040517f08c379a0000000000000000000000000000000000000000000000000000000008152600401613a8890619c22565b60405180910390fd5b613a9a33617472565b7fab8c9917d424586fd5d8b63bc0f89a035700c3234b1dc521a6fa0c510d23498e60e06000600c54815260200190815260200160002060003373ffffffffffffffffffffffffffffffffffffffff1673ffffffffffffffffffffffffffffffffffffffff168152602001908152602001600020604051613b1a9190619de2565b60405180910390a17fd1014e978dfee75c13d9e11073f136d3fb4cb3562d1d557024029d907932161f8385604051613b53929190619e33565b60405180910390a1613b6433616d04565b5050600180819055505050565b7f000000000000000000000000000000000000000000000000000000000000000081565b60125481565b60e760009054906101000a90046fffffffffffffffffffffffffffffffff1681565b60045481565b607c60009054906101000a900473ffffffffffffffffffffffffffffffffffffffff1681565b600c5481565b60ea5481565b60008060e36000846fffffffffffffffffffffffffffffffff166fffffffffffffffffffffffffffffffff16815260200190815260200160002060010154613c7660e36000866fffffffffffffffffffffffffffffffff166fffffffffffffffffffffffffffffffff16815260200190815260200160002060020154613fd0565b613c80919061a089565b9050600f548111613cae5780601054613c99919061a22b565b601254613ca6919061a033565b915050613cf4565b600f5481613cbc919061a285565b601154613cc9919061a22b565b600f54601054613cd9919061a22b565b601254613ce6919061a033565b613cf0919061a033565b9150505b919050565b600f5481565b7f000000000000000000000000000000000000000000000000000000000000000081565b613d2b615272565b613d3582826177d0565b5050565b600860009054906101000a900473ffffffffffffffffffffffffffffffffffffffff1681565b60e0602052816000526040600020602052806000526040600020600091509150508060000160009054906101000a900473ffffffffffffffffffffffffffffffffffffffff16908060000160149054906101000a900460ff16908060010154908060020154908060030154908060040160009054906101000a900460ff16908060050154905087565b60e560003373ffffffffffffffffffffffffffffffffffffffff1673ffffffffffffffffffffffffffffffffffffffff16815260200190815260200160002060009054906101000a900460ff16613e74576040517f08c379a0000000000000000000000000000000000000000000000000000000008152600401613e6b90619ac2565b60405180910390fd5b60026001541415613eba576040517f08c379a0000000000000000000000000000000000000000000000000000000008152600401613eb190619d42565b60405180910390fd5b600260018190555060005b83839050811015613fc357613fb0848483818110613f0c577f4e487b7100000000000000000000000000000000000000000000000000000000600052603260045260246000fd5b9050606002016000016020810190613f249190618ad7565b858584818110613f5d577f4e487b7100000000000000000000000000000000000000000000000000000000600052603260045260246000fd5b90506060020160200135868685818110613fa0577f4e487b7100000000000000000000000000000000000000000000000000000000600052603260045260246000fd5b905060600201604001358561400d565b8080613fbb9061a55d565b915050613ec5565b5060018081905550505050565b600061271082613fe0919061a22b565b9050919050565b600560009054906101000a900473ffffffffffffffffffffffffffffffffffffffff1681565b60e560003373ffffffffffffffffffffffffffffffffffffffff1673ffffffffffffffffffffffffffffffffffffffff16815260200190815260200160002060009054906101000a900460ff16614099576040517f08c379a000000000000000000000000000000000000000000000000000000000815260040161409090619ac2565b60405180910390fd5b600260015414156140df576040517f08c379a00000000000000000000000000000000000000000000000000000000081526004016140d690619d42565b60405180910390fd5b60026001819055506140f38484848461782c565b6140fc84617472565b6001808190555050505050565b600060e06000600c54815260200190815260200160002060003373ffffffffffffffffffffffffffffffffffffffff1673ffffffffffffffffffffffffffffffffffffffff16815260200190815260200160002060000160149054906101000a900460ff166141ad576040517f08c379a00000000000000000000000000000000000000000000000000000000081526004016141a490619ba2565b60405180910390fd5b60e06000600c54815260200190815260200160002060003373ffffffffffffffffffffffffffffffffffffffff1673ffffffffffffffffffffffffffffffffffffffff16815260200190815260200160002060030154905090565b600a5481565b60e06000600c54815260200190815260200160002060003373ffffffffffffffffffffffffffffffffffffffff1673ffffffffffffffffffffffffffffffffffffffff16815260200190815260200160002060000160149054906101000a900460ff166142b0576040517f08c379a00000000000000000000000000000000000000000000000000000000081526004016142a790619d02565b60405180910390fd5b60e06000600c54815260200190815260200160002060003373ffffffffffffffffffffffffffffffffffffffff1673ffffffffffffffffffffffffffffffffffffffff16815260200190815260200160002060040160009054906101000a900460ff1615614353576040517f08c379a000000000000000000000000000000000000000000000000000000000815260040161434a90619ce2565b60405180910390fd5b60026001541415614399576040517f08c379a000000000000000000000000000000000000000000000000000000000815260040161439090619d42565b60405180910390fd5b600260018190555060e460008573ffffffffffffffffffffffffffffffffffffffff1673ffffffffffffffffffffffffffffffffffffffff16815260200190815260200160002060000160009054906101000a900460ff16614430576040517f08c379a000000000000000000000000000000000000000000000000000000000815260040161442790619da2565b60405180910390fd5b600033856003604051602001614448939291906196e8565b604051602081830303815290604052805190602001209050600061271085600454614473919061a22b565b61447d919061a089565b90506000614496878388614491919061a285565b615377565b9050600a81116144db576040517f08c379a00000000000000000000000000000000000000000000000000000000081526004016144d290619d62565b60405180910390fd5b8560e260008581526020019081526020016000206002015411614533576040517f08c379a000000000000000000000000000000000000000000000000000000000815260040161452a90619cc2565b60405180910390fd5b61453c33616879565b600d548160e06000600c54815260200190815260200160002060003373ffffffffffffffffffffffffffffffffffffffff1673ffffffffffffffffffffffffffffffffffffffff168152602001908152602001600020600201546145a0919061a285565b61271060e06000600c54815260200190815260200160002060003373ffffffffffffffffffffffffffffffffffffffff1673ffffffffffffffffffffffffffffffffffffffff16815260200190815260200160002060010154614603919061a22b565b61460d919061a089565b1061464d576040517f08c379a000000000000000000000000000000000000000000000000000000000815260040161464490619c02565b60405180910390fd5b8560e260008581526020019081526020016000206002016000828254614673919061a285565b925050819055508060e06000600c54815260200190815260200160002060003373ffffffffffffffffffffffffffffffffffffffff1673ffffffffffffffffffffffffffffffffffffffff16815260200190815260200160002060020160008282546146df919061a285565b92505081905550858773ffffffffffffffffffffffffffffffffffffffff166370a08231306040518263ffffffff1660e01b81526004016147209190619721565b60206040518083038186803b15801561473857600080fd5b505afa15801561474c573d6000803e3d6000fd5b505050506040513d601f19601f820116820180604052508101906147709190618f2b565b10156147d25761478c87600288614787919061a22b565b6171a8565b60006147cd576040517f08c379a00000000000000000000000000000000000000000000000000000000081526004016147c490619c62565b60405180910390fd5b614959565b84600c541461487e57600560009054906101000a900473ffffffffffffffffffffffffffffffffffffffff1673ffffffffffffffffffffffffffffffffffffffff1663241dc2df8886858a614827919061a285565b896040518563ffffffff1660e01b815260040161484794939291906197b8565b600060405180830381600087803b15801561486157600080fd5b505af1158015614875573d6000803e3d6000fd5b50505050614958565b8673ffffffffffffffffffffffffffffffffffffffff166323b872dd3086858a6148a8919061a285565b6040518463ffffffff1660e01b81526004016148c693929190619781565b602060405180830381600087803b1580156148e057600080fd5b505af11580156148f4573d6000803e3d6000fd5b505050506040513d601f19601f820116820180604052508101906149189190618d89565b614957576040517f08c379a000000000000000000000000000000000000000000000000000000000815260040161494e90619c22565b60405180910390fd5b5b5b6149c48660008060e460008c73ffffffffffffffffffffffffffffffffffffffff1673ffffffffffffffffffffffffffffffffffffffff16815260200190815260200160002060000160019054906101000a90046fffffffffffffffffffffffffffffffff1661727d565b6149cd33617472565b7fab8c9917d424586fd5d8b63bc0f89a035700c3234b1dc521a6fa0c510d23498e60e06000600c54815260200190815260200160002060003373ffffffffffffffffffffffffffffffffffffffff1673ffffffffffffffffffffffffffffffffffffffff168152602001908152602001600020604051614a4d9190619de2565b60405180910390a17f8c7cdad0d12a8db3e23561b42da6f10c8137914c97beff202213a410e1f520a38688604051614a86929190619e33565b60405180910390a1614a9733616d04565b5050506001808190555050505050565b614aaf615272565b614ab881617be8565b50565b614ac3615272565b600073ffffffffffffffffffffffffffffffffffffffff168173ffffffffffffffffffffffffffffffffffffffff161415614b33576040517f08c379a0000000000000000000000000000000000000000000000000000000008152600401614b2a90619b22565b60405180910390fd5b614b3c8161770a565b50565b600d5481565b600760009054906101000a900473ffffffffffffffffffffffffffffffffffffffff1681565b60e560003373ffffffffffffffffffffffffffffffffffffffff1673ffffffffffffffffffffffffffffffffffffffff16815260200190815260200160002060009054906101000a900460ff16614bf7576040517f08c379a0000000000000000000000000000000000000000000000000000000008152600401614bee90619ac2565b60405180910390fd5b60005b60e880549050811015614ea657600060e88281548110614c43577f4e487b7100000000000000000000000000000000000000000000000000000000600052603260045260246000fd5b9060005260206000200160009054906101000a900473ffffffffffffffffffffffffffffffffffffffff16905060005b60e760009054906101000a90046fffffffffffffffffffffffffffffffff166fffffffffffffffffffffffffffffffff16816fffffffffffffffffffffffffffffffff1611614e0057614d208260e36000846fffffffffffffffffffffffffffffffff166fffffffffffffffffffffffffffffffff16815260200190815260200160002060000160009054906101000a900473ffffffffffffffffffffffffffffffffffffffff16615caf565b50600d5460e06000600c54815260200190815260200160002060008473ffffffffffffffffffffffffffffffffffffffff1673ffffffffffffffffffffffffffffffffffffffff1681526020019081526020016000206003015410614ded57614de38260e36000846fffffffffffffffffffffffffffffffff166fffffffffffffffffffffffffffffffff16815260200190815260200160002060000160009054906101000a900473ffffffffffffffffffffffffffffffffffffffff16616380565b614dec82616879565b5b8080614df89061a524565b915050614c73565b507fab8c9917d424586fd5d8b63bc0f89a035700c3234b1dc521a6fa0c510d23498e60e06000600c54815260200190815260200160002060008373ffffffffffffffffffffffffffffffffffffffff1673ffffffffffffffffffffffffffffffffffffffff168152602001908152602001600020604051614e819190619de2565b60405180910390a1614e9281616d04565b508080614e9e9061a55d565b915050614bfa565b50565b60e06000600c54815260200190815260200160002060003373ffffffffffffffffffffffffffffffffffffffff1673ffffffffffffffffffffffffffffffffffffffff16815260200190815260200160002060000160149054906101000a900460ff166150ca576040518060e001604052803373ffffffffffffffffffffffffffffffffffffffff1681526020016001151581526020016000815260200160008152602001600081526020016000151581526020014281525060e06000600c54815260200190815260200160002060003373ffffffffffffffffffffffffffffffffffffffff1673ffffffffffffffffffffffffffffffffffffffff16815260200190815260200160002060008201518160000160006101000a81548173ffffffffffffffffffffffffffffffffffffffff021916908373ffffffffffffffffffffffffffffffffffffffff16021790555060208201518160000160146101000a81548160ff02191690831515021790555060408201518160010155606082015181600201556080820151816003015560a08201518160040160006101000a81548160ff02191690831515021790555060c0820151816005015590505060e8339080600181540180825580915050600190039060005260206000200160009091909190916101000a81548173ffffffffffffffffffffffffffffffffffffffff021916908373ffffffffffffffffffffffffffffffffffffffff1602179055505b60e06000600c54815260200190815260200160002060003373ffffffffffffffffffffffffffffffffffffffff1673ffffffffffffffffffffffffffffffffffffffff16815260200190815260200160002060000160149054906101000a900460ff1661516c576040517f08c379a000000000000000000000000000000000000000000000000000000000815260040161516390619d02565b60405180910390fd5b60e06000600c54815260200190815260200160002060003373ffffffffffffffffffffffffffffffffffffffff1673ffffffffffffffffffffffffffffffffffffffff16815260200190815260200160002060040160009054906101000a900460ff161561520f576040517f08c379a000000000000000000000000000000000000000000000000000000000815260040161520690619ce2565b60405180910390fd5b60026001541415615255576040517f08c379a000000000000000000000000000000000000000000000000000000000815260040161524c90619d42565b60405180910390fd5b600260018190555061526782826156e6565b600180819055505050565b61527a617c6f565b73ffffffffffffffffffffffffffffffffffffffff166152986135e2565b73ffffffffffffffffffffffffffffffffffffffff16146152ee576040517f08c379a00000000000000000000000000000000000000000000000000000000081526004016152e590619be2565b60405180910390fd5b565b80607c60006101000a81548173ffffffffffffffffffffffffffffffffffffffff021916908373ffffffffffffffffffffffffffffffffffffffff1602179055508073ffffffffffffffffffffffffffffffffffffffff167f7c10de8878ed89478ff01b9cd8c11a5271ea8ac91d46f662e6aea7e3adf5b11f60405160405180910390a250565b600080615425600660009054906101000a900473ffffffffffffffffffffffffffffffffffffffff1673ffffffffffffffffffffffffffffffffffffffff1663313ce5676040518163ffffffff1660e01b815260040160206040518083038186803b1580156153e557600080fd5b505afa1580156153f9573d6000803e3d6000fd5b505050506040513d601f19601f8201168201806040525081019061541d9190619085565b60ff166156d0565b9050600660009054906101000a900473ffffffffffffffffffffffffffffffffffffffff1673ffffffffffffffffffffffffffffffffffffffff168473ffffffffffffffffffffffffffffffffffffffff16146154cb5761548584617c77565b9050600081116154ca576040517f08c379a00000000000000000000000000000000000000000000000000000000081526004016154c190619bc2565b60405180910390fd5b5b615576600660009054906101000a900473ffffffffffffffffffffffffffffffffffffffff1673ffffffffffffffffffffffffffffffffffffffff1663313ce5676040518163ffffffff1660e01b815260040160206040518083038186803b15801561553657600080fd5b505afa15801561554a573d6000803e3d6000fd5b505050506040513d601f19601f8201168201806040525081019061556e9190619085565b60ff166156d0565b6155ff8573ffffffffffffffffffffffffffffffffffffffff1663313ce5676040518163ffffffff1660e01b815260040160206040518083038186803b1580156155bf57600080fd5b505afa1580156155d3573d6000803e3d6000fd5b505050506040513d601f19601f820116820180604052508101906155f79190619085565b60ff166156d0565b848360008054906101000a900473ffffffffffffffffffffffffffffffffffffffff1673ffffffffffffffffffffffffffffffffffffffff166350d25bcd6040518163ffffffff1660e01b815260040160206040518083038186803b15801561566757600080fd5b505afa15801561567b573d6000803e3d6000fd5b505050506040513d601f19601f8201168201806040525081019061569f9190618e49565b6156a9919061a22b565b6156b3919061a22b565b6156bd919061a089565b6156c7919061a22b565b91505092915050565b600081600a6156df919061a10d565b9050919050565b60e460008373ffffffffffffffffffffffffffffffffffffffff1673ffffffffffffffffffffffffffffffffffffffff16815260200190815260200160002060000160009054906101000a900460ff16615775576040517f08c379a000000000000000000000000000000000000000000000000000000000815260040161576c90619da2565b60405180910390fd5b60003383600360405160200161578d939291906196e8565b6040516020818303038152906040528051906020012090506000612710836004546157b8919061a22b565b6157c2919061a089565b905060006157db8583866157d6919061a285565b615377565b905060058111615820576040517f08c379a000000000000000000000000000000000000000000000000000000000815260040161581790619d22565b60405180910390fd5b61582933616879565b60e2600084815260200190815260200160002060010160149054906101000a900460ff161561588f57818461585e919061a285565b60e260008581526020019081526020016000206002016000828254615883919061a033565b925050819055506159b9565b60405180608001604052803373ffffffffffffffffffffffffffffffffffffffff1681526020018673ffffffffffffffffffffffffffffffffffffffff16815260200160011515815260200183866158e7919061a285565b81525060e2600085815260200190815260200160002060008201518160000160006101000a81548173ffffffffffffffffffffffffffffffffffffffff021916908373ffffffffffffffffffffffffffffffffffffffff16021790555060208201518160010160006101000a81548173ffffffffffffffffffffffffffffffffffffffff021916908373ffffffffffffffffffffffffffffffffffffffff16021790555060408201518160010160146101000a81548160ff021916908315150217905550606082015181600201559050505b8060e06000600c54815260200190815260200160002060003373ffffffffffffffffffffffffffffffffffffffff1673ffffffffffffffffffffffffffffffffffffffff1681526020019081526020016000206002016000828254615a1e919061a033565b92505081905550615a9c8285615a34919061a285565b6000600160e460008a73ffffffffffffffffffffffffffffffffffffffff1673ffffffffffffffffffffffffffffffffffffffff16815260200190815260200160002060000160019054906101000a90046fffffffffffffffffffffffffffffffff1661727d565b8473ffffffffffffffffffffffffffffffffffffffff166323b872dd3330876040518463ffffffff1660e01b8152600401615ad993929190619781565b602060405180830381600087803b158015615af357600080fd5b505af1158015615b07573d6000803e3d6000fd5b505050506040513d601f19601f82011682018060405250810190615b2b9190618d89565b615b6a576040517f08c379a0000000000000000000000000000000000000000000000000000000008152600401615b6190619b62565b60405180910390fd5b615b7333617472565b7fab8c9917d424586fd5d8b63bc0f89a035700c3234b1dc521a6fa0c510d23498e60e06000600c54815260200190815260200160002060003373ffffffffffffffffffffffffffffffffffffffff1673ffffffffffffffffffffffffffffffffffffffff168152602001908152602001600020604051615bf39190619de2565b60405180910390a17f6e47dcdd359b6cd69456f0f97d394bd4540a2e7c4adc1b9da076859df53756c78486604051615c2c929190619e33565b60405180910390a1615c3d33616d04565b5050505050565b60005b60e760009054906101000a90046fffffffffffffffffffffffffffffffff166fffffffffffffffffffffffffffffffff16816fffffffffffffffffffffffffffffffff1611615cac57615c99816182c4565b8080615ca49061a524565b915050615c47565b50565b60008062278d0090508060e06000600c54815260200190815260200160002060008673ffffffffffffffffffffffffffffffffffffffff1673ffffffffffffffffffffffffffffffffffffffff1681526020019081526020016000206005015442615d1a919061a285565b1015615d2a57600091505061637a565b600084846003604051602001615d42939291906196e8565b604051602081830303815290604052805190602001209050600082615dc460e460008873ffffffffffffffffffffffffffffffffffffffff1673ffffffffffffffffffffffffffffffffffffffff16815260200190815260200160002060000160019054906101000a90046fffffffffffffffffffffffffffffffff1661154f565b615dce919061a22b565b9050600083615e3a60e460008973ffffffffffffffffffffffffffffffffffffffff1673ffffffffffffffffffffffffffffffffffffffff16815260200190815260200160002060000160019054906101000a90046fffffffffffffffffffffffffffffffff16613bf5565b615e44919061a22b565b9050600061271060e06000600c54815260200190815260200160002060008a73ffffffffffffffffffffffffffffffffffffffff1673ffffffffffffffffffffffffffffffffffffffff168152602001908152602001600020600201546002600454615eb0919061a22b565b615eba919061a22b565b615ec4919061a089565b905061271060e260008681526020019081526020016000206002015483615eeb919061a22b565b615ef5919061a089565b60e260008681526020019081526020016000206002016000828254615f1a919061a033565b9250508190555061271060e160008681526020019081526020016000206002015484615f46919061a22b565b615f50919061a089565b60e160008681526020019081526020016000206002016000828254615f75919061a033565b925050819055508061271060e06000600c54815260200190815260200160002060008b73ffffffffffffffffffffffffffffffffffffffff1673ffffffffffffffffffffffffffffffffffffffff1681526020019081526020016000206002015484615fe1919061a22b565b615feb919061a089565b615ff5919061a285565b60e06000600c54815260200190815260200160002060008a73ffffffffffffffffffffffffffffffffffffffff1673ffffffffffffffffffffffffffffffffffffffff1681526020019081526020016000206002016000828254616059919061a033565b9250508190555061271060e06000600c54815260200190815260200160002060008a73ffffffffffffffffffffffffffffffffffffffff1673ffffffffffffffffffffffffffffffffffffffff16815260200190815260200160002060010154846160c4919061a22b565b6160ce919061a089565b60e06000600c54815260200190815260200160002060008a73ffffffffffffffffffffffffffffffffffffffff1673ffffffffffffffffffffffffffffffffffffffff1681526020019081526020016000206001016000828254616132919061a033565b925050819055504260e06000600c54815260200190815260200160002060008a73ffffffffffffffffffffffffffffffffffffffff1673ffffffffffffffffffffffffffffffffffffffff16815260200190815260200160002060050181905550600060e06000600c54815260200190815260200160002060008a73ffffffffffffffffffffffffffffffffffffffff1673ffffffffffffffffffffffffffffffffffffffff16815260200190815260200160002060020154111561630d5760e06000600c54815260200190815260200160002060008973ffffffffffffffffffffffffffffffffffffffff1673ffffffffffffffffffffffffffffffffffffffff168152602001908152602001600020600201546162a560e06000600c54815260200190815260200160002060008b73ffffffffffffffffffffffffffffffffffffffff1673ffffffffffffffffffffffffffffffffffffffff16815260200190815260200160002060010154613fd0565b6162af919061a089565b60e06000600c54815260200190815260200160002060008a73ffffffffffffffffffffffffffffffffffffffff1673ffffffffffffffffffffffffffffffffffffffff16815260200190815260200160002060030181905550616369565b600060e06000600c54815260200190815260200160002060008a73ffffffffffffffffffffffffffffffffffffffff1673ffffffffffffffffffffffffffffffffffffffff168152602001908152602001600020600301819055505b42600e819055506001955050505050505b92915050565b600d5460e06000600c54815260200190815260200160002060008473ffffffffffffffffffffffffffffffffffffffff1673ffffffffffffffffffffffffffffffffffffffff1681526020019081526020016000206003015410616419576040517f08c379a000000000000000000000000000000000000000000000000000000000815260040161641090619c42565b60405180910390fd5b61642282617472565b60008282600360405160200161643a939291906196e8565b60405160208183030381529060405280519060200120905060006164748360e2600085815260200190815260200160002060020154615377565b9050600061271082600560045461648b919061a22b565b616495919061a22b565b61649f919061a089565b9050600060e260008581526020019081526020016000206002018190555080826164c9919061a285565b60e060007f000000000000000000000000000000000000000000000000000000000000000063ffffffff16815260200190815260200160002060008773ffffffffffffffffffffffffffffffffffffffff1673ffffffffffffffffffffffffffffffffffffffff1681526020019081526020016000206002016000828254616551919061a285565b925050819055508160e060007f000000000000000000000000000000000000000000000000000000000000000063ffffffff16815260200190815260200160002060008773ffffffffffffffffffffffffffffffffffffffff1673ffffffffffffffffffffffffffffffffffffffff16815260200190815260200160002060010160008282546165e1919061a285565b92505081905550600060e060007f000000000000000000000000000000000000000000000000000000000000000063ffffffff16815260200190815260200160002060008773ffffffffffffffffffffffffffffffffffffffff1673ffffffffffffffffffffffffffffffffffffffff1681526020019081526020016000206002015411156167f25760e060007f000000000000000000000000000000000000000000000000000000000000000063ffffffff16815260200190815260200160002060008673ffffffffffffffffffffffffffffffffffffffff1673ffffffffffffffffffffffffffffffffffffffff1681526020019081526020016000206002015461676660e060007f000000000000000000000000000000000000000000000000000000000000000063ffffffff16815260200190815260200160002060008873ffffffffffffffffffffffffffffffffffffffff1673ffffffffffffffffffffffffffffffffffffffff16815260200190815260200160002060010154613fd0565b616770919061a089565b60e060007f000000000000000000000000000000000000000000000000000000000000000063ffffffff16815260200190815260200160002060008773ffffffffffffffffffffffffffffffffffffffff1673ffffffffffffffffffffffffffffffffffffffff16815260200190815260200160002060030181905550616872565b600060e060007f000000000000000000000000000000000000000000000000000000000000000063ffffffff16815260200190815260200160002060008773ffffffffffffffffffffffffffffffffffffffff1673ffffffffffffffffffffffffffffffffffffffff168152602001908152602001600020600301819055505b5050505050565b60008060005b60e760009054906101000a90046fffffffffffffffffffffffffffffffff166fffffffffffffffffffffffffffffffff16816fffffffffffffffffffffffffffffffff1611616a745760008460e36000846fffffffffffffffffffffffffffffffff166fffffffffffffffffffffffffffffffff16815260200190815260200160002060000160009054906101000a900473ffffffffffffffffffffffffffffffffffffffff16600360405160200161693a939291906196e8565b6040516020818303038152906040528051906020012090506169cc60e36000846fffffffffffffffffffffffffffffffff166fffffffffffffffffffffffffffffffff16815260200190815260200160002060000160009054906101000a900473ffffffffffffffffffffffffffffffffffffffff1660e2600084815260200190815260200160002060020154615377565b846169d7919061a033565b9350616a5360e36000846fffffffffffffffffffffffffffffffff166fffffffffffffffffffffffffffffffff16815260200190815260200160002060000160009054906101000a900473ffffffffffffffffffffffffffffffffffffffff1660e1600084815260200190815260200160002060020154615377565b83616a5e919061a033565b9250508080616a6c9061a524565b91505061687f565b508060e06000600c54815260200190815260200160002060008573ffffffffffffffffffffffffffffffffffffffff1673ffffffffffffffffffffffffffffffffffffffff168152602001908152602001600020600101819055508160e06000600c54815260200190815260200160002060008573ffffffffffffffffffffffffffffffffffffffff1673ffffffffffffffffffffffffffffffffffffffff16815260200190815260200160002060020181905550600060e06000600c54815260200190815260200160002060008573ffffffffffffffffffffffffffffffffffffffff1673ffffffffffffffffffffffffffffffffffffffff168152602001908152602001600020600201541115616ca35760e06000600c54815260200190815260200160002060008473ffffffffffffffffffffffffffffffffffffffff1673ffffffffffffffffffffffffffffffffffffffff16815260200190815260200160002060020154616c3b60e06000600c54815260200190815260200160002060008673ffffffffffffffffffffffffffffffffffffffff1673ffffffffffffffffffffffffffffffffffffffff16815260200190815260200160002060010154613fd0565b616c45919061a089565b60e06000600c54815260200190815260200160002060008573ffffffffffffffffffffffffffffffffffffffff1673ffffffffffffffffffffffffffffffffffffffff16815260200190815260200160002060030181905550616cff565b600060e06000600c54815260200190815260200160002060008573ffffffffffffffffffffffffffffffffffffffff1673ffffffffffffffffffffffffffffffffffffffff168152602001908152602001600020600301819055505b505050565b60005b60eb80549050811015616ea957616e9660eb8281548110616d51577f4e487b7100000000000000000000000000000000000000000000000000000000600052603260045260246000fd5b90600052602060002090600891828204019190066004029054906101000a900463ffffffff168360e060007f000000000000000000000000000000000000000000000000000000000000000063ffffffff16815260200190815260200160002060008673ffffffffffffffffffffffffffffffffffffffff1673ffffffffffffffffffffffffffffffffffffffff1681526020019081526020016000206002015460e060007f000000000000000000000000000000000000000000000000000000000000000063ffffffff16815260200190815260200160002060008773ffffffffffffffffffffffffffffffffffffffff1673ffffffffffffffffffffffffffffffffffffffff16815260200190815260200160002060010154604051602001616e7e9392919061994a565b604051602081830303815290604052629896806183a3565b8080616ea19061a55d565b915050616d07565b5050565b6000607c60009054906101000a900473ffffffffffffffffffffffffffffffffffffffff1673ffffffffffffffffffffffffffffffffffffffff1663282f51eb836040518263ffffffff1660e01b8152600401616f0a9190619721565b60206040518083038186803b158015616f2257600080fd5b505afa158015616f36573d6000803e3d6000fd5b505050506040513d601f19601f82011682018060405250810190616f5a9190618d89565b9050919050565b60008160ae60008563ffffffff1663ffffffff1681526020019081526020016000205414905092915050565b60e660008463ffffffff16815260200190815260200160002060020160049054906101000a900460ff16156171a357600080600083806020019051810190616fd59190618b00565b92509250925060e060007f000000000000000000000000000000000000000000000000000000000000000063ffffffff16815260200190815260200160002060008473ffffffffffffffffffffffffffffffffffffffff1673ffffffffffffffffffffffffffffffffffffffff16815260200190815260200160002060000160149054906101000a900460ff161561709d5761708f83838360e660008b63ffffffff1681526020019081526020016000206001015461782c565b61709883617472565b61719f565b8160026170aa919061a22b565b8373ffffffffffffffffffffffffffffffffffffffff166370a08231306040518263ffffffff1660e01b81526004016170e39190619721565b60206040518083038186803b1580156170fb57600080fd5b505afa15801561710f573d6000803e3d6000fd5b505050506040513d601f19601f820116820180604052508101906171339190618f2b565b111561719e5761719d838360e660008a63ffffffff1681526020019081526020016000206001015460e660008b63ffffffff16815260200190815260200160002060000160009054906101000a900473ffffffffffffffffffffffffffffffffffffffff16618461565b5b5b5050505b505050565b60005b60eb805490508110156172785761726560eb82815481106171f5577f4e487b7100000000000000000000000000000000000000000000000000000000600052603260045260246000fd5b90600052602060002090600891828204019190066004029054906101000a900463ffffffff1684600160eb8054905061722e919061a285565b85617239919061a089565b600060405160200161724d93929190619913565b604051602081830303815290604052629896806183a3565b80806172709061a55d565b9150506171ab565b505050565b82156173755781156172df578360e36000836fffffffffffffffffffffffffffffffff166fffffffffffffffffffffffffffffffff16815260200190815260200160002060020160008282546172d3919061a285565b92505081905550617331565b8360e36000836fffffffffffffffffffffffffffffffff166fffffffffffffffffffffffffffffffff1681526020019081526020016000206002016000828254617329919061a033565b925050819055505b4260e36000836fffffffffffffffffffffffffffffffff166fffffffffffffffffffffffffffffffff16815260200190815260200160002060030181905550617463565b81156173d1578360e36000836fffffffffffffffffffffffffffffffff166fffffffffffffffffffffffffffffffff16815260200190815260200160002060010160008282546173c5919061a033565b92505081905550617423565b8360e36000836fffffffffffffffffffffffffffffffff166fffffffffffffffffffffffffffffffff168152602001908152602001600020600101600082825461741b919061a285565b925050819055505b4260e36000836fffffffffffffffffffffffffffffffff166fffffffffffffffffffffffffffffffff168152602001908152602001600020600401819055505b61746c816182c4565b50505050565b61747b81616879565b60008060005b60eb80549050816fffffffffffffffffffffffffffffffff16101561760857600060e6600060eb846fffffffffffffffffffffffffffffffff16815481106174f2577f4e487b7100000000000000000000000000000000000000000000000000000000600052603260045260246000fd5b90600052602060002090600891828204019190066004029054906101000a900463ffffffff1663ffffffff16815260200190815260200160002060010154905060e0600082815260200190815260200160002060008673ffffffffffffffffffffffffffffffffffffffff1673ffffffffffffffffffffffffffffffffffffffff1681526020019081526020016000206001015484617591919061a033565b935060e0600082815260200190815260200160002060008673ffffffffffffffffffffffffffffffffffffffff1673ffffffffffffffffffffffffffffffffffffffff16815260200190815260200160002060020154836175f2919061a033565b92505080806176009061a524565b915050617481565b508060e060007f000000000000000000000000000000000000000000000000000000000000000063ffffffff16815260200190815260200160002060008573ffffffffffffffffffffffffffffffffffffffff1673ffffffffffffffffffffffffffffffffffffffff168152602001908152602001600020600101819055508160e060007f000000000000000000000000000000000000000000000000000000000000000063ffffffff16815260200190815260200160002060008573ffffffffffffffffffffffffffffffffffffffff1673ffffffffffffffffffffffffffffffffffffffff16815260200190815260200160002060020181905550505050565b6000604a60009054906101000a900473ffffffffffffffffffffffffffffffffffffffff16905081604a60006101000a81548173ffffffffffffffffffffffffffffffffffffffff021916908373ffffffffffffffffffffffffffffffffffffffff1602179055508173ffffffffffffffffffffffffffffffffffffffff168173ffffffffffffffffffffffffffffffffffffffff167f8be0079c531659141344cd1fd0a4f28419497f9722a3daafe3b4186f6b6457e060405160405180910390a35050565b8060ae60008463ffffffff1663ffffffff16815260200190815260200160002081905550808263ffffffff167f97fd51fef1f80c854cbd0150c248e8b2ac4ecdc97cc05e742b5f61c9f4dc645860405160405180910390a35050565b60008084111561784d578361784084613fd0565b61784a919061a089565b90505b60e0600083815260200190815260200160002060008673ffffffffffffffffffffffffffffffffffffffff1673ffffffffffffffffffffffffffffffffffffffff16815260200190815260200160002060000160149054906101000a900460ff1615617a2c578360e0600084815260200190815260200160002060008773ffffffffffffffffffffffffffffffffffffffff1673ffffffffffffffffffffffffffffffffffffffff168152602001908152602001600020600201819055508260e0600084815260200190815260200160002060008773ffffffffffffffffffffffffffffffffffffffff1673ffffffffffffffffffffffffffffffffffffffff168152602001908152602001600020600101819055508060e0600084815260200190815260200160002060008773ffffffffffffffffffffffffffffffffffffffff1673ffffffffffffffffffffffffffffffffffffffff16815260200190815260200160002060030181905550600060e0600084815260200190815260200160002060008773ffffffffffffffffffffffffffffffffffffffff1673ffffffffffffffffffffffffffffffffffffffff16815260200190815260200160002060040160006101000a81548160ff021916908315150217905550617be1565b60e8859080600181540180825580915050600190039060005260206000200160009091909190916101000a81548173ffffffffffffffffffffffffffffffffffffffff021916908373ffffffffffffffffffffffffffffffffffffffff1602179055506040518060e001604052808673ffffffffffffffffffffffffffffffffffffffff1681526020016001151581526020018481526020018581526020018281526020016000151581526020014281525060e0600084815260200190815260200160002060008773ffffffffffffffffffffffffffffffffffffffff1673ffffffffffffffffffffffffffffffffffffffff16815260200190815260200160002060008201518160000160006101000a81548173ffffffffffffffffffffffffffffffffffffffff021916908373ffffffffffffffffffffffffffffffffffffffff16021790555060208201518160000160146101000a81548160ff02191690831515021790555060408201518160010155606082015181600201556080820151816003015560a08201518160040160006101000a81548160ff02191690831515021790555060c082015181600501559050505b5050505050565b80607d60006101000a81548173ffffffffffffffffffffffffffffffffffffffff021916908373ffffffffffffffffffffffffffffffffffffffff1602179055508073ffffffffffffffffffffffffffffffffffffffff167fb87f5a0bface22cde699143559fb99f990ae54eea236995fc54178af91af859f60405160405180910390a250565b600033905090565b600080617d038373ffffffffffffffffffffffffffffffffffffffff1663313ce5676040518163ffffffff1660e01b815260040160206040518083038186803b158015617cc357600080fd5b505afa158015617cd7573d6000803e3d6000fd5b505050506040513d601f19601f82011682018060405250810190617cfb9190619085565b60ff166156d0565b90506000600267ffffffffffffffff811115617d48577f4e487b7100000000000000000000000000000000000000000000000000000000600052604160045260246000fd5b604051908082528060200260200182016040528015617d765781602001602082028036833780820191505090505b5090508381600081518110617db4577f4e487b7100000000000000000000000000000000000000000000000000000000600052603260045260246000fd5b602002602001019073ffffffffffffffffffffffffffffffffffffffff16908173ffffffffffffffffffffffffffffffffffffffff1681525050600660009054906101000a900473ffffffffffffffffffffffffffffffffffffffff1681600181518110617e4b577f4e487b7100000000000000000000000000000000000000000000000000000000600052603260045260246000fd5b602002602001019073ffffffffffffffffffffffffffffffffffffffff16908173ffffffffffffffffffffffffffffffffffffffff16815250506000617ec0836001617e97919061a22b565b600260009054906101000a900473ffffffffffffffffffffffffffffffffffffffff16846184fa565b90506000811115617ed6578093505050506182bf565b600367ffffffffffffffff811115617f17577f4e487b7100000000000000000000000000000000000000000000000000000000600052604160045260246000fd5b604051908082528060200260200182016040528015617f455781602001602082028036833780820191505090505b5091508482600081518110617f83577f4e487b7100000000000000000000000000000000000000000000000000000000600052603260045260246000fd5b602002602001019073ffffffffffffffffffffffffffffffffffffffff16908173ffffffffffffffffffffffffffffffffffffffff1681525050600760009054906101000a900473ffffffffffffffffffffffffffffffffffffffff168260018151811061801a577f4e487b7100000000000000000000000000000000000000000000000000000000600052603260045260246000fd5b602002602001019073ffffffffffffffffffffffffffffffffffffffff16908173ffffffffffffffffffffffffffffffffffffffff1681525050600660009054906101000a900473ffffffffffffffffffffffffffffffffffffffff16826002815181106180b1577f4e487b7100000000000000000000000000000000000000000000000000000000600052603260045260246000fd5b602002602001019073ffffffffffffffffffffffffffffffffffffffff16908173ffffffffffffffffffffffffffffffffffffffff16815250506181248360016180fb919061a22b565b600260009054906101000a900473ffffffffffffffffffffffffffffffffffffffff16846184fa565b9050600081111561813a578093505050506182bf565b600860009054906101000a900473ffffffffffffffffffffffffffffffffffffffff1682600181518110618197577f4e487b7100000000000000000000000000000000000000000000000000000000600052603260045260246000fd5b602002602001019073ffffffffffffffffffffffffffffffffffffffff16908173ffffffffffffffffffffffffffffffffffffffff1681525050600660009054906101000a900473ffffffffffffffffffffffffffffffffffffffff168260028151811061822e577f4e487b7100000000000000000000000000000000000000000000000000000000600052603260045260246000fd5b602002602001019073ffffffffffffffffffffffffffffffffffffffff16908173ffffffffffffffffffffffffffffffffffffffff16815250506182a1836001618278919061a22b565b600260009054906101000a900473ffffffffffffffffffffffffffffffffffffffff16846184fa565b905060008111156182b7578093505050506182bf565b600093505050505b919050565b60e36000826fffffffffffffffffffffffffffffffff166fffffffffffffffffffffffffffffffff16815260200190815260200160002060000160149054906101000a900460ff16156183a05761831a8161154f565b60e36000836fffffffffffffffffffffffffffffffff166fffffffffffffffffffffffffffffffff1681526020019081526020016000206005018190555061836181613bf5565b60e36000836fffffffffffffffffffffffffffffffff166fffffffffffffffffffffffffffffffff168152602001908152602001600020600601819055505b50565b60006183ad6185e7565b905060006183bc82868661868e565b9050600083111561845a57607d60009054906101000a900473ffffffffffffffffffffffffffffffffffffffff1673ffffffffffffffffffffffffffffffffffffffff1663a5703c8e848484896040518563ffffffff1660e01b815260040161842793929190619981565b6000604051808303818588803b15801561844057600080fd5b505af1158015618454573d6000803e3d6000fd5b50505050505b5050505050565b600560009054906101000a900473ffffffffffffffffffffffffffffffffffffffff1673ffffffffffffffffffffffffffffffffffffffff1663241dc2df858386866040518563ffffffff1660e01b81526004016184c294939291906197b8565b600060405180830381600087803b1580156184dc57600080fd5b505af11580156184f0573d6000803e3d6000fd5b5050505050505050565b6000808373ffffffffffffffffffffffffffffffffffffffff1663d06ca61f86856040518363ffffffff1660e01b8152600401618538929190619e5c565b60006040518083038186803b15801561855057600080fd5b505afa158015618564573d6000803e3d6000fd5b505050506040513d6000823e3d601f19601f8201168201806040525081019061858d9190618d48565b9050806001825161859e919061a285565b815181106185d5577f4e487b7100000000000000000000000000000000000000000000000000000000600052603260045260246000fd5b60200260200101519150509392505050565b6000607c60009054906101000a900473ffffffffffffffffffffffffffffffffffffffff1673ffffffffffffffffffffffffffffffffffffffff1663ce11e6ab6040518163ffffffff1660e01b815260040160206040518083038186803b15801561865157600080fd5b505afa158015618665573d6000803e3d6000fd5b505050506040513d601f19601f820116820180604052508101906186899190618e20565b905090565b60008061869a84618735565b90508473ffffffffffffffffffffffffffffffffffffffff1663fa31de018583866040518463ffffffff1660e01b81526004016186d993929190619ea7565b602060405180830381600087803b1580156186f357600080fd5b505af1158015618707573d6000803e3d6000fd5b505050506040513d601f19601f8201168201806040525081019061872b9190618f2b565b9150509392505050565b600060ae60008363ffffffff1663ffffffff1681526020019081526020016000205490506000801b81141561879f576040517f08c379a000000000000000000000000000000000000000000000000000000000815260040161879690619ca2565b60405180910390fd5b919050565b60006187b76187b284619f0a565b619ee5565b905080838252602082019050828560208602820111156187d657600080fd5b60005b8581101561880657816187ec8882618a83565b8452602084019350602083019250506001810190506187d9565b5050509392505050565b600061882361881e84619f36565b619ee5565b90508281526020810184848401111561883b57600080fd5b61884684828561a417565b509392505050565b60008135905061885d8161ac48565b92915050565b6000815190506188728161ac5f565b92915050565b60008083601f84011261888a57600080fd5b8235905067ffffffffffffffff8111156188a357600080fd5b6020830191508360608202830111156188bb57600080fd5b9250929050565b600082601f8301126188d357600080fd5b81516188e38482602086016187a4565b91505092915050565b6000813590506188fb8161ac76565b92915050565b6000815190506189108161ac76565b92915050565b6000813590506189258161ac8d565b92915050565b60008083601f84011261893d57600080fd5b8235905067ffffffffffffffff81111561895657600080fd5b60208301915083600182028301111561896e57600080fd5b9250929050565b600082601f83011261898657600080fd5b8135618996848260208601618810565b91505092915050565b6000815190506189ae8161aca4565b92915050565b6000815190506189c38161acbb565b92915050565b6000608082840312156189db57600080fd5b6189e56080619ee5565b905060006189f58482850161884e565b6000830152506020618a0984828501618a6e565b6020830152506040618a1d84828501618a98565b6040830152506060618a31848285016188ec565b60608301525092915050565b60006101008284031215618a5057600080fd5b81905092915050565b600081359050618a688161acd2565b92915050565b600081359050618a7d8161ace9565b92915050565b600081519050618a928161ace9565b92915050565b600081359050618aa78161ad00565b92915050565b600081359050618abc8161ad17565b92915050565b600081519050618ad18161ad2e565b92915050565b600060208284031215618ae957600080fd5b6000618af78482850161884e565b91505092915050565b600080600060608486031215618b1557600080fd5b6000618b2386828701618863565b9350506020618b3486828701618a83565b9250506040618b4586828701618a83565b9150509250925092565b60008060408385031215618b6257600080fd5b6000618b708582860161884e565b9250506020618b818582860161884e565b9150509250929050565b60008060408385031215618b9e57600080fd5b6000618bac8582860161884e565b9250506020618bbd85828601618a6e565b9150509250929050565b60008060008060808587031215618bdd57600080fd5b6000618beb8782880161884e565b9450506020618bfc87828801618a6e565b9350506040618c0d8782880161884e565b9250506060618c1e87828801618a6e565b91505092959194509250565b60008060008060808587031215618c4057600080fd5b6000618c4e8782880161884e565b9450506020618c5f87828801618a6e565b9350506040618c7087828801618a6e565b9250506060618c818782880161884e565b91505092959194509250565b60008060008060808587031215618ca357600080fd5b6000618cb18782880161884e565b9450506020618cc287828801618a6e565b9350506040618cd387828801618a6e565b9250506060618ce487828801618a6e565b91505092959194509250565b600080600060408486031215618d0557600080fd5b600084013567ffffffffffffffff811115618d1f57600080fd5b618d2b86828701618878565b93509350506020618d3e86828701618a6e565b9150509250925092565b600060208284031215618d5a57600080fd5b600082015167ffffffffffffffff811115618d7457600080fd5b618d80848285016188c2565b91505092915050565b600060208284031215618d9b57600080fd5b6000618da984828501618901565b91505092915050565b600060208284031215618dc457600080fd5b6000618dd284828501618916565b91505092915050565b60008060208385031215618dee57600080fd5b600083013567ffffffffffffffff811115618e0857600080fd5b618e148582860161892b565b92509250509250929050565b600060208284031215618e3257600080fd5b6000618e408482850161899f565b91505092915050565b600060208284031215618e5b57600080fd5b6000618e69848285016189b4565b91505092915050565b600060808284031215618e8457600080fd5b6000618e92848285016189c9565b91505092915050565b6000806101208385031215618eaf57600080fd5b6000618ebd85828601618a3d565b925050610100618ecf8582860161884e565b9150509250929050565b600060208284031215618eeb57600080fd5b6000618ef984828501618a59565b91505092915050565b600060208284031215618f1457600080fd5b6000618f2284828501618a6e565b91505092915050565b600060208284031215618f3d57600080fd5b6000618f4b84828501618a83565b91505092915050565b60008060408385031215618f6757600080fd5b6000618f7585828601618a6e565b9250506020618f868582860161884e565b9150509250929050565b600060208284031215618fa257600080fd5b6000618fb084828501618a98565b91505092915050565b60008060408385031215618fcc57600080fd5b6000618fda85828601618a98565b9250506020618feb85828601618916565b9150509250929050565b60008060006060848603121561900a57600080fd5b600061901886828701618a98565b935050602061902986828701618916565b925050604084013567ffffffffffffffff81111561904657600080fd5b61905286828701618975565b9150509250925092565b60006020828403121561906e57600080fd5b600061907c84828501618aad565b91505092915050565b60006020828403121561909757600080fd5b60006190a584828501618ac2565b91505092915050565b60006190ba83836190c6565b60208301905092915050565b6190cf8161a2f0565b82525050565b6190de8161a2f0565b82525050565b6190f56190f08261a2f0565b61a5a6565b82525050565b600061910682619f8c565b6191108185619faf565b935061911b83619f67565b8060005b8381101561914c57815161913388826190ae565b975061913e83619fa2565b92505060018101905061911f565b5085935050505092915050565b6191628161a314565b82525050565b6191718161a314565b82525050565b6191808161a320565b82525050565b600061919182619f97565b61919b8185619fc0565b93506191ab81856020860161a426565b6191b48161a686565b840191505092915050565b6191c88161a3bd565b82525050565b6191d78161a3e1565b82525050565b6191e68161a405565b82525050565b600081546191f98161a459565b6192038186619fe2565b9450600182166000811461921e576001811461922f57619262565b60ff19831686528186019350619262565b61923885619f77565b60005b8381101561925a5781548189015260018201915060208101905061923b565b838801955050505b50505092915050565b6000619278602f83619fd1565b91506192838261a6cb565b604082019050919050565b600061929b601483619fd1565b91506192a68261a71a565b602082019050919050565b60006192be603883619fd1565b91506192c98261a743565b604082019050919050565b60006192e1602683619fd1565b91506192ec8261a792565b604082019050919050565b6000619304601483619fd1565b915061930f8261a7e1565b602082019050919050565b6000619327602283619fd1565b91506193328261a80a565b604082019050919050565b600061934a601983619fd1565b91506193558261a859565b602082019050919050565b600061936d600e83619fd1565b91506193788261a882565b602082019050919050565b6000619390602683619fd1565b915061939b8261a8ab565b604082019050919050565b60006193b3602083619fd1565b91506193be8261a8fa565b602082019050919050565b60006193d6602283619fd1565b91506193e18261a923565b604082019050919050565b60006193f9601383619fd1565b91506194048261a972565b602082019050919050565b600061941c601883619fd1565b91506194278261a99b565b602082019050919050565b600061943f604683619fd1565b915061944a8261a9c4565b606082019050919050565b6000619462600683619fd1565b915061946d8261aa39565b602082019050919050565b6000619485600783619fd1565b91506194908261aa62565b602082019050919050565b60006194a8601483619fd1565b91506194b38261aa8b565b602082019050919050565b60006194cb602f83619fd1565b91506194d68261aab4565b604082019050919050565b60006194ee601783619fd1565b91506194f98261ab03565b602082019050919050565b6000619511603783619fd1565b915061951c8261ab2c565b604082019050919050565b6000619534601f83619fd1565b915061953f8261ab7b565b602082019050919050565b6000619557600e83619fd1565b91506195628261aba4565b602082019050919050565b600061957a601883619fd1565b91506195858261abcd565b602082019050919050565b600061959d601483619fd1565b91506195a88261abf6565b602082019050919050565b60006195c0601883619fd1565b91506195cb8261ac1f565b602082019050919050565b60e0820160008083015490506195eb8161a48b565b6195f860008601826190c6565b506196028161a4d9565b61960f6020860182619159565b50600183015490506196208161a4bf565b61962d60408601826196bb565b506002830154905061963e8161a4bf565b61964b60608601826196bb565b506003830154905061965c8161a4bf565b61966960808601826196bb565b506004830154905061967a8161a4a5565b61968760a0860182619159565b50600583015490506196988161a4bf565b6196a560c08601826196bb565b5050505050565b6196b58161a346565b82525050565b6196c48161a382565b82525050565b6196d38161a382565b82525050565b6196e28161a38c565b82525050565b60006196f482866190e4565b60148201915061970482856190e4565b60148201915061971482846191ec565b9150819050949350505050565b600060208201905061973660008301846190d5565b92915050565b600060808201905061975160008301876190d5565b61975e60208301866190d5565b61976b6040830185619168565b61977860608301846196ca565b95945050505050565b600060608201905061979660008301866190d5565b6197a360208301856190d5565b6197b060408301846196ca565b949350505050565b60006080820190506197cd60008301876190d5565b6197da60208301866190d5565b6197e760408301856196ca565b6197f460608301846196ca565b95945050505050565b600060e082019050619812600083018a6190d5565b61981f6020830189619168565b61982c60408301886196ca565b61983960608301876196ca565b61984660808301866196ca565b61985360a0830185619168565b61986060c08301846196ca565b98975050505050505050565b600061010082019050619882600083018b6190d5565b61988f602083018a619168565b61989c60408301896196ca565b6198a960608301886196ca565b6198b660808301876196ca565b6198c360a08301866196ca565b6198d060c08301856196ca565b6198dd60e08301846196ca565b9998505050505050505050565b60006040820190506198ff60008301856190d5565b61990c60208301846196ca565b9392505050565b600060608201905061992860008301866190d5565b61993560208301856196ca565b61994260408301846191dd565b949350505050565b600060608201905061995f60008301866190d5565b61996c60208301856196ca565b61997960408301846196ca565b949350505050565b600060608201905061999660008301866190d5565b6199a360208301856196ca565b6199b060408301846196d9565b949350505050565b60006080820190506199cd60008301876190d5565b6199da60208301866196ca565b6199e760408301856196d9565b6199f46060830184619168565b95945050505050565b6000602082019050619a126000830184619168565b92915050565b6000604082019050619a2d6000830185619168565b8181036020830152619a3f8184619186565b90509392505050565b6000604082019050619a5d6000830185619168565b619a6a60208301846196ac565b9392505050565b6000602082019050619a866000830184619177565b92915050565b6000602082019050619aa160008301846191bf565b92915050565b6000602082019050619abc60008301846191ce565b92915050565b60006020820190508181036000830152619adb8161926b565b9050919050565b60006020820190508181036000830152619afb8161928e565b9050919050565b60006020820190508181036000830152619b1b816192b1565b9050919050565b60006020820190508181036000830152619b3b816192d4565b9050919050565b60006020820190508181036000830152619b5b816192f7565b9050919050565b60006020820190508181036000830152619b7b8161931a565b9050919050565b60006020820190508181036000830152619b9b8161933d565b9050919050565b60006020820190508181036000830152619bbb81619360565b9050919050565b60006020820190508181036000830152619bdb81619383565b9050919050565b60006020820190508181036000830152619bfb816193a6565b9050919050565b60006020820190508181036000830152619c1b816193c9565b9050919050565b60006020820190508181036000830152619c3b816193ec565b9050919050565b60006020820190508181036000830152619c5b8161940f565b9050919050565b60006020820190508181036000830152619c7b81619432565b9050919050565b60006020820190508181036000830152619c9b81619455565b9050919050565b60006020820190508181036000830152619cbb81619478565b9050919050565b60006020820190508181036000830152619cdb8161949b565b9050919050565b60006020820190508181036000830152619cfb816194be565b9050919050565b60006020820190508181036000830152619d1b816194e1565b9050919050565b60006020820190508181036000830152619d3b81619504565b9050919050565b60006020820190508181036000830152619d5b81619527565b9050919050565b60006020820190508181036000830152619d7b8161954a565b9050919050565b60006020820190508181036000830152619d9b8161956d565b9050919050565b60006020820190508181036000830152619dbb81619590565b9050919050565b60006020820190508181036000830152619ddb816195b3565b9050919050565b600060e082019050619df760008301846195d6565b92915050565b6000602082019050619e1260008301846196ac565b92915050565b6000602082019050619e2d60008301846196ca565b92915050565b6000604082019050619e4860008301856196ca565b619e5560208301846190d5565b9392505050565b6000604082019050619e7160008301856196ca565b8181036020830152619e8381846190fb565b90509392505050565b6000602082019050619ea160008301846196d9565b92915050565b6000606082019050619ebc60008301866196d9565b619ec96020830185619177565b8181036040830152619edb8184619186565b9050949350505050565b6000619eef619f00565b9050619efb828261a4f3565b919050565b6000604051905090565b600067ffffffffffffffff821115619f2557619f2461a657565b5b602082029050602081019050919050565b600067ffffffffffffffff821115619f5157619f5061a657565b5b619f5a8261a686565b9050602081019050919050565b6000819050602082019050919050565b60008190508160005260206000209050919050565b600081519050919050565b600081519050919050565b6000602082019050919050565b600082825260208201905092915050565b600082825260208201905092915050565b600082825260208201905092915050565b600081905092915050565b6000619ff88261a346565b915061a0038361a346565b9250826fffffffffffffffffffffffffffffffff0382111561a0285761a02761a5ca565b5b828201905092915050565b600061a03e8261a382565b915061a0498361a382565b9250827fffffffffffffffffffffffffffffffffffffffffffffffffffffffffffffffff0382111561a07e5761a07d61a5ca565b5b828201905092915050565b600061a0948261a382565b915061a09f8361a382565b92508261a0af5761a0ae61a5f9565b5b828204905092915050565b6000808291508390505b600185111561a1045780860481111561a0e05761a0df61a5ca565b5b600185161561a0ef5780820291505b808102905061a0fd8561a6be565b945061a0c4565b94509492505050565b600061a1188261a382565b915061a1238361a382565b925061a1507fffffffffffffffffffffffffffffffffffffffffffffffffffffffffffffffff848461a158565b905092915050565b60008261a168576001905061a224565b8161a176576000905061a224565b816001811461a18c576002811461a1965761a1c5565b600191505061a224565b60ff84111561a1a85761a1a761a5ca565b5b8360020a91508482111561a1bf5761a1be61a5ca565b5b5061a224565b5060208310610133831016604e8410600b841016171561a1fa5782820a90508381111561a1f55761a1f461a5ca565b5b61a224565b61a207848484600161a0ba565b9250905081840481111561a21e5761a21d61a5ca565b5b81810290505b9392505050565b600061a2368261a382565b915061a2418361a382565b9250817fffffffffffffffffffffffffffffffffffffffffffffffffffffffffffffffff048311821515161561a27a5761a27961a5ca565b5b828202905092915050565b600061a2908261a382565b915061a29b8361a382565b92508282101561a2ae5761a2ad61a5ca565b5b828203905092915050565b600073ffffffffffffffffffffffffffffffffffffffff82169050919050565b600060ff82169050919050565b6000819050919050565b600061a2fb8261a362565b9050919050565b600061a30d8261a362565b9050919050565b60008115159050919050565b6000819050919050565b600061a3358261a2f0565b9050919050565b6000819050919050565b60006fffffffffffffffffffffffffffffffff82169050919050565b600073ffffffffffffffffffffffffffffffffffffffff82169050919050565b6000819050919050565b600063ffffffff82169050919050565b600067ffffffffffffffff82169050919050565b600060ff82169050919050565b600061a3c88261a3cf565b9050919050565b600061a3da8261a362565b9050919050565b600061a3ec8261a3f3565b9050919050565b600061a3fe8261a362565b9050919050565b600061a4108261a3b0565b9050919050565b82818337600083830152505050565b60005b8381101561a44457808201518184015260208101905061a429565b8381111561a453576000848401525b50505050565b6000600282049050600182168061a47157607f821691505b6020821081141561a4855761a48461a628565b5b50919050565b600061a49e61a4998361a6a4565b61a2b9565b9050919050565b600061a4b861a4b38361a6a4565b61a2d9565b9050919050565b600061a4d261a4cd8361a6a4565b61a2e6565b9050919050565b600061a4ec61a4e78361a6b1565b61a2d9565b9050919050565b61a4fc8261a686565b810181811067ffffffffffffffff8211171561a51b5761a51a61a657565b5b80604052505050565b600061a52f8261a346565b91506fffffffffffffffffffffffffffffffff82141561a5525761a55161a5ca565b5b600182019050919050565b600061a5688261a382565b91507fffffffffffffffffffffffffffffffffffffffffffffffffffffffffffffffff82141561a59b5761a59a61a5ca565b5b600182019050919050565b600061a5b18261a5b8565b9050919050565b600061a5c38261a697565b9050919050565b7f4e487b7100000000000000000000000000000000000000000000000000000000600052601160045260246000fd5b7f4e487b7100000000000000000000000000000000000000000000000000000000600052601260045260246000fd5b7f4e487b7100000000000000000000000000000000000000000000000000000000600052602260045260246000fd5b7f4e487b7100000000000000000000000000000000000000000000000000000000600052604160045260246000fd5b6000601f19601f8301169050919050565b60008160601b9050919050565b60008160001c9050919050565b60008160a01c9050919050565b60008160011c9050919050565b7f55736572206e6f7420616c6c6f77656420666f7220746869732066756e63746960008201527f6f6e2c2041646d696e206f6e6c792e0000000000000000000000000000000000602082015250565b7f496e70757420616d6f756e7420746f6f206c6f77000000000000000000000000600082015250565b7f416d6f756e7420746f6f206c6f7720746f20726570617920776974682c20696e60008201527f707574206174206c656173742035205553442076616c75650000000000000000602082015250565b7f4f776e61626c653a206e6577206f776e657220697320746865207a65726f206160008201527f6464726573730000000000000000000000000000000000000000000000000000602082015250565b7f496e70757420416d6f756e7420746f6f206c6f77000000000000000000000000600082015250565b7f7472616e7366657246726f6d206661696c65642066726f6d20636f6e7472616360008201527f742e000000000000000000000000000000000000000000000000000000000000602082015250565b7f4e6f7420656e6f756768207374617274206e657720706f6f6c00000000000000600082015250565b7f55736572206e6f7420666f756e64000000000000000000000000000000000000600082015250565b7f7072696365206f7574707574206d75737420626520677265617465722074686160008201527f6e207a65726f0000000000000000000000000000000000000000000000000000602082015250565b7f4f776e61626c653a2063616c6c6572206973206e6f7420746865206f776e6572600082015250565b7f416d6f756e742067726561746572207468616e20616c6c6f77656420616d6f7560008201527f6e74000000000000000000000000000000000000000000000000000000000000602082015250565b7f7472616e7366657246726f6d206661696c656400000000000000000000000000600082015250565b7f4c69717569646174696f6e206e6f7420706f737369626c650000000000000000600082015250565b7f4e6f7420656e6f756768204c697175696469747920746f2073656e6420746f2060008201527f757365722c20706c656173652074727920616761696e20616674657220736f6d60208201527f6574696d652e0000000000000000000000000000000000000000000000000000604082015250565b7f21696e626f780000000000000000000000000000000000000000000000000000600082015250565b7f21726f7574657200000000000000000000000000000000000000000000000000600082015250565b7f4e6f7420656e6f756768206c6971756964697479000000000000000000000000600082015250565b7f4e6f7420616c6c6f77656420746f20706572666f726d2061207472616e73616360008201527f74696f6e207269676874206e6f772e0000000000000000000000000000000000602082015250565b7f7573657220646f6573206e6f7420657869737420796574000000000000000000600082015250565b7f416d6f756e7420746f6f206c6f772c20656e74657220616e20696e707574206760008201527f726561746572207468616e2035205553442076616c7565000000000000000000602082015250565b7f5265656e7472616e637947756172643a207265656e7472616e742063616c6c00600082015250565b7f416d6f756e7420746f6f206c6f77000000000000000000000000000000000000600082015250565b7f6d61726b657420616c726561647920617661696c61626c650000000000000000600082015250565b7f6d61726b6574206e6f7420617661696c61626c65000000000000000000000000600082015250565b7f436f6c206d61726b6574206e6f7420617661696c61626c650000000000000000600082015250565b61ac518161a2f0565b811461ac5c57600080fd5b50565b61ac688161a302565b811461ac7357600080fd5b50565b61ac7f8161a314565b811461ac8a57600080fd5b50565b61ac968161a320565b811461aca157600080fd5b50565b61acad8161a32a565b811461acb857600080fd5b50565b61acc48161a33c565b811461accf57600080fd5b50565b61acdb8161a346565b811461ace657600080fd5b50565b61acf28161a382565b811461acfd57600080fd5b50565b61ad098161a38c565b811461ad1457600080fd5b50565b61ad208161a39c565b811461ad2b57600080fd5b50565b61ad378161a3b0565b811461ad4257600080fd5b5056fea26469706673582212206df4cc0bdfb8855026567b8c6f674e7147ec85e4961f326c813215168ce0d45564736f6c63430008040033",
  "linkReferences": {},
  "deployedLinkReferences": {}
}