{
  "_format": "hh-sol-artifact-1",
  "contractName": "HeadenUtils",
  "sourceName": "contracts/headenFInanceParent.sol",
  "abi": [
    {
      "inputs": [
        {
          "internalType": "uint256",
          "name": "_interval",
          "type": "uint256"
        },
        {
          "internalType": "address",
          "name": "_multichainRouter",
          "type": "address"
        },
        {
          "internalType": "string",
          "name": "_hashSalt",
          "type": "string"
        },
        {
          "internalType": "address",
          "name": "_swapRouter",
          "type": "address"
        },
        {
          "internalType": "address",
          "name": "_usdc",
          "type": "address"
        },
        {
          "internalType": "address",
          "name": "_dai",
          "type": "address"
        },
        {
          "internalType": "address",
          "name": "_matic",
          "type": "address"
        },
        {
          "internalType": "uint256",
          "name": "_chainId",
          "type": "uint256"
        },
        {
          "components": [
            {
              "internalType": "uint64",
              "name": "supplyKink",
              "type": "uint64"
            },
            {
              "internalType": "uint64",
              "name": "supplyPerYearInterestRateSlopeLow",
              "type": "uint64"
            },
            {
              "internalType": "uint64",
              "name": "supplyPerYearInterestRateSlopeHigh",
              "type": "uint64"
            },
            {
              "internalType": "uint64",
              "name": "supplyPerYearInterestRateBase",
              "type": "uint64"
            },
            {
              "internalType": "uint64",
              "name": "borrowKink",
              "type": "uint64"
            },
            {
              "internalType": "uint64",
              "name": "borrowPerYearInterestRateSlopeLow",
              "type": "uint64"
            },
            {
              "internalType": "uint64",
              "name": "borrowPerYearInterestRateSlopeHigh",
              "type": "uint64"
            },
            {
              "internalType": "uint64",
              "name": "borrowPerYearInterestRateBase",
              "type": "uint64"
            }
          ],
          "internalType": "struct HeadenUtils.Configuration",
          "name": "config",
          "type": "tuple"
        }
      ],
      "stateMutability": "nonpayable",
      "type": "constructor"
    },
    {
      "inputs": [],
      "name": "SECONDS_PER_YEAR",
      "outputs": [
        {
          "internalType": "uint256",
          "name": "",
          "type": "uint256"
        }
      ],
      "stateMutability": "view",
      "type": "function"
    },
    {
      "inputs": [],
      "name": "borrowKink",
      "outputs": [
        {
          "internalType": "uint256",
          "name": "",
          "type": "uint256"
        }
      ],
      "stateMutability": "view",
      "type": "function"
    },
    {
      "inputs": [],
      "name": "borrowPerSecondInterestRateBase",
      "outputs": [
        {
          "internalType": "uint256",
          "name": "",
          "type": "uint256"
        }
      ],
      "stateMutability": "view",
      "type": "function"
    },
    {
      "inputs": [],
      "name": "borrowPerSecondInterestRateSlopeHigh",
      "outputs": [
        {
          "internalType": "uint256",
          "name": "",
          "type": "uint256"
        }
      ],
      "stateMutability": "view",
      "type": "function"
    },
    {
      "inputs": [],
      "name": "borrowPerSecondInterestRateSlopeLow",
      "outputs": [
        {
          "internalType": "uint256",
          "name": "",
          "type": "uint256"
        }
      ],
      "stateMutability": "view",
      "type": "function"
    },
    {
      "inputs": [],
      "name": "chainId",
      "outputs": [
        {
          "internalType": "uint256",
          "name": "",
          "type": "uint256"
        }
      ],
      "stateMutability": "view",
      "type": "function"
    },
    {
      "inputs": [],
      "name": "dai",
      "outputs": [
        {
          "internalType": "address",
          "name": "",
          "type": "address"
        }
      ],
      "stateMutability": "view",
      "type": "function"
    },
    {
      "inputs": [],
      "name": "defaultId",
      "outputs": [
        {
          "internalType": "uint32",
          "name": "",
          "type": "uint32"
        }
      ],
      "stateMutability": "view",
      "type": "function"
    },
    {
      "inputs": [],
      "name": "interval",
      "outputs": [
        {
          "internalType": "uint256",
          "name": "",
          "type": "uint256"
        }
      ],
      "stateMutability": "view",
      "type": "function"
    },
    {
      "inputs": [],
      "name": "lastAPRUpdate",
      "outputs": [
        {
          "internalType": "uint256",
          "name": "",
          "type": "uint256"
        }
      ],
      "stateMutability": "view",
      "type": "function"
    },
    {
      "inputs": [],
      "name": "lastTimeStamp",
      "outputs": [
        {
          "internalType": "uint256",
          "name": "",
          "type": "uint256"
        }
      ],
      "stateMutability": "view",
      "type": "function"
    },
    {
      "inputs": [],
      "name": "matic",
      "outputs": [
        {
          "internalType": "address",
          "name": "",
          "type": "address"
        }
      ],
      "stateMutability": "view",
      "type": "function"
    },
    {
      "inputs": [],
      "name": "maxLTV",
      "outputs": [
        {
          "internalType": "uint256",
          "name": "",
          "type": "uint256"
        }
      ],
      "stateMutability": "view",
      "type": "function"
    },
    {
      "inputs": [],
      "name": "multichainRouter",
      "outputs": [
        {
          "internalType": "address",
          "name": "",
          "type": "address"
        }
      ],
      "stateMutability": "view",
      "type": "function"
    },
    {
      "inputs": [
        {
          "internalType": "uint256",
          "name": "amount",
          "type": "uint256"
        }
      ],
      "name": "per_amount",
      "outputs": [
        {
          "internalType": "uint256",
          "name": "",
          "type": "uint256"
        }
      ],
      "stateMutability": "pure",
      "type": "function"
    },
    {
      "inputs": [],
      "name": "supplyKink",
      "outputs": [
        {
          "internalType": "uint256",
          "name": "",
          "type": "uint256"
        }
      ],
      "stateMutability": "view",
      "type": "function"
    },
    {
      "inputs": [],
      "name": "supplyPerSecondInterestRateBase",
      "outputs": [
        {
          "internalType": "uint256",
          "name": "",
          "type": "uint256"
        }
      ],
      "stateMutability": "view",
      "type": "function"
    },
    {
      "inputs": [],
      "name": "supplyPerSecondInterestRateSlopeHigh",
      "outputs": [
        {
          "internalType": "uint256",
          "name": "",
          "type": "uint256"
        }
      ],
      "stateMutability": "view",
      "type": "function"
    },
    {
      "inputs": [],
      "name": "supplyPerSecondInterestRateSlopeLow",
      "outputs": [
        {
          "internalType": "uint256",
          "name": "",
          "type": "uint256"
        }
      ],
      "stateMutability": "view",
      "type": "function"
    },
    {
      "inputs": [],
      "name": "tax",
      "outputs": [
        {
          "internalType": "uint256",
          "name": "",
          "type": "uint256"
        }
      ],
      "stateMutability": "view",
      "type": "function"
    },
    {
      "inputs": [],
      "name": "usdc",
      "outputs": [
        {
          "internalType": "address",
          "name": "",
          "type": "address"
        }
      ],
      "stateMutability": "view",
      "type": "function"
    }
  ],
  "bytecode": "0x60c060405273103a2d37ea6b3b4da2f5bb44e001001729e743546000806101000a81548173ffffffffffffffffffffffffffffffffffffffff021916908373ffffffffffffffffffffffffffffffffffffffff16021790555061015e600455670de0b6b3a76400006009556301e13380600a55600063ffffffff1660809063ffffffff1660e01b815250611b58600d5542600e55348015620000a057600080fd5b50604051620010a6380380620010a68339818101604052810190620000c691906200068e565b6001808190555087600560006101000a81548173ffffffffffffffffffffffffffffffffffffffff021916908373ffffffffffffffffffffffffffffffffffffffff1602179055508660039080519060200190620001269291906200044e565b5085600260006101000a81548173ffffffffffffffffffffffffffffffffffffffff021916908373ffffffffffffffffffffffffffffffffffffffff16021790555083600760006101000a81548173ffffffffffffffffffffffffffffffffffffffff021916908373ffffffffffffffffffffffffffffffffffffffff16021790555084600660006101000a81548173ffffffffffffffffffffffffffffffffffffffff021916908373ffffffffffffffffffffffffffffffffffffffff16021790555082600860006101000a81548173ffffffffffffffffffffffffffffffffffffffff021916908373ffffffffffffffffffffffffffffffffffffffff1602179055508860a0818152505042600b8190555081600c81905550806000015167ffffffffffffffff16600f81905550600a54816020015167ffffffffffffffff16816200029d577f4e487b7100000000000000000000000000000000000000000000000000000000600052601260045260246000fd5b04601081905550600a54816040015167ffffffffffffffff1681620002eb577f4e487b7100000000000000000000000000000000000000000000000000000000600052601260045260246000fd5b04601181905550600a54816060015167ffffffffffffffff168162000339577f4e487b7100000000000000000000000000000000000000000000000000000000600052601260045260246000fd5b04601281905550806080015167ffffffffffffffff16601381905550600a548160a0015167ffffffffffffffff16816200039c577f4e487b7100000000000000000000000000000000000000000000000000000000600052601260045260246000fd5b04601481905550600a548160c0015167ffffffffffffffff1681620003ea577f4e487b7100000000000000000000000000000000000000000000000000000000600052601260045260246000fd5b04601581905550600a548160e0015167ffffffffffffffff168162000438577f4e487b7100000000000000000000000000000000000000000000000000000000600052601260045260246000fd5b0460168190555050505050505050505062000990565b8280546200045c9062000867565b90600052602060002090601f016020900481019282620004805760008555620004cc565b82601f106200049b57805160ff1916838001178555620004cc565b82800160010185558215620004cc579182015b82811115620004cb578251825591602001919060010190620004ae565b5b509050620004db9190620004df565b5090565b5b80821115620004fa576000816000905550600101620004e0565b5090565b6000620005156200050f84620007a9565b62000780565b9050828152602081018484840111156200052e57600080fd5b6200053b84828562000831565b509392505050565b600081519050620005548162000942565b92915050565b600082601f8301126200056c57600080fd5b81516200057e848260208601620004fe565b91505092915050565b600061010082840312156200059b57600080fd5b620005a861010062000780565b90506000620005ba8482850162000677565b6000830152506020620005d08482850162000677565b6020830152506040620005e68482850162000677565b6040830152506060620005fc8482850162000677565b6060830152506080620006128482850162000677565b60808301525060a0620006288482850162000677565b60a08301525060c06200063e8482850162000677565b60c08301525060e0620006548482850162000677565b60e08301525092915050565b60008151905062000671816200095c565b92915050565b600081519050620006888162000976565b92915050565b60008060008060008060008060006102008a8c031215620006ae57600080fd5b6000620006be8c828d0162000660565b9950506020620006d18c828d0162000543565b98505060408a015167ffffffffffffffff811115620006ef57600080fd5b620006fd8c828d016200055a565b9750506060620007108c828d0162000543565b9650506080620007238c828d0162000543565b95505060a0620007368c828d0162000543565b94505060c0620007498c828d0162000543565b93505060e06200075c8c828d0162000660565b925050610100620007708c828d0162000587565b9150509295985092959850929598565b60006200078c6200079f565b90506200079a82826200089d565b919050565b6000604051905090565b600067ffffffffffffffff821115620007c757620007c662000902565b5b620007d28262000931565b9050602081019050919050565b6000620007ec82620007f3565b9050919050565b600073ffffffffffffffffffffffffffffffffffffffff82169050919050565b6000819050919050565b600067ffffffffffffffff82169050919050565b60005b838110156200085157808201518184015260208101905062000834565b8381111562000861576000848401525b50505050565b600060028204905060018216806200088057607f821691505b60208210811415620008975762000896620008d3565b5b50919050565b620008a88262000931565b810181811067ffffffffffffffff82111715620008ca57620008c962000902565b5b80604052505050565b7f4e487b7100000000000000000000000000000000000000000000000000000000600052602260045260246000fd5b7f4e487b7100000000000000000000000000000000000000000000000000000000600052604160045260246000fd5b6000601f19601f8301169050919050565b6200094d81620007df565b81146200095957600080fd5b50565b620009678162000813565b81146200097357600080fd5b50565b62000981816200081d565b81146200098d57600080fd5b50565b60805160e01c60a0516106ed620009b9600039600061041c0152600061045801526106ed6000f3fe608060405234801561001057600080fd5b50600436106101375760003560e01c806394920cca116100b8578063b6b0b0971161007c578063b6b0b097146102fe578063c44814a61461031c578063c6f4c5781461034c578063e6a69ab81461036a578063f384bd0514610388578063f4b9fa75146103a657610137565b806394920cca1461026857806399c8d556146102865780639a8a0592146102a4578063a5b4ff79146102c2578063ae4b19ce146102e057610137565b80635a94b8d1116100ff5780635a94b8d1146101d25780637914acc7146101f0578063804de71f1461020e5780639241a5611461022c578063947a36fb1461024a57610137565b80632a48cf121461013c5780632d05670b1461015a5780633cd83bda146101785780633e413bee146101965780633f3b3b27146101b4575b600080fd5b6101446103c4565b6040516101519190610595565b60405180910390f35b6101626103ca565b60405161016f9190610595565b60405180910390f35b6101806103d0565b60405161018d9190610595565b60405180910390f35b61019e6103d6565b6040516101ab919061057a565b60405180910390f35b6101bc6103fc565b6040516101c99190610595565b60405180910390f35b6101da610402565b6040516101e79190610595565b60405180910390f35b6101f8610408565b6040516102059190610595565b60405180910390f35b61021661040e565b6040516102239190610595565b60405180910390f35b610234610414565b6040516102419190610595565b60405180910390f35b61025261041a565b60405161025f9190610595565b60405180910390f35b61027061043e565b60405161027d9190610595565b60405180910390f35b61028e610444565b60405161029b9190610595565b60405180910390f35b6102ac61044a565b6040516102b99190610595565b60405180910390f35b6102ca610450565b6040516102d79190610595565b60405180910390f35b6102e8610456565b6040516102f591906105b0565b60405180910390f35b61030661047a565b604051610313919061057a565b60405180910390f35b61033660048036038101906103319190610524565b6104a0565b6040516103439190610595565b60405180910390f35b6103546104b7565b604051610361919061057a565b60405180910390f35b6103726104dd565b60405161037f9190610595565b60405180910390f35b6103906104e3565b60405161039d9190610595565b60405180910390f35b6103ae6104e9565b6040516103bb919061057a565b60405180910390f35b60155481565b60145481565b600e5481565b600660009054906101000a900473ffffffffffffffffffffffffffffffffffffffff1681565b600b5481565b60105481565b60165481565b60115481565b60135481565b7f000000000000000000000000000000000000000000000000000000000000000081565b60125481565b60045481565b600c5481565b600f5481565b7f000000000000000000000000000000000000000000000000000000000000000081565b600860009054906101000a900473ffffffffffffffffffffffffffffffffffffffff1681565b6000612710826104b091906105cb565b9050919050565b600560009054906101000a900473ffffffffffffffffffffffffffffffffffffffff1681565b600a5481565b600d5481565b600760009054906101000a900473ffffffffffffffffffffffffffffffffffffffff1681565b60008135905061051e816106a0565b92915050565b60006020828403121561053657600080fd5b60006105448482850161050f565b91505092915050565b61055681610625565b82525050565b61056581610657565b82525050565b61057481610661565b82525050565b600060208201905061058f600083018461054d565b92915050565b60006020820190506105aa600083018461055c565b92915050565b60006020820190506105c5600083018461056b565b92915050565b60006105d682610657565b91506105e183610657565b9250817fffffffffffffffffffffffffffffffffffffffffffffffffffffffffffffffff048311821515161561061a57610619610671565b5b828202905092915050565b600061063082610637565b9050919050565b600073ffffffffffffffffffffffffffffffffffffffff82169050919050565b6000819050919050565b600063ffffffff82169050919050565b7f4e487b7100000000000000000000000000000000000000000000000000000000600052601160045260246000fd5b6106a981610657565b81146106b457600080fd5b5056fea26469706673582212200d51824b6f63b9addd3309ac52e6b3f6068c9c2f8d0f59de6bc4587a1ad7275064736f6c63430008040033",
  "linkReferences": {},
  "deployedLinkReferences": {}
}