{
  "_format": "hh-sol-artifact-1",
  "contractName": "HeadenUtils",
  "sourceName": "contracts/headenFInanceParent.sol",
  "abi": [
    {
      "inputs": [
        {
          "internalType": "uint256",
          "name": "_interval",
          "type": "uint256"
        },
        {
          "internalType": "address",
          "name": "_multichainRouter",
          "type": "address"
        },
        {
          "internalType": "string",
          "name": "_hashSalt",
          "type": "string"
        },
        {
          "internalType": "address",
          "name": "_swapRouter",
          "type": "address"
        },
        {
          "internalType": "address",
          "name": "_usdc",
          "type": "address"
        },
        {
          "internalType": "address",
          "name": "_dai",
          "type": "address"
        },
        {
          "internalType": "address",
          "name": "_matic",
          "type": "address"
        },
        {
          "internalType": "uint256",
          "name": "_chainId",
          "type": "uint256"
        },
        {
          "components": [
            {
              "internalType": "uint64",
              "name": "supplyKink",
              "type": "uint64"
            },
            {
              "internalType": "uint64",
              "name": "supplyPerYearInterestRateSlopeLow",
              "type": "uint64"
            },
            {
              "internalType": "uint64",
              "name": "supplyPerYearInterestRateSlopeHigh",
              "type": "uint64"
            },
            {
              "internalType": "uint64",
              "name": "supplyPerYearInterestRateBase",
              "type": "uint64"
            },
            {
              "internalType": "uint64",
              "name": "borrowKink",
              "type": "uint64"
            },
            {
              "internalType": "uint64",
              "name": "borrowPerYearInterestRateSlopeLow",
              "type": "uint64"
            },
            {
              "internalType": "uint64",
              "name": "borrowPerYearInterestRateSlopeHigh",
              "type": "uint64"
            },
            {
              "internalType": "uint64",
              "name": "borrowPerYearInterestRateBase",
              "type": "uint64"
            }
          ],
          "internalType": "struct HeadenUtils.Configuration",
          "name": "config",
          "type": "tuple"
        }
      ],
      "stateMutability": "nonpayable",
      "type": "constructor"
    },
    {
      "anonymous": false,
      "inputs": [
        {
          "indexed": false,
          "internalType": "uint256",
          "name": "_amount",
          "type": "uint256"
        },
        {
          "indexed": false,
          "internalType": "address",
          "name": "tokenAddress",
          "type": "address"
        }
      ],
      "name": "Borrowed",
      "type": "event"
    },
    {
      "anonymous": false,
      "inputs": [],
      "name": "FullChainSyncRequired",
      "type": "event"
    },
    {
      "anonymous": false,
      "inputs": [
        {
          "indexed": false,
          "internalType": "uint256",
          "name": "_amount",
          "type": "uint256"
        },
        {
          "indexed": false,
          "internalType": "address",
          "name": "tokenAddress",
          "type": "address"
        }
      ],
      "name": "Repayed",
      "type": "event"
    },
    {
      "anonymous": false,
      "inputs": [
        {
          "indexed": false,
          "internalType": "uint256",
          "name": "_amount",
          "type": "uint256"
        },
        {
          "indexed": false,
          "internalType": "address",
          "name": "tokenAddress",
          "type": "address"
        }
      ],
      "name": "Staked",
      "type": "event"
    },
    {
      "anonymous": false,
      "inputs": [
        {
          "components": [
            {
              "internalType": "address",
              "name": "userAddress",
              "type": "address"
            },
            {
              "internalType": "bool",
              "name": "available",
              "type": "bool"
            },
            {
              "internalType": "uint256",
              "name": "totalAmountBorrowed",
              "type": "uint256"
            },
            {
              "internalType": "uint256",
              "name": "totalAmountStaked",
              "type": "uint256"
            },
            {
              "internalType": "uint256",
              "name": "ltv",
              "type": "uint256"
            },
            {
              "internalType": "bool",
              "name": "lock",
              "type": "bool"
            },
            {
              "internalType": "uint256",
              "name": "lastAPRUpdated",
              "type": "uint256"
            }
          ],
          "indexed": false,
          "internalType": "struct HeadenUtils.User",
          "name": "user",
          "type": "tuple"
        }
      ],
      "name": "UpdateChildChains",
      "type": "event"
    },
    {
      "anonymous": false,
      "inputs": [
        {
          "indexed": false,
          "internalType": "uint256",
          "name": "_amount",
          "type": "uint256"
        },
        {
          "indexed": false,
          "internalType": "address",
          "name": "tokenAddress",
          "type": "address"
        }
      ],
      "name": "Withdrawn",
      "type": "event"
    },
    {
      "inputs": [],
      "name": "SECONDS_PER_YEAR",
      "outputs": [
        {
          "internalType": "uint256",
          "name": "",
          "type": "uint256"
        }
      ],
      "stateMutability": "view",
      "type": "function"
    },
    {
      "inputs": [],
      "name": "borrowKink",
      "outputs": [
        {
          "internalType": "uint256",
          "name": "",
          "type": "uint256"
        }
      ],
      "stateMutability": "view",
      "type": "function"
    },
    {
      "inputs": [],
      "name": "borrowPerSecondInterestRateBase",
      "outputs": [
        {
          "internalType": "uint256",
          "name": "",
          "type": "uint256"
        }
      ],
      "stateMutability": "view",
      "type": "function"
    },
    {
      "inputs": [],
      "name": "borrowPerSecondInterestRateSlopeHigh",
      "outputs": [
        {
          "internalType": "uint256",
          "name": "",
          "type": "uint256"
        }
      ],
      "stateMutability": "view",
      "type": "function"
    },
    {
      "inputs": [],
      "name": "borrowPerSecondInterestRateSlopeLow",
      "outputs": [
        {
          "internalType": "uint256",
          "name": "",
          "type": "uint256"
        }
      ],
      "stateMutability": "view",
      "type": "function"
    },
    {
      "inputs": [],
      "name": "chainId",
      "outputs": [
        {
          "internalType": "uint256",
          "name": "",
          "type": "uint256"
        }
      ],
      "stateMutability": "view",
      "type": "function"
    },
    {
      "inputs": [],
      "name": "dai",
      "outputs": [
        {
          "internalType": "address",
          "name": "",
          "type": "address"
        }
      ],
      "stateMutability": "view",
      "type": "function"
    },
    {
      "inputs": [],
      "name": "defaultId",
      "outputs": [
        {
          "internalType": "uint32",
          "name": "",
          "type": "uint32"
        }
      ],
      "stateMutability": "view",
      "type": "function"
    },
    {
      "inputs": [],
      "name": "interval",
      "outputs": [
        {
          "internalType": "uint256",
          "name": "",
          "type": "uint256"
        }
      ],
      "stateMutability": "view",
      "type": "function"
    },
    {
      "inputs": [],
      "name": "lastAPRUpdate",
      "outputs": [
        {
          "internalType": "uint256",
          "name": "",
          "type": "uint256"
        }
      ],
      "stateMutability": "view",
      "type": "function"
    },
    {
      "inputs": [],
      "name": "lastTimeStamp",
      "outputs": [
        {
          "internalType": "uint256",
          "name": "",
          "type": "uint256"
        }
      ],
      "stateMutability": "view",
      "type": "function"
    },
    {
      "inputs": [],
      "name": "matic",
      "outputs": [
        {
          "internalType": "address",
          "name": "",
          "type": "address"
        }
      ],
      "stateMutability": "view",
      "type": "function"
    },
    {
      "inputs": [],
      "name": "maxLTV",
      "outputs": [
        {
          "internalType": "uint256",
          "name": "",
          "type": "uint256"
        }
      ],
      "stateMutability": "view",
      "type": "function"
    },
    {
      "inputs": [],
      "name": "minAmount",
      "outputs": [
        {
          "internalType": "uint256",
          "name": "",
          "type": "uint256"
        }
      ],
      "stateMutability": "view",
      "type": "function"
    },
    {
      "inputs": [],
      "name": "multichainRouter",
      "outputs": [
        {
          "internalType": "address",
          "name": "",
          "type": "address"
        }
      ],
      "stateMutability": "view",
      "type": "function"
    },
    {
      "inputs": [
        {
          "internalType": "uint256",
          "name": "amount",
          "type": "uint256"
        }
      ],
      "name": "per_amount",
      "outputs": [
        {
          "internalType": "uint256",
          "name": "",
          "type": "uint256"
        }
      ],
      "stateMutability": "pure",
      "type": "function"
    },
    {
      "inputs": [],
      "name": "supplyKink",
      "outputs": [
        {
          "internalType": "uint256",
          "name": "",
          "type": "uint256"
        }
      ],
      "stateMutability": "view",
      "type": "function"
    },
    {
      "inputs": [],
      "name": "supplyPerSecondInterestRateBase",
      "outputs": [
        {
          "internalType": "uint256",
          "name": "",
          "type": "uint256"
        }
      ],
      "stateMutability": "view",
      "type": "function"
    },
    {
      "inputs": [],
      "name": "supplyPerSecondInterestRateSlopeHigh",
      "outputs": [
        {
          "internalType": "uint256",
          "name": "",
          "type": "uint256"
        }
      ],
      "stateMutability": "view",
      "type": "function"
    },
    {
      "inputs": [],
      "name": "supplyPerSecondInterestRateSlopeLow",
      "outputs": [
        {
          "internalType": "uint256",
          "name": "",
          "type": "uint256"
        }
      ],
      "stateMutability": "view",
      "type": "function"
    },
    {
      "inputs": [],
      "name": "tax",
      "outputs": [
        {
          "internalType": "uint256",
          "name": "",
          "type": "uint256"
        }
      ],
      "stateMutability": "view",
      "type": "function"
    },
    {
      "inputs": [],
      "name": "usdc",
      "outputs": [
        {
          "internalType": "address",
          "name": "",
          "type": "address"
        }
      ],
      "stateMutability": "view",
      "type": "function"
    }
  ],
  "bytecode": "0x60c060405273572ddec9087154dc5dfbb1546bb62713147e0ab06000806101000a81548173ffffffffffffffffffffffffffffffffffffffff021916908373ffffffffffffffffffffffffffffffffffffffff16021790555061015e600455670de0b6b3a76400006009556301e13380600a55600063ffffffff1660809063ffffffff1660e01b815250611b58600d5542600e55631dcd6500600f55348015620000a857600080fd5b50604051620010dd380380620010dd8339818101604052810190620000ce919062000696565b6001808190555087600560006101000a81548173ffffffffffffffffffffffffffffffffffffffff021916908373ffffffffffffffffffffffffffffffffffffffff16021790555086600390805190602001906200012e92919062000456565b5085600260006101000a81548173ffffffffffffffffffffffffffffffffffffffff021916908373ffffffffffffffffffffffffffffffffffffffff16021790555083600760006101000a81548173ffffffffffffffffffffffffffffffffffffffff021916908373ffffffffffffffffffffffffffffffffffffffff16021790555084600660006101000a81548173ffffffffffffffffffffffffffffffffffffffff021916908373ffffffffffffffffffffffffffffffffffffffff16021790555082600860006101000a81548173ffffffffffffffffffffffffffffffffffffffff021916908373ffffffffffffffffffffffffffffffffffffffff1602179055508860a0818152505042600b8190555081600c81905550806000015167ffffffffffffffff16601081905550600a54816020015167ffffffffffffffff1681620002a5577f4e487b7100000000000000000000000000000000000000000000000000000000600052601260045260246000fd5b04601181905550600a54816040015167ffffffffffffffff1681620002f3577f4e487b7100000000000000000000000000000000000000000000000000000000600052601260045260246000fd5b04601281905550600a54816060015167ffffffffffffffff168162000341577f4e487b7100000000000000000000000000000000000000000000000000000000600052601260045260246000fd5b04601381905550806080015167ffffffffffffffff16601481905550600a548160a0015167ffffffffffffffff1681620003a4577f4e487b7100000000000000000000000000000000000000000000000000000000600052601260045260246000fd5b04601581905550600a548160c0015167ffffffffffffffff1681620003f2577f4e487b7100000000000000000000000000000000000000000000000000000000600052601260045260246000fd5b04601681905550600a548160e0015167ffffffffffffffff168162000440577f4e487b7100000000000000000000000000000000000000000000000000000000600052601260045260246000fd5b0460178190555050505050505050505062000998565b82805462000464906200086f565b90600052602060002090601f016020900481019282620004885760008555620004d4565b82601f10620004a357805160ff1916838001178555620004d4565b82800160010185558215620004d4579182015b82811115620004d3578251825591602001919060010190620004b6565b5b509050620004e39190620004e7565b5090565b5b8082111562000502576000816000905550600101620004e8565b5090565b60006200051d6200051784620007b1565b62000788565b9050828152602081018484840111156200053657600080fd5b6200054384828562000839565b509392505050565b6000815190506200055c816200094a565b92915050565b600082601f8301126200057457600080fd5b81516200058684826020860162000506565b91505092915050565b60006101008284031215620005a357600080fd5b620005b061010062000788565b90506000620005c2848285016200067f565b6000830152506020620005d8848285016200067f565b6020830152506040620005ee848285016200067f565b604083015250606062000604848285016200067f565b60608301525060806200061a848285016200067f565b60808301525060a062000630848285016200067f565b60a08301525060c062000646848285016200067f565b60c08301525060e06200065c848285016200067f565b60e08301525092915050565b600081519050620006798162000964565b92915050565b60008151905062000690816200097e565b92915050565b60008060008060008060008060006102008a8c031215620006b657600080fd5b6000620006c68c828d0162000668565b9950506020620006d98c828d016200054b565b98505060408a015167ffffffffffffffff811115620006f757600080fd5b620007058c828d0162000562565b9750506060620007188c828d016200054b565b96505060806200072b8c828d016200054b565b95505060a06200073e8c828d016200054b565b94505060c0620007518c828d016200054b565b93505060e0620007648c828d0162000668565b925050610100620007788c828d016200058f565b9150509295985092959850929598565b600062000794620007a7565b9050620007a28282620008a5565b919050565b6000604051905090565b600067ffffffffffffffff821115620007cf57620007ce6200090a565b5b620007da8262000939565b9050602081019050919050565b6000620007f482620007fb565b9050919050565b600073ffffffffffffffffffffffffffffffffffffffff82169050919050565b6000819050919050565b600067ffffffffffffffff82169050919050565b60005b83811015620008595780820151818401526020810190506200083c565b8381111562000869576000848401525b50505050565b600060028204905060018216806200088857607f821691505b602082108114156200089f576200089e620008db565b5b50919050565b620008b08262000939565b810181811067ffffffffffffffff82111715620008d257620008d16200090a565b5b80604052505050565b7f4e487b7100000000000000000000000000000000000000000000000000000000600052602260045260246000fd5b7f4e487b7100000000000000000000000000000000000000000000000000000000600052604160045260246000fd5b6000601f19601f8301169050919050565b6200095581620007e7565b81146200096157600080fd5b50565b6200096f816200081b565b81146200097b57600080fd5b50565b620009898162000825565b81146200099557600080fd5b50565b60805160e01c60a05161071c620009c1600039600061044501526000610487015261071c6000f3fe608060405234801561001057600080fd5b50600436106101425760003560e01c806399c8d556116100b8578063b6b0b0971161007c578063b6b0b09714610327578063c44814a614610345578063c6f4c57814610375578063e6a69ab814610393578063f384bd05146103b1578063f4b9fa75146103cf57610142565b806399c8d556146102915780639a8a0592146102af5780639b2cb5d8146102cd578063a5b4ff79146102eb578063ae4b19ce1461030957610142565b80635a94b8d11161010a5780635a94b8d1146101dd5780637914acc7146101fb578063804de71f146102195780639241a56114610237578063947a36fb1461025557806394920cca1461027357610142565b80632a48cf12146101475780632d05670b146101655780633cd83bda146101835780633e413bee146101a15780633f3b3b27146101bf575b600080fd5b61014f6103ed565b60405161015c91906105c4565b60405180910390f35b61016d6103f3565b60405161017a91906105c4565b60405180910390f35b61018b6103f9565b60405161019891906105c4565b60405180910390f35b6101a96103ff565b6040516101b691906105a9565b60405180910390f35b6101c7610425565b6040516101d491906105c4565b60405180910390f35b6101e561042b565b6040516101f291906105c4565b60405180910390f35b610203610431565b60405161021091906105c4565b60405180910390f35b610221610437565b60405161022e91906105c4565b60405180910390f35b61023f61043d565b60405161024c91906105c4565b60405180910390f35b61025d610443565b60405161026a91906105c4565b60405180910390f35b61027b610467565b60405161028891906105c4565b60405180910390f35b61029961046d565b6040516102a691906105c4565b60405180910390f35b6102b7610473565b6040516102c491906105c4565b60405180910390f35b6102d5610479565b6040516102e291906105c4565b60405180910390f35b6102f361047f565b60405161030091906105c4565b60405180910390f35b610311610485565b60405161031e91906105df565b60405180910390f35b61032f6104a9565b60405161033c91906105a9565b60405180910390f35b61035f600480360381019061035a9190610553565b6104cf565b60405161036c91906105c4565b60405180910390f35b61037d6104e6565b60405161038a91906105a9565b60405180910390f35b61039b61050c565b6040516103a891906105c4565b60405180910390f35b6103b9610512565b6040516103c691906105c4565b60405180910390f35b6103d7610518565b6040516103e491906105a9565b60405180910390f35b60165481565b60155481565b600e5481565b600660009054906101000a900473ffffffffffffffffffffffffffffffffffffffff1681565b600b5481565b60115481565b60175481565b60125481565b60145481565b7f000000000000000000000000000000000000000000000000000000000000000081565b60135481565b60045481565b600c5481565b600f5481565b60105481565b7f000000000000000000000000000000000000000000000000000000000000000081565b600860009054906101000a900473ffffffffffffffffffffffffffffffffffffffff1681565b6000612710826104df91906105fa565b9050919050565b600560009054906101000a900473ffffffffffffffffffffffffffffffffffffffff1681565b600a5481565b600d5481565b600760009054906101000a900473ffffffffffffffffffffffffffffffffffffffff1681565b60008135905061054d816106cf565b92915050565b60006020828403121561056557600080fd5b60006105738482850161053e565b91505092915050565b61058581610654565b82525050565b61059481610686565b82525050565b6105a381610690565b82525050565b60006020820190506105be600083018461057c565b92915050565b60006020820190506105d9600083018461058b565b92915050565b60006020820190506105f4600083018461059a565b92915050565b600061060582610686565b915061061083610686565b9250817fffffffffffffffffffffffffffffffffffffffffffffffffffffffffffffffff0483118215151615610649576106486106a0565b5b828202905092915050565b600061065f82610666565b9050919050565b600073ffffffffffffffffffffffffffffffffffffffff82169050919050565b6000819050919050565b600063ffffffff82169050919050565b7f4e487b7100000000000000000000000000000000000000000000000000000000600052601160045260246000fd5b6106d881610686565b81146106e357600080fd5b5056fea2646970667358221220a41ad9bbf35b3b87b69790339beb8ba85aab6eb23915f2d6a98e8a85b2d5d4ac64736f6c63430008040033",
  "linkReferences": {},
  "deployedLinkReferences": {}
}