{
  "_format": "hh-sol-artifact-1",
  "contractName": "HeadenFinanceParent",
  "sourceName": "contracts/headenFInanceParent.sol",
  "abi": [
    {
      "inputs": [
        {
          "internalType": "uint256",
          "name": "_interval",
          "type": "uint256"
        },
        {
          "internalType": "address",
          "name": "_multichainRouter",
          "type": "address"
        },
        {
          "internalType": "string",
          "name": "_hashSalt",
          "type": "string"
        },
        {
          "internalType": "address",
          "name": "_swapRouter",
          "type": "address"
        },
        {
          "internalType": "address",
          "name": "_usdc",
          "type": "address"
        },
        {
          "internalType": "address",
          "name": "_dai",
          "type": "address"
        },
        {
          "internalType": "address",
          "name": "_matic",
          "type": "address"
        },
        {
          "components": [
            {
              "internalType": "address",
              "name": "_abacusManager",
              "type": "address"
            },
            {
              "internalType": "address",
              "name": "_abacusPay",
              "type": "address"
            }
          ],
          "internalType": "struct HeadenUtils.Abacus",
          "name": "_abacus",
          "type": "tuple"
        },
        {
          "components": [
            {
              "internalType": "address",
              "name": "_address",
              "type": "address"
            },
            {
              "internalType": "uint256",
              "name": "_chainId",
              "type": "uint256"
            },
            {
              "internalType": "uint32",
              "name": "_hlId",
              "type": "uint32"
            },
            {
              "internalType": "bool",
              "name": "_exists",
              "type": "bool"
            }
          ],
          "internalType": "struct HeadenUtils.Chain",
          "name": "_parent",
          "type": "tuple"
        },
        {
          "internalType": "uint256",
          "name": "_chainId",
          "type": "uint256"
        },
        {
          "components": [
            {
              "internalType": "uint64",
              "name": "supplyKink",
              "type": "uint64"
            },
            {
              "internalType": "uint64",
              "name": "supplyPerYearInterestRateSlopeLow",
              "type": "uint64"
            },
            {
              "internalType": "uint64",
              "name": "supplyPerYearInterestRateSlopeHigh",
              "type": "uint64"
            },
            {
              "internalType": "uint64",
              "name": "supplyPerYearInterestRateBase",
              "type": "uint64"
            },
            {
              "internalType": "uint64",
              "name": "borrowKink",
              "type": "uint64"
            },
            {
              "internalType": "uint64",
              "name": "borrowPerYearInterestRateSlopeLow",
              "type": "uint64"
            },
            {
              "internalType": "uint64",
              "name": "borrowPerYearInterestRateSlopeHigh",
              "type": "uint64"
            },
            {
              "internalType": "uint64",
              "name": "borrowPerYearInterestRateBase",
              "type": "uint64"
            }
          ],
          "internalType": "struct HeadenUtils.Configuration",
          "name": "config",
          "type": "tuple"
        }
      ],
      "stateMutability": "nonpayable",
      "type": "constructor"
    },
    {
      "anonymous": false,
      "inputs": [
        {
          "indexed": true,
          "internalType": "address",
          "name": "abacusConnectionManager",
          "type": "address"
        }
      ],
      "name": "AbacusConnectionManagerSet",
      "type": "event"
    },
    {
      "anonymous": false,
      "inputs": [
        {
          "indexed": false,
          "internalType": "uint256",
          "name": "_amount",
          "type": "uint256"
        },
        {
          "indexed": false,
          "internalType": "address",
          "name": "tokenAddress",
          "type": "address"
        }
      ],
      "name": "Borrowed",
      "type": "event"
    },
    {
      "anonymous": false,
      "inputs": [],
      "name": "FullChainSyncRequired",
      "type": "event"
    },
    {
      "anonymous": false,
      "inputs": [
        {
          "indexed": false,
          "internalType": "uint8",
          "name": "version",
          "type": "uint8"
        }
      ],
      "name": "Initialized",
      "type": "event"
    },
    {
      "anonymous": false,
      "inputs": [
        {
          "indexed": true,
          "internalType": "address",
          "name": "interchainGasPaymaster",
          "type": "address"
        }
      ],
      "name": "InterchainGasPaymasterSet",
      "type": "event"
    },
    {
      "anonymous": false,
      "inputs": [
        {
          "indexed": true,
          "internalType": "address",
          "name": "previousOwner",
          "type": "address"
        },
        {
          "indexed": true,
          "internalType": "address",
          "name": "newOwner",
          "type": "address"
        }
      ],
      "name": "OwnershipTransferred",
      "type": "event"
    },
    {
      "anonymous": false,
      "inputs": [
        {
          "indexed": true,
          "internalType": "uint32",
          "name": "domain",
          "type": "uint32"
        },
        {
          "indexed": true,
          "internalType": "bytes32",
          "name": "router",
          "type": "bytes32"
        }
      ],
      "name": "RemoteRouterEnrolled",
      "type": "event"
    },
    {
      "anonymous": false,
      "inputs": [
        {
          "indexed": false,
          "internalType": "uint256",
          "name": "_amount",
          "type": "uint256"
        },
        {
          "indexed": false,
          "internalType": "address",
          "name": "tokenAddress",
          "type": "address"
        }
      ],
      "name": "Repayed",
      "type": "event"
    },
    {
      "anonymous": false,
      "inputs": [
        {
          "indexed": false,
          "internalType": "uint256",
          "name": "_amount",
          "type": "uint256"
        },
        {
          "indexed": false,
          "internalType": "address",
          "name": "tokenAddress",
          "type": "address"
        }
      ],
      "name": "Staked",
      "type": "event"
    },
    {
      "anonymous": false,
      "inputs": [
        {
          "components": [
            {
              "internalType": "address",
              "name": "userAddress",
              "type": "address"
            },
            {
              "internalType": "bool",
              "name": "available",
              "type": "bool"
            },
            {
              "internalType": "uint256",
              "name": "totalAmountBorrowed",
              "type": "uint256"
            },
            {
              "internalType": "uint256",
              "name": "totalAmountStaked",
              "type": "uint256"
            },
            {
              "internalType": "uint256",
              "name": "ltv",
              "type": "uint256"
            },
            {
              "internalType": "bool",
              "name": "lock",
              "type": "bool"
            },
            {
              "internalType": "uint256",
              "name": "lastAPRUpdated",
              "type": "uint256"
            }
          ],
          "indexed": false,
          "internalType": "struct HeadenUtils.User",
          "name": "user",
          "type": "tuple"
        }
      ],
      "name": "UpdateChildChains",
      "type": "event"
    },
    {
      "anonymous": false,
      "inputs": [
        {
          "indexed": false,
          "internalType": "uint256",
          "name": "_amount",
          "type": "uint256"
        },
        {
          "indexed": false,
          "internalType": "address",
          "name": "tokenAddress",
          "type": "address"
        }
      ],
      "name": "Withdrawn",
      "type": "event"
    },
    {
      "inputs": [],
      "name": "SECONDS_PER_YEAR",
      "outputs": [
        {
          "internalType": "uint256",
          "name": "",
          "type": "uint256"
        }
      ],
      "stateMutability": "view",
      "type": "function"
    },
    {
      "inputs": [],
      "name": "abacusConnectionManager",
      "outputs": [
        {
          "internalType": "contract IAbacusConnectionManager",
          "name": "",
          "type": "address"
        }
      ],
      "stateMutability": "view",
      "type": "function"
    },
    {
      "inputs": [
        {
          "components": [
            {
              "internalType": "address",
              "name": "_address",
              "type": "address"
            },
            {
              "internalType": "uint256",
              "name": "_chainId",
              "type": "uint256"
            },
            {
              "internalType": "uint32",
              "name": "_hlId",
              "type": "uint32"
            },
            {
              "internalType": "bool",
              "name": "_exists",
              "type": "bool"
            }
          ],
          "internalType": "struct HeadenUtils.Chain",
          "name": "_child",
          "type": "tuple"
        }
      ],
      "name": "addChildChain",
      "outputs": [],
      "stateMutability": "nonpayable",
      "type": "function"
    },
    {
      "inputs": [],
      "name": "borrowKink",
      "outputs": [
        {
          "internalType": "uint256",
          "name": "",
          "type": "uint256"
        }
      ],
      "stateMutability": "view",
      "type": "function"
    },
    {
      "inputs": [],
      "name": "borrowPerSecondInterestRateBase",
      "outputs": [
        {
          "internalType": "uint256",
          "name": "",
          "type": "uint256"
        }
      ],
      "stateMutability": "view",
      "type": "function"
    },
    {
      "inputs": [],
      "name": "borrowPerSecondInterestRateSlopeHigh",
      "outputs": [
        {
          "internalType": "uint256",
          "name": "",
          "type": "uint256"
        }
      ],
      "stateMutability": "view",
      "type": "function"
    },
    {
      "inputs": [],
      "name": "borrowPerSecondInterestRateSlopeLow",
      "outputs": [
        {
          "internalType": "uint256",
          "name": "",
          "type": "uint256"
        }
      ],
      "stateMutability": "view",
      "type": "function"
    },
    {
      "inputs": [
        {
          "internalType": "address",
          "name": "_tokenAddress",
          "type": "address"
        },
        {
          "internalType": "uint256",
          "name": "_amountToBorrow",
          "type": "uint256"
        }
      ],
      "name": "borrowToken",
      "outputs": [],
      "stateMutability": "nonpayable",
      "type": "function"
    },
    {
      "inputs": [
        {
          "internalType": "address",
          "name": "_tokenAddress",
          "type": "address"
        },
        {
          "internalType": "uint256",
          "name": "_amountToBorrow",
          "type": "uint256"
        },
        {
          "internalType": "address",
          "name": "_collateralAddress",
          "type": "address"
        },
        {
          "internalType": "uint256",
          "name": "_collateralAmount",
          "type": "uint256"
        }
      ],
      "name": "borrowTokenWithCollateral",
      "outputs": [],
      "stateMutability": "nonpayable",
      "type": "function"
    },
    {
      "inputs": [],
      "name": "chainId",
      "outputs": [
        {
          "internalType": "uint256",
          "name": "",
          "type": "uint256"
        }
      ],
      "stateMutability": "view",
      "type": "function"
    },
    {
      "inputs": [
        {
          "internalType": "uint256",
          "name": "",
          "type": "uint256"
        }
      ],
      "name": "chains",
      "outputs": [
        {
          "internalType": "address",
          "name": "_address",
          "type": "address"
        },
        {
          "internalType": "uint256",
          "name": "_chainId",
          "type": "uint256"
        },
        {
          "internalType": "uint32",
          "name": "_hlId",
          "type": "uint32"
        },
        {
          "internalType": "bool",
          "name": "_exists",
          "type": "bool"
        }
      ],
      "stateMutability": "view",
      "type": "function"
    },
    {
      "inputs": [
        {
          "internalType": "bytes",
          "name": "",
          "type": "bytes"
        }
      ],
      "name": "checkUpkeep",
      "outputs": [
        {
          "internalType": "bool",
          "name": "upkeepNeeded",
          "type": "bool"
        },
        {
          "internalType": "bytes",
          "name": "",
          "type": "bytes"
        }
      ],
      "stateMutability": "view",
      "type": "function"
    },
    {
      "inputs": [
        {
          "internalType": "address",
          "name": "_token",
          "type": "address"
        }
      ],
      "name": "createMarket",
      "outputs": [],
      "stateMutability": "nonpayable",
      "type": "function"
    },
    {
      "inputs": [
        {
          "internalType": "address",
          "name": "_token",
          "type": "address"
        },
        {
          "internalType": "uint256",
          "name": "amount",
          "type": "uint256"
        }
      ],
      "name": "createMarketPool",
      "outputs": [],
      "stateMutability": "nonpayable",
      "type": "function"
    },
    {
      "inputs": [],
      "name": "dai",
      "outputs": [
        {
          "internalType": "address",
          "name": "",
          "type": "address"
        }
      ],
      "stateMutability": "view",
      "type": "function"
    },
    {
      "inputs": [],
      "name": "defaultId",
      "outputs": [
        {
          "internalType": "uint32",
          "name": "",
          "type": "uint32"
        }
      ],
      "stateMutability": "view",
      "type": "function"
    },
    {
      "inputs": [
        {
          "internalType": "uint32",
          "name": "_domain",
          "type": "uint32"
        },
        {
          "internalType": "bytes32",
          "name": "_router",
          "type": "bytes32"
        }
      ],
      "name": "enrollRemoteRouter",
      "outputs": [],
      "stateMutability": "nonpayable",
      "type": "function"
    },
    {
      "inputs": [],
      "name": "getRiskLevel",
      "outputs": [
        {
          "internalType": "uint256",
          "name": "",
          "type": "uint256"
        }
      ],
      "stateMutability": "view",
      "type": "function"
    },
    {
      "inputs": [
        {
          "internalType": "uint32",
          "name": "_origin",
          "type": "uint32"
        },
        {
          "internalType": "bytes32",
          "name": "_sender",
          "type": "bytes32"
        },
        {
          "internalType": "bytes",
          "name": "_message",
          "type": "bytes"
        }
      ],
      "name": "handle",
      "outputs": [],
      "stateMutability": "nonpayable",
      "type": "function"
    },
    {
      "inputs": [],
      "name": "hlParentId",
      "outputs": [
        {
          "internalType": "uint32",
          "name": "",
          "type": "uint32"
        }
      ],
      "stateMutability": "view",
      "type": "function"
    },
    {
      "inputs": [],
      "name": "interchainGasPaymaster",
      "outputs": [
        {
          "internalType": "contract IInterchainGasPaymaster",
          "name": "",
          "type": "address"
        }
      ],
      "stateMutability": "view",
      "type": "function"
    },
    {
      "inputs": [
        {
          "internalType": "uint128",
          "name": "_id",
          "type": "uint128"
        },
        {
          "internalType": "bool",
          "name": "borrow",
          "type": "bool"
        }
      ],
      "name": "interestRates",
      "outputs": [
        {
          "internalType": "uint256",
          "name": "",
          "type": "uint256"
        }
      ],
      "stateMutability": "view",
      "type": "function"
    },
    {
      "inputs": [],
      "name": "interval",
      "outputs": [
        {
          "internalType": "uint256",
          "name": "",
          "type": "uint256"
        }
      ],
      "stateMutability": "view",
      "type": "function"
    },
    {
      "inputs": [],
      "name": "lastAPRUpdate",
      "outputs": [
        {
          "internalType": "uint256",
          "name": "",
          "type": "uint256"
        }
      ],
      "stateMutability": "view",
      "type": "function"
    },
    {
      "inputs": [],
      "name": "lastTimeStamp",
      "outputs": [
        {
          "internalType": "uint256",
          "name": "",
          "type": "uint256"
        }
      ],
      "stateMutability": "view",
      "type": "function"
    },
    {
      "inputs": [
        {
          "internalType": "address",
          "name": "",
          "type": "address"
        }
      ],
      "name": "marketTokens",
      "outputs": [
        {
          "internalType": "bool",
          "name": "available",
          "type": "bool"
        },
        {
          "internalType": "uint128",
          "name": "_id",
          "type": "uint128"
        }
      ],
      "stateMutability": "view",
      "type": "function"
    },
    {
      "inputs": [],
      "name": "market_pools",
      "outputs": [
        {
          "internalType": "uint128",
          "name": "",
          "type": "uint128"
        }
      ],
      "stateMutability": "view",
      "type": "function"
    },
    {
      "inputs": [
        {
          "internalType": "uint128",
          "name": "",
          "type": "uint128"
        }
      ],
      "name": "markets",
      "outputs": [
        {
          "internalType": "address",
          "name": "tokenAddress",
          "type": "address"
        },
        {
          "internalType": "bool",
          "name": "available",
          "type": "bool"
        },
        {
          "internalType": "uint256",
          "name": "amountStaked",
          "type": "uint256"
        },
        {
          "internalType": "uint256",
          "name": "amountBorrowed",
          "type": "uint256"
        },
        {
          "internalType": "uint256",
          "name": "timeLastBorrowed",
          "type": "uint256"
        },
        {
          "internalType": "uint256",
          "name": "timeLastStaked",
          "type": "uint256"
        },
        {
          "internalType": "uint256",
          "name": "borrowRate",
          "type": "uint256"
        },
        {
          "internalType": "uint256",
          "name": "supplyRate",
          "type": "uint256"
        }
      ],
      "stateMutability": "view",
      "type": "function"
    },
    {
      "inputs": [],
      "name": "matic",
      "outputs": [
        {
          "internalType": "address",
          "name": "",
          "type": "address"
        }
      ],
      "stateMutability": "view",
      "type": "function"
    },
    {
      "inputs": [],
      "name": "maxLTV",
      "outputs": [
        {
          "internalType": "uint256",
          "name": "",
          "type": "uint256"
        }
      ],
      "stateMutability": "view",
      "type": "function"
    },
    {
      "inputs": [],
      "name": "minAmount",
      "outputs": [
        {
          "internalType": "uint256",
          "name": "",
          "type": "uint256"
        }
      ],
      "stateMutability": "view",
      "type": "function"
    },
    {
      "inputs": [],
      "name": "multichainRouter",
      "outputs": [
        {
          "internalType": "address",
          "name": "",
          "type": "address"
        }
      ],
      "stateMutability": "view",
      "type": "function"
    },
    {
      "inputs": [],
      "name": "owner",
      "outputs": [
        {
          "internalType": "address",
          "name": "",
          "type": "address"
        }
      ],
      "stateMutability": "view",
      "type": "function"
    },
    {
      "inputs": [],
      "name": "parentAddress",
      "outputs": [
        {
          "internalType": "address",
          "name": "",
          "type": "address"
        }
      ],
      "stateMutability": "view",
      "type": "function"
    },
    {
      "inputs": [],
      "name": "parentChainId",
      "outputs": [
        {
          "internalType": "uint256",
          "name": "",
          "type": "uint256"
        }
      ],
      "stateMutability": "view",
      "type": "function"
    },
    {
      "inputs": [
        {
          "internalType": "uint256",
          "name": "amount",
          "type": "uint256"
        }
      ],
      "name": "per_amount",
      "outputs": [
        {
          "internalType": "uint256",
          "name": "",
          "type": "uint256"
        }
      ],
      "stateMutability": "pure",
      "type": "function"
    },
    {
      "inputs": [
        {
          "internalType": "bytes",
          "name": "",
          "type": "bytes"
        }
      ],
      "name": "performUpkeep",
      "outputs": [],
      "stateMutability": "nonpayable",
      "type": "function"
    },
    {
      "inputs": [
        {
          "components": [
            {
              "internalType": "address",
              "name": "user",
              "type": "address"
            },
            {
              "internalType": "uint256",
              "name": "totalStakes",
              "type": "uint256"
            },
            {
              "internalType": "uint256",
              "name": "totalBorrows",
              "type": "uint256"
            }
          ],
          "internalType": "struct HeadenUtils.FullUpdateData[]",
          "name": "usersData",
          "type": "tuple[]"
        },
        {
          "internalType": "uint256",
          "name": "_chainId",
          "type": "uint256"
        }
      ],
      "name": "receiveFullUpdateFromChildChain",
      "outputs": [],
      "stateMutability": "nonpayable",
      "type": "function"
    },
    {
      "inputs": [
        {
          "internalType": "address",
          "name": "user",
          "type": "address"
        },
        {
          "internalType": "uint256",
          "name": "totalStakes",
          "type": "uint256"
        },
        {
          "internalType": "uint256",
          "name": "totalBorrows",
          "type": "uint256"
        },
        {
          "internalType": "uint256",
          "name": "_chainId",
          "type": "uint256"
        }
      ],
      "name": "receiveUpdateFromChildChain",
      "outputs": [],
      "stateMutability": "nonpayable",
      "type": "function"
    },
    {
      "inputs": [
        {
          "internalType": "address",
          "name": "",
          "type": "address"
        }
      ],
      "name": "relayers",
      "outputs": [
        {
          "internalType": "bool",
          "name": "",
          "type": "bool"
        }
      ],
      "stateMutability": "view",
      "type": "function"
    },
    {
      "inputs": [],
      "name": "renounceOwnership",
      "outputs": [],
      "stateMutability": "nonpayable",
      "type": "function"
    },
    {
      "inputs": [
        {
          "internalType": "address",
          "name": "_tokenAddress",
          "type": "address"
        },
        {
          "internalType": "uint256",
          "name": "_amount",
          "type": "uint256"
        }
      ],
      "name": "repayLoan",
      "outputs": [],
      "stateMutability": "nonpayable",
      "type": "function"
    },
    {
      "inputs": [
        {
          "internalType": "uint32",
          "name": "",
          "type": "uint32"
        }
      ],
      "name": "routers",
      "outputs": [
        {
          "internalType": "bytes32",
          "name": "",
          "type": "bytes32"
        }
      ],
      "stateMutability": "view",
      "type": "function"
    },
    {
      "inputs": [
        {
          "internalType": "address",
          "name": "_abacusConnectionManager",
          "type": "address"
        }
      ],
      "name": "setAbacusConnectionManager",
      "outputs": [],
      "stateMutability": "nonpayable",
      "type": "function"
    },
    {
      "inputs": [
        {
          "internalType": "address",
          "name": "_interchainGasPaymaster",
          "type": "address"
        }
      ],
      "name": "setInterchainGasPaymaster",
      "outputs": [],
      "stateMutability": "nonpayable",
      "type": "function"
    },
    {
      "inputs": [
        {
          "internalType": "address",
          "name": "_tokenAddress",
          "type": "address"
        },
        {
          "internalType": "uint256",
          "name": "_amountToStake",
          "type": "uint256"
        }
      ],
      "name": "stakeToken",
      "outputs": [],
      "stateMutability": "nonpayable",
      "type": "function"
    },
    {
      "inputs": [],
      "name": "supplyKink",
      "outputs": [
        {
          "internalType": "uint256",
          "name": "",
          "type": "uint256"
        }
      ],
      "stateMutability": "view",
      "type": "function"
    },
    {
      "inputs": [],
      "name": "supplyPerSecondInterestRateBase",
      "outputs": [
        {
          "internalType": "uint256",
          "name": "",
          "type": "uint256"
        }
      ],
      "stateMutability": "view",
      "type": "function"
    },
    {
      "inputs": [],
      "name": "supplyPerSecondInterestRateSlopeHigh",
      "outputs": [
        {
          "internalType": "uint256",
          "name": "",
          "type": "uint256"
        }
      ],
      "stateMutability": "view",
      "type": "function"
    },
    {
      "inputs": [],
      "name": "supplyPerSecondInterestRateSlopeLow",
      "outputs": [
        {
          "internalType": "uint256",
          "name": "",
          "type": "uint256"
        }
      ],
      "stateMutability": "view",
      "type": "function"
    },
    {
      "inputs": [],
      "name": "tax",
      "outputs": [
        {
          "internalType": "uint256",
          "name": "",
          "type": "uint256"
        }
      ],
      "stateMutability": "view",
      "type": "function"
    },
    {
      "inputs": [
        {
          "internalType": "address",
          "name": "newOwner",
          "type": "address"
        }
      ],
      "name": "transferOwnership",
      "outputs": [],
      "stateMutability": "nonpayable",
      "type": "function"
    },
    {
      "inputs": [
        {
          "components": [
            {
              "internalType": "uint64",
              "name": "supplyKink",
              "type": "uint64"
            },
            {
              "internalType": "uint64",
              "name": "supplyPerYearInterestRateSlopeLow",
              "type": "uint64"
            },
            {
              "internalType": "uint64",
              "name": "supplyPerYearInterestRateSlopeHigh",
              "type": "uint64"
            },
            {
              "internalType": "uint64",
              "name": "supplyPerYearInterestRateBase",
              "type": "uint64"
            },
            {
              "internalType": "uint64",
              "name": "borrowKink",
              "type": "uint64"
            },
            {
              "internalType": "uint64",
              "name": "borrowPerYearInterestRateSlopeLow",
              "type": "uint64"
            },
            {
              "internalType": "uint64",
              "name": "borrowPerYearInterestRateSlopeHigh",
              "type": "uint64"
            },
            {
              "internalType": "uint64",
              "name": "borrowPerYearInterestRateBase",
              "type": "uint64"
            }
          ],
          "internalType": "struct HeadenUtils.Configuration",
          "name": "config",
          "type": "tuple"
        },
        {
          "internalType": "address",
          "name": "_relayer",
          "type": "address"
        },
        {
          "internalType": "uint256",
          "name": "_minAmount",
          "type": "uint256"
        },
        {
          "internalType": "bool",
          "name": "light",
          "type": "bool"
        }
      ],
      "name": "updateSettings",
      "outputs": [],
      "stateMutability": "nonpayable",
      "type": "function"
    },
    {
      "inputs": [],
      "name": "usdc",
      "outputs": [
        {
          "internalType": "address",
          "name": "",
          "type": "address"
        }
      ],
      "stateMutability": "view",
      "type": "function"
    },
    {
      "inputs": [
        {
          "internalType": "uint256",
          "name": "",
          "type": "uint256"
        }
      ],
      "name": "userAddresses",
      "outputs": [
        {
          "internalType": "address",
          "name": "",
          "type": "address"
        }
      ],
      "stateMutability": "view",
      "type": "function"
    },
    {
      "inputs": [
        {
          "internalType": "uint256",
          "name": "",
          "type": "uint256"
        },
        {
          "internalType": "address",
          "name": "",
          "type": "address"
        }
      ],
      "name": "users",
      "outputs": [
        {
          "internalType": "address",
          "name": "userAddress",
          "type": "address"
        },
        {
          "internalType": "bool",
          "name": "available",
          "type": "bool"
        },
        {
          "internalType": "uint256",
          "name": "totalAmountBorrowed",
          "type": "uint256"
        },
        {
          "internalType": "uint256",
          "name": "totalAmountStaked",
          "type": "uint256"
        },
        {
          "internalType": "uint256",
          "name": "ltv",
          "type": "uint256"
        },
        {
          "internalType": "bool",
          "name": "lock",
          "type": "bool"
        },
        {
          "internalType": "uint256",
          "name": "lastAPRUpdated",
          "type": "uint256"
        }
      ],
      "stateMutability": "view",
      "type": "function"
    },
    {
      "inputs": [
        {
          "internalType": "bytes32",
          "name": "",
          "type": "bytes32"
        }
      ],
      "name": "usersborrows",
      "outputs": [
        {
          "internalType": "address",
          "name": "userAddress",
          "type": "address"
        },
        {
          "internalType": "address",
          "name": "tokenAddress",
          "type": "address"
        },
        {
          "internalType": "bool",
          "name": "available",
          "type": "bool"
        },
        {
          "internalType": "uint256",
          "name": "amountBorrowed",
          "type": "uint256"
        }
      ],
      "stateMutability": "view",
      "type": "function"
    },
    {
      "inputs": [
        {
          "internalType": "bytes32",
          "name": "",
          "type": "bytes32"
        }
      ],
      "name": "userstakes",
      "outputs": [
        {
          "internalType": "address",
          "name": "userAddress",
          "type": "address"
        },
        {
          "internalType": "address",
          "name": "tokenAddress",
          "type": "address"
        },
        {
          "internalType": "bool",
          "name": "available",
          "type": "bool"
        },
        {
          "internalType": "uint256",
          "name": "amountStaked",
          "type": "uint256"
        }
      ],
      "stateMutability": "view",
      "type": "function"
    },
    {
      "inputs": [
        {
          "internalType": "address",
          "name": "user",
          "type": "address"
        },
        {
          "internalType": "address",
          "name": "token",
          "type": "address"
        }
      ],
      "name": "validateUser",
      "outputs": [],
      "stateMutability": "nonpayable",
      "type": "function"
    },
    {
      "inputs": [],
      "name": "validateUsers",
      "outputs": [],
      "stateMutability": "nonpayable",
      "type": "function"
    },
    {
      "inputs": [
        {
          "internalType": "address",
          "name": "_tokenAddress",
          "type": "address"
        },
        {
          "internalType": "uint256",
          "name": "_amountToWithdraw",
          "type": "uint256"
        },
        {
          "internalType": "uint256",
          "name": "_chainId",
          "type": "uint256"
        },
        {
          "internalType": "address",
          "name": "_to",
          "type": "address"
        }
      ],
      "name": "withdrawToken",
      "outputs": [],
      "stateMutability": "nonpayable",
      "type": "function"
    }
  ],
  "bytecode": "0x60c060405273572ddec9087154dc5dfbb1546bb62713147e0ab06000806101000a81548173ffffffffffffffffffffffffffffffffffffffff021916908373ffffffffffffffffffffffffffffffffffffffff16021790555061015e600455670de0b6b3a76400006009556301e13380600a55600063ffffffff1660809063ffffffff1660e01b815250611b58600d5542600e55631dcd6500600f55600060e860006101000a8154816fffffffffffffffffffffffffffffffff02191690836fffffffffffffffffffffffffffffffff160217905550348015620000e257600080fd5b506040516200bce43803806200bce4833981810160405281019062000108919062000ae5565b8a8a8a8a8a8a8a88886001808190555087600560006101000a81548173ffffffffffffffffffffffffffffffffffffffff021916908373ffffffffffffffffffffffffffffffffffffffff160217905550866003908051906020019062000171929190620007a5565b5085600260006101000a81548173ffffffffffffffffffffffffffffffffffffffff021916908373ffffffffffffffffffffffffffffffffffffffff16021790555083600760006101000a81548173ffffffffffffffffffffffffffffffffffffffff021916908373ffffffffffffffffffffffffffffffffffffffff16021790555084600660006101000a81548173ffffffffffffffffffffffffffffffffffffffff021916908373ffffffffffffffffffffffffffffffffffffffff16021790555082600860006101000a81548173ffffffffffffffffffffffffffffffffffffffff021916908373ffffffffffffffffffffffffffffffffffffffff1602179055508860a0818152505042600b8190555081600c81905550806000015167ffffffffffffffff16601081905550600a54816020015167ffffffffffffffff1681620002e8577f4e487b7100000000000000000000000000000000000000000000000000000000600052601260045260246000fd5b04601181905550600a54816040015167ffffffffffffffff168162000336577f4e487b7100000000000000000000000000000000000000000000000000000000600052601260045260246000fd5b04601281905550600a54816060015167ffffffffffffffff168162000384577f4e487b7100000000000000000000000000000000000000000000000000000000600052601260045260246000fd5b04601381905550806080015167ffffffffffffffff16601481905550600a548160a0015167ffffffffffffffff1681620003e7577f4e487b7100000000000000000000000000000000000000000000000000000000600052601260045260246000fd5b04601581905550600a548160c0015167ffffffffffffffff168162000435577f4e487b7100000000000000000000000000000000000000000000000000000000600052601260045260246000fd5b04601681905550600a548160e0015167ffffffffffffffff168162000483577f4e487b7100000000000000000000000000000000000000000000000000000000600052601260045260246000fd5b04601781905550505050505050505050600160e660003373ffffffffffffffffffffffffffffffffffffffff1673ffffffffffffffffffffffffffffffffffffffff16815260200190815260200160002060006101000a81548160ff0219169083151502179055506200050084600001516200069760201b60201c565b6200051584602001516200071e60201b60201c565b60405180608001604052803073ffffffffffffffffffffffffffffffffffffffff16815260200184602001518152602001846040015163ffffffff1681526020016001151581525060e76000856040015163ffffffff16815260200190815260200160002060008201518160000160006101000a81548173ffffffffffffffffffffffffffffffffffffffff021916908373ffffffffffffffffffffffffffffffffffffffff1602179055506020820151816001015560408201518160020160006101000a81548163ffffffff021916908363ffffffff16021790555060608201518160020160046101000a81548160ff021916908315150217905550905050826040015160ea60006101000a81548163ffffffff021916908363ffffffff1602179055503060ea60046101000a81548173ffffffffffffffffffffffffffffffffffffffff021916908373ffffffffffffffffffffffffffffffffffffffff160217905550826020015160eb81905550505050505050505050505062000e65565b80607d60006101000a81548173ffffffffffffffffffffffffffffffffffffffff021916908373ffffffffffffffffffffffffffffffffffffffff1602179055508073ffffffffffffffffffffffffffffffffffffffff167f7c10de8878ed89478ff01b9cd8c11a5271ea8ac91d46f662e6aea7e3adf5b11f60405160405180910390a250565b80607e60006101000a81548173ffffffffffffffffffffffffffffffffffffffff021916908373ffffffffffffffffffffffffffffffffffffffff1602179055508073ffffffffffffffffffffffffffffffffffffffff167fb87f5a0bface22cde699143559fb99f990ae54eea236995fc54178af91af859f60405160405180910390a250565b828054620007b39062000d08565b90600052602060002090601f016020900481019282620007d7576000855562000823565b82601f10620007f257805160ff191683800117855562000823565b8280016001018555821562000823579182015b828111156200082257825182559160200191906001019062000805565b5b50905062000832919062000836565b5090565b5b808211156200085157600081600090555060010162000837565b5090565b60006200086c620008668462000c2e565b62000c05565b9050828152602081018484840111156200088557600080fd5b6200089284828562000cd2565b509392505050565b600081519050620008ab8162000de3565b92915050565b600081519050620008c28162000dfd565b92915050565b600082601f830112620008da57600080fd5b8151620008ec84826020860162000855565b91505092915050565b6000604082840312156200090857600080fd5b62000914604062000c05565b9050600062000926848285016200089a565b60008301525060206200093c848285016200089a565b60208301525092915050565b6000608082840312156200095b57600080fd5b62000967608062000c05565b9050600062000979848285016200089a565b60008301525060206200098f8482850162000aa0565b6020830152506040620009a58482850162000ab7565b6040830152506060620009bb84828501620008b1565b60608301525092915050565b60006101008284031215620009db57600080fd5b620009e861010062000c05565b90506000620009fa8482850162000ace565b600083015250602062000a108482850162000ace565b602083015250604062000a268482850162000ace565b604083015250606062000a3c8482850162000ace565b606083015250608062000a528482850162000ace565b60808301525060a062000a688482850162000ace565b60a08301525060c062000a7e8482850162000ace565b60c08301525060e062000a948482850162000ace565b60e08301525092915050565b60008151905062000ab18162000e17565b92915050565b60008151905062000ac88162000e31565b92915050565b60008151905062000adf8162000e4b565b92915050565b60008060008060008060008060008060006102c08c8e03121562000b0857600080fd5b600062000b188e828f0162000aa0565b9b5050602062000b2b8e828f016200089a565b9a505060408c015167ffffffffffffffff81111562000b4957600080fd5b62000b578e828f01620008c8565b995050606062000b6a8e828f016200089a565b985050608062000b7d8e828f016200089a565b97505060a062000b908e828f016200089a565b96505060c062000ba38e828f016200089a565b95505060e062000bb68e828f01620008f5565b94505061012062000bca8e828f0162000948565b9350506101a062000bde8e828f0162000aa0565b9250506101c062000bf28e828f01620009c7565b9150509295989b509295989b9093969950565b600062000c1162000c24565b905062000c1f828262000d3e565b919050565b6000604051905090565b600067ffffffffffffffff82111562000c4c5762000c4b62000da3565b5b62000c578262000dd2565b9050602081019050919050565b600062000c718262000c84565b9050919050565b60008115159050919050565b600073ffffffffffffffffffffffffffffffffffffffff82169050919050565b6000819050919050565b600063ffffffff82169050919050565b600067ffffffffffffffff82169050919050565b60005b8381101562000cf257808201518184015260208101905062000cd5565b8381111562000d02576000848401525b50505050565b6000600282049050600182168062000d2157607f821691505b6020821081141562000d385762000d3762000d74565b5b50919050565b62000d498262000dd2565b810181811067ffffffffffffffff8211171562000d6b5762000d6a62000da3565b5b80604052505050565b7f4e487b7100000000000000000000000000000000000000000000000000000000600052602260045260246000fd5b7f4e487b7100000000000000000000000000000000000000000000000000000000600052604160045260246000fd5b6000601f19601f8301169050919050565b62000dee8162000c64565b811462000dfa57600080fd5b50565b62000e088162000c78565b811462000e1457600080fd5b50565b62000e228162000ca4565b811462000e2e57600080fd5b50565b62000e3c8162000cae565b811462000e4857600080fd5b50565b62000e568162000cbe565b811462000e6257600080fd5b50565b60805160e01c60a05161adf462000ef0600039600081816111f601528181612dee01526137950152600081816139a6015281816164df0152818161656f0152818161660001528181616680015281816166fd015281816167860152818161680a01528181616d8e01528181616e0801528181616ff101528181617620015261769e015261adf46000f3fe608060405234801561001057600080fd5b50600436106103ae5760003560e01c80638da5cb5b116101f4578063b6b0b0971161011a578063f0c4e886116100ad578063f4b9fa751161007c578063f4b9fa7514610b1d578063f5a96d3f14610b3b578063f7158bbf14610b45578063f739ed9e14610b61576103ae565b8063f0c4e88614610aab578063f1bd6f0a14610ac7578063f2fde38b14610ae3578063f384bd0514610aff576103ae565b8063c6f4c578116100e9578063c6f4c57814610a35578063cb170b3014610a53578063e0b5330714610a6f578063e6a69ab814610a8d576103ae565b8063b6b0b09714610995578063b9d02df4146109b3578063bff0dbc4146109e9578063c44814a614610a05576103ae565b80639a35c35911610192578063a5b4ff7911610161578063a5b4ff791461090d578063a7aa273b1461092b578063ae4b19ce1461095b578063b49c53a714610979576103ae565b80639a35c359146108955780639a8a0592146108b35780639b2cb5d8146108d15780639c65582c146108ef576103ae565b8063947a36fb116101ce578063947a36fb1461081d57806394920cca1461083b57806397ac1fc91461085957806399c8d55614610877576103ae565b80638da5cb5b146107c55780639241a561146107e357806393a595f514610801576103ae565b806352de5727116102d95780635db11f7911610277578063715018a611610246578063715018a6146107635780637914acc71461076d5780637c1083331461078b578063804de71f146107a7576103ae565b80635db11f79146106c757806365c65076146106f85780636cf2ed94146107145780636e04ff0d14610732576103ae565b8063550325b5116102b3578063550325b51461063e57806356d5d475146106715780635a91b39c1461068d5780635a94b8d1146106a9576103ae565b806352de5727146105bf57806352fcaa79146105db5780635300f8411461060e576103ae565b806339bb4ad9116103515780633f3b3b27116103205780633f3b3b27146105395780634585e33b146105575780634c24d52114610573578063502c9bd51461058f576103ae565b806339bb4ad9146104a85780633cd83bda146104c65780633d3e49fc146104e45780633e413bee1461051b576103ae565b80632a48cf121161038d5780632a48cf12146104095780632d05670b146104275780632ead72f614610445578063396ce21314610475576103ae565b8062821de3146103b357806312b1d780146103d15780631f3929e3146103ed575b600080fd5b6103bb610b7d565b6040516103c8919061979a565b60405180910390f35b6103eb60048036038101906103e69190618aeb565b610ba3565b005b61040760048036038101906104029190618b9f565b610bb7565b005b610411610ffa565b60405161041e9190619e91565b60405180910390f35b61042f611000565b60405161043c9190619e91565b60405180910390f35b61045f600480360381019061045a9190619009565b611006565b60405161046c9190619aea565b60405180910390f35b61048f600480360381019061048a9190618dc6565b61101e565b60405161049f94939291906197b5565b60405180910390f35b6104b061109b565b6040516104bd9190619b20565b60405180910390f35b6104ce6110c1565b6040516104db9190619e91565b60405180910390f35b6104fe60048036038101906104f99190618f16565b6110c7565b6040516105129897969594939291906198e5565b60405180910390f35b61052361113c565b604051610530919061979a565b60405180910390f35b610541611162565b60405161054e9190619e91565b60405180910390f35b610571600480360381019061056c9190618def565b611168565b005b61058d60048036038101906105889190618e86565b611271565b005b6105a960048036038101906105a49190618f7b565b611404565b6040516105b6919061979a565b60405180910390f35b6105d960048036038101906105d49190618b63565b611443565b005b6105f560048036038101906105f09190618dc6565b6115e1565b60405161060594939291906197b5565b60405180910390f35b61062860048036038101906106239190618aeb565b61165e565b6040516106359190619a76565b60405180910390f35b61065860048036038101906106539190618f7b565b61167e565b6040516106689493929190619a31565b60405180910390f35b61068b6004803603810190610686919061906e565b6116eb565b005b6106a760048036038101906106a29190618b9f565b611790565b005b6106b1612063565b6040516106be9190619e91565b60405180910390f35b6106e160048036038101906106dc9190618aeb565b612069565b6040516106ef929190619ac1565b60405180910390f35b610712600480360381019061070d9190618bdb565b6120b6565b005b61071c612dd2565b6040516107299190619f05565b60405180910390f35b61074c60048036038101906107479190618def565b612de8565b60405161075a929190619a91565b60405180910390f35b61076b612e25565b005b610775612e39565b6040516107829190619e91565b60405180910390f35b6107a560048036038101906107a09190618aeb565b612e3f565b005b6107af6131fd565b6040516107bc9190619e91565b60405180910390f35b6107cd613203565b6040516107da919061979a565b60405180910390f35b6107eb61322d565b6040516107f89190619e91565b60405180910390f35b61081b60048036038101906108169190618b9f565b613233565b005b610825613793565b6040516108329190619e91565b60405180910390f35b6108436137b7565b6040516108509190619e91565b60405180910390f35b6108616137bd565b60405161086e9190619e76565b60405180910390f35b61087f6137df565b60405161088c9190619e91565b60405180910390f35b61089d6137e5565b6040516108aa9190619b05565b60405180910390f35b6108bb61380b565b6040516108c89190619e91565b60405180910390f35b6108d9613811565b6040516108e69190619e91565b60405180910390f35b6108f7613817565b6040516109049190619e91565b60405180910390f35b61091561381d565b6040516109229190619e91565b60405180910390f35b61094560048036038101906109409190618f3f565b613823565b6040516109529190619e91565b60405180910390f35b6109636139a4565b6040516109709190619f05565b60405180910390f35b610993600480360381019061098e9190619032565b6139c8565b005b61099d6139de565b6040516109aa919061979a565b60405180910390f35b6109cd60048036038101906109c89190618fcd565b613a04565b6040516109e09796959493929190619876565b60405180910390f35b610a0360048036038101906109fe9190618d04565b613a8d565b005b610a1f6004803603810190610a1a9190618f7b565b613c75565b604051610a2c9190619e91565b60405180910390f35b610a3d613c8c565b604051610a4a919061979a565b60405180910390f35b610a6d6004803603810190610a689190618ca1565b613cb2565b005b610a77613dae565b604051610a849190619e91565b60405180910390f35b610a95613ead565b604051610aa29190619e91565b60405180910390f35b610ac56004803603810190610ac09190618c3e565b613eb3565b005b610ae16004803603810190610adc9190618aeb565b61474d565b005b610afd6004803603810190610af89190618aeb565b614761565b005b610b076147e5565b604051610b149190619e91565b60405180910390f35b610b256147eb565b604051610b32919061979a565b60405180910390f35b610b43614811565b005b610b5f6004803603810190610b5a9190618eaf565b614b4f565b005b610b7b6004803603810190610b769190618b9f565b614eb4565b005b60ea60049054906101000a900473ffffffffffffffffffffffffffffffffffffffff1681565b610bab61527d565b610bb4816152fb565b50565b600160e860008282829054906101000a90046fffffffffffffffffffffffffffffffff16610be5919061a066565b92506101000a8154816fffffffffffffffffffffffffffffffff02191690836fffffffffffffffffffffffffffffffff16021790555060e560008373ffffffffffffffffffffffffffffffffffffffff1673ffffffffffffffffffffffffffffffffffffffff16815260200190815260200160002060000160009054906101000a900460ff1615610cab576040517f08c379a0000000000000000000000000000000000000000000000000000000008152600401610ca290619dfb565b60405180910390fd5b6040518061010001604052808373ffffffffffffffffffffffffffffffffffffffff1681526020016001151581526020018281526020016000815260200142815260200142815260200160008152602001600081525060e4600060e860009054906101000a90046fffffffffffffffffffffffffffffffff166fffffffffffffffffffffffffffffffff166fffffffffffffffffffffffffffffffff16815260200190815260200160002060008201518160000160006101000a81548173ffffffffffffffffffffffffffffffffffffffff021916908373ffffffffffffffffffffffffffffffffffffffff16021790555060208201518160000160146101000a81548160ff02191690831515021790555060408201518160010155606082015181600201556080820151816003015560a0820151816004015560c0820151816005015560e08201518160060155905050604051806040016040528060011515815260200160e860009054906101000a90046fffffffffffffffffffffffffffffffff166fffffffffffffffffffffffffffffffff1681525060e560008473ffffffffffffffffffffffffffffffffffffffff1673ffffffffffffffffffffffffffffffffffffffff16815260200190815260200160002060008201518160000160006101000a81548160ff02191690831515021790555060208201518160000160016101000a8154816fffffffffffffffffffffffffffffffff02191690836fffffffffffffffffffffffffffffffff1602179055509050506000610ef18383615382565b9050610f9c60008054906101000a900473ffffffffffffffffffffffffffffffffffffffff1673ffffffffffffffffffffffffffffffffffffffff1663313ce5676040518163ffffffff1660e01b815260040160206040518083038186803b158015610f5c57600080fd5b505afa158015610f70573d6000803e3d6000fd5b505050506040513d601f19601f82011682018060405250810190610f9491906190fe565b60ff166156db565b610dac610fa9919061a2a4565b811015610feb576040517f08c379a0000000000000000000000000000000000000000000000000000000008152600401610fe290619bfb565b60405180910390fd5b610ff583836156f1565b505050565b60165481565b60155481565b60af6020528060005260406000206000915090505481565b60e26020528060005260406000206000915090508060000160009054906101000a900473ffffffffffffffffffffffffffffffffffffffff16908060010160009054906101000a900473ffffffffffffffffffffffffffffffffffffffff16908060010160149054906101000a900460ff16908060020154905084565b607e60009054906101000a900473ffffffffffffffffffffffffffffffffffffffff1681565b600e5481565b60e46020528060005260406000206000915090508060000160009054906101000a900473ffffffffffffffffffffffffffffffffffffffff16908060000160149054906101000a900460ff16908060010154908060020154908060030154908060040154908060050154908060060154905088565b600660009054906101000a900473ffffffffffffffffffffffffffffffffffffffff1681565b600b5481565b60e660003373ffffffffffffffffffffffffffffffffffffffff1673ffffffffffffffffffffffffffffffffffffffff16815260200190815260200160002060009054906101000a900460ff166111f4576040517f08c379a00000000000000000000000000000000000000000000000000000000081526004016111eb90619b3b565b60405180910390fd5b7f0000000000000000000000000000000000000000000000000000000000000000600b5442611223919061a2fe565b111561126d5742600b819055507f4c046938d8adaf12f829530d5ab0441e591705682189298941fd0d767cc22eab60405160405180910390a1611264614811565b61126c615c50565b5b5050565b60e660003373ffffffffffffffffffffffffffffffffffffffff1673ffffffffffffffffffffffffffffffffffffffff16815260200190815260200160002060009054906101000a900460ff166112fd576040517f08c379a00000000000000000000000000000000000000000000000000000000081526004016112f490619b3b565b60405180910390fd5b6040518060800160405280826000015173ffffffffffffffffffffffffffffffffffffffff16815260200182602001518152602001826040015163ffffffff1681526020016001151581525060e76000836040015163ffffffff16815260200190815260200160002060008201518160000160006101000a81548173ffffffffffffffffffffffffffffffffffffffff021916908373ffffffffffffffffffffffffffffffffffffffff1602179055506020820151816001015560408201518160020160006101000a81548163ffffffff021916908363ffffffff16021790555060608201518160020160046101000a81548160ff02191690831515021790555090505050565b60e9818154811061141457600080fd5b906000526020600020016000915054906101000a900473ffffffffffffffffffffffffffffffffffffffff1681565b60e660003373ffffffffffffffffffffffffffffffffffffffff1673ffffffffffffffffffffffffffffffffffffffff16815260200190815260200160002060009054906101000a900460ff166114cf576040517f08c379a00000000000000000000000000000000000000000000000000000000081526004016114c690619b3b565b60405180910390fd5b6114d98282615cbb565b50600d5460e16000600c54815260200190815260200160002060008473ffffffffffffffffffffffffffffffffffffffff1673ffffffffffffffffffffffffffffffffffffffff168152602001908152602001600020600301541061154c576115428282616390565b61154b82616889565b5b7fab8c9917d424586fd5d8b63bc0f89a035700c3234b1dc521a6fa0c510d23498e60e16000600c54815260200190815260200160002060008473ffffffffffffffffffffffffffffffffffffffff1673ffffffffffffffffffffffffffffffffffffffff1681526020019081526020016000206040516115cc9190619e5b565b60405180910390a16115dd82616d14565b5050565b60e36020528060005260406000206000915090508060000160009054906101000a900473ffffffffffffffffffffffffffffffffffffffff16908060010160009054906101000a900473ffffffffffffffffffffffffffffffffffffffff16908060010160149054906101000a900460ff16908060020154905084565b60e66020528060005260406000206000915054906101000a900460ff1681565b60e76020528060005260406000206000915090508060000160009054906101000a900473ffffffffffffffffffffffffffffffffffffffff16908060010154908060020160009054906101000a900463ffffffff16908060020160049054906101000a900460ff16905084565b6116f433616ebd565b611733576040517f08c379a000000000000000000000000000000000000000000000000000000000815260040161172a90619cfb565b60405180910390fd5b828261173f8282616f71565b61177e576040517f08c379a000000000000000000000000000000000000000000000000000000000815260040161177590619d1b565b60405180910390fd5b611789858585616f9d565b5050505050565b60e16000600c54815260200190815260200160002060003373ffffffffffffffffffffffffffffffffffffffff1673ffffffffffffffffffffffffffffffffffffffff16815260200190815260200160002060000160149054906101000a900460ff16611832576040517f08c379a000000000000000000000000000000000000000000000000000000000815260040161182990619d7b565b60405180910390fd5b60e16000600c54815260200190815260200160002060003373ffffffffffffffffffffffffffffffffffffffff1673ffffffffffffffffffffffffffffffffffffffff16815260200190815260200160002060040160009054906101000a900460ff16156118d5576040517f08c379a00000000000000000000000000000000000000000000000000000000081526004016118cc90619d5b565b60405180910390fd5b6002600154141561191b576040517f08c379a000000000000000000000000000000000000000000000000000000000815260040161191290619dbb565b60405180910390fd5b600260018190555060e560008373ffffffffffffffffffffffffffffffffffffffff1673ffffffffffffffffffffffffffffffffffffffff16815260200190815260200160002060000160009054906101000a900460ff166119b2576040517f08c379a00000000000000000000000000000000000000000000000000000000081526004016119a990619e1b565b60405180910390fd5b6000338360036040516020016119ca93929190619761565b6040516020818303038152906040528051906020012090506000612710836004546119f5919061a2a4565b6119ff919061a102565b90506000611a0d8585615382565b9050600f548111611a53576040517f08c379a0000000000000000000000000000000000000000000000000000000008152600401611a4a90619b7b565b60405180910390fd5b611a5c33616889565b600d5460e16000600c54815260200190815260200160002060003373ffffffffffffffffffffffffffffffffffffffff1673ffffffffffffffffffffffffffffffffffffffff168152602001908152602001600020600201546127108360e16000600c54815260200190815260200160002060003373ffffffffffffffffffffffffffffffffffffffff1673ffffffffffffffffffffffffffffffffffffffff16815260200190815260200160002060010154611b19919061a0ac565b611b23919061a2a4565b611b2d919061a102565b10611b6d576040517f08c379a0000000000000000000000000000000000000000000000000000000008152600401611b6490619c7b565b60405180910390fd5b60e2600084815260200190815260200160002060010160149054906101000a900460ff1615611bc8578360e260008581526020019081526020016000206002016000828254611bbc919061a0ac565b92505081905550611ce7565b60405180608001604052803373ffffffffffffffffffffffffffffffffffffffff1681526020018673ffffffffffffffffffffffffffffffffffffffff1681526020016001151581526020018581525060e2600085815260200190815260200160002060008201518160000160006101000a81548173ffffffffffffffffffffffffffffffffffffffff021916908373ffffffffffffffffffffffffffffffffffffffff16021790555060208201518160010160006101000a81548173ffffffffffffffffffffffffffffffffffffffff021916908373ffffffffffffffffffffffffffffffffffffffff16021790555060408201518160010160146101000a81548160ff021916908315150217905550606082015181600201559050505b8060e16000600c54815260200190815260200160002060003373ffffffffffffffffffffffffffffffffffffffff1673ffffffffffffffffffffffffffffffffffffffff1681526020019081526020016000206001016000828254611d4c919061a0ac565b92505081905550838573ffffffffffffffffffffffffffffffffffffffff166370a08231306040518263ffffffff1660e01b8152600401611d8d919061979a565b60206040518083038186803b158015611da557600080fd5b505afa158015611db9573d6000803e3d6000fd5b505050506040513d601f19601f82011682018060405250810190611ddd9190618fa4565b1015611e3f57611df985600286611df4919061a2a4565b6171b8565b6000611e3a576040517f08c379a0000000000000000000000000000000000000000000000000000000008152600401611e3190619cdb565b60405180910390fd5b611f17565b8473ffffffffffffffffffffffffffffffffffffffff1663a9059cbb338487611e68919061a2fe565b6040518363ffffffff1660e01b8152600401611e85929190619963565b602060405180830381600087803b158015611e9f57600080fd5b505af1158015611eb3573d6000803e3d6000fd5b505050506040513d601f19601f82011682018060405250810190611ed79190618d9d565b611f16576040517f08c379a0000000000000000000000000000000000000000000000000000000008152600401611f0d90619c9b565b60405180910390fd5b5b611f828460018060e560008a73ffffffffffffffffffffffffffffffffffffffff1673ffffffffffffffffffffffffffffffffffffffff16815260200190815260200160002060000160019054906101000a90046fffffffffffffffffffffffffffffffff1661728d565b611f8b33617482565b7fab8c9917d424586fd5d8b63bc0f89a035700c3234b1dc521a6fa0c510d23498e60e16000600c54815260200190815260200160002060003373ffffffffffffffffffffffffffffffffffffffff1673ffffffffffffffffffffffffffffffffffffffff16815260200190815260200160002060405161200b9190619e5b565b60405180910390a17f84d6fc9f7244aba67b2ad2bfc67d8d3ed92b7e4932a482888bac6a4595019a158486604051612044929190619eac565b60405180910390a161205533616d14565b505050600180819055505050565b60115481565b60e56020528060005260406000206000915090508060000160009054906101000a900460ff16908060000160019054906101000a90046fffffffffffffffffffffffffffffffff16905082565b60e16000600c54815260200190815260200160002060003373ffffffffffffffffffffffffffffffffffffffff1673ffffffffffffffffffffffffffffffffffffffff16815260200190815260200160002060000160149054906101000a900460ff16612158576040517f08c379a000000000000000000000000000000000000000000000000000000000815260040161214f90619d7b565b60405180910390fd5b60e16000600c54815260200190815260200160002060003373ffffffffffffffffffffffffffffffffffffffff1673ffffffffffffffffffffffffffffffffffffffff16815260200190815260200160002060040160009054906101000a900460ff16156121fb576040517f08c379a00000000000000000000000000000000000000000000000000000000081526004016121f290619d5b565b60405180910390fd5b60026001541415612241576040517f08c379a000000000000000000000000000000000000000000000000000000000815260040161223890619dbb565b60405180910390fd5b600260018190555060e560008573ffffffffffffffffffffffffffffffffffffffff1673ffffffffffffffffffffffffffffffffffffffff16815260200190815260200160002060000160009054906101000a900460ff166122d8576040517f08c379a00000000000000000000000000000000000000000000000000000000081526004016122cf90619e1b565b60405180910390fd5b60e560008373ffffffffffffffffffffffffffffffffffffffff1673ffffffffffffffffffffffffffffffffffffffff16815260200190815260200160002060000160009054906101000a900460ff16612367576040517f08c379a000000000000000000000000000000000000000000000000000000000815260040161235e90619e3b565b60405180910390fd5b60003385600360405160200161237f93929190619761565b6040516020818303038152906040528051906020012090506000612710856004546123aa919061a2a4565b6123b4919061a102565b905060006123c28787615382565b905060006123d08686615382565b9050600f548211612416576040517f08c379a000000000000000000000000000000000000000000000000000000000815260040161240d90619ddb565b60405180910390fd5b600f54811161245a576040517f08c379a000000000000000000000000000000000000000000000000000000000815260040161245190619b5b565b60405180910390fd5b61246333616889565b600d548160e16000600c54815260200190815260200160002060003373ffffffffffffffffffffffffffffffffffffffff1673ffffffffffffffffffffffffffffffffffffffff168152602001908152602001600020600201546124c7919061a0ac565b6127108460e16000600c54815260200190815260200160002060003373ffffffffffffffffffffffffffffffffffffffff1673ffffffffffffffffffffffffffffffffffffffff1681526020019081526020016000206001015461252b919061a0ac565b612535919061a2a4565b61253f919061a102565b1061257f576040517f08c379a000000000000000000000000000000000000000000000000000000000815260040161257690619c7b565b60405180910390fd5b60e2600085815260200190815260200160002060010160149054906101000a900460ff16156125da578660e2600086815260200190815260200160002060020160008282546125ce919061a0ac565b925050819055506126f9565b60405180608001604052803373ffffffffffffffffffffffffffffffffffffffff1681526020018973ffffffffffffffffffffffffffffffffffffffff1681526020016001151581526020018881525060e2600086815260200190815260200160002060008201518160000160006101000a81548173ffffffffffffffffffffffffffffffffffffffff021916908373ffffffffffffffffffffffffffffffffffffffff16021790555060208201518160010160006101000a81548173ffffffffffffffffffffffffffffffffffffffff021916908373ffffffffffffffffffffffffffffffffffffffff16021790555060408201518160010160146101000a81548160ff021916908315150217905550606082015181600201559050505b60e3600085815260200190815260200160002060010160149054906101000a900460ff1615612754578460e360008681526020019081526020016000206002016000828254612748919061a0ac565b92505081905550612873565b60405180608001604052803373ffffffffffffffffffffffffffffffffffffffff1681526020018973ffffffffffffffffffffffffffffffffffffffff1681526020016001151581526020018681525060e3600086815260200190815260200160002060008201518160000160006101000a81548173ffffffffffffffffffffffffffffffffffffffff021916908373ffffffffffffffffffffffffffffffffffffffff16021790555060208201518160010160006101000a81548173ffffffffffffffffffffffffffffffffffffffff021916908373ffffffffffffffffffffffffffffffffffffffff16021790555060408201518160010160146101000a81548160ff021916908315150217905550606082015181600201559050505b8160e16000600c54815260200190815260200160002060003373ffffffffffffffffffffffffffffffffffffffff1673ffffffffffffffffffffffffffffffffffffffff16815260200190815260200160002060010160008282546128d8919061a0ac565b925050819055508060e16000600c54815260200190815260200160002060003373ffffffffffffffffffffffffffffffffffffffff1673ffffffffffffffffffffffffffffffffffffffff1681526020019081526020016000206002016000828254612944919061a0ac565b92505081905550868873ffffffffffffffffffffffffffffffffffffffff166370a08231306040518263ffffffff1660e01b8152600401612985919061979a565b60206040518083038186803b15801561299d57600080fd5b505afa1580156129b1573d6000803e3d6000fd5b505050506040513d601f19601f820116820180604052508101906129d59190618fa4565b1015612a37576129f1886002896129ec919061a2a4565b6171b8565b6000612a32576040517f08c379a0000000000000000000000000000000000000000000000000000000008152600401612a2990619cdb565b60405180910390fd5b612bdd565b8573ffffffffffffffffffffffffffffffffffffffff166323b872dd3330886040518463ffffffff1660e01b8152600401612a74939291906197fa565b602060405180830381600087803b158015612a8e57600080fd5b505af1158015612aa2573d6000803e3d6000fd5b505050506040513d601f19601f82011682018060405250810190612ac69190618d9d565b612b05576040517f08c379a0000000000000000000000000000000000000000000000000000000008152600401612afc90619c9b565b60405180910390fd5b8773ffffffffffffffffffffffffffffffffffffffff1663a9059cbb33858a612b2e919061a2fe565b6040518363ffffffff1660e01b8152600401612b4b929190619963565b602060405180830381600087803b158015612b6557600080fd5b505af1158015612b79573d6000803e3d6000fd5b505050506040513d601f19601f82011682018060405250810190612b9d9190618d9d565b612bdc576040517f08c379a0000000000000000000000000000000000000000000000000000000008152600401612bd390619c9b565b60405180910390fd5b5b612c49876001600060e560008d73ffffffffffffffffffffffffffffffffffffffff1673ffffffffffffffffffffffffffffffffffffffff16815260200190815260200160002060000160019054906101000a90046fffffffffffffffffffffffffffffffff1661728d565b612cb5856000600160e560008b73ffffffffffffffffffffffffffffffffffffffff1673ffffffffffffffffffffffffffffffffffffffff16815260200190815260200160002060000160019054906101000a90046fffffffffffffffffffffffffffffffff1661728d565b612cbe33617482565b7fab8c9917d424586fd5d8b63bc0f89a035700c3234b1dc521a6fa0c510d23498e60e16000600c54815260200190815260200160002060003373ffffffffffffffffffffffffffffffffffffffff1673ffffffffffffffffffffffffffffffffffffffff168152602001908152602001600020604051612d3e9190619e5b565b60405180910390a17f6e47dcdd359b6cd69456f0f97d394bd4540a2e7c4adc1b9da076859df53756c78589604051612d77929190619eac565b60405180910390a17f84d6fc9f7244aba67b2ad2bfc67d8d3ed92b7e4932a482888bac6a4595019a158789604051612db0929190619eac565b60405180910390a1612dc133616d14565b505050506001808190555050505050565b60ea60009054906101000a900463ffffffff1681565b600060607f0000000000000000000000000000000000000000000000000000000000000000600b5442612e1b919061a2fe565b1191509250929050565b612e2d61527d565b612e37600061771a565b565b60175481565b60e660003373ffffffffffffffffffffffffffffffffffffffff1673ffffffffffffffffffffffffffffffffffffffff16815260200190815260200160002060009054906101000a900460ff16612ecb576040517f08c379a0000000000000000000000000000000000000000000000000000000008152600401612ec290619b3b565b60405180910390fd5b60e560008273ffffffffffffffffffffffffffffffffffffffff1673ffffffffffffffffffffffffffffffffffffffff16815260200190815260200160002060000160009054906101000a900460ff1615612f5b576040517f08c379a0000000000000000000000000000000000000000000000000000000008152600401612f5290619dfb565b60405180910390fd5b600160e860008282829054906101000a90046fffffffffffffffffffffffffffffffff16612f89919061a066565b92506101000a8154816fffffffffffffffffffffffffffffffff02191690836fffffffffffffffffffffffffffffffff1602179055506040518061010001604052808273ffffffffffffffffffffffffffffffffffffffff168152602001600115158152602001600081526020016000815260200142815260200142815260200160008152602001600081525060e4600060e860009054906101000a90046fffffffffffffffffffffffffffffffff166fffffffffffffffffffffffffffffffff166fffffffffffffffffffffffffffffffff16815260200190815260200160002060008201518160000160006101000a81548173ffffffffffffffffffffffffffffffffffffffff021916908373ffffffffffffffffffffffffffffffffffffffff16021790555060208201518160000160146101000a81548160ff02191690831515021790555060408201518160010155606082015181600201556080820151816003015560a0820151816004015560c0820151816005015560e08201518160060155905050604051806040016040528060011515815260200160e860009054906101000a90046fffffffffffffffffffffffffffffffff166fffffffffffffffffffffffffffffffff1681525060e560008373ffffffffffffffffffffffffffffffffffffffff1673ffffffffffffffffffffffffffffffffffffffff16815260200190815260200160002060008201518160000160006101000a81548160ff02191690831515021790555060208201518160000160016101000a8154816fffffffffffffffffffffffffffffffff02191690836fffffffffffffffffffffffffffffffff16021790555090505050565b60125481565b6000604b60009054906101000a900473ffffffffffffffffffffffffffffffffffffffff16905090565b60145481565b60e16000600c54815260200190815260200160002060003373ffffffffffffffffffffffffffffffffffffffff1673ffffffffffffffffffffffffffffffffffffffff16815260200190815260200160002060000160149054906101000a900460ff166132d5576040517f08c379a00000000000000000000000000000000000000000000000000000000081526004016132cc90619d7b565b60405180910390fd5b60e16000600c54815260200190815260200160002060003373ffffffffffffffffffffffffffffffffffffffff1673ffffffffffffffffffffffffffffffffffffffff16815260200190815260200160002060040160009054906101000a900460ff1615613378576040517f08c379a000000000000000000000000000000000000000000000000000000000815260040161336f90619d5b565b60405180910390fd5b600260015414156133be576040517f08c379a00000000000000000000000000000000000000000000000000000000081526004016133b590619dbb565b60405180910390fd5b600260018190555060e560008373ffffffffffffffffffffffffffffffffffffffff1673ffffffffffffffffffffffffffffffffffffffff16815260200190815260200160002060000160009054906101000a900460ff16613455576040517f08c379a000000000000000000000000000000000000000000000000000000000815260040161344c90619e1b565b60405180910390fd5b60003383600360405160200161346d93929190619761565b60405160208183030381529060405280519060200120905060006134918484615382565b9050600f5481116134d7576040517f08c379a00000000000000000000000000000000000000000000000000000000081526004016134ce90619bbb565b60405180910390fd5b6134e033616889565b8260e260008481526020019081526020016000206002016000828254613506919061a2fe565b925050819055508060e16000600c54815260200190815260200160002060003373ffffffffffffffffffffffffffffffffffffffff1673ffffffffffffffffffffffffffffffffffffffff1681526020019081526020016000206001016000828254613572919061a2fe565b925050819055506135e5836001600060e560008973ffffffffffffffffffffffffffffffffffffffff1673ffffffffffffffffffffffffffffffffffffffff16815260200190815260200160002060000160019054906101000a90046fffffffffffffffffffffffffffffffff1661728d565b8373ffffffffffffffffffffffffffffffffffffffff166323b872dd3330866040518463ffffffff1660e01b8152600401613622939291906197fa565b602060405180830381600087803b15801561363c57600080fd5b505af1158015613650573d6000803e3d6000fd5b505050506040513d601f19601f820116820180604052508101906136749190618d9d565b6136b3576040517f08c379a00000000000000000000000000000000000000000000000000000000081526004016136aa90619c9b565b60405180910390fd5b6136bc33617482565b7fab8c9917d424586fd5d8b63bc0f89a035700c3234b1dc521a6fa0c510d23498e60e16000600c54815260200190815260200160002060003373ffffffffffffffffffffffffffffffffffffffff1673ffffffffffffffffffffffffffffffffffffffff16815260200190815260200160002060405161373c9190619e5b565b60405180910390a17fd1014e978dfee75c13d9e11073f136d3fb4cb3562d1d557024029d907932161f8385604051613775929190619eac565b60405180910390a161378633616d14565b5050600180819055505050565b7f000000000000000000000000000000000000000000000000000000000000000081565b60135481565b60e860009054906101000a90046fffffffffffffffffffffffffffffffff1681565b60045481565b607d60009054906101000a900473ffffffffffffffffffffffffffffffffffffffff1681565b600c5481565b600f5481565b60eb5481565b60105481565b60008060e46000856fffffffffffffffffffffffffffffffff166fffffffffffffffffffffffffffffffff168152602001908152602001600020600101546138a460e46000876fffffffffffffffffffffffffffffffff166fffffffffffffffffffffffffffffffff16815260200190815260200160002060020154613c75565b6138ae919061a102565b9050821561392c5760145481116138e257806015546138cd919061a2a4565b6017546138da919061a0ac565b91505061399e565b601454816138f0919061a2fe565b6016546138fd919061a2a4565b60145460155461390d919061a2a4565b60175461391a919061a0ac565b613924919061a0ac565b91505061399e565b60105481116139585780601154613943919061a2a4565b601354613950919061a0ac565b91505061399e565b60105481613966919061a2fe565b601254613973919061a2a4565b601054601154613983919061a2a4565b601354613990919061a0ac565b61399a919061a0ac565b9150505b92915050565b7f000000000000000000000000000000000000000000000000000000000000000081565b6139d061527d565b6139da82826177e0565b5050565b600860009054906101000a900473ffffffffffffffffffffffffffffffffffffffff1681565b60e1602052816000526040600020602052806000526040600020600091509150508060000160009054906101000a900473ffffffffffffffffffffffffffffffffffffffff16908060000160149054906101000a900460ff16908060010154908060020154908060030154908060040160009054906101000a900460ff16908060050154905087565b60e660003373ffffffffffffffffffffffffffffffffffffffff1673ffffffffffffffffffffffffffffffffffffffff16815260200190815260200160002060009054906101000a900460ff16613b19576040517f08c379a0000000000000000000000000000000000000000000000000000000008152600401613b1090619b3b565b60405180910390fd5b60026001541415613b5f576040517f08c379a0000000000000000000000000000000000000000000000000000000008152600401613b5690619dbb565b60405180910390fd5b600260018190555060005b83839050811015613c6857613c55848483818110613bb1577f4e487b7100000000000000000000000000000000000000000000000000000000600052603260045260246000fd5b9050606002016000016020810190613bc99190618aeb565b858584818110613c02577f4e487b7100000000000000000000000000000000000000000000000000000000600052603260045260246000fd5b90506060020160200135868685818110613c45577f4e487b7100000000000000000000000000000000000000000000000000000000600052603260045260246000fd5b9050606002016040013585613cb2565b8080613c609061a5d6565b915050613b6a565b5060018081905550505050565b600061271082613c85919061a2a4565b9050919050565b600560009054906101000a900473ffffffffffffffffffffffffffffffffffffffff1681565b60e660003373ffffffffffffffffffffffffffffffffffffffff1673ffffffffffffffffffffffffffffffffffffffff16815260200190815260200160002060009054906101000a900460ff16613d3e576040517f08c379a0000000000000000000000000000000000000000000000000000000008152600401613d3590619b3b565b60405180910390fd5b60026001541415613d84576040517f08c379a0000000000000000000000000000000000000000000000000000000008152600401613d7b90619dbb565b60405180910390fd5b6002600181905550613d988484848461783c565b613da184617482565b6001808190555050505050565b600060e16000600c54815260200190815260200160002060003373ffffffffffffffffffffffffffffffffffffffff1673ffffffffffffffffffffffffffffffffffffffff16815260200190815260200160002060000160149054906101000a900460ff16613e52576040517f08c379a0000000000000000000000000000000000000000000000000000000008152600401613e4990619c1b565b60405180910390fd5b60e16000600c54815260200190815260200160002060003373ffffffffffffffffffffffffffffffffffffffff1673ffffffffffffffffffffffffffffffffffffffff16815260200190815260200160002060030154905090565b600a5481565b60e16000600c54815260200190815260200160002060003373ffffffffffffffffffffffffffffffffffffffff1673ffffffffffffffffffffffffffffffffffffffff16815260200190815260200160002060000160149054906101000a900460ff16613f55576040517f08c379a0000000000000000000000000000000000000000000000000000000008152600401613f4c90619d7b565b60405180910390fd5b60e16000600c54815260200190815260200160002060003373ffffffffffffffffffffffffffffffffffffffff1673ffffffffffffffffffffffffffffffffffffffff16815260200190815260200160002060040160009054906101000a900460ff1615613ff8576040517f08c379a0000000000000000000000000000000000000000000000000000000008152600401613fef90619d5b565b60405180910390fd5b6002600154141561403e576040517f08c379a000000000000000000000000000000000000000000000000000000000815260040161403590619dbb565b60405180910390fd5b600260018190555060e560008573ffffffffffffffffffffffffffffffffffffffff1673ffffffffffffffffffffffffffffffffffffffff16815260200190815260200160002060000160009054906101000a900460ff166140d5576040517f08c379a00000000000000000000000000000000000000000000000000000000081526004016140cc90619e1b565b60405180910390fd5b6000338560036040516020016140ed93929190619761565b604051602081830303815290604052805190602001209050600061271085600454614118919061a2a4565b614122919061a102565b9050600061413b878388614136919061a2fe565b615382565b9050600f548111614181576040517f08c379a000000000000000000000000000000000000000000000000000000000815260040161417890619ddb565b60405180910390fd5b8560e3600085815260200190815260200160002060020154116141d9576040517f08c379a00000000000000000000000000000000000000000000000000000000081526004016141d090619d3b565b60405180910390fd5b6141e233616889565b600d548160e16000600c54815260200190815260200160002060003373ffffffffffffffffffffffffffffffffffffffff1673ffffffffffffffffffffffffffffffffffffffff16815260200190815260200160002060020154614246919061a2fe565b61271060e16000600c54815260200190815260200160002060003373ffffffffffffffffffffffffffffffffffffffff1673ffffffffffffffffffffffffffffffffffffffff168152602001908152602001600020600101546142a9919061a2a4565b6142b3919061a102565b106142f3576040517f08c379a00000000000000000000000000000000000000000000000000000000081526004016142ea90619c7b565b60405180910390fd5b8560e360008581526020019081526020016000206002016000828254614319919061a2fe565b925050819055508060e16000600c54815260200190815260200160002060003373ffffffffffffffffffffffffffffffffffffffff1673ffffffffffffffffffffffffffffffffffffffff1681526020019081526020016000206002016000828254614385919061a2fe565b92505081905550858773ffffffffffffffffffffffffffffffffffffffff166370a08231306040518263ffffffff1660e01b81526004016143c6919061979a565b60206040518083038186803b1580156143de57600080fd5b505afa1580156143f2573d6000803e3d6000fd5b505050506040513d601f19601f820116820180604052508101906144169190618fa4565b1015614478576144328760028861442d919061a2a4565b6171b8565b6000614473576040517f08c379a000000000000000000000000000000000000000000000000000000000815260040161446a90619cdb565b60405180910390fd5b6145ff565b84600c541461452457600560009054906101000a900473ffffffffffffffffffffffffffffffffffffffff1673ffffffffffffffffffffffffffffffffffffffff1663241dc2df8886858a6144cd919061a2fe565b896040518563ffffffff1660e01b81526004016144ed9493929190619831565b600060405180830381600087803b15801561450757600080fd5b505af115801561451b573d6000803e3d6000fd5b505050506145fe565b8673ffffffffffffffffffffffffffffffffffffffff166323b872dd3086858a61454e919061a2fe565b6040518463ffffffff1660e01b815260040161456c939291906197fa565b602060405180830381600087803b15801561458657600080fd5b505af115801561459a573d6000803e3d6000fd5b505050506040513d601f19601f820116820180604052508101906145be9190618d9d565b6145fd576040517f08c379a00000000000000000000000000000000000000000000000000000000081526004016145f490619c9b565b60405180910390fd5b5b5b61466a8660008060e560008c73ffffffffffffffffffffffffffffffffffffffff1673ffffffffffffffffffffffffffffffffffffffff16815260200190815260200160002060000160019054906101000a90046fffffffffffffffffffffffffffffffff1661728d565b61467333617482565b7fab8c9917d424586fd5d8b63bc0f89a035700c3234b1dc521a6fa0c510d23498e60e16000600c54815260200190815260200160002060003373ffffffffffffffffffffffffffffffffffffffff1673ffffffffffffffffffffffffffffffffffffffff1681526020019081526020016000206040516146f39190619e5b565b60405180910390a17f8c7cdad0d12a8db3e23561b42da6f10c8137914c97beff202213a410e1f520a3868860405161472c929190619eac565b60405180910390a161473d33616d14565b5050506001808190555050505050565b61475561527d565b61475e81617bf8565b50565b61476961527d565b600073ffffffffffffffffffffffffffffffffffffffff168173ffffffffffffffffffffffffffffffffffffffff1614156147d9576040517f08c379a00000000000000000000000000000000000000000000000000000000081526004016147d090619b9b565b60405180910390fd5b6147e28161771a565b50565b600d5481565b600760009054906101000a900473ffffffffffffffffffffffffffffffffffffffff1681565b60e660003373ffffffffffffffffffffffffffffffffffffffff1673ffffffffffffffffffffffffffffffffffffffff16815260200190815260200160002060009054906101000a900460ff1661489d576040517f08c379a000000000000000000000000000000000000000000000000000000000815260040161489490619b3b565b60405180910390fd5b60005b60e980549050811015614b4c57600060e982815481106148e9577f4e487b7100000000000000000000000000000000000000000000000000000000600052603260045260246000fd5b9060005260206000200160009054906101000a900473ffffffffffffffffffffffffffffffffffffffff16905060005b60e860009054906101000a90046fffffffffffffffffffffffffffffffff166fffffffffffffffffffffffffffffffff16816fffffffffffffffffffffffffffffffff1611614aa6576149c68260e46000846fffffffffffffffffffffffffffffffff166fffffffffffffffffffffffffffffffff16815260200190815260200160002060000160009054906101000a900473ffffffffffffffffffffffffffffffffffffffff16615cbb565b50600d5460e16000600c54815260200190815260200160002060008473ffffffffffffffffffffffffffffffffffffffff1673ffffffffffffffffffffffffffffffffffffffff1681526020019081526020016000206003015410614a9357614a898260e46000846fffffffffffffffffffffffffffffffff166fffffffffffffffffffffffffffffffff16815260200190815260200160002060000160009054906101000a900473ffffffffffffffffffffffffffffffffffffffff16616390565b614a9282616889565b5b8080614a9e9061a59d565b915050614919565b507fab8c9917d424586fd5d8b63bc0f89a035700c3234b1dc521a6fa0c510d23498e60e16000600c54815260200190815260200160002060008373ffffffffffffffffffffffffffffffffffffffff1673ffffffffffffffffffffffffffffffffffffffff168152602001908152602001600020604051614b279190619e5b565b60405180910390a1614b3881616d14565b508080614b449061a5d6565b9150506148a0565b50565b60e660003373ffffffffffffffffffffffffffffffffffffffff1673ffffffffffffffffffffffffffffffffffffffff16815260200190815260200160002060009054906101000a900460ff16614bdb576040517f08c379a0000000000000000000000000000000000000000000000000000000008152600401614bd290619b3b565b60405180910390fd5b8015614bed5781600f81905550614eae565b600160e660008573ffffffffffffffffffffffffffffffffffffffff1673ffffffffffffffffffffffffffffffffffffffff16815260200190815260200160002060006101000a81548160ff021916908315150217905550836000016020810190614c5891906190d5565b67ffffffffffffffff16601081905550600a54846020016020810190614c7e91906190d5565b67ffffffffffffffff1681614cbc577f4e487b7100000000000000000000000000000000000000000000000000000000600052601260045260246000fd5b04601181905550600a54846040016020810190614cd991906190d5565b67ffffffffffffffff1681614d17577f4e487b7100000000000000000000000000000000000000000000000000000000600052601260045260246000fd5b04601281905550600a54846060016020810190614d3491906190d5565b67ffffffffffffffff1681614d72577f4e487b7100000000000000000000000000000000000000000000000000000000600052601260045260246000fd5b04601381905550836080016020810190614d8c91906190d5565b67ffffffffffffffff16601481905550600a548460a0016020810190614db291906190d5565b67ffffffffffffffff1681614df0577f4e487b7100000000000000000000000000000000000000000000000000000000600052601260045260246000fd5b04601581905550600a548460c0016020810190614e0d91906190d5565b67ffffffffffffffff1681614e4b577f4e487b7100000000000000000000000000000000000000000000000000000000600052601260045260246000fd5b04601681905550600a548460e0016020810190614e6891906190d5565b67ffffffffffffffff1681614ea6577f4e487b7100000000000000000000000000000000000000000000000000000000600052601260045260246000fd5b046017819055505b50505050565b60e16000600c54815260200190815260200160002060003373ffffffffffffffffffffffffffffffffffffffff1673ffffffffffffffffffffffffffffffffffffffff16815260200190815260200160002060000160149054906101000a900460ff166150d5576040518060e001604052803373ffffffffffffffffffffffffffffffffffffffff1681526020016001151581526020016000815260200160008152602001600081526020016000151581526020014281525060e16000600c54815260200190815260200160002060003373ffffffffffffffffffffffffffffffffffffffff1673ffffffffffffffffffffffffffffffffffffffff16815260200190815260200160002060008201518160000160006101000a81548173ffffffffffffffffffffffffffffffffffffffff021916908373ffffffffffffffffffffffffffffffffffffffff16021790555060208201518160000160146101000a81548160ff02191690831515021790555060408201518160010155606082015181600201556080820151816003015560a08201518160040160006101000a81548160ff02191690831515021790555060c0820151816005015590505060e9339080600181540180825580915050600190039060005260206000200160009091909190916101000a81548173ffffffffffffffffffffffffffffffffffffffff021916908373ffffffffffffffffffffffffffffffffffffffff1602179055505b60e16000600c54815260200190815260200160002060003373ffffffffffffffffffffffffffffffffffffffff1673ffffffffffffffffffffffffffffffffffffffff16815260200190815260200160002060000160149054906101000a900460ff16615177576040517f08c379a000000000000000000000000000000000000000000000000000000000815260040161516e90619d7b565b60405180910390fd5b60e16000600c54815260200190815260200160002060003373ffffffffffffffffffffffffffffffffffffffff1673ffffffffffffffffffffffffffffffffffffffff16815260200190815260200160002060040160009054906101000a900460ff161561521a576040517f08c379a000000000000000000000000000000000000000000000000000000000815260040161521190619d5b565b60405180910390fd5b60026001541415615260576040517f08c379a000000000000000000000000000000000000000000000000000000000815260040161525790619dbb565b60405180910390fd5b600260018190555061527282826156f1565b600180819055505050565b615285617c7f565b73ffffffffffffffffffffffffffffffffffffffff166152a3613203565b73ffffffffffffffffffffffffffffffffffffffff16146152f9576040517f08c379a00000000000000000000000000000000000000000000000000000000081526004016152f090619c5b565b60405180910390fd5b565b80607d60006101000a81548173ffffffffffffffffffffffffffffffffffffffff021916908373ffffffffffffffffffffffffffffffffffffffff1602179055508073ffffffffffffffffffffffffffffffffffffffff167f7c10de8878ed89478ff01b9cd8c11a5271ea8ac91d46f662e6aea7e3adf5b11f60405160405180910390a250565b600080615430600660009054906101000a900473ffffffffffffffffffffffffffffffffffffffff1673ffffffffffffffffffffffffffffffffffffffff1663313ce5676040518163ffffffff1660e01b815260040160206040518083038186803b1580156153f057600080fd5b505afa158015615404573d6000803e3d6000fd5b505050506040513d601f19601f8201168201806040525081019061542891906190fe565b60ff166156db565b9050600660009054906101000a900473ffffffffffffffffffffffffffffffffffffffff1673ffffffffffffffffffffffffffffffffffffffff168473ffffffffffffffffffffffffffffffffffffffff16146154d65761549084617c87565b9050600081116154d5576040517f08c379a00000000000000000000000000000000000000000000000000000000081526004016154cc90619c3b565b60405180910390fd5b5b615581600660009054906101000a900473ffffffffffffffffffffffffffffffffffffffff1673ffffffffffffffffffffffffffffffffffffffff1663313ce5676040518163ffffffff1660e01b815260040160206040518083038186803b15801561554157600080fd5b505afa158015615555573d6000803e3d6000fd5b505050506040513d601f19601f8201168201806040525081019061557991906190fe565b60ff166156db565b61560a8573ffffffffffffffffffffffffffffffffffffffff1663313ce5676040518163ffffffff1660e01b815260040160206040518083038186803b1580156155ca57600080fd5b505afa1580156155de573d6000803e3d6000fd5b505050506040513d601f19601f8201168201806040525081019061560291906190fe565b60ff166156db565b848360008054906101000a900473ffffffffffffffffffffffffffffffffffffffff1673ffffffffffffffffffffffffffffffffffffffff166350d25bcd6040518163ffffffff1660e01b815260040160206040518083038186803b15801561567257600080fd5b505afa158015615686573d6000803e3d6000fd5b505050506040513d601f19601f820116820180604052508101906156aa9190618e5d565b6156b4919061a2a4565b6156be919061a2a4565b6156c8919061a102565b6156d2919061a2a4565b91505092915050565b600081600a6156ea919061a186565b9050919050565b60e560008373ffffffffffffffffffffffffffffffffffffffff1673ffffffffffffffffffffffffffffffffffffffff16815260200190815260200160002060000160009054906101000a900460ff16615780576040517f08c379a000000000000000000000000000000000000000000000000000000000815260040161577790619e1b565b60405180910390fd5b60003383600360405160200161579893929190619761565b6040516020818303038152906040528051906020012090506000612710836004546157c3919061a2a4565b6157cd919061a102565b905060006157e68583866157e1919061a2fe565b615382565b9050600f54811161582c576040517f08c379a000000000000000000000000000000000000000000000000000000000815260040161582390619d9b565b60405180910390fd5b61583533616889565b60e3600084815260200190815260200160002060010160149054906101000a900460ff161561589b57818461586a919061a2fe565b60e36000858152602001908152602001600020600201600082825461588f919061a0ac565b925050819055506159c5565b60405180608001604052803373ffffffffffffffffffffffffffffffffffffffff1681526020018673ffffffffffffffffffffffffffffffffffffffff16815260200160011515815260200183866158f3919061a2fe565b81525060e3600085815260200190815260200160002060008201518160000160006101000a81548173ffffffffffffffffffffffffffffffffffffffff021916908373ffffffffffffffffffffffffffffffffffffffff16021790555060208201518160010160006101000a81548173ffffffffffffffffffffffffffffffffffffffff021916908373ffffffffffffffffffffffffffffffffffffffff16021790555060408201518160010160146101000a81548160ff021916908315150217905550606082015181600201559050505b8060e16000600c54815260200190815260200160002060003373ffffffffffffffffffffffffffffffffffffffff1673ffffffffffffffffffffffffffffffffffffffff1681526020019081526020016000206002016000828254615a2a919061a0ac565b92505081905550615aa88285615a40919061a2fe565b6000600160e560008a73ffffffffffffffffffffffffffffffffffffffff1673ffffffffffffffffffffffffffffffffffffffff16815260200190815260200160002060000160019054906101000a90046fffffffffffffffffffffffffffffffff1661728d565b8473ffffffffffffffffffffffffffffffffffffffff166323b872dd3330876040518463ffffffff1660e01b8152600401615ae5939291906197fa565b602060405180830381600087803b158015615aff57600080fd5b505af1158015615b13573d6000803e3d6000fd5b505050506040513d601f19601f82011682018060405250810190615b379190618d9d565b615b76576040517f08c379a0000000000000000000000000000000000000000000000000000000008152600401615b6d90619bdb565b60405180910390fd5b615b7f33617482565b7fab8c9917d424586fd5d8b63bc0f89a035700c3234b1dc521a6fa0c510d23498e60e16000600c54815260200190815260200160002060003373ffffffffffffffffffffffffffffffffffffffff1673ffffffffffffffffffffffffffffffffffffffff168152602001908152602001600020604051615bff9190619e5b565b60405180910390a17f6e47dcdd359b6cd69456f0f97d394bd4540a2e7c4adc1b9da076859df53756c78486604051615c38929190619eac565b60405180910390a1615c4933616d14565b5050505050565b60005b60e860009054906101000a90046fffffffffffffffffffffffffffffffff166fffffffffffffffffffffffffffffffff16816fffffffffffffffffffffffffffffffff1611615cb857615ca5816182d4565b8080615cb09061a59d565b915050615c53565b50565b60008062278d0090508060e16000600c54815260200190815260200160002060008673ffffffffffffffffffffffffffffffffffffffff1673ffffffffffffffffffffffffffffffffffffffff1681526020019081526020016000206005015442615d26919061a2fe565b1015615d3657600091505061638a565b600084846003604051602001615d4e93929190619761565b604051602081830303815290604052805190602001209050600082615dd260e560008873ffffffffffffffffffffffffffffffffffffffff1673ffffffffffffffffffffffffffffffffffffffff16815260200190815260200160002060000160019054906101000a90046fffffffffffffffffffffffffffffffff166001613823565b615ddc919061a2a4565b9050600083615e4a60e560008973ffffffffffffffffffffffffffffffffffffffff1673ffffffffffffffffffffffffffffffffffffffff16815260200190815260200160002060000160019054906101000a90046fffffffffffffffffffffffffffffffff166000613823565b615e54919061a2a4565b9050600061271060e16000600c54815260200190815260200160002060008a73ffffffffffffffffffffffffffffffffffffffff1673ffffffffffffffffffffffffffffffffffffffff168152602001908152602001600020600201546002600454615ec0919061a2a4565b615eca919061a2a4565b615ed4919061a102565b905061271060e360008681526020019081526020016000206002015483615efb919061a2a4565b615f05919061a102565b60e360008681526020019081526020016000206002016000828254615f2a919061a0ac565b9250508190555061271060e260008681526020019081526020016000206002015484615f56919061a2a4565b615f60919061a102565b60e260008681526020019081526020016000206002016000828254615f85919061a0ac565b925050819055508061271060e16000600c54815260200190815260200160002060008b73ffffffffffffffffffffffffffffffffffffffff1673ffffffffffffffffffffffffffffffffffffffff1681526020019081526020016000206002015484615ff1919061a2a4565b615ffb919061a102565b616005919061a2fe565b60e16000600c54815260200190815260200160002060008a73ffffffffffffffffffffffffffffffffffffffff1673ffffffffffffffffffffffffffffffffffffffff1681526020019081526020016000206002016000828254616069919061a0ac565b9250508190555061271060e16000600c54815260200190815260200160002060008a73ffffffffffffffffffffffffffffffffffffffff1673ffffffffffffffffffffffffffffffffffffffff16815260200190815260200160002060010154846160d4919061a2a4565b6160de919061a102565b60e16000600c54815260200190815260200160002060008a73ffffffffffffffffffffffffffffffffffffffff1673ffffffffffffffffffffffffffffffffffffffff1681526020019081526020016000206001016000828254616142919061a0ac565b925050819055504260e16000600c54815260200190815260200160002060008a73ffffffffffffffffffffffffffffffffffffffff1673ffffffffffffffffffffffffffffffffffffffff16815260200190815260200160002060050181905550600060e16000600c54815260200190815260200160002060008a73ffffffffffffffffffffffffffffffffffffffff1673ffffffffffffffffffffffffffffffffffffffff16815260200190815260200160002060020154111561631d5760e16000600c54815260200190815260200160002060008973ffffffffffffffffffffffffffffffffffffffff1673ffffffffffffffffffffffffffffffffffffffff168152602001908152602001600020600201546162b560e16000600c54815260200190815260200160002060008b73ffffffffffffffffffffffffffffffffffffffff1673ffffffffffffffffffffffffffffffffffffffff16815260200190815260200160002060010154613c75565b6162bf919061a102565b60e16000600c54815260200190815260200160002060008a73ffffffffffffffffffffffffffffffffffffffff1673ffffffffffffffffffffffffffffffffffffffff16815260200190815260200160002060030181905550616379565b600060e16000600c54815260200190815260200160002060008a73ffffffffffffffffffffffffffffffffffffffff1673ffffffffffffffffffffffffffffffffffffffff168152602001908152602001600020600301819055505b42600e819055506001955050505050505b92915050565b600d5460e16000600c54815260200190815260200160002060008473ffffffffffffffffffffffffffffffffffffffff1673ffffffffffffffffffffffffffffffffffffffff1681526020019081526020016000206003015410616429576040517f08c379a000000000000000000000000000000000000000000000000000000000815260040161642090619cbb565b60405180910390fd5b61643282617482565b60008282600360405160200161644a93929190619761565b60405160208183030381529060405280519060200120905060006164848360e3600085815260200190815260200160002060020154615382565b9050600061271082600560045461649b919061a2a4565b6164a5919061a2a4565b6164af919061a102565b9050600060e360008581526020019081526020016000206002018190555080826164d9919061a2fe565b60e160007f000000000000000000000000000000000000000000000000000000000000000063ffffffff16815260200190815260200160002060008773ffffffffffffffffffffffffffffffffffffffff1673ffffffffffffffffffffffffffffffffffffffff1681526020019081526020016000206002016000828254616561919061a2fe565b925050819055508160e160007f000000000000000000000000000000000000000000000000000000000000000063ffffffff16815260200190815260200160002060008773ffffffffffffffffffffffffffffffffffffffff1673ffffffffffffffffffffffffffffffffffffffff16815260200190815260200160002060010160008282546165f1919061a2fe565b92505081905550600060e160007f000000000000000000000000000000000000000000000000000000000000000063ffffffff16815260200190815260200160002060008773ffffffffffffffffffffffffffffffffffffffff1673ffffffffffffffffffffffffffffffffffffffff1681526020019081526020016000206002015411156168025760e160007f000000000000000000000000000000000000000000000000000000000000000063ffffffff16815260200190815260200160002060008673ffffffffffffffffffffffffffffffffffffffff1673ffffffffffffffffffffffffffffffffffffffff1681526020019081526020016000206002015461677660e160007f000000000000000000000000000000000000000000000000000000000000000063ffffffff16815260200190815260200160002060008873ffffffffffffffffffffffffffffffffffffffff1673ffffffffffffffffffffffffffffffffffffffff16815260200190815260200160002060010154613c75565b616780919061a102565b60e160007f000000000000000000000000000000000000000000000000000000000000000063ffffffff16815260200190815260200160002060008773ffffffffffffffffffffffffffffffffffffffff1673ffffffffffffffffffffffffffffffffffffffff16815260200190815260200160002060030181905550616882565b600060e160007f000000000000000000000000000000000000000000000000000000000000000063ffffffff16815260200190815260200160002060008773ffffffffffffffffffffffffffffffffffffffff1673ffffffffffffffffffffffffffffffffffffffff168152602001908152602001600020600301819055505b5050505050565b60008060005b60e860009054906101000a90046fffffffffffffffffffffffffffffffff166fffffffffffffffffffffffffffffffff16816fffffffffffffffffffffffffffffffff1611616a845760008460e46000846fffffffffffffffffffffffffffffffff166fffffffffffffffffffffffffffffffff16815260200190815260200160002060000160009054906101000a900473ffffffffffffffffffffffffffffffffffffffff16600360405160200161694a93929190619761565b6040516020818303038152906040528051906020012090506169dc60e46000846fffffffffffffffffffffffffffffffff166fffffffffffffffffffffffffffffffff16815260200190815260200160002060000160009054906101000a900473ffffffffffffffffffffffffffffffffffffffff1660e3600084815260200190815260200160002060020154615382565b846169e7919061a0ac565b9350616a6360e46000846fffffffffffffffffffffffffffffffff166fffffffffffffffffffffffffffffffff16815260200190815260200160002060000160009054906101000a900473ffffffffffffffffffffffffffffffffffffffff1660e2600084815260200190815260200160002060020154615382565b83616a6e919061a0ac565b9250508080616a7c9061a59d565b91505061688f565b508060e16000600c54815260200190815260200160002060008573ffffffffffffffffffffffffffffffffffffffff1673ffffffffffffffffffffffffffffffffffffffff168152602001908152602001600020600101819055508160e16000600c54815260200190815260200160002060008573ffffffffffffffffffffffffffffffffffffffff1673ffffffffffffffffffffffffffffffffffffffff16815260200190815260200160002060020181905550600060e16000600c54815260200190815260200160002060008573ffffffffffffffffffffffffffffffffffffffff1673ffffffffffffffffffffffffffffffffffffffff168152602001908152602001600020600201541115616cb35760e16000600c54815260200190815260200160002060008473ffffffffffffffffffffffffffffffffffffffff1673ffffffffffffffffffffffffffffffffffffffff16815260200190815260200160002060020154616c4b60e16000600c54815260200190815260200160002060008673ffffffffffffffffffffffffffffffffffffffff1673ffffffffffffffffffffffffffffffffffffffff16815260200190815260200160002060010154613c75565b616c55919061a102565b60e16000600c54815260200190815260200160002060008573ffffffffffffffffffffffffffffffffffffffff1673ffffffffffffffffffffffffffffffffffffffff16815260200190815260200160002060030181905550616d0f565b600060e16000600c54815260200190815260200160002060008573ffffffffffffffffffffffffffffffffffffffff1673ffffffffffffffffffffffffffffffffffffffff168152602001908152602001600020600301819055505b505050565b60005b60ec80549050811015616eb957616ea660ec8281548110616d61577f4e487b7100000000000000000000000000000000000000000000000000000000600052603260045260246000fd5b90600052602060002090600891828204019190066004029054906101000a900463ffffffff168360e160007f000000000000000000000000000000000000000000000000000000000000000063ffffffff16815260200190815260200160002060008673ffffffffffffffffffffffffffffffffffffffff1673ffffffffffffffffffffffffffffffffffffffff1681526020019081526020016000206002015460e160007f000000000000000000000000000000000000000000000000000000000000000063ffffffff16815260200190815260200160002060008773ffffffffffffffffffffffffffffffffffffffff1673ffffffffffffffffffffffffffffffffffffffff16815260200190815260200160002060010154604051602001616e8e939291906199c3565b604051602081830303815290604052629896806183b7565b8080616eb19061a5d6565b915050616d17565b5050565b6000607d60009054906101000a900473ffffffffffffffffffffffffffffffffffffffff1673ffffffffffffffffffffffffffffffffffffffff1663282f51eb836040518263ffffffff1660e01b8152600401616f1a919061979a565b60206040518083038186803b158015616f3257600080fd5b505afa158015616f46573d6000803e3d6000fd5b505050506040513d601f19601f82011682018060405250810190616f6a9190618d9d565b9050919050565b60008160af60008563ffffffff1663ffffffff1681526020019081526020016000205414905092915050565b60e760008463ffffffff16815260200190815260200160002060020160049054906101000a900460ff16156171b357600080600083806020019051810190616fe59190618b14565b92509250925060e160007f000000000000000000000000000000000000000000000000000000000000000063ffffffff16815260200190815260200160002060008473ffffffffffffffffffffffffffffffffffffffff1673ffffffffffffffffffffffffffffffffffffffff16815260200190815260200160002060000160149054906101000a900460ff16156170ad5761709f83838360e760008b63ffffffff1681526020019081526020016000206001015461783c565b6170a883617482565b6171af565b8160026170ba919061a2a4565b8373ffffffffffffffffffffffffffffffffffffffff166370a08231306040518263ffffffff1660e01b81526004016170f3919061979a565b60206040518083038186803b15801561710b57600080fd5b505afa15801561711f573d6000803e3d6000fd5b505050506040513d601f19601f820116820180604052508101906171439190618fa4565b11156171ae576171ad838360e760008a63ffffffff1681526020019081526020016000206001015460e760008b63ffffffff16815260200190815260200160002060000160009054906101000a900473ffffffffffffffffffffffffffffffffffffffff16618475565b5b5b5050505b505050565b60005b60ec805490508110156172885761727560ec8281548110617205577f4e487b7100000000000000000000000000000000000000000000000000000000600052603260045260246000fd5b90600052602060002090600891828204019190066004029054906101000a900463ffffffff1684600160ec8054905061723e919061a2fe565b85617249919061a102565b600060405160200161725d9392919061998c565b604051602081830303815290604052629896806183b7565b80806172809061a5d6565b9150506171bb565b505050565b82156173855781156172ef578360e46000836fffffffffffffffffffffffffffffffff166fffffffffffffffffffffffffffffffff16815260200190815260200160002060020160008282546172e3919061a2fe565b92505081905550617341565b8360e46000836fffffffffffffffffffffffffffffffff166fffffffffffffffffffffffffffffffff1681526020019081526020016000206002016000828254617339919061a0ac565b925050819055505b4260e46000836fffffffffffffffffffffffffffffffff166fffffffffffffffffffffffffffffffff16815260200190815260200160002060030181905550617473565b81156173e1578360e46000836fffffffffffffffffffffffffffffffff166fffffffffffffffffffffffffffffffff16815260200190815260200160002060010160008282546173d5919061a0ac565b92505081905550617433565b8360e46000836fffffffffffffffffffffffffffffffff166fffffffffffffffffffffffffffffffff168152602001908152602001600020600101600082825461742b919061a2fe565b925050819055505b4260e46000836fffffffffffffffffffffffffffffffff166fffffffffffffffffffffffffffffffff168152602001908152602001600020600401819055505b61747c816182d4565b50505050565b61748b81616889565b60008060005b60ec80549050816fffffffffffffffffffffffffffffffff16101561761857600060e7600060ec846fffffffffffffffffffffffffffffffff1681548110617502577f4e487b7100000000000000000000000000000000000000000000000000000000600052603260045260246000fd5b90600052602060002090600891828204019190066004029054906101000a900463ffffffff1663ffffffff16815260200190815260200160002060010154905060e1600082815260200190815260200160002060008673ffffffffffffffffffffffffffffffffffffffff1673ffffffffffffffffffffffffffffffffffffffff16815260200190815260200160002060010154846175a1919061a0ac565b935060e1600082815260200190815260200160002060008673ffffffffffffffffffffffffffffffffffffffff1673ffffffffffffffffffffffffffffffffffffffff1681526020019081526020016000206002015483617602919061a0ac565b92505080806176109061a59d565b915050617491565b508060e160007f000000000000000000000000000000000000000000000000000000000000000063ffffffff16815260200190815260200160002060008573ffffffffffffffffffffffffffffffffffffffff1673ffffffffffffffffffffffffffffffffffffffff168152602001908152602001600020600101819055508160e160007f000000000000000000000000000000000000000000000000000000000000000063ffffffff16815260200190815260200160002060008573ffffffffffffffffffffffffffffffffffffffff1673ffffffffffffffffffffffffffffffffffffffff16815260200190815260200160002060020181905550505050565b6000604b60009054906101000a900473ffffffffffffffffffffffffffffffffffffffff16905081604b60006101000a81548173ffffffffffffffffffffffffffffffffffffffff021916908373ffffffffffffffffffffffffffffffffffffffff1602179055508173ffffffffffffffffffffffffffffffffffffffff168173ffffffffffffffffffffffffffffffffffffffff167f8be0079c531659141344cd1fd0a4f28419497f9722a3daafe3b4186f6b6457e060405160405180910390a35050565b8060af60008463ffffffff1663ffffffff16815260200190815260200160002081905550808263ffffffff167f97fd51fef1f80c854cbd0150c248e8b2ac4ecdc97cc05e742b5f61c9f4dc645860405160405180910390a35050565b60008084111561785d578361785084613c75565b61785a919061a102565b90505b60e1600083815260200190815260200160002060008673ffffffffffffffffffffffffffffffffffffffff1673ffffffffffffffffffffffffffffffffffffffff16815260200190815260200160002060000160149054906101000a900460ff1615617a3c578360e1600084815260200190815260200160002060008773ffffffffffffffffffffffffffffffffffffffff1673ffffffffffffffffffffffffffffffffffffffff168152602001908152602001600020600201819055508260e1600084815260200190815260200160002060008773ffffffffffffffffffffffffffffffffffffffff1673ffffffffffffffffffffffffffffffffffffffff168152602001908152602001600020600101819055508060e1600084815260200190815260200160002060008773ffffffffffffffffffffffffffffffffffffffff1673ffffffffffffffffffffffffffffffffffffffff16815260200190815260200160002060030181905550600060e1600084815260200190815260200160002060008773ffffffffffffffffffffffffffffffffffffffff1673ffffffffffffffffffffffffffffffffffffffff16815260200190815260200160002060040160006101000a81548160ff021916908315150217905550617bf1565b60e9859080600181540180825580915050600190039060005260206000200160009091909190916101000a81548173ffffffffffffffffffffffffffffffffffffffff021916908373ffffffffffffffffffffffffffffffffffffffff1602179055506040518060e001604052808673ffffffffffffffffffffffffffffffffffffffff1681526020016001151581526020018481526020018581526020018281526020016000151581526020014281525060e1600084815260200190815260200160002060008773ffffffffffffffffffffffffffffffffffffffff1673ffffffffffffffffffffffffffffffffffffffff16815260200190815260200160002060008201518160000160006101000a81548173ffffffffffffffffffffffffffffffffffffffff021916908373ffffffffffffffffffffffffffffffffffffffff16021790555060208201518160000160146101000a81548160ff02191690831515021790555060408201518160010155606082015181600201556080820151816003015560a08201518160040160006101000a81548160ff02191690831515021790555060c082015181600501559050505b5050505050565b80607e60006101000a81548173ffffffffffffffffffffffffffffffffffffffff021916908373ffffffffffffffffffffffffffffffffffffffff1602179055508073ffffffffffffffffffffffffffffffffffffffff167fb87f5a0bface22cde699143559fb99f990ae54eea236995fc54178af91af859f60405160405180910390a250565b600033905090565b600080617d138373ffffffffffffffffffffffffffffffffffffffff1663313ce5676040518163ffffffff1660e01b815260040160206040518083038186803b158015617cd357600080fd5b505afa158015617ce7573d6000803e3d6000fd5b505050506040513d601f19601f82011682018060405250810190617d0b91906190fe565b60ff166156db565b90506000600267ffffffffffffffff811115617d58577f4e487b7100000000000000000000000000000000000000000000000000000000600052604160045260246000fd5b604051908082528060200260200182016040528015617d865781602001602082028036833780820191505090505b5090508381600081518110617dc4577f4e487b7100000000000000000000000000000000000000000000000000000000600052603260045260246000fd5b602002602001019073ffffffffffffffffffffffffffffffffffffffff16908173ffffffffffffffffffffffffffffffffffffffff1681525050600660009054906101000a900473ffffffffffffffffffffffffffffffffffffffff1681600181518110617e5b577f4e487b7100000000000000000000000000000000000000000000000000000000600052603260045260246000fd5b602002602001019073ffffffffffffffffffffffffffffffffffffffff16908173ffffffffffffffffffffffffffffffffffffffff16815250506000617ed0836001617ea7919061a2a4565b600260009054906101000a900473ffffffffffffffffffffffffffffffffffffffff168461850e565b90506000811115617ee6578093505050506182cf565b600367ffffffffffffffff811115617f27577f4e487b7100000000000000000000000000000000000000000000000000000000600052604160045260246000fd5b604051908082528060200260200182016040528015617f555781602001602082028036833780820191505090505b5091508482600081518110617f93577f4e487b7100000000000000000000000000000000000000000000000000000000600052603260045260246000fd5b602002602001019073ffffffffffffffffffffffffffffffffffffffff16908173ffffffffffffffffffffffffffffffffffffffff1681525050600760009054906101000a900473ffffffffffffffffffffffffffffffffffffffff168260018151811061802a577f4e487b7100000000000000000000000000000000000000000000000000000000600052603260045260246000fd5b602002602001019073ffffffffffffffffffffffffffffffffffffffff16908173ffffffffffffffffffffffffffffffffffffffff1681525050600660009054906101000a900473ffffffffffffffffffffffffffffffffffffffff16826002815181106180c1577f4e487b7100000000000000000000000000000000000000000000000000000000600052603260045260246000fd5b602002602001019073ffffffffffffffffffffffffffffffffffffffff16908173ffffffffffffffffffffffffffffffffffffffff168152505061813483600161810b919061a2a4565b600260009054906101000a900473ffffffffffffffffffffffffffffffffffffffff168461850e565b9050600081111561814a578093505050506182cf565b600860009054906101000a900473ffffffffffffffffffffffffffffffffffffffff16826001815181106181a7577f4e487b7100000000000000000000000000000000000000000000000000000000600052603260045260246000fd5b602002602001019073ffffffffffffffffffffffffffffffffffffffff16908173ffffffffffffffffffffffffffffffffffffffff1681525050600660009054906101000a900473ffffffffffffffffffffffffffffffffffffffff168260028151811061823e577f4e487b7100000000000000000000000000000000000000000000000000000000600052603260045260246000fd5b602002602001019073ffffffffffffffffffffffffffffffffffffffff16908173ffffffffffffffffffffffffffffffffffffffff16815250506182b1836001618288919061a2a4565b600260009054906101000a900473ffffffffffffffffffffffffffffffffffffffff168461850e565b905060008111156182c7578093505050506182cf565b600093505050505b919050565b60e46000826fffffffffffffffffffffffffffffffff166fffffffffffffffffffffffffffffffff16815260200190815260200160002060000160149054906101000a900460ff16156183b45761832c816001613823565b60e46000836fffffffffffffffffffffffffffffffff166fffffffffffffffffffffffffffffffff16815260200190815260200160002060050181905550618375816001613823565b60e46000836fffffffffffffffffffffffffffffffff166fffffffffffffffffffffffffffffffff168152602001908152602001600020600601819055505b50565b60006183c16185fb565b905060006183d08286866186a2565b9050600083111561846e57607e60009054906101000a900473ffffffffffffffffffffffffffffffffffffffff1673ffffffffffffffffffffffffffffffffffffffff1663a5703c8e848484896040518563ffffffff1660e01b815260040161843b939291906199fa565b6000604051808303818588803b15801561845457600080fd5b505af1158015618468573d6000803e3d6000fd5b50505050505b5050505050565b600560009054906101000a900473ffffffffffffffffffffffffffffffffffffffff1673ffffffffffffffffffffffffffffffffffffffff1663241dc2df858386866040518563ffffffff1660e01b81526004016184d69493929190619831565b600060405180830381600087803b1580156184f057600080fd5b505af1158015618504573d6000803e3d6000fd5b5050505050505050565b6000808373ffffffffffffffffffffffffffffffffffffffff1663d06ca61f86856040518363ffffffff1660e01b815260040161854c929190619ed5565b60006040518083038186803b15801561856457600080fd5b505afa158015618578573d6000803e3d6000fd5b505050506040513d6000823e3d601f19601f820116820180604052508101906185a19190618d5c565b905080600182516185b2919061a2fe565b815181106185e9577f4e487b7100000000000000000000000000000000000000000000000000000000600052603260045260246000fd5b60200260200101519150509392505050565b6000607d60009054906101000a900473ffffffffffffffffffffffffffffffffffffffff1673ffffffffffffffffffffffffffffffffffffffff1663ce11e6ab6040518163ffffffff1660e01b815260040160206040518083038186803b15801561866557600080fd5b505afa158015618679573d6000803e3d6000fd5b505050506040513d601f19601f8201168201806040525081019061869d9190618e34565b905090565b6000806186ae84618749565b90508473ffffffffffffffffffffffffffffffffffffffff1663fa31de018583866040518463ffffffff1660e01b81526004016186ed93929190619f20565b602060405180830381600087803b15801561870757600080fd5b505af115801561871b573d6000803e3d6000fd5b505050506040513d601f19601f8201168201806040525081019061873f9190618fa4565b9150509392505050565b600060af60008363ffffffff1663ffffffff1681526020019081526020016000205490506000801b8114156187b3576040517f08c379a00000000000000000000000000000000000000000000000000000000081526004016187aa90619d1b565b60405180910390fd5b919050565b60006187cb6187c684619f83565b619f5e565b905080838252602082019050828560208602820111156187ea57600080fd5b60005b8581101561881a57816188008882618a97565b8452602084019350602083019250506001810190506187ed565b5050509392505050565b600061883761883284619faf565b619f5e565b90508281526020810184848401111561884f57600080fd5b61885a84828561a490565b509392505050565b6000813590506188718161acc1565b92915050565b6000815190506188868161acd8565b92915050565b60008083601f84011261889e57600080fd5b8235905067ffffffffffffffff8111156188b757600080fd5b6020830191508360608202830111156188cf57600080fd5b9250929050565b600082601f8301126188e757600080fd5b81516188f78482602086016187b8565b91505092915050565b60008135905061890f8161acef565b92915050565b6000815190506189248161acef565b92915050565b6000813590506189398161ad06565b92915050565b60008083601f84011261895157600080fd5b8235905067ffffffffffffffff81111561896a57600080fd5b60208301915083600182028301111561898257600080fd5b9250929050565b600082601f83011261899a57600080fd5b81356189aa848260208601618824565b91505092915050565b6000815190506189c28161ad1d565b92915050565b6000815190506189d78161ad34565b92915050565b6000608082840312156189ef57600080fd5b6189f96080619f5e565b90506000618a0984828501618862565b6000830152506020618a1d84828501618a82565b6020830152506040618a3184828501618aac565b6040830152506060618a4584828501618900565b60608301525092915050565b60006101008284031215618a6457600080fd5b81905092915050565b600081359050618a7c8161ad4b565b92915050565b600081359050618a918161ad62565b92915050565b600081519050618aa68161ad62565b92915050565b600081359050618abb8161ad79565b92915050565b600081359050618ad08161ad90565b92915050565b600081519050618ae58161ada7565b92915050565b600060208284031215618afd57600080fd5b6000618b0b84828501618862565b91505092915050565b600080600060608486031215618b2957600080fd5b6000618b3786828701618877565b9350506020618b4886828701618a97565b9250506040618b5986828701618a97565b9150509250925092565b60008060408385031215618b7657600080fd5b6000618b8485828601618862565b9250506020618b9585828601618862565b9150509250929050565b60008060408385031215618bb257600080fd5b6000618bc085828601618862565b9250506020618bd185828601618a82565b9150509250929050565b60008060008060808587031215618bf157600080fd5b6000618bff87828801618862565b9450506020618c1087828801618a82565b9350506040618c2187828801618862565b9250506060618c3287828801618a82565b91505092959194509250565b60008060008060808587031215618c5457600080fd5b6000618c6287828801618862565b9450506020618c7387828801618a82565b9350506040618c8487828801618a82565b9250506060618c9587828801618862565b91505092959194509250565b60008060008060808587031215618cb757600080fd5b6000618cc587828801618862565b9450506020618cd687828801618a82565b9350506040618ce787828801618a82565b9250506060618cf887828801618a82565b91505092959194509250565b600080600060408486031215618d1957600080fd5b600084013567ffffffffffffffff811115618d3357600080fd5b618d3f8682870161888c565b93509350506020618d5286828701618a82565b9150509250925092565b600060208284031215618d6e57600080fd5b600082015167ffffffffffffffff811115618d8857600080fd5b618d94848285016188d6565b91505092915050565b600060208284031215618daf57600080fd5b6000618dbd84828501618915565b91505092915050565b600060208284031215618dd857600080fd5b6000618de68482850161892a565b91505092915050565b60008060208385031215618e0257600080fd5b600083013567ffffffffffffffff811115618e1c57600080fd5b618e288582860161893f565b92509250509250929050565b600060208284031215618e4657600080fd5b6000618e54848285016189b3565b91505092915050565b600060208284031215618e6f57600080fd5b6000618e7d848285016189c8565b91505092915050565b600060808284031215618e9857600080fd5b6000618ea6848285016189dd565b91505092915050565b6000806000806101608587031215618ec657600080fd5b6000618ed487828801618a51565b945050610100618ee687828801618862565b935050610120618ef887828801618a82565b925050610140618f0a87828801618900565b91505092959194509250565b600060208284031215618f2857600080fd5b6000618f3684828501618a6d565b91505092915050565b60008060408385031215618f5257600080fd5b6000618f6085828601618a6d565b9250506020618f7185828601618900565b9150509250929050565b600060208284031215618f8d57600080fd5b6000618f9b84828501618a82565b91505092915050565b600060208284031215618fb657600080fd5b6000618fc484828501618a97565b91505092915050565b60008060408385031215618fe057600080fd5b6000618fee85828601618a82565b9250506020618fff85828601618862565b9150509250929050565b60006020828403121561901b57600080fd5b600061902984828501618aac565b91505092915050565b6000806040838503121561904557600080fd5b600061905385828601618aac565b92505060206190648582860161892a565b9150509250929050565b60008060006060848603121561908357600080fd5b600061909186828701618aac565b93505060206190a28682870161892a565b925050604084013567ffffffffffffffff8111156190bf57600080fd5b6190cb86828701618989565b9150509250925092565b6000602082840312156190e757600080fd5b60006190f584828501618ac1565b91505092915050565b60006020828403121561911057600080fd5b600061911e84828501618ad6565b91505092915050565b6000619133838361913f565b60208301905092915050565b6191488161a369565b82525050565b6191578161a369565b82525050565b61916e6191698261a369565b61a61f565b82525050565b600061917f8261a005565b619189818561a028565b935061919483619fe0565b8060005b838110156191c55781516191ac8882619127565b97506191b78361a01b565b925050600181019050619198565b5085935050505092915050565b6191db8161a38d565b82525050565b6191ea8161a38d565b82525050565b6191f98161a399565b82525050565b600061920a8261a010565b619214818561a039565b935061922481856020860161a49f565b61922d8161a6ff565b840191505092915050565b6192418161a436565b82525050565b6192508161a45a565b82525050565b61925f8161a47e565b82525050565b600081546192728161a4d2565b61927c818661a05b565b9450600182166000811461929757600181146192a8576192db565b60ff198316865281860193506192db565b6192b185619ff0565b60005b838110156192d3578154818901526001820191506020810190506192b4565b838801955050505b50505092915050565b60006192f1602f8361a04a565b91506192fc8261a744565b604082019050919050565b600061931460148361a04a565b915061931f8261a793565b602082019050919050565b600061933760388361a04a565b91506193428261a7bc565b604082019050919050565b600061935a60268361a04a565b91506193658261a80b565b604082019050919050565b600061937d60148361a04a565b91506193888261a85a565b602082019050919050565b60006193a060228361a04a565b91506193ab8261a883565b604082019050919050565b60006193c360198361a04a565b91506193ce8261a8d2565b602082019050919050565b60006193e6600e8361a04a565b91506193f18261a8fb565b602082019050919050565b600061940960268361a04a565b91506194148261a924565b604082019050919050565b600061942c60208361a04a565b91506194378261a973565b602082019050919050565b600061944f60228361a04a565b915061945a8261a99c565b604082019050919050565b600061947260138361a04a565b915061947d8261a9eb565b602082019050919050565b600061949560188361a04a565b91506194a08261aa14565b602082019050919050565b60006194b860468361a04a565b91506194c38261aa3d565b606082019050919050565b60006194db60068361a04a565b91506194e68261aab2565b602082019050919050565b60006194fe60078361a04a565b91506195098261aadb565b602082019050919050565b600061952160148361a04a565b915061952c8261ab04565b602082019050919050565b6000619544602f8361a04a565b915061954f8261ab2d565b604082019050919050565b600061956760178361a04a565b91506195728261ab7c565b602082019050919050565b600061958a60378361a04a565b91506195958261aba5565b604082019050919050565b60006195ad601f8361a04a565b91506195b88261abf4565b602082019050919050565b60006195d0600e8361a04a565b91506195db8261ac1d565b602082019050919050565b60006195f360188361a04a565b91506195fe8261ac46565b602082019050919050565b600061961660148361a04a565b91506196218261ac6f565b602082019050919050565b600061963960188361a04a565b91506196448261ac98565b602082019050919050565b60e0820160008083015490506196648161a504565b619671600086018261913f565b5061967b8161a552565b61968860208601826191d2565b50600183015490506196998161a538565b6196a66040860182619734565b50600283015490506196b78161a538565b6196c46060860182619734565b50600383015490506196d58161a538565b6196e26080860182619734565b50600483015490506196f38161a51e565b61970060a08601826191d2565b50600583015490506197118161a538565b61971e60c0860182619734565b5050505050565b61972e8161a3bf565b82525050565b61973d8161a3fb565b82525050565b61974c8161a3fb565b82525050565b61975b8161a405565b82525050565b600061976d828661915d565b60148201915061977d828561915d565b60148201915061978d8284619265565b9150819050949350505050565b60006020820190506197af600083018461914e565b92915050565b60006080820190506197ca600083018761914e565b6197d7602083018661914e565b6197e460408301856191e1565b6197f16060830184619743565b95945050505050565b600060608201905061980f600083018661914e565b61981c602083018561914e565b6198296040830184619743565b949350505050565b6000608082019050619846600083018761914e565b619853602083018661914e565b6198606040830185619743565b61986d6060830184619743565b95945050505050565b600060e08201905061988b600083018a61914e565b61989860208301896191e1565b6198a56040830188619743565b6198b26060830187619743565b6198bf6080830186619743565b6198cc60a08301856191e1565b6198d960c0830184619743565b98975050505050505050565b6000610100820190506198fb600083018b61914e565b619908602083018a6191e1565b6199156040830189619743565b6199226060830188619743565b61992f6080830187619743565b61993c60a0830186619743565b61994960c0830185619743565b61995660e0830184619743565b9998505050505050505050565b6000604082019050619978600083018561914e565b6199856020830184619743565b9392505050565b60006060820190506199a1600083018661914e565b6199ae6020830185619743565b6199bb6040830184619256565b949350505050565b60006060820190506199d8600083018661914e565b6199e56020830185619743565b6199f26040830184619743565b949350505050565b6000606082019050619a0f600083018661914e565b619a1c6020830185619743565b619a296040830184619752565b949350505050565b6000608082019050619a46600083018761914e565b619a536020830186619743565b619a606040830185619752565b619a6d60608301846191e1565b95945050505050565b6000602082019050619a8b60008301846191e1565b92915050565b6000604082019050619aa660008301856191e1565b8181036020830152619ab881846191ff565b90509392505050565b6000604082019050619ad660008301856191e1565b619ae36020830184619725565b9392505050565b6000602082019050619aff60008301846191f0565b92915050565b6000602082019050619b1a6000830184619238565b92915050565b6000602082019050619b356000830184619247565b92915050565b60006020820190508181036000830152619b54816192e4565b9050919050565b60006020820190508181036000830152619b7481619307565b9050919050565b60006020820190508181036000830152619b948161932a565b9050919050565b60006020820190508181036000830152619bb48161934d565b9050919050565b60006020820190508181036000830152619bd481619370565b9050919050565b60006020820190508181036000830152619bf481619393565b9050919050565b60006020820190508181036000830152619c14816193b6565b9050919050565b60006020820190508181036000830152619c34816193d9565b9050919050565b60006020820190508181036000830152619c54816193fc565b9050919050565b60006020820190508181036000830152619c748161941f565b9050919050565b60006020820190508181036000830152619c9481619442565b9050919050565b60006020820190508181036000830152619cb481619465565b9050919050565b60006020820190508181036000830152619cd481619488565b9050919050565b60006020820190508181036000830152619cf4816194ab565b9050919050565b60006020820190508181036000830152619d14816194ce565b9050919050565b60006020820190508181036000830152619d34816194f1565b9050919050565b60006020820190508181036000830152619d5481619514565b9050919050565b60006020820190508181036000830152619d7481619537565b9050919050565b60006020820190508181036000830152619d948161955a565b9050919050565b60006020820190508181036000830152619db48161957d565b9050919050565b60006020820190508181036000830152619dd4816195a0565b9050919050565b60006020820190508181036000830152619df4816195c3565b9050919050565b60006020820190508181036000830152619e14816195e6565b9050919050565b60006020820190508181036000830152619e3481619609565b9050919050565b60006020820190508181036000830152619e548161962c565b9050919050565b600060e082019050619e70600083018461964f565b92915050565b6000602082019050619e8b6000830184619725565b92915050565b6000602082019050619ea66000830184619743565b92915050565b6000604082019050619ec16000830185619743565b619ece602083018461914e565b9392505050565b6000604082019050619eea6000830185619743565b8181036020830152619efc8184619174565b90509392505050565b6000602082019050619f1a6000830184619752565b92915050565b6000606082019050619f356000830186619752565b619f4260208301856191f0565b8181036040830152619f5481846191ff565b9050949350505050565b6000619f68619f79565b9050619f74828261a56c565b919050565b6000604051905090565b600067ffffffffffffffff821115619f9e57619f9d61a6d0565b5b602082029050602081019050919050565b600067ffffffffffffffff821115619fca57619fc961a6d0565b5b619fd38261a6ff565b9050602081019050919050565b6000819050602082019050919050565b60008190508160005260206000209050919050565b600081519050919050565b600081519050919050565b6000602082019050919050565b600082825260208201905092915050565b600082825260208201905092915050565b600082825260208201905092915050565b600081905092915050565b600061a0718261a3bf565b915061a07c8361a3bf565b9250826fffffffffffffffffffffffffffffffff0382111561a0a15761a0a061a643565b5b828201905092915050565b600061a0b78261a3fb565b915061a0c28361a3fb565b9250827fffffffffffffffffffffffffffffffffffffffffffffffffffffffffffffffff0382111561a0f75761a0f661a643565b5b828201905092915050565b600061a10d8261a3fb565b915061a1188361a3fb565b92508261a1285761a12761a672565b5b828204905092915050565b6000808291508390505b600185111561a17d5780860481111561a1595761a15861a643565b5b600185161561a1685780820291505b808102905061a1768561a737565b945061a13d565b94509492505050565b600061a1918261a3fb565b915061a19c8361a3fb565b925061a1c97fffffffffffffffffffffffffffffffffffffffffffffffffffffffffffffffff848461a1d1565b905092915050565b60008261a1e1576001905061a29d565b8161a1ef576000905061a29d565b816001811461a205576002811461a20f5761a23e565b600191505061a29d565b60ff84111561a2215761a22061a643565b5b8360020a91508482111561a2385761a23761a643565b5b5061a29d565b5060208310610133831016604e8410600b841016171561a2735782820a90508381111561a26e5761a26d61a643565b5b61a29d565b61a280848484600161a133565b9250905081840481111561a2975761a29661a643565b5b81810290505b9392505050565b600061a2af8261a3fb565b915061a2ba8361a3fb565b9250817fffffffffffffffffffffffffffffffffffffffffffffffffffffffffffffffff048311821515161561a2f35761a2f261a643565b5b828202905092915050565b600061a3098261a3fb565b915061a3148361a3fb565b92508282101561a3275761a32661a643565b5b828203905092915050565b600073ffffffffffffffffffffffffffffffffffffffff82169050919050565b600060ff82169050919050565b6000819050919050565b600061a3748261a3db565b9050919050565b600061a3868261a3db565b9050919050565b60008115159050919050565b6000819050919050565b600061a3ae8261a369565b9050919050565b6000819050919050565b60006fffffffffffffffffffffffffffffffff82169050919050565b600073ffffffffffffffffffffffffffffffffffffffff82169050919050565b6000819050919050565b600063ffffffff82169050919050565b600067ffffffffffffffff82169050919050565b600060ff82169050919050565b600061a4418261a448565b9050919050565b600061a4538261a3db565b9050919050565b600061a4658261a46c565b9050919050565b600061a4778261a3db565b9050919050565b600061a4898261a429565b9050919050565b82818337600083830152505050565b60005b8381101561a4bd57808201518184015260208101905061a4a2565b8381111561a4cc576000848401525b50505050565b6000600282049050600182168061a4ea57607f821691505b6020821081141561a4fe5761a4fd61a6a1565b5b50919050565b600061a51761a5128361a71d565b61a332565b9050919050565b600061a53161a52c8361a71d565b61a352565b9050919050565b600061a54b61a5468361a71d565b61a35f565b9050919050565b600061a56561a5608361a72a565b61a352565b9050919050565b61a5758261a6ff565b810181811067ffffffffffffffff8211171561a5945761a59361a6d0565b5b80604052505050565b600061a5a88261a3bf565b91506fffffffffffffffffffffffffffffffff82141561a5cb5761a5ca61a643565b5b600182019050919050565b600061a5e18261a3fb565b91507fffffffffffffffffffffffffffffffffffffffffffffffffffffffffffffffff82141561a6145761a61361a643565b5b600182019050919050565b600061a62a8261a631565b9050919050565b600061a63c8261a710565b9050919050565b7f4e487b7100000000000000000000000000000000000000000000000000000000600052601160045260246000fd5b7f4e487b7100000000000000000000000000000000000000000000000000000000600052601260045260246000fd5b7f4e487b7100000000000000000000000000000000000000000000000000000000600052602260045260246000fd5b7f4e487b7100000000000000000000000000000000000000000000000000000000600052604160045260246000fd5b6000601f19601f8301169050919050565b60008160601b9050919050565b60008160001c9050919050565b60008160a01c9050919050565b60008160011c9050919050565b7f55736572206e6f7420616c6c6f77656420666f7220746869732066756e63746960008201527f6f6e2c2041646d696e206f6e6c792e0000000000000000000000000000000000602082015250565b7f496e70757420616d6f756e7420746f6f206c6f77000000000000000000000000600082015250565b7f416d6f756e7420746f6f206c6f7720746f20726570617920776974682c20696e60008201527f707574206174206c656173742035205553442076616c75650000000000000000602082015250565b7f4f776e61626c653a206e6577206f776e657220697320746865207a65726f206160008201527f6464726573730000000000000000000000000000000000000000000000000000602082015250565b7f496e70757420416d6f756e7420746f6f206c6f77000000000000000000000000600082015250565b7f7472616e7366657246726f6d206661696c65642066726f6d20636f6e7472616360008201527f742e000000000000000000000000000000000000000000000000000000000000602082015250565b7f4e6f7420656e6f756768207374617274206e657720706f6f6c00000000000000600082015250565b7f55736572206e6f7420666f756e64000000000000000000000000000000000000600082015250565b7f7072696365206f7574707574206d75737420626520677265617465722074686160008201527f6e207a65726f0000000000000000000000000000000000000000000000000000602082015250565b7f4f776e61626c653a2063616c6c6572206973206e6f7420746865206f776e6572600082015250565b7f416d6f756e742067726561746572207468616e20616c6c6f77656420616d6f7560008201527f6e74000000000000000000000000000000000000000000000000000000000000602082015250565b7f7472616e7366657246726f6d206661696c656400000000000000000000000000600082015250565b7f4c69717569646174696f6e206e6f7420706f737369626c650000000000000000600082015250565b7f4e6f7420656e6f756768204c697175696469747920746f2073656e6420746f2060008201527f757365722c20706c656173652074727920616761696e20616674657220736f6d60208201527f6574696d652e0000000000000000000000000000000000000000000000000000604082015250565b7f21696e626f780000000000000000000000000000000000000000000000000000600082015250565b7f21726f7574657200000000000000000000000000000000000000000000000000600082015250565b7f4e6f7420656e6f756768206c6971756964697479000000000000000000000000600082015250565b7f4e6f7420616c6c6f77656420746f20706572666f726d2061207472616e73616360008201527f74696f6e207269676874206e6f772e0000000000000000000000000000000000602082015250565b7f7573657220646f6573206e6f7420657869737420796574000000000000000000600082015250565b7f416d6f756e7420746f6f206c6f772c20656e74657220616e20696e707574206760008201527f726561746572207468616e2035205553442076616c7565000000000000000000602082015250565b7f5265656e7472616e637947756172643a207265656e7472616e742063616c6c00600082015250565b7f416d6f756e7420746f6f206c6f77000000000000000000000000000000000000600082015250565b7f6d61726b657420616c726561647920617661696c61626c650000000000000000600082015250565b7f6d61726b6574206e6f7420617661696c61626c65000000000000000000000000600082015250565b7f436f6c206d61726b6574206e6f7420617661696c61626c650000000000000000600082015250565b61acca8161a369565b811461acd557600080fd5b50565b61ace18161a37b565b811461acec57600080fd5b50565b61acf88161a38d565b811461ad0357600080fd5b50565b61ad0f8161a399565b811461ad1a57600080fd5b50565b61ad268161a3a3565b811461ad3157600080fd5b50565b61ad3d8161a3b5565b811461ad4857600080fd5b50565b61ad548161a3bf565b811461ad5f57600080fd5b50565b61ad6b8161a3fb565b811461ad7657600080fd5b50565b61ad828161a405565b811461ad8d57600080fd5b50565b61ad998161a415565b811461ada457600080fd5b50565b61adb08161a429565b811461adbb57600080fd5b5056fea26469706673582212205146cf5ad0037cda0ca3c16af5845fc274f46d4376ddf0f82821fe3eec38be7464736f6c63430008040033",
  "linkReferences": {},
  "deployedLinkReferences": {}
}