{
  "_format": "hh-sol-artifact-1",
  "contractName": "HeadenUtils",
  "sourceName": "contracts/headenFinanceChild.sol",
  "abi": [
    {
      "inputs": [
        {
          "internalType": "uint256",
          "name": "_interval",
          "type": "uint256"
        },
        {
          "internalType": "address",
          "name": "_multichainRouter",
          "type": "address"
        },
        {
          "internalType": "string",
          "name": "_hashSalt",
          "type": "string"
        },
        {
          "internalType": "address",
          "name": "_swapRouter",
          "type": "address"
        },
        {
          "internalType": "address",
          "name": "_usdc",
          "type": "address"
        },
        {
          "internalType": "address",
          "name": "_dai",
          "type": "address"
        },
        {
          "internalType": "address",
          "name": "_matic",
          "type": "address"
        },
        {
          "internalType": "uint256",
          "name": "_chainId",
          "type": "uint256"
        },
        {
          "components": [
            {
              "internalType": "uint64",
              "name": "supplyKink",
              "type": "uint64"
            },
            {
              "internalType": "uint64",
              "name": "supplyPerYearInterestRateSlopeLow",
              "type": "uint64"
            },
            {
              "internalType": "uint64",
              "name": "supplyPerYearInterestRateSlopeHigh",
              "type": "uint64"
            },
            {
              "internalType": "uint64",
              "name": "supplyPerYearInterestRateBase",
              "type": "uint64"
            },
            {
              "internalType": "uint64",
              "name": "borrowKink",
              "type": "uint64"
            },
            {
              "internalType": "uint64",
              "name": "borrowPerYearInterestRateSlopeLow",
              "type": "uint64"
            },
            {
              "internalType": "uint64",
              "name": "borrowPerYearInterestRateSlopeHigh",
              "type": "uint64"
            },
            {
              "internalType": "uint64",
              "name": "borrowPerYearInterestRateBase",
              "type": "uint64"
            }
          ],
          "internalType": "struct HeadenUtils.Configuration",
          "name": "config",
          "type": "tuple"
        }
      ],
      "stateMutability": "nonpayable",
      "type": "constructor"
    },
    {
      "inputs": [],
      "name": "SECONDS_PER_YEAR",
      "outputs": [
        {
          "internalType": "uint256",
          "name": "",
          "type": "uint256"
        }
      ],
      "stateMutability": "view",
      "type": "function"
    },
    {
      "inputs": [],
      "name": "borrowKink",
      "outputs": [
        {
          "internalType": "uint256",
          "name": "",
          "type": "uint256"
        }
      ],
      "stateMutability": "view",
      "type": "function"
    },
    {
      "inputs": [],
      "name": "borrowPerSecondInterestRateBase",
      "outputs": [
        {
          "internalType": "uint256",
          "name": "",
          "type": "uint256"
        }
      ],
      "stateMutability": "view",
      "type": "function"
    },
    {
      "inputs": [],
      "name": "borrowPerSecondInterestRateSlopeHigh",
      "outputs": [
        {
          "internalType": "uint256",
          "name": "",
          "type": "uint256"
        }
      ],
      "stateMutability": "view",
      "type": "function"
    },
    {
      "inputs": [],
      "name": "borrowPerSecondInterestRateSlopeLow",
      "outputs": [
        {
          "internalType": "uint256",
          "name": "",
          "type": "uint256"
        }
      ],
      "stateMutability": "view",
      "type": "function"
    },
    {
      "inputs": [],
      "name": "chainId",
      "outputs": [
        {
          "internalType": "uint256",
          "name": "",
          "type": "uint256"
        }
      ],
      "stateMutability": "view",
      "type": "function"
    },
    {
      "inputs": [],
      "name": "dai",
      "outputs": [
        {
          "internalType": "address",
          "name": "",
          "type": "address"
        }
      ],
      "stateMutability": "view",
      "type": "function"
    },
    {
      "inputs": [],
      "name": "interval",
      "outputs": [
        {
          "internalType": "uint256",
          "name": "",
          "type": "uint256"
        }
      ],
      "stateMutability": "view",
      "type": "function"
    },
    {
      "inputs": [],
      "name": "lastAPRUpdate",
      "outputs": [
        {
          "internalType": "uint256",
          "name": "",
          "type": "uint256"
        }
      ],
      "stateMutability": "view",
      "type": "function"
    },
    {
      "inputs": [],
      "name": "lastTimeStamp",
      "outputs": [
        {
          "internalType": "uint256",
          "name": "",
          "type": "uint256"
        }
      ],
      "stateMutability": "view",
      "type": "function"
    },
    {
      "inputs": [],
      "name": "matic",
      "outputs": [
        {
          "internalType": "address",
          "name": "",
          "type": "address"
        }
      ],
      "stateMutability": "view",
      "type": "function"
    },
    {
      "inputs": [],
      "name": "maxLTV",
      "outputs": [
        {
          "internalType": "uint256",
          "name": "",
          "type": "uint256"
        }
      ],
      "stateMutability": "view",
      "type": "function"
    },
    {
      "inputs": [],
      "name": "multichainRouter",
      "outputs": [
        {
          "internalType": "address",
          "name": "",
          "type": "address"
        }
      ],
      "stateMutability": "view",
      "type": "function"
    },
    {
      "inputs": [
        {
          "internalType": "uint256",
          "name": "amount",
          "type": "uint256"
        }
      ],
      "name": "per_amount",
      "outputs": [
        {
          "internalType": "uint256",
          "name": "",
          "type": "uint256"
        }
      ],
      "stateMutability": "pure",
      "type": "function"
    },
    {
      "inputs": [],
      "name": "supplyKink",
      "outputs": [
        {
          "internalType": "uint256",
          "name": "",
          "type": "uint256"
        }
      ],
      "stateMutability": "view",
      "type": "function"
    },
    {
      "inputs": [],
      "name": "supplyPerSecondInterestRateBase",
      "outputs": [
        {
          "internalType": "uint256",
          "name": "",
          "type": "uint256"
        }
      ],
      "stateMutability": "view",
      "type": "function"
    },
    {
      "inputs": [],
      "name": "supplyPerSecondInterestRateSlopeHigh",
      "outputs": [
        {
          "internalType": "uint256",
          "name": "",
          "type": "uint256"
        }
      ],
      "stateMutability": "view",
      "type": "function"
    },
    {
      "inputs": [],
      "name": "supplyPerSecondInterestRateSlopeLow",
      "outputs": [
        {
          "internalType": "uint256",
          "name": "",
          "type": "uint256"
        }
      ],
      "stateMutability": "view",
      "type": "function"
    },
    {
      "inputs": [],
      "name": "tax",
      "outputs": [
        {
          "internalType": "uint256",
          "name": "",
          "type": "uint256"
        }
      ],
      "stateMutability": "view",
      "type": "function"
    },
    {
      "inputs": [],
      "name": "usdc",
      "outputs": [
        {
          "internalType": "address",
          "name": "",
          "type": "address"
        }
      ],
      "stateMutability": "view",
      "type": "function"
    }
  ],
  "bytecode": "0x60a060405273572ddec9087154dc5dfbb1546bb62713147e0ab06000806101000a81548173ffffffffffffffffffffffffffffffffffffffff021916908373ffffffffffffffffffffffffffffffffffffffff16021790555061015e600455670de0b6b3a76400006009556301e13380600a55611b58600d5542600e553480156200008957600080fd5b5060405162000ffb38038062000ffb8339818101604052810190620000af919062000677565b6001808190555087600560006101000a81548173ffffffffffffffffffffffffffffffffffffffff021916908373ffffffffffffffffffffffffffffffffffffffff16021790555086600390805190602001906200010f92919062000437565b5085600260006101000a81548173ffffffffffffffffffffffffffffffffffffffff021916908373ffffffffffffffffffffffffffffffffffffffff16021790555083600760006101000a81548173ffffffffffffffffffffffffffffffffffffffff021916908373ffffffffffffffffffffffffffffffffffffffff16021790555084600660006101000a81548173ffffffffffffffffffffffffffffffffffffffff021916908373ffffffffffffffffffffffffffffffffffffffff16021790555082600860006101000a81548173ffffffffffffffffffffffffffffffffffffffff021916908373ffffffffffffffffffffffffffffffffffffffff160217905550886080818152505042600b8190555081600c81905550806000015167ffffffffffffffff16600f81905550600a54816020015167ffffffffffffffff168162000286577f4e487b7100000000000000000000000000000000000000000000000000000000600052601260045260246000fd5b04601081905550600a54816040015167ffffffffffffffff1681620002d4577f4e487b7100000000000000000000000000000000000000000000000000000000600052601260045260246000fd5b04601181905550600a54816060015167ffffffffffffffff168162000322577f4e487b7100000000000000000000000000000000000000000000000000000000600052601260045260246000fd5b04601281905550806080015167ffffffffffffffff16601381905550600a548160a0015167ffffffffffffffff168162000385577f4e487b7100000000000000000000000000000000000000000000000000000000600052601260045260246000fd5b04601481905550600a548160c0015167ffffffffffffffff1681620003d3577f4e487b7100000000000000000000000000000000000000000000000000000000600052601260045260246000fd5b04601581905550600a548160e0015167ffffffffffffffff168162000421577f4e487b7100000000000000000000000000000000000000000000000000000000600052601260045260246000fd5b0460168190555050505050505050505062000979565b828054620004459062000850565b90600052602060002090601f016020900481019282620004695760008555620004b5565b82601f106200048457805160ff1916838001178555620004b5565b82800160010185558215620004b5579182015b82811115620004b457825182559160200191906001019062000497565b5b509050620004c49190620004c8565b5090565b5b80821115620004e3576000816000905550600101620004c9565b5090565b6000620004fe620004f88462000792565b62000769565b9050828152602081018484840111156200051757600080fd5b620005248482856200081a565b509392505050565b6000815190506200053d816200092b565b92915050565b600082601f8301126200055557600080fd5b815162000567848260208601620004e7565b91505092915050565b600061010082840312156200058457600080fd5b6200059161010062000769565b90506000620005a38482850162000660565b6000830152506020620005b98482850162000660565b6020830152506040620005cf8482850162000660565b6040830152506060620005e58482850162000660565b6060830152506080620005fb8482850162000660565b60808301525060a0620006118482850162000660565b60a08301525060c0620006278482850162000660565b60c08301525060e06200063d8482850162000660565b60e08301525092915050565b6000815190506200065a8162000945565b92915050565b60008151905062000671816200095f565b92915050565b60008060008060008060008060006102008a8c0312156200069757600080fd5b6000620006a78c828d0162000649565b9950506020620006ba8c828d016200052c565b98505060408a015167ffffffffffffffff811115620006d857600080fd5b620006e68c828d0162000543565b9750506060620006f98c828d016200052c565b96505060806200070c8c828d016200052c565b95505060a06200071f8c828d016200052c565b94505060c0620007328c828d016200052c565b93505060e0620007458c828d0162000649565b925050610100620007598c828d0162000570565b9150509295985092959850929598565b60006200077562000788565b905062000783828262000886565b919050565b6000604051905090565b600067ffffffffffffffff821115620007b057620007af620008eb565b5b620007bb826200091a565b9050602081019050919050565b6000620007d582620007dc565b9050919050565b600073ffffffffffffffffffffffffffffffffffffffff82169050919050565b6000819050919050565b600067ffffffffffffffff82169050919050565b60005b838110156200083a5780820151818401526020810190506200081d565b838111156200084a576000848401525b50505050565b600060028204905060018216806200086957607f821691505b6020821081141562000880576200087f620008bc565b5b50919050565b62000891826200091a565b810181811067ffffffffffffffff82111715620008b357620008b2620008eb565b5b80604052505050565b7f4e487b7100000000000000000000000000000000000000000000000000000000600052602260045260246000fd5b7f4e487b7100000000000000000000000000000000000000000000000000000000600052604160045260246000fd5b6000601f19601f8301169050919050565b6200093681620007c8565b81146200094257600080fd5b50565b6200095081620007fc565b81146200095c57600080fd5b50565b6200096a8162000806565b81146200097657600080fd5b50565b6080516106666200099560003960006103f301526106666000f3fe608060405234801561001057600080fd5b506004361061012c5760003560e01c806394920cca116100ad578063c44814a611610071578063c44814a6146102f3578063c6f4c57814610323578063e6a69ab814610341578063f384bd051461035f578063f4b9fa751461037d5761012c565b806394920cca1461025d57806399c8d5561461027b5780639a8a059214610299578063a5b4ff79146102b7578063b6b0b097146102d55761012c565b80635a94b8d1116100f45780635a94b8d1146101c75780637914acc7146101e5578063804de71f146102035780639241a56114610221578063947a36fb1461023f5761012c565b80632a48cf12146101315780632d05670b1461014f5780633cd83bda1461016d5780633e413bee1461018b5780633f3b3b27146101a9575b600080fd5b61013961039b565b6040516101469190610539565b60405180910390f35b6101576103a1565b6040516101649190610539565b60405180910390f35b6101756103a7565b6040516101829190610539565b60405180910390f35b6101936103ad565b6040516101a0919061051e565b60405180910390f35b6101b16103d3565b6040516101be9190610539565b60405180910390f35b6101cf6103d9565b6040516101dc9190610539565b60405180910390f35b6101ed6103df565b6040516101fa9190610539565b60405180910390f35b61020b6103e5565b6040516102189190610539565b60405180910390f35b6102296103eb565b6040516102369190610539565b60405180910390f35b6102476103f1565b6040516102549190610539565b60405180910390f35b610265610415565b6040516102729190610539565b60405180910390f35b61028361041b565b6040516102909190610539565b60405180910390f35b6102a1610421565b6040516102ae9190610539565b60405180910390f35b6102bf610427565b6040516102cc9190610539565b60405180910390f35b6102dd61042d565b6040516102ea919061051e565b60405180910390f35b61030d600480360381019061030891906104d7565b610453565b60405161031a9190610539565b60405180910390f35b61032b61046a565b604051610338919061051e565b60405180910390f35b610349610490565b6040516103569190610539565b60405180910390f35b610367610496565b6040516103749190610539565b60405180910390f35b61038561049c565b604051610392919061051e565b60405180910390f35b60155481565b60145481565b600e5481565b600660009054906101000a900473ffffffffffffffffffffffffffffffffffffffff1681565b600b5481565b60105481565b60165481565b60115481565b60135481565b7f000000000000000000000000000000000000000000000000000000000000000081565b60125481565b60045481565b600c5481565b600f5481565b600860009054906101000a900473ffffffffffffffffffffffffffffffffffffffff1681565b6000612710826104639190610554565b9050919050565b600560009054906101000a900473ffffffffffffffffffffffffffffffffffffffff1681565b600a5481565b600d5481565b600760009054906101000a900473ffffffffffffffffffffffffffffffffffffffff1681565b6000813590506104d181610619565b92915050565b6000602082840312156104e957600080fd5b60006104f7848285016104c2565b91505092915050565b610509816105ae565b82525050565b610518816105e0565b82525050565b60006020820190506105336000830184610500565b92915050565b600060208201905061054e600083018461050f565b92915050565b600061055f826105e0565b915061056a836105e0565b9250817fffffffffffffffffffffffffffffffffffffffffffffffffffffffffffffffff04831182151516156105a3576105a26105ea565b5b828202905092915050565b60006105b9826105c0565b9050919050565b600073ffffffffffffffffffffffffffffffffffffffff82169050919050565b6000819050919050565b7f4e487b7100000000000000000000000000000000000000000000000000000000600052601160045260246000fd5b610622816105e0565b811461062d57600080fd5b5056fea26469706673582212203555af0a33437914fadec851c1cb67fc6041bb05668797be7a34d6dab98c2df964736f6c63430008040033",
  "linkReferences": {},
  "deployedLinkReferences": {}
}