{
  "_format": "hh-sol-artifact-1",
  "contractName": "HeadenFinanceChild",
  "sourceName": "contracts/headenFinanceChild.sol",
  "abi": [
    {
      "inputs": [
        {
          "internalType": "uint256",
          "name": "_interval",
          "type": "uint256"
        },
        {
          "internalType": "address",
          "name": "_multichainRouter",
          "type": "address"
        },
        {
          "internalType": "string",
          "name": "_hashSalt",
          "type": "string"
        },
        {
          "internalType": "address",
          "name": "_swapRouter",
          "type": "address"
        },
        {
          "internalType": "address",
          "name": "_usdc",
          "type": "address"
        },
        {
          "internalType": "address",
          "name": "_dai",
          "type": "address"
        },
        {
          "internalType": "address",
          "name": "_matic",
          "type": "address"
        },
        {
          "components": [
            {
              "internalType": "address",
              "name": "_abacusManager",
              "type": "address"
            },
            {
              "internalType": "address",
              "name": "_abacusPay",
              "type": "address"
            }
          ],
          "internalType": "struct HeadenFinanceChild.Abacus",
          "name": "_abacus",
          "type": "tuple"
        },
        {
          "components": [
            {
              "internalType": "address",
              "name": "_parentAddress",
              "type": "address"
            },
            {
              "internalType": "uint256",
              "name": "_parentChainId",
              "type": "uint256"
            },
            {
              "internalType": "uint32",
              "name": "_hlParentId",
              "type": "uint32"
            }
          ],
          "internalType": "struct HeadenFinanceChild.Parent",
          "name": "_parent",
          "type": "tuple"
        },
        {
          "internalType": "uint256",
          "name": "_chainId",
          "type": "uint256"
        },
        {
          "components": [
            {
              "internalType": "uint64",
              "name": "supplyKink",
              "type": "uint64"
            },
            {
              "internalType": "uint64",
              "name": "supplyPerYearInterestRateSlopeLow",
              "type": "uint64"
            },
            {
              "internalType": "uint64",
              "name": "supplyPerYearInterestRateSlopeHigh",
              "type": "uint64"
            },
            {
              "internalType": "uint64",
              "name": "supplyPerYearInterestRateBase",
              "type": "uint64"
            },
            {
              "internalType": "uint64",
              "name": "borrowKink",
              "type": "uint64"
            },
            {
              "internalType": "uint64",
              "name": "borrowPerYearInterestRateSlopeLow",
              "type": "uint64"
            },
            {
              "internalType": "uint64",
              "name": "borrowPerYearInterestRateSlopeHigh",
              "type": "uint64"
            },
            {
              "internalType": "uint64",
              "name": "borrowPerYearInterestRateBase",
              "type": "uint64"
            }
          ],
          "internalType": "struct HeadenUtils.Configuration",
          "name": "config",
          "type": "tuple"
        }
      ],
      "stateMutability": "nonpayable",
      "type": "constructor"
    },
    {
      "anonymous": false,
      "inputs": [
        {
          "indexed": true,
          "internalType": "address",
          "name": "abacusConnectionManager",
          "type": "address"
        }
      ],
      "name": "AbacusConnectionManagerSet",
      "type": "event"
    },
    {
      "anonymous": false,
      "inputs": [
        {
          "indexed": false,
          "internalType": "uint256",
          "name": "_amount",
          "type": "uint256"
        },
        {
          "indexed": false,
          "internalType": "address",
          "name": "tokenAddress",
          "type": "address"
        }
      ],
      "name": "Borrowed",
      "type": "event"
    },
    {
      "anonymous": false,
      "inputs": [
        {
          "indexed": false,
          "internalType": "address",
          "name": "user",
          "type": "address"
        }
      ],
      "name": "ChainSyncRequired",
      "type": "event"
    },
    {
      "anonymous": false,
      "inputs": [],
      "name": "FullChainSyncRequired",
      "type": "event"
    },
    {
      "anonymous": false,
      "inputs": [
        {
          "indexed": false,
          "internalType": "uint8",
          "name": "version",
          "type": "uint8"
        }
      ],
      "name": "Initialized",
      "type": "event"
    },
    {
      "anonymous": false,
      "inputs": [
        {
          "indexed": true,
          "internalType": "address",
          "name": "interchainGasPaymaster",
          "type": "address"
        }
      ],
      "name": "InterchainGasPaymasterSet",
      "type": "event"
    },
    {
      "anonymous": false,
      "inputs": [
        {
          "indexed": false,
          "internalType": "address",
          "name": "user",
          "type": "address"
        }
      ],
      "name": "LockUntilUpdateFromParentChain",
      "type": "event"
    },
    {
      "anonymous": false,
      "inputs": [
        {
          "indexed": true,
          "internalType": "address",
          "name": "previousOwner",
          "type": "address"
        },
        {
          "indexed": true,
          "internalType": "address",
          "name": "newOwner",
          "type": "address"
        }
      ],
      "name": "OwnershipTransferred",
      "type": "event"
    },
    {
      "anonymous": false,
      "inputs": [
        {
          "indexed": true,
          "internalType": "uint32",
          "name": "domain",
          "type": "uint32"
        },
        {
          "indexed": true,
          "internalType": "bytes32",
          "name": "router",
          "type": "bytes32"
        }
      ],
      "name": "RemoteRouterEnrolled",
      "type": "event"
    },
    {
      "anonymous": false,
      "inputs": [
        {
          "indexed": false,
          "internalType": "uint256",
          "name": "_amount",
          "type": "uint256"
        },
        {
          "indexed": false,
          "internalType": "address",
          "name": "tokenAddress",
          "type": "address"
        }
      ],
      "name": "Repayed",
      "type": "event"
    },
    {
      "anonymous": false,
      "inputs": [
        {
          "indexed": false,
          "internalType": "uint256",
          "name": "_amount",
          "type": "uint256"
        },
        {
          "indexed": false,
          "internalType": "address",
          "name": "tokenAddress",
          "type": "address"
        }
      ],
      "name": "Staked",
      "type": "event"
    },
    {
      "anonymous": false,
      "inputs": [
        {
          "components": [
            {
              "internalType": "address",
              "name": "userAddress",
              "type": "address"
            },
            {
              "internalType": "bool",
              "name": "available",
              "type": "bool"
            },
            {
              "internalType": "uint256",
              "name": "totalAmountBorrowed",
              "type": "uint256"
            },
            {
              "internalType": "uint256",
              "name": "totalAmountStaked",
              "type": "uint256"
            },
            {
              "internalType": "uint256",
              "name": "ltv",
              "type": "uint256"
            },
            {
              "internalType": "bool",
              "name": "lock",
              "type": "bool"
            },
            {
              "internalType": "uint256",
              "name": "lastAPRUpdated",
              "type": "uint256"
            }
          ],
          "indexed": false,
          "internalType": "struct HeadenFinanceChild.User",
          "name": "user",
          "type": "tuple"
        }
      ],
      "name": "UpdateParentChain",
      "type": "event"
    },
    {
      "anonymous": false,
      "inputs": [
        {
          "indexed": false,
          "internalType": "uint256",
          "name": "_amount",
          "type": "uint256"
        },
        {
          "indexed": false,
          "internalType": "address",
          "name": "tokenAddress",
          "type": "address"
        }
      ],
      "name": "Withdrawn",
      "type": "event"
    },
    {
      "inputs": [],
      "name": "SECONDS_PER_YEAR",
      "outputs": [
        {
          "internalType": "uint256",
          "name": "",
          "type": "uint256"
        }
      ],
      "stateMutability": "view",
      "type": "function"
    },
    {
      "inputs": [],
      "name": "abacusConnectionManager",
      "outputs": [
        {
          "internalType": "contract IAbacusConnectionManager",
          "name": "",
          "type": "address"
        }
      ],
      "stateMutability": "view",
      "type": "function"
    },
    {
      "inputs": [
        {
          "internalType": "uint128",
          "name": "_id",
          "type": "uint128"
        }
      ],
      "name": "borrowInterestRates",
      "outputs": [
        {
          "internalType": "uint256",
          "name": "",
          "type": "uint256"
        }
      ],
      "stateMutability": "view",
      "type": "function"
    },
    {
      "inputs": [],
      "name": "borrowKink",
      "outputs": [
        {
          "internalType": "uint256",
          "name": "",
          "type": "uint256"
        }
      ],
      "stateMutability": "view",
      "type": "function"
    },
    {
      "inputs": [],
      "name": "borrowPerSecondInterestRateBase",
      "outputs": [
        {
          "internalType": "uint256",
          "name": "",
          "type": "uint256"
        }
      ],
      "stateMutability": "view",
      "type": "function"
    },
    {
      "inputs": [],
      "name": "borrowPerSecondInterestRateSlopeHigh",
      "outputs": [
        {
          "internalType": "uint256",
          "name": "",
          "type": "uint256"
        }
      ],
      "stateMutability": "view",
      "type": "function"
    },
    {
      "inputs": [],
      "name": "borrowPerSecondInterestRateSlopeLow",
      "outputs": [
        {
          "internalType": "uint256",
          "name": "",
          "type": "uint256"
        }
      ],
      "stateMutability": "view",
      "type": "function"
    },
    {
      "inputs": [
        {
          "internalType": "address",
          "name": "_tokenAddress",
          "type": "address"
        },
        {
          "internalType": "uint256",
          "name": "_amountToBorrow",
          "type": "uint256"
        }
      ],
      "name": "borrowToken",
      "outputs": [],
      "stateMutability": "nonpayable",
      "type": "function"
    },
    {
      "inputs": [
        {
          "internalType": "address",
          "name": "_tokenAddress",
          "type": "address"
        },
        {
          "internalType": "uint256",
          "name": "_amountToBorrow",
          "type": "uint256"
        },
        {
          "internalType": "address",
          "name": "_collateralAddress",
          "type": "address"
        },
        {
          "internalType": "uint256",
          "name": "_collateralAmount",
          "type": "uint256"
        }
      ],
      "name": "borrowTokenWithCollateral",
      "outputs": [],
      "stateMutability": "nonpayable",
      "type": "function"
    },
    {
      "inputs": [],
      "name": "chainId",
      "outputs": [
        {
          "internalType": "uint256",
          "name": "",
          "type": "uint256"
        }
      ],
      "stateMutability": "view",
      "type": "function"
    },
    {
      "inputs": [
        {
          "internalType": "bytes",
          "name": "",
          "type": "bytes"
        }
      ],
      "name": "checkUpkeep",
      "outputs": [
        {
          "internalType": "bool",
          "name": "upkeepNeeded",
          "type": "bool"
        },
        {
          "internalType": "bytes",
          "name": "",
          "type": "bytes"
        }
      ],
      "stateMutability": "view",
      "type": "function"
    },
    {
      "inputs": [
        {
          "internalType": "address",
          "name": "_token",
          "type": "address"
        }
      ],
      "name": "createMarket",
      "outputs": [],
      "stateMutability": "nonpayable",
      "type": "function"
    },
    {
      "inputs": [
        {
          "internalType": "address",
          "name": "_token",
          "type": "address"
        },
        {
          "internalType": "uint256",
          "name": "amount",
          "type": "uint256"
        }
      ],
      "name": "createMarketPool",
      "outputs": [],
      "stateMutability": "nonpayable",
      "type": "function"
    },
    {
      "inputs": [],
      "name": "dai",
      "outputs": [
        {
          "internalType": "address",
          "name": "",
          "type": "address"
        }
      ],
      "stateMutability": "view",
      "type": "function"
    },
    {
      "inputs": [
        {
          "internalType": "uint32",
          "name": "_domain",
          "type": "uint32"
        },
        {
          "internalType": "bytes32",
          "name": "_router",
          "type": "bytes32"
        }
      ],
      "name": "enrollRemoteRouter",
      "outputs": [],
      "stateMutability": "nonpayable",
      "type": "function"
    },
    {
      "inputs": [],
      "name": "getRiskLevel",
      "outputs": [
        {
          "internalType": "uint256",
          "name": "",
          "type": "uint256"
        }
      ],
      "stateMutability": "view",
      "type": "function"
    },
    {
      "inputs": [
        {
          "internalType": "uint32",
          "name": "_origin",
          "type": "uint32"
        },
        {
          "internalType": "bytes32",
          "name": "_sender",
          "type": "bytes32"
        },
        {
          "internalType": "bytes",
          "name": "_message",
          "type": "bytes"
        }
      ],
      "name": "handle",
      "outputs": [],
      "stateMutability": "nonpayable",
      "type": "function"
    },
    {
      "inputs": [],
      "name": "hlParentId",
      "outputs": [
        {
          "internalType": "uint32",
          "name": "",
          "type": "uint32"
        }
      ],
      "stateMutability": "view",
      "type": "function"
    },
    {
      "inputs": [],
      "name": "interchainGasPaymaster",
      "outputs": [
        {
          "internalType": "contract IInterchainGasPaymaster",
          "name": "",
          "type": "address"
        }
      ],
      "stateMutability": "view",
      "type": "function"
    },
    {
      "inputs": [],
      "name": "interval",
      "outputs": [
        {
          "internalType": "uint256",
          "name": "",
          "type": "uint256"
        }
      ],
      "stateMutability": "view",
      "type": "function"
    },
    {
      "inputs": [],
      "name": "lastAPRUpdate",
      "outputs": [
        {
          "internalType": "uint256",
          "name": "",
          "type": "uint256"
        }
      ],
      "stateMutability": "view",
      "type": "function"
    },
    {
      "inputs": [],
      "name": "lastTimeStamp",
      "outputs": [
        {
          "internalType": "uint256",
          "name": "",
          "type": "uint256"
        }
      ],
      "stateMutability": "view",
      "type": "function"
    },
    {
      "inputs": [
        {
          "internalType": "address",
          "name": "",
          "type": "address"
        }
      ],
      "name": "marketTokens",
      "outputs": [
        {
          "internalType": "bool",
          "name": "available",
          "type": "bool"
        },
        {
          "internalType": "uint128",
          "name": "_id",
          "type": "uint128"
        }
      ],
      "stateMutability": "view",
      "type": "function"
    },
    {
      "inputs": [],
      "name": "market_pools",
      "outputs": [
        {
          "internalType": "uint128",
          "name": "",
          "type": "uint128"
        }
      ],
      "stateMutability": "view",
      "type": "function"
    },
    {
      "inputs": [
        {
          "internalType": "uint128",
          "name": "",
          "type": "uint128"
        }
      ],
      "name": "markets",
      "outputs": [
        {
          "internalType": "address",
          "name": "tokenAddress",
          "type": "address"
        },
        {
          "internalType": "bool",
          "name": "available",
          "type": "bool"
        },
        {
          "internalType": "uint256",
          "name": "amountStaked",
          "type": "uint256"
        },
        {
          "internalType": "uint256",
          "name": "amountBorrowed",
          "type": "uint256"
        },
        {
          "internalType": "uint256",
          "name": "timeLastBorrowed",
          "type": "uint256"
        },
        {
          "internalType": "uint256",
          "name": "timeLastStaked",
          "type": "uint256"
        },
        {
          "internalType": "uint256",
          "name": "borrowRate",
          "type": "uint256"
        },
        {
          "internalType": "uint256",
          "name": "supplyRate",
          "type": "uint256"
        }
      ],
      "stateMutability": "view",
      "type": "function"
    },
    {
      "inputs": [],
      "name": "matic",
      "outputs": [
        {
          "internalType": "address",
          "name": "",
          "type": "address"
        }
      ],
      "stateMutability": "view",
      "type": "function"
    },
    {
      "inputs": [],
      "name": "maxLTV",
      "outputs": [
        {
          "internalType": "uint256",
          "name": "",
          "type": "uint256"
        }
      ],
      "stateMutability": "view",
      "type": "function"
    },
    {
      "inputs": [],
      "name": "multichainRouter",
      "outputs": [
        {
          "internalType": "address",
          "name": "",
          "type": "address"
        }
      ],
      "stateMutability": "view",
      "type": "function"
    },
    {
      "inputs": [],
      "name": "owner",
      "outputs": [
        {
          "internalType": "address",
          "name": "",
          "type": "address"
        }
      ],
      "stateMutability": "view",
      "type": "function"
    },
    {
      "inputs": [],
      "name": "parentAddress",
      "outputs": [
        {
          "internalType": "address",
          "name": "",
          "type": "address"
        }
      ],
      "stateMutability": "view",
      "type": "function"
    },
    {
      "inputs": [],
      "name": "parentChainId",
      "outputs": [
        {
          "internalType": "uint256",
          "name": "",
          "type": "uint256"
        }
      ],
      "stateMutability": "view",
      "type": "function"
    },
    {
      "inputs": [
        {
          "internalType": "uint256",
          "name": "amount",
          "type": "uint256"
        }
      ],
      "name": "per_amount",
      "outputs": [
        {
          "internalType": "uint256",
          "name": "",
          "type": "uint256"
        }
      ],
      "stateMutability": "pure",
      "type": "function"
    },
    {
      "inputs": [
        {
          "internalType": "bytes",
          "name": "",
          "type": "bytes"
        }
      ],
      "name": "performUpkeep",
      "outputs": [],
      "stateMutability": "nonpayable",
      "type": "function"
    },
    {
      "inputs": [
        {
          "components": [
            {
              "internalType": "address",
              "name": "user",
              "type": "address"
            },
            {
              "internalType": "uint256",
              "name": "totalStakes",
              "type": "uint256"
            },
            {
              "internalType": "uint256",
              "name": "totalBorrows",
              "type": "uint256"
            }
          ],
          "internalType": "struct HeadenFinanceChild.FullUpdateData[]",
          "name": "usersData",
          "type": "tuple[]"
        }
      ],
      "name": "receiveFullUpdateFromParentChain",
      "outputs": [],
      "stateMutability": "nonpayable",
      "type": "function"
    },
    {
      "inputs": [
        {
          "internalType": "address",
          "name": "user",
          "type": "address"
        },
        {
          "internalType": "uint256",
          "name": "totalStakes",
          "type": "uint256"
        },
        {
          "internalType": "uint256",
          "name": "totalBorrows",
          "type": "uint256"
        }
      ],
      "name": "receiveUpdateFromParentChain",
      "outputs": [],
      "stateMutability": "nonpayable",
      "type": "function"
    },
    {
      "inputs": [
        {
          "internalType": "address",
          "name": "",
          "type": "address"
        }
      ],
      "name": "relayers",
      "outputs": [
        {
          "internalType": "bool",
          "name": "",
          "type": "bool"
        }
      ],
      "stateMutability": "view",
      "type": "function"
    },
    {
      "inputs": [],
      "name": "renounceOwnership",
      "outputs": [],
      "stateMutability": "nonpayable",
      "type": "function"
    },
    {
      "inputs": [
        {
          "internalType": "address",
          "name": "_tokenAddress",
          "type": "address"
        },
        {
          "internalType": "uint256",
          "name": "_amount",
          "type": "uint256"
        }
      ],
      "name": "repayLoan",
      "outputs": [],
      "stateMutability": "nonpayable",
      "type": "function"
    },
    {
      "inputs": [
        {
          "internalType": "uint32",
          "name": "",
          "type": "uint32"
        }
      ],
      "name": "routers",
      "outputs": [
        {
          "internalType": "bytes32",
          "name": "",
          "type": "bytes32"
        }
      ],
      "stateMutability": "view",
      "type": "function"
    },
    {
      "inputs": [
        {
          "internalType": "address",
          "name": "_abacusConnectionManager",
          "type": "address"
        }
      ],
      "name": "setAbacusConnectionManager",
      "outputs": [],
      "stateMutability": "nonpayable",
      "type": "function"
    },
    {
      "inputs": [
        {
          "internalType": "address",
          "name": "_interchainGasPaymaster",
          "type": "address"
        }
      ],
      "name": "setInterchainGasPaymaster",
      "outputs": [],
      "stateMutability": "nonpayable",
      "type": "function"
    },
    {
      "inputs": [
        {
          "internalType": "address",
          "name": "_tokenAddress",
          "type": "address"
        },
        {
          "internalType": "uint256",
          "name": "_amountToStake",
          "type": "uint256"
        }
      ],
      "name": "stakeToken",
      "outputs": [],
      "stateMutability": "nonpayable",
      "type": "function"
    },
    {
      "inputs": [
        {
          "internalType": "uint128",
          "name": "_id",
          "type": "uint128"
        }
      ],
      "name": "supplyInterestRates",
      "outputs": [
        {
          "internalType": "uint256",
          "name": "",
          "type": "uint256"
        }
      ],
      "stateMutability": "view",
      "type": "function"
    },
    {
      "inputs": [],
      "name": "supplyKink",
      "outputs": [
        {
          "internalType": "uint256",
          "name": "",
          "type": "uint256"
        }
      ],
      "stateMutability": "view",
      "type": "function"
    },
    {
      "inputs": [],
      "name": "supplyPerSecondInterestRateBase",
      "outputs": [
        {
          "internalType": "uint256",
          "name": "",
          "type": "uint256"
        }
      ],
      "stateMutability": "view",
      "type": "function"
    },
    {
      "inputs": [],
      "name": "supplyPerSecondInterestRateSlopeHigh",
      "outputs": [
        {
          "internalType": "uint256",
          "name": "",
          "type": "uint256"
        }
      ],
      "stateMutability": "view",
      "type": "function"
    },
    {
      "inputs": [],
      "name": "supplyPerSecondInterestRateSlopeLow",
      "outputs": [
        {
          "internalType": "uint256",
          "name": "",
          "type": "uint256"
        }
      ],
      "stateMutability": "view",
      "type": "function"
    },
    {
      "inputs": [],
      "name": "tax",
      "outputs": [
        {
          "internalType": "uint256",
          "name": "",
          "type": "uint256"
        }
      ],
      "stateMutability": "view",
      "type": "function"
    },
    {
      "inputs": [
        {
          "internalType": "address",
          "name": "newOwner",
          "type": "address"
        }
      ],
      "name": "transferOwnership",
      "outputs": [],
      "stateMutability": "nonpayable",
      "type": "function"
    },
    {
      "inputs": [
        {
          "components": [
            {
              "internalType": "uint64",
              "name": "supplyKink",
              "type": "uint64"
            },
            {
              "internalType": "uint64",
              "name": "supplyPerYearInterestRateSlopeLow",
              "type": "uint64"
            },
            {
              "internalType": "uint64",
              "name": "supplyPerYearInterestRateSlopeHigh",
              "type": "uint64"
            },
            {
              "internalType": "uint64",
              "name": "supplyPerYearInterestRateBase",
              "type": "uint64"
            },
            {
              "internalType": "uint64",
              "name": "borrowKink",
              "type": "uint64"
            },
            {
              "internalType": "uint64",
              "name": "borrowPerYearInterestRateSlopeLow",
              "type": "uint64"
            },
            {
              "internalType": "uint64",
              "name": "borrowPerYearInterestRateSlopeHigh",
              "type": "uint64"
            },
            {
              "internalType": "uint64",
              "name": "borrowPerYearInterestRateBase",
              "type": "uint64"
            }
          ],
          "internalType": "struct HeadenUtils.Configuration",
          "name": "config",
          "type": "tuple"
        },
        {
          "internalType": "address",
          "name": "_relayer",
          "type": "address"
        }
      ],
      "name": "updateSettings",
      "outputs": [],
      "stateMutability": "nonpayable",
      "type": "function"
    },
    {
      "inputs": [],
      "name": "usdc",
      "outputs": [
        {
          "internalType": "address",
          "name": "",
          "type": "address"
        }
      ],
      "stateMutability": "view",
      "type": "function"
    },
    {
      "inputs": [
        {
          "internalType": "uint256",
          "name": "",
          "type": "uint256"
        }
      ],
      "name": "userAddresses",
      "outputs": [
        {
          "internalType": "address",
          "name": "",
          "type": "address"
        }
      ],
      "stateMutability": "view",
      "type": "function"
    },
    {
      "inputs": [
        {
          "internalType": "address",
          "name": "",
          "type": "address"
        }
      ],
      "name": "users",
      "outputs": [
        {
          "internalType": "address",
          "name": "userAddress",
          "type": "address"
        },
        {
          "internalType": "bool",
          "name": "available",
          "type": "bool"
        },
        {
          "internalType": "uint256",
          "name": "totalAmountBorrowed",
          "type": "uint256"
        },
        {
          "internalType": "uint256",
          "name": "totalAmountStaked",
          "type": "uint256"
        },
        {
          "internalType": "uint256",
          "name": "ltv",
          "type": "uint256"
        },
        {
          "internalType": "bool",
          "name": "lock",
          "type": "bool"
        },
        {
          "internalType": "uint256",
          "name": "lastAPRUpdated",
          "type": "uint256"
        }
      ],
      "stateMutability": "view",
      "type": "function"
    },
    {
      "inputs": [
        {
          "internalType": "bytes32",
          "name": "",
          "type": "bytes32"
        }
      ],
      "name": "usersborrows",
      "outputs": [
        {
          "internalType": "address",
          "name": "userAddress",
          "type": "address"
        },
        {
          "internalType": "address",
          "name": "tokenAddress",
          "type": "address"
        },
        {
          "internalType": "bool",
          "name": "available",
          "type": "bool"
        },
        {
          "internalType": "uint256",
          "name": "amountBorrowed",
          "type": "uint256"
        }
      ],
      "stateMutability": "view",
      "type": "function"
    },
    {
      "inputs": [
        {
          "internalType": "bytes32",
          "name": "",
          "type": "bytes32"
        }
      ],
      "name": "userstakes",
      "outputs": [
        {
          "internalType": "address",
          "name": "userAddress",
          "type": "address"
        },
        {
          "internalType": "address",
          "name": "tokenAddress",
          "type": "address"
        },
        {
          "internalType": "bool",
          "name": "available",
          "type": "bool"
        },
        {
          "internalType": "uint256",
          "name": "amountStaked",
          "type": "uint256"
        }
      ],
      "stateMutability": "view",
      "type": "function"
    },
    {
      "inputs": [
        {
          "internalType": "address",
          "name": "user",
          "type": "address"
        },
        {
          "internalType": "address",
          "name": "token",
          "type": "address"
        }
      ],
      "name": "validateUser",
      "outputs": [],
      "stateMutability": "nonpayable",
      "type": "function"
    },
    {
      "inputs": [
        {
          "internalType": "address",
          "name": "user",
          "type": "address"
        }
      ],
      "name": "validateUser",
      "outputs": [],
      "stateMutability": "nonpayable",
      "type": "function"
    },
    {
      "inputs": [],
      "name": "validateUsers",
      "outputs": [],
      "stateMutability": "nonpayable",
      "type": "function"
    },
    {
      "inputs": [
        {
          "internalType": "address",
          "name": "_tokenAddress",
          "type": "address"
        },
        {
          "internalType": "uint256",
          "name": "_amountToWithdraw",
          "type": "uint256"
        },
        {
          "internalType": "uint256",
          "name": "_chainId",
          "type": "uint256"
        },
        {
          "internalType": "address",
          "name": "_to",
          "type": "address"
        }
      ],
      "name": "withdrawToken",
      "outputs": [],
      "stateMutability": "nonpayable",
      "type": "function"
    }
  ],
  "bytecode": "0x60a060405273103a2d37ea6b3b4da2f5bb44e001001729e743546000806101000a81548173ffffffffffffffffffffffffffffffffffffffff021916908373ffffffffffffffffffffffffffffffffffffffff16021790555061015e600455670de0b6b3a76400006009556301e13380600a55611b58600d5542600e55600060e660006101000a8154816fffffffffffffffffffffffffffffffff02191690836fffffffffffffffffffffffffffffffff160217905550348015620000c357600080fd5b506040516200ae0e3803806200ae0e8339818101604052810190620000e991906200099d565b8a8a8a8a8a8a8a88886001808190555087600560006101000a81548173ffffffffffffffffffffffffffffffffffffffff021916908373ffffffffffffffffffffffffffffffffffffffff1602179055508660039080519060200190620001529291906200068a565b5085600260006101000a81548173ffffffffffffffffffffffffffffffffffffffff021916908373ffffffffffffffffffffffffffffffffffffffff16021790555083600760006101000a81548173ffffffffffffffffffffffffffffffffffffffff021916908373ffffffffffffffffffffffffffffffffffffffff16021790555084600660006101000a81548173ffffffffffffffffffffffffffffffffffffffff021916908373ffffffffffffffffffffffffffffffffffffffff16021790555082600860006101000a81548173ffffffffffffffffffffffffffffffffffffffff021916908373ffffffffffffffffffffffffffffffffffffffff160217905550886080818152505042600b8190555081600c81905550806000015167ffffffffffffffff16600f81905550600a54816020015167ffffffffffffffff1681620002c9577f4e487b7100000000000000000000000000000000000000000000000000000000600052601260045260246000fd5b04601081905550600a54816040015167ffffffffffffffff168162000317577f4e487b7100000000000000000000000000000000000000000000000000000000600052601260045260246000fd5b04601181905550600a54816060015167ffffffffffffffff168162000365577f4e487b7100000000000000000000000000000000000000000000000000000000600052601260045260246000fd5b04601281905550806080015167ffffffffffffffff16601381905550600a548160a0015167ffffffffffffffff1681620003c8577f4e487b7100000000000000000000000000000000000000000000000000000000600052601260045260246000fd5b04601481905550600a548160c0015167ffffffffffffffff168162000416577f4e487b7100000000000000000000000000000000000000000000000000000000600052601260045260246000fd5b04601581905550600a548160e0015167ffffffffffffffff168162000464577f4e487b7100000000000000000000000000000000000000000000000000000000600052601260045260246000fd5b04601681905550505050505050505050600160e560003373ffffffffffffffffffffffffffffffffffffffff1673ffffffffffffffffffffffffffffffffffffffff16815260200190815260200160002060006101000a81548160ff021916908315150217905550620004e184600001516200057c60201b60201c565b620004f684602001516200060360201b60201c565b826040015160e860006101000a81548163ffffffff021916908363ffffffff160217905550826000015160e860046101000a81548173ffffffffffffffffffffffffffffffffffffffff021916908373ffffffffffffffffffffffffffffffffffffffff160217905550826020015160e981905550505050505050505050505062000cf7565b80607c60006101000a81548173ffffffffffffffffffffffffffffffffffffffff021916908373ffffffffffffffffffffffffffffffffffffffff1602179055508073ffffffffffffffffffffffffffffffffffffffff167f7c10de8878ed89478ff01b9cd8c11a5271ea8ac91d46f662e6aea7e3adf5b11f60405160405180910390a250565b80607d60006101000a81548173ffffffffffffffffffffffffffffffffffffffff021916908373ffffffffffffffffffffffffffffffffffffffff1602179055508073ffffffffffffffffffffffffffffffffffffffff167fb87f5a0bface22cde699143559fb99f990ae54eea236995fc54178af91af859f60405160405180910390a250565b828054620006989062000bb4565b90600052602060002090601f016020900481019282620006bc576000855562000708565b82601f10620006d757805160ff191683800117855562000708565b8280016001018555821562000708579182015b8281111562000707578251825591602001919060010190620006ea565b5b5090506200071791906200071b565b5090565b5b80821115620007365760008160009055506001016200071c565b5090565b6000620007516200074b8462000ae6565b62000abd565b9050828152602081018484840111156200076a57600080fd5b6200077784828562000b7e565b509392505050565b600081519050620007908162000c8f565b92915050565b600082601f830112620007a857600080fd5b8151620007ba8482602086016200073a565b91505092915050565b600060408284031215620007d657600080fd5b620007e2604062000abd565b90506000620007f4848285016200077f565b60008301525060206200080a848285016200077f565b60208301525092915050565b600061010082840312156200082a57600080fd5b6200083761010062000abd565b90506000620008498482850162000986565b60008301525060206200085f8482850162000986565b6020830152506040620008758482850162000986565b60408301525060606200088b8482850162000986565b6060830152506080620008a18482850162000986565b60808301525060a0620008b78482850162000986565b60a08301525060c0620008cd8482850162000986565b60c08301525060e0620008e38482850162000986565b60e08301525092915050565b6000606082840312156200090257600080fd5b6200090e606062000abd565b9050600062000920848285016200077f565b6000830152506020620009368482850162000958565b60208301525060406200094c848285016200096f565b60408301525092915050565b600081519050620009698162000ca9565b92915050565b600081519050620009808162000cc3565b92915050565b600081519050620009978162000cdd565b92915050565b60008060008060008060008060008060006102a08c8e031215620009c057600080fd5b6000620009d08e828f0162000958565b9b50506020620009e38e828f016200077f565b9a505060408c015167ffffffffffffffff81111562000a0157600080fd5b62000a0f8e828f0162000796565b995050606062000a228e828f016200077f565b985050608062000a358e828f016200077f565b97505060a062000a488e828f016200077f565b96505060c062000a5b8e828f016200077f565b95505060e062000a6e8e828f01620007c3565b94505061012062000a828e828f01620008ef565b93505061018062000a968e828f0162000958565b9250506101a062000aaa8e828f0162000816565b9150509295989b509295989b9093969950565b600062000ac962000adc565b905062000ad7828262000bea565b919050565b6000604051905090565b600067ffffffffffffffff82111562000b045762000b0362000c4f565b5b62000b0f8262000c7e565b9050602081019050919050565b600062000b298262000b30565b9050919050565b600073ffffffffffffffffffffffffffffffffffffffff82169050919050565b6000819050919050565b600063ffffffff82169050919050565b600067ffffffffffffffff82169050919050565b60005b8381101562000b9e57808201518184015260208101905062000b81565b8381111562000bae576000848401525b50505050565b6000600282049050600182168062000bcd57607f821691505b6020821081141562000be45762000be362000c20565b5b50919050565b62000bf58262000c7e565b810181811067ffffffffffffffff8211171562000c175762000c1662000c4f565b5b80604052505050565b7f4e487b7100000000000000000000000000000000000000000000000000000000600052602260045260246000fd5b7f4e487b7100000000000000000000000000000000000000000000000000000000600052604160045260246000fd5b6000601f19601f8301169050919050565b62000c9a8162000b1c565b811462000ca657600080fd5b50565b62000cb48162000b50565b811462000cc057600080fd5b50565b62000cce8162000b5a565b811462000cda57600080fd5b50565b62000ce88162000b6a565b811462000cf457600080fd5b50565b60805161a0ed62000d216000396000818161155e0152818161317c0152613d8f015261a0ed6000f3fe608060405234801561001057600080fd5b50600436106103985760003560e01c80637914acc7116101e9578063a5b4ff791161010f578063e6a69ab8116100ad578063f384bd051161007c578063f384bd0514610ac6578063f4b9fa7514610ae4578063f5a96d3f14610b02578063f739ed9e14610b0c57610398565b8063e6a69ab814610a54578063f0c4e88614610a72578063f1bd6f0a14610a8e578063f2fde38b14610aaa57610398565b8063b6b0b097116100e9578063b6b0b097146109ca578063c44814a6146109e8578063c6f4c57814610a18578063e0b5330714610a3657610398565b8063a5b4ff791461095a578063a87430ba14610978578063b49c53a7146109ae57610398565b8063947a36fb116101875780639a35c359116101565780639a35c359146108d05780639a8a0592146108ee5780639c65582c1461090c578063a2953f371461092a57610398565b8063947a36fb1461085857806394920cca1461087657806397ac1fc91461089457806399c8d556146108b257610398565b80638459254e116101c35780638459254e146107e45780638da5cb5b146108005780639241a5611461081e57806393a595f51461083c57610398565b80637914acc71461078c5780637c108333146107aa578063804de71f146107c657610398565b80634585e33b116102ce57806356d5d4751161026c57806365c650761161023b57806365c65076146107175780636cf2ed94146107335780636e04ff0d14610751578063715018a61461078257610398565b806356d5d475146106905780635a91b39c146106ac5780635a94b8d1146106c85780635db11f79146106e657610398565b806350f74b55116102a857806350f74b55146105f557806352de57271461061157806352fcaa791461062d5780635300f8411461066057610398565b80634585e33b146105795780634b98e0e514610595578063502c9bd5146105c557610398565b8063396ce2131161033b5780633cd83bda116103155780633cd83bda146104e85780633d3e49fc146105065780633e413bee1461053d5780633f3b3b271461055b57610398565b8063396ce2131461047b57806339bb4ad9146104ae5780633ca1355f146104cc57610398565b80631f3929e3116103775780631f3929e3146103f35780632a48cf121461040f5780632d05670b1461042d5780632ead72f61461044b57610398565b8062821de31461039d57806305e617d5146103bb57806312b1d780146103d7575b600080fd5b6103a5610b28565b6040516103b29190618ad8565b60405180910390f35b6103d560048036038101906103d0919061806d565b610b4e565b005b6103f160048036038101906103ec9190617f1a565b610c3f565b005b61040d60048036038101906104089190617fce565b610c53565b005b610417611096565b604051610424919061918a565b60405180910390f35b61043561109c565b604051610442919061918a565b60405180910390f35b61046560048036038101906104609190618347565b6110a2565b6040516104729190618de3565b60405180910390f35b610495600480360381019061049091906181ce565b6110ba565b6040516104a59493929190618af3565b60405180910390f35b6104b6611137565b6040516104c39190618e19565b60405180910390f35b6104e660048036038101906104e1919061828e565b61115d565b005b6104f0611429565b6040516104fd919061918a565b60405180910390f35b610520600480360381019061051b91906182cc565b61142f565b604051610534989796959493929190618c23565b60405180910390f35b6105456114a4565b6040516105529190618ad8565b60405180910390f35b6105636114ca565b604051610570919061918a565b60405180910390f35b610593600480360381019061058e91906181f7565b6114d0565b005b6105af60048036038101906105aa91906182cc565b6115d9565b6040516105bc919061918a565b60405180910390f35b6105df60048036038101906105da91906182f5565b6116dd565b6040516105ec9190618ad8565b60405180910390f35b61060f600480360381019061060a919061811f565b61171c565b005b61062b60048036038101906106269190617f92565b611902565b005b610647600480360381019061064291906181ce565b611a7a565b6040516106579493929190618af3565b60405180910390f35b61067a60048036038101906106759190617f1a565b611af7565b6040516106879190618d6f565b60405180910390f35b6106aa60048036038101906106a591906183ac565b611b17565b005b6106c660048036038101906106c19190617fce565b611bbc565b005b6106d061244a565b6040516106dd919061918a565b60405180910390f35b61070060048036038101906106fb9190617f1a565b612450565b60405161070e929190618dba565b60405180910390f35b610731600480360381019061072c919061800a565b61249d565b005b61073b613160565b60405161074891906191fe565b60405180910390f35b61076b600480360381019061076691906181f7565b613176565b604051610779929190618d8a565b60405180910390f35b61078a6131b3565b005b6107946131c7565b6040516107a1919061918a565b60405180910390f35b6107c460048036038101906107bf9190617f1a565b6131cd565b005b6107ce61358b565b6040516107db919061918a565b60405180910390f35b6107fe60048036038101906107f99190617f1a565b613591565b005b61080861381c565b6040516108159190618ad8565b60405180910390f35b610826613846565b604051610833919061918a565b60405180910390f35b61085660048036038101906108519190617fce565b61384c565b005b610860613d8d565b60405161086d919061918a565b60405180910390f35b61087e613db1565b60405161088b919061918a565b60405180910390f35b61089c613db7565b6040516108a9919061916f565b60405180910390f35b6108ba613dd9565b6040516108c7919061918a565b60405180910390f35b6108d8613ddf565b6040516108e59190618dfe565b60405180910390f35b6108f6613e05565b604051610903919061918a565b60405180910390f35b610914613e0b565b604051610921919061918a565b60405180910390f35b610944600480360381019061093f91906182cc565b613e11565b604051610951919061918a565b60405180910390f35b610962613f15565b60405161096f919061918a565b60405180910390f35b610992600480360381019061098d9190617f1a565b613f1b565b6040516109a59796959493929190618bb4565b60405180910390f35b6109c860048036038101906109c39190618370565b613f97565b005b6109d2613fad565b6040516109df9190618ad8565b60405180910390f35b610a0260048036038101906109fd91906182f5565b613fd3565b604051610a0f919061918a565b60405180910390f35b610a20613fea565b604051610a2d9190618ad8565b60405180910390f35b610a3e614010565b604051610a4b919061918a565b60405180910390f35b610a5c6140e9565b604051610a69919061918a565b60405180910390f35b610a8c6004803603810190610a8791906180bc565b6140ef565b005b610aa86004803603810190610aa39190617f1a565b614944565b005b610ac46004803603810190610abf9190617f1a565b614958565b005b610ace6149dc565b604051610adb919061918a565b60405180910390f35b610aec6149e2565b604051610af99190618ad8565b60405180910390f35b610b0a614a08565b005b610b266004803603810190610b219190617fce565b614b2d565b005b60e860049054906101000a900473ffffffffffffffffffffffffffffffffffffffff1681565b60e560003373ffffffffffffffffffffffffffffffffffffffff1673ffffffffffffffffffffffffffffffffffffffff16815260200190815260200160002060009054906101000a900460ff16610bda576040517f08c379a0000000000000000000000000000000000000000000000000000000008152600401610bd190618e34565b60405180910390fd5b60026001541415610c20576040517f08c379a0000000000000000000000000000000000000000000000000000000008152600401610c17906190b4565b60405180910390fd5b6002600181905550610c33838383614eaa565b60018081905550505050565b610c476151ff565b610c508161527d565b50565b600160e660008282829054906101000a90046fffffffffffffffffffffffffffffffff16610c81919061935f565b92506101000a8154816fffffffffffffffffffffffffffffffff02191690836fffffffffffffffffffffffffffffffff16021790555060e460008373ffffffffffffffffffffffffffffffffffffffff1673ffffffffffffffffffffffffffffffffffffffff16815260200190815260200160002060000160009054906101000a900460ff1615610d47576040517f08c379a0000000000000000000000000000000000000000000000000000000008152600401610d3e906190f4565b60405180910390fd5b6040518061010001604052808373ffffffffffffffffffffffffffffffffffffffff1681526020016001151581526020018281526020016000815260200142815260200142815260200160008152602001600081525060e3600060e660009054906101000a90046fffffffffffffffffffffffffffffffff166fffffffffffffffffffffffffffffffff166fffffffffffffffffffffffffffffffff16815260200190815260200160002060008201518160000160006101000a81548173ffffffffffffffffffffffffffffffffffffffff021916908373ffffffffffffffffffffffffffffffffffffffff16021790555060208201518160000160146101000a81548160ff02191690831515021790555060408201518160010155606082015181600201556080820151816003015560a0820151816004015560c0820151816005015560e08201518160060155905050604051806040016040528060011515815260200160e660009054906101000a90046fffffffffffffffffffffffffffffffff166fffffffffffffffffffffffffffffffff1681525060e460008473ffffffffffffffffffffffffffffffffffffffff1673ffffffffffffffffffffffffffffffffffffffff16815260200190815260200160002060008201518160000160006101000a81548160ff02191690831515021790555060208201518160000160016101000a8154816fffffffffffffffffffffffffffffffff02191690836fffffffffffffffffffffffffffffffff1602179055509050506000610f8d8383615304565b905061103860008054906101000a900473ffffffffffffffffffffffffffffffffffffffff1673ffffffffffffffffffffffffffffffffffffffff1663313ce5676040518163ffffffff1660e01b815260040160206040518083038186803b158015610ff857600080fd5b505afa15801561100c573d6000803e3d6000fd5b505050506040513d601f19601f82011682018060405250810190611030919061843c565b60ff1661565d565b610dac611045919061959d565b811015611087576040517f08c379a000000000000000000000000000000000000000000000000000000000815260040161107e90618ef4565b60405180910390fd5b6110918383615673565b505050565b60155481565b60145481565b60ae6020528060005260406000206000915090505481565b60e16020528060005260406000206000915090508060000160009054906101000a900473ffffffffffffffffffffffffffffffffffffffff16908060010160009054906101000a900473ffffffffffffffffffffffffffffffffffffffff16908060010160149054906101000a900460ff16908060020154905084565b607d60009054906101000a900473ffffffffffffffffffffffffffffffffffffffff1681565b6111656151ff565b600160e560008373ffffffffffffffffffffffffffffffffffffffff1673ffffffffffffffffffffffffffffffffffffffff16815260200190815260200160002060006101000a81548160ff0219169083151502179055508160000160208101906111d09190618413565b67ffffffffffffffff16600f81905550600a548260200160208101906111f69190618413565b67ffffffffffffffff1681611234577f4e487b7100000000000000000000000000000000000000000000000000000000600052601260045260246000fd5b04601081905550600a548260400160208101906112519190618413565b67ffffffffffffffff168161128f577f4e487b7100000000000000000000000000000000000000000000000000000000600052601260045260246000fd5b04601181905550600a548260600160208101906112ac9190618413565b67ffffffffffffffff16816112ea577f4e487b7100000000000000000000000000000000000000000000000000000000600052601260045260246000fd5b046012819055508160800160208101906113049190618413565b67ffffffffffffffff16601381905550600a548260a001602081019061132a9190618413565b67ffffffffffffffff1681611368577f4e487b7100000000000000000000000000000000000000000000000000000000600052601260045260246000fd5b04601481905550600a548260c00160208101906113859190618413565b67ffffffffffffffff16816113c3577f4e487b7100000000000000000000000000000000000000000000000000000000600052601260045260246000fd5b04601581905550600a548260e00160208101906113e09190618413565b67ffffffffffffffff168161141e577f4e487b7100000000000000000000000000000000000000000000000000000000600052601260045260246000fd5b046016819055505050565b600e5481565b60e36020528060005260406000206000915090508060000160009054906101000a900473ffffffffffffffffffffffffffffffffffffffff16908060000160149054906101000a900460ff16908060010154908060020154908060030154908060040154908060050154908060060154905088565b600660009054906101000a900473ffffffffffffffffffffffffffffffffffffffff1681565b600b5481565b60e560003373ffffffffffffffffffffffffffffffffffffffff1673ffffffffffffffffffffffffffffffffffffffff16815260200190815260200160002060009054906101000a900460ff1661155c576040517f08c379a000000000000000000000000000000000000000000000000000000000815260040161155390618e34565b60405180910390fd5b7f0000000000000000000000000000000000000000000000000000000000000000600b544261158b91906195f7565b11156115d55742600b819055507f4c046938d8adaf12f829530d5ab0441e591705682189298941fd0d767cc22eab60405160405180910390a16115cc614a08565b6115d4615bd9565b5b5050565b60008060e36000846fffffffffffffffffffffffffffffffff166fffffffffffffffffffffffffffffffff1681526020019081526020016000206001015461165a60e36000866fffffffffffffffffffffffffffffffff166fffffffffffffffffffffffffffffffff16815260200190815260200160002060020154613fd3565b61166491906193fb565b90506013548111611692578060145461167d919061959d565b60165461168a91906193a5565b9150506116d8565b601354816116a091906195f7565b6015546116ad919061959d565b6013546014546116bd919061959d565b6016546116ca91906193a5565b6116d491906193a5565b9150505b919050565b60e781815481106116ed57600080fd5b906000526020600020016000915054906101000a900473ffffffffffffffffffffffffffffffffffffffff1681565b60e560003373ffffffffffffffffffffffffffffffffffffffff1673ffffffffffffffffffffffffffffffffffffffff16815260200190815260200160002060009054906101000a900460ff166117a8576040517f08c379a000000000000000000000000000000000000000000000000000000000815260040161179f90618e34565b60405180910390fd5b600260015414156117ee576040517f08c379a00000000000000000000000000000000000000000000000000000000081526004016117e5906190b4565b60405180910390fd5b600260018190555060005b828290508110156118f6576118e3838383818110611840577f4e487b7100000000000000000000000000000000000000000000000000000000600052603260045260246000fd5b90506060020160000160208101906118589190617f1a565b848484818110611891577f4e487b7100000000000000000000000000000000000000000000000000000000600052603260045260246000fd5b905060600201602001358585858181106118d4577f4e487b7100000000000000000000000000000000000000000000000000000000600052603260045260246000fd5b90506060020160400135610b4e565b80806118ee906198cf565b9150506117f9565b50600180819055505050565b60e560003373ffffffffffffffffffffffffffffffffffffffff1673ffffffffffffffffffffffffffffffffffffffff16815260200190815260200160002060009054906101000a900460ff1661198e576040517f08c379a000000000000000000000000000000000000000000000000000000000815260040161198590618e34565b60405180910390fd5b6119988282615c44565b50600d5460e060008473ffffffffffffffffffffffffffffffffffffffff1673ffffffffffffffffffffffffffffffffffffffff16815260200190815260200160002060030154106119f8576119ee8282616231565b6119f782616596565b5b7fb17a27eee810f4b7ae91846bb18a6e11c3d1b2a438ee836c7e2e5790a367502a60e060008473ffffffffffffffffffffffffffffffffffffffff1673ffffffffffffffffffffffffffffffffffffffff168152602001908152602001600020604051611a659190619154565b60405180910390a1611a768261699c565b5050565b60e26020528060005260406000206000915090508060000160009054906101000a900473ffffffffffffffffffffffffffffffffffffffff16908060010160009054906101000a900473ffffffffffffffffffffffffffffffffffffffff16908060010160149054906101000a900460ff16908060020154905084565b60e56020528060005260406000206000915054906101000a900460ff1681565b611b2033616af8565b611b5f576040517f08c379a0000000000000000000000000000000000000000000000000000000008152600401611b5690618ff4565b60405180910390fd5b8282611b6b8282616bac565b611baa576040517f08c379a0000000000000000000000000000000000000000000000000000000008152600401611ba190619014565b60405180910390fd5b611bb5858585616bd8565b5050505050565b60e060003373ffffffffffffffffffffffffffffffffffffffff1673ffffffffffffffffffffffffffffffffffffffff16815260200190815260200160002060000160149054906101000a900460ff16611c4b576040517f08c379a0000000000000000000000000000000000000000000000000000000008152600401611c4290619074565b60405180910390fd5b60e060003373ffffffffffffffffffffffffffffffffffffffff1673ffffffffffffffffffffffffffffffffffffffff16815260200190815260200160002060040160009054906101000a900460ff1615611cdb576040517f08c379a0000000000000000000000000000000000000000000000000000000008152600401611cd290619054565b60405180910390fd5b60026001541415611d21576040517f08c379a0000000000000000000000000000000000000000000000000000000008152600401611d18906190b4565b60405180910390fd5b600260018190555060e460008373ffffffffffffffffffffffffffffffffffffffff1673ffffffffffffffffffffffffffffffffffffffff16815260200190815260200160002060000160009054906101000a900460ff16611db8576040517f08c379a0000000000000000000000000000000000000000000000000000000008152600401611daf90619114565b60405180910390fd5b600033836003604051602001611dd093929190618a9f565b604051602081830303815290604052805190602001209050600061271083600454611dfb919061959d565b611e0591906193fb565b90506000611e138585615304565b905060058111611e58576040517f08c379a0000000000000000000000000000000000000000000000000000000008152600401611e4f90618e74565b60405180910390fd5b611e6133616596565b600d5460e060003373ffffffffffffffffffffffffffffffffffffffff1673ffffffffffffffffffffffffffffffffffffffff168152602001908152602001600020600201546127108360e060003373ffffffffffffffffffffffffffffffffffffffff1673ffffffffffffffffffffffffffffffffffffffff16815260200190815260200160002060010154611ef891906193a5565b611f02919061959d565b611f0c91906193fb565b10611f4c576040517f08c379a0000000000000000000000000000000000000000000000000000000008152600401611f4390618f74565b60405180910390fd5b60e1600084815260200190815260200160002060010160149054906101000a900460ff1615611fa7578360e160008581526020019081526020016000206002016000828254611f9b91906193a5565b925050819055506120c6565b60405180608001604052803373ffffffffffffffffffffffffffffffffffffffff1681526020018673ffffffffffffffffffffffffffffffffffffffff1681526020016001151581526020018581525060e1600085815260200190815260200160002060008201518160000160006101000a81548173ffffffffffffffffffffffffffffffffffffffff021916908373ffffffffffffffffffffffffffffffffffffffff16021790555060208201518160010160006101000a81548173ffffffffffffffffffffffffffffffffffffffff021916908373ffffffffffffffffffffffffffffffffffffffff16021790555060408201518160010160146101000a81548160ff021916908315150217905550606082015181600201559050505b8060e060003373ffffffffffffffffffffffffffffffffffffffff1673ffffffffffffffffffffffffffffffffffffffff168152602001908152602001600020600101600082825461211891906193a5565b92505081905550838573ffffffffffffffffffffffffffffffffffffffff166370a08231306040518263ffffffff1660e01b81526004016121599190618ad8565b60206040518083038186803b15801561217157600080fd5b505afa158015612185573d6000803e3d6000fd5b505050506040513d601f19601f820116820180604052508101906121a9919061831e565b101561220b576121c5856002866121c0919061959d565b616d33565b6000612206576040517f08c379a00000000000000000000000000000000000000000000000000000000081526004016121fd90618fd4565b60405180910390fd5b6122e3565b8473ffffffffffffffffffffffffffffffffffffffff1663a9059cbb33848761223491906195f7565b6040518363ffffffff1660e01b8152600401612251929190618ca1565b602060405180830381600087803b15801561226b57600080fd5b505af115801561227f573d6000803e3d6000fd5b505050506040513d601f19601f820116820180604052508101906122a391906181a5565b6122e2576040517f08c379a00000000000000000000000000000000000000000000000000000000081526004016122d990618f94565b60405180910390fd5b5b61234e8460018060e460008a73ffffffffffffffffffffffffffffffffffffffff1673ffffffffffffffffffffffffffffffffffffffff16815260200190815260200160002060000160019054906101000a90046fffffffffffffffffffffffffffffffff16616d7b565b7f6b08916d029d07a60616d74a789588507159d3fbfda90bde20ec8c42d9e199d03360405161237d9190618ad8565b60405180910390a17fb17a27eee810f4b7ae91846bb18a6e11c3d1b2a438ee836c7e2e5790a367502a60e060003373ffffffffffffffffffffffffffffffffffffffff1673ffffffffffffffffffffffffffffffffffffffff1681526020019081526020016000206040516123f29190619154565b60405180910390a17f84d6fc9f7244aba67b2ad2bfc67d8d3ed92b7e4932a482888bac6a4595019a15848660405161242b9291906191a5565b60405180910390a161243c3361699c565b505050600180819055505050565b60105481565b60e46020528060005260406000206000915090508060000160009054906101000a900460ff16908060000160019054906101000a90046fffffffffffffffffffffffffffffffff16905082565b60e060003373ffffffffffffffffffffffffffffffffffffffff1673ffffffffffffffffffffffffffffffffffffffff16815260200190815260200160002060000160149054906101000a900460ff1661252c576040517f08c379a000000000000000000000000000000000000000000000000000000000815260040161252390619074565b60405180910390fd5b60e060003373ffffffffffffffffffffffffffffffffffffffff1673ffffffffffffffffffffffffffffffffffffffff16815260200190815260200160002060040160009054906101000a900460ff16156125bc576040517f08c379a00000000000000000000000000000000000000000000000000000000081526004016125b390619054565b60405180910390fd5b60026001541415612602576040517f08c379a00000000000000000000000000000000000000000000000000000000081526004016125f9906190b4565b60405180910390fd5b600260018190555060e460008573ffffffffffffffffffffffffffffffffffffffff1673ffffffffffffffffffffffffffffffffffffffff16815260200190815260200160002060000160009054906101000a900460ff16612699576040517f08c379a000000000000000000000000000000000000000000000000000000000815260040161269090619114565b60405180910390fd5b60e460008373ffffffffffffffffffffffffffffffffffffffff1673ffffffffffffffffffffffffffffffffffffffff16815260200190815260200160002060000160009054906101000a900460ff16612728576040517f08c379a000000000000000000000000000000000000000000000000000000000815260040161271f90619134565b60405180910390fd5b60003385600360405160200161274093929190618a9f565b60405160208183030381529060405280519060200120905060006127108560045461276b919061959d565b61277591906193fb565b905060006127838787615304565b905060006127918686615304565b9050600582116127d6576040517f08c379a00000000000000000000000000000000000000000000000000000000081526004016127cd906190d4565b60405180910390fd5b60058111612819576040517f08c379a000000000000000000000000000000000000000000000000000000000815260040161281090618e54565b60405180910390fd5b61282233616596565b600d548160e060003373ffffffffffffffffffffffffffffffffffffffff1673ffffffffffffffffffffffffffffffffffffffff1681526020019081526020016000206002015461287391906193a5565b6127108460e060003373ffffffffffffffffffffffffffffffffffffffff1673ffffffffffffffffffffffffffffffffffffffff168152602001908152602001600020600101546128c491906193a5565b6128ce919061959d565b6128d891906193fb565b10612918576040517f08c379a000000000000000000000000000000000000000000000000000000000815260040161290f90618f74565b60405180910390fd5b60e1600085815260200190815260200160002060010160149054906101000a900460ff1615612973578660e16000868152602001908152602001600020600201600082825461296791906193a5565b92505081905550612a92565b60405180608001604052803373ffffffffffffffffffffffffffffffffffffffff1681526020018973ffffffffffffffffffffffffffffffffffffffff1681526020016001151581526020018881525060e1600086815260200190815260200160002060008201518160000160006101000a81548173ffffffffffffffffffffffffffffffffffffffff021916908373ffffffffffffffffffffffffffffffffffffffff16021790555060208201518160010160006101000a81548173ffffffffffffffffffffffffffffffffffffffff021916908373ffffffffffffffffffffffffffffffffffffffff16021790555060408201518160010160146101000a81548160ff021916908315150217905550606082015181600201559050505b60e2600085815260200190815260200160002060010160149054906101000a900460ff1615612aed578460e260008681526020019081526020016000206002016000828254612ae191906193a5565b92505081905550612c0c565b60405180608001604052803373ffffffffffffffffffffffffffffffffffffffff1681526020018973ffffffffffffffffffffffffffffffffffffffff1681526020016001151581526020018681525060e2600086815260200190815260200160002060008201518160000160006101000a81548173ffffffffffffffffffffffffffffffffffffffff021916908373ffffffffffffffffffffffffffffffffffffffff16021790555060208201518160010160006101000a81548173ffffffffffffffffffffffffffffffffffffffff021916908373ffffffffffffffffffffffffffffffffffffffff16021790555060408201518160010160146101000a81548160ff021916908315150217905550606082015181600201559050505b8160e060003373ffffffffffffffffffffffffffffffffffffffff1673ffffffffffffffffffffffffffffffffffffffff1681526020019081526020016000206001016000828254612c5e91906193a5565b925050819055508060e060003373ffffffffffffffffffffffffffffffffffffffff1673ffffffffffffffffffffffffffffffffffffffff1681526020019081526020016000206002016000828254612cb791906193a5565b92505081905550868873ffffffffffffffffffffffffffffffffffffffff166370a08231306040518263ffffffff1660e01b8152600401612cf89190618ad8565b60206040518083038186803b158015612d1057600080fd5b505afa158015612d24573d6000803e3d6000fd5b505050506040513d601f19601f82011682018060405250810190612d48919061831e565b1015612daa57612d6488600289612d5f919061959d565b616d33565b6000612da5576040517f08c379a0000000000000000000000000000000000000000000000000000000008152600401612d9c90618fd4565b60405180910390fd5b612f50565b8573ffffffffffffffffffffffffffffffffffffffff166323b872dd3330886040518463ffffffff1660e01b8152600401612de793929190618b38565b602060405180830381600087803b158015612e0157600080fd5b505af1158015612e15573d6000803e3d6000fd5b505050506040513d601f19601f82011682018060405250810190612e3991906181a5565b612e78576040517f08c379a0000000000000000000000000000000000000000000000000000000008152600401612e6f90618f94565b60405180910390fd5b8773ffffffffffffffffffffffffffffffffffffffff1663a9059cbb33858a612ea191906195f7565b6040518363ffffffff1660e01b8152600401612ebe929190618ca1565b602060405180830381600087803b158015612ed857600080fd5b505af1158015612eec573d6000803e3d6000fd5b505050506040513d601f19601f82011682018060405250810190612f1091906181a5565b612f4f576040517f08c379a0000000000000000000000000000000000000000000000000000000008152600401612f4690618f94565b60405180910390fd5b5b612fbc876001600060e460008d73ffffffffffffffffffffffffffffffffffffffff1673ffffffffffffffffffffffffffffffffffffffff16815260200190815260200160002060000160019054906101000a90046fffffffffffffffffffffffffffffffff16616d7b565b613028856000600160e460008b73ffffffffffffffffffffffffffffffffffffffff1673ffffffffffffffffffffffffffffffffffffffff16815260200190815260200160002060000160019054906101000a90046fffffffffffffffffffffffffffffffff16616d7b565b7f6b08916d029d07a60616d74a789588507159d3fbfda90bde20ec8c42d9e199d0336040516130579190618ad8565b60405180910390a17fb17a27eee810f4b7ae91846bb18a6e11c3d1b2a438ee836c7e2e5790a367502a60e060003373ffffffffffffffffffffffffffffffffffffffff1673ffffffffffffffffffffffffffffffffffffffff1681526020019081526020016000206040516130cc9190619154565b60405180910390a17f6e47dcdd359b6cd69456f0f97d394bd4540a2e7c4adc1b9da076859df53756c785896040516131059291906191a5565b60405180910390a17f84d6fc9f7244aba67b2ad2bfc67d8d3ed92b7e4932a482888bac6a4595019a15878960405161313e9291906191a5565b60405180910390a161314f3361699c565b505050506001808190555050505050565b60e860009054906101000a900463ffffffff1681565b600060607f0000000000000000000000000000000000000000000000000000000000000000600b54426131a991906195f7565b1191509250929050565b6131bb6151ff565b6131c56000616f70565b565b60165481565b60e560003373ffffffffffffffffffffffffffffffffffffffff1673ffffffffffffffffffffffffffffffffffffffff16815260200190815260200160002060009054906101000a900460ff16613259576040517f08c379a000000000000000000000000000000000000000000000000000000000815260040161325090618e34565b60405180910390fd5b60e460008273ffffffffffffffffffffffffffffffffffffffff1673ffffffffffffffffffffffffffffffffffffffff16815260200190815260200160002060000160009054906101000a900460ff16156132e9576040517f08c379a00000000000000000000000000000000000000000000000000000000081526004016132e0906190f4565b60405180910390fd5b600160e660008282829054906101000a90046fffffffffffffffffffffffffffffffff16613317919061935f565b92506101000a8154816fffffffffffffffffffffffffffffffff02191690836fffffffffffffffffffffffffffffffff1602179055506040518061010001604052808273ffffffffffffffffffffffffffffffffffffffff168152602001600115158152602001600081526020016000815260200142815260200142815260200160008152602001600081525060e3600060e660009054906101000a90046fffffffffffffffffffffffffffffffff166fffffffffffffffffffffffffffffffff166fffffffffffffffffffffffffffffffff16815260200190815260200160002060008201518160000160006101000a81548173ffffffffffffffffffffffffffffffffffffffff021916908373ffffffffffffffffffffffffffffffffffffffff16021790555060208201518160000160146101000a81548160ff02191690831515021790555060408201518160010155606082015181600201556080820151816003015560a0820151816004015560c0820151816005015560e08201518160060155905050604051806040016040528060011515815260200160e660009054906101000a90046fffffffffffffffffffffffffffffffff166fffffffffffffffffffffffffffffffff1681525060e460008373ffffffffffffffffffffffffffffffffffffffff1673ffffffffffffffffffffffffffffffffffffffff16815260200190815260200160002060008201518160000160006101000a81548160ff02191690831515021790555060208201518160000160016101000a8154816fffffffffffffffffffffffffffffffff02191690836fffffffffffffffffffffffffffffffff16021790555090505050565b60115481565b60e560003373ffffffffffffffffffffffffffffffffffffffff1673ffffffffffffffffffffffffffffffffffffffff16815260200190815260200160002060009054906101000a900460ff1661361d576040517f08c379a000000000000000000000000000000000000000000000000000000000815260040161361490618e34565b60405180910390fd5b60005b60e660009054906101000a90046fffffffffffffffffffffffffffffffff166fffffffffffffffffffffffffffffffff16816fffffffffffffffffffffffffffffffff161161379a576136cd8260e36000846fffffffffffffffffffffffffffffffff166fffffffffffffffffffffffffffffffff16815260200190815260200160002060000160009054906101000a900473ffffffffffffffffffffffffffffffffffffffff16615c44565b50600d5460e060008473ffffffffffffffffffffffffffffffffffffffff1673ffffffffffffffffffffffffffffffffffffffff16815260200190815260200160002060030154106137875761377d8260e36000846fffffffffffffffffffffffffffffffff166fffffffffffffffffffffffffffffffff16815260200190815260200160002060000160009054906101000a900473ffffffffffffffffffffffffffffffffffffffff16616231565b61378682616596565b5b808061379290619896565b915050613620565b507fb17a27eee810f4b7ae91846bb18a6e11c3d1b2a438ee836c7e2e5790a367502a60e060008373ffffffffffffffffffffffffffffffffffffffff1673ffffffffffffffffffffffffffffffffffffffff1681526020019081526020016000206040516138089190619154565b60405180910390a16138198161699c565b50565b6000604a60009054906101000a900473ffffffffffffffffffffffffffffffffffffffff16905090565b60135481565b60e060003373ffffffffffffffffffffffffffffffffffffffff1673ffffffffffffffffffffffffffffffffffffffff16815260200190815260200160002060000160149054906101000a900460ff166138db576040517f08c379a00000000000000000000000000000000000000000000000000000000081526004016138d290619074565b60405180910390fd5b60e060003373ffffffffffffffffffffffffffffffffffffffff1673ffffffffffffffffffffffffffffffffffffffff16815260200190815260200160002060040160009054906101000a900460ff161561396b576040517f08c379a000000000000000000000000000000000000000000000000000000000815260040161396290619054565b60405180910390fd5b600260015414156139b1576040517f08c379a00000000000000000000000000000000000000000000000000000000081526004016139a8906190b4565b60405180910390fd5b600260018190555060e460008373ffffffffffffffffffffffffffffffffffffffff1673ffffffffffffffffffffffffffffffffffffffff16815260200190815260200160002060000160009054906101000a900460ff16613a48576040517f08c379a0000000000000000000000000000000000000000000000000000000008152600401613a3f90619114565b60405180910390fd5b600033836003604051602001613a6093929190618a9f565b6040516020818303038152906040528051906020012090506000613a848484615304565b905060058111613ac9576040517f08c379a0000000000000000000000000000000000000000000000000000000008152600401613ac090618eb4565b60405180910390fd5b613ad233616596565b8260e160008481526020019081526020016000206002016000828254613af891906195f7565b925050819055508060e060003373ffffffffffffffffffffffffffffffffffffffff1673ffffffffffffffffffffffffffffffffffffffff1681526020019081526020016000206001016000828254613b5191906195f7565b92505081905550613bc4836001600060e460008973ffffffffffffffffffffffffffffffffffffffff1673ffffffffffffffffffffffffffffffffffffffff16815260200190815260200160002060000160019054906101000a90046fffffffffffffffffffffffffffffffff16616d7b565b8373ffffffffffffffffffffffffffffffffffffffff166323b872dd3330866040518463ffffffff1660e01b8152600401613c0193929190618b38565b602060405180830381600087803b158015613c1b57600080fd5b505af1158015613c2f573d6000803e3d6000fd5b505050506040513d601f19601f82011682018060405250810190613c5391906181a5565b613c92576040517f08c379a0000000000000000000000000000000000000000000000000000000008152600401613c8990618f94565b60405180910390fd5b7f6b08916d029d07a60616d74a789588507159d3fbfda90bde20ec8c42d9e199d033604051613cc19190618ad8565b60405180910390a17fb17a27eee810f4b7ae91846bb18a6e11c3d1b2a438ee836c7e2e5790a367502a60e060003373ffffffffffffffffffffffffffffffffffffffff1673ffffffffffffffffffffffffffffffffffffffff168152602001908152602001600020604051613d369190619154565b60405180910390a17fd1014e978dfee75c13d9e11073f136d3fb4cb3562d1d557024029d907932161f8385604051613d6f9291906191a5565b60405180910390a1613d803361699c565b5050600180819055505050565b7f000000000000000000000000000000000000000000000000000000000000000081565b60125481565b60e660009054906101000a90046fffffffffffffffffffffffffffffffff1681565b60045481565b607c60009054906101000a900473ffffffffffffffffffffffffffffffffffffffff1681565b600c5481565b60e95481565b60008060e36000846fffffffffffffffffffffffffffffffff166fffffffffffffffffffffffffffffffff16815260200190815260200160002060010154613e9260e36000866fffffffffffffffffffffffffffffffff166fffffffffffffffffffffffffffffffff16815260200190815260200160002060020154613fd3565b613e9c91906193fb565b9050600f548111613eca5780601054613eb5919061959d565b601254613ec291906193a5565b915050613f10565b600f5481613ed891906195f7565b601154613ee5919061959d565b600f54601054613ef5919061959d565b601254613f0291906193a5565b613f0c91906193a5565b9150505b919050565b600f5481565b60e06020528060005260406000206000915090508060000160009054906101000a900473ffffffffffffffffffffffffffffffffffffffff16908060000160149054906101000a900460ff16908060010154908060020154908060030154908060040160009054906101000a900460ff16908060050154905087565b613f9f6151ff565b613fa98282617036565b5050565b600860009054906101000a900473ffffffffffffffffffffffffffffffffffffffff1681565b600061271082613fe3919061959d565b9050919050565b600560009054906101000a900473ffffffffffffffffffffffffffffffffffffffff1681565b600060e060003373ffffffffffffffffffffffffffffffffffffffff1673ffffffffffffffffffffffffffffffffffffffff16815260200190815260200160002060000160149054906101000a900460ff166140a1576040517f08c379a000000000000000000000000000000000000000000000000000000000815260040161409890618f14565b60405180910390fd5b60e060003373ffffffffffffffffffffffffffffffffffffffff1673ffffffffffffffffffffffffffffffffffffffff16815260200190815260200160002060030154905090565b600a5481565b60e060003373ffffffffffffffffffffffffffffffffffffffff1673ffffffffffffffffffffffffffffffffffffffff16815260200190815260200160002060000160149054906101000a900460ff1661417e576040517f08c379a000000000000000000000000000000000000000000000000000000000815260040161417590619074565b60405180910390fd5b60e060003373ffffffffffffffffffffffffffffffffffffffff1673ffffffffffffffffffffffffffffffffffffffff16815260200190815260200160002060040160009054906101000a900460ff161561420e576040517f08c379a000000000000000000000000000000000000000000000000000000000815260040161420590619054565b60405180910390fd5b60026001541415614254576040517f08c379a000000000000000000000000000000000000000000000000000000000815260040161424b906190b4565b60405180910390fd5b600260018190555060e460008573ffffffffffffffffffffffffffffffffffffffff1673ffffffffffffffffffffffffffffffffffffffff16815260200190815260200160002060000160009054906101000a900460ff166142eb576040517f08c379a00000000000000000000000000000000000000000000000000000000081526004016142e290619114565b60405180910390fd5b60003385600360405160200161430393929190618a9f565b60405160208183030381529060405280519060200120905060006127108560045461432e919061959d565b61433891906193fb565b9050600061435187838861434c91906195f7565b615304565b9050600a8111614396576040517f08c379a000000000000000000000000000000000000000000000000000000000815260040161438d906190d4565b60405180910390fd5b8560e2600085815260200190815260200160002060020154116143ee576040517f08c379a00000000000000000000000000000000000000000000000000000000081526004016143e590619034565b60405180910390fd5b6143f733616596565b600d548160e060003373ffffffffffffffffffffffffffffffffffffffff1673ffffffffffffffffffffffffffffffffffffffff1681526020019081526020016000206002015461444891906195f7565b61271060e060003373ffffffffffffffffffffffffffffffffffffffff1673ffffffffffffffffffffffffffffffffffffffff16815260200190815260200160002060010154614498919061959d565b6144a291906193fb565b106144e2576040517f08c379a00000000000000000000000000000000000000000000000000000000081526004016144d990618f74565b60405180910390fd5b8560e26000858152602001908152602001600020600201600082825461450891906195f7565b925050819055508060e060003373ffffffffffffffffffffffffffffffffffffffff1673ffffffffffffffffffffffffffffffffffffffff168152602001908152602001600020600201600082825461456191906195f7565b92505081905550858773ffffffffffffffffffffffffffffffffffffffff166370a08231306040518263ffffffff1660e01b81526004016145a29190618ad8565b60206040518083038186803b1580156145ba57600080fd5b505afa1580156145ce573d6000803e3d6000fd5b505050506040513d601f19601f820116820180604052508101906145f2919061831e565b10156146545761460e87600288614609919061959d565b616d33565b600061464f576040517f08c379a000000000000000000000000000000000000000000000000000000000815260040161464690618fd4565b60405180910390fd5b6147db565b84600c541461470057600560009054906101000a900473ffffffffffffffffffffffffffffffffffffffff1673ffffffffffffffffffffffffffffffffffffffff1663241dc2df8886858a6146a991906195f7565b896040518563ffffffff1660e01b81526004016146c99493929190618b6f565b600060405180830381600087803b1580156146e357600080fd5b505af11580156146f7573d6000803e3d6000fd5b505050506147da565b8673ffffffffffffffffffffffffffffffffffffffff166323b872dd3086858a61472a91906195f7565b6040518463ffffffff1660e01b815260040161474893929190618b38565b602060405180830381600087803b15801561476257600080fd5b505af1158015614776573d6000803e3d6000fd5b505050506040513d601f19601f8201168201806040525081019061479a91906181a5565b6147d9576040517f08c379a00000000000000000000000000000000000000000000000000000000081526004016147d090618f94565b60405180910390fd5b5b5b6148468660008060e460008c73ffffffffffffffffffffffffffffffffffffffff1673ffffffffffffffffffffffffffffffffffffffff16815260200190815260200160002060000160019054906101000a90046fffffffffffffffffffffffffffffffff16616d7b565b7f6b08916d029d07a60616d74a789588507159d3fbfda90bde20ec8c42d9e199d0336040516148759190618ad8565b60405180910390a17fb17a27eee810f4b7ae91846bb18a6e11c3d1b2a438ee836c7e2e5790a367502a60e060003373ffffffffffffffffffffffffffffffffffffffff1673ffffffffffffffffffffffffffffffffffffffff1681526020019081526020016000206040516148ea9190619154565b60405180910390a17f8c7cdad0d12a8db3e23561b42da6f10c8137914c97beff202213a410e1f520a386886040516149239291906191a5565b60405180910390a16149343361699c565b5050506001808190555050505050565b61494c6151ff565b61495581617092565b50565b6149606151ff565b600073ffffffffffffffffffffffffffffffffffffffff168173ffffffffffffffffffffffffffffffffffffffff1614156149d0576040517f08c379a00000000000000000000000000000000000000000000000000000000081526004016149c790618e94565b60405180910390fd5b6149d981616f70565b50565b600d5481565b600760009054906101000a900473ffffffffffffffffffffffffffffffffffffffff1681565b60e560003373ffffffffffffffffffffffffffffffffffffffff1673ffffffffffffffffffffffffffffffffffffffff16815260200190815260200160002060009054906101000a900460ff16614a94576040517f08c379a0000000000000000000000000000000000000000000000000000000008152600401614a8b90618e34565b60405180910390fd5b60005b60e780549050811015614b2a57600060e78281548110614ae0577f4e487b7100000000000000000000000000000000000000000000000000000000600052603260045260246000fd5b9060005260206000200160009054906101000a900473ffffffffffffffffffffffffffffffffffffffff169050614b1681613591565b508080614b22906198cf565b915050614a97565b50565b60e060003373ffffffffffffffffffffffffffffffffffffffff1673ffffffffffffffffffffffffffffffffffffffff16815260200190815260200160002060000160149054906101000a900460ff16614d28576040518060e001604052803373ffffffffffffffffffffffffffffffffffffffff1681526020016001151581526020016000815260200160008152602001600081526020016000151581526020014281525060e060003373ffffffffffffffffffffffffffffffffffffffff1673ffffffffffffffffffffffffffffffffffffffff16815260200190815260200160002060008201518160000160006101000a81548173ffffffffffffffffffffffffffffffffffffffff021916908373ffffffffffffffffffffffffffffffffffffffff16021790555060208201518160000160146101000a81548160ff02191690831515021790555060408201518160010155606082015181600201556080820151816003015560a08201518160040160006101000a81548160ff02191690831515021790555060c0820151816005015590505060e7339080600181540180825580915050600190039060005260206000200160009091909190916101000a81548173ffffffffffffffffffffffffffffffffffffffff021916908373ffffffffffffffffffffffffffffffffffffffff1602179055505b60e060003373ffffffffffffffffffffffffffffffffffffffff1673ffffffffffffffffffffffffffffffffffffffff16815260200190815260200160002060000160149054906101000a900460ff16614db7576040517f08c379a0000000000000000000000000000000000000000000000000000000008152600401614dae90619074565b60405180910390fd5b60e060003373ffffffffffffffffffffffffffffffffffffffff1673ffffffffffffffffffffffffffffffffffffffff16815260200190815260200160002060040160009054906101000a900460ff1615614e47576040517f08c379a0000000000000000000000000000000000000000000000000000000008152600401614e3e90619054565b60405180910390fd5b60026001541415614e8d576040517f08c379a0000000000000000000000000000000000000000000000000000000008152600401614e84906190b4565b60405180910390fd5b6002600181905550614e9f8282615673565b600180819055505050565b600080831115614ecb5782614ebe83613fd3565b614ec891906193fb565b90505b60e060008573ffffffffffffffffffffffffffffffffffffffff1673ffffffffffffffffffffffffffffffffffffffff16815260200190815260200160002060000160149054906101000a900460ff1615615055578260e060008673ffffffffffffffffffffffffffffffffffffffff1673ffffffffffffffffffffffffffffffffffffffff168152602001908152602001600020600201819055508160e060008673ffffffffffffffffffffffffffffffffffffffff1673ffffffffffffffffffffffffffffffffffffffff168152602001908152602001600020600101819055508060e060008673ffffffffffffffffffffffffffffffffffffffff1673ffffffffffffffffffffffffffffffffffffffff16815260200190815260200160002060030181905550600060e060008673ffffffffffffffffffffffffffffffffffffffff1673ffffffffffffffffffffffffffffffffffffffff16815260200190815260200160002060040160006101000a81548160ff0219169083151502179055506151f9565b60e7849080600181540180825580915050600190039060005260206000200160009091909190916101000a81548173ffffffffffffffffffffffffffffffffffffffff021916908373ffffffffffffffffffffffffffffffffffffffff1602179055506040518060e001604052808573ffffffffffffffffffffffffffffffffffffffff1681526020016001151581526020018381526020018481526020018281526020016000151581526020014281525060e060008673ffffffffffffffffffffffffffffffffffffffff1673ffffffffffffffffffffffffffffffffffffffff16815260200190815260200160002060008201518160000160006101000a81548173ffffffffffffffffffffffffffffffffffffffff021916908373ffffffffffffffffffffffffffffffffffffffff16021790555060208201518160000160146101000a81548160ff02191690831515021790555060408201518160010155606082015181600201556080820151816003015560a08201518160040160006101000a81548160ff02191690831515021790555060c082015181600501559050505b50505050565b615207617119565b73ffffffffffffffffffffffffffffffffffffffff1661522561381c565b73ffffffffffffffffffffffffffffffffffffffff161461527b576040517f08c379a000000000000000000000000000000000000000000000000000000000815260040161527290618f54565b60405180910390fd5b565b80607c60006101000a81548173ffffffffffffffffffffffffffffffffffffffff021916908373ffffffffffffffffffffffffffffffffffffffff1602179055508073ffffffffffffffffffffffffffffffffffffffff167f7c10de8878ed89478ff01b9cd8c11a5271ea8ac91d46f662e6aea7e3adf5b11f60405160405180910390a250565b6000806153b2600660009054906101000a900473ffffffffffffffffffffffffffffffffffffffff1673ffffffffffffffffffffffffffffffffffffffff1663313ce5676040518163ffffffff1660e01b815260040160206040518083038186803b15801561537257600080fd5b505afa158015615386573d6000803e3d6000fd5b505050506040513d601f19601f820116820180604052508101906153aa919061843c565b60ff1661565d565b9050600660009054906101000a900473ffffffffffffffffffffffffffffffffffffffff1673ffffffffffffffffffffffffffffffffffffffff168473ffffffffffffffffffffffffffffffffffffffff16146154585761541284617121565b905060008111615457576040517f08c379a000000000000000000000000000000000000000000000000000000000815260040161544e90618f34565b60405180910390fd5b5b615503600660009054906101000a900473ffffffffffffffffffffffffffffffffffffffff1673ffffffffffffffffffffffffffffffffffffffff1663313ce5676040518163ffffffff1660e01b815260040160206040518083038186803b1580156154c357600080fd5b505afa1580156154d7573d6000803e3d6000fd5b505050506040513d601f19601f820116820180604052508101906154fb919061843c565b60ff1661565d565b61558c8573ffffffffffffffffffffffffffffffffffffffff1663313ce5676040518163ffffffff1660e01b815260040160206040518083038186803b15801561554c57600080fd5b505afa158015615560573d6000803e3d6000fd5b505050506040513d601f19601f82011682018060405250810190615584919061843c565b60ff1661565d565b848360008054906101000a900473ffffffffffffffffffffffffffffffffffffffff1673ffffffffffffffffffffffffffffffffffffffff166350d25bcd6040518163ffffffff1660e01b815260040160206040518083038186803b1580156155f457600080fd5b505afa158015615608573d6000803e3d6000fd5b505050506040513d601f19601f8201168201806040525081019061562c9190618265565b615636919061959d565b615640919061959d565b61564a91906193fb565b615654919061959d565b91505092915050565b600081600a61566c919061947f565b9050919050565b60e460008373ffffffffffffffffffffffffffffffffffffffff1673ffffffffffffffffffffffffffffffffffffffff16815260200190815260200160002060000160009054906101000a900460ff16615702576040517f08c379a00000000000000000000000000000000000000000000000000000000081526004016156f990619114565b60405180910390fd5b60003383600360405160200161571a93929190618a9f565b604051602081830303815290604052805190602001209050600061271083600454615745919061959d565b61574f91906193fb565b9050600061576885838661576391906195f7565b615304565b9050600581116157ad576040517f08c379a00000000000000000000000000000000000000000000000000000000081526004016157a490619094565b60405180910390fd5b6157b633616596565b60e2600084815260200190815260200160002060010160149054906101000a900460ff161561581c5781846157eb91906195f7565b60e26000858152602001908152602001600020600201600082825461581091906193a5565b92505081905550615946565b60405180608001604052803373ffffffffffffffffffffffffffffffffffffffff1681526020018673ffffffffffffffffffffffffffffffffffffffff168152602001600115158152602001838661587491906195f7565b81525060e2600085815260200190815260200160002060008201518160000160006101000a81548173ffffffffffffffffffffffffffffffffffffffff021916908373ffffffffffffffffffffffffffffffffffffffff16021790555060208201518160010160006101000a81548173ffffffffffffffffffffffffffffffffffffffff021916908373ffffffffffffffffffffffffffffffffffffffff16021790555060408201518160010160146101000a81548160ff021916908315150217905550606082015181600201559050505b8060e060003373ffffffffffffffffffffffffffffffffffffffff1673ffffffffffffffffffffffffffffffffffffffff168152602001908152602001600020600201600082825461599891906193a5565b92505081905550615a1682856159ae91906195f7565b6000600160e460008a73ffffffffffffffffffffffffffffffffffffffff1673ffffffffffffffffffffffffffffffffffffffff16815260200190815260200160002060000160019054906101000a90046fffffffffffffffffffffffffffffffff16616d7b565b8473ffffffffffffffffffffffffffffffffffffffff166323b872dd3330876040518463ffffffff1660e01b8152600401615a5393929190618b38565b602060405180830381600087803b158015615a6d57600080fd5b505af1158015615a81573d6000803e3d6000fd5b505050506040513d601f19601f82011682018060405250810190615aa591906181a5565b615ae4576040517f08c379a0000000000000000000000000000000000000000000000000000000008152600401615adb90618ed4565b60405180910390fd5b7f6b08916d029d07a60616d74a789588507159d3fbfda90bde20ec8c42d9e199d033604051615b139190618ad8565b60405180910390a17fb17a27eee810f4b7ae91846bb18a6e11c3d1b2a438ee836c7e2e5790a367502a60e060003373ffffffffffffffffffffffffffffffffffffffff1673ffffffffffffffffffffffffffffffffffffffff168152602001908152602001600020604051615b889190619154565b60405180910390a17f6e47dcdd359b6cd69456f0f97d394bd4540a2e7c4adc1b9da076859df53756c78486604051615bc19291906191a5565b60405180910390a1615bd23361699c565b5050505050565b60005b60e660009054906101000a90046fffffffffffffffffffffffffffffffff166fffffffffffffffffffffffffffffffff16816fffffffffffffffffffffffffffffffff1611615c4157615c2e8161776e565b8080615c3990619896565b915050615bdc565b50565b60008062278d0090508060e060008673ffffffffffffffffffffffffffffffffffffffff1673ffffffffffffffffffffffffffffffffffffffff1681526020019081526020016000206005015442615c9c91906195f7565b1015615cac57600091505061622b565b600084846003604051602001615cc493929190618a9f565b604051602081830303815290604052805190602001209050600082615d4660e460008873ffffffffffffffffffffffffffffffffffffffff1673ffffffffffffffffffffffffffffffffffffffff16815260200190815260200160002060000160019054906101000a90046fffffffffffffffffffffffffffffffff166115d9565b615d50919061959d565b9050600083615dbc60e460008973ffffffffffffffffffffffffffffffffffffffff1673ffffffffffffffffffffffffffffffffffffffff16815260200190815260200160002060000160019054906101000a90046fffffffffffffffffffffffffffffffff16613e11565b615dc6919061959d565b9050600061271060e060008a73ffffffffffffffffffffffffffffffffffffffff1673ffffffffffffffffffffffffffffffffffffffff168152602001908152602001600020600201546002600454615e1f919061959d565b615e29919061959d565b615e3391906193fb565b905061271060e260008681526020019081526020016000206002015483615e5a919061959d565b615e6491906193fb565b60e260008681526020019081526020016000206002016000828254615e8991906193a5565b9250508190555061271060e160008681526020019081526020016000206002015484615eb5919061959d565b615ebf91906193fb565b60e160008681526020019081526020016000206002016000828254615ee491906193a5565b925050819055508061271060e060008b73ffffffffffffffffffffffffffffffffffffffff1673ffffffffffffffffffffffffffffffffffffffff1681526020019081526020016000206002015484615f3d919061959d565b615f4791906193fb565b615f5191906195f7565b60e060008a73ffffffffffffffffffffffffffffffffffffffff1673ffffffffffffffffffffffffffffffffffffffff1681526020019081526020016000206002016000828254615fa291906193a5565b9250508190555061271060e060008a73ffffffffffffffffffffffffffffffffffffffff1673ffffffffffffffffffffffffffffffffffffffff1681526020019081526020016000206001015484615ffa919061959d565b61600491906193fb565b60e060008a73ffffffffffffffffffffffffffffffffffffffff1673ffffffffffffffffffffffffffffffffffffffff168152602001908152602001600020600101600082825461605591906193a5565b925050819055504260e060008a73ffffffffffffffffffffffffffffffffffffffff1673ffffffffffffffffffffffffffffffffffffffff16815260200190815260200160002060050181905550600060e060008a73ffffffffffffffffffffffffffffffffffffffff1673ffffffffffffffffffffffffffffffffffffffff1681526020019081526020016000206002015411156161d15760e060008973ffffffffffffffffffffffffffffffffffffffff1673ffffffffffffffffffffffffffffffffffffffff1681526020019081526020016000206002015461617c60e060008b73ffffffffffffffffffffffffffffffffffffffff1673ffffffffffffffffffffffffffffffffffffffff16815260200190815260200160002060010154613fd3565b61618691906193fb565b60e060008a73ffffffffffffffffffffffffffffffffffffffff1673ffffffffffffffffffffffffffffffffffffffff1681526020019081526020016000206003018190555061621a565b600060e060008a73ffffffffffffffffffffffffffffffffffffffff1673ffffffffffffffffffffffffffffffffffffffff168152602001908152602001600020600301819055505b42600e819055506001955050505050505b92915050565b600d5460e060008473ffffffffffffffffffffffffffffffffffffffff1673ffffffffffffffffffffffffffffffffffffffff16815260200190815260200160002060030154106162b7576040517f08c379a00000000000000000000000000000000000000000000000000000000081526004016162ae90618fb4565b60405180910390fd5b6162c082616596565b6000828260036040516020016162d893929190618a9f565b60405160208183030381529060405280519060200120905060006163128360e2600085815260200190815260200160002060020154615304565b90506000612710826005600454616329919061959d565b616333919061959d565b61633d91906193fb565b9050600060e2600085815260200190815260200160002060020181905550808261636791906195f7565b60e060008773ffffffffffffffffffffffffffffffffffffffff1673ffffffffffffffffffffffffffffffffffffffff16815260200190815260200160002060020160008282546163b891906195f7565b925050819055508160e060008773ffffffffffffffffffffffffffffffffffffffff1673ffffffffffffffffffffffffffffffffffffffff168152602001908152602001600020600101600082825461641191906195f7565b92505081905550600060e060008773ffffffffffffffffffffffffffffffffffffffff1673ffffffffffffffffffffffffffffffffffffffff1681526020019081526020016000206002015411156165465760e060008673ffffffffffffffffffffffffffffffffffffffff1673ffffffffffffffffffffffffffffffffffffffff168152602001908152602001600020600201546164f160e060008873ffffffffffffffffffffffffffffffffffffffff1673ffffffffffffffffffffffffffffffffffffffff16815260200190815260200160002060010154613fd3565b6164fb91906193fb565b60e060008773ffffffffffffffffffffffffffffffffffffffff1673ffffffffffffffffffffffffffffffffffffffff1681526020019081526020016000206003018190555061658f565b600060e060008773ffffffffffffffffffffffffffffffffffffffff1673ffffffffffffffffffffffffffffffffffffffff168152602001908152602001600020600301819055505b5050505050565b60008060005b60e660009054906101000a90046fffffffffffffffffffffffffffffffff166fffffffffffffffffffffffffffffffff16816fffffffffffffffffffffffffffffffff16116167915760008460e36000846fffffffffffffffffffffffffffffffff166fffffffffffffffffffffffffffffffff16815260200190815260200160002060000160009054906101000a900473ffffffffffffffffffffffffffffffffffffffff16600360405160200161665793929190618a9f565b6040516020818303038152906040528051906020012090506166e960e36000846fffffffffffffffffffffffffffffffff166fffffffffffffffffffffffffffffffff16815260200190815260200160002060000160009054906101000a900473ffffffffffffffffffffffffffffffffffffffff1660e2600084815260200190815260200160002060020154615304565b846166f491906193a5565b935061677060e36000846fffffffffffffffffffffffffffffffff166fffffffffffffffffffffffffffffffff16815260200190815260200160002060000160009054906101000a900473ffffffffffffffffffffffffffffffffffffffff1660e1600084815260200190815260200160002060020154615304565b8361677b91906193a5565b925050808061678990619896565b91505061659c565b508060e060008573ffffffffffffffffffffffffffffffffffffffff1673ffffffffffffffffffffffffffffffffffffffff168152602001908152602001600020600101819055508160e060008573ffffffffffffffffffffffffffffffffffffffff1673ffffffffffffffffffffffffffffffffffffffff16815260200190815260200160002060020181905550600060e060008573ffffffffffffffffffffffffffffffffffffffff1673ffffffffffffffffffffffffffffffffffffffff16815260200190815260200160002060020154111561694e5760e060008473ffffffffffffffffffffffffffffffffffffffff1673ffffffffffffffffffffffffffffffffffffffff168152602001908152602001600020600201546168f960e060008673ffffffffffffffffffffffffffffffffffffffff1673ffffffffffffffffffffffffffffffffffffffff16815260200190815260200160002060010154613fd3565b61690391906193fb565b60e060008573ffffffffffffffffffffffffffffffffffffffff1673ffffffffffffffffffffffffffffffffffffffff16815260200190815260200160002060030181905550616997565b600060e060008573ffffffffffffffffffffffffffffffffffffffff1673ffffffffffffffffffffffffffffffffffffffff168152602001908152602001600020600301819055505b505050565b600160e060008373ffffffffffffffffffffffffffffffffffffffff1673ffffffffffffffffffffffffffffffffffffffff16815260200190815260200160002060040160006101000a81548160ff0219169083151502179055507f0de0801d2bf2b41440c4e647f8fe85feef86cbb220c0e339715f888dc2b89c6181604051616a269190618ad8565b60405180910390a1616af560e860009054906101000a900463ffffffff168260e060008573ffffffffffffffffffffffffffffffffffffffff1673ffffffffffffffffffffffffffffffffffffffff1681526020019081526020016000206002015460e060008673ffffffffffffffffffffffffffffffffffffffff1673ffffffffffffffffffffffffffffffffffffffff16815260200190815260200160002060010154604051602001616add93929190618d01565b6040516020818303038152906040526298968061784d565b50565b6000607c60009054906101000a900473ffffffffffffffffffffffffffffffffffffffff1673ffffffffffffffffffffffffffffffffffffffff1663282f51eb836040518263ffffffff1660e01b8152600401616b559190618ad8565b60206040518083038186803b158015616b6d57600080fd5b505afa158015616b81573d6000803e3d6000fd5b505050506040513d601f19601f82011682018060405250810190616ba591906181a5565b9050919050565b60008160ae60008563ffffffff1663ffffffff1681526020019081526020016000205414905092915050565b60e860009054906101000a900463ffffffff1663ffffffff168363ffffffff161415616d2e57600080600083806020019051810190616c179190617f43565b92509250925060e060008473ffffffffffffffffffffffffffffffffffffffff1673ffffffffffffffffffffffffffffffffffffffff16815260200190815260200160002060000160149054906101000a900460ff1615616c8257616c7d838383614eaa565b616d2a565b816002616c8f919061959d565b8373ffffffffffffffffffffffffffffffffffffffff166370a08231306040518263ffffffff1660e01b8152600401616cc89190618ad8565b60206040518083038186803b158015616ce057600080fd5b505afa158015616cf4573d6000803e3d6000fd5b505050506040513d601f19601f82011682018060405250810190616d18919061831e565b1115616d2957616d28838361790b565b5b5b5050505b505050565b616d7760e860009054906101000a900463ffffffff1683836000604051602001616d5f93929190618cca565b6040516020818303038152906040526298968061784d565b5050565b8215616e73578115616ddd578360e36000836fffffffffffffffffffffffffffffffff166fffffffffffffffffffffffffffffffff1681526020019081526020016000206002016000828254616dd191906195f7565b92505081905550616e2f565b8360e36000836fffffffffffffffffffffffffffffffff166fffffffffffffffffffffffffffffffff1681526020019081526020016000206002016000828254616e2791906193a5565b925050819055505b4260e36000836fffffffffffffffffffffffffffffffff166fffffffffffffffffffffffffffffffff16815260200190815260200160002060030181905550616f61565b8115616ecf578360e36000836fffffffffffffffffffffffffffffffff166fffffffffffffffffffffffffffffffff1681526020019081526020016000206001016000828254616ec391906193a5565b92505081905550616f21565b8360e36000836fffffffffffffffffffffffffffffffff166fffffffffffffffffffffffffffffffff1681526020019081526020016000206001016000828254616f1991906195f7565b925050819055505b4260e36000836fffffffffffffffffffffffffffffffff166fffffffffffffffffffffffffffffffff168152602001908152602001600020600401819055505b616f6a8161776e565b50505050565b6000604a60009054906101000a900473ffffffffffffffffffffffffffffffffffffffff16905081604a60006101000a81548173ffffffffffffffffffffffffffffffffffffffff021916908373ffffffffffffffffffffffffffffffffffffffff1602179055508173ffffffffffffffffffffffffffffffffffffffff168173ffffffffffffffffffffffffffffffffffffffff167f8be0079c531659141344cd1fd0a4f28419497f9722a3daafe3b4186f6b6457e060405160405180910390a35050565b8060ae60008463ffffffff1663ffffffff16815260200190815260200160002081905550808263ffffffff167f97fd51fef1f80c854cbd0150c248e8b2ac4ecdc97cc05e742b5f61c9f4dc645860405160405180910390a35050565b80607d60006101000a81548173ffffffffffffffffffffffffffffffffffffffff021916908373ffffffffffffffffffffffffffffffffffffffff1602179055508073ffffffffffffffffffffffffffffffffffffffff167fb87f5a0bface22cde699143559fb99f990ae54eea236995fc54178af91af859f60405160405180910390a250565b600033905090565b6000806171ad8373ffffffffffffffffffffffffffffffffffffffff1663313ce5676040518163ffffffff1660e01b815260040160206040518083038186803b15801561716d57600080fd5b505afa158015617181573d6000803e3d6000fd5b505050506040513d601f19601f820116820180604052508101906171a5919061843c565b60ff1661565d565b90506000600267ffffffffffffffff8111156171f2577f4e487b7100000000000000000000000000000000000000000000000000000000600052604160045260246000fd5b6040519080825280602002602001820160405280156172205781602001602082028036833780820191505090505b509050838160008151811061725e577f4e487b7100000000000000000000000000000000000000000000000000000000600052603260045260246000fd5b602002602001019073ffffffffffffffffffffffffffffffffffffffff16908173ffffffffffffffffffffffffffffffffffffffff1681525050600660009054906101000a900473ffffffffffffffffffffffffffffffffffffffff16816001815181106172f5577f4e487b7100000000000000000000000000000000000000000000000000000000600052603260045260246000fd5b602002602001019073ffffffffffffffffffffffffffffffffffffffff16908173ffffffffffffffffffffffffffffffffffffffff1681525050600061736a836001617341919061959d565b600260009054906101000a900473ffffffffffffffffffffffffffffffffffffffff16846179c6565b9050600081111561738057809350505050617769565b600367ffffffffffffffff8111156173c1577f4e487b7100000000000000000000000000000000000000000000000000000000600052604160045260246000fd5b6040519080825280602002602001820160405280156173ef5781602001602082028036833780820191505090505b509150848260008151811061742d577f4e487b7100000000000000000000000000000000000000000000000000000000600052603260045260246000fd5b602002602001019073ffffffffffffffffffffffffffffffffffffffff16908173ffffffffffffffffffffffffffffffffffffffff1681525050600760009054906101000a900473ffffffffffffffffffffffffffffffffffffffff16826001815181106174c4577f4e487b7100000000000000000000000000000000000000000000000000000000600052603260045260246000fd5b602002602001019073ffffffffffffffffffffffffffffffffffffffff16908173ffffffffffffffffffffffffffffffffffffffff1681525050600660009054906101000a900473ffffffffffffffffffffffffffffffffffffffff168260028151811061755b577f4e487b7100000000000000000000000000000000000000000000000000000000600052603260045260246000fd5b602002602001019073ffffffffffffffffffffffffffffffffffffffff16908173ffffffffffffffffffffffffffffffffffffffff16815250506175ce8360016175a5919061959d565b600260009054906101000a900473ffffffffffffffffffffffffffffffffffffffff16846179c6565b905060008111156175e457809350505050617769565b600860009054906101000a900473ffffffffffffffffffffffffffffffffffffffff1682600181518110617641577f4e487b7100000000000000000000000000000000000000000000000000000000600052603260045260246000fd5b602002602001019073ffffffffffffffffffffffffffffffffffffffff16908173ffffffffffffffffffffffffffffffffffffffff1681525050600660009054906101000a900473ffffffffffffffffffffffffffffffffffffffff16826002815181106176d8577f4e487b7100000000000000000000000000000000000000000000000000000000600052603260045260246000fd5b602002602001019073ffffffffffffffffffffffffffffffffffffffff16908173ffffffffffffffffffffffffffffffffffffffff168152505061774b836001617722919061959d565b600260009054906101000a900473ffffffffffffffffffffffffffffffffffffffff16846179c6565b9050600081111561776157809350505050617769565b600093505050505b919050565b60e36000826fffffffffffffffffffffffffffffffff166fffffffffffffffffffffffffffffffff16815260200190815260200160002060000160149054906101000a900460ff161561784a576177c4816115d9565b60e36000836fffffffffffffffffffffffffffffffff166fffffffffffffffffffffffffffffffff1681526020019081526020016000206005018190555061780b81613e11565b60e36000836fffffffffffffffffffffffffffffffff166fffffffffffffffffffffffffffffffff168152602001908152602001600020600601819055505b50565b6000617857617ab3565b90506000617866828686617b5a565b9050600083111561790457607d60009054906101000a900473ffffffffffffffffffffffffffffffffffffffff1673ffffffffffffffffffffffffffffffffffffffff1663a5703c8e848484896040518563ffffffff1660e01b81526004016178d193929190618d38565b6000604051808303818588803b1580156178ea57600080fd5b505af11580156178fe573d6000803e3d6000fd5b50505050505b5050505050565b600560009054906101000a900473ffffffffffffffffffffffffffffffffffffffff1673ffffffffffffffffffffffffffffffffffffffff1663241dc2df8360e860049054906101000a900473ffffffffffffffffffffffffffffffffffffffff168460e9546040518563ffffffff1660e01b81526004016179909493929190618b6f565b600060405180830381600087803b1580156179aa57600080fd5b505af11580156179be573d6000803e3d6000fd5b505050505050565b6000808373ffffffffffffffffffffffffffffffffffffffff1663d06ca61f86856040518363ffffffff1660e01b8152600401617a049291906191ce565b60006040518083038186803b158015617a1c57600080fd5b505afa158015617a30573d6000803e3d6000fd5b505050506040513d6000823e3d601f19601f82011682018060405250810190617a599190618164565b90508060018251617a6a91906195f7565b81518110617aa1577f4e487b7100000000000000000000000000000000000000000000000000000000600052603260045260246000fd5b60200260200101519150509392505050565b6000607c60009054906101000a900473ffffffffffffffffffffffffffffffffffffffff1673ffffffffffffffffffffffffffffffffffffffff1663ce11e6ab6040518163ffffffff1660e01b815260040160206040518083038186803b158015617b1d57600080fd5b505afa158015617b31573d6000803e3d6000fd5b505050506040513d601f19601f82011682018060405250810190617b55919061823c565b905090565b600080617b6684617c01565b90508473ffffffffffffffffffffffffffffffffffffffff1663fa31de018583866040518463ffffffff1660e01b8152600401617ba593929190619219565b602060405180830381600087803b158015617bbf57600080fd5b505af1158015617bd3573d6000803e3d6000fd5b505050506040513d601f19601f82011682018060405250810190617bf7919061831e565b9150509392505050565b600060ae60008363ffffffff1663ffffffff1681526020019081526020016000205490506000801b811415617c6b576040517f08c379a0000000000000000000000000000000000000000000000000000000008152600401617c6290619014565b60405180910390fd5b919050565b6000617c83617c7e8461927c565b619257565b90508083825260208201905082856020860282011115617ca257600080fd5b60005b85811015617cd25781617cb88882617ec6565b845260208401935060208301925050600181019050617ca5565b5050509392505050565b6000617cef617cea846192a8565b619257565b905082815260208101848484011115617d0757600080fd5b617d12848285619789565b509392505050565b600081359050617d2981619fba565b92915050565b600081519050617d3e81619fd1565b92915050565b60008083601f840112617d5657600080fd5b8235905067ffffffffffffffff811115617d6f57600080fd5b602083019150836060820283011115617d8757600080fd5b9250929050565b600082601f830112617d9f57600080fd5b8151617daf848260208601617c70565b91505092915050565b600081519050617dc781619fe8565b92915050565b600081359050617ddc81619fff565b92915050565b60008083601f840112617df457600080fd5b8235905067ffffffffffffffff811115617e0d57600080fd5b602083019150836001820283011115617e2557600080fd5b9250929050565b600082601f830112617e3d57600080fd5b8135617e4d848260208601617cdc565b91505092915050565b600081519050617e658161a016565b92915050565b600081519050617e7a8161a02d565b92915050565b60006101008284031215617e9357600080fd5b81905092915050565b600081359050617eab8161a044565b92915050565b600081359050617ec08161a05b565b92915050565b600081519050617ed58161a05b565b92915050565b600081359050617eea8161a072565b92915050565b600081359050617eff8161a089565b92915050565b600081519050617f148161a0a0565b92915050565b600060208284031215617f2c57600080fd5b6000617f3a84828501617d1a565b91505092915050565b600080600060608486031215617f5857600080fd5b6000617f6686828701617d2f565b9350506020617f7786828701617ec6565b9250506040617f8886828701617ec6565b9150509250925092565b60008060408385031215617fa557600080fd5b6000617fb385828601617d1a565b9250506020617fc485828601617d1a565b9150509250929050565b60008060408385031215617fe157600080fd5b6000617fef85828601617d1a565b925050602061800085828601617eb1565b9150509250929050565b6000806000806080858703121561802057600080fd5b600061802e87828801617d1a565b945050602061803f87828801617eb1565b935050604061805087828801617d1a565b925050606061806187828801617eb1565b91505092959194509250565b60008060006060848603121561808257600080fd5b600061809086828701617d1a565b93505060206180a186828701617eb1565b92505060406180b286828701617eb1565b9150509250925092565b600080600080608085870312156180d257600080fd5b60006180e087828801617d1a565b94505060206180f187828801617eb1565b935050604061810287828801617eb1565b925050606061811387828801617d1a565b91505092959194509250565b6000806020838503121561813257600080fd5b600083013567ffffffffffffffff81111561814c57600080fd5b61815885828601617d44565b92509250509250929050565b60006020828403121561817657600080fd5b600082015167ffffffffffffffff81111561819057600080fd5b61819c84828501617d8e565b91505092915050565b6000602082840312156181b757600080fd5b60006181c584828501617db8565b91505092915050565b6000602082840312156181e057600080fd5b60006181ee84828501617dcd565b91505092915050565b6000806020838503121561820a57600080fd5b600083013567ffffffffffffffff81111561822457600080fd5b61823085828601617de2565b92509250509250929050565b60006020828403121561824e57600080fd5b600061825c84828501617e56565b91505092915050565b60006020828403121561827757600080fd5b600061828584828501617e6b565b91505092915050565b60008061012083850312156182a257600080fd5b60006182b085828601617e80565b9250506101006182c285828601617d1a565b9150509250929050565b6000602082840312156182de57600080fd5b60006182ec84828501617e9c565b91505092915050565b60006020828403121561830757600080fd5b600061831584828501617eb1565b91505092915050565b60006020828403121561833057600080fd5b600061833e84828501617ec6565b91505092915050565b60006020828403121561835957600080fd5b600061836784828501617edb565b91505092915050565b6000806040838503121561838357600080fd5b600061839185828601617edb565b92505060206183a285828601617dcd565b9150509250929050565b6000806000606084860312156183c157600080fd5b60006183cf86828701617edb565b93505060206183e086828701617dcd565b925050604084013567ffffffffffffffff8111156183fd57600080fd5b61840986828701617e2c565b9150509250925092565b60006020828403121561842557600080fd5b600061843384828501617ef0565b91505092915050565b60006020828403121561844e57600080fd5b600061845c84828501617f05565b91505092915050565b6000618471838361847d565b60208301905092915050565b61848681619662565b82525050565b61849581619662565b82525050565b6184ac6184a782619662565b619918565b82525050565b60006184bd826192fe565b6184c78185619321565b93506184d2836192d9565b8060005b838110156185035781516184ea8882618465565b97506184f583619314565b9250506001810190506184d6565b5085935050505092915050565b61851981619686565b82525050565b61852881619686565b82525050565b61853781619692565b82525050565b600061854882619309565b6185528185619332565b9350618562818560208601619798565b61856b816199f8565b840191505092915050565b61857f8161972f565b82525050565b61858e81619753565b82525050565b61859d81619777565b82525050565b600081546185b0816197cb565b6185ba8186619354565b945060018216600081146185d557600181146185e657618619565b60ff19831686528186019350618619565b6185ef856192e9565b60005b83811015618611578154818901526001820191506020810190506185f2565b838801955050505b50505092915050565b600061862f602f83619343565b915061863a82619a3d565b604082019050919050565b6000618652601483619343565b915061865d82619a8c565b602082019050919050565b6000618675603883619343565b915061868082619ab5565b604082019050919050565b6000618698602683619343565b91506186a382619b04565b604082019050919050565b60006186bb601483619343565b91506186c682619b53565b602082019050919050565b60006186de602283619343565b91506186e982619b7c565b604082019050919050565b6000618701601983619343565b915061870c82619bcb565b602082019050919050565b6000618724600e83619343565b915061872f82619bf4565b602082019050919050565b6000618747602683619343565b915061875282619c1d565b604082019050919050565b600061876a602083619343565b915061877582619c6c565b602082019050919050565b600061878d602283619343565b915061879882619c95565b604082019050919050565b60006187b0601383619343565b91506187bb82619ce4565b602082019050919050565b60006187d3601883619343565b91506187de82619d0d565b602082019050919050565b60006187f6604683619343565b915061880182619d36565b606082019050919050565b6000618819600683619343565b915061882482619dab565b602082019050919050565b600061883c600783619343565b915061884782619dd4565b602082019050919050565b600061885f601483619343565b915061886a82619dfd565b602082019050919050565b6000618882602f83619343565b915061888d82619e26565b604082019050919050565b60006188a5601783619343565b91506188b082619e75565b602082019050919050565b60006188c8603783619343565b91506188d382619e9e565b604082019050919050565b60006188eb601f83619343565b91506188f682619eed565b602082019050919050565b600061890e600e83619343565b915061891982619f16565b602082019050919050565b6000618931601883619343565b915061893c82619f3f565b602082019050919050565b6000618954601483619343565b915061895f82619f68565b602082019050919050565b6000618977601883619343565b915061898282619f91565b602082019050919050565b60e0820160008083015490506189a2816197fd565b6189af600086018261847d565b506189b98161984b565b6189c66020860182618510565b50600183015490506189d781619831565b6189e46040860182618a72565b50600283015490506189f581619831565b618a026060860182618a72565b5060038301549050618a1381619831565b618a206080860182618a72565b5060048301549050618a3181619817565b618a3e60a0860182618510565b5060058301549050618a4f81619831565b618a5c60c0860182618a72565b5050505050565b618a6c816196b8565b82525050565b618a7b816196f4565b82525050565b618a8a816196f4565b82525050565b618a99816196fe565b82525050565b6000618aab828661849b565b601482019150618abb828561849b565b601482019150618acb82846185a3565b9150819050949350505050565b6000602082019050618aed600083018461848c565b92915050565b6000608082019050618b08600083018761848c565b618b15602083018661848c565b618b22604083018561851f565b618b2f6060830184618a81565b95945050505050565b6000606082019050618b4d600083018661848c565b618b5a602083018561848c565b618b676040830184618a81565b949350505050565b6000608082019050618b84600083018761848c565b618b91602083018661848c565b618b9e6040830185618a81565b618bab6060830184618a81565b95945050505050565b600060e082019050618bc9600083018a61848c565b618bd6602083018961851f565b618be36040830188618a81565b618bf06060830187618a81565b618bfd6080830186618a81565b618c0a60a083018561851f565b618c1760c0830184618a81565b98975050505050505050565b600061010082019050618c39600083018b61848c565b618c46602083018a61851f565b618c536040830189618a81565b618c606060830188618a81565b618c6d6080830187618a81565b618c7a60a0830186618a81565b618c8760c0830185618a81565b618c9460e0830184618a81565b9998505050505050505050565b6000604082019050618cb6600083018561848c565b618cc36020830184618a81565b9392505050565b6000606082019050618cdf600083018661848c565b618cec6020830185618a81565b618cf96040830184618594565b949350505050565b6000606082019050618d16600083018661848c565b618d236020830185618a81565b618d306040830184618a81565b949350505050565b6000606082019050618d4d600083018661848c565b618d5a6020830185618a81565b618d676040830184618a90565b949350505050565b6000602082019050618d84600083018461851f565b92915050565b6000604082019050618d9f600083018561851f565b8181036020830152618db1818461853d565b90509392505050565b6000604082019050618dcf600083018561851f565b618ddc6020830184618a63565b9392505050565b6000602082019050618df8600083018461852e565b92915050565b6000602082019050618e136000830184618576565b92915050565b6000602082019050618e2e6000830184618585565b92915050565b60006020820190508181036000830152618e4d81618622565b9050919050565b60006020820190508181036000830152618e6d81618645565b9050919050565b60006020820190508181036000830152618e8d81618668565b9050919050565b60006020820190508181036000830152618ead8161868b565b9050919050565b60006020820190508181036000830152618ecd816186ae565b9050919050565b60006020820190508181036000830152618eed816186d1565b9050919050565b60006020820190508181036000830152618f0d816186f4565b9050919050565b60006020820190508181036000830152618f2d81618717565b9050919050565b60006020820190508181036000830152618f4d8161873a565b9050919050565b60006020820190508181036000830152618f6d8161875d565b9050919050565b60006020820190508181036000830152618f8d81618780565b9050919050565b60006020820190508181036000830152618fad816187a3565b9050919050565b60006020820190508181036000830152618fcd816187c6565b9050919050565b60006020820190508181036000830152618fed816187e9565b9050919050565b6000602082019050818103600083015261900d8161880c565b9050919050565b6000602082019050818103600083015261902d8161882f565b9050919050565b6000602082019050818103600083015261904d81618852565b9050919050565b6000602082019050818103600083015261906d81618875565b9050919050565b6000602082019050818103600083015261908d81618898565b9050919050565b600060208201905081810360008301526190ad816188bb565b9050919050565b600060208201905081810360008301526190cd816188de565b9050919050565b600060208201905081810360008301526190ed81618901565b9050919050565b6000602082019050818103600083015261910d81618924565b9050919050565b6000602082019050818103600083015261912d81618947565b9050919050565b6000602082019050818103600083015261914d8161896a565b9050919050565b600060e082019050619169600083018461898d565b92915050565b60006020820190506191846000830184618a63565b92915050565b600060208201905061919f6000830184618a81565b92915050565b60006040820190506191ba6000830185618a81565b6191c7602083018461848c565b9392505050565b60006040820190506191e36000830185618a81565b81810360208301526191f581846184b2565b90509392505050565b60006020820190506192136000830184618a90565b92915050565b600060608201905061922e6000830186618a90565b61923b602083018561852e565b818103604083015261924d818461853d565b9050949350505050565b6000619261619272565b905061926d8282619865565b919050565b6000604051905090565b600067ffffffffffffffff821115619297576192966199c9565b5b602082029050602081019050919050565b600067ffffffffffffffff8211156192c3576192c26199c9565b5b6192cc826199f8565b9050602081019050919050565b6000819050602082019050919050565b60008190508160005260206000209050919050565b600081519050919050565b600081519050919050565b6000602082019050919050565b600082825260208201905092915050565b600082825260208201905092915050565b600082825260208201905092915050565b600081905092915050565b600061936a826196b8565b9150619375836196b8565b9250826fffffffffffffffffffffffffffffffff0382111561939a5761939961993c565b5b828201905092915050565b60006193b0826196f4565b91506193bb836196f4565b9250827fffffffffffffffffffffffffffffffffffffffffffffffffffffffffffffffff038211156193f0576193ef61993c565b5b828201905092915050565b6000619406826196f4565b9150619411836196f4565b9250826194215761942061996b565b5b828204905092915050565b6000808291508390505b6001851115619476578086048111156194525761945161993c565b5b60018516156194615780820291505b808102905061946f85619a30565b9450619436565b94509492505050565b600061948a826196f4565b9150619495836196f4565b92506194c27fffffffffffffffffffffffffffffffffffffffffffffffffffffffffffffffff84846194ca565b905092915050565b6000826194da5760019050619596565b816194e85760009050619596565b81600181146194fe576002811461950857619537565b6001915050619596565b60ff84111561951a5761951961993c565b5b8360020a9150848211156195315761953061993c565b5b50619596565b5060208310610133831016604e8410600b841016171561956c5782820a9050838111156195675761956661993c565b5b619596565b619579848484600161942c565b925090508184048111156195905761958f61993c565b5b81810290505b9392505050565b60006195a8826196f4565b91506195b3836196f4565b9250817fffffffffffffffffffffffffffffffffffffffffffffffffffffffffffffffff04831182151516156195ec576195eb61993c565b5b828202905092915050565b6000619602826196f4565b915061960d836196f4565b9250828210156196205761961f61993c565b5b828203905092915050565b600073ffffffffffffffffffffffffffffffffffffffff82169050919050565b600060ff82169050919050565b6000819050919050565b600061966d826196d4565b9050919050565b600061967f826196d4565b9050919050565b60008115159050919050565b6000819050919050565b60006196a782619662565b9050919050565b6000819050919050565b60006fffffffffffffffffffffffffffffffff82169050919050565b600073ffffffffffffffffffffffffffffffffffffffff82169050919050565b6000819050919050565b600063ffffffff82169050919050565b600067ffffffffffffffff82169050919050565b600060ff82169050919050565b600061973a82619741565b9050919050565b600061974c826196d4565b9050919050565b600061975e82619765565b9050919050565b6000619770826196d4565b9050919050565b600061978282619722565b9050919050565b82818337600083830152505050565b60005b838110156197b657808201518184015260208101905061979b565b838111156197c5576000848401525b50505050565b600060028204905060018216806197e357607f821691505b602082108114156197f7576197f661999a565b5b50919050565b600061981061980b83619a16565b61962b565b9050919050565b600061982a61982583619a16565b61964b565b9050919050565b600061984461983f83619a16565b619658565b9050919050565b600061985e61985983619a23565b61964b565b9050919050565b61986e826199f8565b810181811067ffffffffffffffff8211171561988d5761988c6199c9565b5b80604052505050565b60006198a1826196b8565b91506fffffffffffffffffffffffffffffffff8214156198c4576198c361993c565b5b600182019050919050565b60006198da826196f4565b91507fffffffffffffffffffffffffffffffffffffffffffffffffffffffffffffffff82141561990d5761990c61993c565b5b600182019050919050565b60006199238261992a565b9050919050565b600061993582619a09565b9050919050565b7f4e487b7100000000000000000000000000000000000000000000000000000000600052601160045260246000fd5b7f4e487b7100000000000000000000000000000000000000000000000000000000600052601260045260246000fd5b7f4e487b7100000000000000000000000000000000000000000000000000000000600052602260045260246000fd5b7f4e487b7100000000000000000000000000000000000000000000000000000000600052604160045260246000fd5b6000601f19601f8301169050919050565b60008160601b9050919050565b60008160001c9050919050565b60008160a01c9050919050565b60008160011c9050919050565b7f55736572206e6f7420616c6c6f77656420666f7220746869732066756e63746960008201527f6f6e2c2041646d696e206f6e6c792e0000000000000000000000000000000000602082015250565b7f496e70757420616d6f756e7420746f6f206c6f77000000000000000000000000600082015250565b7f416d6f756e7420746f6f206c6f7720746f20726570617920776974682c20696e60008201527f707574206174206c656173742035205553442076616c75650000000000000000602082015250565b7f4f776e61626c653a206e6577206f776e657220697320746865207a65726f206160008201527f6464726573730000000000000000000000000000000000000000000000000000602082015250565b7f496e70757420416d6f756e7420746f6f206c6f77000000000000000000000000600082015250565b7f7472616e7366657246726f6d206661696c65642066726f6d20636f6e7472616360008201527f742e000000000000000000000000000000000000000000000000000000000000602082015250565b7f4e6f7420656e6f756768207374617274206e657720706f6f6c00000000000000600082015250565b7f55736572206e6f7420666f756e64000000000000000000000000000000000000600082015250565b7f7072696365206f7574707574206d75737420626520677265617465722074686160008201527f6e207a65726f0000000000000000000000000000000000000000000000000000602082015250565b7f4f776e61626c653a2063616c6c6572206973206e6f7420746865206f776e6572600082015250565b7f416d6f756e742067726561746572207468616e20616c6c6f77656420616d6f7560008201527f6e74000000000000000000000000000000000000000000000000000000000000602082015250565b7f7472616e7366657246726f6d206661696c656400000000000000000000000000600082015250565b7f4c69717569646174696f6e206e6f7420706f737369626c650000000000000000600082015250565b7f4e6f7420656e6f756768204c697175696469747920746f2073656e6420746f2060008201527f757365722c20706c656173652074727920616761696e20616674657220736f6d60208201527f6574696d652e0000000000000000000000000000000000000000000000000000604082015250565b7f21696e626f780000000000000000000000000000000000000000000000000000600082015250565b7f21726f7574657200000000000000000000000000000000000000000000000000600082015250565b7f4e6f7420656e6f756768206c6971756964697479000000000000000000000000600082015250565b7f4e6f7420616c6c6f77656420746f20706572666f726d2061207472616e73616360008201527f74696f6e207269676874206e6f772e0000000000000000000000000000000000602082015250565b7f7573657220646f6573206e6f7420657869737420796574000000000000000000600082015250565b7f416d6f756e7420746f6f206c6f772c20656e74657220616e20696e707574206760008201527f726561746572207468616e2035205553442076616c7565000000000000000000602082015250565b7f5265656e7472616e637947756172643a207265656e7472616e742063616c6c00600082015250565b7f416d6f756e7420746f6f206c6f77000000000000000000000000000000000000600082015250565b7f6d61726b657420616c726561647920617661696c61626c650000000000000000600082015250565b7f6d61726b6574206e6f7420617661696c61626c65000000000000000000000000600082015250565b7f436f6c206d61726b6574206e6f7420617661696c61626c650000000000000000600082015250565b619fc381619662565b8114619fce57600080fd5b50565b619fda81619674565b8114619fe557600080fd5b50565b619ff181619686565b8114619ffc57600080fd5b50565b61a00881619692565b811461a01357600080fd5b50565b61a01f8161969c565b811461a02a57600080fd5b50565b61a036816196ae565b811461a04157600080fd5b50565b61a04d816196b8565b811461a05857600080fd5b50565b61a064816196f4565b811461a06f57600080fd5b50565b61a07b816196fe565b811461a08657600080fd5b50565b61a0928161970e565b811461a09d57600080fd5b50565b61a0a981619722565b811461a0b457600080fd5b5056fea264697066735822122060b4a1f98fbe1b4188f73f652bf46b059f0fbb5d79734b4b6c3458f903c5463564736f6c63430008040033",
  "linkReferences": {},
  "deployedLinkReferences": {}
}