{
  "_format": "hh-sol-artifact-1",
  "contractName": "HeadenFinanceChild",
  "sourceName": "contracts/headenFinanceChild.sol",
  "abi": [
    {
      "inputs": [
        {
          "internalType": "uint256",
          "name": "_interval",
          "type": "uint256"
        },
        {
          "internalType": "address",
          "name": "_multichainRouter",
          "type": "address"
        },
        {
          "internalType": "string",
          "name": "_hashSalt",
          "type": "string"
        },
        {
          "internalType": "address",
          "name": "_swapRouter",
          "type": "address"
        },
        {
          "internalType": "address",
          "name": "_usdc",
          "type": "address"
        },
        {
          "internalType": "address",
          "name": "_dai",
          "type": "address"
        },
        {
          "internalType": "address",
          "name": "_matic",
          "type": "address"
        },
        {
          "components": [
            {
              "internalType": "address",
              "name": "_abacusManager",
              "type": "address"
            },
            {
              "internalType": "address",
              "name": "_abacusPay",
              "type": "address"
            }
          ],
          "internalType": "struct HeadenFinanceChild.Abacus",
          "name": "_abacus",
          "type": "tuple"
        },
        {
          "components": [
            {
              "internalType": "address",
              "name": "_parentAddress",
              "type": "address"
            },
            {
              "internalType": "uint256",
              "name": "_parentChainId",
              "type": "uint256"
            },
            {
              "internalType": "uint32",
              "name": "_hlParentId",
              "type": "uint32"
            }
          ],
          "internalType": "struct HeadenFinanceChild.Parent",
          "name": "_parent",
          "type": "tuple"
        },
        {
          "internalType": "uint256",
          "name": "_chainId",
          "type": "uint256"
        },
        {
          "components": [
            {
              "internalType": "uint64",
              "name": "supplyKink",
              "type": "uint64"
            },
            {
              "internalType": "uint64",
              "name": "supplyPerYearInterestRateSlopeLow",
              "type": "uint64"
            },
            {
              "internalType": "uint64",
              "name": "supplyPerYearInterestRateSlopeHigh",
              "type": "uint64"
            },
            {
              "internalType": "uint64",
              "name": "supplyPerYearInterestRateBase",
              "type": "uint64"
            },
            {
              "internalType": "uint64",
              "name": "borrowKink",
              "type": "uint64"
            },
            {
              "internalType": "uint64",
              "name": "borrowPerYearInterestRateSlopeLow",
              "type": "uint64"
            },
            {
              "internalType": "uint64",
              "name": "borrowPerYearInterestRateSlopeHigh",
              "type": "uint64"
            },
            {
              "internalType": "uint64",
              "name": "borrowPerYearInterestRateBase",
              "type": "uint64"
            }
          ],
          "internalType": "struct HeadenUtils.Configuration",
          "name": "config",
          "type": "tuple"
        }
      ],
      "stateMutability": "nonpayable",
      "type": "constructor"
    },
    {
      "anonymous": false,
      "inputs": [
        {
          "indexed": true,
          "internalType": "address",
          "name": "abacusConnectionManager",
          "type": "address"
        }
      ],
      "name": "AbacusConnectionManagerSet",
      "type": "event"
    },
    {
      "anonymous": false,
      "inputs": [],
      "name": "Borrowed",
      "type": "event"
    },
    {
      "anonymous": false,
      "inputs": [
        {
          "indexed": false,
          "internalType": "address",
          "name": "user",
          "type": "address"
        }
      ],
      "name": "ChainSyncRequired",
      "type": "event"
    },
    {
      "anonymous": false,
      "inputs": [],
      "name": "FullChainSyncRequired",
      "type": "event"
    },
    {
      "anonymous": false,
      "inputs": [
        {
          "indexed": false,
          "internalType": "uint8",
          "name": "version",
          "type": "uint8"
        }
      ],
      "name": "Initialized",
      "type": "event"
    },
    {
      "anonymous": false,
      "inputs": [
        {
          "indexed": true,
          "internalType": "address",
          "name": "interchainGasPaymaster",
          "type": "address"
        }
      ],
      "name": "InterchainGasPaymasterSet",
      "type": "event"
    },
    {
      "anonymous": false,
      "inputs": [
        {
          "indexed": false,
          "internalType": "address",
          "name": "user",
          "type": "address"
        }
      ],
      "name": "LockUntilUpdateFromParentChain",
      "type": "event"
    },
    {
      "anonymous": false,
      "inputs": [
        {
          "indexed": true,
          "internalType": "address",
          "name": "previousOwner",
          "type": "address"
        },
        {
          "indexed": true,
          "internalType": "address",
          "name": "newOwner",
          "type": "address"
        }
      ],
      "name": "OwnershipTransferred",
      "type": "event"
    },
    {
      "anonymous": false,
      "inputs": [
        {
          "indexed": true,
          "internalType": "uint32",
          "name": "domain",
          "type": "uint32"
        },
        {
          "indexed": true,
          "internalType": "bytes32",
          "name": "router",
          "type": "bytes32"
        }
      ],
      "name": "RemoteRouterEnrolled",
      "type": "event"
    },
    {
      "anonymous": false,
      "inputs": [],
      "name": "Staked",
      "type": "event"
    },
    {
      "anonymous": false,
      "inputs": [
        {
          "components": [
            {
              "internalType": "address",
              "name": "userAddress",
              "type": "address"
            },
            {
              "internalType": "bool",
              "name": "available",
              "type": "bool"
            },
            {
              "internalType": "uint256",
              "name": "totalAmountBorrowed",
              "type": "uint256"
            },
            {
              "internalType": "uint256",
              "name": "totalAmountStaked",
              "type": "uint256"
            },
            {
              "internalType": "uint256",
              "name": "ltv",
              "type": "uint256"
            },
            {
              "internalType": "bool",
              "name": "lock",
              "type": "bool"
            },
            {
              "internalType": "uint256",
              "name": "lastAPRUpdated",
              "type": "uint256"
            }
          ],
          "indexed": false,
          "internalType": "struct HeadenFinanceChild.User",
          "name": "user",
          "type": "tuple"
        }
      ],
      "name": "UpdateParentChain",
      "type": "event"
    },
    {
      "anonymous": false,
      "inputs": [],
      "name": "Withdrawn",
      "type": "event"
    },
    {
      "inputs": [],
      "name": "SECONDS_PER_YEAR",
      "outputs": [
        {
          "internalType": "uint256",
          "name": "",
          "type": "uint256"
        }
      ],
      "stateMutability": "view",
      "type": "function"
    },
    {
      "inputs": [],
      "name": "abacusConnectionManager",
      "outputs": [
        {
          "internalType": "contract IAbacusConnectionManager",
          "name": "",
          "type": "address"
        }
      ],
      "stateMutability": "view",
      "type": "function"
    },
    {
      "inputs": [
        {
          "internalType": "uint128",
          "name": "_id",
          "type": "uint128"
        }
      ],
      "name": "borrowInterestRates",
      "outputs": [
        {
          "internalType": "uint256",
          "name": "",
          "type": "uint256"
        }
      ],
      "stateMutability": "view",
      "type": "function"
    },
    {
      "inputs": [],
      "name": "borrowKink",
      "outputs": [
        {
          "internalType": "uint256",
          "name": "",
          "type": "uint256"
        }
      ],
      "stateMutability": "view",
      "type": "function"
    },
    {
      "inputs": [],
      "name": "borrowPerSecondInterestRateBase",
      "outputs": [
        {
          "internalType": "uint256",
          "name": "",
          "type": "uint256"
        }
      ],
      "stateMutability": "view",
      "type": "function"
    },
    {
      "inputs": [],
      "name": "borrowPerSecondInterestRateSlopeHigh",
      "outputs": [
        {
          "internalType": "uint256",
          "name": "",
          "type": "uint256"
        }
      ],
      "stateMutability": "view",
      "type": "function"
    },
    {
      "inputs": [],
      "name": "borrowPerSecondInterestRateSlopeLow",
      "outputs": [
        {
          "internalType": "uint256",
          "name": "",
          "type": "uint256"
        }
      ],
      "stateMutability": "view",
      "type": "function"
    },
    {
      "inputs": [
        {
          "internalType": "address",
          "name": "_tokenAddress",
          "type": "address"
        },
        {
          "internalType": "uint256",
          "name": "_amountToBorrow",
          "type": "uint256"
        }
      ],
      "name": "borrowToken",
      "outputs": [],
      "stateMutability": "nonpayable",
      "type": "function"
    },
    {
      "inputs": [
        {
          "internalType": "address",
          "name": "_tokenAddress",
          "type": "address"
        },
        {
          "internalType": "uint256",
          "name": "_amountToBorrow",
          "type": "uint256"
        },
        {
          "internalType": "address",
          "name": "_collateralAddress",
          "type": "address"
        },
        {
          "internalType": "uint256",
          "name": "_collateralAmount",
          "type": "uint256"
        }
      ],
      "name": "borrowTokenWithCollateral",
      "outputs": [],
      "stateMutability": "nonpayable",
      "type": "function"
    },
    {
      "inputs": [],
      "name": "chainId",
      "outputs": [
        {
          "internalType": "uint256",
          "name": "",
          "type": "uint256"
        }
      ],
      "stateMutability": "view",
      "type": "function"
    },
    {
      "inputs": [
        {
          "internalType": "bytes",
          "name": "",
          "type": "bytes"
        }
      ],
      "name": "checkUpkeep",
      "outputs": [
        {
          "internalType": "bool",
          "name": "upkeepNeeded",
          "type": "bool"
        },
        {
          "internalType": "bytes",
          "name": "",
          "type": "bytes"
        }
      ],
      "stateMutability": "view",
      "type": "function"
    },
    {
      "inputs": [
        {
          "internalType": "address",
          "name": "_token",
          "type": "address"
        }
      ],
      "name": "createMarket",
      "outputs": [],
      "stateMutability": "nonpayable",
      "type": "function"
    },
    {
      "inputs": [
        {
          "internalType": "address",
          "name": "_token",
          "type": "address"
        },
        {
          "internalType": "uint256",
          "name": "amount",
          "type": "uint256"
        }
      ],
      "name": "createMarketPool",
      "outputs": [],
      "stateMutability": "nonpayable",
      "type": "function"
    },
    {
      "inputs": [],
      "name": "dai",
      "outputs": [
        {
          "internalType": "address",
          "name": "",
          "type": "address"
        }
      ],
      "stateMutability": "view",
      "type": "function"
    },
    {
      "inputs": [
        {
          "internalType": "uint32",
          "name": "_domain",
          "type": "uint32"
        },
        {
          "internalType": "bytes32",
          "name": "_router",
          "type": "bytes32"
        }
      ],
      "name": "enrollRemoteRouter",
      "outputs": [],
      "stateMutability": "nonpayable",
      "type": "function"
    },
    {
      "inputs": [],
      "name": "getRiskLevel",
      "outputs": [
        {
          "internalType": "uint256",
          "name": "",
          "type": "uint256"
        }
      ],
      "stateMutability": "view",
      "type": "function"
    },
    {
      "inputs": [
        {
          "internalType": "uint32",
          "name": "_origin",
          "type": "uint32"
        },
        {
          "internalType": "bytes32",
          "name": "_sender",
          "type": "bytes32"
        },
        {
          "internalType": "bytes",
          "name": "_message",
          "type": "bytes"
        }
      ],
      "name": "handle",
      "outputs": [],
      "stateMutability": "nonpayable",
      "type": "function"
    },
    {
      "inputs": [],
      "name": "hlParentId",
      "outputs": [
        {
          "internalType": "uint32",
          "name": "",
          "type": "uint32"
        }
      ],
      "stateMutability": "view",
      "type": "function"
    },
    {
      "inputs": [],
      "name": "interchainGasPaymaster",
      "outputs": [
        {
          "internalType": "contract IInterchainGasPaymaster",
          "name": "",
          "type": "address"
        }
      ],
      "stateMutability": "view",
      "type": "function"
    },
    {
      "inputs": [],
      "name": "interval",
      "outputs": [
        {
          "internalType": "uint256",
          "name": "",
          "type": "uint256"
        }
      ],
      "stateMutability": "view",
      "type": "function"
    },
    {
      "inputs": [],
      "name": "lastAPRUpdate",
      "outputs": [
        {
          "internalType": "uint256",
          "name": "",
          "type": "uint256"
        }
      ],
      "stateMutability": "view",
      "type": "function"
    },
    {
      "inputs": [],
      "name": "lastTimeStamp",
      "outputs": [
        {
          "internalType": "uint256",
          "name": "",
          "type": "uint256"
        }
      ],
      "stateMutability": "view",
      "type": "function"
    },
    {
      "inputs": [
        {
          "internalType": "address",
          "name": "user",
          "type": "address"
        }
      ],
      "name": "lockThisUserUntilParentUpdate",
      "outputs": [],
      "stateMutability": "nonpayable",
      "type": "function"
    },
    {
      "inputs": [
        {
          "internalType": "address",
          "name": "",
          "type": "address"
        }
      ],
      "name": "marketTokens",
      "outputs": [
        {
          "internalType": "bool",
          "name": "available",
          "type": "bool"
        },
        {
          "internalType": "uint128",
          "name": "_id",
          "type": "uint128"
        }
      ],
      "stateMutability": "view",
      "type": "function"
    },
    {
      "inputs": [],
      "name": "market_pools",
      "outputs": [
        {
          "internalType": "uint128",
          "name": "",
          "type": "uint128"
        }
      ],
      "stateMutability": "view",
      "type": "function"
    },
    {
      "inputs": [
        {
          "internalType": "uint128",
          "name": "",
          "type": "uint128"
        }
      ],
      "name": "markets",
      "outputs": [
        {
          "internalType": "address",
          "name": "tokenAddress",
          "type": "address"
        },
        {
          "internalType": "bool",
          "name": "available",
          "type": "bool"
        },
        {
          "internalType": "uint256",
          "name": "amountStaked",
          "type": "uint256"
        },
        {
          "internalType": "uint256",
          "name": "amountBorrowed",
          "type": "uint256"
        },
        {
          "internalType": "uint256",
          "name": "timeLastBorrowed",
          "type": "uint256"
        },
        {
          "internalType": "uint256",
          "name": "timeLastStaked",
          "type": "uint256"
        },
        {
          "internalType": "uint256",
          "name": "borrowRate",
          "type": "uint256"
        },
        {
          "internalType": "uint256",
          "name": "supplyRate",
          "type": "uint256"
        }
      ],
      "stateMutability": "view",
      "type": "function"
    },
    {
      "inputs": [],
      "name": "matic",
      "outputs": [
        {
          "internalType": "address",
          "name": "",
          "type": "address"
        }
      ],
      "stateMutability": "view",
      "type": "function"
    },
    {
      "inputs": [],
      "name": "maxLTV",
      "outputs": [
        {
          "internalType": "uint256",
          "name": "",
          "type": "uint256"
        }
      ],
      "stateMutability": "view",
      "type": "function"
    },
    {
      "inputs": [],
      "name": "multichainRouter",
      "outputs": [
        {
          "internalType": "address",
          "name": "",
          "type": "address"
        }
      ],
      "stateMutability": "view",
      "type": "function"
    },
    {
      "inputs": [],
      "name": "owner",
      "outputs": [
        {
          "internalType": "address",
          "name": "",
          "type": "address"
        }
      ],
      "stateMutability": "view",
      "type": "function"
    },
    {
      "inputs": [],
      "name": "parentAddress",
      "outputs": [
        {
          "internalType": "address",
          "name": "",
          "type": "address"
        }
      ],
      "stateMutability": "view",
      "type": "function"
    },
    {
      "inputs": [],
      "name": "parentChainId",
      "outputs": [
        {
          "internalType": "uint256",
          "name": "",
          "type": "uint256"
        }
      ],
      "stateMutability": "view",
      "type": "function"
    },
    {
      "inputs": [
        {
          "internalType": "uint256",
          "name": "amount",
          "type": "uint256"
        }
      ],
      "name": "per_amount",
      "outputs": [
        {
          "internalType": "uint256",
          "name": "",
          "type": "uint256"
        }
      ],
      "stateMutability": "pure",
      "type": "function"
    },
    {
      "inputs": [
        {
          "internalType": "bytes",
          "name": "",
          "type": "bytes"
        }
      ],
      "name": "performUpkeep",
      "outputs": [],
      "stateMutability": "nonpayable",
      "type": "function"
    },
    {
      "inputs": [
        {
          "components": [
            {
              "internalType": "address",
              "name": "user",
              "type": "address"
            },
            {
              "internalType": "uint256",
              "name": "totalStakes",
              "type": "uint256"
            },
            {
              "internalType": "uint256",
              "name": "totalBorrows",
              "type": "uint256"
            }
          ],
          "internalType": "struct HeadenFinanceChild.FullUpdateData[]",
          "name": "usersData",
          "type": "tuple[]"
        }
      ],
      "name": "receiveFullUpdateFromParentChain",
      "outputs": [],
      "stateMutability": "nonpayable",
      "type": "function"
    },
    {
      "inputs": [
        {
          "internalType": "address",
          "name": "user",
          "type": "address"
        },
        {
          "internalType": "uint256",
          "name": "totalStakes",
          "type": "uint256"
        },
        {
          "internalType": "uint256",
          "name": "totalBorrows",
          "type": "uint256"
        }
      ],
      "name": "receiveUpdateFromParentChain",
      "outputs": [],
      "stateMutability": "nonpayable",
      "type": "function"
    },
    {
      "inputs": [
        {
          "internalType": "address",
          "name": "",
          "type": "address"
        }
      ],
      "name": "relayers",
      "outputs": [
        {
          "internalType": "bool",
          "name": "",
          "type": "bool"
        }
      ],
      "stateMutability": "view",
      "type": "function"
    },
    {
      "inputs": [],
      "name": "renounceOwnership",
      "outputs": [],
      "stateMutability": "nonpayable",
      "type": "function"
    },
    {
      "inputs": [
        {
          "internalType": "address",
          "name": "_tokenAddress",
          "type": "address"
        },
        {
          "internalType": "uint256",
          "name": "_amount",
          "type": "uint256"
        }
      ],
      "name": "repayLoan",
      "outputs": [],
      "stateMutability": "nonpayable",
      "type": "function"
    },
    {
      "inputs": [
        {
          "internalType": "uint32",
          "name": "",
          "type": "uint32"
        }
      ],
      "name": "routers",
      "outputs": [
        {
          "internalType": "bytes32",
          "name": "",
          "type": "bytes32"
        }
      ],
      "stateMutability": "view",
      "type": "function"
    },
    {
      "inputs": [
        {
          "internalType": "address",
          "name": "_abacusConnectionManager",
          "type": "address"
        }
      ],
      "name": "setAbacusConnectionManager",
      "outputs": [],
      "stateMutability": "nonpayable",
      "type": "function"
    },
    {
      "inputs": [
        {
          "internalType": "address",
          "name": "_interchainGasPaymaster",
          "type": "address"
        }
      ],
      "name": "setInterchainGasPaymaster",
      "outputs": [],
      "stateMutability": "nonpayable",
      "type": "function"
    },
    {
      "inputs": [
        {
          "internalType": "address",
          "name": "_tokenAddress",
          "type": "address"
        },
        {
          "internalType": "uint256",
          "name": "_amountToStake",
          "type": "uint256"
        }
      ],
      "name": "stakeToken",
      "outputs": [],
      "stateMutability": "nonpayable",
      "type": "function"
    },
    {
      "inputs": [
        {
          "internalType": "uint128",
          "name": "_id",
          "type": "uint128"
        }
      ],
      "name": "supplyInterestRates",
      "outputs": [
        {
          "internalType": "uint256",
          "name": "",
          "type": "uint256"
        }
      ],
      "stateMutability": "view",
      "type": "function"
    },
    {
      "inputs": [],
      "name": "supplyKink",
      "outputs": [
        {
          "internalType": "uint256",
          "name": "",
          "type": "uint256"
        }
      ],
      "stateMutability": "view",
      "type": "function"
    },
    {
      "inputs": [],
      "name": "supplyPerSecondInterestRateBase",
      "outputs": [
        {
          "internalType": "uint256",
          "name": "",
          "type": "uint256"
        }
      ],
      "stateMutability": "view",
      "type": "function"
    },
    {
      "inputs": [],
      "name": "supplyPerSecondInterestRateSlopeHigh",
      "outputs": [
        {
          "internalType": "uint256",
          "name": "",
          "type": "uint256"
        }
      ],
      "stateMutability": "view",
      "type": "function"
    },
    {
      "inputs": [],
      "name": "supplyPerSecondInterestRateSlopeLow",
      "outputs": [
        {
          "internalType": "uint256",
          "name": "",
          "type": "uint256"
        }
      ],
      "stateMutability": "view",
      "type": "function"
    },
    {
      "inputs": [],
      "name": "tax",
      "outputs": [
        {
          "internalType": "uint256",
          "name": "",
          "type": "uint256"
        }
      ],
      "stateMutability": "view",
      "type": "function"
    },
    {
      "inputs": [
        {
          "internalType": "address",
          "name": "newOwner",
          "type": "address"
        }
      ],
      "name": "transferOwnership",
      "outputs": [],
      "stateMutability": "nonpayable",
      "type": "function"
    },
    {
      "inputs": [
        {
          "components": [
            {
              "internalType": "uint64",
              "name": "supplyKink",
              "type": "uint64"
            },
            {
              "internalType": "uint64",
              "name": "supplyPerYearInterestRateSlopeLow",
              "type": "uint64"
            },
            {
              "internalType": "uint64",
              "name": "supplyPerYearInterestRateSlopeHigh",
              "type": "uint64"
            },
            {
              "internalType": "uint64",
              "name": "supplyPerYearInterestRateBase",
              "type": "uint64"
            },
            {
              "internalType": "uint64",
              "name": "borrowKink",
              "type": "uint64"
            },
            {
              "internalType": "uint64",
              "name": "borrowPerYearInterestRateSlopeLow",
              "type": "uint64"
            },
            {
              "internalType": "uint64",
              "name": "borrowPerYearInterestRateSlopeHigh",
              "type": "uint64"
            },
            {
              "internalType": "uint64",
              "name": "borrowPerYearInterestRateBase",
              "type": "uint64"
            }
          ],
          "internalType": "struct HeadenUtils.Configuration",
          "name": "config",
          "type": "tuple"
        },
        {
          "internalType": "address",
          "name": "_relayer",
          "type": "address"
        }
      ],
      "name": "updateSettings",
      "outputs": [],
      "stateMutability": "nonpayable",
      "type": "function"
    },
    {
      "inputs": [],
      "name": "usdc",
      "outputs": [
        {
          "internalType": "address",
          "name": "",
          "type": "address"
        }
      ],
      "stateMutability": "view",
      "type": "function"
    },
    {
      "inputs": [
        {
          "internalType": "uint256",
          "name": "",
          "type": "uint256"
        }
      ],
      "name": "userAddresses",
      "outputs": [
        {
          "internalType": "address",
          "name": "",
          "type": "address"
        }
      ],
      "stateMutability": "view",
      "type": "function"
    },
    {
      "inputs": [
        {
          "internalType": "address",
          "name": "",
          "type": "address"
        }
      ],
      "name": "users",
      "outputs": [
        {
          "internalType": "address",
          "name": "userAddress",
          "type": "address"
        },
        {
          "internalType": "bool",
          "name": "available",
          "type": "bool"
        },
        {
          "internalType": "uint256",
          "name": "totalAmountBorrowed",
          "type": "uint256"
        },
        {
          "internalType": "uint256",
          "name": "totalAmountStaked",
          "type": "uint256"
        },
        {
          "internalType": "uint256",
          "name": "ltv",
          "type": "uint256"
        },
        {
          "internalType": "bool",
          "name": "lock",
          "type": "bool"
        },
        {
          "internalType": "uint256",
          "name": "lastAPRUpdated",
          "type": "uint256"
        }
      ],
      "stateMutability": "view",
      "type": "function"
    },
    {
      "inputs": [
        {
          "internalType": "bytes32",
          "name": "",
          "type": "bytes32"
        }
      ],
      "name": "usersborrows",
      "outputs": [
        {
          "internalType": "address",
          "name": "userAddress",
          "type": "address"
        },
        {
          "internalType": "address",
          "name": "tokenAddress",
          "type": "address"
        },
        {
          "internalType": "bool",
          "name": "available",
          "type": "bool"
        },
        {
          "internalType": "uint256",
          "name": "amountBorrowed",
          "type": "uint256"
        }
      ],
      "stateMutability": "view",
      "type": "function"
    },
    {
      "inputs": [
        {
          "internalType": "bytes32",
          "name": "",
          "type": "bytes32"
        }
      ],
      "name": "userstakes",
      "outputs": [
        {
          "internalType": "address",
          "name": "userAddress",
          "type": "address"
        },
        {
          "internalType": "address",
          "name": "tokenAddress",
          "type": "address"
        },
        {
          "internalType": "bool",
          "name": "available",
          "type": "bool"
        },
        {
          "internalType": "uint256",
          "name": "amountStaked",
          "type": "uint256"
        }
      ],
      "stateMutability": "view",
      "type": "function"
    },
    {
      "inputs": [
        {
          "internalType": "address",
          "name": "user",
          "type": "address"
        },
        {
          "internalType": "address",
          "name": "token",
          "type": "address"
        }
      ],
      "name": "validateUser",
      "outputs": [],
      "stateMutability": "nonpayable",
      "type": "function"
    },
    {
      "inputs": [
        {
          "internalType": "address",
          "name": "user",
          "type": "address"
        }
      ],
      "name": "validateUser",
      "outputs": [],
      "stateMutability": "nonpayable",
      "type": "function"
    },
    {
      "inputs": [],
      "name": "validateUsers",
      "outputs": [],
      "stateMutability": "nonpayable",
      "type": "function"
    },
    {
      "inputs": [
        {
          "internalType": "address",
          "name": "_tokenAddress",
          "type": "address"
        },
        {
          "internalType": "uint256",
          "name": "_amountToWithdraw",
          "type": "uint256"
        },
        {
          "internalType": "uint256",
          "name": "_chainId",
          "type": "uint256"
        },
        {
          "internalType": "address",
          "name": "_to",
          "type": "address"
        }
      ],
      "name": "withdrawToken",
      "outputs": [],
      "stateMutability": "nonpayable",
      "type": "function"
    }
  ],
  "bytecode": "0x60a060405273103a2d37ea6b3b4da2f5bb44e001001729e743546000806101000a81548173ffffffffffffffffffffffffffffffffffffffff021916908373ffffffffffffffffffffffffffffffffffffffff16021790555061015e600455670de0b6b3a76400006009556301e13380600a55611b58600d5542600e55600060e660006101000a8154816fffffffffffffffffffffffffffffffff02191690836fffffffffffffffffffffffffffffffff160217905550348015620000c357600080fd5b506040516200ad693803806200ad698339818101604052810190620000e991906200099d565b8a8a8a8a8a8a8a88886001808190555087600560006101000a81548173ffffffffffffffffffffffffffffffffffffffff021916908373ffffffffffffffffffffffffffffffffffffffff1602179055508660039080519060200190620001529291906200068a565b5085600260006101000a81548173ffffffffffffffffffffffffffffffffffffffff021916908373ffffffffffffffffffffffffffffffffffffffff16021790555083600760006101000a81548173ffffffffffffffffffffffffffffffffffffffff021916908373ffffffffffffffffffffffffffffffffffffffff16021790555084600660006101000a81548173ffffffffffffffffffffffffffffffffffffffff021916908373ffffffffffffffffffffffffffffffffffffffff16021790555082600860006101000a81548173ffffffffffffffffffffffffffffffffffffffff021916908373ffffffffffffffffffffffffffffffffffffffff160217905550886080818152505042600b8190555081600c81905550806000015167ffffffffffffffff16600f81905550600a54816020015167ffffffffffffffff1681620002c9577f4e487b7100000000000000000000000000000000000000000000000000000000600052601260045260246000fd5b04601081905550600a54816040015167ffffffffffffffff168162000317577f4e487b7100000000000000000000000000000000000000000000000000000000600052601260045260246000fd5b04601181905550600a54816060015167ffffffffffffffff168162000365577f4e487b7100000000000000000000000000000000000000000000000000000000600052601260045260246000fd5b04601281905550806080015167ffffffffffffffff16601381905550600a548160a0015167ffffffffffffffff1681620003c8577f4e487b7100000000000000000000000000000000000000000000000000000000600052601260045260246000fd5b04601481905550600a548160c0015167ffffffffffffffff168162000416577f4e487b7100000000000000000000000000000000000000000000000000000000600052601260045260246000fd5b04601581905550600a548160e0015167ffffffffffffffff168162000464577f4e487b7100000000000000000000000000000000000000000000000000000000600052601260045260246000fd5b04601681905550505050505050505050600160e560003373ffffffffffffffffffffffffffffffffffffffff1673ffffffffffffffffffffffffffffffffffffffff16815260200190815260200160002060006101000a81548160ff021916908315150217905550620004e184600001516200057c60201b60201c565b620004f684602001516200060360201b60201c565b826040015160e860006101000a81548163ffffffff021916908363ffffffff160217905550826000015160e860046101000a81548173ffffffffffffffffffffffffffffffffffffffff021916908373ffffffffffffffffffffffffffffffffffffffff160217905550826020015160e981905550505050505050505050505062000cf7565b80607c60006101000a81548173ffffffffffffffffffffffffffffffffffffffff021916908373ffffffffffffffffffffffffffffffffffffffff1602179055508073ffffffffffffffffffffffffffffffffffffffff167f7c10de8878ed89478ff01b9cd8c11a5271ea8ac91d46f662e6aea7e3adf5b11f60405160405180910390a250565b80607d60006101000a81548173ffffffffffffffffffffffffffffffffffffffff021916908373ffffffffffffffffffffffffffffffffffffffff1602179055508073ffffffffffffffffffffffffffffffffffffffff167fb87f5a0bface22cde699143559fb99f990ae54eea236995fc54178af91af859f60405160405180910390a250565b828054620006989062000bb4565b90600052602060002090601f016020900481019282620006bc576000855562000708565b82601f10620006d757805160ff191683800117855562000708565b8280016001018555821562000708579182015b8281111562000707578251825591602001919060010190620006ea565b5b5090506200071791906200071b565b5090565b5b80821115620007365760008160009055506001016200071c565b5090565b6000620007516200074b8462000ae6565b62000abd565b9050828152602081018484840111156200076a57600080fd5b6200077784828562000b7e565b509392505050565b600081519050620007908162000c8f565b92915050565b600082601f830112620007a857600080fd5b8151620007ba8482602086016200073a565b91505092915050565b600060408284031215620007d657600080fd5b620007e2604062000abd565b90506000620007f4848285016200077f565b60008301525060206200080a848285016200077f565b60208301525092915050565b600061010082840312156200082a57600080fd5b6200083761010062000abd565b90506000620008498482850162000986565b60008301525060206200085f8482850162000986565b6020830152506040620008758482850162000986565b60408301525060606200088b8482850162000986565b6060830152506080620008a18482850162000986565b60808301525060a0620008b78482850162000986565b60a08301525060c0620008cd8482850162000986565b60c08301525060e0620008e38482850162000986565b60e08301525092915050565b6000606082840312156200090257600080fd5b6200090e606062000abd565b9050600062000920848285016200077f565b6000830152506020620009368482850162000958565b60208301525060406200094c848285016200096f565b60408301525092915050565b600081519050620009698162000ca9565b92915050565b600081519050620009808162000cc3565b92915050565b600081519050620009978162000cdd565b92915050565b60008060008060008060008060008060006102a08c8e031215620009c057600080fd5b6000620009d08e828f0162000958565b9b50506020620009e38e828f016200077f565b9a505060408c015167ffffffffffffffff81111562000a0157600080fd5b62000a0f8e828f0162000796565b995050606062000a228e828f016200077f565b985050608062000a358e828f016200077f565b97505060a062000a488e828f016200077f565b96505060c062000a5b8e828f016200077f565b95505060e062000a6e8e828f01620007c3565b94505061012062000a828e828f01620008ef565b93505061018062000a968e828f0162000958565b9250506101a062000aaa8e828f0162000816565b9150509295989b509295989b9093969950565b600062000ac962000adc565b905062000ad7828262000bea565b919050565b6000604051905090565b600067ffffffffffffffff82111562000b045762000b0362000c4f565b5b62000b0f8262000c7e565b9050602081019050919050565b600062000b298262000b30565b9050919050565b600073ffffffffffffffffffffffffffffffffffffffff82169050919050565b6000819050919050565b600063ffffffff82169050919050565b600067ffffffffffffffff82169050919050565b60005b8381101562000b9e57808201518184015260208101905062000b81565b8381111562000bae576000848401525b50505050565b6000600282049050600182168062000bcd57607f821691505b6020821081141562000be45762000be362000c20565b5b50919050565b62000bf58262000c7e565b810181811067ffffffffffffffff8211171562000c175762000c1662000c4f565b5b80604052505050565b7f4e487b7100000000000000000000000000000000000000000000000000000000600052602260045260246000fd5b7f4e487b7100000000000000000000000000000000000000000000000000000000600052604160045260246000fd5b6000601f19601f8301169050919050565b62000c9a8162000b1c565b811462000ca657600080fd5b50565b62000cb48162000b50565b811462000cc057600080fd5b50565b62000cce8162000b5a565b811462000cda57600080fd5b50565b62000ce88162000b6a565b811462000cf457600080fd5b50565b60805161a04862000d2160003960008181611586015281816131020152613ce5015261a0486000f3fe608060405234801561001057600080fd5b50600436106103a35760003560e01c80637c108333116101e9578063a87430ba1161010f578063e6a69ab8116100ad578063f384bd051161007c578063f384bd0514610aed578063f4b9fa7514610b0b578063f5a96d3f14610b29578063f739ed9e14610b33576103a3565b8063e6a69ab814610a7b578063f0c4e88614610a99578063f1bd6f0a14610ab5578063f2fde38b14610ad1576103a3565b8063c44814a6116100e9578063c44814a6146109f3578063c6f4c57814610a23578063e0b5330714610a41578063e122056c14610a5f576103a3565b8063a87430ba14610983578063b49c53a7146109b9578063b6b0b097146109d5576103a3565b806394920cca116101875780639a8a0592116101565780639a8a0592146108f95780639c65582c14610917578063a2953f3714610935578063a5b4ff7914610965576103a3565b806394920cca1461088157806397ac1fc91461089f57806399c8d556146108bd5780639a35c359146108db576103a3565b80638da5cb5b116101c35780638da5cb5b1461080b5780639241a5611461082957806393a595f514610847578063947a36fb14610863576103a3565b80637c108333146107b5578063804de71f146107d15780638459254e146107ef576103a3565b80634b98e0e5116102ce5780635a91b39c1161026c5780636cf2ed941161023b5780636cf2ed941461073e5780636e04ff0d1461075c578063715018a61461078d5780637914acc714610797576103a3565b80635a91b39c146106b75780635a94b8d1146106d35780635db11f79146106f157806365c6507614610722576103a3565b806352de5727116102a857806352de57271461061c57806352fcaa79146106385780635300f8411461066b57806356d5d4751461069b576103a3565b80634b98e0e5146105a0578063502c9bd5146105d057806350f74b5514610600576103a3565b8063396ce213116103465780633d3e49fc116103155780633d3e49fc146105115780633e413bee146105485780633f3b3b27146105665780634585e33b14610584576103a3565b8063396ce2131461048657806339bb4ad9146104b95780633ca1355f146104d75780633cd83bda146104f3576103a3565b80631f3929e3116103825780631f3929e3146103fe5780632a48cf121461041a5780632d05670b146104385780632ead72f614610456576103a3565b8062821de3146103a857806305e617d5146103c657806312b1d780146103e2575b600080fd5b6103b0610b4f565b6040516103bd9190618a21565b60405180910390f35b6103e060048036038101906103db9190617fb6565b610b75565b005b6103fc60048036038101906103f79190617e63565b610c66565b005b61041860048036038101906104139190617f17565b610c7a565b005b6104226110be565b60405161042f91906190d3565b60405180910390f35b6104406110c4565b60405161044d91906190d3565b60405180910390f35b610470600480360381019061046b9190618290565b6110ca565b60405161047d9190618d2c565b60405180910390f35b6104a0600480360381019061049b9190618117565b6110e2565b6040516104b09493929190618a3c565b60405180910390f35b6104c161115f565b6040516104ce9190618d62565b60405180910390f35b6104f160048036038101906104ec91906181d7565b611185565b005b6104fb611451565b60405161050891906190d3565b60405180910390f35b61052b60048036038101906105269190618215565b611457565b60405161053f989796959493929190618b6c565b60405180910390f35b6105506114cc565b60405161055d9190618a21565b60405180910390f35b61056e6114f2565b60405161057b91906190d3565b60405180910390f35b61059e60048036038101906105999190618140565b6114f8565b005b6105ba60048036038101906105b59190618215565b611601565b6040516105c791906190d3565b60405180910390f35b6105ea60048036038101906105e5919061823e565b611705565b6040516105f79190618a21565b60405180910390f35b61061a60048036038101906106159190618068565b611744565b005b61063660048036038101906106319190617edb565b61192a565b005b610652600480360381019061064d9190618117565b611aab565b6040516106629493929190618a3c565b60405180910390f35b61068560048036038101906106809190617e63565b611b28565b6040516106929190618cb8565b60405180910390f35b6106b560048036038101906106b091906182f5565b611b48565b005b6106d160048036038101906106cc9190617f17565b611bed565b005b6106db612442565b6040516106e891906190d3565b60405180910390f35b61070b60048036038101906107069190617e63565b612448565b604051610719929190618d03565b60405180910390f35b61073c60048036038101906107379190617f53565b612495565b005b6107466130e6565b604051610753919061911e565b60405180910390f35b61077660048036038101906107719190618140565b6130fc565b604051610784929190618cd3565b60405180910390f35b610795613139565b005b61079f61314d565b6040516107ac91906190d3565b60405180910390f35b6107cf60048036038101906107ca9190617e63565b613153565b005b6107d9613511565b6040516107e691906190d3565b60405180910390f35b61080960048036038101906108049190617e63565b613517565b005b6108136137ab565b6040516108209190618a21565b60405180910390f35b6108316137d5565b60405161083e91906190d3565b60405180910390f35b610861600480360381019061085c9190617f17565b6137db565b005b61086b613ce3565b60405161087891906190d3565b60405180910390f35b610889613d07565b60405161089691906190d3565b60405180910390f35b6108a7613d0d565b6040516108b491906190b8565b60405180910390f35b6108c5613d2f565b6040516108d291906190d3565b60405180910390f35b6108e3613d35565b6040516108f09190618d47565b60405180910390f35b610901613d5b565b60405161090e91906190d3565b60405180910390f35b61091f613d61565b60405161092c91906190d3565b60405180910390f35b61094f600480360381019061094a9190618215565b613d67565b60405161095c91906190d3565b60405180910390f35b61096d613e6b565b60405161097a91906190d3565b60405180910390f35b61099d60048036038101906109989190617e63565b613e71565b6040516109b09796959493929190618afd565b60405180910390f35b6109d360048036038101906109ce91906182b9565b613eed565b005b6109dd613f03565b6040516109ea9190618a21565b60405180910390f35b610a0d6004803603810190610a08919061823e565b613f29565b604051610a1a91906190d3565b60405180910390f35b610a2b613f40565b604051610a389190618a21565b60405180910390f35b610a49613f66565b604051610a5691906190d3565b60405180910390f35b610a796004803603810190610a749190617e63565b61403f565b005b610a83614160565b604051610a9091906190d3565b60405180910390f35b610ab36004803603810190610aae9190618005565b614166565b005b610acf6004803603810190610aca9190617e63565b614982565b005b610aeb6004803603810190610ae69190617e63565b614996565b005b610af5614a1a565b604051610b0291906190d3565b60405180910390f35b610b13614a20565b604051610b209190618a21565b60405180910390f35b610b31614a46565b005b610b4d6004803603810190610b489190617f17565b614b6b565b005b60e860049054906101000a900473ffffffffffffffffffffffffffffffffffffffff1681565b60e560003373ffffffffffffffffffffffffffffffffffffffff1673ffffffffffffffffffffffffffffffffffffffff16815260200190815260200160002060009054906101000a900460ff16610c01576040517f08c379a0000000000000000000000000000000000000000000000000000000008152600401610bf890618d7d565b60405180910390fd5b60026001541415610c47576040517f08c379a0000000000000000000000000000000000000000000000000000000008152600401610c3e90618ffd565b60405180910390fd5b6002600181905550610c5a838383614ee8565b60018081905550505050565b610c6e61523d565b610c77816152bb565b50565b600160e660008282829054906101000a90046fffffffffffffffffffffffffffffffff16610ca8919061927f565b92506101000a8154816fffffffffffffffffffffffffffffffff02191690836fffffffffffffffffffffffffffffffff16021790555060e460008373ffffffffffffffffffffffffffffffffffffffff1673ffffffffffffffffffffffffffffffffffffffff16815260200190815260200160002060000160009054906101000a900460ff1615610d6e576040517f08c379a0000000000000000000000000000000000000000000000000000000008152600401610d659061903d565b60405180910390fd5b6040518061010001604052808373ffffffffffffffffffffffffffffffffffffffff1681526020016001151581526020018281526020016000815260200142815260200142815260200160008152602001600081525060e3600060e660009054906101000a90046fffffffffffffffffffffffffffffffff166fffffffffffffffffffffffffffffffff166fffffffffffffffffffffffffffffffff16815260200190815260200160002060008201518160000160006101000a81548173ffffffffffffffffffffffffffffffffffffffff021916908373ffffffffffffffffffffffffffffffffffffffff16021790555060208201518160000160146101000a81548160ff02191690831515021790555060408201518160010155606082015181600201556080820151816003015560a0820151816004015560c0820151816005015560e08201518160060155905050604051806040016040528060011515815260200160e660009054906101000a90046fffffffffffffffffffffffffffffffff166fffffffffffffffffffffffffffffffff1681525060e460008473ffffffffffffffffffffffffffffffffffffffff1673ffffffffffffffffffffffffffffffffffffffff16815260200190815260200160002060008201518160000160006101000a81548160ff02191690831515021790555060208201518160000160016101000a8154816fffffffffffffffffffffffffffffffff02191690836fffffffffffffffffffffffffffffffff1602179055509050506000610fb48383615342565b905060008054906101000a900473ffffffffffffffffffffffffffffffffffffffff1673ffffffffffffffffffffffffffffffffffffffff1663313ce5676040518163ffffffff1660e01b815260040160206040518083038186803b15801561101c57600080fd5b505afa158015611030573d6000803e3d6000fd5b505050506040513d601f19601f820116820180604052508101906110549190618385565b600a611060919061939f565b610dac61106d91906194bd565b8110156110af576040517f08c379a00000000000000000000000000000000000000000000000000000000081526004016110a690618e3d565b60405180910390fd5b6110b9838361568f565b505050565b60155481565b60145481565b60ae6020528060005260406000206000915090505481565b60e16020528060005260406000206000915090508060000160009054906101000a900473ffffffffffffffffffffffffffffffffffffffff16908060010160009054906101000a900473ffffffffffffffffffffffffffffffffffffffff16908060010160149054906101000a900460ff16908060020154905084565b607d60009054906101000a900473ffffffffffffffffffffffffffffffffffffffff1681565b61118d61523d565b600160e560008373ffffffffffffffffffffffffffffffffffffffff1673ffffffffffffffffffffffffffffffffffffffff16815260200190815260200160002060006101000a81548160ff0219169083151502179055508160000160208101906111f8919061835c565b67ffffffffffffffff16600f81905550600a5482602001602081019061121e919061835c565b67ffffffffffffffff168161125c577f4e487b7100000000000000000000000000000000000000000000000000000000600052601260045260246000fd5b04601081905550600a54826040016020810190611279919061835c565b67ffffffffffffffff16816112b7577f4e487b7100000000000000000000000000000000000000000000000000000000600052601260045260246000fd5b04601181905550600a548260600160208101906112d4919061835c565b67ffffffffffffffff1681611312577f4e487b7100000000000000000000000000000000000000000000000000000000600052601260045260246000fd5b0460128190555081608001602081019061132c919061835c565b67ffffffffffffffff16601381905550600a548260a0016020810190611352919061835c565b67ffffffffffffffff1681611390577f4e487b7100000000000000000000000000000000000000000000000000000000600052601260045260246000fd5b04601481905550600a548260c00160208101906113ad919061835c565b67ffffffffffffffff16816113eb577f4e487b7100000000000000000000000000000000000000000000000000000000600052601260045260246000fd5b04601581905550600a548260e0016020810190611408919061835c565b67ffffffffffffffff1681611446577f4e487b7100000000000000000000000000000000000000000000000000000000600052601260045260246000fd5b046016819055505050565b600e5481565b60e36020528060005260406000206000915090508060000160009054906101000a900473ffffffffffffffffffffffffffffffffffffffff16908060000160149054906101000a900460ff16908060010154908060020154908060030154908060040154908060050154908060060154905088565b600660009054906101000a900473ffffffffffffffffffffffffffffffffffffffff1681565b600b5481565b60e560003373ffffffffffffffffffffffffffffffffffffffff1673ffffffffffffffffffffffffffffffffffffffff16815260200190815260200160002060009054906101000a900460ff16611584576040517f08c379a000000000000000000000000000000000000000000000000000000000815260040161157b90618d7d565b60405180910390fd5b7f0000000000000000000000000000000000000000000000000000000000000000600b54426115b39190619552565b11156115fd5742600b819055507f4c046938d8adaf12f829530d5ab0441e591705682189298941fd0d767cc22eab60405160405180910390a16115f4614a46565b6115fc615bbc565b5b5050565b60008060e36000846fffffffffffffffffffffffffffffffff166fffffffffffffffffffffffffffffffff1681526020019081526020016000206001015461168260e36000866fffffffffffffffffffffffffffffffff166fffffffffffffffffffffffffffffffff16815260200190815260200160002060020154613f29565b61168c919061931b565b905060135481116116ba57806014546116a591906194bd565b6016546116b291906192c5565b915050611700565b601354816116c89190619552565b6015546116d591906194bd565b6013546014546116e591906194bd565b6016546116f291906192c5565b6116fc91906192c5565b9150505b919050565b60e7818154811061171557600080fd5b906000526020600020016000915054906101000a900473ffffffffffffffffffffffffffffffffffffffff1681565b60e560003373ffffffffffffffffffffffffffffffffffffffff1673ffffffffffffffffffffffffffffffffffffffff16815260200190815260200160002060009054906101000a900460ff166117d0576040517f08c379a00000000000000000000000000000000000000000000000000000000081526004016117c790618d7d565b60405180910390fd5b60026001541415611816576040517f08c379a000000000000000000000000000000000000000000000000000000000815260040161180d90618ffd565b60405180910390fd5b600260018190555060005b8282905081101561191e5761190b838383818110611868577f4e487b7100000000000000000000000000000000000000000000000000000000600052603260045260246000fd5b90506060020160000160208101906118809190617e63565b8484848181106118b9577f4e487b7100000000000000000000000000000000000000000000000000000000600052603260045260246000fd5b905060600201602001358585858181106118fc577f4e487b7100000000000000000000000000000000000000000000000000000000600052603260045260246000fd5b90506060020160400135610b75565b80806119169061982a565b915050611821565b50600180819055505050565b60e560003373ffffffffffffffffffffffffffffffffffffffff1673ffffffffffffffffffffffffffffffffffffffff16815260200190815260200160002060009054906101000a900460ff166119b6576040517f08c379a00000000000000000000000000000000000000000000000000000000081526004016119ad90618d7d565b60405180910390fd5b6119bf82615c27565b6119c9828261602d565b50600d5460e060008473ffffffffffffffffffffffffffffffffffffffff1673ffffffffffffffffffffffffffffffffffffffff1681526020019081526020016000206003015410611a2957611a1f828261661a565b611a2882615c27565b5b7fb17a27eee810f4b7ae91846bb18a6e11c3d1b2a438ee836c7e2e5790a367502a60e060008473ffffffffffffffffffffffffffffffffffffffff1673ffffffffffffffffffffffffffffffffffffffff168152602001908152602001600020604051611a96919061909d565b60405180910390a1611aa78261697f565b5050565b60e26020528060005260406000206000915090508060000160009054906101000a900473ffffffffffffffffffffffffffffffffffffffff16908060010160009054906101000a900473ffffffffffffffffffffffffffffffffffffffff16908060010160149054906101000a900460ff16908060020154905084565b60e56020528060005260406000206000915054906101000a900460ff1681565b611b5133616a49565b611b90576040517f08c379a0000000000000000000000000000000000000000000000000000000008152600401611b8790618f3d565b60405180910390fd5b8282611b9c8282616afd565b611bdb576040517f08c379a0000000000000000000000000000000000000000000000000000000008152600401611bd290618f5d565b60405180910390fd5b611be6858585616b29565b5050505050565b60e060003373ffffffffffffffffffffffffffffffffffffffff1673ffffffffffffffffffffffffffffffffffffffff16815260200190815260200160002060000160149054906101000a900460ff16611c7c576040517f08c379a0000000000000000000000000000000000000000000000000000000008152600401611c7390618fbd565b60405180910390fd5b60e060003373ffffffffffffffffffffffffffffffffffffffff1673ffffffffffffffffffffffffffffffffffffffff16815260200190815260200160002060040160009054906101000a900460ff1615611d0c576040517f08c379a0000000000000000000000000000000000000000000000000000000008152600401611d0390618f9d565b60405180910390fd5b60026001541415611d52576040517f08c379a0000000000000000000000000000000000000000000000000000000008152600401611d4990618ffd565b60405180910390fd5b600260018190555060e460008373ffffffffffffffffffffffffffffffffffffffff1673ffffffffffffffffffffffffffffffffffffffff16815260200190815260200160002060000160009054906101000a900460ff16611de9576040517f08c379a0000000000000000000000000000000000000000000000000000000008152600401611de09061905d565b60405180910390fd5b600033836003604051602001611e01939291906189e8565b604051602081830303815290604052805190602001209050600061271083600454611e2c91906194bd565b611e36919061931b565b90506000611e448585615342565b905060058111611e89576040517f08c379a0000000000000000000000000000000000000000000000000000000008152600401611e8090618dbd565b60405180910390fd5b611e9233615c27565b600d5460e060003373ffffffffffffffffffffffffffffffffffffffff1673ffffffffffffffffffffffffffffffffffffffff168152602001908152602001600020600201546127108360e060003373ffffffffffffffffffffffffffffffffffffffff1673ffffffffffffffffffffffffffffffffffffffff16815260200190815260200160002060010154611f2991906192c5565b611f3391906194bd565b611f3d919061931b565b10611f7d576040517f08c379a0000000000000000000000000000000000000000000000000000000008152600401611f7490618ebd565b60405180910390fd5b60e1600084815260200190815260200160002060010160149054906101000a900460ff1615611fd8578360e160008581526020019081526020016000206002016000828254611fcc91906192c5565b925050819055506120f7565b60405180608001604052803373ffffffffffffffffffffffffffffffffffffffff1681526020018673ffffffffffffffffffffffffffffffffffffffff1681526020016001151581526020018581525060e1600085815260200190815260200160002060008201518160000160006101000a81548173ffffffffffffffffffffffffffffffffffffffff021916908373ffffffffffffffffffffffffffffffffffffffff16021790555060208201518160010160006101000a81548173ffffffffffffffffffffffffffffffffffffffff021916908373ffffffffffffffffffffffffffffffffffffffff16021790555060408201518160010160146101000a81548160ff021916908315150217905550606082015181600201559050505b8060e060003373ffffffffffffffffffffffffffffffffffffffff1673ffffffffffffffffffffffffffffffffffffffff168152602001908152602001600020600101600082825461214991906192c5565b92505081905550838573ffffffffffffffffffffffffffffffffffffffff166370a08231306040518263ffffffff1660e01b815260040161218a9190618a21565b60206040518083038186803b1580156121a257600080fd5b505afa1580156121b6573d6000803e3d6000fd5b505050506040513d601f19601f820116820180604052508101906121da9190618267565b101561223c576121f6856002866121f191906194bd565b616c84565b6000612237576040517f08c379a000000000000000000000000000000000000000000000000000000000815260040161222e90618f1d565b60405180910390fd5b612314565b8473ffffffffffffffffffffffffffffffffffffffff1663a9059cbb3384876122659190619552565b6040518363ffffffff1660e01b8152600401612282929190618bea565b602060405180830381600087803b15801561229c57600080fd5b505af11580156122b0573d6000803e3d6000fd5b505050506040513d601f19601f820116820180604052508101906122d491906180ee565b612313576040517f08c379a000000000000000000000000000000000000000000000000000000000815260040161230a90618edd565b60405180910390fd5b5b61237f8460018060e460008a73ffffffffffffffffffffffffffffffffffffffff1673ffffffffffffffffffffffffffffffffffffffff16815260200190815260200160002060000160019054906101000a90046fffffffffffffffffffffffffffffffff16616ccc565b7f6b08916d029d07a60616d74a789588507159d3fbfda90bde20ec8c42d9e199d0336040516123ae9190618a21565b60405180910390a17fb17a27eee810f4b7ae91846bb18a6e11c3d1b2a438ee836c7e2e5790a367502a60e060003373ffffffffffffffffffffffffffffffffffffffff1673ffffffffffffffffffffffffffffffffffffffff168152602001908152602001600020604051612423919061909d565b60405180910390a16124343361697f565b505050600180819055505050565b60105481565b60e46020528060005260406000206000915090508060000160009054906101000a900460ff16908060000160019054906101000a90046fffffffffffffffffffffffffffffffff16905082565b60e060003373ffffffffffffffffffffffffffffffffffffffff1673ffffffffffffffffffffffffffffffffffffffff16815260200190815260200160002060000160149054906101000a900460ff16612524576040517f08c379a000000000000000000000000000000000000000000000000000000000815260040161251b90618fbd565b60405180910390fd5b60e060003373ffffffffffffffffffffffffffffffffffffffff1673ffffffffffffffffffffffffffffffffffffffff16815260200190815260200160002060040160009054906101000a900460ff16156125b4576040517f08c379a00000000000000000000000000000000000000000000000000000000081526004016125ab90618f9d565b60405180910390fd5b600260015414156125fa576040517f08c379a00000000000000000000000000000000000000000000000000000000081526004016125f190618ffd565b60405180910390fd5b600260018190555060e460008573ffffffffffffffffffffffffffffffffffffffff1673ffffffffffffffffffffffffffffffffffffffff16815260200190815260200160002060000160009054906101000a900460ff16612691576040517f08c379a00000000000000000000000000000000000000000000000000000000081526004016126889061905d565b60405180910390fd5b60e460008373ffffffffffffffffffffffffffffffffffffffff1673ffffffffffffffffffffffffffffffffffffffff16815260200190815260200160002060000160009054906101000a900460ff16612720576040517f08c379a00000000000000000000000000000000000000000000000000000000081526004016127179061907d565b60405180910390fd5b600033856003604051602001612738939291906189e8565b60405160208183030381529060405280519060200120905060006127108560045461276391906194bd565b61276d919061931b565b9050600061277b8787615342565b905060006127898686615342565b9050600582116127ce576040517f08c379a00000000000000000000000000000000000000000000000000000000081526004016127c59061901d565b60405180910390fd5b60058111612811576040517f08c379a000000000000000000000000000000000000000000000000000000000815260040161280890618d9d565b60405180910390fd5b61281a33615c27565b600d548160e060003373ffffffffffffffffffffffffffffffffffffffff1673ffffffffffffffffffffffffffffffffffffffff1681526020019081526020016000206002015461286b91906192c5565b6127108460e060003373ffffffffffffffffffffffffffffffffffffffff1673ffffffffffffffffffffffffffffffffffffffff168152602001908152602001600020600101546128bc91906192c5565b6128c691906194bd565b6128d0919061931b565b10612910576040517f08c379a000000000000000000000000000000000000000000000000000000000815260040161290790618ebd565b60405180910390fd5b60e1600085815260200190815260200160002060010160149054906101000a900460ff161561296b578660e16000868152602001908152602001600020600201600082825461295f91906192c5565b92505081905550612a8a565b60405180608001604052803373ffffffffffffffffffffffffffffffffffffffff1681526020018973ffffffffffffffffffffffffffffffffffffffff1681526020016001151581526020018881525060e1600086815260200190815260200160002060008201518160000160006101000a81548173ffffffffffffffffffffffffffffffffffffffff021916908373ffffffffffffffffffffffffffffffffffffffff16021790555060208201518160010160006101000a81548173ffffffffffffffffffffffffffffffffffffffff021916908373ffffffffffffffffffffffffffffffffffffffff16021790555060408201518160010160146101000a81548160ff021916908315150217905550606082015181600201559050505b60e2600085815260200190815260200160002060010160149054906101000a900460ff1615612ae5578460e260008681526020019081526020016000206002016000828254612ad991906192c5565b92505081905550612c04565b60405180608001604052803373ffffffffffffffffffffffffffffffffffffffff1681526020018973ffffffffffffffffffffffffffffffffffffffff1681526020016001151581526020018681525060e2600086815260200190815260200160002060008201518160000160006101000a81548173ffffffffffffffffffffffffffffffffffffffff021916908373ffffffffffffffffffffffffffffffffffffffff16021790555060208201518160010160006101000a81548173ffffffffffffffffffffffffffffffffffffffff021916908373ffffffffffffffffffffffffffffffffffffffff16021790555060408201518160010160146101000a81548160ff021916908315150217905550606082015181600201559050505b8160e060003373ffffffffffffffffffffffffffffffffffffffff1673ffffffffffffffffffffffffffffffffffffffff1681526020019081526020016000206001016000828254612c5691906192c5565b925050819055508060e060003373ffffffffffffffffffffffffffffffffffffffff1673ffffffffffffffffffffffffffffffffffffffff1681526020019081526020016000206002016000828254612caf91906192c5565b92505081905550868873ffffffffffffffffffffffffffffffffffffffff166370a08231306040518263ffffffff1660e01b8152600401612cf09190618a21565b60206040518083038186803b158015612d0857600080fd5b505afa158015612d1c573d6000803e3d6000fd5b505050506040513d601f19601f82011682018060405250810190612d409190618267565b1015612da257612d5c88600289612d5791906194bd565b616c84565b6000612d9d576040517f08c379a0000000000000000000000000000000000000000000000000000000008152600401612d9490618f1d565b60405180910390fd5b612f48565b8573ffffffffffffffffffffffffffffffffffffffff166323b872dd3330886040518463ffffffff1660e01b8152600401612ddf93929190618a81565b602060405180830381600087803b158015612df957600080fd5b505af1158015612e0d573d6000803e3d6000fd5b505050506040513d601f19601f82011682018060405250810190612e3191906180ee565b612e70576040517f08c379a0000000000000000000000000000000000000000000000000000000008152600401612e6790618edd565b60405180910390fd5b8773ffffffffffffffffffffffffffffffffffffffff1663a9059cbb33858a612e999190619552565b6040518363ffffffff1660e01b8152600401612eb6929190618bea565b602060405180830381600087803b158015612ed057600080fd5b505af1158015612ee4573d6000803e3d6000fd5b505050506040513d601f19601f82011682018060405250810190612f0891906180ee565b612f47576040517f08c379a0000000000000000000000000000000000000000000000000000000008152600401612f3e90618edd565b60405180910390fd5b5b612fb4876001600060e460008d73ffffffffffffffffffffffffffffffffffffffff1673ffffffffffffffffffffffffffffffffffffffff16815260200190815260200160002060000160019054906101000a90046fffffffffffffffffffffffffffffffff16616ccc565b613020856000600160e460008b73ffffffffffffffffffffffffffffffffffffffff1673ffffffffffffffffffffffffffffffffffffffff16815260200190815260200160002060000160019054906101000a90046fffffffffffffffffffffffffffffffff16616ccc565b7f6b08916d029d07a60616d74a789588507159d3fbfda90bde20ec8c42d9e199d03360405161304f9190618a21565b60405180910390a17fb17a27eee810f4b7ae91846bb18a6e11c3d1b2a438ee836c7e2e5790a367502a60e060003373ffffffffffffffffffffffffffffffffffffffff1673ffffffffffffffffffffffffffffffffffffffff1681526020019081526020016000206040516130c4919061909d565b60405180910390a16130d53361697f565b505050506001808190555050505050565b60e860009054906101000a900463ffffffff1681565b600060607f0000000000000000000000000000000000000000000000000000000000000000600b544261312f9190619552565b1191509250929050565b61314161523d565b61314b6000616ec1565b565b60165481565b60e560003373ffffffffffffffffffffffffffffffffffffffff1673ffffffffffffffffffffffffffffffffffffffff16815260200190815260200160002060009054906101000a900460ff166131df576040517f08c379a00000000000000000000000000000000000000000000000000000000081526004016131d690618d7d565b60405180910390fd5b60e460008273ffffffffffffffffffffffffffffffffffffffff1673ffffffffffffffffffffffffffffffffffffffff16815260200190815260200160002060000160009054906101000a900460ff161561326f576040517f08c379a00000000000000000000000000000000000000000000000000000000081526004016132669061903d565b60405180910390fd5b600160e660008282829054906101000a90046fffffffffffffffffffffffffffffffff1661329d919061927f565b92506101000a8154816fffffffffffffffffffffffffffffffff02191690836fffffffffffffffffffffffffffffffff1602179055506040518061010001604052808273ffffffffffffffffffffffffffffffffffffffff168152602001600115158152602001600081526020016000815260200142815260200142815260200160008152602001600081525060e3600060e660009054906101000a90046fffffffffffffffffffffffffffffffff166fffffffffffffffffffffffffffffffff166fffffffffffffffffffffffffffffffff16815260200190815260200160002060008201518160000160006101000a81548173ffffffffffffffffffffffffffffffffffffffff021916908373ffffffffffffffffffffffffffffffffffffffff16021790555060208201518160000160146101000a81548160ff02191690831515021790555060408201518160010155606082015181600201556080820151816003015560a0820151816004015560c0820151816005015560e08201518160060155905050604051806040016040528060011515815260200160e660009054906101000a90046fffffffffffffffffffffffffffffffff166fffffffffffffffffffffffffffffffff1681525060e460008373ffffffffffffffffffffffffffffffffffffffff1673ffffffffffffffffffffffffffffffffffffffff16815260200190815260200160002060008201518160000160006101000a81548160ff02191690831515021790555060208201518160000160016101000a8154816fffffffffffffffffffffffffffffffff02191690836fffffffffffffffffffffffffffffffff16021790555090505050565b60115481565b60e560003373ffffffffffffffffffffffffffffffffffffffff1673ffffffffffffffffffffffffffffffffffffffff16815260200190815260200160002060009054906101000a900460ff166135a3576040517f08c379a000000000000000000000000000000000000000000000000000000000815260040161359a90618d7d565b60405180910390fd5b6135ac81615c27565b60005b60e660009054906101000a90046fffffffffffffffffffffffffffffffff166fffffffffffffffffffffffffffffffff16816fffffffffffffffffffffffffffffffff16116137295761365c8260e36000846fffffffffffffffffffffffffffffffff166fffffffffffffffffffffffffffffffff16815260200190815260200160002060000160009054906101000a900473ffffffffffffffffffffffffffffffffffffffff1661602d565b50600d5460e060008473ffffffffffffffffffffffffffffffffffffffff1673ffffffffffffffffffffffffffffffffffffffff16815260200190815260200160002060030154106137165761370c8260e36000846fffffffffffffffffffffffffffffffff166fffffffffffffffffffffffffffffffff16815260200190815260200160002060000160009054906101000a900473ffffffffffffffffffffffffffffffffffffffff1661661a565b61371582615c27565b5b8080613721906197f1565b9150506135af565b507fb17a27eee810f4b7ae91846bb18a6e11c3d1b2a438ee836c7e2e5790a367502a60e060008373ffffffffffffffffffffffffffffffffffffffff1673ffffffffffffffffffffffffffffffffffffffff168152602001908152602001600020604051613797919061909d565b60405180910390a16137a88161697f565b50565b6000604a60009054906101000a900473ffffffffffffffffffffffffffffffffffffffff16905090565b60135481565b60e060003373ffffffffffffffffffffffffffffffffffffffff1673ffffffffffffffffffffffffffffffffffffffff16815260200190815260200160002060000160149054906101000a900460ff1661386a576040517f08c379a000000000000000000000000000000000000000000000000000000000815260040161386190618fbd565b60405180910390fd5b60e060003373ffffffffffffffffffffffffffffffffffffffff1673ffffffffffffffffffffffffffffffffffffffff16815260200190815260200160002060040160009054906101000a900460ff16156138fa576040517f08c379a00000000000000000000000000000000000000000000000000000000081526004016138f190618f9d565b60405180910390fd5b60026001541415613940576040517f08c379a000000000000000000000000000000000000000000000000000000000815260040161393790618ffd565b60405180910390fd5b600260018190555060e460008373ffffffffffffffffffffffffffffffffffffffff1673ffffffffffffffffffffffffffffffffffffffff16815260200190815260200160002060000160009054906101000a900460ff166139d7576040517f08c379a00000000000000000000000000000000000000000000000000000000081526004016139ce9061905d565b60405180910390fd5b6000338360036040516020016139ef939291906189e8565b6040516020818303038152906040528051906020012090506000613a138484615342565b905060058111613a58576040517f08c379a0000000000000000000000000000000000000000000000000000000008152600401613a4f90618dfd565b60405180910390fd5b613a6133615c27565b8260e160008481526020019081526020016000206002016000828254613a879190619552565b925050819055508060e060003373ffffffffffffffffffffffffffffffffffffffff1673ffffffffffffffffffffffffffffffffffffffff1681526020019081526020016000206001016000828254613ae09190619552565b92505081905550613b53836001600060e460008973ffffffffffffffffffffffffffffffffffffffff1673ffffffffffffffffffffffffffffffffffffffff16815260200190815260200160002060000160019054906101000a90046fffffffffffffffffffffffffffffffff16616ccc565b8373ffffffffffffffffffffffffffffffffffffffff166323b872dd3330866040518463ffffffff1660e01b8152600401613b9093929190618a81565b602060405180830381600087803b158015613baa57600080fd5b505af1158015613bbe573d6000803e3d6000fd5b505050506040513d601f19601f82011682018060405250810190613be291906180ee565b613c21576040517f08c379a0000000000000000000000000000000000000000000000000000000008152600401613c1890618edd565b60405180910390fd5b7f6b08916d029d07a60616d74a789588507159d3fbfda90bde20ec8c42d9e199d033604051613c509190618a21565b60405180910390a17fb17a27eee810f4b7ae91846bb18a6e11c3d1b2a438ee836c7e2e5790a367502a60e060003373ffffffffffffffffffffffffffffffffffffffff1673ffffffffffffffffffffffffffffffffffffffff168152602001908152602001600020604051613cc5919061909d565b60405180910390a1613cd63361697f565b5050600180819055505050565b7f000000000000000000000000000000000000000000000000000000000000000081565b60125481565b60e660009054906101000a90046fffffffffffffffffffffffffffffffff1681565b60045481565b607c60009054906101000a900473ffffffffffffffffffffffffffffffffffffffff1681565b600c5481565b60e95481565b60008060e36000846fffffffffffffffffffffffffffffffff166fffffffffffffffffffffffffffffffff16815260200190815260200160002060010154613de860e36000866fffffffffffffffffffffffffffffffff166fffffffffffffffffffffffffffffffff16815260200190815260200160002060020154613f29565b613df2919061931b565b9050600f548111613e205780601054613e0b91906194bd565b601254613e1891906192c5565b915050613e66565b600f5481613e2e9190619552565b601154613e3b91906194bd565b600f54601054613e4b91906194bd565b601254613e5891906192c5565b613e6291906192c5565b9150505b919050565b600f5481565b60e06020528060005260406000206000915090508060000160009054906101000a900473ffffffffffffffffffffffffffffffffffffffff16908060000160149054906101000a900460ff16908060010154908060020154908060030154908060040160009054906101000a900460ff16908060050154905087565b613ef561523d565b613eff8282616f87565b5050565b600860009054906101000a900473ffffffffffffffffffffffffffffffffffffffff1681565b600061271082613f3991906194bd565b9050919050565b600560009054906101000a900473ffffffffffffffffffffffffffffffffffffffff1681565b600060e060003373ffffffffffffffffffffffffffffffffffffffff1673ffffffffffffffffffffffffffffffffffffffff16815260200190815260200160002060000160149054906101000a900460ff16613ff7576040517f08c379a0000000000000000000000000000000000000000000000000000000008152600401613fee90618e5d565b60405180910390fd5b60e060003373ffffffffffffffffffffffffffffffffffffffff1673ffffffffffffffffffffffffffffffffffffffff16815260200190815260200160002060030154905090565b60e560003373ffffffffffffffffffffffffffffffffffffffff1673ffffffffffffffffffffffffffffffffffffffff16815260200190815260200160002060009054906101000a900460ff166140cb576040517f08c379a00000000000000000000000000000000000000000000000000000000081526004016140c290618d7d565b60405180910390fd5b600160e060008373ffffffffffffffffffffffffffffffffffffffff1673ffffffffffffffffffffffffffffffffffffffff16815260200190815260200160002060040160006101000a81548160ff0219169083151502179055507f0de0801d2bf2b41440c4e647f8fe85feef86cbb220c0e339715f888dc2b89c61816040516141559190618a21565b60405180910390a150565b600a5481565b60e060003373ffffffffffffffffffffffffffffffffffffffff1673ffffffffffffffffffffffffffffffffffffffff16815260200190815260200160002060000160149054906101000a900460ff166141f5576040517f08c379a00000000000000000000000000000000000000000000000000000000081526004016141ec90618fbd565b60405180910390fd5b60e060003373ffffffffffffffffffffffffffffffffffffffff1673ffffffffffffffffffffffffffffffffffffffff16815260200190815260200160002060040160009054906101000a900460ff1615614285576040517f08c379a000000000000000000000000000000000000000000000000000000000815260040161427c90618f9d565b60405180910390fd5b600260015414156142cb576040517f08c379a00000000000000000000000000000000000000000000000000000000081526004016142c290618ffd565b60405180910390fd5b600260018190555060e460008573ffffffffffffffffffffffffffffffffffffffff1673ffffffffffffffffffffffffffffffffffffffff16815260200190815260200160002060000160009054906101000a900460ff16614362576040517f08c379a00000000000000000000000000000000000000000000000000000000081526004016143599061905d565b60405180910390fd5b60003385600360405160200161437a939291906189e8565b6040516020818303038152906040528051906020012090506000612710856004546143a591906194bd565b6143af919061931b565b905060006143c88783886143c39190619552565b615342565b9050600a811161440d576040517f08c379a00000000000000000000000000000000000000000000000000000000081526004016144049061901d565b60405180910390fd5b8560e260008581526020019081526020016000206002015411614465576040517f08c379a000000000000000000000000000000000000000000000000000000000815260040161445c90618f7d565b60405180910390fd5b61446e33615c27565b600d548160e060003373ffffffffffffffffffffffffffffffffffffffff1673ffffffffffffffffffffffffffffffffffffffff168152602001908152602001600020600201546144bf9190619552565b61271060e060003373ffffffffffffffffffffffffffffffffffffffff1673ffffffffffffffffffffffffffffffffffffffff1681526020019081526020016000206001015461450f91906194bd565b614519919061931b565b10614559576040517f08c379a000000000000000000000000000000000000000000000000000000000815260040161455090618ebd565b60405180910390fd5b8560e26000858152602001908152602001600020600201600082825461457f9190619552565b925050819055508060e060003373ffffffffffffffffffffffffffffffffffffffff1673ffffffffffffffffffffffffffffffffffffffff16815260200190815260200160002060020160008282546145d89190619552565b92505081905550858773ffffffffffffffffffffffffffffffffffffffff166370a08231306040518263ffffffff1660e01b81526004016146199190618a21565b60206040518083038186803b15801561463157600080fd5b505afa158015614645573d6000803e3d6000fd5b505050506040513d601f19601f820116820180604052508101906146699190618267565b10156146cb576146858760028861468091906194bd565b616c84565b60006146c6576040517f08c379a00000000000000000000000000000000000000000000000000000000081526004016146bd90618f1d565b60405180910390fd5b614852565b84600c541461477757600560009054906101000a900473ffffffffffffffffffffffffffffffffffffffff1673ffffffffffffffffffffffffffffffffffffffff1663241dc2df8886858a6147209190619552565b896040518563ffffffff1660e01b81526004016147409493929190618ab8565b600060405180830381600087803b15801561475a57600080fd5b505af115801561476e573d6000803e3d6000fd5b50505050614851565b8673ffffffffffffffffffffffffffffffffffffffff166323b872dd3086858a6147a19190619552565b6040518463ffffffff1660e01b81526004016147bf93929190618a81565b602060405180830381600087803b1580156147d957600080fd5b505af11580156147ed573d6000803e3d6000fd5b505050506040513d601f19601f8201168201806040525081019061481191906180ee565b614850576040517f08c379a000000000000000000000000000000000000000000000000000000000815260040161484790618edd565b60405180910390fd5b5b5b6148bd8660008060e460008c73ffffffffffffffffffffffffffffffffffffffff1673ffffffffffffffffffffffffffffffffffffffff16815260200190815260200160002060000160019054906101000a90046fffffffffffffffffffffffffffffffff16616ccc565b7f6b08916d029d07a60616d74a789588507159d3fbfda90bde20ec8c42d9e199d0336040516148ec9190618a21565b60405180910390a17fb17a27eee810f4b7ae91846bb18a6e11c3d1b2a438ee836c7e2e5790a367502a60e060003373ffffffffffffffffffffffffffffffffffffffff1673ffffffffffffffffffffffffffffffffffffffff168152602001908152602001600020604051614961919061909d565b60405180910390a16149723361697f565b5050506001808190555050505050565b61498a61523d565b61499381616fe3565b50565b61499e61523d565b600073ffffffffffffffffffffffffffffffffffffffff168173ffffffffffffffffffffffffffffffffffffffff161415614a0e576040517f08c379a0000000000000000000000000000000000000000000000000000000008152600401614a0590618ddd565b60405180910390fd5b614a1781616ec1565b50565b600d5481565b600760009054906101000a900473ffffffffffffffffffffffffffffffffffffffff1681565b60e560003373ffffffffffffffffffffffffffffffffffffffff1673ffffffffffffffffffffffffffffffffffffffff16815260200190815260200160002060009054906101000a900460ff16614ad2576040517f08c379a0000000000000000000000000000000000000000000000000000000008152600401614ac990618d7d565b60405180910390fd5b60005b60e780549050811015614b6857600060e78281548110614b1e577f4e487b7100000000000000000000000000000000000000000000000000000000600052603260045260246000fd5b9060005260206000200160009054906101000a900473ffffffffffffffffffffffffffffffffffffffff169050614b5481613517565b508080614b609061982a565b915050614ad5565b50565b60e060003373ffffffffffffffffffffffffffffffffffffffff1673ffffffffffffffffffffffffffffffffffffffff16815260200190815260200160002060000160149054906101000a900460ff16614d66576040518060e001604052803373ffffffffffffffffffffffffffffffffffffffff1681526020016001151581526020016000815260200160008152602001600081526020016000151581526020014281525060e060003373ffffffffffffffffffffffffffffffffffffffff1673ffffffffffffffffffffffffffffffffffffffff16815260200190815260200160002060008201518160000160006101000a81548173ffffffffffffffffffffffffffffffffffffffff021916908373ffffffffffffffffffffffffffffffffffffffff16021790555060208201518160000160146101000a81548160ff02191690831515021790555060408201518160010155606082015181600201556080820151816003015560a08201518160040160006101000a81548160ff02191690831515021790555060c0820151816005015590505060e7339080600181540180825580915050600190039060005260206000200160009091909190916101000a81548173ffffffffffffffffffffffffffffffffffffffff021916908373ffffffffffffffffffffffffffffffffffffffff1602179055505b60e060003373ffffffffffffffffffffffffffffffffffffffff1673ffffffffffffffffffffffffffffffffffffffff16815260200190815260200160002060000160149054906101000a900460ff16614df5576040517f08c379a0000000000000000000000000000000000000000000000000000000008152600401614dec90618fbd565b60405180910390fd5b60e060003373ffffffffffffffffffffffffffffffffffffffff1673ffffffffffffffffffffffffffffffffffffffff16815260200190815260200160002060040160009054906101000a900460ff1615614e85576040517f08c379a0000000000000000000000000000000000000000000000000000000008152600401614e7c90618f9d565b60405180910390fd5b60026001541415614ecb576040517f08c379a0000000000000000000000000000000000000000000000000000000008152600401614ec290618ffd565b60405180910390fd5b6002600181905550614edd828261568f565b600180819055505050565b600080831115614f095782614efc83613f29565b614f06919061931b565b90505b60e060008573ffffffffffffffffffffffffffffffffffffffff1673ffffffffffffffffffffffffffffffffffffffff16815260200190815260200160002060000160149054906101000a900460ff1615615093578260e060008673ffffffffffffffffffffffffffffffffffffffff1673ffffffffffffffffffffffffffffffffffffffff168152602001908152602001600020600201819055508160e060008673ffffffffffffffffffffffffffffffffffffffff1673ffffffffffffffffffffffffffffffffffffffff168152602001908152602001600020600101819055508060e060008673ffffffffffffffffffffffffffffffffffffffff1673ffffffffffffffffffffffffffffffffffffffff16815260200190815260200160002060030181905550600060e060008673ffffffffffffffffffffffffffffffffffffffff1673ffffffffffffffffffffffffffffffffffffffff16815260200190815260200160002060040160006101000a81548160ff021916908315150217905550615237565b60e7849080600181540180825580915050600190039060005260206000200160009091909190916101000a81548173ffffffffffffffffffffffffffffffffffffffff021916908373ffffffffffffffffffffffffffffffffffffffff1602179055506040518060e001604052808573ffffffffffffffffffffffffffffffffffffffff1681526020016001151581526020018381526020018481526020018281526020016000151581526020014281525060e060008673ffffffffffffffffffffffffffffffffffffffff1673ffffffffffffffffffffffffffffffffffffffff16815260200190815260200160002060008201518160000160006101000a81548173ffffffffffffffffffffffffffffffffffffffff021916908373ffffffffffffffffffffffffffffffffffffffff16021790555060208201518160000160146101000a81548160ff02191690831515021790555060408201518160010155606082015181600201556080820151816003015560a08201518160040160006101000a81548160ff02191690831515021790555060c082015181600501559050505b50505050565b61524561706a565b73ffffffffffffffffffffffffffffffffffffffff166152636137ab565b73ffffffffffffffffffffffffffffffffffffffff16146152b9576040517f08c379a00000000000000000000000000000000000000000000000000000000081526004016152b090618e9d565b60405180910390fd5b565b80607c60006101000a81548173ffffffffffffffffffffffffffffffffffffffff021916908373ffffffffffffffffffffffffffffffffffffffff1602179055508073ffffffffffffffffffffffffffffffffffffffff167f7c10de8878ed89478ff01b9cd8c11a5271ea8ac91d46f662e6aea7e3adf5b11f60405160405180910390a250565b600080600660009054906101000a900473ffffffffffffffffffffffffffffffffffffffff1673ffffffffffffffffffffffffffffffffffffffff1663313ce5676040518163ffffffff1660e01b815260040160206040518083038186803b1580156153ad57600080fd5b505afa1580156153c1573d6000803e3d6000fd5b505050506040513d601f19601f820116820180604052508101906153e59190618385565b60016153f19190619517565b60ff169050600660009054906101000a900473ffffffffffffffffffffffffffffffffffffffff1673ffffffffffffffffffffffffffffffffffffffff168473ffffffffffffffffffffffffffffffffffffffff161461549a5761545484617072565b905060008111615499576040517f08c379a000000000000000000000000000000000000000000000000000000000815260040161549090618e7d565b60405180910390fd5b5b600660009054906101000a900473ffffffffffffffffffffffffffffffffffffffff1673ffffffffffffffffffffffffffffffffffffffff1663313ce5676040518163ffffffff1660e01b815260040160206040518083038186803b15801561550257600080fd5b505afa158015615516573d6000803e3d6000fd5b505050506040513d601f19601f8201168201806040525081019061553a9190618385565b60ff168473ffffffffffffffffffffffffffffffffffffffff1663313ce5676040518163ffffffff1660e01b815260040160206040518083038186803b15801561558357600080fd5b505afa158015615597573d6000803e3d6000fd5b505050506040513d601f19601f820116820180604052508101906155bb9190618385565b60ff16848360008054906101000a900473ffffffffffffffffffffffffffffffffffffffff1673ffffffffffffffffffffffffffffffffffffffff166350d25bcd6040518163ffffffff1660e01b815260040160206040518083038186803b15801561562657600080fd5b505afa15801561563a573d6000803e3d6000fd5b505050506040513d601f19601f8201168201806040525081019061565e91906181ae565b61566891906194bd565b61567291906194bd565b61567c919061931b565b61568691906194bd565b91505092915050565b60e460008373ffffffffffffffffffffffffffffffffffffffff1673ffffffffffffffffffffffffffffffffffffffff16815260200190815260200160002060000160009054906101000a900460ff1661571e576040517f08c379a00000000000000000000000000000000000000000000000000000000081526004016157159061905d565b60405180910390fd5b600033836003604051602001615736939291906189e8565b60405160208183030381529060405280519060200120905060006127108360045461576191906194bd565b61576b919061931b565b9050600061578485838661577f9190619552565b615342565b9050600581116157c9576040517f08c379a00000000000000000000000000000000000000000000000000000000081526004016157c090618fdd565b60405180910390fd5b6157d233615c27565b60e2600084815260200190815260200160002060010160149054906101000a900460ff16156158385781846158079190619552565b60e26000858152602001908152602001600020600201600082825461582c91906192c5565b92505081905550615962565b60405180608001604052803373ffffffffffffffffffffffffffffffffffffffff1681526020018673ffffffffffffffffffffffffffffffffffffffff16815260200160011515815260200183866158909190619552565b81525060e2600085815260200190815260200160002060008201518160000160006101000a81548173ffffffffffffffffffffffffffffffffffffffff021916908373ffffffffffffffffffffffffffffffffffffffff16021790555060208201518160010160006101000a81548173ffffffffffffffffffffffffffffffffffffffff021916908373ffffffffffffffffffffffffffffffffffffffff16021790555060408201518160010160146101000a81548160ff021916908315150217905550606082015181600201559050505b8060e060003373ffffffffffffffffffffffffffffffffffffffff1673ffffffffffffffffffffffffffffffffffffffff16815260200190815260200160002060020160008282546159b491906192c5565b92505081905550615a3282856159ca9190619552565b6000600160e460008a73ffffffffffffffffffffffffffffffffffffffff1673ffffffffffffffffffffffffffffffffffffffff16815260200190815260200160002060000160019054906101000a90046fffffffffffffffffffffffffffffffff16616ccc565b8473ffffffffffffffffffffffffffffffffffffffff166323b872dd3330876040518463ffffffff1660e01b8152600401615a6f93929190618a81565b602060405180830381600087803b158015615a8957600080fd5b505af1158015615a9d573d6000803e3d6000fd5b505050506040513d601f19601f82011682018060405250810190615ac191906180ee565b615b00576040517f08c379a0000000000000000000000000000000000000000000000000000000008152600401615af790618e1d565b60405180910390fd5b7f6b08916d029d07a60616d74a789588507159d3fbfda90bde20ec8c42d9e199d033604051615b2f9190618a21565b60405180910390a17fb17a27eee810f4b7ae91846bb18a6e11c3d1b2a438ee836c7e2e5790a367502a60e060003373ffffffffffffffffffffffffffffffffffffffff1673ffffffffffffffffffffffffffffffffffffffff168152602001908152602001600020604051615ba4919061909d565b60405180910390a1615bb53361697f565b5050505050565b60005b60e660009054906101000a90046fffffffffffffffffffffffffffffffff166fffffffffffffffffffffffffffffffff16816fffffffffffffffffffffffffffffffff1611615c2457615c11816176b7565b8080615c1c906197f1565b915050615bbf565b50565b60008060005b60e660009054906101000a90046fffffffffffffffffffffffffffffffff166fffffffffffffffffffffffffffffffff16816fffffffffffffffffffffffffffffffff1611615e225760008460e36000846fffffffffffffffffffffffffffffffff166fffffffffffffffffffffffffffffffff16815260200190815260200160002060000160009054906101000a900473ffffffffffffffffffffffffffffffffffffffff166003604051602001615ce8939291906189e8565b604051602081830303815290604052805190602001209050615d7a60e36000846fffffffffffffffffffffffffffffffff166fffffffffffffffffffffffffffffffff16815260200190815260200160002060000160009054906101000a900473ffffffffffffffffffffffffffffffffffffffff1660e2600084815260200190815260200160002060020154615342565b84615d8591906192c5565b9350615e0160e36000846fffffffffffffffffffffffffffffffff166fffffffffffffffffffffffffffffffff16815260200190815260200160002060000160009054906101000a900473ffffffffffffffffffffffffffffffffffffffff1660e1600084815260200190815260200160002060020154615342565b83615e0c91906192c5565b9250508080615e1a906197f1565b915050615c2d565b508060e060008573ffffffffffffffffffffffffffffffffffffffff1673ffffffffffffffffffffffffffffffffffffffff168152602001908152602001600020600101819055508160e060008573ffffffffffffffffffffffffffffffffffffffff1673ffffffffffffffffffffffffffffffffffffffff16815260200190815260200160002060020181905550600060e060008573ffffffffffffffffffffffffffffffffffffffff1673ffffffffffffffffffffffffffffffffffffffff168152602001908152602001600020600201541115615fdf5760e060008473ffffffffffffffffffffffffffffffffffffffff1673ffffffffffffffffffffffffffffffffffffffff16815260200190815260200160002060020154615f8a60e060008673ffffffffffffffffffffffffffffffffffffffff1673ffffffffffffffffffffffffffffffffffffffff16815260200190815260200160002060010154613f29565b615f94919061931b565b60e060008573ffffffffffffffffffffffffffffffffffffffff1673ffffffffffffffffffffffffffffffffffffffff16815260200190815260200160002060030181905550616028565b600060e060008573ffffffffffffffffffffffffffffffffffffffff1673ffffffffffffffffffffffffffffffffffffffff168152602001908152602001600020600301819055505b505050565b60008062278d0090508060e060008673ffffffffffffffffffffffffffffffffffffffff1673ffffffffffffffffffffffffffffffffffffffff16815260200190815260200160002060050154426160859190619552565b1015616095576000915050616614565b6000848460036040516020016160ad939291906189e8565b60405160208183030381529060405280519060200120905060008261612f60e460008873ffffffffffffffffffffffffffffffffffffffff1673ffffffffffffffffffffffffffffffffffffffff16815260200190815260200160002060000160019054906101000a90046fffffffffffffffffffffffffffffffff16611601565b61613991906194bd565b90506000836161a560e460008973ffffffffffffffffffffffffffffffffffffffff1673ffffffffffffffffffffffffffffffffffffffff16815260200190815260200160002060000160019054906101000a90046fffffffffffffffffffffffffffffffff16613d67565b6161af91906194bd565b9050600061271060e060008a73ffffffffffffffffffffffffffffffffffffffff1673ffffffffffffffffffffffffffffffffffffffff16815260200190815260200160002060020154600260045461620891906194bd565b61621291906194bd565b61621c919061931b565b905061271060e26000868152602001908152602001600020600201548361624391906194bd565b61624d919061931b565b60e26000868152602001908152602001600020600201600082825461627291906192c5565b9250508190555061271060e16000868152602001908152602001600020600201548461629e91906194bd565b6162a8919061931b565b60e1600086815260200190815260200160002060020160008282546162cd91906192c5565b925050819055508061271060e060008b73ffffffffffffffffffffffffffffffffffffffff1673ffffffffffffffffffffffffffffffffffffffff168152602001908152602001600020600201548461632691906194bd565b616330919061931b565b61633a9190619552565b60e060008a73ffffffffffffffffffffffffffffffffffffffff1673ffffffffffffffffffffffffffffffffffffffff168152602001908152602001600020600201600082825461638b91906192c5565b9250508190555061271060e060008a73ffffffffffffffffffffffffffffffffffffffff1673ffffffffffffffffffffffffffffffffffffffff16815260200190815260200160002060010154846163e391906194bd565b6163ed919061931b565b60e060008a73ffffffffffffffffffffffffffffffffffffffff1673ffffffffffffffffffffffffffffffffffffffff168152602001908152602001600020600101600082825461643e91906192c5565b925050819055504260e060008a73ffffffffffffffffffffffffffffffffffffffff1673ffffffffffffffffffffffffffffffffffffffff16815260200190815260200160002060050181905550600060e060008a73ffffffffffffffffffffffffffffffffffffffff1673ffffffffffffffffffffffffffffffffffffffff1681526020019081526020016000206002015411156165ba5760e060008973ffffffffffffffffffffffffffffffffffffffff1673ffffffffffffffffffffffffffffffffffffffff1681526020019081526020016000206002015461656560e060008b73ffffffffffffffffffffffffffffffffffffffff1673ffffffffffffffffffffffffffffffffffffffff16815260200190815260200160002060010154613f29565b61656f919061931b565b60e060008a73ffffffffffffffffffffffffffffffffffffffff1673ffffffffffffffffffffffffffffffffffffffff16815260200190815260200160002060030181905550616603565b600060e060008a73ffffffffffffffffffffffffffffffffffffffff1673ffffffffffffffffffffffffffffffffffffffff168152602001908152602001600020600301819055505b42600e819055506001955050505050505b92915050565b600d5460e060008473ffffffffffffffffffffffffffffffffffffffff1673ffffffffffffffffffffffffffffffffffffffff16815260200190815260200160002060030154106166a0576040517f08c379a000000000000000000000000000000000000000000000000000000000815260040161669790618efd565b60405180910390fd5b6166a982615c27565b6000828260036040516020016166c1939291906189e8565b60405160208183030381529060405280519060200120905060006166fb8360e2600085815260200190815260200160002060020154615342565b9050600061271082600560045461671291906194bd565b61671c91906194bd565b616726919061931b565b9050600060e260008581526020019081526020016000206002018190555080826167509190619552565b60e060008773ffffffffffffffffffffffffffffffffffffffff1673ffffffffffffffffffffffffffffffffffffffff16815260200190815260200160002060020160008282546167a19190619552565b925050819055508160e060008773ffffffffffffffffffffffffffffffffffffffff1673ffffffffffffffffffffffffffffffffffffffff16815260200190815260200160002060010160008282546167fa9190619552565b92505081905550600060e060008773ffffffffffffffffffffffffffffffffffffffff1673ffffffffffffffffffffffffffffffffffffffff16815260200190815260200160002060020154111561692f5760e060008673ffffffffffffffffffffffffffffffffffffffff1673ffffffffffffffffffffffffffffffffffffffff168152602001908152602001600020600201546168da60e060008873ffffffffffffffffffffffffffffffffffffffff1673ffffffffffffffffffffffffffffffffffffffff16815260200190815260200160002060010154613f29565b6168e4919061931b565b60e060008773ffffffffffffffffffffffffffffffffffffffff1673ffffffffffffffffffffffffffffffffffffffff16815260200190815260200160002060030181905550616978565b600060e060008773ffffffffffffffffffffffffffffffffffffffff1673ffffffffffffffffffffffffffffffffffffffff168152602001908152602001600020600301819055505b5050505050565b616a4660e860009054906101000a900463ffffffff168260e060008573ffffffffffffffffffffffffffffffffffffffff1673ffffffffffffffffffffffffffffffffffffffff1681526020019081526020016000206002015460e060008673ffffffffffffffffffffffffffffffffffffffff1673ffffffffffffffffffffffffffffffffffffffff16815260200190815260200160002060010154604051602001616a2e93929190618c4a565b60405160208183030381529060405262989680617796565b50565b6000607c60009054906101000a900473ffffffffffffffffffffffffffffffffffffffff1673ffffffffffffffffffffffffffffffffffffffff1663282f51eb836040518263ffffffff1660e01b8152600401616aa69190618a21565b60206040518083038186803b158015616abe57600080fd5b505afa158015616ad2573d6000803e3d6000fd5b505050506040513d601f19601f82011682018060405250810190616af691906180ee565b9050919050565b60008160ae60008563ffffffff1663ffffffff1681526020019081526020016000205414905092915050565b60e860009054906101000a900463ffffffff1663ffffffff168363ffffffff161415616c7f57600080600083806020019051810190616b689190617e8c565b92509250925060e060008473ffffffffffffffffffffffffffffffffffffffff1673ffffffffffffffffffffffffffffffffffffffff16815260200190815260200160002060000160149054906101000a900460ff1615616bd357616bce838383614ee8565b616c7b565b816002616be091906194bd565b8373ffffffffffffffffffffffffffffffffffffffff166370a08231306040518263ffffffff1660e01b8152600401616c199190618a21565b60206040518083038186803b158015616c3157600080fd5b505afa158015616c45573d6000803e3d6000fd5b505050506040513d601f19601f82011682018060405250810190616c699190618267565b1115616c7a57616c798383617854565b5b5b5050505b505050565b616cc860e860009054906101000a900463ffffffff1683836000604051602001616cb093929190618c13565b60405160208183030381529060405262989680617796565b5050565b8215616dc4578115616d2e578360e36000836fffffffffffffffffffffffffffffffff166fffffffffffffffffffffffffffffffff1681526020019081526020016000206002016000828254616d229190619552565b92505081905550616d80565b8360e36000836fffffffffffffffffffffffffffffffff166fffffffffffffffffffffffffffffffff1681526020019081526020016000206002016000828254616d7891906192c5565b925050819055505b4260e36000836fffffffffffffffffffffffffffffffff166fffffffffffffffffffffffffffffffff16815260200190815260200160002060030181905550616eb2565b8115616e20578360e36000836fffffffffffffffffffffffffffffffff166fffffffffffffffffffffffffffffffff1681526020019081526020016000206001016000828254616e1491906192c5565b92505081905550616e72565b8360e36000836fffffffffffffffffffffffffffffffff166fffffffffffffffffffffffffffffffff1681526020019081526020016000206001016000828254616e6a9190619552565b925050819055505b4260e36000836fffffffffffffffffffffffffffffffff166fffffffffffffffffffffffffffffffff168152602001908152602001600020600401819055505b616ebb816176b7565b50505050565b6000604a60009054906101000a900473ffffffffffffffffffffffffffffffffffffffff16905081604a60006101000a81548173ffffffffffffffffffffffffffffffffffffffff021916908373ffffffffffffffffffffffffffffffffffffffff1602179055508173ffffffffffffffffffffffffffffffffffffffff168173ffffffffffffffffffffffffffffffffffffffff167f8be0079c531659141344cd1fd0a4f28419497f9722a3daafe3b4186f6b6457e060405160405180910390a35050565b8060ae60008463ffffffff1663ffffffff16815260200190815260200160002081905550808263ffffffff167f97fd51fef1f80c854cbd0150c248e8b2ac4ecdc97cc05e742b5f61c9f4dc645860405160405180910390a35050565b80607d60006101000a81548173ffffffffffffffffffffffffffffffffffffffff021916908373ffffffffffffffffffffffffffffffffffffffff1602179055508073ffffffffffffffffffffffffffffffffffffffff167fb87f5a0bface22cde699143559fb99f990ae54eea236995fc54178af91af859f60405160405180910390a250565b600033905090565b6000808273ffffffffffffffffffffffffffffffffffffffff1663313ce5676040518163ffffffff1660e01b815260040160206040518083038186803b1580156170bb57600080fd5b505afa1580156170cf573d6000803e3d6000fd5b505050506040513d601f19601f820116820180604052508101906170f39190618385565b60ff1690506000600267ffffffffffffffff81111561713b577f4e487b7100000000000000000000000000000000000000000000000000000000600052604160045260246000fd5b6040519080825280602002602001820160405280156171695781602001602082028036833780820191505090505b50905083816000815181106171a7577f4e487b7100000000000000000000000000000000000000000000000000000000600052603260045260246000fd5b602002602001019073ffffffffffffffffffffffffffffffffffffffff16908173ffffffffffffffffffffffffffffffffffffffff1681525050600660009054906101000a900473ffffffffffffffffffffffffffffffffffffffff168160018151811061723e577f4e487b7100000000000000000000000000000000000000000000000000000000600052603260045260246000fd5b602002602001019073ffffffffffffffffffffffffffffffffffffffff16908173ffffffffffffffffffffffffffffffffffffffff168152505060006172b383600161728a91906194bd565b600260009054906101000a900473ffffffffffffffffffffffffffffffffffffffff168461790f565b905060008111156172c9578093505050506176b2565b600367ffffffffffffffff81111561730a577f4e487b7100000000000000000000000000000000000000000000000000000000600052604160045260246000fd5b6040519080825280602002602001820160405280156173385781602001602082028036833780820191505090505b5091508482600081518110617376577f4e487b7100000000000000000000000000000000000000000000000000000000600052603260045260246000fd5b602002602001019073ffffffffffffffffffffffffffffffffffffffff16908173ffffffffffffffffffffffffffffffffffffffff1681525050600760009054906101000a900473ffffffffffffffffffffffffffffffffffffffff168260018151811061740d577f4e487b7100000000000000000000000000000000000000000000000000000000600052603260045260246000fd5b602002602001019073ffffffffffffffffffffffffffffffffffffffff16908173ffffffffffffffffffffffffffffffffffffffff1681525050600660009054906101000a900473ffffffffffffffffffffffffffffffffffffffff16826002815181106174a4577f4e487b7100000000000000000000000000000000000000000000000000000000600052603260045260246000fd5b602002602001019073ffffffffffffffffffffffffffffffffffffffff16908173ffffffffffffffffffffffffffffffffffffffff16815250506175178360016174ee91906194bd565b600260009054906101000a900473ffffffffffffffffffffffffffffffffffffffff168461790f565b9050600081111561752d578093505050506176b2565b600860009054906101000a900473ffffffffffffffffffffffffffffffffffffffff168260018151811061758a577f4e487b7100000000000000000000000000000000000000000000000000000000600052603260045260246000fd5b602002602001019073ffffffffffffffffffffffffffffffffffffffff16908173ffffffffffffffffffffffffffffffffffffffff1681525050600660009054906101000a900473ffffffffffffffffffffffffffffffffffffffff1682600281518110617621577f4e487b7100000000000000000000000000000000000000000000000000000000600052603260045260246000fd5b602002602001019073ffffffffffffffffffffffffffffffffffffffff16908173ffffffffffffffffffffffffffffffffffffffff168152505061769483600161766b91906194bd565b600260009054906101000a900473ffffffffffffffffffffffffffffffffffffffff168461790f565b905060008111156176aa578093505050506176b2565b600093505050505b919050565b60e36000826fffffffffffffffffffffffffffffffff166fffffffffffffffffffffffffffffffff16815260200190815260200160002060000160149054906101000a900460ff16156177935761770d81611601565b60e36000836fffffffffffffffffffffffffffffffff166fffffffffffffffffffffffffffffffff1681526020019081526020016000206005018190555061775481613d67565b60e36000836fffffffffffffffffffffffffffffffff166fffffffffffffffffffffffffffffffff168152602001908152602001600020600601819055505b50565b60006177a06179fc565b905060006177af828686617aa3565b9050600083111561784d57607d60009054906101000a900473ffffffffffffffffffffffffffffffffffffffff1673ffffffffffffffffffffffffffffffffffffffff1663a5703c8e848484896040518563ffffffff1660e01b815260040161781a93929190618c81565b6000604051808303818588803b15801561783357600080fd5b505af1158015617847573d6000803e3d6000fd5b50505050505b5050505050565b600560009054906101000a900473ffffffffffffffffffffffffffffffffffffffff1673ffffffffffffffffffffffffffffffffffffffff1663241dc2df8360e860049054906101000a900473ffffffffffffffffffffffffffffffffffffffff168460e9546040518563ffffffff1660e01b81526004016178d99493929190618ab8565b600060405180830381600087803b1580156178f357600080fd5b505af1158015617907573d6000803e3d6000fd5b505050505050565b6000808373ffffffffffffffffffffffffffffffffffffffff1663d06ca61f86856040518363ffffffff1660e01b815260040161794d9291906190ee565b60006040518083038186803b15801561796557600080fd5b505afa158015617979573d6000803e3d6000fd5b505050506040513d6000823e3d601f19601f820116820180604052508101906179a291906180ad565b905080600182516179b39190619552565b815181106179ea577f4e487b7100000000000000000000000000000000000000000000000000000000600052603260045260246000fd5b60200260200101519150509392505050565b6000607c60009054906101000a900473ffffffffffffffffffffffffffffffffffffffff1673ffffffffffffffffffffffffffffffffffffffff1663ce11e6ab6040518163ffffffff1660e01b815260040160206040518083038186803b158015617a6657600080fd5b505afa158015617a7a573d6000803e3d6000fd5b505050506040513d601f19601f82011682018060405250810190617a9e9190618185565b905090565b600080617aaf84617b4a565b90508473ffffffffffffffffffffffffffffffffffffffff1663fa31de018583866040518463ffffffff1660e01b8152600401617aee93929190619139565b602060405180830381600087803b158015617b0857600080fd5b505af1158015617b1c573d6000803e3d6000fd5b505050506040513d601f19601f82011682018060405250810190617b409190618267565b9150509392505050565b600060ae60008363ffffffff1663ffffffff1681526020019081526020016000205490506000801b811415617bb4576040517f08c379a0000000000000000000000000000000000000000000000000000000008152600401617bab90618f5d565b60405180910390fd5b919050565b6000617bcc617bc78461919c565b619177565b90508083825260208201905082856020860282011115617beb57600080fd5b60005b85811015617c1b5781617c018882617e0f565b845260208401935060208301925050600181019050617bee565b5050509392505050565b6000617c38617c33846191c8565b619177565b905082815260208101848484011115617c5057600080fd5b617c5b8482856196e4565b509392505050565b600081359050617c7281619f15565b92915050565b600081519050617c8781619f2c565b92915050565b60008083601f840112617c9f57600080fd5b8235905067ffffffffffffffff811115617cb857600080fd5b602083019150836060820283011115617cd057600080fd5b9250929050565b600082601f830112617ce857600080fd5b8151617cf8848260208601617bb9565b91505092915050565b600081519050617d1081619f43565b92915050565b600081359050617d2581619f5a565b92915050565b60008083601f840112617d3d57600080fd5b8235905067ffffffffffffffff811115617d5657600080fd5b602083019150836001820283011115617d6e57600080fd5b9250929050565b600082601f830112617d8657600080fd5b8135617d96848260208601617c25565b91505092915050565b600081519050617dae81619f71565b92915050565b600081519050617dc381619f88565b92915050565b60006101008284031215617ddc57600080fd5b81905092915050565b600081359050617df481619f9f565b92915050565b600081359050617e0981619fb6565b92915050565b600081519050617e1e81619fb6565b92915050565b600081359050617e3381619fcd565b92915050565b600081359050617e4881619fe4565b92915050565b600081519050617e5d81619ffb565b92915050565b600060208284031215617e7557600080fd5b6000617e8384828501617c63565b91505092915050565b600080600060608486031215617ea157600080fd5b6000617eaf86828701617c78565b9350506020617ec086828701617e0f565b9250506040617ed186828701617e0f565b9150509250925092565b60008060408385031215617eee57600080fd5b6000617efc85828601617c63565b9250506020617f0d85828601617c63565b9150509250929050565b60008060408385031215617f2a57600080fd5b6000617f3885828601617c63565b9250506020617f4985828601617dfa565b9150509250929050565b60008060008060808587031215617f6957600080fd5b6000617f7787828801617c63565b9450506020617f8887828801617dfa565b9350506040617f9987828801617c63565b9250506060617faa87828801617dfa565b91505092959194509250565b600080600060608486031215617fcb57600080fd5b6000617fd986828701617c63565b9350506020617fea86828701617dfa565b9250506040617ffb86828701617dfa565b9150509250925092565b6000806000806080858703121561801b57600080fd5b600061802987828801617c63565b945050602061803a87828801617dfa565b935050604061804b87828801617dfa565b925050606061805c87828801617c63565b91505092959194509250565b6000806020838503121561807b57600080fd5b600083013567ffffffffffffffff81111561809557600080fd5b6180a185828601617c8d565b92509250509250929050565b6000602082840312156180bf57600080fd5b600082015167ffffffffffffffff8111156180d957600080fd5b6180e584828501617cd7565b91505092915050565b60006020828403121561810057600080fd5b600061810e84828501617d01565b91505092915050565b60006020828403121561812957600080fd5b600061813784828501617d16565b91505092915050565b6000806020838503121561815357600080fd5b600083013567ffffffffffffffff81111561816d57600080fd5b61817985828601617d2b565b92509250509250929050565b60006020828403121561819757600080fd5b60006181a584828501617d9f565b91505092915050565b6000602082840312156181c057600080fd5b60006181ce84828501617db4565b91505092915050565b60008061012083850312156181eb57600080fd5b60006181f985828601617dc9565b92505061010061820b85828601617c63565b9150509250929050565b60006020828403121561822757600080fd5b600061823584828501617de5565b91505092915050565b60006020828403121561825057600080fd5b600061825e84828501617dfa565b91505092915050565b60006020828403121561827957600080fd5b600061828784828501617e0f565b91505092915050565b6000602082840312156182a257600080fd5b60006182b084828501617e24565b91505092915050565b600080604083850312156182cc57600080fd5b60006182da85828601617e24565b92505060206182eb85828601617d16565b9150509250929050565b60008060006060848603121561830a57600080fd5b600061831886828701617e24565b935050602061832986828701617d16565b925050604084013567ffffffffffffffff81111561834657600080fd5b61835286828701617d75565b9150509250925092565b60006020828403121561836e57600080fd5b600061837c84828501617e39565b91505092915050565b60006020828403121561839757600080fd5b60006183a584828501617e4e565b91505092915050565b60006183ba83836183c6565b60208301905092915050565b6183cf816195bd565b82525050565b6183de816195bd565b82525050565b6183f56183f0826195bd565b619873565b82525050565b60006184068261921e565b6184108185619241565b935061841b836191f9565b8060005b8381101561844c57815161843388826183ae565b975061843e83619234565b92505060018101905061841f565b5085935050505092915050565b618462816195e1565b82525050565b618471816195e1565b82525050565b618480816195ed565b82525050565b600061849182619229565b61849b8185619252565b93506184ab8185602086016196f3565b6184b481619953565b840191505092915050565b6184c88161968a565b82525050565b6184d7816196ae565b82525050565b6184e6816196d2565b82525050565b600081546184f981619726565b6185038186619274565b9450600182166000811461851e576001811461852f57618562565b60ff19831686528186019350618562565b61853885619209565b60005b8381101561855a5781548189015260018201915060208101905061853b565b838801955050505b50505092915050565b6000618578602f83619263565b915061858382619998565b604082019050919050565b600061859b601483619263565b91506185a6826199e7565b602082019050919050565b60006185be603883619263565b91506185c982619a10565b604082019050919050565b60006185e1602683619263565b91506185ec82619a5f565b604082019050919050565b6000618604601483619263565b915061860f82619aae565b602082019050919050565b6000618627602283619263565b915061863282619ad7565b604082019050919050565b600061864a601983619263565b915061865582619b26565b602082019050919050565b600061866d600e83619263565b915061867882619b4f565b602082019050919050565b6000618690602683619263565b915061869b82619b78565b604082019050919050565b60006186b3602083619263565b91506186be82619bc7565b602082019050919050565b60006186d6602283619263565b91506186e182619bf0565b604082019050919050565b60006186f9601383619263565b915061870482619c3f565b602082019050919050565b600061871c601883619263565b915061872782619c68565b602082019050919050565b600061873f604683619263565b915061874a82619c91565b606082019050919050565b6000618762600683619263565b915061876d82619d06565b602082019050919050565b6000618785600783619263565b915061879082619d2f565b602082019050919050565b60006187a8601483619263565b91506187b382619d58565b602082019050919050565b60006187cb602f83619263565b91506187d682619d81565b604082019050919050565b60006187ee601783619263565b91506187f982619dd0565b602082019050919050565b6000618811603783619263565b915061881c82619df9565b604082019050919050565b6000618834601f83619263565b915061883f82619e48565b602082019050919050565b6000618857600e83619263565b915061886282619e71565b602082019050919050565b600061887a601883619263565b915061888582619e9a565b602082019050919050565b600061889d601483619263565b91506188a882619ec3565b602082019050919050565b60006188c0601883619263565b91506188cb82619eec565b602082019050919050565b60e0820160008083015490506188eb81619758565b6188f860008601826183c6565b50618902816197a6565b61890f6020860182618459565b50600183015490506189208161978c565b61892d60408601826189bb565b506002830154905061893e8161978c565b61894b60608601826189bb565b506003830154905061895c8161978c565b61896960808601826189bb565b506004830154905061897a81619772565b61898760a0860182618459565b50600583015490506189988161978c565b6189a560c08601826189bb565b5050505050565b6189b581619613565b82525050565b6189c48161964f565b82525050565b6189d38161964f565b82525050565b6189e281619659565b82525050565b60006189f482866183e4565b601482019150618a0482856183e4565b601482019150618a1482846184ec565b9150819050949350505050565b6000602082019050618a3660008301846183d5565b92915050565b6000608082019050618a5160008301876183d5565b618a5e60208301866183d5565b618a6b6040830185618468565b618a7860608301846189ca565b95945050505050565b6000606082019050618a9660008301866183d5565b618aa360208301856183d5565b618ab060408301846189ca565b949350505050565b6000608082019050618acd60008301876183d5565b618ada60208301866183d5565b618ae760408301856189ca565b618af460608301846189ca565b95945050505050565b600060e082019050618b12600083018a6183d5565b618b1f6020830189618468565b618b2c60408301886189ca565b618b3960608301876189ca565b618b4660808301866189ca565b618b5360a0830185618468565b618b6060c08301846189ca565b98975050505050505050565b600061010082019050618b82600083018b6183d5565b618b8f602083018a618468565b618b9c60408301896189ca565b618ba960608301886189ca565b618bb660808301876189ca565b618bc360a08301866189ca565b618bd060c08301856189ca565b618bdd60e08301846189ca565b9998505050505050505050565b6000604082019050618bff60008301856183d5565b618c0c60208301846189ca565b9392505050565b6000606082019050618c2860008301866183d5565b618c3560208301856189ca565b618c4260408301846184dd565b949350505050565b6000606082019050618c5f60008301866183d5565b618c6c60208301856189ca565b618c7960408301846189ca565b949350505050565b6000606082019050618c9660008301866183d5565b618ca360208301856189ca565b618cb060408301846189d9565b949350505050565b6000602082019050618ccd6000830184618468565b92915050565b6000604082019050618ce86000830185618468565b8181036020830152618cfa8184618486565b90509392505050565b6000604082019050618d186000830185618468565b618d2560208301846189ac565b9392505050565b6000602082019050618d416000830184618477565b92915050565b6000602082019050618d5c60008301846184bf565b92915050565b6000602082019050618d7760008301846184ce565b92915050565b60006020820190508181036000830152618d968161856b565b9050919050565b60006020820190508181036000830152618db68161858e565b9050919050565b60006020820190508181036000830152618dd6816185b1565b9050919050565b60006020820190508181036000830152618df6816185d4565b9050919050565b60006020820190508181036000830152618e16816185f7565b9050919050565b60006020820190508181036000830152618e368161861a565b9050919050565b60006020820190508181036000830152618e568161863d565b9050919050565b60006020820190508181036000830152618e7681618660565b9050919050565b60006020820190508181036000830152618e9681618683565b9050919050565b60006020820190508181036000830152618eb6816186a6565b9050919050565b60006020820190508181036000830152618ed6816186c9565b9050919050565b60006020820190508181036000830152618ef6816186ec565b9050919050565b60006020820190508181036000830152618f168161870f565b9050919050565b60006020820190508181036000830152618f3681618732565b9050919050565b60006020820190508181036000830152618f5681618755565b9050919050565b60006020820190508181036000830152618f7681618778565b9050919050565b60006020820190508181036000830152618f968161879b565b9050919050565b60006020820190508181036000830152618fb6816187be565b9050919050565b60006020820190508181036000830152618fd6816187e1565b9050919050565b60006020820190508181036000830152618ff681618804565b9050919050565b6000602082019050818103600083015261901681618827565b9050919050565b600060208201905081810360008301526190368161884a565b9050919050565b600060208201905081810360008301526190568161886d565b9050919050565b6000602082019050818103600083015261907681618890565b9050919050565b60006020820190508181036000830152619096816188b3565b9050919050565b600060e0820190506190b260008301846188d6565b92915050565b60006020820190506190cd60008301846189ac565b92915050565b60006020820190506190e860008301846189ca565b92915050565b600060408201905061910360008301856189ca565b818103602083015261911581846183fb565b90509392505050565b600060208201905061913360008301846189d9565b92915050565b600060608201905061914e60008301866189d9565b61915b6020830185618477565b818103604083015261916d8184618486565b9050949350505050565b6000619181619192565b905061918d82826197c0565b919050565b6000604051905090565b600067ffffffffffffffff8211156191b7576191b6619924565b5b602082029050602081019050919050565b600067ffffffffffffffff8211156191e3576191e2619924565b5b6191ec82619953565b9050602081019050919050565b6000819050602082019050919050565b60008190508160005260206000209050919050565b600081519050919050565b600081519050919050565b6000602082019050919050565b600082825260208201905092915050565b600082825260208201905092915050565b600082825260208201905092915050565b600081905092915050565b600061928a82619613565b915061929583619613565b9250826fffffffffffffffffffffffffffffffff038211156192ba576192b9619897565b5b828201905092915050565b60006192d08261964f565b91506192db8361964f565b9250827fffffffffffffffffffffffffffffffffffffffffffffffffffffffffffffffff038211156193105761930f619897565b5b828201905092915050565b60006193268261964f565b91506193318361964f565b925082619341576193406198c6565b5b828204905092915050565b6000808291508390505b60018511156193965780860481111561937257619371619897565b5b60018516156193815780820291505b808102905061938f8561998b565b9450619356565b94509492505050565b60006193aa8261964f565b91506193b58361967d565b92506193e27fffffffffffffffffffffffffffffffffffffffffffffffffffffffffffffffff84846193ea565b905092915050565b6000826193fa57600190506194b6565b8161940857600090506194b6565b816001811461941e576002811461942857619457565b60019150506194b6565b60ff84111561943a57619439619897565b5b8360020a91508482111561945157619450619897565b5b506194b6565b5060208310610133831016604e8410600b841016171561948c5782820a90508381111561948757619486619897565b5b6194b6565b619499848484600161934c565b925090508184048111156194b0576194af619897565b5b81810290505b9392505050565b60006194c88261964f565b91506194d38361964f565b9250817fffffffffffffffffffffffffffffffffffffffffffffffffffffffffffffffff048311821515161561950c5761950b619897565b5b828202905092915050565b60006195228261967d565b915061952d8361967d565b92508160ff048311821515161561954757619546619897565b5b828202905092915050565b600061955d8261964f565b91506195688361964f565b92508282101561957b5761957a619897565b5b828203905092915050565b600073ffffffffffffffffffffffffffffffffffffffff82169050919050565b600060ff82169050919050565b6000819050919050565b60006195c88261962f565b9050919050565b60006195da8261962f565b9050919050565b60008115159050919050565b6000819050919050565b6000619602826195bd565b9050919050565b6000819050919050565b60006fffffffffffffffffffffffffffffffff82169050919050565b600073ffffffffffffffffffffffffffffffffffffffff82169050919050565b6000819050919050565b600063ffffffff82169050919050565b600067ffffffffffffffff82169050919050565b600060ff82169050919050565b60006196958261969c565b9050919050565b60006196a78261962f565b9050919050565b60006196b9826196c0565b9050919050565b60006196cb8261962f565b9050919050565b60006196dd8261967d565b9050919050565b82818337600083830152505050565b60005b838110156197115780820151818401526020810190506196f6565b83811115619720576000848401525b50505050565b6000600282049050600182168061973e57607f821691505b60208210811415619752576197516198f5565b5b50919050565b600061976b61976683619971565b619586565b9050919050565b600061978561978083619971565b6195a6565b9050919050565b600061979f61979a83619971565b6195b3565b9050919050565b60006197b96197b48361997e565b6195a6565b9050919050565b6197c982619953565b810181811067ffffffffffffffff821117156197e8576197e7619924565b5b80604052505050565b60006197fc82619613565b91506fffffffffffffffffffffffffffffffff82141561981f5761981e619897565b5b600182019050919050565b60006198358261964f565b91507fffffffffffffffffffffffffffffffffffffffffffffffffffffffffffffffff82141561986857619867619897565b5b600182019050919050565b600061987e82619885565b9050919050565b600061989082619964565b9050919050565b7f4e487b7100000000000000000000000000000000000000000000000000000000600052601160045260246000fd5b7f4e487b7100000000000000000000000000000000000000000000000000000000600052601260045260246000fd5b7f4e487b7100000000000000000000000000000000000000000000000000000000600052602260045260246000fd5b7f4e487b7100000000000000000000000000000000000000000000000000000000600052604160045260246000fd5b6000601f19601f8301169050919050565b60008160601b9050919050565b60008160001c9050919050565b60008160a01c9050919050565b60008160011c9050919050565b7f55736572206e6f7420616c6c6f77656420666f7220746869732066756e63746960008201527f6f6e2c2041646d696e206f6e6c792e0000000000000000000000000000000000602082015250565b7f496e70757420616d6f756e7420746f6f206c6f77000000000000000000000000600082015250565b7f416d6f756e7420746f6f206c6f7720746f20726570617920776974682c20696e60008201527f707574206174206c656173742035205553442076616c75650000000000000000602082015250565b7f4f776e61626c653a206e6577206f776e657220697320746865207a65726f206160008201527f6464726573730000000000000000000000000000000000000000000000000000602082015250565b7f496e70757420416d6f756e7420746f6f206c6f77000000000000000000000000600082015250565b7f7472616e7366657246726f6d206661696c65642066726f6d20636f6e7472616360008201527f742e000000000000000000000000000000000000000000000000000000000000602082015250565b7f4e6f7420656e6f756768207374617274206e657720706f6f6c00000000000000600082015250565b7f55736572206e6f7420666f756e64000000000000000000000000000000000000600082015250565b7f7072696365206f7574707574206d75737420626520677265617465722074686160008201527f6e207a65726f0000000000000000000000000000000000000000000000000000602082015250565b7f4f776e61626c653a2063616c6c6572206973206e6f7420746865206f776e6572600082015250565b7f416d6f756e742067726561746572207468616e20616c6c6f77656420616d6f7560008201527f6e74000000000000000000000000000000000000000000000000000000000000602082015250565b7f7472616e7366657246726f6d206661696c656400000000000000000000000000600082015250565b7f4c69717569646174696f6e206e6f7420706f737369626c650000000000000000600082015250565b7f4e6f7420656e6f756768204c697175696469747920746f2073656e6420746f2060008201527f757365722c20706c656173652074727920616761696e20616674657220736f6d60208201527f6574696d652e0000000000000000000000000000000000000000000000000000604082015250565b7f21696e626f780000000000000000000000000000000000000000000000000000600082015250565b7f21726f7574657200000000000000000000000000000000000000000000000000600082015250565b7f4e6f7420656e6f756768206c6971756964697479000000000000000000000000600082015250565b7f4e6f7420616c6c6f77656420746f20706572666f726d2061207472616e73616360008201527f74696f6e207269676874206e6f772e0000000000000000000000000000000000602082015250565b7f7573657220646f6573206e6f7420657869737420796574000000000000000000600082015250565b7f416d6f756e7420746f6f206c6f772c20656e74657220616e20696e707574206760008201527f726561746572207468616e2035205553442076616c7565000000000000000000602082015250565b7f5265656e7472616e637947756172643a207265656e7472616e742063616c6c00600082015250565b7f416d6f756e7420746f6f206c6f77000000000000000000000000000000000000600082015250565b7f6d61726b657420616c726561647920617661696c61626c650000000000000000600082015250565b7f6d61726b6574206e6f7420617661696c61626c65000000000000000000000000600082015250565b7f436f6c206d61726b6574206e6f7420617661696c61626c650000000000000000600082015250565b619f1e816195bd565b8114619f2957600080fd5b50565b619f35816195cf565b8114619f4057600080fd5b50565b619f4c816195e1565b8114619f5757600080fd5b50565b619f63816195ed565b8114619f6e57600080fd5b50565b619f7a816195f7565b8114619f8557600080fd5b50565b619f9181619609565b8114619f9c57600080fd5b50565b619fa881619613565b8114619fb357600080fd5b50565b619fbf8161964f565b8114619fca57600080fd5b50565b619fd681619659565b8114619fe157600080fd5b50565b619fed81619669565b8114619ff857600080fd5b50565b61a0048161967d565b811461a00f57600080fd5b5056fea264697066735822122036971f52b5ab38eb57563c28ef5de8d0ee864fe68d17dfb6db31ca7f15d5fe1064736f6c63430008040033",
  "linkReferences": {},
  "deployedLinkReferences": {}
}