{
  "_format": "hh-sol-artifact-1",
  "contractName": "HeadenUtils",
  "sourceName": "contracts/headenFinanceChild.sol",
  "abi": [
    {
      "inputs": [
        {
          "internalType": "uint256",
          "name": "_interval",
          "type": "uint256"
        },
        {
          "internalType": "address",
          "name": "_multichainRouter",
          "type": "address"
        },
        {
          "internalType": "string",
          "name": "_hashSalt",
          "type": "string"
        },
        {
          "internalType": "address",
          "name": "_swapRouter",
          "type": "address"
        },
        {
          "internalType": "address",
          "name": "_usdc",
          "type": "address"
        },
        {
          "internalType": "address",
          "name": "_dai",
          "type": "address"
        },
        {
          "internalType": "address",
          "name": "_matic",
          "type": "address"
        },
        {
          "components": [
            {
              "internalType": "uint64",
              "name": "supplyKink",
              "type": "uint64"
            },
            {
              "internalType": "uint64",
              "name": "supplyPerYearInterestRateSlopeLow",
              "type": "uint64"
            },
            {
              "internalType": "uint64",
              "name": "supplyPerYearInterestRateSlopeHigh",
              "type": "uint64"
            },
            {
              "internalType": "uint64",
              "name": "supplyPerYearInterestRateBase",
              "type": "uint64"
            },
            {
              "internalType": "uint64",
              "name": "borrowKink",
              "type": "uint64"
            },
            {
              "internalType": "uint64",
              "name": "borrowPerYearInterestRateSlopeLow",
              "type": "uint64"
            },
            {
              "internalType": "uint64",
              "name": "borrowPerYearInterestRateSlopeHigh",
              "type": "uint64"
            },
            {
              "internalType": "uint64",
              "name": "borrowPerYearInterestRateBase",
              "type": "uint64"
            }
          ],
          "internalType": "struct HeadenUtils.Configuration",
          "name": "config",
          "type": "tuple"
        }
      ],
      "stateMutability": "nonpayable",
      "type": "constructor"
    },
    {
      "inputs": [],
      "name": "SECONDS_PER_YEAR",
      "outputs": [
        {
          "internalType": "uint256",
          "name": "",
          "type": "uint256"
        }
      ],
      "stateMutability": "view",
      "type": "function"
    },
    {
      "inputs": [],
      "name": "borrowKink",
      "outputs": [
        {
          "internalType": "uint256",
          "name": "",
          "type": "uint256"
        }
      ],
      "stateMutability": "view",
      "type": "function"
    },
    {
      "inputs": [],
      "name": "borrowPerSecondInterestRateBase",
      "outputs": [
        {
          "internalType": "uint256",
          "name": "",
          "type": "uint256"
        }
      ],
      "stateMutability": "view",
      "type": "function"
    },
    {
      "inputs": [],
      "name": "borrowPerSecondInterestRateSlopeHigh",
      "outputs": [
        {
          "internalType": "uint256",
          "name": "",
          "type": "uint256"
        }
      ],
      "stateMutability": "view",
      "type": "function"
    },
    {
      "inputs": [],
      "name": "borrowPerSecondInterestRateSlopeLow",
      "outputs": [
        {
          "internalType": "uint256",
          "name": "",
          "type": "uint256"
        }
      ],
      "stateMutability": "view",
      "type": "function"
    },
    {
      "inputs": [],
      "name": "chainId",
      "outputs": [
        {
          "internalType": "uint256",
          "name": "",
          "type": "uint256"
        }
      ],
      "stateMutability": "view",
      "type": "function"
    },
    {
      "inputs": [],
      "name": "dai",
      "outputs": [
        {
          "internalType": "address",
          "name": "",
          "type": "address"
        }
      ],
      "stateMutability": "view",
      "type": "function"
    },
    {
      "inputs": [],
      "name": "interval",
      "outputs": [
        {
          "internalType": "uint256",
          "name": "",
          "type": "uint256"
        }
      ],
      "stateMutability": "view",
      "type": "function"
    },
    {
      "inputs": [],
      "name": "lastTimeStamp",
      "outputs": [
        {
          "internalType": "uint256",
          "name": "",
          "type": "uint256"
        }
      ],
      "stateMutability": "view",
      "type": "function"
    },
    {
      "inputs": [],
      "name": "matic",
      "outputs": [
        {
          "internalType": "address",
          "name": "",
          "type": "address"
        }
      ],
      "stateMutability": "view",
      "type": "function"
    },
    {
      "inputs": [],
      "name": "multichainRouter",
      "outputs": [
        {
          "internalType": "address",
          "name": "",
          "type": "address"
        }
      ],
      "stateMutability": "view",
      "type": "function"
    },
    {
      "inputs": [
        {
          "internalType": "uint256",
          "name": "amount",
          "type": "uint256"
        }
      ],
      "name": "per_amount",
      "outputs": [
        {
          "internalType": "uint256",
          "name": "",
          "type": "uint256"
        }
      ],
      "stateMutability": "view",
      "type": "function"
    },
    {
      "inputs": [],
      "name": "supplyKink",
      "outputs": [
        {
          "internalType": "uint256",
          "name": "",
          "type": "uint256"
        }
      ],
      "stateMutability": "view",
      "type": "function"
    },
    {
      "inputs": [],
      "name": "supplyPerSecondInterestRateBase",
      "outputs": [
        {
          "internalType": "uint256",
          "name": "",
          "type": "uint256"
        }
      ],
      "stateMutability": "view",
      "type": "function"
    },
    {
      "inputs": [],
      "name": "supplyPerSecondInterestRateSlopeHigh",
      "outputs": [
        {
          "internalType": "uint256",
          "name": "",
          "type": "uint256"
        }
      ],
      "stateMutability": "view",
      "type": "function"
    },
    {
      "inputs": [],
      "name": "supplyPerSecondInterestRateSlopeLow",
      "outputs": [
        {
          "internalType": "uint256",
          "name": "",
          "type": "uint256"
        }
      ],
      "stateMutability": "view",
      "type": "function"
    },
    {
      "inputs": [],
      "name": "tax",
      "outputs": [
        {
          "internalType": "uint256",
          "name": "",
          "type": "uint256"
        }
      ],
      "stateMutability": "view",
      "type": "function"
    },
    {
      "inputs": [],
      "name": "usdc",
      "outputs": [
        {
          "internalType": "address",
          "name": "",
          "type": "address"
        }
      ],
      "stateMutability": "view",
      "type": "function"
    }
  ],
  "bytecode": "0x60a060405273103a2d37ea6b3b4da2f5bb44e001001729e743546000806101000a81548173ffffffffffffffffffffffffffffffffffffffff021916908373ffffffffffffffffffffffffffffffffffffffff16021790555061015e600455670de0b6b3a76400006009556301e13380600a553480156200007f57600080fd5b5060405162000f7538038062000f758339818101604052810190620000a5919062000665565b6001808190555086600560006101000a81548173ffffffffffffffffffffffffffffffffffffffff021916908373ffffffffffffffffffffffffffffffffffffffff16021790555085600390805190602001906200010592919062000425565b5084600260006101000a81548173ffffffffffffffffffffffffffffffffffffffff021916908373ffffffffffffffffffffffffffffffffffffffff16021790555082600760006101000a81548173ffffffffffffffffffffffffffffffffffffffff021916908373ffffffffffffffffffffffffffffffffffffffff16021790555083600660006101000a81548173ffffffffffffffffffffffffffffffffffffffff021916908373ffffffffffffffffffffffffffffffffffffffff16021790555081600860006101000a81548173ffffffffffffffffffffffffffffffffffffffff021916908373ffffffffffffffffffffffffffffffffffffffff160217905550876080818152505042600b81905550806000015167ffffffffffffffff16600d81905550600a54816020015167ffffffffffffffff168162000275577f4e487b7100000000000000000000000000000000000000000000000000000000600052601260045260246000fd5b04600e81905550600a54816040015167ffffffffffffffff1681620002c3577f4e487b7100000000000000000000000000000000000000000000000000000000600052601260045260246000fd5b04600f81905550600a54816060015167ffffffffffffffff168162000311577f4e487b7100000000000000000000000000000000000000000000000000000000600052601260045260246000fd5b04601081905550806080015167ffffffffffffffff16601181905550600a548160a0015167ffffffffffffffff168162000374577f4e487b7100000000000000000000000000000000000000000000000000000000600052601260045260246000fd5b04601281905550600a548160c0015167ffffffffffffffff1681620003c2577f4e487b7100000000000000000000000000000000000000000000000000000000600052601260045260246000fd5b04601381905550600a548160e0015167ffffffffffffffff168162000410577f4e487b7100000000000000000000000000000000000000000000000000000000600052601260045260246000fd5b04601481905550505050505050505062000951565b828054620004339062000828565b90600052602060002090601f016020900481019282620004575760008555620004a3565b82601f106200047257805160ff1916838001178555620004a3565b82800160010185558215620004a3579182015b82811115620004a257825182559160200191906001019062000485565b5b509050620004b29190620004b6565b5090565b5b80821115620004d1576000816000905550600101620004b7565b5090565b6000620004ec620004e6846200076a565b62000741565b9050828152602081018484840111156200050557600080fd5b62000512848285620007f2565b509392505050565b6000815190506200052b8162000903565b92915050565b600082601f8301126200054357600080fd5b815162000555848260208601620004d5565b91505092915050565b600061010082840312156200057257600080fd5b6200057f61010062000741565b9050600062000591848285016200064e565b6000830152506020620005a7848285016200064e565b6020830152506040620005bd848285016200064e565b6040830152506060620005d3848285016200064e565b6060830152506080620005e9848285016200064e565b60808301525060a0620005ff848285016200064e565b60a08301525060c062000615848285016200064e565b60c08301525060e06200062b848285016200064e565b60e08301525092915050565b60008151905062000648816200091d565b92915050565b6000815190506200065f8162000937565b92915050565b6000806000806000806000806101e0898b0312156200068357600080fd5b6000620006938b828c0162000637565b9850506020620006a68b828c016200051a565b975050604089015167ffffffffffffffff811115620006c457600080fd5b620006d28b828c0162000531565b9650506060620006e58b828c016200051a565b9550506080620006f88b828c016200051a565b94505060a06200070b8b828c016200051a565b93505060c06200071e8b828c016200051a565b92505060e0620007318b828c016200055e565b9150509295985092959890939650565b60006200074d62000760565b90506200075b82826200085e565b919050565b6000604051905090565b600067ffffffffffffffff821115620007885762000787620008c3565b5b6200079382620008f2565b9050602081019050919050565b6000620007ad82620007b4565b9050919050565b600073ffffffffffffffffffffffffffffffffffffffff82169050919050565b6000819050919050565b600067ffffffffffffffff82169050919050565b60005b8381101562000812578082015181840152602081019050620007f5565b8381111562000822576000848401525b50505050565b600060028204905060018216806200084157607f821691505b6020821081141562000858576200085762000894565b5b50919050565b6200086982620008f2565b810181811067ffffffffffffffff821117156200088b576200088a620008c3565b5b80604052505050565b7f4e487b7100000000000000000000000000000000000000000000000000000000600052602260045260246000fd5b7f4e487b7100000000000000000000000000000000000000000000000000000000600052604160045260246000fd5b6000601f19601f8301169050919050565b6200090e81620007a0565b81146200091a57600080fd5b50565b6200092881620007d4565b81146200093457600080fd5b50565b6200094281620007de565b81146200094e57600080fd5b50565b6080516106086200096d600039600061039b01526106086000f3fe608060405234801561001057600080fd5b50600436106101165760003560e01c806394920cca116100a2578063b6b0b09711610071578063b6b0b097146102a1578063c44814a6146102bf578063c6f4c578146102ef578063e6a69ab81461030d578063f4b9fa751461032b57610116565b806394920cca1461022957806399c8d556146102475780639a8a059214610265578063a5b4ff791461028357610116565b80635a94b8d1116100e95780635a94b8d1146101935780637914acc7146101b1578063804de71f146101cf5780639241a561146101ed578063947a36fb1461020b57610116565b80632a48cf121461011b5780632d05670b146101395780633e413bee146101575780633f3b3b2714610175575b600080fd5b610123610349565b60405161013091906104db565b60405180910390f35b61014161034f565b60405161014e91906104db565b60405180910390f35b61015f610355565b60405161016c91906104c0565b60405180910390f35b61017d61037b565b60405161018a91906104db565b60405180910390f35b61019b610381565b6040516101a891906104db565b60405180910390f35b6101b9610387565b6040516101c691906104db565b60405180910390f35b6101d761038d565b6040516101e491906104db565b60405180910390f35b6101f5610393565b60405161020291906104db565b60405180910390f35b610213610399565b60405161022091906104db565b60405180910390f35b6102316103bd565b60405161023e91906104db565b60405180910390f35b61024f6103c3565b60405161025c91906104db565b60405180910390f35b61026d6103c9565b60405161027a91906104db565b60405180910390f35b61028b6103cf565b60405161029891906104db565b60405180910390f35b6102a96103d5565b6040516102b691906104c0565b60405180910390f35b6102d960048036038101906102d49190610479565b6103fb565b6040516102e691906104db565b60405180910390f35b6102f7610412565b60405161030491906104c0565b60405180910390f35b610315610438565b60405161032291906104db565b60405180910390f35b61033361043e565b60405161034091906104c0565b60405180910390f35b60135481565b60125481565b600660009054906101000a900473ffffffffffffffffffffffffffffffffffffffff1681565b600b5481565b600e5481565b60145481565b600f5481565b60115481565b7f000000000000000000000000000000000000000000000000000000000000000081565b60105481565b60045481565b600c5481565b600d5481565b600860009054906101000a900473ffffffffffffffffffffffffffffffffffffffff1681565b60006127108261040b91906104f6565b9050919050565b600560009054906101000a900473ffffffffffffffffffffffffffffffffffffffff1681565b600a5481565b600760009054906101000a900473ffffffffffffffffffffffffffffffffffffffff1681565b600081359050610473816105bb565b92915050565b60006020828403121561048b57600080fd5b600061049984828501610464565b91505092915050565b6104ab81610550565b82525050565b6104ba81610582565b82525050565b60006020820190506104d560008301846104a2565b92915050565b60006020820190506104f060008301846104b1565b92915050565b600061050182610582565b915061050c83610582565b9250817fffffffffffffffffffffffffffffffffffffffffffffffffffffffffffffffff04831182151516156105455761054461058c565b5b828202905092915050565b600061055b82610562565b9050919050565b600073ffffffffffffffffffffffffffffffffffffffff82169050919050565b6000819050919050565b7f4e487b7100000000000000000000000000000000000000000000000000000000600052601160045260246000fd5b6105c481610582565b81146105cf57600080fd5b5056fea26469706673582212204af84e9a2bc34f3a41b332bcac5f447acfa5422a1eee66be9cb33a3263d0475364736f6c63430008040033",
  "linkReferences": {},
  "deployedLinkReferences": {}
}