{
  "_format": "hh-sol-artifact-1",
  "contractName": "HeadenFinanceChild",
  "sourceName": "contracts/headenFinanceChild.sol",
  "abi": [
    {
      "inputs": [
        {
          "internalType": "uint256",
          "name": "_interval",
          "type": "uint256"
        },
        {
          "internalType": "address",
          "name": "_multichainRouter",
          "type": "address"
        },
        {
          "internalType": "string",
          "name": "_hashSalt",
          "type": "string"
        },
        {
          "internalType": "address",
          "name": "_swapRouter",
          "type": "address"
        },
        {
          "internalType": "address",
          "name": "_usdc",
          "type": "address"
        },
        {
          "internalType": "address",
          "name": "_dai",
          "type": "address"
        },
        {
          "internalType": "address",
          "name": "_matic",
          "type": "address"
        },
        {
          "components": [
            {
              "internalType": "address",
              "name": "_abacusManager",
              "type": "address"
            },
            {
              "internalType": "address",
              "name": "_abacusPay",
              "type": "address"
            }
          ],
          "internalType": "struct HeadenFinanceChild.Abacus",
          "name": "_abacus",
          "type": "tuple"
        },
        {
          "components": [
            {
              "internalType": "address",
              "name": "_parentAddress",
              "type": "address"
            },
            {
              "internalType": "uint256",
              "name": "_parentChainId",
              "type": "uint256"
            },
            {
              "internalType": "uint32",
              "name": "_hlParentId",
              "type": "uint32"
            }
          ],
          "internalType": "struct HeadenFinanceChild.Parent",
          "name": "_parent",
          "type": "tuple"
        },
        {
          "internalType": "uint256",
          "name": "_chainId",
          "type": "uint256"
        },
        {
          "components": [
            {
              "internalType": "uint64",
              "name": "supplyKink",
              "type": "uint64"
            },
            {
              "internalType": "uint64",
              "name": "supplyPerYearInterestRateSlopeLow",
              "type": "uint64"
            },
            {
              "internalType": "uint64",
              "name": "supplyPerYearInterestRateSlopeHigh",
              "type": "uint64"
            },
            {
              "internalType": "uint64",
              "name": "supplyPerYearInterestRateBase",
              "type": "uint64"
            },
            {
              "internalType": "uint64",
              "name": "borrowKink",
              "type": "uint64"
            },
            {
              "internalType": "uint64",
              "name": "borrowPerYearInterestRateSlopeLow",
              "type": "uint64"
            },
            {
              "internalType": "uint64",
              "name": "borrowPerYearInterestRateSlopeHigh",
              "type": "uint64"
            },
            {
              "internalType": "uint64",
              "name": "borrowPerYearInterestRateBase",
              "type": "uint64"
            }
          ],
          "internalType": "struct HeadenUtils.Configuration",
          "name": "config",
          "type": "tuple"
        }
      ],
      "stateMutability": "nonpayable",
      "type": "constructor"
    },
    {
      "anonymous": false,
      "inputs": [
        {
          "indexed": true,
          "internalType": "address",
          "name": "abacusConnectionManager",
          "type": "address"
        }
      ],
      "name": "AbacusConnectionManagerSet",
      "type": "event"
    },
    {
      "anonymous": false,
      "inputs": [
        {
          "indexed": false,
          "internalType": "uint256",
          "name": "_amount",
          "type": "uint256"
        },
        {
          "indexed": false,
          "internalType": "address",
          "name": "tokenAddress",
          "type": "address"
        }
      ],
      "name": "Borrowed",
      "type": "event"
    },
    {
      "anonymous": false,
      "inputs": [
        {
          "indexed": false,
          "internalType": "address",
          "name": "user",
          "type": "address"
        }
      ],
      "name": "ChainSyncRequired",
      "type": "event"
    },
    {
      "anonymous": false,
      "inputs": [],
      "name": "FullChainSyncRequired",
      "type": "event"
    },
    {
      "anonymous": false,
      "inputs": [
        {
          "indexed": false,
          "internalType": "uint8",
          "name": "version",
          "type": "uint8"
        }
      ],
      "name": "Initialized",
      "type": "event"
    },
    {
      "anonymous": false,
      "inputs": [
        {
          "indexed": true,
          "internalType": "address",
          "name": "interchainGasPaymaster",
          "type": "address"
        }
      ],
      "name": "InterchainGasPaymasterSet",
      "type": "event"
    },
    {
      "anonymous": false,
      "inputs": [
        {
          "indexed": false,
          "internalType": "address",
          "name": "user",
          "type": "address"
        }
      ],
      "name": "LockUntilUpdateFromParentChain",
      "type": "event"
    },
    {
      "anonymous": false,
      "inputs": [
        {
          "indexed": true,
          "internalType": "address",
          "name": "previousOwner",
          "type": "address"
        },
        {
          "indexed": true,
          "internalType": "address",
          "name": "newOwner",
          "type": "address"
        }
      ],
      "name": "OwnershipTransferred",
      "type": "event"
    },
    {
      "anonymous": false,
      "inputs": [
        {
          "indexed": true,
          "internalType": "uint32",
          "name": "domain",
          "type": "uint32"
        },
        {
          "indexed": true,
          "internalType": "bytes32",
          "name": "router",
          "type": "bytes32"
        }
      ],
      "name": "RemoteRouterEnrolled",
      "type": "event"
    },
    {
      "anonymous": false,
      "inputs": [
        {
          "indexed": false,
          "internalType": "uint256",
          "name": "_amount",
          "type": "uint256"
        },
        {
          "indexed": false,
          "internalType": "address",
          "name": "tokenAddress",
          "type": "address"
        }
      ],
      "name": "Repayed",
      "type": "event"
    },
    {
      "anonymous": false,
      "inputs": [
        {
          "indexed": false,
          "internalType": "uint256",
          "name": "_amount",
          "type": "uint256"
        },
        {
          "indexed": false,
          "internalType": "address",
          "name": "tokenAddress",
          "type": "address"
        }
      ],
      "name": "Staked",
      "type": "event"
    },
    {
      "anonymous": false,
      "inputs": [
        {
          "components": [
            {
              "internalType": "address",
              "name": "userAddress",
              "type": "address"
            },
            {
              "internalType": "bool",
              "name": "available",
              "type": "bool"
            },
            {
              "internalType": "uint256",
              "name": "totalAmountBorrowed",
              "type": "uint256"
            },
            {
              "internalType": "uint256",
              "name": "totalAmountStaked",
              "type": "uint256"
            },
            {
              "internalType": "uint256",
              "name": "ltv",
              "type": "uint256"
            },
            {
              "internalType": "bool",
              "name": "lock",
              "type": "bool"
            },
            {
              "internalType": "uint256",
              "name": "lastAPRUpdated",
              "type": "uint256"
            }
          ],
          "indexed": false,
          "internalType": "struct HeadenFinanceChild.User",
          "name": "user",
          "type": "tuple"
        }
      ],
      "name": "UpdateParentChain",
      "type": "event"
    },
    {
      "anonymous": false,
      "inputs": [
        {
          "indexed": false,
          "internalType": "uint256",
          "name": "_amount",
          "type": "uint256"
        },
        {
          "indexed": false,
          "internalType": "address",
          "name": "tokenAddress",
          "type": "address"
        }
      ],
      "name": "Withdrawn",
      "type": "event"
    },
    {
      "inputs": [],
      "name": "SECONDS_PER_YEAR",
      "outputs": [
        {
          "internalType": "uint256",
          "name": "",
          "type": "uint256"
        }
      ],
      "stateMutability": "view",
      "type": "function"
    },
    {
      "inputs": [],
      "name": "abacusConnectionManager",
      "outputs": [
        {
          "internalType": "contract IAbacusConnectionManager",
          "name": "",
          "type": "address"
        }
      ],
      "stateMutability": "view",
      "type": "function"
    },
    {
      "inputs": [],
      "name": "borrowKink",
      "outputs": [
        {
          "internalType": "uint256",
          "name": "",
          "type": "uint256"
        }
      ],
      "stateMutability": "view",
      "type": "function"
    },
    {
      "inputs": [],
      "name": "borrowPerSecondInterestRateBase",
      "outputs": [
        {
          "internalType": "uint256",
          "name": "",
          "type": "uint256"
        }
      ],
      "stateMutability": "view",
      "type": "function"
    },
    {
      "inputs": [],
      "name": "borrowPerSecondInterestRateSlopeHigh",
      "outputs": [
        {
          "internalType": "uint256",
          "name": "",
          "type": "uint256"
        }
      ],
      "stateMutability": "view",
      "type": "function"
    },
    {
      "inputs": [],
      "name": "borrowPerSecondInterestRateSlopeLow",
      "outputs": [
        {
          "internalType": "uint256",
          "name": "",
          "type": "uint256"
        }
      ],
      "stateMutability": "view",
      "type": "function"
    },
    {
      "inputs": [
        {
          "internalType": "address",
          "name": "_tokenAddress",
          "type": "address"
        },
        {
          "internalType": "uint256",
          "name": "_amountToBorrow",
          "type": "uint256"
        }
      ],
      "name": "borrowToken",
      "outputs": [],
      "stateMutability": "nonpayable",
      "type": "function"
    },
    {
      "inputs": [
        {
          "internalType": "address",
          "name": "_tokenAddress",
          "type": "address"
        },
        {
          "internalType": "uint256",
          "name": "_amountToBorrow",
          "type": "uint256"
        },
        {
          "internalType": "address",
          "name": "_collateralAddress",
          "type": "address"
        },
        {
          "internalType": "uint256",
          "name": "_collateralAmount",
          "type": "uint256"
        }
      ],
      "name": "borrowTokenWithCollateral",
      "outputs": [],
      "stateMutability": "nonpayable",
      "type": "function"
    },
    {
      "inputs": [],
      "name": "chainId",
      "outputs": [
        {
          "internalType": "uint256",
          "name": "",
          "type": "uint256"
        }
      ],
      "stateMutability": "view",
      "type": "function"
    },
    {
      "inputs": [
        {
          "internalType": "bytes",
          "name": "",
          "type": "bytes"
        }
      ],
      "name": "checkUpkeep",
      "outputs": [
        {
          "internalType": "bool",
          "name": "upkeepNeeded",
          "type": "bool"
        },
        {
          "internalType": "bytes",
          "name": "",
          "type": "bytes"
        }
      ],
      "stateMutability": "view",
      "type": "function"
    },
    {
      "inputs": [
        {
          "internalType": "address",
          "name": "_token",
          "type": "address"
        }
      ],
      "name": "createMarket",
      "outputs": [],
      "stateMutability": "nonpayable",
      "type": "function"
    },
    {
      "inputs": [
        {
          "internalType": "address",
          "name": "_token",
          "type": "address"
        },
        {
          "internalType": "uint256",
          "name": "amount",
          "type": "uint256"
        }
      ],
      "name": "createMarketPool",
      "outputs": [],
      "stateMutability": "nonpayable",
      "type": "function"
    },
    {
      "inputs": [],
      "name": "dai",
      "outputs": [
        {
          "internalType": "address",
          "name": "",
          "type": "address"
        }
      ],
      "stateMutability": "view",
      "type": "function"
    },
    {
      "inputs": [
        {
          "internalType": "uint32",
          "name": "_domain",
          "type": "uint32"
        },
        {
          "internalType": "bytes32",
          "name": "_router",
          "type": "bytes32"
        }
      ],
      "name": "enrollRemoteRouter",
      "outputs": [],
      "stateMutability": "nonpayable",
      "type": "function"
    },
    {
      "inputs": [],
      "name": "getRiskLevel",
      "outputs": [
        {
          "internalType": "uint256",
          "name": "",
          "type": "uint256"
        }
      ],
      "stateMutability": "view",
      "type": "function"
    },
    {
      "inputs": [
        {
          "internalType": "uint32",
          "name": "_origin",
          "type": "uint32"
        },
        {
          "internalType": "bytes32",
          "name": "_sender",
          "type": "bytes32"
        },
        {
          "internalType": "bytes",
          "name": "_message",
          "type": "bytes"
        }
      ],
      "name": "handle",
      "outputs": [],
      "stateMutability": "nonpayable",
      "type": "function"
    },
    {
      "inputs": [],
      "name": "hlParentId",
      "outputs": [
        {
          "internalType": "uint32",
          "name": "",
          "type": "uint32"
        }
      ],
      "stateMutability": "view",
      "type": "function"
    },
    {
      "inputs": [],
      "name": "interchainGasPaymaster",
      "outputs": [
        {
          "internalType": "contract IInterchainGasPaymaster",
          "name": "",
          "type": "address"
        }
      ],
      "stateMutability": "view",
      "type": "function"
    },
    {
      "inputs": [
        {
          "internalType": "uint128",
          "name": "_id",
          "type": "uint128"
        },
        {
          "internalType": "bool",
          "name": "borrow",
          "type": "bool"
        }
      ],
      "name": "interestRates",
      "outputs": [
        {
          "internalType": "uint256",
          "name": "",
          "type": "uint256"
        }
      ],
      "stateMutability": "view",
      "type": "function"
    },
    {
      "inputs": [],
      "name": "interval",
      "outputs": [
        {
          "internalType": "uint256",
          "name": "",
          "type": "uint256"
        }
      ],
      "stateMutability": "view",
      "type": "function"
    },
    {
      "inputs": [],
      "name": "lastAPRUpdate",
      "outputs": [
        {
          "internalType": "uint256",
          "name": "",
          "type": "uint256"
        }
      ],
      "stateMutability": "view",
      "type": "function"
    },
    {
      "inputs": [],
      "name": "lastTimeStamp",
      "outputs": [
        {
          "internalType": "uint256",
          "name": "",
          "type": "uint256"
        }
      ],
      "stateMutability": "view",
      "type": "function"
    },
    {
      "inputs": [
        {
          "internalType": "address",
          "name": "",
          "type": "address"
        }
      ],
      "name": "marketTokens",
      "outputs": [
        {
          "internalType": "bool",
          "name": "available",
          "type": "bool"
        },
        {
          "internalType": "uint128",
          "name": "_id",
          "type": "uint128"
        }
      ],
      "stateMutability": "view",
      "type": "function"
    },
    {
      "inputs": [],
      "name": "market_pools",
      "outputs": [
        {
          "internalType": "uint128",
          "name": "",
          "type": "uint128"
        }
      ],
      "stateMutability": "view",
      "type": "function"
    },
    {
      "inputs": [
        {
          "internalType": "uint128",
          "name": "",
          "type": "uint128"
        }
      ],
      "name": "markets",
      "outputs": [
        {
          "internalType": "address",
          "name": "tokenAddress",
          "type": "address"
        },
        {
          "internalType": "bool",
          "name": "available",
          "type": "bool"
        },
        {
          "internalType": "uint256",
          "name": "amountStaked",
          "type": "uint256"
        },
        {
          "internalType": "uint256",
          "name": "amountBorrowed",
          "type": "uint256"
        },
        {
          "internalType": "uint256",
          "name": "timeLastBorrowed",
          "type": "uint256"
        },
        {
          "internalType": "uint256",
          "name": "timeLastStaked",
          "type": "uint256"
        },
        {
          "internalType": "uint256",
          "name": "borrowRate",
          "type": "uint256"
        },
        {
          "internalType": "uint256",
          "name": "supplyRate",
          "type": "uint256"
        }
      ],
      "stateMutability": "view",
      "type": "function"
    },
    {
      "inputs": [],
      "name": "matic",
      "outputs": [
        {
          "internalType": "address",
          "name": "",
          "type": "address"
        }
      ],
      "stateMutability": "view",
      "type": "function"
    },
    {
      "inputs": [],
      "name": "maxLTV",
      "outputs": [
        {
          "internalType": "uint256",
          "name": "",
          "type": "uint256"
        }
      ],
      "stateMutability": "view",
      "type": "function"
    },
    {
      "inputs": [],
      "name": "minAmount",
      "outputs": [
        {
          "internalType": "uint256",
          "name": "",
          "type": "uint256"
        }
      ],
      "stateMutability": "view",
      "type": "function"
    },
    {
      "inputs": [],
      "name": "multichainRouter",
      "outputs": [
        {
          "internalType": "address",
          "name": "",
          "type": "address"
        }
      ],
      "stateMutability": "view",
      "type": "function"
    },
    {
      "inputs": [],
      "name": "owner",
      "outputs": [
        {
          "internalType": "address",
          "name": "",
          "type": "address"
        }
      ],
      "stateMutability": "view",
      "type": "function"
    },
    {
      "inputs": [],
      "name": "parentAddress",
      "outputs": [
        {
          "internalType": "address",
          "name": "",
          "type": "address"
        }
      ],
      "stateMutability": "view",
      "type": "function"
    },
    {
      "inputs": [],
      "name": "parentChainId",
      "outputs": [
        {
          "internalType": "uint256",
          "name": "",
          "type": "uint256"
        }
      ],
      "stateMutability": "view",
      "type": "function"
    },
    {
      "inputs": [
        {
          "internalType": "uint256",
          "name": "amount",
          "type": "uint256"
        }
      ],
      "name": "per_amount",
      "outputs": [
        {
          "internalType": "uint256",
          "name": "",
          "type": "uint256"
        }
      ],
      "stateMutability": "pure",
      "type": "function"
    },
    {
      "inputs": [
        {
          "internalType": "bytes",
          "name": "",
          "type": "bytes"
        }
      ],
      "name": "performUpkeep",
      "outputs": [],
      "stateMutability": "nonpayable",
      "type": "function"
    },
    {
      "inputs": [
        {
          "components": [
            {
              "internalType": "address",
              "name": "user",
              "type": "address"
            },
            {
              "internalType": "uint256",
              "name": "totalStakes",
              "type": "uint256"
            },
            {
              "internalType": "uint256",
              "name": "totalBorrows",
              "type": "uint256"
            }
          ],
          "internalType": "struct HeadenFinanceChild.FullUpdateData[]",
          "name": "usersData",
          "type": "tuple[]"
        }
      ],
      "name": "receiveFullUpdateFromParentChain",
      "outputs": [],
      "stateMutability": "nonpayable",
      "type": "function"
    },
    {
      "inputs": [
        {
          "internalType": "address",
          "name": "user",
          "type": "address"
        },
        {
          "internalType": "uint256",
          "name": "totalStakes",
          "type": "uint256"
        },
        {
          "internalType": "uint256",
          "name": "totalBorrows",
          "type": "uint256"
        }
      ],
      "name": "receiveUpdateFromParentChain",
      "outputs": [],
      "stateMutability": "nonpayable",
      "type": "function"
    },
    {
      "inputs": [
        {
          "internalType": "address",
          "name": "",
          "type": "address"
        }
      ],
      "name": "relayers",
      "outputs": [
        {
          "internalType": "bool",
          "name": "",
          "type": "bool"
        }
      ],
      "stateMutability": "view",
      "type": "function"
    },
    {
      "inputs": [],
      "name": "renounceOwnership",
      "outputs": [],
      "stateMutability": "nonpayable",
      "type": "function"
    },
    {
      "inputs": [
        {
          "internalType": "address",
          "name": "_tokenAddress",
          "type": "address"
        },
        {
          "internalType": "uint256",
          "name": "_amount",
          "type": "uint256"
        }
      ],
      "name": "repayLoan",
      "outputs": [],
      "stateMutability": "nonpayable",
      "type": "function"
    },
    {
      "inputs": [
        {
          "internalType": "uint32",
          "name": "",
          "type": "uint32"
        }
      ],
      "name": "routers",
      "outputs": [
        {
          "internalType": "bytes32",
          "name": "",
          "type": "bytes32"
        }
      ],
      "stateMutability": "view",
      "type": "function"
    },
    {
      "inputs": [
        {
          "internalType": "address",
          "name": "_abacusConnectionManager",
          "type": "address"
        }
      ],
      "name": "setAbacusConnectionManager",
      "outputs": [],
      "stateMutability": "nonpayable",
      "type": "function"
    },
    {
      "inputs": [
        {
          "internalType": "address",
          "name": "_interchainGasPaymaster",
          "type": "address"
        }
      ],
      "name": "setInterchainGasPaymaster",
      "outputs": [],
      "stateMutability": "nonpayable",
      "type": "function"
    },
    {
      "inputs": [
        {
          "internalType": "address",
          "name": "_tokenAddress",
          "type": "address"
        },
        {
          "internalType": "uint256",
          "name": "_amountToStake",
          "type": "uint256"
        }
      ],
      "name": "stakeToken",
      "outputs": [],
      "stateMutability": "nonpayable",
      "type": "function"
    },
    {
      "inputs": [],
      "name": "supplyKink",
      "outputs": [
        {
          "internalType": "uint256",
          "name": "",
          "type": "uint256"
        }
      ],
      "stateMutability": "view",
      "type": "function"
    },
    {
      "inputs": [],
      "name": "supplyPerSecondInterestRateBase",
      "outputs": [
        {
          "internalType": "uint256",
          "name": "",
          "type": "uint256"
        }
      ],
      "stateMutability": "view",
      "type": "function"
    },
    {
      "inputs": [],
      "name": "supplyPerSecondInterestRateSlopeHigh",
      "outputs": [
        {
          "internalType": "uint256",
          "name": "",
          "type": "uint256"
        }
      ],
      "stateMutability": "view",
      "type": "function"
    },
    {
      "inputs": [],
      "name": "supplyPerSecondInterestRateSlopeLow",
      "outputs": [
        {
          "internalType": "uint256",
          "name": "",
          "type": "uint256"
        }
      ],
      "stateMutability": "view",
      "type": "function"
    },
    {
      "inputs": [],
      "name": "tax",
      "outputs": [
        {
          "internalType": "uint256",
          "name": "",
          "type": "uint256"
        }
      ],
      "stateMutability": "view",
      "type": "function"
    },
    {
      "inputs": [
        {
          "internalType": "address",
          "name": "newOwner",
          "type": "address"
        }
      ],
      "name": "transferOwnership",
      "outputs": [],
      "stateMutability": "nonpayable",
      "type": "function"
    },
    {
      "inputs": [
        {
          "components": [
            {
              "internalType": "uint64",
              "name": "supplyKink",
              "type": "uint64"
            },
            {
              "internalType": "uint64",
              "name": "supplyPerYearInterestRateSlopeLow",
              "type": "uint64"
            },
            {
              "internalType": "uint64",
              "name": "supplyPerYearInterestRateSlopeHigh",
              "type": "uint64"
            },
            {
              "internalType": "uint64",
              "name": "supplyPerYearInterestRateBase",
              "type": "uint64"
            },
            {
              "internalType": "uint64",
              "name": "borrowKink",
              "type": "uint64"
            },
            {
              "internalType": "uint64",
              "name": "borrowPerYearInterestRateSlopeLow",
              "type": "uint64"
            },
            {
              "internalType": "uint64",
              "name": "borrowPerYearInterestRateSlopeHigh",
              "type": "uint64"
            },
            {
              "internalType": "uint64",
              "name": "borrowPerYearInterestRateBase",
              "type": "uint64"
            }
          ],
          "internalType": "struct HeadenUtils.Configuration",
          "name": "config",
          "type": "tuple"
        },
        {
          "internalType": "address",
          "name": "_relayer",
          "type": "address"
        },
        {
          "internalType": "uint256",
          "name": "_minAmount",
          "type": "uint256"
        },
        {
          "internalType": "bool",
          "name": "light",
          "type": "bool"
        }
      ],
      "name": "updateSettings",
      "outputs": [],
      "stateMutability": "nonpayable",
      "type": "function"
    },
    {
      "inputs": [],
      "name": "usdc",
      "outputs": [
        {
          "internalType": "address",
          "name": "",
          "type": "address"
        }
      ],
      "stateMutability": "view",
      "type": "function"
    },
    {
      "inputs": [
        {
          "internalType": "uint256",
          "name": "",
          "type": "uint256"
        }
      ],
      "name": "userAddresses",
      "outputs": [
        {
          "internalType": "address",
          "name": "",
          "type": "address"
        }
      ],
      "stateMutability": "view",
      "type": "function"
    },
    {
      "inputs": [
        {
          "internalType": "address",
          "name": "",
          "type": "address"
        }
      ],
      "name": "users",
      "outputs": [
        {
          "internalType": "address",
          "name": "userAddress",
          "type": "address"
        },
        {
          "internalType": "bool",
          "name": "available",
          "type": "bool"
        },
        {
          "internalType": "uint256",
          "name": "totalAmountBorrowed",
          "type": "uint256"
        },
        {
          "internalType": "uint256",
          "name": "totalAmountStaked",
          "type": "uint256"
        },
        {
          "internalType": "uint256",
          "name": "ltv",
          "type": "uint256"
        },
        {
          "internalType": "bool",
          "name": "lock",
          "type": "bool"
        },
        {
          "internalType": "uint256",
          "name": "lastAPRUpdated",
          "type": "uint256"
        }
      ],
      "stateMutability": "view",
      "type": "function"
    },
    {
      "inputs": [
        {
          "internalType": "bytes32",
          "name": "",
          "type": "bytes32"
        }
      ],
      "name": "usersborrows",
      "outputs": [
        {
          "internalType": "address",
          "name": "userAddress",
          "type": "address"
        },
        {
          "internalType": "address",
          "name": "tokenAddress",
          "type": "address"
        },
        {
          "internalType": "bool",
          "name": "available",
          "type": "bool"
        },
        {
          "internalType": "uint256",
          "name": "amountBorrowed",
          "type": "uint256"
        }
      ],
      "stateMutability": "view",
      "type": "function"
    },
    {
      "inputs": [
        {
          "internalType": "bytes32",
          "name": "",
          "type": "bytes32"
        }
      ],
      "name": "userstakes",
      "outputs": [
        {
          "internalType": "address",
          "name": "userAddress",
          "type": "address"
        },
        {
          "internalType": "address",
          "name": "tokenAddress",
          "type": "address"
        },
        {
          "internalType": "bool",
          "name": "available",
          "type": "bool"
        },
        {
          "internalType": "uint256",
          "name": "amountStaked",
          "type": "uint256"
        }
      ],
      "stateMutability": "view",
      "type": "function"
    },
    {
      "inputs": [
        {
          "internalType": "address",
          "name": "user",
          "type": "address"
        },
        {
          "internalType": "address",
          "name": "token",
          "type": "address"
        }
      ],
      "name": "validateUser",
      "outputs": [],
      "stateMutability": "nonpayable",
      "type": "function"
    },
    {
      "inputs": [
        {
          "internalType": "address",
          "name": "user",
          "type": "address"
        }
      ],
      "name": "validateUser",
      "outputs": [],
      "stateMutability": "nonpayable",
      "type": "function"
    },
    {
      "inputs": [],
      "name": "validateUsers",
      "outputs": [],
      "stateMutability": "nonpayable",
      "type": "function"
    },
    {
      "inputs": [
        {
          "internalType": "address",
          "name": "_tokenAddress",
          "type": "address"
        },
        {
          "internalType": "uint256",
          "name": "_amountToWithdraw",
          "type": "uint256"
        },
        {
          "internalType": "uint256",
          "name": "_chainId",
          "type": "uint256"
        },
        {
          "internalType": "address",
          "name": "_to",
          "type": "address"
        }
      ],
      "name": "withdrawToken",
      "outputs": [],
      "stateMutability": "nonpayable",
      "type": "function"
    }
  ],
  "bytecode": "0x60a060405273572ddec9087154dc5dfbb1546bb62713147e0ab06000806101000a81548173ffffffffffffffffffffffffffffffffffffffff021916908373ffffffffffffffffffffffffffffffffffffffff16021790555061015e600455670de0b6b3a76400006009556301e13380600a55611b58600d5542600e55600060e660006101000a8154816fffffffffffffffffffffffffffffffff02191690836fffffffffffffffffffffffffffffffff160217905550600060ea55348015620000c857600080fd5b506040516200aea13803806200aea18339818101604052810190620000ee9190620009a2565b8a8a8a8a8a8a8a88886001808190555087600560006101000a81548173ffffffffffffffffffffffffffffffffffffffff021916908373ffffffffffffffffffffffffffffffffffffffff1602179055508660039080519060200190620001579291906200068f565b5085600260006101000a81548173ffffffffffffffffffffffffffffffffffffffff021916908373ffffffffffffffffffffffffffffffffffffffff16021790555083600760006101000a81548173ffffffffffffffffffffffffffffffffffffffff021916908373ffffffffffffffffffffffffffffffffffffffff16021790555084600660006101000a81548173ffffffffffffffffffffffffffffffffffffffff021916908373ffffffffffffffffffffffffffffffffffffffff16021790555082600860006101000a81548173ffffffffffffffffffffffffffffffffffffffff021916908373ffffffffffffffffffffffffffffffffffffffff160217905550886080818152505042600b8190555081600c81905550806000015167ffffffffffffffff16600f81905550600a54816020015167ffffffffffffffff1681620002ce577f4e487b7100000000000000000000000000000000000000000000000000000000600052601260045260246000fd5b04601081905550600a54816040015167ffffffffffffffff16816200031c577f4e487b7100000000000000000000000000000000000000000000000000000000600052601260045260246000fd5b04601181905550600a54816060015167ffffffffffffffff16816200036a577f4e487b7100000000000000000000000000000000000000000000000000000000600052601260045260246000fd5b04601281905550806080015167ffffffffffffffff16601381905550600a548160a0015167ffffffffffffffff1681620003cd577f4e487b7100000000000000000000000000000000000000000000000000000000600052601260045260246000fd5b04601481905550600a548160c0015167ffffffffffffffff16816200041b577f4e487b7100000000000000000000000000000000000000000000000000000000600052601260045260246000fd5b04601581905550600a548160e0015167ffffffffffffffff168162000469577f4e487b7100000000000000000000000000000000000000000000000000000000600052601260045260246000fd5b04601681905550505050505050505050600160e560003373ffffffffffffffffffffffffffffffffffffffff1673ffffffffffffffffffffffffffffffffffffffff16815260200190815260200160002060006101000a81548160ff021916908315150217905550620004e684600001516200058160201b60201c565b620004fb84602001516200060860201b60201c565b826040015160e860006101000a81548163ffffffff021916908363ffffffff160217905550826000015160e860046101000a81548173ffffffffffffffffffffffffffffffffffffffff021916908373ffffffffffffffffffffffffffffffffffffffff160217905550826020015160e981905550505050505050505050505062000cfc565b80607c60006101000a81548173ffffffffffffffffffffffffffffffffffffffff021916908373ffffffffffffffffffffffffffffffffffffffff1602179055508073ffffffffffffffffffffffffffffffffffffffff167f7c10de8878ed89478ff01b9cd8c11a5271ea8ac91d46f662e6aea7e3adf5b11f60405160405180910390a250565b80607d60006101000a81548173ffffffffffffffffffffffffffffffffffffffff021916908373ffffffffffffffffffffffffffffffffffffffff1602179055508073ffffffffffffffffffffffffffffffffffffffff167fb87f5a0bface22cde699143559fb99f990ae54eea236995fc54178af91af859f60405160405180910390a250565b8280546200069d9062000bb9565b90600052602060002090601f016020900481019282620006c157600085556200070d565b82601f10620006dc57805160ff19168380011785556200070d565b828001600101855582156200070d579182015b828111156200070c578251825591602001919060010190620006ef565b5b5090506200071c919062000720565b5090565b5b808211156200073b57600081600090555060010162000721565b5090565b600062000756620007508462000aeb565b62000ac2565b9050828152602081018484840111156200076f57600080fd5b6200077c84828562000b83565b509392505050565b600081519050620007958162000c94565b92915050565b600082601f830112620007ad57600080fd5b8151620007bf8482602086016200073f565b91505092915050565b600060408284031215620007db57600080fd5b620007e7604062000ac2565b90506000620007f98482850162000784565b60008301525060206200080f8482850162000784565b60208301525092915050565b600061010082840312156200082f57600080fd5b6200083c61010062000ac2565b905060006200084e848285016200098b565b600083015250602062000864848285016200098b565b60208301525060406200087a848285016200098b565b604083015250606062000890848285016200098b565b6060830152506080620008a6848285016200098b565b60808301525060a0620008bc848285016200098b565b60a08301525060c0620008d2848285016200098b565b60c08301525060e0620008e8848285016200098b565b60e08301525092915050565b6000606082840312156200090757600080fd5b62000913606062000ac2565b90506000620009258482850162000784565b60008301525060206200093b848285016200095d565b6020830152506040620009518482850162000974565b60408301525092915050565b6000815190506200096e8162000cae565b92915050565b600081519050620009858162000cc8565b92915050565b6000815190506200099c8162000ce2565b92915050565b60008060008060008060008060008060006102a08c8e031215620009c557600080fd5b6000620009d58e828f016200095d565b9b50506020620009e88e828f0162000784565b9a505060408c015167ffffffffffffffff81111562000a0657600080fd5b62000a148e828f016200079b565b995050606062000a278e828f0162000784565b985050608062000a3a8e828f0162000784565b97505060a062000a4d8e828f0162000784565b96505060c062000a608e828f0162000784565b95505060e062000a738e828f01620007c8565b94505061012062000a878e828f01620008f4565b93505061018062000a9b8e828f016200095d565b9250506101a062000aaf8e828f016200081b565b9150509295989b509295989b9093969950565b600062000ace62000ae1565b905062000adc828262000bef565b919050565b6000604051905090565b600067ffffffffffffffff82111562000b095762000b0862000c54565b5b62000b148262000c83565b9050602081019050919050565b600062000b2e8262000b35565b9050919050565b600073ffffffffffffffffffffffffffffffffffffffff82169050919050565b6000819050919050565b600063ffffffff82169050919050565b600067ffffffffffffffff82169050919050565b60005b8381101562000ba357808201518184015260208101905062000b86565b8381111562000bb3576000848401525b50505050565b6000600282049050600182168062000bd257607f821691505b6020821081141562000be95762000be862000c25565b5b50919050565b62000bfa8262000c83565b810181811067ffffffffffffffff8211171562000c1c5762000c1b62000c54565b5b80604052505050565b7f4e487b7100000000000000000000000000000000000000000000000000000000600052602260045260246000fd5b7f4e487b7100000000000000000000000000000000000000000000000000000000600052604160045260246000fd5b6000601f19601f8301169050919050565b62000c9f8162000b21565b811462000cab57600080fd5b50565b62000cb98162000b55565b811462000cc557600080fd5b50565b62000cd38162000b5f565b811462000cdf57600080fd5b50565b62000ced8162000b6f565b811462000cf957600080fd5b50565b60805161a17b62000d266000396000818161128001528181612d9d01526139b1015261a17b6000f3fe608060405234801561001057600080fd5b50600436106103985760003560e01c8063804de71f116101e9578063a87430ba1161010f578063f0c4e886116100ad578063f4b9fa751161007c578063f4b9fa7514610ab6578063f5a96d3f14610ad4578063f7158bbf14610ade578063f739ed9e14610afa57610398565b8063f0c4e88614610a44578063f1bd6f0a14610a60578063f2fde38b14610a7c578063f384bd0514610a9857610398565b8063c44814a6116100e9578063c44814a6146109ba578063c6f4c578146109ea578063e0b5330714610a08578063e6a69ab814610a2657610398565b8063a87430ba1461094a578063b49c53a714610980578063b6b0b0971461099c57610398565b806397ac1fc9116101875780639b2cb5d8116101565780639b2cb5d8146108c05780639c65582c146108de578063a5b4ff79146108fc578063a7aa273b1461091a57610398565b806397ac1fc91461084857806399c8d556146108665780639a35c359146108845780639a8a0592146108a257610398565b80639241a561116101c35780639241a561146107d257806393a595f5146107f0578063947a36fb1461080c57806394920cca1461082a57610398565b8063804de71f1461077a5780638459254e146107985780638da5cb5b146107b457610398565b8063502c9bd5116102ce5780635a94b8d11161026c5780636e04ff0d1161023b5780636e04ff0d14610705578063715018a6146107365780637914acc7146107405780637c1083331461075e57610398565b80635a94b8d11461067c5780635db11f791461069a57806365c65076146106cb5780636cf2ed94146106e757610398565b806352fcaa79116102a857806352fcaa79146105e15780635300f8411461061457806356d5d475146106445780635a91b39c1461066057610398565b8063502c9bd51461057957806350f74b55146105a957806352de5727146105c557610398565b8063396ce2131161033b5780633d3e49fc116103155780633d3e49fc146104ea5780633e413bee146105215780633f3b3b271461053f5780634585e33b1461055d57610398565b8063396ce2131461047b57806339bb4ad9146104ae5780633cd83bda146104cc57610398565b80631f3929e3116103775780631f3929e3146103f35780632a48cf121461040f5780632d05670b1461042d5780632ead72f61461044b57610398565b8062821de31461039d57806305e617d5146103bb57806312b1d780146103d7575b600080fd5b6103a5610b16565b6040516103b29190618b66565b60405180910390f35b6103d560048036038101906103d09190618096565b610b3c565b005b6103f160048036038101906103ec9190617f43565b610c2d565b005b61040d60048036038101906104089190617ff7565b610c41565b005b610417611084565b6040516104249190619218565b60405180910390f35b61043561108a565b6040516104429190619218565b60405180910390f35b610465600480360381019061046091906183d5565b611090565b6040516104729190618e71565b60405180910390f35b610495600480360381019061049091906181f7565b6110a8565b6040516104a59493929190618b81565b60405180910390f35b6104b6611125565b6040516104c39190618ea7565b60405180910390f35b6104d461114b565b6040516104e19190619218565b60405180910390f35b61050460048036038101906104ff919061831e565b611151565b604051610518989796959493929190618cb1565b60405180910390f35b6105296111c6565b6040516105369190618b66565b60405180910390f35b6105476111ec565b6040516105549190619218565b60405180910390f35b61057760048036038101906105729190618220565b6111f2565b005b610593600480360381019061058e9190618383565b6112fb565b6040516105a09190618b66565b60405180910390f35b6105c360048036038101906105be9190618148565b61133a565b005b6105df60048036038101906105da9190617fbb565b611520565b005b6105fb60048036038101906105f691906181f7565b611698565b60405161060b9493929190618b81565b60405180910390f35b61062e60048036038101906106299190617f43565b611715565b60405161063b9190618dfd565b60405180910390f35b61065e6004803603810190610659919061843a565b611735565b005b61067a60048036038101906106759190617ff7565b6117da565b005b610684612069565b6040516106919190619218565b60405180910390f35b6106b460048036038101906106af9190617f43565b61206f565b6040516106c2929190618e48565b60405180910390f35b6106e560048036038101906106e09190618033565b6120bc565b005b6106ef612d81565b6040516106fc919061928c565b60405180910390f35b61071f600480360381019061071a9190618220565b612d97565b60405161072d929190618e18565b60405180910390f35b61073e612dd4565b005b610748612de8565b6040516107559190619218565b60405180910390f35b61077860048036038101906107739190617f43565b612dee565b005b6107826131ac565b60405161078f9190619218565b60405180910390f35b6107b260048036038101906107ad9190617f43565b6131b2565b005b6107bc61343d565b6040516107c99190618b66565b60405180910390f35b6107da613467565b6040516107e79190619218565b60405180910390f35b61080a60048036038101906108059190617ff7565b61346d565b005b6108146139af565b6040516108219190619218565b60405180910390f35b6108326139d3565b60405161083f9190619218565b60405180910390f35b6108506139d9565b60405161085d91906191fd565b60405180910390f35b61086e6139fb565b60405161087b9190619218565b60405180910390f35b61088c613a01565b6040516108999190618e8c565b60405180910390f35b6108aa613a27565b6040516108b79190619218565b60405180910390f35b6108c8613a2d565b6040516108d59190619218565b60405180910390f35b6108e6613a33565b6040516108f39190619218565b60405180910390f35b610904613a39565b6040516109119190619218565b60405180910390f35b610934600480360381019061092f9190618347565b613a3f565b6040516109419190619218565b60405180910390f35b610964600480360381019061095f9190617f43565b613bc0565b6040516109779796959493929190618c42565b60405180910390f35b61099a600480360381019061099591906183fe565b613c3c565b005b6109a4613c52565b6040516109b19190618b66565b60405180910390f35b6109d460048036038101906109cf9190618383565b613c78565b6040516109e19190619218565b60405180910390f35b6109f2613c8f565b6040516109ff9190618b66565b60405180910390f35b610a10613cb5565b604051610a1d9190619218565b60405180910390f35b610a2e613d8e565b604051610a3b9190619218565b60405180910390f35b610a5e6004803603810190610a5991906180e5565b613d94565b005b610a7a6004803603810190610a759190617f43565b6145ea565b005b610a966004803603810190610a919190617f43565b6145fe565b005b610aa0614682565b604051610aad9190619218565b60405180910390f35b610abe614688565b604051610acb9190618b66565b60405180910390f35b610adc6146ae565b005b610af86004803603810190610af391906182b7565b6147d3565b005b610b146004803603810190610b0f9190617ff7565b614b38565b005b60e860049054906101000a900473ffffffffffffffffffffffffffffffffffffffff1681565b60e560003373ffffffffffffffffffffffffffffffffffffffff1673ffffffffffffffffffffffffffffffffffffffff16815260200190815260200160002060009054906101000a900460ff16610bc8576040517f08c379a0000000000000000000000000000000000000000000000000000000008152600401610bbf90618ec2565b60405180910390fd5b60026001541415610c0e576040517f08c379a0000000000000000000000000000000000000000000000000000000008152600401610c0590619142565b60405180910390fd5b6002600181905550610c21838383614eb5565b60018081905550505050565b610c3561520a565b610c3e81615288565b50565b600160e660008282829054906101000a90046fffffffffffffffffffffffffffffffff16610c6f91906193ed565b92506101000a8154816fffffffffffffffffffffffffffffffff02191690836fffffffffffffffffffffffffffffffff16021790555060e460008373ffffffffffffffffffffffffffffffffffffffff1673ffffffffffffffffffffffffffffffffffffffff16815260200190815260200160002060000160009054906101000a900460ff1615610d35576040517f08c379a0000000000000000000000000000000000000000000000000000000008152600401610d2c90619182565b60405180910390fd5b6040518061010001604052808373ffffffffffffffffffffffffffffffffffffffff1681526020016001151581526020018281526020016000815260200142815260200142815260200160008152602001600081525060e3600060e660009054906101000a90046fffffffffffffffffffffffffffffffff166fffffffffffffffffffffffffffffffff166fffffffffffffffffffffffffffffffff16815260200190815260200160002060008201518160000160006101000a81548173ffffffffffffffffffffffffffffffffffffffff021916908373ffffffffffffffffffffffffffffffffffffffff16021790555060208201518160000160146101000a81548160ff02191690831515021790555060408201518160010155606082015181600201556080820151816003015560a0820151816004015560c0820151816005015560e08201518160060155905050604051806040016040528060011515815260200160e660009054906101000a90046fffffffffffffffffffffffffffffffff166fffffffffffffffffffffffffffffffff1681525060e460008473ffffffffffffffffffffffffffffffffffffffff1673ffffffffffffffffffffffffffffffffffffffff16815260200190815260200160002060008201518160000160006101000a81548160ff02191690831515021790555060208201518160000160016101000a8154816fffffffffffffffffffffffffffffffff02191690836fffffffffffffffffffffffffffffffff1602179055509050506000610f7b838361530f565b905061102660008054906101000a900473ffffffffffffffffffffffffffffffffffffffff1673ffffffffffffffffffffffffffffffffffffffff1663313ce5676040518163ffffffff1660e01b815260040160206040518083038186803b158015610fe657600080fd5b505afa158015610ffa573d6000803e3d6000fd5b505050506040513d601f19601f8201168201806040525081019061101e91906184ca565b60ff16615668565b610dac611033919061962b565b811015611075576040517f08c379a000000000000000000000000000000000000000000000000000000000815260040161106c90618f82565b60405180910390fd5b61107f838361567e565b505050565b60155481565b60145481565b60ae6020528060005260406000206000915090505481565b60e16020528060005260406000206000915090508060000160009054906101000a900473ffffffffffffffffffffffffffffffffffffffff16908060010160009054906101000a900473ffffffffffffffffffffffffffffffffffffffff16908060010160149054906101000a900460ff16908060020154905084565b607d60009054906101000a900473ffffffffffffffffffffffffffffffffffffffff1681565b600e5481565b60e36020528060005260406000206000915090508060000160009054906101000a900473ffffffffffffffffffffffffffffffffffffffff16908060000160149054906101000a900460ff16908060010154908060020154908060030154908060040154908060050154908060060154905088565b600660009054906101000a900473ffffffffffffffffffffffffffffffffffffffff1681565b600b5481565b60e560003373ffffffffffffffffffffffffffffffffffffffff1673ffffffffffffffffffffffffffffffffffffffff16815260200190815260200160002060009054906101000a900460ff1661127e576040517f08c379a000000000000000000000000000000000000000000000000000000000815260040161127590618ec2565b60405180910390fd5b7f0000000000000000000000000000000000000000000000000000000000000000600b54426112ad9190619685565b11156112f75742600b819055507f4c046938d8adaf12f829530d5ab0441e591705682189298941fd0d767cc22eab60405160405180910390a16112ee6146ae565b6112f6615be5565b5b5050565b60e7818154811061130b57600080fd5b906000526020600020016000915054906101000a900473ffffffffffffffffffffffffffffffffffffffff1681565b60e560003373ffffffffffffffffffffffffffffffffffffffff1673ffffffffffffffffffffffffffffffffffffffff16815260200190815260200160002060009054906101000a900460ff166113c6576040517f08c379a00000000000000000000000000000000000000000000000000000000081526004016113bd90618ec2565b60405180910390fd5b6002600154141561140c576040517f08c379a000000000000000000000000000000000000000000000000000000000815260040161140390619142565b60405180910390fd5b600260018190555060005b828290508110156115145761150183838381811061145e577f4e487b7100000000000000000000000000000000000000000000000000000000600052603260045260246000fd5b90506060020160000160208101906114769190617f43565b8484848181106114af577f4e487b7100000000000000000000000000000000000000000000000000000000600052603260045260246000fd5b905060600201602001358585858181106114f2577f4e487b7100000000000000000000000000000000000000000000000000000000600052603260045260246000fd5b90506060020160400135610b3c565b808061150c9061995d565b915050611417565b50600180819055505050565b60e560003373ffffffffffffffffffffffffffffffffffffffff1673ffffffffffffffffffffffffffffffffffffffff16815260200190815260200160002060009054906101000a900460ff166115ac576040517f08c379a00000000000000000000000000000000000000000000000000000000081526004016115a390618ec2565b60405180910390fd5b6115b68282615c50565b50600d5460e060008473ffffffffffffffffffffffffffffffffffffffff1673ffffffffffffffffffffffffffffffffffffffff16815260200190815260200160002060030154106116165761160c8282616241565b611615826165a6565b5b7fb17a27eee810f4b7ae91846bb18a6e11c3d1b2a438ee836c7e2e5790a367502a60e060008473ffffffffffffffffffffffffffffffffffffffff1673ffffffffffffffffffffffffffffffffffffffff16815260200190815260200160002060405161168391906191e2565b60405180910390a1611694826169ac565b5050565b60e26020528060005260406000206000915090508060000160009054906101000a900473ffffffffffffffffffffffffffffffffffffffff16908060010160009054906101000a900473ffffffffffffffffffffffffffffffffffffffff16908060010160149054906101000a900460ff16908060020154905084565b60e56020528060005260406000206000915054906101000a900460ff1681565b61173e33616b08565b61177d576040517f08c379a000000000000000000000000000000000000000000000000000000000815260040161177490619082565b60405180910390fd5b82826117898282616bbc565b6117c8576040517f08c379a00000000000000000000000000000000000000000000000000000000081526004016117bf906190a2565b60405180910390fd5b6117d3858585616be8565b5050505050565b60e060003373ffffffffffffffffffffffffffffffffffffffff1673ffffffffffffffffffffffffffffffffffffffff16815260200190815260200160002060000160149054906101000a900460ff16611869576040517f08c379a000000000000000000000000000000000000000000000000000000000815260040161186090619102565b60405180910390fd5b60e060003373ffffffffffffffffffffffffffffffffffffffff1673ffffffffffffffffffffffffffffffffffffffff16815260200190815260200160002060040160009054906101000a900460ff16156118f9576040517f08c379a00000000000000000000000000000000000000000000000000000000081526004016118f0906190e2565b60405180910390fd5b6002600154141561193f576040517f08c379a000000000000000000000000000000000000000000000000000000000815260040161193690619142565b60405180910390fd5b600260018190555060e460008373ffffffffffffffffffffffffffffffffffffffff1673ffffffffffffffffffffffffffffffffffffffff16815260200190815260200160002060000160009054906101000a900460ff166119d6576040517f08c379a00000000000000000000000000000000000000000000000000000000081526004016119cd906191a2565b60405180910390fd5b6000338360036040516020016119ee93929190618b2d565b604051602081830303815290604052805190602001209050600061271083600454611a19919061962b565b611a239190619489565b90506000611a31858561530f565b905060ea548111611a77576040517f08c379a0000000000000000000000000000000000000000000000000000000008152600401611a6e90618f02565b60405180910390fd5b611a80336165a6565b600d5460e060003373ffffffffffffffffffffffffffffffffffffffff1673ffffffffffffffffffffffffffffffffffffffff168152602001908152602001600020600201546127108360e060003373ffffffffffffffffffffffffffffffffffffffff1673ffffffffffffffffffffffffffffffffffffffff16815260200190815260200160002060010154611b179190619433565b611b21919061962b565b611b2b9190619489565b10611b6b576040517f08c379a0000000000000000000000000000000000000000000000000000000008152600401611b6290619002565b60405180910390fd5b60e1600084815260200190815260200160002060010160149054906101000a900460ff1615611bc6578360e160008581526020019081526020016000206002016000828254611bba9190619433565b92505081905550611ce5565b60405180608001604052803373ffffffffffffffffffffffffffffffffffffffff1681526020018673ffffffffffffffffffffffffffffffffffffffff1681526020016001151581526020018581525060e1600085815260200190815260200160002060008201518160000160006101000a81548173ffffffffffffffffffffffffffffffffffffffff021916908373ffffffffffffffffffffffffffffffffffffffff16021790555060208201518160010160006101000a81548173ffffffffffffffffffffffffffffffffffffffff021916908373ffffffffffffffffffffffffffffffffffffffff16021790555060408201518160010160146101000a81548160ff021916908315150217905550606082015181600201559050505b8060e060003373ffffffffffffffffffffffffffffffffffffffff1673ffffffffffffffffffffffffffffffffffffffff1681526020019081526020016000206001016000828254611d379190619433565b92505081905550838573ffffffffffffffffffffffffffffffffffffffff166370a08231306040518263ffffffff1660e01b8152600401611d789190618b66565b60206040518083038186803b158015611d9057600080fd5b505afa158015611da4573d6000803e3d6000fd5b505050506040513d601f19601f82011682018060405250810190611dc891906183ac565b1015611e2a57611de485600286611ddf919061962b565b616d43565b6000611e25576040517f08c379a0000000000000000000000000000000000000000000000000000000008152600401611e1c90619062565b60405180910390fd5b611f02565b8473ffffffffffffffffffffffffffffffffffffffff1663a9059cbb338487611e539190619685565b6040518363ffffffff1660e01b8152600401611e70929190618d2f565b602060405180830381600087803b158015611e8a57600080fd5b505af1158015611e9e573d6000803e3d6000fd5b505050506040513d601f19601f82011682018060405250810190611ec291906181ce565b611f01576040517f08c379a0000000000000000000000000000000000000000000000000000000008152600401611ef890619022565b60405180910390fd5b5b611f6d8460018060e460008a73ffffffffffffffffffffffffffffffffffffffff1673ffffffffffffffffffffffffffffffffffffffff16815260200190815260200160002060000160019054906101000a90046fffffffffffffffffffffffffffffffff16616d8b565b7f6b08916d029d07a60616d74a789588507159d3fbfda90bde20ec8c42d9e199d033604051611f9c9190618b66565b60405180910390a17fb17a27eee810f4b7ae91846bb18a6e11c3d1b2a438ee836c7e2e5790a367502a60e060003373ffffffffffffffffffffffffffffffffffffffff1673ffffffffffffffffffffffffffffffffffffffff16815260200190815260200160002060405161201191906191e2565b60405180910390a17f84d6fc9f7244aba67b2ad2bfc67d8d3ed92b7e4932a482888bac6a4595019a15848660405161204a929190619233565b60405180910390a161205b336169ac565b505050600180819055505050565b60105481565b60e46020528060005260406000206000915090508060000160009054906101000a900460ff16908060000160019054906101000a90046fffffffffffffffffffffffffffffffff16905082565b60e060003373ffffffffffffffffffffffffffffffffffffffff1673ffffffffffffffffffffffffffffffffffffffff16815260200190815260200160002060000160149054906101000a900460ff1661214b576040517f08c379a000000000000000000000000000000000000000000000000000000000815260040161214290619102565b60405180910390fd5b60e060003373ffffffffffffffffffffffffffffffffffffffff1673ffffffffffffffffffffffffffffffffffffffff16815260200190815260200160002060040160009054906101000a900460ff16156121db576040517f08c379a00000000000000000000000000000000000000000000000000000000081526004016121d2906190e2565b60405180910390fd5b60026001541415612221576040517f08c379a000000000000000000000000000000000000000000000000000000000815260040161221890619142565b60405180910390fd5b600260018190555060e460008573ffffffffffffffffffffffffffffffffffffffff1673ffffffffffffffffffffffffffffffffffffffff16815260200190815260200160002060000160009054906101000a900460ff166122b8576040517f08c379a00000000000000000000000000000000000000000000000000000000081526004016122af906191a2565b60405180910390fd5b60e460008373ffffffffffffffffffffffffffffffffffffffff1673ffffffffffffffffffffffffffffffffffffffff16815260200190815260200160002060000160009054906101000a900460ff16612347576040517f08c379a000000000000000000000000000000000000000000000000000000000815260040161233e906191c2565b60405180910390fd5b60003385600360405160200161235f93929190618b2d565b60405160208183030381529060405280519060200120905060006127108560045461238a919061962b565b6123949190619489565b905060006123a2878761530f565b905060006123b0868661530f565b905060ea5482116123f6576040517f08c379a00000000000000000000000000000000000000000000000000000000081526004016123ed90619162565b60405180910390fd5b60ea54811161243a576040517f08c379a000000000000000000000000000000000000000000000000000000000815260040161243190618ee2565b60405180910390fd5b612443336165a6565b600d548160e060003373ffffffffffffffffffffffffffffffffffffffff1673ffffffffffffffffffffffffffffffffffffffff168152602001908152602001600020600201546124949190619433565b6127108460e060003373ffffffffffffffffffffffffffffffffffffffff1673ffffffffffffffffffffffffffffffffffffffff168152602001908152602001600020600101546124e59190619433565b6124ef919061962b565b6124f99190619489565b10612539576040517f08c379a000000000000000000000000000000000000000000000000000000000815260040161253090619002565b60405180910390fd5b60e1600085815260200190815260200160002060010160149054906101000a900460ff1615612594578660e1600086815260200190815260200160002060020160008282546125889190619433565b925050819055506126b3565b60405180608001604052803373ffffffffffffffffffffffffffffffffffffffff1681526020018973ffffffffffffffffffffffffffffffffffffffff1681526020016001151581526020018881525060e1600086815260200190815260200160002060008201518160000160006101000a81548173ffffffffffffffffffffffffffffffffffffffff021916908373ffffffffffffffffffffffffffffffffffffffff16021790555060208201518160010160006101000a81548173ffffffffffffffffffffffffffffffffffffffff021916908373ffffffffffffffffffffffffffffffffffffffff16021790555060408201518160010160146101000a81548160ff021916908315150217905550606082015181600201559050505b60e2600085815260200190815260200160002060010160149054906101000a900460ff161561270e578460e2600086815260200190815260200160002060020160008282546127029190619433565b9250508190555061282d565b60405180608001604052803373ffffffffffffffffffffffffffffffffffffffff1681526020018973ffffffffffffffffffffffffffffffffffffffff1681526020016001151581526020018681525060e2600086815260200190815260200160002060008201518160000160006101000a81548173ffffffffffffffffffffffffffffffffffffffff021916908373ffffffffffffffffffffffffffffffffffffffff16021790555060208201518160010160006101000a81548173ffffffffffffffffffffffffffffffffffffffff021916908373ffffffffffffffffffffffffffffffffffffffff16021790555060408201518160010160146101000a81548160ff021916908315150217905550606082015181600201559050505b8160e060003373ffffffffffffffffffffffffffffffffffffffff1673ffffffffffffffffffffffffffffffffffffffff168152602001908152602001600020600101600082825461287f9190619433565b925050819055508060e060003373ffffffffffffffffffffffffffffffffffffffff1673ffffffffffffffffffffffffffffffffffffffff16815260200190815260200160002060020160008282546128d89190619433565b92505081905550868873ffffffffffffffffffffffffffffffffffffffff166370a08231306040518263ffffffff1660e01b81526004016129199190618b66565b60206040518083038186803b15801561293157600080fd5b505afa158015612945573d6000803e3d6000fd5b505050506040513d601f19601f8201168201806040525081019061296991906183ac565b10156129cb5761298588600289612980919061962b565b616d43565b60006129c6576040517f08c379a00000000000000000000000000000000000000000000000000000000081526004016129bd90619062565b60405180910390fd5b612b71565b8573ffffffffffffffffffffffffffffffffffffffff166323b872dd3330886040518463ffffffff1660e01b8152600401612a0893929190618bc6565b602060405180830381600087803b158015612a2257600080fd5b505af1158015612a36573d6000803e3d6000fd5b505050506040513d601f19601f82011682018060405250810190612a5a91906181ce565b612a99576040517f08c379a0000000000000000000000000000000000000000000000000000000008152600401612a9090619022565b60405180910390fd5b8773ffffffffffffffffffffffffffffffffffffffff1663a9059cbb33858a612ac29190619685565b6040518363ffffffff1660e01b8152600401612adf929190618d2f565b602060405180830381600087803b158015612af957600080fd5b505af1158015612b0d573d6000803e3d6000fd5b505050506040513d601f19601f82011682018060405250810190612b3191906181ce565b612b70576040517f08c379a0000000000000000000000000000000000000000000000000000000008152600401612b6790619022565b60405180910390fd5b5b612bdd876001600060e460008d73ffffffffffffffffffffffffffffffffffffffff1673ffffffffffffffffffffffffffffffffffffffff16815260200190815260200160002060000160019054906101000a90046fffffffffffffffffffffffffffffffff16616d8b565b612c49856000600160e460008b73ffffffffffffffffffffffffffffffffffffffff1673ffffffffffffffffffffffffffffffffffffffff16815260200190815260200160002060000160019054906101000a90046fffffffffffffffffffffffffffffffff16616d8b565b7f6b08916d029d07a60616d74a789588507159d3fbfda90bde20ec8c42d9e199d033604051612c789190618b66565b60405180910390a17fb17a27eee810f4b7ae91846bb18a6e11c3d1b2a438ee836c7e2e5790a367502a60e060003373ffffffffffffffffffffffffffffffffffffffff1673ffffffffffffffffffffffffffffffffffffffff168152602001908152602001600020604051612ced91906191e2565b60405180910390a17f6e47dcdd359b6cd69456f0f97d394bd4540a2e7c4adc1b9da076859df53756c78589604051612d26929190619233565b60405180910390a17f84d6fc9f7244aba67b2ad2bfc67d8d3ed92b7e4932a482888bac6a4595019a158789604051612d5f929190619233565b60405180910390a1612d70336169ac565b505050506001808190555050505050565b60e860009054906101000a900463ffffffff1681565b600060607f0000000000000000000000000000000000000000000000000000000000000000600b5442612dca9190619685565b1191509250929050565b612ddc61520a565b612de66000616f80565b565b60165481565b60e560003373ffffffffffffffffffffffffffffffffffffffff1673ffffffffffffffffffffffffffffffffffffffff16815260200190815260200160002060009054906101000a900460ff16612e7a576040517f08c379a0000000000000000000000000000000000000000000000000000000008152600401612e7190618ec2565b60405180910390fd5b60e460008273ffffffffffffffffffffffffffffffffffffffff1673ffffffffffffffffffffffffffffffffffffffff16815260200190815260200160002060000160009054906101000a900460ff1615612f0a576040517f08c379a0000000000000000000000000000000000000000000000000000000008152600401612f0190619182565b60405180910390fd5b600160e660008282829054906101000a90046fffffffffffffffffffffffffffffffff16612f3891906193ed565b92506101000a8154816fffffffffffffffffffffffffffffffff02191690836fffffffffffffffffffffffffffffffff1602179055506040518061010001604052808273ffffffffffffffffffffffffffffffffffffffff168152602001600115158152602001600081526020016000815260200142815260200142815260200160008152602001600081525060e3600060e660009054906101000a90046fffffffffffffffffffffffffffffffff166fffffffffffffffffffffffffffffffff166fffffffffffffffffffffffffffffffff16815260200190815260200160002060008201518160000160006101000a81548173ffffffffffffffffffffffffffffffffffffffff021916908373ffffffffffffffffffffffffffffffffffffffff16021790555060208201518160000160146101000a81548160ff02191690831515021790555060408201518160010155606082015181600201556080820151816003015560a0820151816004015560c0820151816005015560e08201518160060155905050604051806040016040528060011515815260200160e660009054906101000a90046fffffffffffffffffffffffffffffffff166fffffffffffffffffffffffffffffffff1681525060e460008373ffffffffffffffffffffffffffffffffffffffff1673ffffffffffffffffffffffffffffffffffffffff16815260200190815260200160002060008201518160000160006101000a81548160ff02191690831515021790555060208201518160000160016101000a8154816fffffffffffffffffffffffffffffffff02191690836fffffffffffffffffffffffffffffffff16021790555090505050565b60115481565b60e560003373ffffffffffffffffffffffffffffffffffffffff1673ffffffffffffffffffffffffffffffffffffffff16815260200190815260200160002060009054906101000a900460ff1661323e576040517f08c379a000000000000000000000000000000000000000000000000000000000815260040161323590618ec2565b60405180910390fd5b60005b60e660009054906101000a90046fffffffffffffffffffffffffffffffff166fffffffffffffffffffffffffffffffff16816fffffffffffffffffffffffffffffffff16116133bb576132ee8260e36000846fffffffffffffffffffffffffffffffff166fffffffffffffffffffffffffffffffff16815260200190815260200160002060000160009054906101000a900473ffffffffffffffffffffffffffffffffffffffff16615c50565b50600d5460e060008473ffffffffffffffffffffffffffffffffffffffff1673ffffffffffffffffffffffffffffffffffffffff16815260200190815260200160002060030154106133a85761339e8260e36000846fffffffffffffffffffffffffffffffff166fffffffffffffffffffffffffffffffff16815260200190815260200160002060000160009054906101000a900473ffffffffffffffffffffffffffffffffffffffff16616241565b6133a7826165a6565b5b80806133b390619924565b915050613241565b507fb17a27eee810f4b7ae91846bb18a6e11c3d1b2a438ee836c7e2e5790a367502a60e060008373ffffffffffffffffffffffffffffffffffffffff1673ffffffffffffffffffffffffffffffffffffffff16815260200190815260200160002060405161342991906191e2565b60405180910390a161343a816169ac565b50565b6000604a60009054906101000a900473ffffffffffffffffffffffffffffffffffffffff16905090565b60135481565b60e060003373ffffffffffffffffffffffffffffffffffffffff1673ffffffffffffffffffffffffffffffffffffffff16815260200190815260200160002060000160149054906101000a900460ff166134fc576040517f08c379a00000000000000000000000000000000000000000000000000000000081526004016134f390619102565b60405180910390fd5b60e060003373ffffffffffffffffffffffffffffffffffffffff1673ffffffffffffffffffffffffffffffffffffffff16815260200190815260200160002060040160009054906101000a900460ff161561358c576040517f08c379a0000000000000000000000000000000000000000000000000000000008152600401613583906190e2565b60405180910390fd5b600260015414156135d2576040517f08c379a00000000000000000000000000000000000000000000000000000000081526004016135c990619142565b60405180910390fd5b600260018190555060e460008373ffffffffffffffffffffffffffffffffffffffff1673ffffffffffffffffffffffffffffffffffffffff16815260200190815260200160002060000160009054906101000a900460ff16613669576040517f08c379a0000000000000000000000000000000000000000000000000000000008152600401613660906191a2565b60405180910390fd5b60003383600360405160200161368193929190618b2d565b60405160208183030381529060405280519060200120905060006136a5848461530f565b905060ea5481116136eb576040517f08c379a00000000000000000000000000000000000000000000000000000000081526004016136e290618f42565b60405180910390fd5b6136f4336165a6565b8260e16000848152602001908152602001600020600201600082825461371a9190619685565b925050819055508060e060003373ffffffffffffffffffffffffffffffffffffffff1673ffffffffffffffffffffffffffffffffffffffff16815260200190815260200160002060010160008282546137739190619685565b925050819055506137e6836001600060e460008973ffffffffffffffffffffffffffffffffffffffff1673ffffffffffffffffffffffffffffffffffffffff16815260200190815260200160002060000160019054906101000a90046fffffffffffffffffffffffffffffffff16616d8b565b8373ffffffffffffffffffffffffffffffffffffffff166323b872dd3330866040518463ffffffff1660e01b815260040161382393929190618bc6565b602060405180830381600087803b15801561383d57600080fd5b505af1158015613851573d6000803e3d6000fd5b505050506040513d601f19601f8201168201806040525081019061387591906181ce565b6138b4576040517f08c379a00000000000000000000000000000000000000000000000000000000081526004016138ab90619022565b60405180910390fd5b7f6b08916d029d07a60616d74a789588507159d3fbfda90bde20ec8c42d9e199d0336040516138e39190618b66565b60405180910390a17fb17a27eee810f4b7ae91846bb18a6e11c3d1b2a438ee836c7e2e5790a367502a60e060003373ffffffffffffffffffffffffffffffffffffffff1673ffffffffffffffffffffffffffffffffffffffff16815260200190815260200160002060405161395891906191e2565b60405180910390a17fd1014e978dfee75c13d9e11073f136d3fb4cb3562d1d557024029d907932161f8385604051613991929190619233565b60405180910390a16139a2336169ac565b5050600180819055505050565b7f000000000000000000000000000000000000000000000000000000000000000081565b60125481565b60e660009054906101000a90046fffffffffffffffffffffffffffffffff1681565b60045481565b607c60009054906101000a900473ffffffffffffffffffffffffffffffffffffffff1681565b600c5481565b60ea5481565b60e95481565b600f5481565b60008060e36000856fffffffffffffffffffffffffffffffff166fffffffffffffffffffffffffffffffff16815260200190815260200160002060010154613ac060e36000876fffffffffffffffffffffffffffffffff166fffffffffffffffffffffffffffffffff16815260200190815260200160002060020154613c78565b613aca9190619489565b90508215613b48576013548111613afe5780601454613ae9919061962b565b601654613af69190619433565b915050613bba565b60135481613b0c9190619685565b601554613b19919061962b565b601354601454613b29919061962b565b601654613b369190619433565b613b409190619433565b915050613bba565b600f548111613b745780601054613b5f919061962b565b601254613b6c9190619433565b915050613bba565b600f5481613b829190619685565b601154613b8f919061962b565b600f54601054613b9f919061962b565b601254613bac9190619433565b613bb69190619433565b9150505b92915050565b60e06020528060005260406000206000915090508060000160009054906101000a900473ffffffffffffffffffffffffffffffffffffffff16908060000160149054906101000a900460ff16908060010154908060020154908060030154908060040160009054906101000a900460ff16908060050154905087565b613c4461520a565b613c4e8282617046565b5050565b600860009054906101000a900473ffffffffffffffffffffffffffffffffffffffff1681565b600061271082613c88919061962b565b9050919050565b600560009054906101000a900473ffffffffffffffffffffffffffffffffffffffff1681565b600060e060003373ffffffffffffffffffffffffffffffffffffffff1673ffffffffffffffffffffffffffffffffffffffff16815260200190815260200160002060000160149054906101000a900460ff16613d46576040517f08c379a0000000000000000000000000000000000000000000000000000000008152600401613d3d90618fa2565b60405180910390fd5b60e060003373ffffffffffffffffffffffffffffffffffffffff1673ffffffffffffffffffffffffffffffffffffffff16815260200190815260200160002060030154905090565b600a5481565b60e060003373ffffffffffffffffffffffffffffffffffffffff1673ffffffffffffffffffffffffffffffffffffffff16815260200190815260200160002060000160149054906101000a900460ff16613e23576040517f08c379a0000000000000000000000000000000000000000000000000000000008152600401613e1a90619102565b60405180910390fd5b60e060003373ffffffffffffffffffffffffffffffffffffffff1673ffffffffffffffffffffffffffffffffffffffff16815260200190815260200160002060040160009054906101000a900460ff1615613eb3576040517f08c379a0000000000000000000000000000000000000000000000000000000008152600401613eaa906190e2565b60405180910390fd5b60026001541415613ef9576040517f08c379a0000000000000000000000000000000000000000000000000000000008152600401613ef090619142565b60405180910390fd5b600260018190555060e460008573ffffffffffffffffffffffffffffffffffffffff1673ffffffffffffffffffffffffffffffffffffffff16815260200190815260200160002060000160009054906101000a900460ff16613f90576040517f08c379a0000000000000000000000000000000000000000000000000000000008152600401613f87906191a2565b60405180910390fd5b600033856003604051602001613fa893929190618b2d565b604051602081830303815290604052805190602001209050600061271085600454613fd3919061962b565b613fdd9190619489565b90506000613ff6878388613ff19190619685565b61530f565b905060ea54811161403c576040517f08c379a000000000000000000000000000000000000000000000000000000000815260040161403390619162565b60405180910390fd5b8560e260008581526020019081526020016000206002015411614094576040517f08c379a000000000000000000000000000000000000000000000000000000000815260040161408b906190c2565b60405180910390fd5b61409d336165a6565b600d548160e060003373ffffffffffffffffffffffffffffffffffffffff1673ffffffffffffffffffffffffffffffffffffffff168152602001908152602001600020600201546140ee9190619685565b61271060e060003373ffffffffffffffffffffffffffffffffffffffff1673ffffffffffffffffffffffffffffffffffffffff1681526020019081526020016000206001015461413e919061962b565b6141489190619489565b10614188576040517f08c379a000000000000000000000000000000000000000000000000000000000815260040161417f90619002565b60405180910390fd5b8560e2600085815260200190815260200160002060020160008282546141ae9190619685565b925050819055508060e060003373ffffffffffffffffffffffffffffffffffffffff1673ffffffffffffffffffffffffffffffffffffffff16815260200190815260200160002060020160008282546142079190619685565b92505081905550858773ffffffffffffffffffffffffffffffffffffffff166370a08231306040518263ffffffff1660e01b81526004016142489190618b66565b60206040518083038186803b15801561426057600080fd5b505afa158015614274573d6000803e3d6000fd5b505050506040513d601f19601f8201168201806040525081019061429891906183ac565b10156142fa576142b4876002886142af919061962b565b616d43565b60006142f5576040517f08c379a00000000000000000000000000000000000000000000000000000000081526004016142ec90619062565b60405180910390fd5b614481565b84600c54146143a657600560009054906101000a900473ffffffffffffffffffffffffffffffffffffffff1673ffffffffffffffffffffffffffffffffffffffff1663241dc2df8886858a61434f9190619685565b896040518563ffffffff1660e01b815260040161436f9493929190618bfd565b600060405180830381600087803b15801561438957600080fd5b505af115801561439d573d6000803e3d6000fd5b50505050614480565b8673ffffffffffffffffffffffffffffffffffffffff166323b872dd3086858a6143d09190619685565b6040518463ffffffff1660e01b81526004016143ee93929190618bc6565b602060405180830381600087803b15801561440857600080fd5b505af115801561441c573d6000803e3d6000fd5b505050506040513d601f19601f8201168201806040525081019061444091906181ce565b61447f576040517f08c379a000000000000000000000000000000000000000000000000000000000815260040161447690619022565b60405180910390fd5b5b5b6144ec8660008060e460008c73ffffffffffffffffffffffffffffffffffffffff1673ffffffffffffffffffffffffffffffffffffffff16815260200190815260200160002060000160019054906101000a90046fffffffffffffffffffffffffffffffff16616d8b565b7f6b08916d029d07a60616d74a789588507159d3fbfda90bde20ec8c42d9e199d03360405161451b9190618b66565b60405180910390a17fb17a27eee810f4b7ae91846bb18a6e11c3d1b2a438ee836c7e2e5790a367502a60e060003373ffffffffffffffffffffffffffffffffffffffff1673ffffffffffffffffffffffffffffffffffffffff16815260200190815260200160002060405161459091906191e2565b60405180910390a17f8c7cdad0d12a8db3e23561b42da6f10c8137914c97beff202213a410e1f520a386886040516145c9929190619233565b60405180910390a16145da336169ac565b5050506001808190555050505050565b6145f261520a565b6145fb816170a2565b50565b61460661520a565b600073ffffffffffffffffffffffffffffffffffffffff168173ffffffffffffffffffffffffffffffffffffffff161415614676576040517f08c379a000000000000000000000000000000000000000000000000000000000815260040161466d90618f22565b60405180910390fd5b61467f81616f80565b50565b600d5481565b600760009054906101000a900473ffffffffffffffffffffffffffffffffffffffff1681565b60e560003373ffffffffffffffffffffffffffffffffffffffff1673ffffffffffffffffffffffffffffffffffffffff16815260200190815260200160002060009054906101000a900460ff1661473a576040517f08c379a000000000000000000000000000000000000000000000000000000000815260040161473190618ec2565b60405180910390fd5b60005b60e7805490508110156147d057600060e78281548110614786577f4e487b7100000000000000000000000000000000000000000000000000000000600052603260045260246000fd5b9060005260206000200160009054906101000a900473ffffffffffffffffffffffffffffffffffffffff1690506147bc816131b2565b5080806147c89061995d565b91505061473d565b50565b60e560003373ffffffffffffffffffffffffffffffffffffffff1673ffffffffffffffffffffffffffffffffffffffff16815260200190815260200160002060009054906101000a900460ff1661485f576040517f08c379a000000000000000000000000000000000000000000000000000000000815260040161485690618ec2565b60405180910390fd5b8015614871578160ea81905550614b32565b600160e560008573ffffffffffffffffffffffffffffffffffffffff1673ffffffffffffffffffffffffffffffffffffffff16815260200190815260200160002060006101000a81548160ff0219169083151502179055508360000160208101906148dc91906184a1565b67ffffffffffffffff16600f81905550600a5484602001602081019061490291906184a1565b67ffffffffffffffff1681614940577f4e487b7100000000000000000000000000000000000000000000000000000000600052601260045260246000fd5b04601081905550600a5484604001602081019061495d91906184a1565b67ffffffffffffffff168161499b577f4e487b7100000000000000000000000000000000000000000000000000000000600052601260045260246000fd5b04601181905550600a548460600160208101906149b891906184a1565b67ffffffffffffffff16816149f6577f4e487b7100000000000000000000000000000000000000000000000000000000600052601260045260246000fd5b04601281905550836080016020810190614a1091906184a1565b67ffffffffffffffff16601381905550600a548460a0016020810190614a3691906184a1565b67ffffffffffffffff1681614a74577f4e487b7100000000000000000000000000000000000000000000000000000000600052601260045260246000fd5b04601481905550600a548460c0016020810190614a9191906184a1565b67ffffffffffffffff1681614acf577f4e487b7100000000000000000000000000000000000000000000000000000000600052601260045260246000fd5b04601581905550600a548460e0016020810190614aec91906184a1565b67ffffffffffffffff1681614b2a577f4e487b7100000000000000000000000000000000000000000000000000000000600052601260045260246000fd5b046016819055505b50505050565b60e060003373ffffffffffffffffffffffffffffffffffffffff1673ffffffffffffffffffffffffffffffffffffffff16815260200190815260200160002060000160149054906101000a900460ff16614d33576040518060e001604052803373ffffffffffffffffffffffffffffffffffffffff1681526020016001151581526020016000815260200160008152602001600081526020016000151581526020014281525060e060003373ffffffffffffffffffffffffffffffffffffffff1673ffffffffffffffffffffffffffffffffffffffff16815260200190815260200160002060008201518160000160006101000a81548173ffffffffffffffffffffffffffffffffffffffff021916908373ffffffffffffffffffffffffffffffffffffffff16021790555060208201518160000160146101000a81548160ff02191690831515021790555060408201518160010155606082015181600201556080820151816003015560a08201518160040160006101000a81548160ff02191690831515021790555060c0820151816005015590505060e7339080600181540180825580915050600190039060005260206000200160009091909190916101000a81548173ffffffffffffffffffffffffffffffffffffffff021916908373ffffffffffffffffffffffffffffffffffffffff1602179055505b60e060003373ffffffffffffffffffffffffffffffffffffffff1673ffffffffffffffffffffffffffffffffffffffff16815260200190815260200160002060000160149054906101000a900460ff16614dc2576040517f08c379a0000000000000000000000000000000000000000000000000000000008152600401614db990619102565b60405180910390fd5b60e060003373ffffffffffffffffffffffffffffffffffffffff1673ffffffffffffffffffffffffffffffffffffffff16815260200190815260200160002060040160009054906101000a900460ff1615614e52576040517f08c379a0000000000000000000000000000000000000000000000000000000008152600401614e49906190e2565b60405180910390fd5b60026001541415614e98576040517f08c379a0000000000000000000000000000000000000000000000000000000008152600401614e8f90619142565b60405180910390fd5b6002600181905550614eaa828261567e565b600180819055505050565b600080831115614ed65782614ec983613c78565b614ed39190619489565b90505b60e060008573ffffffffffffffffffffffffffffffffffffffff1673ffffffffffffffffffffffffffffffffffffffff16815260200190815260200160002060000160149054906101000a900460ff1615615060578260e060008673ffffffffffffffffffffffffffffffffffffffff1673ffffffffffffffffffffffffffffffffffffffff168152602001908152602001600020600201819055508160e060008673ffffffffffffffffffffffffffffffffffffffff1673ffffffffffffffffffffffffffffffffffffffff168152602001908152602001600020600101819055508060e060008673ffffffffffffffffffffffffffffffffffffffff1673ffffffffffffffffffffffffffffffffffffffff16815260200190815260200160002060030181905550600060e060008673ffffffffffffffffffffffffffffffffffffffff1673ffffffffffffffffffffffffffffffffffffffff16815260200190815260200160002060040160006101000a81548160ff021916908315150217905550615204565b60e7849080600181540180825580915050600190039060005260206000200160009091909190916101000a81548173ffffffffffffffffffffffffffffffffffffffff021916908373ffffffffffffffffffffffffffffffffffffffff1602179055506040518060e001604052808573ffffffffffffffffffffffffffffffffffffffff1681526020016001151581526020018381526020018481526020018281526020016000151581526020014281525060e060008673ffffffffffffffffffffffffffffffffffffffff1673ffffffffffffffffffffffffffffffffffffffff16815260200190815260200160002060008201518160000160006101000a81548173ffffffffffffffffffffffffffffffffffffffff021916908373ffffffffffffffffffffffffffffffffffffffff16021790555060208201518160000160146101000a81548160ff02191690831515021790555060408201518160010155606082015181600201556080820151816003015560a08201518160040160006101000a81548160ff02191690831515021790555060c082015181600501559050505b50505050565b615212617129565b73ffffffffffffffffffffffffffffffffffffffff1661523061343d565b73ffffffffffffffffffffffffffffffffffffffff1614615286576040517f08c379a000000000000000000000000000000000000000000000000000000000815260040161527d90618fe2565b60405180910390fd5b565b80607c60006101000a81548173ffffffffffffffffffffffffffffffffffffffff021916908373ffffffffffffffffffffffffffffffffffffffff1602179055508073ffffffffffffffffffffffffffffffffffffffff167f7c10de8878ed89478ff01b9cd8c11a5271ea8ac91d46f662e6aea7e3adf5b11f60405160405180910390a250565b6000806153bd600660009054906101000a900473ffffffffffffffffffffffffffffffffffffffff1673ffffffffffffffffffffffffffffffffffffffff1663313ce5676040518163ffffffff1660e01b815260040160206040518083038186803b15801561537d57600080fd5b505afa158015615391573d6000803e3d6000fd5b505050506040513d601f19601f820116820180604052508101906153b591906184ca565b60ff16615668565b9050600660009054906101000a900473ffffffffffffffffffffffffffffffffffffffff1673ffffffffffffffffffffffffffffffffffffffff168473ffffffffffffffffffffffffffffffffffffffff16146154635761541d84617131565b905060008111615462576040517f08c379a000000000000000000000000000000000000000000000000000000000815260040161545990618fc2565b60405180910390fd5b5b61550e600660009054906101000a900473ffffffffffffffffffffffffffffffffffffffff1673ffffffffffffffffffffffffffffffffffffffff1663313ce5676040518163ffffffff1660e01b815260040160206040518083038186803b1580156154ce57600080fd5b505afa1580156154e2573d6000803e3d6000fd5b505050506040513d601f19601f8201168201806040525081019061550691906184ca565b60ff16615668565b6155978573ffffffffffffffffffffffffffffffffffffffff1663313ce5676040518163ffffffff1660e01b815260040160206040518083038186803b15801561555757600080fd5b505afa15801561556b573d6000803e3d6000fd5b505050506040513d601f19601f8201168201806040525081019061558f91906184ca565b60ff16615668565b848360008054906101000a900473ffffffffffffffffffffffffffffffffffffffff1673ffffffffffffffffffffffffffffffffffffffff166350d25bcd6040518163ffffffff1660e01b815260040160206040518083038186803b1580156155ff57600080fd5b505afa158015615613573d6000803e3d6000fd5b505050506040513d601f19601f82011682018060405250810190615637919061828e565b615641919061962b565b61564b919061962b565b6156559190619489565b61565f919061962b565b91505092915050565b600081600a615677919061950d565b9050919050565b60e460008373ffffffffffffffffffffffffffffffffffffffff1673ffffffffffffffffffffffffffffffffffffffff16815260200190815260200160002060000160009054906101000a900460ff1661570d576040517f08c379a0000000000000000000000000000000000000000000000000000000008152600401615704906191a2565b60405180910390fd5b60003383600360405160200161572593929190618b2d565b604051602081830303815290604052805190602001209050600061271083600454615750919061962b565b61575a9190619489565b9050600061577385838661576e9190619685565b61530f565b905060ea5481116157b9576040517f08c379a00000000000000000000000000000000000000000000000000000000081526004016157b090619122565b60405180910390fd5b6157c2336165a6565b60e2600084815260200190815260200160002060010160149054906101000a900460ff16156158285781846157f79190619685565b60e26000858152602001908152602001600020600201600082825461581c9190619433565b92505081905550615952565b60405180608001604052803373ffffffffffffffffffffffffffffffffffffffff1681526020018673ffffffffffffffffffffffffffffffffffffffff16815260200160011515815260200183866158809190619685565b81525060e2600085815260200190815260200160002060008201518160000160006101000a81548173ffffffffffffffffffffffffffffffffffffffff021916908373ffffffffffffffffffffffffffffffffffffffff16021790555060208201518160010160006101000a81548173ffffffffffffffffffffffffffffffffffffffff021916908373ffffffffffffffffffffffffffffffffffffffff16021790555060408201518160010160146101000a81548160ff021916908315150217905550606082015181600201559050505b8060e060003373ffffffffffffffffffffffffffffffffffffffff1673ffffffffffffffffffffffffffffffffffffffff16815260200190815260200160002060020160008282546159a49190619433565b92505081905550615a2282856159ba9190619685565b6000600160e460008a73ffffffffffffffffffffffffffffffffffffffff1673ffffffffffffffffffffffffffffffffffffffff16815260200190815260200160002060000160019054906101000a90046fffffffffffffffffffffffffffffffff16616d8b565b8473ffffffffffffffffffffffffffffffffffffffff166323b872dd3330876040518463ffffffff1660e01b8152600401615a5f93929190618bc6565b602060405180830381600087803b158015615a7957600080fd5b505af1158015615a8d573d6000803e3d6000fd5b505050506040513d601f19601f82011682018060405250810190615ab191906181ce565b615af0576040517f08c379a0000000000000000000000000000000000000000000000000000000008152600401615ae790618f62565b60405180910390fd5b7f6b08916d029d07a60616d74a789588507159d3fbfda90bde20ec8c42d9e199d033604051615b1f9190618b66565b60405180910390a17fb17a27eee810f4b7ae91846bb18a6e11c3d1b2a438ee836c7e2e5790a367502a60e060003373ffffffffffffffffffffffffffffffffffffffff1673ffffffffffffffffffffffffffffffffffffffff168152602001908152602001600020604051615b9491906191e2565b60405180910390a17f6e47dcdd359b6cd69456f0f97d394bd4540a2e7c4adc1b9da076859df53756c78486604051615bcd929190619233565b60405180910390a1615bde336169ac565b5050505050565b60005b60e660009054906101000a90046fffffffffffffffffffffffffffffffff166fffffffffffffffffffffffffffffffff16816fffffffffffffffffffffffffffffffff1611615c4d57615c3a8161777e565b8080615c4590619924565b915050615be8565b50565b60008062278d0090508060e060008673ffffffffffffffffffffffffffffffffffffffff1673ffffffffffffffffffffffffffffffffffffffff1681526020019081526020016000206005015442615ca89190619685565b1015615cb857600091505061623b565b600084846003604051602001615cd093929190618b2d565b604051602081830303815290604052805190602001209050600082615d5460e460008873ffffffffffffffffffffffffffffffffffffffff1673ffffffffffffffffffffffffffffffffffffffff16815260200190815260200160002060000160019054906101000a90046fffffffffffffffffffffffffffffffff166001613a3f565b615d5e919061962b565b9050600083615dcc60e460008973ffffffffffffffffffffffffffffffffffffffff1673ffffffffffffffffffffffffffffffffffffffff16815260200190815260200160002060000160019054906101000a90046fffffffffffffffffffffffffffffffff166000613a3f565b615dd6919061962b565b9050600061271060e060008a73ffffffffffffffffffffffffffffffffffffffff1673ffffffffffffffffffffffffffffffffffffffff168152602001908152602001600020600201546002600454615e2f919061962b565b615e39919061962b565b615e439190619489565b905061271060e260008681526020019081526020016000206002015483615e6a919061962b565b615e749190619489565b60e260008681526020019081526020016000206002016000828254615e999190619433565b9250508190555061271060e160008681526020019081526020016000206002015484615ec5919061962b565b615ecf9190619489565b60e160008681526020019081526020016000206002016000828254615ef49190619433565b925050819055508061271060e060008b73ffffffffffffffffffffffffffffffffffffffff1673ffffffffffffffffffffffffffffffffffffffff1681526020019081526020016000206002015484615f4d919061962b565b615f579190619489565b615f619190619685565b60e060008a73ffffffffffffffffffffffffffffffffffffffff1673ffffffffffffffffffffffffffffffffffffffff1681526020019081526020016000206002016000828254615fb29190619433565b9250508190555061271060e060008a73ffffffffffffffffffffffffffffffffffffffff1673ffffffffffffffffffffffffffffffffffffffff168152602001908152602001600020600101548461600a919061962b565b6160149190619489565b60e060008a73ffffffffffffffffffffffffffffffffffffffff1673ffffffffffffffffffffffffffffffffffffffff16815260200190815260200160002060010160008282546160659190619433565b925050819055504260e060008a73ffffffffffffffffffffffffffffffffffffffff1673ffffffffffffffffffffffffffffffffffffffff16815260200190815260200160002060050181905550600060e060008a73ffffffffffffffffffffffffffffffffffffffff1673ffffffffffffffffffffffffffffffffffffffff1681526020019081526020016000206002015411156161e15760e060008973ffffffffffffffffffffffffffffffffffffffff1673ffffffffffffffffffffffffffffffffffffffff1681526020019081526020016000206002015461618c60e060008b73ffffffffffffffffffffffffffffffffffffffff1673ffffffffffffffffffffffffffffffffffffffff16815260200190815260200160002060010154613c78565b6161969190619489565b60e060008a73ffffffffffffffffffffffffffffffffffffffff1673ffffffffffffffffffffffffffffffffffffffff1681526020019081526020016000206003018190555061622a565b600060e060008a73ffffffffffffffffffffffffffffffffffffffff1673ffffffffffffffffffffffffffffffffffffffff168152602001908152602001600020600301819055505b42600e819055506001955050505050505b92915050565b600d5460e060008473ffffffffffffffffffffffffffffffffffffffff1673ffffffffffffffffffffffffffffffffffffffff16815260200190815260200160002060030154106162c7576040517f08c379a00000000000000000000000000000000000000000000000000000000081526004016162be90619042565b60405180910390fd5b6162d0826165a6565b6000828260036040516020016162e893929190618b2d565b60405160208183030381529060405280519060200120905060006163228360e260008581526020019081526020016000206002015461530f565b90506000612710826005600454616339919061962b565b616343919061962b565b61634d9190619489565b9050600060e260008581526020019081526020016000206002018190555080826163779190619685565b60e060008773ffffffffffffffffffffffffffffffffffffffff1673ffffffffffffffffffffffffffffffffffffffff16815260200190815260200160002060020160008282546163c89190619685565b925050819055508160e060008773ffffffffffffffffffffffffffffffffffffffff1673ffffffffffffffffffffffffffffffffffffffff16815260200190815260200160002060010160008282546164219190619685565b92505081905550600060e060008773ffffffffffffffffffffffffffffffffffffffff1673ffffffffffffffffffffffffffffffffffffffff1681526020019081526020016000206002015411156165565760e060008673ffffffffffffffffffffffffffffffffffffffff1673ffffffffffffffffffffffffffffffffffffffff1681526020019081526020016000206002015461650160e060008873ffffffffffffffffffffffffffffffffffffffff1673ffffffffffffffffffffffffffffffffffffffff16815260200190815260200160002060010154613c78565b61650b9190619489565b60e060008773ffffffffffffffffffffffffffffffffffffffff1673ffffffffffffffffffffffffffffffffffffffff1681526020019081526020016000206003018190555061659f565b600060e060008773ffffffffffffffffffffffffffffffffffffffff1673ffffffffffffffffffffffffffffffffffffffff168152602001908152602001600020600301819055505b5050505050565b60008060005b60e660009054906101000a90046fffffffffffffffffffffffffffffffff166fffffffffffffffffffffffffffffffff16816fffffffffffffffffffffffffffffffff16116167a15760008460e36000846fffffffffffffffffffffffffffffffff166fffffffffffffffffffffffffffffffff16815260200190815260200160002060000160009054906101000a900473ffffffffffffffffffffffffffffffffffffffff16600360405160200161666793929190618b2d565b6040516020818303038152906040528051906020012090506166f960e36000846fffffffffffffffffffffffffffffffff166fffffffffffffffffffffffffffffffff16815260200190815260200160002060000160009054906101000a900473ffffffffffffffffffffffffffffffffffffffff1660e260008481526020019081526020016000206002015461530f565b846167049190619433565b935061678060e36000846fffffffffffffffffffffffffffffffff166fffffffffffffffffffffffffffffffff16815260200190815260200160002060000160009054906101000a900473ffffffffffffffffffffffffffffffffffffffff1660e160008481526020019081526020016000206002015461530f565b8361678b9190619433565b925050808061679990619924565b9150506165ac565b508060e060008573ffffffffffffffffffffffffffffffffffffffff1673ffffffffffffffffffffffffffffffffffffffff168152602001908152602001600020600101819055508160e060008573ffffffffffffffffffffffffffffffffffffffff1673ffffffffffffffffffffffffffffffffffffffff16815260200190815260200160002060020181905550600060e060008573ffffffffffffffffffffffffffffffffffffffff1673ffffffffffffffffffffffffffffffffffffffff16815260200190815260200160002060020154111561695e5760e060008473ffffffffffffffffffffffffffffffffffffffff1673ffffffffffffffffffffffffffffffffffffffff1681526020019081526020016000206002015461690960e060008673ffffffffffffffffffffffffffffffffffffffff1673ffffffffffffffffffffffffffffffffffffffff16815260200190815260200160002060010154613c78565b6169139190619489565b60e060008573ffffffffffffffffffffffffffffffffffffffff1673ffffffffffffffffffffffffffffffffffffffff168152602001908152602001600020600301819055506169a7565b600060e060008573ffffffffffffffffffffffffffffffffffffffff1673ffffffffffffffffffffffffffffffffffffffff168152602001908152602001600020600301819055505b505050565b600160e060008373ffffffffffffffffffffffffffffffffffffffff1673ffffffffffffffffffffffffffffffffffffffff16815260200190815260200160002060040160006101000a81548160ff0219169083151502179055507f0de0801d2bf2b41440c4e647f8fe85feef86cbb220c0e339715f888dc2b89c6181604051616a369190618b66565b60405180910390a1616b0560e860009054906101000a900463ffffffff168260e060008573ffffffffffffffffffffffffffffffffffffffff1673ffffffffffffffffffffffffffffffffffffffff1681526020019081526020016000206002015460e060008673ffffffffffffffffffffffffffffffffffffffff1673ffffffffffffffffffffffffffffffffffffffff16815260200190815260200160002060010154604051602001616aed93929190618d8f565b60405160208183030381529060405262989680617861565b50565b6000607c60009054906101000a900473ffffffffffffffffffffffffffffffffffffffff1673ffffffffffffffffffffffffffffffffffffffff1663282f51eb836040518263ffffffff1660e01b8152600401616b659190618b66565b60206040518083038186803b158015616b7d57600080fd5b505afa158015616b91573d6000803e3d6000fd5b505050506040513d601f19601f82011682018060405250810190616bb591906181ce565b9050919050565b60008160ae60008563ffffffff1663ffffffff1681526020019081526020016000205414905092915050565b60e860009054906101000a900463ffffffff1663ffffffff168363ffffffff161415616d3e57600080600083806020019051810190616c279190617f6c565b92509250925060e060008473ffffffffffffffffffffffffffffffffffffffff1673ffffffffffffffffffffffffffffffffffffffff16815260200190815260200160002060000160149054906101000a900460ff1615616c9257616c8d838383614eb5565b616d3a565b816002616c9f919061962b565b8373ffffffffffffffffffffffffffffffffffffffff166370a08231306040518263ffffffff1660e01b8152600401616cd89190618b66565b60206040518083038186803b158015616cf057600080fd5b505afa158015616d04573d6000803e3d6000fd5b505050506040513d601f19601f82011682018060405250810190616d2891906183ac565b1115616d3957616d38838361791f565b5b5b5050505b505050565b616d8760e860009054906101000a900463ffffffff1683836000604051602001616d6f93929190618d58565b60405160208183030381529060405262989680617861565b5050565b8215616e83578115616ded578360e36000836fffffffffffffffffffffffffffffffff166fffffffffffffffffffffffffffffffff1681526020019081526020016000206002016000828254616de19190619685565b92505081905550616e3f565b8360e36000836fffffffffffffffffffffffffffffffff166fffffffffffffffffffffffffffffffff1681526020019081526020016000206002016000828254616e379190619433565b925050819055505b4260e36000836fffffffffffffffffffffffffffffffff166fffffffffffffffffffffffffffffffff16815260200190815260200160002060030181905550616f71565b8115616edf578360e36000836fffffffffffffffffffffffffffffffff166fffffffffffffffffffffffffffffffff1681526020019081526020016000206001016000828254616ed39190619433565b92505081905550616f31565b8360e36000836fffffffffffffffffffffffffffffffff166fffffffffffffffffffffffffffffffff1681526020019081526020016000206001016000828254616f299190619685565b925050819055505b4260e36000836fffffffffffffffffffffffffffffffff166fffffffffffffffffffffffffffffffff168152602001908152602001600020600401819055505b616f7a8161777e565b50505050565b6000604a60009054906101000a900473ffffffffffffffffffffffffffffffffffffffff16905081604a60006101000a81548173ffffffffffffffffffffffffffffffffffffffff021916908373ffffffffffffffffffffffffffffffffffffffff1602179055508173ffffffffffffffffffffffffffffffffffffffff168173ffffffffffffffffffffffffffffffffffffffff167f8be0079c531659141344cd1fd0a4f28419497f9722a3daafe3b4186f6b6457e060405160405180910390a35050565b8060ae60008463ffffffff1663ffffffff16815260200190815260200160002081905550808263ffffffff167f97fd51fef1f80c854cbd0150c248e8b2ac4ecdc97cc05e742b5f61c9f4dc645860405160405180910390a35050565b80607d60006101000a81548173ffffffffffffffffffffffffffffffffffffffff021916908373ffffffffffffffffffffffffffffffffffffffff1602179055508073ffffffffffffffffffffffffffffffffffffffff167fb87f5a0bface22cde699143559fb99f990ae54eea236995fc54178af91af859f60405160405180910390a250565b600033905090565b6000806171bd8373ffffffffffffffffffffffffffffffffffffffff1663313ce5676040518163ffffffff1660e01b815260040160206040518083038186803b15801561717d57600080fd5b505afa158015617191573d6000803e3d6000fd5b505050506040513d601f19601f820116820180604052508101906171b591906184ca565b60ff16615668565b90506000600267ffffffffffffffff811115617202577f4e487b7100000000000000000000000000000000000000000000000000000000600052604160045260246000fd5b6040519080825280602002602001820160405280156172305781602001602082028036833780820191505090505b509050838160008151811061726e577f4e487b7100000000000000000000000000000000000000000000000000000000600052603260045260246000fd5b602002602001019073ffffffffffffffffffffffffffffffffffffffff16908173ffffffffffffffffffffffffffffffffffffffff1681525050600660009054906101000a900473ffffffffffffffffffffffffffffffffffffffff1681600181518110617305577f4e487b7100000000000000000000000000000000000000000000000000000000600052603260045260246000fd5b602002602001019073ffffffffffffffffffffffffffffffffffffffff16908173ffffffffffffffffffffffffffffffffffffffff1681525050600061737a836001617351919061962b565b600260009054906101000a900473ffffffffffffffffffffffffffffffffffffffff16846179da565b9050600081111561739057809350505050617779565b600367ffffffffffffffff8111156173d1577f4e487b7100000000000000000000000000000000000000000000000000000000600052604160045260246000fd5b6040519080825280602002602001820160405280156173ff5781602001602082028036833780820191505090505b509150848260008151811061743d577f4e487b7100000000000000000000000000000000000000000000000000000000600052603260045260246000fd5b602002602001019073ffffffffffffffffffffffffffffffffffffffff16908173ffffffffffffffffffffffffffffffffffffffff1681525050600760009054906101000a900473ffffffffffffffffffffffffffffffffffffffff16826001815181106174d4577f4e487b7100000000000000000000000000000000000000000000000000000000600052603260045260246000fd5b602002602001019073ffffffffffffffffffffffffffffffffffffffff16908173ffffffffffffffffffffffffffffffffffffffff1681525050600660009054906101000a900473ffffffffffffffffffffffffffffffffffffffff168260028151811061756b577f4e487b7100000000000000000000000000000000000000000000000000000000600052603260045260246000fd5b602002602001019073ffffffffffffffffffffffffffffffffffffffff16908173ffffffffffffffffffffffffffffffffffffffff16815250506175de8360016175b5919061962b565b600260009054906101000a900473ffffffffffffffffffffffffffffffffffffffff16846179da565b905060008111156175f457809350505050617779565b600860009054906101000a900473ffffffffffffffffffffffffffffffffffffffff1682600181518110617651577f4e487b7100000000000000000000000000000000000000000000000000000000600052603260045260246000fd5b602002602001019073ffffffffffffffffffffffffffffffffffffffff16908173ffffffffffffffffffffffffffffffffffffffff1681525050600660009054906101000a900473ffffffffffffffffffffffffffffffffffffffff16826002815181106176e8577f4e487b7100000000000000000000000000000000000000000000000000000000600052603260045260246000fd5b602002602001019073ffffffffffffffffffffffffffffffffffffffff16908173ffffffffffffffffffffffffffffffffffffffff168152505061775b836001617732919061962b565b600260009054906101000a900473ffffffffffffffffffffffffffffffffffffffff16846179da565b9050600081111561777157809350505050617779565b600093505050505b919050565b60e36000826fffffffffffffffffffffffffffffffff166fffffffffffffffffffffffffffffffff16815260200190815260200160002060000160149054906101000a900460ff161561785e576177d6816001613a3f565b60e36000836fffffffffffffffffffffffffffffffff166fffffffffffffffffffffffffffffffff1681526020019081526020016000206005018190555061781f816000613a3f565b60e36000836fffffffffffffffffffffffffffffffff166fffffffffffffffffffffffffffffffff168152602001908152602001600020600601819055505b50565b600061786b617ac7565b9050600061787a828686617b6e565b9050600083111561791857607d60009054906101000a900473ffffffffffffffffffffffffffffffffffffffff1673ffffffffffffffffffffffffffffffffffffffff1663a5703c8e848484896040518563ffffffff1660e01b81526004016178e593929190618dc6565b6000604051808303818588803b1580156178fe57600080fd5b505af1158015617912573d6000803e3d6000fd5b50505050505b5050505050565b600560009054906101000a900473ffffffffffffffffffffffffffffffffffffffff1673ffffffffffffffffffffffffffffffffffffffff1663241dc2df8360e860049054906101000a900473ffffffffffffffffffffffffffffffffffffffff168460e9546040518563ffffffff1660e01b81526004016179a49493929190618bfd565b600060405180830381600087803b1580156179be57600080fd5b505af11580156179d2573d6000803e3d6000fd5b505050505050565b6000808373ffffffffffffffffffffffffffffffffffffffff1663d06ca61f86856040518363ffffffff1660e01b8152600401617a1892919061925c565b60006040518083038186803b158015617a3057600080fd5b505afa158015617a44573d6000803e3d6000fd5b505050506040513d6000823e3d601f19601f82011682018060405250810190617a6d919061818d565b90508060018251617a7e9190619685565b81518110617ab5577f4e487b7100000000000000000000000000000000000000000000000000000000600052603260045260246000fd5b60200260200101519150509392505050565b6000607c60009054906101000a900473ffffffffffffffffffffffffffffffffffffffff1673ffffffffffffffffffffffffffffffffffffffff1663ce11e6ab6040518163ffffffff1660e01b815260040160206040518083038186803b158015617b3157600080fd5b505afa158015617b45573d6000803e3d6000fd5b505050506040513d601f19601f82011682018060405250810190617b699190618265565b905090565b600080617b7a84617c15565b90508473ffffffffffffffffffffffffffffffffffffffff1663fa31de018583866040518463ffffffff1660e01b8152600401617bb9939291906192a7565b602060405180830381600087803b158015617bd357600080fd5b505af1158015617be7573d6000803e3d6000fd5b505050506040513d601f19601f82011682018060405250810190617c0b91906183ac565b9150509392505050565b600060ae60008363ffffffff1663ffffffff1681526020019081526020016000205490506000801b811415617c7f576040517f08c379a0000000000000000000000000000000000000000000000000000000008152600401617c76906190a2565b60405180910390fd5b919050565b6000617c97617c928461930a565b6192e5565b90508083825260208201905082856020860282011115617cb657600080fd5b60005b85811015617ce65781617ccc8882617eef565b845260208401935060208301925050600181019050617cb9565b5050509392505050565b6000617d03617cfe84619336565b6192e5565b905082815260208101848484011115617d1b57600080fd5b617d26848285619817565b509392505050565b600081359050617d3d8161a048565b92915050565b600081519050617d528161a05f565b92915050565b60008083601f840112617d6a57600080fd5b8235905067ffffffffffffffff811115617d8357600080fd5b602083019150836060820283011115617d9b57600080fd5b9250929050565b600082601f830112617db357600080fd5b8151617dc3848260208601617c84565b91505092915050565b600081359050617ddb8161a076565b92915050565b600081519050617df08161a076565b92915050565b600081359050617e058161a08d565b92915050565b60008083601f840112617e1d57600080fd5b8235905067ffffffffffffffff811115617e3657600080fd5b602083019150836001820283011115617e4e57600080fd5b9250929050565b600082601f830112617e6657600080fd5b8135617e76848260208601617cf0565b91505092915050565b600081519050617e8e8161a0a4565b92915050565b600081519050617ea38161a0bb565b92915050565b60006101008284031215617ebc57600080fd5b81905092915050565b600081359050617ed48161a0d2565b92915050565b600081359050617ee98161a0e9565b92915050565b600081519050617efe8161a0e9565b92915050565b600081359050617f138161a100565b92915050565b600081359050617f288161a117565b92915050565b600081519050617f3d8161a12e565b92915050565b600060208284031215617f5557600080fd5b6000617f6384828501617d2e565b91505092915050565b600080600060608486031215617f8157600080fd5b6000617f8f86828701617d43565b9350506020617fa086828701617eef565b9250506040617fb186828701617eef565b9150509250925092565b60008060408385031215617fce57600080fd5b6000617fdc85828601617d2e565b9250506020617fed85828601617d2e565b9150509250929050565b6000806040838503121561800a57600080fd5b600061801885828601617d2e565b925050602061802985828601617eda565b9150509250929050565b6000806000806080858703121561804957600080fd5b600061805787828801617d2e565b945050602061806887828801617eda565b935050604061807987828801617d2e565b925050606061808a87828801617eda565b91505092959194509250565b6000806000606084860312156180ab57600080fd5b60006180b986828701617d2e565b93505060206180ca86828701617eda565b92505060406180db86828701617eda565b9150509250925092565b600080600080608085870312156180fb57600080fd5b600061810987828801617d2e565b945050602061811a87828801617eda565b935050604061812b87828801617eda565b925050606061813c87828801617d2e565b91505092959194509250565b6000806020838503121561815b57600080fd5b600083013567ffffffffffffffff81111561817557600080fd5b61818185828601617d58565b92509250509250929050565b60006020828403121561819f57600080fd5b600082015167ffffffffffffffff8111156181b957600080fd5b6181c584828501617da2565b91505092915050565b6000602082840312156181e057600080fd5b60006181ee84828501617de1565b91505092915050565b60006020828403121561820957600080fd5b600061821784828501617df6565b91505092915050565b6000806020838503121561823357600080fd5b600083013567ffffffffffffffff81111561824d57600080fd5b61825985828601617e0b565b92509250509250929050565b60006020828403121561827757600080fd5b600061828584828501617e7f565b91505092915050565b6000602082840312156182a057600080fd5b60006182ae84828501617e94565b91505092915050565b60008060008061016085870312156182ce57600080fd5b60006182dc87828801617ea9565b9450506101006182ee87828801617d2e565b93505061012061830087828801617eda565b92505061014061831287828801617dcc565b91505092959194509250565b60006020828403121561833057600080fd5b600061833e84828501617ec5565b91505092915050565b6000806040838503121561835a57600080fd5b600061836885828601617ec5565b925050602061837985828601617dcc565b9150509250929050565b60006020828403121561839557600080fd5b60006183a384828501617eda565b91505092915050565b6000602082840312156183be57600080fd5b60006183cc84828501617eef565b91505092915050565b6000602082840312156183e757600080fd5b60006183f584828501617f04565b91505092915050565b6000806040838503121561841157600080fd5b600061841f85828601617f04565b925050602061843085828601617df6565b9150509250929050565b60008060006060848603121561844f57600080fd5b600061845d86828701617f04565b935050602061846e86828701617df6565b925050604084013567ffffffffffffffff81111561848b57600080fd5b61849786828701617e55565b9150509250925092565b6000602082840312156184b357600080fd5b60006184c184828501617f19565b91505092915050565b6000602082840312156184dc57600080fd5b60006184ea84828501617f2e565b91505092915050565b60006184ff838361850b565b60208301905092915050565b618514816196f0565b82525050565b618523816196f0565b82525050565b61853a618535826196f0565b6199a6565b82525050565b600061854b8261938c565b61855581856193af565b935061856083619367565b8060005b8381101561859157815161857888826184f3565b9750618583836193a2565b925050600181019050618564565b5085935050505092915050565b6185a781619714565b82525050565b6185b681619714565b82525050565b6185c581619720565b82525050565b60006185d682619397565b6185e081856193c0565b93506185f0818560208601619826565b6185f981619a86565b840191505092915050565b61860d816197bd565b82525050565b61861c816197e1565b82525050565b61862b81619805565b82525050565b6000815461863e81619859565b61864881866193e2565b945060018216600081146186635760018114618674576186a7565b60ff198316865281860193506186a7565b61867d85619377565b60005b8381101561869f57815481890152600182019150602081019050618680565b838801955050505b50505092915050565b60006186bd602f836193d1565b91506186c882619acb565b604082019050919050565b60006186e06014836193d1565b91506186eb82619b1a565b602082019050919050565b60006187036038836193d1565b915061870e82619b43565b604082019050919050565b60006187266026836193d1565b915061873182619b92565b604082019050919050565b60006187496014836193d1565b915061875482619be1565b602082019050919050565b600061876c6022836193d1565b915061877782619c0a565b604082019050919050565b600061878f6019836193d1565b915061879a82619c59565b602082019050919050565b60006187b2600e836193d1565b91506187bd82619c82565b602082019050919050565b60006187d56026836193d1565b91506187e082619cab565b604082019050919050565b60006187f86020836193d1565b915061880382619cfa565b602082019050919050565b600061881b6022836193d1565b915061882682619d23565b604082019050919050565b600061883e6013836193d1565b915061884982619d72565b602082019050919050565b60006188616018836193d1565b915061886c82619d9b565b602082019050919050565b60006188846046836193d1565b915061888f82619dc4565b606082019050919050565b60006188a76006836193d1565b91506188b282619e39565b602082019050919050565b60006188ca6007836193d1565b91506188d582619e62565b602082019050919050565b60006188ed6014836193d1565b91506188f882619e8b565b602082019050919050565b6000618910602f836193d1565b915061891b82619eb4565b604082019050919050565b60006189336017836193d1565b915061893e82619f03565b602082019050919050565b60006189566037836193d1565b915061896182619f2c565b604082019050919050565b6000618979601f836193d1565b915061898482619f7b565b602082019050919050565b600061899c600e836193d1565b91506189a782619fa4565b602082019050919050565b60006189bf6018836193d1565b91506189ca82619fcd565b602082019050919050565b60006189e26014836193d1565b91506189ed82619ff6565b602082019050919050565b6000618a056018836193d1565b9150618a108261a01f565b602082019050919050565b60e082016000808301549050618a308161988b565b618a3d600086018261850b565b50618a47816198d9565b618a54602086018261859e565b5060018301549050618a65816198bf565b618a726040860182618b00565b5060028301549050618a83816198bf565b618a906060860182618b00565b5060038301549050618aa1816198bf565b618aae6080860182618b00565b5060048301549050618abf816198a5565b618acc60a086018261859e565b5060058301549050618add816198bf565b618aea60c0860182618b00565b5050505050565b618afa81619746565b82525050565b618b0981619782565b82525050565b618b1881619782565b82525050565b618b278161978c565b82525050565b6000618b398286618529565b601482019150618b498285618529565b601482019150618b598284618631565b9150819050949350505050565b6000602082019050618b7b600083018461851a565b92915050565b6000608082019050618b96600083018761851a565b618ba3602083018661851a565b618bb060408301856185ad565b618bbd6060830184618b0f565b95945050505050565b6000606082019050618bdb600083018661851a565b618be8602083018561851a565b618bf56040830184618b0f565b949350505050565b6000608082019050618c12600083018761851a565b618c1f602083018661851a565b618c2c6040830185618b0f565b618c396060830184618b0f565b95945050505050565b600060e082019050618c57600083018a61851a565b618c6460208301896185ad565b618c716040830188618b0f565b618c7e6060830187618b0f565b618c8b6080830186618b0f565b618c9860a08301856185ad565b618ca560c0830184618b0f565b98975050505050505050565b600061010082019050618cc7600083018b61851a565b618cd4602083018a6185ad565b618ce16040830189618b0f565b618cee6060830188618b0f565b618cfb6080830187618b0f565b618d0860a0830186618b0f565b618d1560c0830185618b0f565b618d2260e0830184618b0f565b9998505050505050505050565b6000604082019050618d44600083018561851a565b618d516020830184618b0f565b9392505050565b6000606082019050618d6d600083018661851a565b618d7a6020830185618b0f565b618d876040830184618622565b949350505050565b6000606082019050618da4600083018661851a565b618db16020830185618b0f565b618dbe6040830184618b0f565b949350505050565b6000606082019050618ddb600083018661851a565b618de86020830185618b0f565b618df56040830184618b1e565b949350505050565b6000602082019050618e1260008301846185ad565b92915050565b6000604082019050618e2d60008301856185ad565b8181036020830152618e3f81846185cb565b90509392505050565b6000604082019050618e5d60008301856185ad565b618e6a6020830184618af1565b9392505050565b6000602082019050618e8660008301846185bc565b92915050565b6000602082019050618ea16000830184618604565b92915050565b6000602082019050618ebc6000830184618613565b92915050565b60006020820190508181036000830152618edb816186b0565b9050919050565b60006020820190508181036000830152618efb816186d3565b9050919050565b60006020820190508181036000830152618f1b816186f6565b9050919050565b60006020820190508181036000830152618f3b81618719565b9050919050565b60006020820190508181036000830152618f5b8161873c565b9050919050565b60006020820190508181036000830152618f7b8161875f565b9050919050565b60006020820190508181036000830152618f9b81618782565b9050919050565b60006020820190508181036000830152618fbb816187a5565b9050919050565b60006020820190508181036000830152618fdb816187c8565b9050919050565b60006020820190508181036000830152618ffb816187eb565b9050919050565b6000602082019050818103600083015261901b8161880e565b9050919050565b6000602082019050818103600083015261903b81618831565b9050919050565b6000602082019050818103600083015261905b81618854565b9050919050565b6000602082019050818103600083015261907b81618877565b9050919050565b6000602082019050818103600083015261909b8161889a565b9050919050565b600060208201905081810360008301526190bb816188bd565b9050919050565b600060208201905081810360008301526190db816188e0565b9050919050565b600060208201905081810360008301526190fb81618903565b9050919050565b6000602082019050818103600083015261911b81618926565b9050919050565b6000602082019050818103600083015261913b81618949565b9050919050565b6000602082019050818103600083015261915b8161896c565b9050919050565b6000602082019050818103600083015261917b8161898f565b9050919050565b6000602082019050818103600083015261919b816189b2565b9050919050565b600060208201905081810360008301526191bb816189d5565b9050919050565b600060208201905081810360008301526191db816189f8565b9050919050565b600060e0820190506191f76000830184618a1b565b92915050565b60006020820190506192126000830184618af1565b92915050565b600060208201905061922d6000830184618b0f565b92915050565b60006040820190506192486000830185618b0f565b619255602083018461851a565b9392505050565b60006040820190506192716000830185618b0f565b81810360208301526192838184618540565b90509392505050565b60006020820190506192a16000830184618b1e565b92915050565b60006060820190506192bc6000830186618b1e565b6192c960208301856185bc565b81810360408301526192db81846185cb565b9050949350505050565b60006192ef619300565b90506192fb82826198f3565b919050565b6000604051905090565b600067ffffffffffffffff82111561932557619324619a57565b5b602082029050602081019050919050565b600067ffffffffffffffff82111561935157619350619a57565b5b61935a82619a86565b9050602081019050919050565b6000819050602082019050919050565b60008190508160005260206000209050919050565b600081519050919050565b600081519050919050565b6000602082019050919050565b600082825260208201905092915050565b600082825260208201905092915050565b600082825260208201905092915050565b600081905092915050565b60006193f882619746565b915061940383619746565b9250826fffffffffffffffffffffffffffffffff03821115619428576194276199ca565b5b828201905092915050565b600061943e82619782565b915061944983619782565b9250827fffffffffffffffffffffffffffffffffffffffffffffffffffffffffffffffff0382111561947e5761947d6199ca565b5b828201905092915050565b600061949482619782565b915061949f83619782565b9250826194af576194ae6199f9565b5b828204905092915050565b6000808291508390505b6001851115619504578086048111156194e0576194df6199ca565b5b60018516156194ef5780820291505b80810290506194fd85619abe565b94506194c4565b94509492505050565b600061951882619782565b915061952383619782565b92506195507fffffffffffffffffffffffffffffffffffffffffffffffffffffffffffffffff8484619558565b905092915050565b6000826195685760019050619624565b816195765760009050619624565b816001811461958c5760028114619596576195c5565b6001915050619624565b60ff8411156195a8576195a76199ca565b5b8360020a9150848211156195bf576195be6199ca565b5b50619624565b5060208310610133831016604e8410600b84101617156195fa5782820a9050838111156195f5576195f46199ca565b5b619624565b61960784848460016194ba565b9250905081840481111561961e5761961d6199ca565b5b81810290505b9392505050565b600061963682619782565b915061964183619782565b9250817fffffffffffffffffffffffffffffffffffffffffffffffffffffffffffffffff048311821515161561967a576196796199ca565b5b828202905092915050565b600061969082619782565b915061969b83619782565b9250828210156196ae576196ad6199ca565b5b828203905092915050565b600073ffffffffffffffffffffffffffffffffffffffff82169050919050565b600060ff82169050919050565b6000819050919050565b60006196fb82619762565b9050919050565b600061970d82619762565b9050919050565b60008115159050919050565b6000819050919050565b6000619735826196f0565b9050919050565b6000819050919050565b60006fffffffffffffffffffffffffffffffff82169050919050565b600073ffffffffffffffffffffffffffffffffffffffff82169050919050565b6000819050919050565b600063ffffffff82169050919050565b600067ffffffffffffffff82169050919050565b600060ff82169050919050565b60006197c8826197cf565b9050919050565b60006197da82619762565b9050919050565b60006197ec826197f3565b9050919050565b60006197fe82619762565b9050919050565b6000619810826197b0565b9050919050565b82818337600083830152505050565b60005b83811015619844578082015181840152602081019050619829565b83811115619853576000848401525b50505050565b6000600282049050600182168061987157607f821691505b6020821081141561988557619884619a28565b5b50919050565b600061989e61989983619aa4565b6196b9565b9050919050565b60006198b86198b383619aa4565b6196d9565b9050919050565b60006198d26198cd83619aa4565b6196e6565b9050919050565b60006198ec6198e783619ab1565b6196d9565b9050919050565b6198fc82619a86565b810181811067ffffffffffffffff8211171561991b5761991a619a57565b5b80604052505050565b600061992f82619746565b91506fffffffffffffffffffffffffffffffff821415619952576199516199ca565b5b600182019050919050565b600061996882619782565b91507fffffffffffffffffffffffffffffffffffffffffffffffffffffffffffffffff82141561999b5761999a6199ca565b5b600182019050919050565b60006199b1826199b8565b9050919050565b60006199c382619a97565b9050919050565b7f4e487b7100000000000000000000000000000000000000000000000000000000600052601160045260246000fd5b7f4e487b7100000000000000000000000000000000000000000000000000000000600052601260045260246000fd5b7f4e487b7100000000000000000000000000000000000000000000000000000000600052602260045260246000fd5b7f4e487b7100000000000000000000000000000000000000000000000000000000600052604160045260246000fd5b6000601f19601f8301169050919050565b60008160601b9050919050565b60008160001c9050919050565b60008160a01c9050919050565b60008160011c9050919050565b7f55736572206e6f7420616c6c6f77656420666f7220746869732066756e63746960008201527f6f6e2c2041646d696e206f6e6c792e0000000000000000000000000000000000602082015250565b7f496e70757420616d6f756e7420746f6f206c6f77000000000000000000000000600082015250565b7f416d6f756e7420746f6f206c6f7720746f20726570617920776974682c20696e60008201527f707574206174206c656173742035205553442076616c75650000000000000000602082015250565b7f4f776e61626c653a206e6577206f776e657220697320746865207a65726f206160008201527f6464726573730000000000000000000000000000000000000000000000000000602082015250565b7f496e70757420416d6f756e7420746f6f206c6f77000000000000000000000000600082015250565b7f7472616e7366657246726f6d206661696c65642066726f6d20636f6e7472616360008201527f742e000000000000000000000000000000000000000000000000000000000000602082015250565b7f4e6f7420656e6f756768207374617274206e657720706f6f6c00000000000000600082015250565b7f55736572206e6f7420666f756e64000000000000000000000000000000000000600082015250565b7f7072696365206f7574707574206d75737420626520677265617465722074686160008201527f6e207a65726f0000000000000000000000000000000000000000000000000000602082015250565b7f4f776e61626c653a2063616c6c6572206973206e6f7420746865206f776e6572600082015250565b7f416d6f756e742067726561746572207468616e20616c6c6f77656420616d6f7560008201527f6e74000000000000000000000000000000000000000000000000000000000000602082015250565b7f7472616e7366657246726f6d206661696c656400000000000000000000000000600082015250565b7f4c69717569646174696f6e206e6f7420706f737369626c650000000000000000600082015250565b7f4e6f7420656e6f756768204c697175696469747920746f2073656e6420746f2060008201527f757365722c20706c656173652074727920616761696e20616674657220736f6d60208201527f6574696d652e0000000000000000000000000000000000000000000000000000604082015250565b7f21696e626f780000000000000000000000000000000000000000000000000000600082015250565b7f21726f7574657200000000000000000000000000000000000000000000000000600082015250565b7f4e6f7420656e6f756768206c6971756964697479000000000000000000000000600082015250565b7f4e6f7420616c6c6f77656420746f20706572666f726d2061207472616e73616360008201527f74696f6e207269676874206e6f772e0000000000000000000000000000000000602082015250565b7f7573657220646f6573206e6f7420657869737420796574000000000000000000600082015250565b7f416d6f756e7420746f6f206c6f772c20656e74657220616e20696e707574206760008201527f726561746572207468616e2035205553442076616c7565000000000000000000602082015250565b7f5265656e7472616e637947756172643a207265656e7472616e742063616c6c00600082015250565b7f416d6f756e7420746f6f206c6f77000000000000000000000000000000000000600082015250565b7f6d61726b657420616c726561647920617661696c61626c650000000000000000600082015250565b7f6d61726b6574206e6f7420617661696c61626c65000000000000000000000000600082015250565b7f436f6c206d61726b6574206e6f7420617661696c61626c650000000000000000600082015250565b61a051816196f0565b811461a05c57600080fd5b50565b61a06881619702565b811461a07357600080fd5b50565b61a07f81619714565b811461a08a57600080fd5b50565b61a09681619720565b811461a0a157600080fd5b50565b61a0ad8161972a565b811461a0b857600080fd5b50565b61a0c48161973c565b811461a0cf57600080fd5b50565b61a0db81619746565b811461a0e657600080fd5b50565b61a0f281619782565b811461a0fd57600080fd5b50565b61a1098161978c565b811461a11457600080fd5b50565b61a1208161979c565b811461a12b57600080fd5b50565b61a137816197b0565b811461a14257600080fd5b5056fea2646970667358221220ac07cc4d64cf48d2fd0be13645b1ac1df3e44f93b8e1da891cedb863f160339464736f6c63430008040033",
  "linkReferences": {},
  "deployedLinkReferences": {}
}