{
  "_format": "hh-sol-artifact-1",
  "contractName": "HeadenFinanceChild",
  "sourceName": "contracts/headenFinanceChild.sol",
  "abi": [
    {
      "inputs": [
        {
          "internalType": "uint256",
          "name": "_interval",
          "type": "uint256"
        },
        {
          "internalType": "address",
          "name": "_multichainRouter",
          "type": "address"
        },
        {
          "internalType": "string",
          "name": "_hashSalt",
          "type": "string"
        },
        {
          "internalType": "address",
          "name": "_swapRouter",
          "type": "address"
        },
        {
          "internalType": "address",
          "name": "_usdc",
          "type": "address"
        },
        {
          "internalType": "address",
          "name": "_dai",
          "type": "address"
        },
        {
          "internalType": "address",
          "name": "_matic",
          "type": "address"
        },
        {
          "components": [
            {
              "internalType": "uint64",
              "name": "supplyKink",
              "type": "uint64"
            },
            {
              "internalType": "uint64",
              "name": "supplyPerYearInterestRateSlopeLow",
              "type": "uint64"
            },
            {
              "internalType": "uint64",
              "name": "supplyPerYearInterestRateSlopeHigh",
              "type": "uint64"
            },
            {
              "internalType": "uint64",
              "name": "supplyPerYearInterestRateBase",
              "type": "uint64"
            },
            {
              "internalType": "uint64",
              "name": "borrowKink",
              "type": "uint64"
            },
            {
              "internalType": "uint64",
              "name": "borrowPerYearInterestRateSlopeLow",
              "type": "uint64"
            },
            {
              "internalType": "uint64",
              "name": "borrowPerYearInterestRateSlopeHigh",
              "type": "uint64"
            },
            {
              "internalType": "uint64",
              "name": "borrowPerYearInterestRateBase",
              "type": "uint64"
            }
          ],
          "internalType": "struct HeadenFinanceChild.Configuration",
          "name": "config",
          "type": "tuple"
        }
      ],
      "stateMutability": "nonpayable",
      "type": "constructor"
    },
    {
      "anonymous": false,
      "inputs": [],
      "name": "Borrowed",
      "type": "event"
    },
    {
      "anonymous": false,
      "inputs": [
        {
          "indexed": false,
          "internalType": "address",
          "name": "user",
          "type": "address"
        }
      ],
      "name": "ChainSyncRequired",
      "type": "event"
    },
    {
      "anonymous": false,
      "inputs": [],
      "name": "FullChainSyncRequired",
      "type": "event"
    },
    {
      "anonymous": false,
      "inputs": [
        {
          "indexed": false,
          "internalType": "address",
          "name": "user",
          "type": "address"
        }
      ],
      "name": "LockUntilUpdateFromParentChain",
      "type": "event"
    },
    {
      "anonymous": false,
      "inputs": [
        {
          "indexed": true,
          "internalType": "address",
          "name": "previousOwner",
          "type": "address"
        },
        {
          "indexed": true,
          "internalType": "address",
          "name": "newOwner",
          "type": "address"
        }
      ],
      "name": "OwnershipTransferred",
      "type": "event"
    },
    {
      "anonymous": false,
      "inputs": [],
      "name": "Staked",
      "type": "event"
    },
    {
      "anonymous": false,
      "inputs": [
        {
          "components": [
            {
              "internalType": "address",
              "name": "userAddress",
              "type": "address"
            },
            {
              "internalType": "bool",
              "name": "available",
              "type": "bool"
            },
            {
              "internalType": "uint256",
              "name": "totalAmountBorrowed",
              "type": "uint256"
            },
            {
              "internalType": "uint256",
              "name": "totalAmountStaked",
              "type": "uint256"
            },
            {
              "internalType": "uint256",
              "name": "creditScore",
              "type": "uint256"
            },
            {
              "internalType": "uint256",
              "name": "ltv",
              "type": "uint256"
            },
            {
              "internalType": "bool",
              "name": "lock",
              "type": "bool"
            }
          ],
          "indexed": false,
          "internalType": "struct HeadenFinanceChild.User",
          "name": "user",
          "type": "tuple"
        }
      ],
      "name": "UpdateParentChain",
      "type": "event"
    },
    {
      "anonymous": false,
      "inputs": [],
      "name": "Withdrawn",
      "type": "event"
    },
    {
      "inputs": [],
      "name": "SECONDS_PER_YEAR",
      "outputs": [
        {
          "internalType": "uint256",
          "name": "",
          "type": "uint256"
        }
      ],
      "stateMutability": "view",
      "type": "function"
    },
    {
      "inputs": [
        {
          "internalType": "address",
          "name": "_relayer",
          "type": "address"
        }
      ],
      "name": "addRelayers",
      "outputs": [],
      "stateMutability": "nonpayable",
      "type": "function"
    },
    {
      "inputs": [
        {
          "internalType": "uint128",
          "name": "_id",
          "type": "uint128"
        }
      ],
      "name": "borrowInterestRates",
      "outputs": [
        {
          "internalType": "uint256",
          "name": "",
          "type": "uint256"
        }
      ],
      "stateMutability": "nonpayable",
      "type": "function"
    },
    {
      "inputs": [],
      "name": "borrowKink",
      "outputs": [
        {
          "internalType": "uint256",
          "name": "",
          "type": "uint256"
        }
      ],
      "stateMutability": "view",
      "type": "function"
    },
    {
      "inputs": [],
      "name": "borrowPerSecondInterestRateBase",
      "outputs": [
        {
          "internalType": "uint256",
          "name": "",
          "type": "uint256"
        }
      ],
      "stateMutability": "view",
      "type": "function"
    },
    {
      "inputs": [],
      "name": "borrowPerSecondInterestRateSlopeHigh",
      "outputs": [
        {
          "internalType": "uint256",
          "name": "",
          "type": "uint256"
        }
      ],
      "stateMutability": "view",
      "type": "function"
    },
    {
      "inputs": [],
      "name": "borrowPerSecondInterestRateSlopeLow",
      "outputs": [
        {
          "internalType": "uint256",
          "name": "",
          "type": "uint256"
        }
      ],
      "stateMutability": "view",
      "type": "function"
    },
    {
      "inputs": [
        {
          "internalType": "address",
          "name": "_tokenAddress",
          "type": "address"
        },
        {
          "internalType": "uint256",
          "name": "_amountToBorrow",
          "type": "uint256"
        }
      ],
      "name": "borrowToken",
      "outputs": [],
      "stateMutability": "nonpayable",
      "type": "function"
    },
    {
      "inputs": [
        {
          "internalType": "address",
          "name": "_tokenAddress",
          "type": "address"
        },
        {
          "internalType": "uint256",
          "name": "_amountToBorrow",
          "type": "uint256"
        },
        {
          "internalType": "address",
          "name": "_collateralAddress",
          "type": "address"
        },
        {
          "internalType": "uint256",
          "name": "_collateralAmount",
          "type": "uint256"
        }
      ],
      "name": "borrowTokenWithCollateral",
      "outputs": [],
      "stateMutability": "nonpayable",
      "type": "function"
    },
    {
      "inputs": [],
      "name": "chainId",
      "outputs": [
        {
          "internalType": "uint256",
          "name": "",
          "type": "uint256"
        }
      ],
      "stateMutability": "view",
      "type": "function"
    },
    {
      "inputs": [
        {
          "internalType": "bytes",
          "name": "",
          "type": "bytes"
        }
      ],
      "name": "checkUpkeep",
      "outputs": [
        {
          "internalType": "bool",
          "name": "upkeepNeeded",
          "type": "bool"
        },
        {
          "internalType": "bytes",
          "name": "",
          "type": "bytes"
        }
      ],
      "stateMutability": "view",
      "type": "function"
    },
    {
      "inputs": [
        {
          "internalType": "address",
          "name": "_token",
          "type": "address"
        }
      ],
      "name": "createMarket",
      "outputs": [],
      "stateMutability": "nonpayable",
      "type": "function"
    },
    {
      "inputs": [
        {
          "internalType": "address",
          "name": "_token",
          "type": "address"
        },
        {
          "internalType": "uint256",
          "name": "amount",
          "type": "uint256"
        }
      ],
      "name": "createMarketPool",
      "outputs": [],
      "stateMutability": "nonpayable",
      "type": "function"
    },
    {
      "inputs": [],
      "name": "dai",
      "outputs": [
        {
          "internalType": "address",
          "name": "",
          "type": "address"
        }
      ],
      "stateMutability": "view",
      "type": "function"
    },
    {
      "inputs": [],
      "name": "getRiskLevel",
      "outputs": [
        {
          "internalType": "uint256",
          "name": "",
          "type": "uint256"
        }
      ],
      "stateMutability": "view",
      "type": "function"
    },
    {
      "inputs": [],
      "name": "interval",
      "outputs": [
        {
          "internalType": "uint256",
          "name": "",
          "type": "uint256"
        }
      ],
      "stateMutability": "view",
      "type": "function"
    },
    {
      "inputs": [],
      "name": "lastTimeStamp",
      "outputs": [
        {
          "internalType": "uint256",
          "name": "",
          "type": "uint256"
        }
      ],
      "stateMutability": "view",
      "type": "function"
    },
    {
      "inputs": [
        {
          "internalType": "address",
          "name": "user",
          "type": "address"
        }
      ],
      "name": "lockThisUserUntilParentUpdate",
      "outputs": [],
      "stateMutability": "nonpayable",
      "type": "function"
    },
    {
      "inputs": [
        {
          "internalType": "address",
          "name": "",
          "type": "address"
        }
      ],
      "name": "marketTokens",
      "outputs": [
        {
          "internalType": "bool",
          "name": "available",
          "type": "bool"
        },
        {
          "internalType": "uint128",
          "name": "_id",
          "type": "uint128"
        }
      ],
      "stateMutability": "view",
      "type": "function"
    },
    {
      "inputs": [
        {
          "internalType": "uint128",
          "name": "",
          "type": "uint128"
        }
      ],
      "name": "markets",
      "outputs": [
        {
          "internalType": "address",
          "name": "tokenAddress",
          "type": "address"
        },
        {
          "internalType": "bool",
          "name": "available",
          "type": "bool"
        },
        {
          "internalType": "uint256",
          "name": "amountStaked",
          "type": "uint256"
        },
        {
          "internalType": "uint256",
          "name": "amountBorrowed",
          "type": "uint256"
        },
        {
          "internalType": "uint256",
          "name": "timeLastBorrowed",
          "type": "uint256"
        },
        {
          "internalType": "uint256",
          "name": "timeLastStaked",
          "type": "uint256"
        },
        {
          "internalType": "uint256",
          "name": "borrowRate",
          "type": "uint256"
        },
        {
          "internalType": "uint256",
          "name": "supplyRate",
          "type": "uint256"
        }
      ],
      "stateMutability": "view",
      "type": "function"
    },
    {
      "inputs": [],
      "name": "matic",
      "outputs": [
        {
          "internalType": "address",
          "name": "",
          "type": "address"
        }
      ],
      "stateMutability": "view",
      "type": "function"
    },
    {
      "inputs": [],
      "name": "multichainRouter",
      "outputs": [
        {
          "internalType": "address",
          "name": "",
          "type": "address"
        }
      ],
      "stateMutability": "view",
      "type": "function"
    },
    {
      "inputs": [],
      "name": "owner",
      "outputs": [
        {
          "internalType": "address",
          "name": "",
          "type": "address"
        }
      ],
      "stateMutability": "view",
      "type": "function"
    },
    {
      "inputs": [
        {
          "internalType": "bytes",
          "name": "",
          "type": "bytes"
        }
      ],
      "name": "performUpkeep",
      "outputs": [],
      "stateMutability": "nonpayable",
      "type": "function"
    },
    {
      "inputs": [
        {
          "components": [
            {
              "internalType": "address",
              "name": "user",
              "type": "address"
            },
            {
              "internalType": "uint256",
              "name": "totalStakes",
              "type": "uint256"
            },
            {
              "internalType": "uint256",
              "name": "totalBorrows",
              "type": "uint256"
            }
          ],
          "internalType": "struct HeadenFinanceChild.FullUpdateData[]",
          "name": "usersData",
          "type": "tuple[]"
        }
      ],
      "name": "receiveFullUpdateFromParentChain",
      "outputs": [],
      "stateMutability": "nonpayable",
      "type": "function"
    },
    {
      "inputs": [
        {
          "internalType": "address",
          "name": "user",
          "type": "address"
        },
        {
          "internalType": "uint256",
          "name": "totalStakes",
          "type": "uint256"
        },
        {
          "internalType": "uint256",
          "name": "totalBorrows",
          "type": "uint256"
        }
      ],
      "name": "receiveUpdateFromParentChain",
      "outputs": [],
      "stateMutability": "nonpayable",
      "type": "function"
    },
    {
      "inputs": [
        {
          "internalType": "address",
          "name": "",
          "type": "address"
        }
      ],
      "name": "relayers",
      "outputs": [
        {
          "internalType": "bool",
          "name": "",
          "type": "bool"
        }
      ],
      "stateMutability": "view",
      "type": "function"
    },
    {
      "inputs": [],
      "name": "renounceOwnership",
      "outputs": [],
      "stateMutability": "nonpayable",
      "type": "function"
    },
    {
      "inputs": [
        {
          "internalType": "address",
          "name": "_tokenAddress",
          "type": "address"
        },
        {
          "internalType": "uint256",
          "name": "_amount",
          "type": "uint256"
        }
      ],
      "name": "repayLoan",
      "outputs": [],
      "stateMutability": "nonpayable",
      "type": "function"
    },
    {
      "inputs": [],
      "name": "requestFullUpdateFromParent",
      "outputs": [],
      "stateMutability": "nonpayable",
      "type": "function"
    },
    {
      "inputs": [
        {
          "internalType": "address",
          "name": "user",
          "type": "address"
        }
      ],
      "name": "requestUpdateFromParent",
      "outputs": [],
      "stateMutability": "nonpayable",
      "type": "function"
    },
    {
      "inputs": [
        {
          "internalType": "address",
          "name": "_tokenAddress",
          "type": "address"
        },
        {
          "internalType": "uint256",
          "name": "_amountToStake",
          "type": "uint256"
        }
      ],
      "name": "stakeToken",
      "outputs": [],
      "stateMutability": "nonpayable",
      "type": "function"
    },
    {
      "inputs": [
        {
          "internalType": "uint128",
          "name": "_id",
          "type": "uint128"
        }
      ],
      "name": "supplyInterestRates",
      "outputs": [
        {
          "internalType": "uint256",
          "name": "",
          "type": "uint256"
        }
      ],
      "stateMutability": "nonpayable",
      "type": "function"
    },
    {
      "inputs": [],
      "name": "supplyKink",
      "outputs": [
        {
          "internalType": "uint256",
          "name": "",
          "type": "uint256"
        }
      ],
      "stateMutability": "view",
      "type": "function"
    },
    {
      "inputs": [],
      "name": "supplyPerSecondInterestRateBase",
      "outputs": [
        {
          "internalType": "uint256",
          "name": "",
          "type": "uint256"
        }
      ],
      "stateMutability": "view",
      "type": "function"
    },
    {
      "inputs": [],
      "name": "supplyPerSecondInterestRateSlopeHigh",
      "outputs": [
        {
          "internalType": "uint256",
          "name": "",
          "type": "uint256"
        }
      ],
      "stateMutability": "view",
      "type": "function"
    },
    {
      "inputs": [],
      "name": "supplyPerSecondInterestRateSlopeLow",
      "outputs": [
        {
          "internalType": "uint256",
          "name": "",
          "type": "uint256"
        }
      ],
      "stateMutability": "view",
      "type": "function"
    },
    {
      "inputs": [],
      "name": "tax",
      "outputs": [
        {
          "internalType": "uint256",
          "name": "",
          "type": "uint256"
        }
      ],
      "stateMutability": "view",
      "type": "function"
    },
    {
      "inputs": [
        {
          "internalType": "address",
          "name": "newOwner",
          "type": "address"
        }
      ],
      "name": "transferOwnership",
      "outputs": [],
      "stateMutability": "nonpayable",
      "type": "function"
    },
    {
      "inputs": [
        {
          "components": [
            {
              "internalType": "uint64",
              "name": "supplyKink",
              "type": "uint64"
            },
            {
              "internalType": "uint64",
              "name": "supplyPerYearInterestRateSlopeLow",
              "type": "uint64"
            },
            {
              "internalType": "uint64",
              "name": "supplyPerYearInterestRateSlopeHigh",
              "type": "uint64"
            },
            {
              "internalType": "uint64",
              "name": "supplyPerYearInterestRateBase",
              "type": "uint64"
            },
            {
              "internalType": "uint64",
              "name": "borrowKink",
              "type": "uint64"
            },
            {
              "internalType": "uint64",
              "name": "borrowPerYearInterestRateSlopeLow",
              "type": "uint64"
            },
            {
              "internalType": "uint64",
              "name": "borrowPerYearInterestRateSlopeHigh",
              "type": "uint64"
            },
            {
              "internalType": "uint64",
              "name": "borrowPerYearInterestRateBase",
              "type": "uint64"
            }
          ],
          "internalType": "struct HeadenFinanceChild.Configuration",
          "name": "config",
          "type": "tuple"
        }
      ],
      "name": "updateConfiguration",
      "outputs": [],
      "stateMutability": "nonpayable",
      "type": "function"
    },
    {
      "inputs": [
        {
          "internalType": "uint256",
          "name": "amount",
          "type": "uint256"
        }
      ],
      "name": "usd_amount",
      "outputs": [
        {
          "internalType": "uint256",
          "name": "",
          "type": "uint256"
        }
      ],
      "stateMutability": "view",
      "type": "function"
    },
    {
      "inputs": [],
      "name": "usdc",
      "outputs": [
        {
          "internalType": "address",
          "name": "",
          "type": "address"
        }
      ],
      "stateMutability": "view",
      "type": "function"
    },
    {
      "inputs": [
        {
          "internalType": "address",
          "name": "",
          "type": "address"
        }
      ],
      "name": "users",
      "outputs": [
        {
          "internalType": "address",
          "name": "userAddress",
          "type": "address"
        },
        {
          "internalType": "bool",
          "name": "available",
          "type": "bool"
        },
        {
          "internalType": "uint256",
          "name": "totalAmountBorrowed",
          "type": "uint256"
        },
        {
          "internalType": "uint256",
          "name": "totalAmountStaked",
          "type": "uint256"
        },
        {
          "internalType": "uint256",
          "name": "creditScore",
          "type": "uint256"
        },
        {
          "internalType": "uint256",
          "name": "ltv",
          "type": "uint256"
        },
        {
          "internalType": "bool",
          "name": "lock",
          "type": "bool"
        }
      ],
      "stateMutability": "view",
      "type": "function"
    },
    {
      "inputs": [
        {
          "internalType": "bytes32",
          "name": "",
          "type": "bytes32"
        }
      ],
      "name": "usersborrows",
      "outputs": [
        {
          "internalType": "address",
          "name": "userAddress",
          "type": "address"
        },
        {
          "internalType": "address",
          "name": "tokenAddress",
          "type": "address"
        },
        {
          "internalType": "bool",
          "name": "available",
          "type": "bool"
        },
        {
          "internalType": "uint256",
          "name": "amountBorrowed",
          "type": "uint256"
        },
        {
          "internalType": "address",
          "name": "collateralAddress",
          "type": "address"
        },
        {
          "internalType": "uint256",
          "name": "collateralAmount",
          "type": "uint256"
        },
        {
          "internalType": "address",
          "name": "borrowRouter",
          "type": "address"
        },
        {
          "internalType": "uint256",
          "name": "timeLastBorrowed",
          "type": "uint256"
        }
      ],
      "stateMutability": "view",
      "type": "function"
    },
    {
      "inputs": [
        {
          "internalType": "bytes32",
          "name": "",
          "type": "bytes32"
        }
      ],
      "name": "userstakes",
      "outputs": [
        {
          "internalType": "address",
          "name": "userAddress",
          "type": "address"
        },
        {
          "internalType": "address",
          "name": "tokenAddress",
          "type": "address"
        },
        {
          "internalType": "bool",
          "name": "available",
          "type": "bool"
        },
        {
          "internalType": "uint256",
          "name": "amountStaked",
          "type": "uint256"
        },
        {
          "internalType": "uint256",
          "name": "timeLastStaked",
          "type": "uint256"
        }
      ],
      "stateMutability": "view",
      "type": "function"
    },
    {
      "inputs": [],
      "name": "validateUsers",
      "outputs": [],
      "stateMutability": "nonpayable",
      "type": "function"
    },
    {
      "inputs": [
        {
          "internalType": "address",
          "name": "_tokenAddress",
          "type": "address"
        },
        {
          "internalType": "uint256",
          "name": "_amountToWithdraw",
          "type": "uint256"
        },
        {
          "internalType": "uint256",
          "name": "_chainId",
          "type": "uint256"
        },
        {
          "internalType": "address",
          "name": "_to",
          "type": "address"
        }
      ],
      "name": "withdrawToken",
      "outputs": [],
      "stateMutability": "nonpayable",
      "type": "function"
    }
  ],
  "bytecode": "0x60a0604052738fffffd4afb6115b954bd326cbe7b4ba576818f66000806101000a81548173ffffffffffffffffffffffffffffffffffffffff021916908373ffffffffffffffffffffffffffffffffffffffff16021790555061015e6005556301e13380600855670de0b6b3a7640000600d556000601c60006101000a8154816fffffffffffffffffffffffffffffffff02191690836fffffffffffffffffffffffffffffffff160217905550348015620000b957600080fd5b5060405162008aad38038062008aad8339818101604052810190620000df9190620007e5565b6001808190555062000106620000fa620004d760201b60201c565b620004df60201b60201c565b87608081815250504260068190555086600960006101000a81548173ffffffffffffffffffffffffffffffffffffffff021916908373ffffffffffffffffffffffffffffffffffffffff1602179055506001601b60003373ffffffffffffffffffffffffffffffffffffffff1673ffffffffffffffffffffffffffffffffffffffff16815260200190815260200160002060006101000a81548160ff0219169083151502179055508560049080519060200190620001c6929190620005a5565b5084600360006101000a81548173ffffffffffffffffffffffffffffffffffffffff021916908373ffffffffffffffffffffffffffffffffffffffff16021790555082600b60006101000a81548173ffffffffffffffffffffffffffffffffffffffff021916908373ffffffffffffffffffffffffffffffffffffffff16021790555083600a60006101000a81548173ffffffffffffffffffffffffffffffffffffffff021916908373ffffffffffffffffffffffffffffffffffffffff16021790555081600c60006101000a81548173ffffffffffffffffffffffffffffffffffffffff021916908373ffffffffffffffffffffffffffffffffffffffff160217905550806000015167ffffffffffffffff16600e81905550600854816020015167ffffffffffffffff168162000327577f4e487b7100000000000000000000000000000000000000000000000000000000600052601260045260246000fd5b04600f81905550600854816040015167ffffffffffffffff168162000375577f4e487b7100000000000000000000000000000000000000000000000000000000600052601260045260246000fd5b04601081905550600854816060015167ffffffffffffffff1681620003c3577f4e487b7100000000000000000000000000000000000000000000000000000000600052601260045260246000fd5b04601181905550806080015167ffffffffffffffff166012819055506008548160a0015167ffffffffffffffff168162000426577f4e487b7100000000000000000000000000000000000000000000000000000000600052601260045260246000fd5b046013819055506008548160c0015167ffffffffffffffff168162000474577f4e487b7100000000000000000000000000000000000000000000000000000000600052601260045260246000fd5b046014819055506008548160e0015167ffffffffffffffff1681620004c2577f4e487b7100000000000000000000000000000000000000000000000000000000600052601260045260246000fd5b04601581905550505050505050505062000ad1565b600033905090565b6000600260009054906101000a900473ffffffffffffffffffffffffffffffffffffffff16905081600260006101000a81548173ffffffffffffffffffffffffffffffffffffffff021916908373ffffffffffffffffffffffffffffffffffffffff1602179055508173ffffffffffffffffffffffffffffffffffffffff168173ffffffffffffffffffffffffffffffffffffffff167f8be0079c531659141344cd1fd0a4f28419497f9722a3daafe3b4186f6b6457e060405160405180910390a35050565b828054620005b390620009a8565b90600052602060002090601f016020900481019282620005d7576000855562000623565b82601f10620005f257805160ff191683800117855562000623565b8280016001018555821562000623579182015b828111156200062257825182559160200191906001019062000605565b5b50905062000632919062000636565b5090565b5b808211156200065157600081600090555060010162000637565b5090565b60006200066c6200066684620008ea565b620008c1565b9050828152602081018484840111156200068557600080fd5b6200069284828562000972565b509392505050565b600081519050620006ab8162000a83565b92915050565b600082601f830112620006c357600080fd5b8151620006d584826020860162000655565b91505092915050565b60006101008284031215620006f257600080fd5b620006ff610100620008c1565b905060006200071184828501620007ce565b60008301525060206200072784828501620007ce565b60208301525060406200073d84828501620007ce565b60408301525060606200075384828501620007ce565b60608301525060806200076984828501620007ce565b60808301525060a06200077f84828501620007ce565b60a08301525060c06200079584828501620007ce565b60c08301525060e0620007ab84828501620007ce565b60e08301525092915050565b600081519050620007c88162000a9d565b92915050565b600081519050620007df8162000ab7565b92915050565b6000806000806000806000806101e0898b0312156200080357600080fd5b6000620008138b828c01620007b7565b9850506020620008268b828c016200069a565b975050604089015167ffffffffffffffff8111156200084457600080fd5b620008528b828c01620006b1565b9650506060620008658b828c016200069a565b9550506080620008788b828c016200069a565b94505060a06200088b8b828c016200069a565b93505060c06200089e8b828c016200069a565b92505060e0620008b18b828c01620006de565b9150509295985092959890939650565b6000620008cd620008e0565b9050620008db8282620009de565b919050565b6000604051905090565b600067ffffffffffffffff82111562000908576200090762000a43565b5b620009138262000a72565b9050602081019050919050565b60006200092d8262000934565b9050919050565b600073ffffffffffffffffffffffffffffffffffffffff82169050919050565b6000819050919050565b600067ffffffffffffffff82169050919050565b60005b838110156200099257808201518184015260208101905062000975565b83811115620009a2576000848401525b50505050565b60006002820490506001821680620009c157607f821691505b60208210811415620009d857620009d762000a14565b5b50919050565b620009e98262000a72565b810181811067ffffffffffffffff8211171562000a0b5762000a0a62000a43565b5b80604052505050565b7f4e487b7100000000000000000000000000000000000000000000000000000000600052602260045260246000fd5b7f4e487b7100000000000000000000000000000000000000000000000000000000600052604160045260246000fd5b6000601f19601f8301169050919050565b62000a8e8162000920565b811462000a9a57600080fd5b50565b62000aa88162000954565b811462000ab457600080fd5b50565b62000ac2816200095e565b811462000ace57600080fd5b50565b608051617fb262000afb600039600081816112f701528181612db901526137820152617fb26000f3fe608060405234801561001057600080fd5b50600436106102955760003560e01c80638da5cb5b11610167578063c6f4c578116100ce578063f0c4e88611610087578063f0c4e886146107f8578063f2fde38b14610814578063f39a476c14610830578063f4b9fa751461084c578063f5a96d3f1461086a578063f739ed9e1461087457610295565b8063c6f4c5781461075c578063cf0ba2f41461077a578063d967fa8514610796578063e0b53307146107a0578063e122056c146107be578063e6a69ab8146107da57610295565b80639a8a0592116101205780639a8a05921461066c578063a2953f371461068a578063a5b4ff79146106ba578063a87430ba146106d8578063b6b0b0971461070e578063b8e9c9001461072c57610295565b80638da5cb5b146105ba5780639241a561146105d857806393a595f5146105f6578063947a36fb1461061257806394920cca1461063057806399c8d5561461064e57610295565b806350f74b551161020b57806365c65076116101c457806365c650761461050b5780636e04ff0d14610527578063715018a6146105585780637914acc7146105625780637c10833314610580578063804de71f1461059c57610295565b806350f74b551461042057806352fcaa791461043c5780635300f841146104705780635a91b39c146104a05780635a94b8d1146104bc5780635db11f79146104da57610295565b80633d3e49fc1161025d5780633d3e49fc146103455780633e413bee1461037c5780633f3b3b271461039a5780634585e33b146103b85780634b69775a146103d45780634b98e0e5146103f057610295565b806305e617d51461029a5780631f3929e3146102b65780632a48cf12146102d25780632d05670b146102f0578063396ce2131461030e575b600080fd5b6102b460048036038101906102af91906166c4565b610890565b005b6102d060048036038101906102cb9190616625565b610d4f565b005b6102da6110e7565b6040516102e79190617405565b60405180910390f35b6102f86110ed565b6040516103059190617405565b60405180910390f35b61032860048036038101906103239190616825565b6110f3565b60405161033c989796959493929190616eb3565b60405180910390f35b61035f600480360381019061035a91906168e6565b6111c8565b60405161037398979695949392919061706f565b60405180910390f35b61038461123d565b6040516103919190616e98565b60405180910390f35b6103a2611263565b6040516103af9190617405565b60405180910390f35b6103d260048036038101906103cd919061684e565b611269565b005b6103ee60048036038101906103e991906168bc565b611346565b005b61040a600480360381019061040591906168e6565b6115b9565b6040516104179190617405565b60405180910390f35b61043a60048036038101906104359190616776565b6116bd565b005b61045660048036038101906104519190616825565b6118a3565b604051610467959493929190616f31565b60405180910390f35b61048a600480360381019061048591906165fc565b611926565b6040516104979190617116565b60405180910390f35b6104ba60048036038101906104b59190616625565b611946565b005b6104c461220d565b6040516104d19190617405565b60405180910390f35b6104f460048036038101906104ef91906165fc565b612213565b604051610502929190617161565b60405180910390f35b61052560048036038101906105209190616661565b612260565b005b610541600480360381019061053c919061684e565b612db3565b60405161054f929190617131565b60405180910390f35b610560612df0565b005b61056a612e04565b6040516105779190617405565b60405180910390f35b61059a600480360381019061059591906165fc565b612e0a565b005b6105a46131c8565b6040516105b19190617405565b60405180910390f35b6105c26131ce565b6040516105cf9190616e98565b60405180910390f35b6105e06131f8565b6040516105ed9190617405565b60405180910390f35b610610600480360381019061060b9190616625565b6131fe565b005b61061a613780565b6040516106279190617405565b60405180910390f35b6106386137a4565b6040516106459190617405565b60405180910390f35b6106566137aa565b6040516106639190617405565b60405180910390f35b6106746137b0565b6040516106819190617405565b60405180910390f35b6106a4600480360381019061069f91906168e6565b6137b6565b6040516106b19190617405565b60405180910390f35b6106c26138ba565b6040516106cf9190617405565b60405180910390f35b6106f260048036038101906106ed91906165fc565b6138c0565b6040516107059796959493929190617000565b60405180910390f35b61071661393c565b6040516107239190616e98565b60405180910390f35b6107466004803603810190610741919061690f565b613962565b6040516107539190617405565b60405180910390f35b610764613a21565b6040516107719190616e98565b60405180910390f35b610794600480360381019061078f91906165fc565b613a47565b005b61079e613b0d565b005b6107a8613bc7565b6040516107b59190617405565b60405180910390f35b6107d860048036038101906107d391906165fc565b613ca0565b005b6107e2613d07565b6040516107ef9190617405565b60405180910390f35b610812600480360381019061080d9190616713565b613d0d565b005b61082e600480360381019061082991906165fc565b614496565b005b61084a600480360381019061084591906165fc565b61451a565b005b61085461457d565b6040516108619190616e98565b60405180910390f35b6108726145a3565b005b61088e60048036038101906108899190616625565b6146c2565b005b601b60003373ffffffffffffffffffffffffffffffffffffffff1673ffffffffffffffffffffffffffffffffffffffff16815260200190815260200160002060009054906101000a900460ff1661091c576040517f08c379a00000000000000000000000000000000000000000000000000000000081526004016109139061718a565b60405180910390fd5b60026001541415610962576040517f08c379a00000000000000000000000000000000000000000000000000000000081526004016109599061738a565b60405180910390fd5b6002600181905550601660008473ffffffffffffffffffffffffffffffffffffffff1673ffffffffffffffffffffffffffffffffffffffff16815260200190815260200160002060000160149054906101000a900460ff1615610b8b5781601660008573ffffffffffffffffffffffffffffffffffffffff1673ffffffffffffffffffffffffffffffffffffffff1681526020019081526020016000206002018190555080601660008573ffffffffffffffffffffffffffffffffffffffff1673ffffffffffffffffffffffffffffffffffffffff16815260200190815260200160002060010181905550601660008473ffffffffffffffffffffffffffffffffffffffff1673ffffffffffffffffffffffffffffffffffffffff16815260200190815260200160002060020154610adb601660008673ffffffffffffffffffffffffffffffffffffffff1673ffffffffffffffffffffffffffffffffffffffff16815260200190815260200160002060010154613962565b610ae591906175c3565b601660008573ffffffffffffffffffffffffffffffffffffffff1673ffffffffffffffffffffffffffffffffffffffff168152602001908152602001600020600401819055506000601660008573ffffffffffffffffffffffffffffffffffffffff1673ffffffffffffffffffffffffffffffffffffffff16815260200190815260200160002060050160006101000a81548160ff021916908315150217905550610d43565b601d839080600181540180825580915050600190039060005260206000200160009091909190916101000a81548173ffffffffffffffffffffffffffffffffffffffff021916908373ffffffffffffffffffffffffffffffffffffffff1602179055506040518060e001604052808473ffffffffffffffffffffffffffffffffffffffff1681526020016001151581526020018281526020018381526020016000815260200183610c3b84613962565b610c4591906175c3565b815260200160001515815250601660008573ffffffffffffffffffffffffffffffffffffffff1673ffffffffffffffffffffffffffffffffffffffff16815260200190815260200160002060008201518160000160006101000a81548173ffffffffffffffffffffffffffffffffffffffff021916908373ffffffffffffffffffffffffffffffffffffffff16021790555060208201518160000160146101000a81548160ff02191690831515021790555060408201518160010155606082015181600201556080820151816003015560a0820151816004015560c08201518160050160006101000a81548160ff0219169083151502179055509050505b60018081905550505050565b6001601c60008282829054906101000a90046fffffffffffffffffffffffffffffffff16610d7d9190617527565b92506101000a8154816fffffffffffffffffffffffffffffffff02191690836fffffffffffffffffffffffffffffffff160217905550601a60008373ffffffffffffffffffffffffffffffffffffffff1673ffffffffffffffffffffffffffffffffffffffff16815260200190815260200160002060000160009054906101000a900460ff1615610e43576040517f08c379a0000000000000000000000000000000000000000000000000000000008152600401610e3a9061730a565b60405180910390fd5b6040518061010001604052808373ffffffffffffffffffffffffffffffffffffffff1681526020016001151581526020018281526020016000815260200142815260200142815260200160008152602001600081525060196000601c60009054906101000a90046fffffffffffffffffffffffffffffffff166fffffffffffffffffffffffffffffffff166fffffffffffffffffffffffffffffffff16815260200190815260200160002060008201518160000160006101000a81548173ffffffffffffffffffffffffffffffffffffffff021916908373ffffffffffffffffffffffffffffffffffffffff16021790555060208201518160000160146101000a81548160ff02191690831515021790555060408201518160010155606082015181600201556080820151816003015560a0820151816004015560c0820151816005015560e082015181600601559050506040518060400160405280600115158152602001601c60009054906101000a90046fffffffffffffffffffffffffffffffff166fffffffffffffffffffffffffffffffff16815250601a60008473ffffffffffffffffffffffffffffffffffffffff1673ffffffffffffffffffffffffffffffffffffffff16815260200190815260200160002060008201518160000160006101000a81548160ff02191690831515021790555060208201518160000160016101000a8154816fffffffffffffffffffffffffffffffff02191690836fffffffffffffffffffffffffffffffff16021790555090505060006110898383614fd9565b9050611096610dac613962565b8110156110d8576040517f08c379a00000000000000000000000000000000000000000000000000000000081526004016110cf9061722a565b60405180910390fd5b6110e283836146c2565b505050565b60145481565b60135481565b60176020528060005260406000206000915090508060000160009054906101000a900473ffffffffffffffffffffffffffffffffffffffff16908060010160009054906101000a900473ffffffffffffffffffffffffffffffffffffffff16908060010160149054906101000a900460ff16908060020154908060030160009054906101000a900473ffffffffffffffffffffffffffffffffffffffff16908060040154908060050160009054906101000a900473ffffffffffffffffffffffffffffffffffffffff16908060060154905088565b60196020528060005260406000206000915090508060000160009054906101000a900473ffffffffffffffffffffffffffffffffffffffff16908060000160149054906101000a900460ff16908060010154908060020154908060030154908060040154908060050154908060060154905088565b600a60009054906101000a900473ffffffffffffffffffffffffffffffffffffffff1681565b60065481565b601b60003373ffffffffffffffffffffffffffffffffffffffff1673ffffffffffffffffffffffffffffffffffffffff16815260200190815260200160002060009054906101000a900460ff166112f5576040517f08c379a00000000000000000000000000000000000000000000000000000000081526004016112ec9061718a565b60405180910390fd5b7f00000000000000000000000000000000000000000000000000000000000000006006544261132491906177bf565b11156113425742600681905550611339613b0d565b6113416145a3565b5b5050565b61134e615004565b8060000160208101906113619190616938565b67ffffffffffffffff16600e819055506008548160200160208101906113879190616938565b67ffffffffffffffff16816113c5577f4e487b7100000000000000000000000000000000000000000000000000000000600052601260045260246000fd5b04600f819055506008548160400160208101906113e29190616938565b67ffffffffffffffff1681611420577f4e487b7100000000000000000000000000000000000000000000000000000000600052601260045260246000fd5b0460108190555060085481606001602081019061143d9190616938565b67ffffffffffffffff168161147b577f4e487b7100000000000000000000000000000000000000000000000000000000600052601260045260246000fd5b046011819055508060800160208101906114959190616938565b67ffffffffffffffff166012819055506008548160a00160208101906114bb9190616938565b67ffffffffffffffff16816114f9577f4e487b7100000000000000000000000000000000000000000000000000000000600052601260045260246000fd5b046013819055506008548160c00160208101906115169190616938565b67ffffffffffffffff1681611554577f4e487b7100000000000000000000000000000000000000000000000000000000600052601260045260246000fd5b046014819055506008548160e00160208101906115719190616938565b67ffffffffffffffff16816115af577f4e487b7100000000000000000000000000000000000000000000000000000000600052601260045260246000fd5b0460158190555050565b60008060196000846fffffffffffffffffffffffffffffffff166fffffffffffffffffffffffffffffffff1681526020019081526020016000206001015461163a60196000866fffffffffffffffffffffffffffffffff166fffffffffffffffffffffffffffffffff16815260200190815260200160002060020154613962565b61164491906175c3565b90506012548111611672578060135461165d9190617765565b60155461166a919061756d565b9150506116b8565b6012548161168091906177bf565b60145461168d9190617765565b60125460135461169d9190617765565b6015546116aa919061756d565b6116b4919061756d565b9150505b919050565b601b60003373ffffffffffffffffffffffffffffffffffffffff1673ffffffffffffffffffffffffffffffffffffffff16815260200190815260200160002060009054906101000a900460ff16611749576040517f08c379a00000000000000000000000000000000000000000000000000000000081526004016117409061718a565b60405180910390fd5b6002600154141561178f576040517f08c379a00000000000000000000000000000000000000000000000000000000081526004016117869061738a565b60405180910390fd5b600260018190555060005b82829050811015611897576118848383838181106117e1577f4e487b7100000000000000000000000000000000000000000000000000000000600052603260045260246000fd5b90506060020160000160208101906117f991906165fc565b848484818110611832577f4e487b7100000000000000000000000000000000000000000000000000000000600052603260045260246000fd5b90506060020160200135858585818110611875577f4e487b7100000000000000000000000000000000000000000000000000000000600052603260045260246000fd5b90506060020160400135610890565b808061188f9061795b565b91505061179a565b50600180819055505050565b60186020528060005260406000206000915090508060000160009054906101000a900473ffffffffffffffffffffffffffffffffffffffff16908060010160009054906101000a900473ffffffffffffffffffffffffffffffffffffffff16908060010160149054906101000a900460ff16908060020154908060030154905085565b601b6020528060005260406000206000915054906101000a900460ff1681565b601660003373ffffffffffffffffffffffffffffffffffffffff1673ffffffffffffffffffffffffffffffffffffffff16815260200190815260200160002060000160149054906101000a900460ff166119d5576040517f08c379a00000000000000000000000000000000000000000000000000000000081526004016119cc9061736a565b60405180910390fd5b601660003373ffffffffffffffffffffffffffffffffffffffff1673ffffffffffffffffffffffffffffffffffffffff16815260200190815260200160002060050160009054906101000a900460ff1615611a65576040517f08c379a0000000000000000000000000000000000000000000000000000000008152600401611a5c9061734a565b60405180910390fd5b60026001541415611aab576040517f08c379a0000000000000000000000000000000000000000000000000000000008152600401611aa29061738a565b60405180910390fd5b6002600181905550601a60008373ffffffffffffffffffffffffffffffffffffffff1673ffffffffffffffffffffffffffffffffffffffff16815260200190815260200160002060000160009054906101000a900460ff16611b42576040517f08c379a0000000000000000000000000000000000000000000000000000000008152600401611b399061726a565b60405180910390fd5b600033836004604051602001611b5a93929190616e5f565b604051602081830303815290604052805190602001209050600061271083600554611b859190617765565b611b8f91906175c3565b90506000611b9d8585614fd9565b9050600a8111611be2576040517f08c379a0000000000000000000000000000000000000000000000000000000008152600401611bd9906172ca565b60405180910390fd5b611beb33615082565b611b58601660003373ffffffffffffffffffffffffffffffffffffffff1673ffffffffffffffffffffffffffffffffffffffff1681526020019081526020016000206002015461271083601660003373ffffffffffffffffffffffffffffffffffffffff1673ffffffffffffffffffffffffffffffffffffffff16815260200190815260200160002060010154611c82919061756d565b611c8c9190617765565b611c9691906175c3565b10611cd6576040517f08c379a0000000000000000000000000000000000000000000000000000000008152600401611ccd9061732a565b60405180910390fd5b6017600084815260200190815260200160002060010160149054906101000a900460ff1615611d4c5783601760008581526020019081526020016000206002016000828254611d25919061756d565b92505081905550426017600085815260200190815260200160002060060181905550611f55565b6040518061010001604052803373ffffffffffffffffffffffffffffffffffffffff1681526020018673ffffffffffffffffffffffffffffffffffffffff168152602001600115158152602001858152602001600073ffffffffffffffffffffffffffffffffffffffff16815260200160008152602001600073ffffffffffffffffffffffffffffffffffffffff168152602001428152506017600085815260200190815260200160002060008201518160000160006101000a81548173ffffffffffffffffffffffffffffffffffffffff021916908373ffffffffffffffffffffffffffffffffffffffff16021790555060208201518160010160006101000a81548173ffffffffffffffffffffffffffffffffffffffff021916908373ffffffffffffffffffffffffffffffffffffffff16021790555060408201518160010160146101000a81548160ff0219169083151502179055506060820151816002015560808201518160030160006101000a81548173ffffffffffffffffffffffffffffffffffffffff021916908373ffffffffffffffffffffffffffffffffffffffff16021790555060a0820151816004015560c08201518160050160006101000a81548173ffffffffffffffffffffffffffffffffffffffff021916908373ffffffffffffffffffffffffffffffffffffffff16021790555060e082015181600601559050505b80601660003373ffffffffffffffffffffffffffffffffffffffff1673ffffffffffffffffffffffffffffffffffffffff1681526020019081526020016000206001016000828254611fa7919061756d565b925050819055508473ffffffffffffffffffffffffffffffffffffffff1663a9059cbb338487611fd791906177bf565b6040518363ffffffff1660e01b8152600401611ff49291906170ed565b602060405180830381600087803b15801561200e57600080fd5b505af1158015612022573d6000803e3d6000fd5b505050506040513d601f19601f8201168201806040525081019061204691906167fc565b612085576040517f08c379a000000000000000000000000000000000000000000000000000000000815260040161207c9061724a565b60405180910390fd5b6120f084600180601a60008a73ffffffffffffffffffffffffffffffffffffffff1673ffffffffffffffffffffffffffffffffffffffff16815260200190815260200160002060000160019054906101000a90046fffffffffffffffffffffffffffffffff1661520c565b6120f933613ca0565b6121ff601660003373ffffffffffffffffffffffffffffffffffffffff1673ffffffffffffffffffffffffffffffffffffffff1681526020019081526020016000206040518060e00160405290816000820160009054906101000a900473ffffffffffffffffffffffffffffffffffffffff1673ffffffffffffffffffffffffffffffffffffffff1673ffffffffffffffffffffffffffffffffffffffff1681526020016000820160149054906101000a900460ff16151515158152602001600182015481526020016002820154815260200160038201548152602001600482015481526020016005820160009054906101000a900460ff1615151515815250506153f8565b505050600180819055505050565b600f5481565b601a6020528060005260406000206000915090508060000160009054906101000a900460ff16908060000160019054906101000a90046fffffffffffffffffffffffffffffffff16905082565b601660003373ffffffffffffffffffffffffffffffffffffffff1673ffffffffffffffffffffffffffffffffffffffff16815260200190815260200160002060000160149054906101000a900460ff166122ef576040517f08c379a00000000000000000000000000000000000000000000000000000000081526004016122e69061736a565b60405180910390fd5b601660003373ffffffffffffffffffffffffffffffffffffffff1673ffffffffffffffffffffffffffffffffffffffff16815260200190815260200160002060050160009054906101000a900460ff161561237f576040517f08c379a00000000000000000000000000000000000000000000000000000000081526004016123769061734a565b60405180910390fd5b600260015414156123c5576040517f08c379a00000000000000000000000000000000000000000000000000000000081526004016123bc9061738a565b60405180910390fd5b6002600181905550601a60008573ffffffffffffffffffffffffffffffffffffffff1673ffffffffffffffffffffffffffffffffffffffff16815260200190815260200160002060000160009054906101000a900460ff1661245c576040517f08c379a00000000000000000000000000000000000000000000000000000000081526004016124539061726a565b60405180910390fd5b601a60008373ffffffffffffffffffffffffffffffffffffffff1673ffffffffffffffffffffffffffffffffffffffff16815260200190815260200160002060000160009054906101000a900460ff166124eb576040517f08c379a00000000000000000000000000000000000000000000000000000000081526004016124e29061726a565b60405180910390fd5b60003385600460405160200161250393929190616e5f565b60405160208183030381529060405280519060200120905060006127108560055461252e9190617765565b61253891906175c3565b905060006125468787614fd9565b9050600061255f86848761255a91906177bf565b614fd9565b9050600a82116125a4576040517f08c379a000000000000000000000000000000000000000000000000000000000815260040161259b906172ca565b60405180910390fd5b600a81116125e7576040517f08c379a00000000000000000000000000000000000000000000000000000000081526004016125de906171ca565b60405180910390fd5b6125f033615082565b611b5881601660003373ffffffffffffffffffffffffffffffffffffffff1673ffffffffffffffffffffffffffffffffffffffff16815260200190815260200160002060020154612641919061756d565b61271084601660003373ffffffffffffffffffffffffffffffffffffffff1673ffffffffffffffffffffffffffffffffffffffff16815260200190815260200160002060010154612692919061756d565b61269c9190617765565b6126a691906175c3565b106126e6576040517f08c379a00000000000000000000000000000000000000000000000000000000081526004016126dd9061732a565b60405180910390fd5b6017600085815260200190815260200160002060010160149054906101000a900460ff161561275c5786601760008681526020019081526020016000206002016000828254612735919061756d565b92505081905550426017600086815260200190815260200160002060060181905550612965565b6040518061010001604052803373ffffffffffffffffffffffffffffffffffffffff1681526020018973ffffffffffffffffffffffffffffffffffffffff168152602001600115158152602001888152602001600073ffffffffffffffffffffffffffffffffffffffff16815260200160008152602001600073ffffffffffffffffffffffffffffffffffffffff168152602001428152506017600086815260200190815260200160002060008201518160000160006101000a81548173ffffffffffffffffffffffffffffffffffffffff021916908373ffffffffffffffffffffffffffffffffffffffff16021790555060208201518160010160006101000a81548173ffffffffffffffffffffffffffffffffffffffff021916908373ffffffffffffffffffffffffffffffffffffffff16021790555060408201518160010160146101000a81548160ff0219169083151502179055506060820151816002015560808201518160030160006101000a81548173ffffffffffffffffffffffffffffffffffffffff021916908373ffffffffffffffffffffffffffffffffffffffff16021790555060a0820151816004015560c08201518160050160006101000a81548173ffffffffffffffffffffffffffffffffffffffff021916908373ffffffffffffffffffffffffffffffffffffffff16021790555060e082015181600601559050505b81601660003373ffffffffffffffffffffffffffffffffffffffff1673ffffffffffffffffffffffffffffffffffffffff16815260200190815260200160002060010160008282546129b7919061756d565b9250508190555080601660003373ffffffffffffffffffffffffffffffffffffffff1673ffffffffffffffffffffffffffffffffffffffff1681526020019081526020016000206002016000828254612a10919061756d565b925050819055508573ffffffffffffffffffffffffffffffffffffffff166323b872dd3330886040518463ffffffff1660e01b8152600401612a5493929190616f84565b602060405180830381600087803b158015612a6e57600080fd5b505af1158015612a82573d6000803e3d6000fd5b505050506040513d601f19601f82011682018060405250810190612aa691906167fc565b612ae5576040517f08c379a0000000000000000000000000000000000000000000000000000000008152600401612adc9061724a565b60405180910390fd5b8773ffffffffffffffffffffffffffffffffffffffff1663a9059cbb33858a612b0e91906177bf565b6040518363ffffffff1660e01b8152600401612b2b9291906170ed565b602060405180830381600087803b158015612b4557600080fd5b505af1158015612b59573d6000803e3d6000fd5b505050506040513d601f19601f82011682018060405250810190612b7d91906167fc565b612bbc576040517f08c379a0000000000000000000000000000000000000000000000000000000008152600401612bb39061724a565b60405180910390fd5b612c2787600180601a60008d73ffffffffffffffffffffffffffffffffffffffff1673ffffffffffffffffffffffffffffffffffffffff16815260200190815260200160002060000160019054906101000a90046fffffffffffffffffffffffffffffffff1661520c565b612c938560006001601a60008b73ffffffffffffffffffffffffffffffffffffffff1673ffffffffffffffffffffffffffffffffffffffff16815260200190815260200160002060000160019054906101000a90046fffffffffffffffffffffffffffffffff1661520c565b612c9c33613ca0565b612da2601660003373ffffffffffffffffffffffffffffffffffffffff1673ffffffffffffffffffffffffffffffffffffffff1681526020019081526020016000206040518060e00160405290816000820160009054906101000a900473ffffffffffffffffffffffffffffffffffffffff1673ffffffffffffffffffffffffffffffffffffffff1673ffffffffffffffffffffffffffffffffffffffff1681526020016000820160149054906101000a900460ff16151515158152602001600182015481526020016002820154815260200160038201548152602001600482015481526020016005820160009054906101000a900460ff1615151515815250506153f8565b505050506001808190555050505050565b600060607f000000000000000000000000000000000000000000000000000000000000000060065442612de691906177bf565b1191509250929050565b612df8615004565b612e026000615432565b565b60155481565b601b60003373ffffffffffffffffffffffffffffffffffffffff1673ffffffffffffffffffffffffffffffffffffffff16815260200190815260200160002060009054906101000a900460ff16612e96576040517f08c379a0000000000000000000000000000000000000000000000000000000008152600401612e8d9061718a565b60405180910390fd5b6001601c60008282829054906101000a90046fffffffffffffffffffffffffffffffff16612ec49190617527565b92506101000a8154816fffffffffffffffffffffffffffffffff02191690836fffffffffffffffffffffffffffffffff160217905550601a60008273ffffffffffffffffffffffffffffffffffffffff1673ffffffffffffffffffffffffffffffffffffffff16815260200190815260200160002060000160009054906101000a900460ff1615612f8a576040517f08c379a0000000000000000000000000000000000000000000000000000000008152600401612f819061730a565b60405180910390fd5b6040518061010001604052808273ffffffffffffffffffffffffffffffffffffffff168152602001600115158152602001600081526020016000815260200142815260200142815260200160008152602001600081525060196000601c60009054906101000a90046fffffffffffffffffffffffffffffffff166fffffffffffffffffffffffffffffffff166fffffffffffffffffffffffffffffffff16815260200190815260200160002060008201518160000160006101000a81548173ffffffffffffffffffffffffffffffffffffffff021916908373ffffffffffffffffffffffffffffffffffffffff16021790555060208201518160000160146101000a81548160ff02191690831515021790555060408201518160010155606082015181600201556080820151816003015560a0820151816004015560c0820151816005015560e082015181600601559050506040518060400160405280600115158152602001601c60009054906101000a90046fffffffffffffffffffffffffffffffff166fffffffffffffffffffffffffffffffff16815250601a60008373ffffffffffffffffffffffffffffffffffffffff1673ffffffffffffffffffffffffffffffffffffffff16815260200190815260200160002060008201518160000160006101000a81548160ff02191690831515021790555060208201518160000160016101000a8154816fffffffffffffffffffffffffffffffff02191690836fffffffffffffffffffffffffffffffff16021790555090505050565b60105481565b6000600260009054906101000a900473ffffffffffffffffffffffffffffffffffffffff16905090565b60125481565b601660003373ffffffffffffffffffffffffffffffffffffffff1673ffffffffffffffffffffffffffffffffffffffff16815260200190815260200160002060000160149054906101000a900460ff1661328d576040517f08c379a00000000000000000000000000000000000000000000000000000000081526004016132849061736a565b60405180910390fd5b601660003373ffffffffffffffffffffffffffffffffffffffff1673ffffffffffffffffffffffffffffffffffffffff16815260200190815260200160002060050160009054906101000a900460ff161561331d576040517f08c379a00000000000000000000000000000000000000000000000000000000081526004016133149061734a565b60405180910390fd5b60026001541415613363576040517f08c379a000000000000000000000000000000000000000000000000000000000815260040161335a9061738a565b60405180910390fd5b6002600181905550601a60008373ffffffffffffffffffffffffffffffffffffffff1673ffffffffffffffffffffffffffffffffffffffff16815260200190815260200160002060000160009054906101000a900460ff166133fa576040517f08c379a00000000000000000000000000000000000000000000000000000000081526004016133f19061726a565b60405180910390fd5b60003383600460405160200161341293929190616e5f565b60405160208183030381529060405280519060200120905060006127108360055461343d9190617765565b61344791906175c3565b905060006134558585614fd9565b9050600a811161349a576040517f08c379a0000000000000000000000000000000000000000000000000000000008152600401613491906171aa565b60405180910390fd5b6134a333615082565b836017600085815260200190815260200160002060020160008282546134c991906177bf565b9250508190555080601660003373ffffffffffffffffffffffffffffffffffffffff1673ffffffffffffffffffffffffffffffffffffffff168152602001908152602001600020600101600082825461352291906177bf565b925050819055506135958460016000601a60008a73ffffffffffffffffffffffffffffffffffffffff1673ffffffffffffffffffffffffffffffffffffffff16815260200190815260200160002060000160019054906101000a90046fffffffffffffffffffffffffffffffff1661520c565b8473ffffffffffffffffffffffffffffffffffffffff166323b872dd3330876040518463ffffffff1660e01b81526004016135d293929190616f84565b602060405180830381600087803b1580156135ec57600080fd5b505af1158015613600573d6000803e3d6000fd5b505050506040513d601f19601f8201168201806040525081019061362491906167fc565b613663576040517f08c379a000000000000000000000000000000000000000000000000000000000815260040161365a9061724a565b60405180910390fd5b61366c33613ca0565b613772601660003373ffffffffffffffffffffffffffffffffffffffff1673ffffffffffffffffffffffffffffffffffffffff1681526020019081526020016000206040518060e00160405290816000820160009054906101000a900473ffffffffffffffffffffffffffffffffffffffff1673ffffffffffffffffffffffffffffffffffffffff1673ffffffffffffffffffffffffffffffffffffffff1681526020016000820160149054906101000a900460ff16151515158152602001600182015481526020016002820154815260200160038201548152602001600482015481526020016005820160009054906101000a900460ff1615151515815250506153f8565b505050600180819055505050565b7f000000000000000000000000000000000000000000000000000000000000000081565b60115481565b60055481565b60075481565b60008060196000846fffffffffffffffffffffffffffffffff166fffffffffffffffffffffffffffffffff1681526020019081526020016000206001015461383760196000866fffffffffffffffffffffffffffffffff166fffffffffffffffffffffffffffffffff16815260200190815260200160002060020154613962565b61384191906175c3565b9050600e54811161386f5780600f5461385a9190617765565b601154613867919061756d565b9150506138b5565b600e548161387d91906177bf565b60105461388a9190617765565b600e54600f5461389a9190617765565b6011546138a7919061756d565b6138b1919061756d565b9150505b919050565b600e5481565b60166020528060005260406000206000915090508060000160009054906101000a900473ffffffffffffffffffffffffffffffffffffffff16908060000160149054906101000a900460ff16908060010154908060020154908060030154908060040154908060050160009054906101000a900460ff16905087565b600c60009054906101000a900473ffffffffffffffffffffffffffffffffffffffff1681565b60008060009054906101000a900473ffffffffffffffffffffffffffffffffffffffff1673ffffffffffffffffffffffffffffffffffffffff1663313ce5676040518163ffffffff1660e01b815260040160206040518083038186803b1580156139cb57600080fd5b505afa1580156139df573d6000803e3d6000fd5b505050506040513d601f19601f82011682018060405250810190613a039190616961565b600a613a0f9190617647565b82613a1a9190617765565b9050919050565b600960009054906101000a900473ffffffffffffffffffffffffffffffffffffffff1681565b601b60003373ffffffffffffffffffffffffffffffffffffffff1673ffffffffffffffffffffffffffffffffffffffff16815260200190815260200160002060009054906101000a900460ff16613ad3576040517f08c379a0000000000000000000000000000000000000000000000000000000008152600401613aca9061718a565b60405180910390fd5b7f0de0801d2bf2b41440c4e647f8fe85feef86cbb220c0e339715f888dc2b89c6181604051613b029190616e98565b60405180910390a150565b601b60003373ffffffffffffffffffffffffffffffffffffffff1673ffffffffffffffffffffffffffffffffffffffff16815260200190815260200160002060009054906101000a900460ff16613b99576040517f08c379a0000000000000000000000000000000000000000000000000000000008152600401613b909061718a565b60405180910390fd5b7f4c046938d8adaf12f829530d5ab0441e591705682189298941fd0d767cc22eab60405160405180910390a1565b6000601660003373ffffffffffffffffffffffffffffffffffffffff1673ffffffffffffffffffffffffffffffffffffffff16815260200190815260200160002060000160149054906101000a900460ff16613c58576040517f08c379a0000000000000000000000000000000000000000000000000000000008152600401613c4f906173ca565b60405180910390fd5b601660003373ffffffffffffffffffffffffffffffffffffffff1673ffffffffffffffffffffffffffffffffffffffff16815260200190815260200160002060040154905090565b6001601660008373ffffffffffffffffffffffffffffffffffffffff1673ffffffffffffffffffffffffffffffffffffffff16815260200190815260200160002060050160006101000a81548160ff021916908315150217905550613d0481613a47565b50565b60085481565b601660003373ffffffffffffffffffffffffffffffffffffffff1673ffffffffffffffffffffffffffffffffffffffff16815260200190815260200160002060000160149054906101000a900460ff16613d9c576040517f08c379a0000000000000000000000000000000000000000000000000000000008152600401613d939061736a565b60405180910390fd5b601660003373ffffffffffffffffffffffffffffffffffffffff1673ffffffffffffffffffffffffffffffffffffffff16815260200190815260200160002060050160009054906101000a900460ff1615613e2c576040517f08c379a0000000000000000000000000000000000000000000000000000000008152600401613e239061734a565b60405180910390fd5b60026001541415613e72576040517f08c379a0000000000000000000000000000000000000000000000000000000008152600401613e699061738a565b60405180910390fd5b6002600181905550601a60008573ffffffffffffffffffffffffffffffffffffffff1673ffffffffffffffffffffffffffffffffffffffff16815260200190815260200160002060000160009054906101000a900460ff16613f09576040517f08c379a0000000000000000000000000000000000000000000000000000000008152600401613f009061726a565b60405180910390fd5b600033856004604051602001613f2193929190616e5f565b604051602081830303815290604052805190602001209050600061271085600554613f4c9190617765565b613f5691906175c3565b90506000613f6f878388613f6a91906177bf565b614fd9565b9050600a8111613fb4576040517f08c379a0000000000000000000000000000000000000000000000000000000008152600401613fab9061728a565b60405180910390fd5b8560186000858152602001908152602001600020600201541161400c576040517f08c379a0000000000000000000000000000000000000000000000000000000008152600401614003906173aa565b60405180910390fd5b61401533615082565b611b5881601660003373ffffffffffffffffffffffffffffffffffffffff1673ffffffffffffffffffffffffffffffffffffffff1681526020019081526020016000206002015461406691906177bf565b612710601660003373ffffffffffffffffffffffffffffffffffffffff1673ffffffffffffffffffffffffffffffffffffffff168152602001908152602001600020600101546140b69190617765565b6140c091906175c3565b10614100576040517f08c379a00000000000000000000000000000000000000000000000000000000081526004016140f79061732a565b60405180910390fd5b8560186000858152602001908152602001600020600201600082825461412691906177bf565b9250508190555080601660003373ffffffffffffffffffffffffffffffffffffffff1673ffffffffffffffffffffffffffffffffffffffff168152602001908152602001600020600201600082825461417f91906177bf565b92505081905550846007541461423257600960009054906101000a900473ffffffffffffffffffffffffffffffffffffffff1673ffffffffffffffffffffffffffffffffffffffff1663241dc2df8886858a6141db91906177bf565b896040518563ffffffff1660e01b81526004016141fb9493929190616fbb565b600060405180830381600087803b15801561421557600080fd5b505af1158015614229573d6000803e3d6000fd5b5050505061430c565b8673ffffffffffffffffffffffffffffffffffffffff166323b872dd3033858a61425c91906177bf565b6040518463ffffffff1660e01b815260040161427a93929190616f84565b602060405180830381600087803b15801561429457600080fd5b505af11580156142a8573d6000803e3d6000fd5b505050506040513d601f19601f820116820180604052508101906142cc91906167fc565b61430b576040517f08c379a00000000000000000000000000000000000000000000000000000000081526004016143029061724a565b60405180910390fd5b5b61437786600080601a60008c73ffffffffffffffffffffffffffffffffffffffff1673ffffffffffffffffffffffffffffffffffffffff16815260200190815260200160002060000160019054906101000a90046fffffffffffffffffffffffffffffffff1661520c565b61438033613ca0565b614486601660003373ffffffffffffffffffffffffffffffffffffffff1673ffffffffffffffffffffffffffffffffffffffff1681526020019081526020016000206040518060e00160405290816000820160009054906101000a900473ffffffffffffffffffffffffffffffffffffffff1673ffffffffffffffffffffffffffffffffffffffff1673ffffffffffffffffffffffffffffffffffffffff1681526020016000820160149054906101000a900460ff16151515158152602001600182015481526020016002820154815260200160038201548152602001600482015481526020016005820160009054906101000a900460ff1615151515815250506153f8565b5050506001808190555050505050565b61449e615004565b600073ffffffffffffffffffffffffffffffffffffffff168173ffffffffffffffffffffffffffffffffffffffff16141561450e576040517f08c379a00000000000000000000000000000000000000000000000000000000081526004016145059061720a565b60405180910390fd5b61451781615432565b50565b614522615004565b6001601b60008373ffffffffffffffffffffffffffffffffffffffff1673ffffffffffffffffffffffffffffffffffffffff16815260200190815260200160002060006101000a81548160ff02191690831515021790555050565b600b60009054906101000a900473ffffffffffffffffffffffffffffffffffffffff1681565b601b60003373ffffffffffffffffffffffffffffffffffffffff1673ffffffffffffffffffffffffffffffffffffffff16815260200190815260200160002060009054906101000a900460ff1661462f576040517f08c379a00000000000000000000000000000000000000000000000000000000081526004016146269061718a565b60405180910390fd5b60005b601d805490508110156146bf576146ac601d828154811061467c577f4e487b7100000000000000000000000000000000000000000000000000000000600052603260045260246000fd5b9060005260206000200160009054906101000a900473ffffffffffffffffffffffffffffffffffffffff166154f8565b80806146b79061795b565b915050614632565b50565b601660003373ffffffffffffffffffffffffffffffffffffffff1673ffffffffffffffffffffffffffffffffffffffff16815260200190815260200160002060000160149054906101000a900460ff166148be576040518060e001604052803373ffffffffffffffffffffffffffffffffffffffff1681526020016001151581526020016000815260200160008152602001600081526020016000815260200160001515815250601660003373ffffffffffffffffffffffffffffffffffffffff1673ffffffffffffffffffffffffffffffffffffffff16815260200190815260200160002060008201518160000160006101000a81548173ffffffffffffffffffffffffffffffffffffffff021916908373ffffffffffffffffffffffffffffffffffffffff16021790555060208201518160000160146101000a81548160ff02191690831515021790555060408201518160010155606082015181600201556080820151816003015560a0820151816004015560c08201518160050160006101000a81548160ff021916908315150217905550905050601d339080600181540180825580915050600190039060005260206000200160009091909190916101000a81548173ffffffffffffffffffffffffffffffffffffffff021916908373ffffffffffffffffffffffffffffffffffffffff1602179055505b601660003373ffffffffffffffffffffffffffffffffffffffff1673ffffffffffffffffffffffffffffffffffffffff16815260200190815260200160002060000160149054906101000a900460ff1661494d576040517f08c379a00000000000000000000000000000000000000000000000000000000081526004016149449061736a565b60405180910390fd5b601660003373ffffffffffffffffffffffffffffffffffffffff1673ffffffffffffffffffffffffffffffffffffffff16815260200190815260200160002060050160009054906101000a900460ff16156149dd576040517f08c379a00000000000000000000000000000000000000000000000000000000081526004016149d49061734a565b60405180910390fd5b60026001541415614a23576040517f08c379a0000000000000000000000000000000000000000000000000000000008152600401614a1a9061738a565b60405180910390fd5b6002600181905550601a60008373ffffffffffffffffffffffffffffffffffffffff1673ffffffffffffffffffffffffffffffffffffffff16815260200190815260200160002060000160009054906101000a900460ff16614aba576040517f08c379a0000000000000000000000000000000000000000000000000000000008152600401614ab19061726a565b60405180910390fd5b600033836004604051602001614ad293929190616e5f565b604051602081830303815290604052805190602001209050600061271083600554614afd9190617765565b614b0791906175c3565b90506000614b20858386614b1b91906177bf565b614fd9565b9050600a8111614b65576040517f08c379a0000000000000000000000000000000000000000000000000000000008152600401614b5c906172aa565b60405180910390fd5b614b6e33615082565b6018600084815260200190815260200160002060010160149054906101000a900460ff1615614bef578184614ba391906177bf565b601860008581526020019081526020016000206002016000828254614bc8919061756d565b92505081905550426018600085815260200190815260200160002060030181905550614d29565b6040518060a001604052803373ffffffffffffffffffffffffffffffffffffffff1681526020018673ffffffffffffffffffffffffffffffffffffffff1681526020016001151581526020018386614c4791906177bf565b8152602001428152506018600085815260200190815260200160002060008201518160000160006101000a81548173ffffffffffffffffffffffffffffffffffffffff021916908373ffffffffffffffffffffffffffffffffffffffff16021790555060208201518160010160006101000a81548173ffffffffffffffffffffffffffffffffffffffff021916908373ffffffffffffffffffffffffffffffffffffffff16021790555060408201518160010160146101000a81548160ff02191690831515021790555060608201518160020155608082015181600301559050505b80601660003373ffffffffffffffffffffffffffffffffffffffff1673ffffffffffffffffffffffffffffffffffffffff1681526020019081526020016000206002016000828254614d7b919061756d565b92505081905550614dee8460006001601a60008a73ffffffffffffffffffffffffffffffffffffffff1673ffffffffffffffffffffffffffffffffffffffff16815260200190815260200160002060000160019054906101000a90046fffffffffffffffffffffffffffffffff1661520c565b8473ffffffffffffffffffffffffffffffffffffffff166323b872dd3330876040518463ffffffff1660e01b8152600401614e2b93929190616f84565b602060405180830381600087803b158015614e4557600080fd5b505af1158015614e59573d6000803e3d6000fd5b505050506040513d601f19601f82011682018060405250810190614e7d91906167fc565b614ebc576040517f08c379a0000000000000000000000000000000000000000000000000000000008152600401614eb39061724a565b60405180910390fd5b614ec533613ca0565b614fcb601660003373ffffffffffffffffffffffffffffffffffffffff1673ffffffffffffffffffffffffffffffffffffffff1681526020019081526020016000206040518060e00160405290816000820160009054906101000a900473ffffffffffffffffffffffffffffffffffffffff1673ffffffffffffffffffffffffffffffffffffffff1673ffffffffffffffffffffffffffffffffffffffff1681526020016000820160149054906101000a900460ff16151515158152602001600182015481526020016002820154815260200160038201548152602001600482015481526020016005820160009054906101000a900460ff1615151515815250506153f8565b505050600180819055505050565b6000600d5482614fe885615847565b614ff29190617765565b614ffc91906175c3565b905092915050565b61500c61599e565b73ffffffffffffffffffffffffffffffffffffffff1661502a6131ce565b73ffffffffffffffffffffffffffffffffffffffff1614615080576040517f08c379a0000000000000000000000000000000000000000000000000000000008152600401615077906172ea565b60405180910390fd5b565b61508b816159a6565b601660008373ffffffffffffffffffffffffffffffffffffffff1673ffffffffffffffffffffffffffffffffffffffff168152602001908152602001600020600101819055506150da81615b79565b601660008373ffffffffffffffffffffffffffffffffffffffff1673ffffffffffffffffffffffffffffffffffffffff168152602001908152602001600020600201819055506000601660008373ffffffffffffffffffffffffffffffffffffffff1673ffffffffffffffffffffffffffffffffffffffff16815260200190815260200160002060020154612710601660008573ffffffffffffffffffffffffffffffffffffffff1673ffffffffffffffffffffffffffffffffffffffff168152602001908152602001600020600101546151b59190617765565b6151bf91906175c3565b905080601660008473ffffffffffffffffffffffffffffffffffffffff1673ffffffffffffffffffffffffffffffffffffffff168152602001908152602001600020600401819055505050565b821561530457811561526e578360196000836fffffffffffffffffffffffffffffffff166fffffffffffffffffffffffffffffffff1681526020019081526020016000206002016000828254615262919061756d565b925050819055506152c0565b8360196000836fffffffffffffffffffffffffffffffff166fffffffffffffffffffffffffffffffff16815260200190815260200160002060020160008282546152b891906177bf565b925050819055505b4260196000836fffffffffffffffffffffffffffffffff166fffffffffffffffffffffffffffffffff168152602001908152602001600020600301819055506153f2565b8115615360578360196000836fffffffffffffffffffffffffffffffff166fffffffffffffffffffffffffffffffff1681526020019081526020016000206001016000828254615354919061756d565b925050819055506153b2565b8360196000836fffffffffffffffffffffffffffffffff166fffffffffffffffffffffffffffffffff16815260200190815260200160002060010160008282546153aa91906177bf565b925050819055505b4260196000836fffffffffffffffffffffffffffffffff166fffffffffffffffffffffffffffffffff168152602001908152602001600020600401819055505b50505050565b7f5b06d69a39124850db73b6766386ae3b05a61010cdeae3f0f7a6da7b3640cbab8160405161542791906173ea565b60405180910390a150565b6000600260009054906101000a900473ffffffffffffffffffffffffffffffffffffffff16905081600260006101000a81548173ffffffffffffffffffffffffffffffffffffffff021916908373ffffffffffffffffffffffffffffffffffffffff1602179055508173ffffffffffffffffffffffffffffffffffffffff168173ffffffffffffffffffffffffffffffffffffffff167f8be0079c531659141344cd1fd0a4f28419497f9722a3daafe3b4186f6b6457e060405160405180910390a35050565b61550181615082565b6000601660008373ffffffffffffffffffffffffffffffffffffffff1673ffffffffffffffffffffffffffffffffffffffff1681526020019081526020016000206004015490506000611b599050612328601660008573ffffffffffffffffffffffffffffffffffffffff1673ffffffffffffffffffffffffffffffffffffffff1681526020019081526020016000206003015411156155a557612135905061564f565b611f40601660008573ffffffffffffffffffffffffffffffffffffffff1673ffffffffffffffffffffffffffffffffffffffff1681526020019081526020016000206003015411156155fb57611f41905061564e565b611b58601660008573ffffffffffffffffffffffffffffffffffffffff1673ffffffffffffffffffffffffffffffffffffffff16815260200190815260200160002060030154111561564d57611d4d90505b5b5b80601660008573ffffffffffffffffffffffffffffffffffffffff1673ffffffffffffffffffffffffffffffffffffffff1681526020019081526020016000206004015411156158425760005b601c60009054906101000a90046fffffffffffffffffffffffffffffffff166fffffffffffffffffffffffffffffffff16816fffffffffffffffffffffffffffffffff16116158405760008460196000846fffffffffffffffffffffffffffffffff166fffffffffffffffffffffffffffffffff16815260200190815260200160002060000160009054906101000a900473ffffffffffffffffffffffffffffffffffffffff16600460405160200161575793929190616e5f565b60405160208183030381529060405280519060200120905082601660008773ffffffffffffffffffffffffffffffffffffffff1673ffffffffffffffffffffffffffffffffffffffff1681526020019081526020016000206004015410156157bf5750615840565b6158238560196000856fffffffffffffffffffffffffffffffff166fffffffffffffffffffffffffffffffff16815260200190815260200160002060000160009054906101000a900473ffffffffffffffffffffffffffffffffffffffff16615d4c565b61582c85615082565b50808061583890617922565b91505061569c565b505b505050565b60008061585383615d50565b90506000815111615899576040517f08c379a0000000000000000000000000000000000000000000000000000000008152600401615890906171ea565b60405180910390fd5b60006158d6600d5460016158ad9190617765565b600360009054906101000a900473ffffffffffffffffffffffffffffffffffffffff168461630c565b905060008060009054906101000a900473ffffffffffffffffffffffffffffffffffffffff1673ffffffffffffffffffffffffffffffffffffffff166350d25bcd6040518163ffffffff1660e01b815260040160206040518083038186803b15801561594157600080fd5b505afa158015615955573d6000803e3d6000fd5b505050506040513d601f19601f820116820180604052508101906159799190616893565b9050600d54818361598a9190617765565b61599491906175c3565b9350505050919050565b600033905090565b6000600260015414156159ee576040517f08c379a00000000000000000000000000000000000000000000000000000000081526004016159e59061738a565b60405180910390fd5b60026001819055506000805b601c60009054906101000a90046fffffffffffffffffffffffffffffffff166fffffffffffffffffffffffffffffffff16816fffffffffffffffffffffffffffffffff1611615b685760008460196000846fffffffffffffffffffffffffffffffff166fffffffffffffffffffffffffffffffff16815260200190815260200160002060000160009054906101000a900473ffffffffffffffffffffffffffffffffffffffff166004604051602001615ab593929190616e5f565b604051602081830303815290604052805190602001209050615b4760196000846fffffffffffffffffffffffffffffffff166fffffffffffffffffffffffffffffffff16815260200190815260200160002060000160009054906101000a900473ffffffffffffffffffffffffffffffffffffffff166017600084815260200190815260200160002060020154614fd9565b83615b52919061756d565b9250508080615b6090617922565b9150506159fa565b508091505060018081905550919050565b600060026001541415615bc1576040517f08c379a0000000000000000000000000000000000000000000000000000000008152600401615bb89061738a565b60405180910390fd5b60026001819055506000805b601c60009054906101000a90046fffffffffffffffffffffffffffffffff166fffffffffffffffffffffffffffffffff16816fffffffffffffffffffffffffffffffff1611615d3b5760008460196000846fffffffffffffffffffffffffffffffff166fffffffffffffffffffffffffffffffff16815260200190815260200160002060000160009054906101000a900473ffffffffffffffffffffffffffffffffffffffff166004604051602001615c8893929190616e5f565b604051602081830303815290604052805190602001209050615d1a60196000846fffffffffffffffffffffffffffffffff166fffffffffffffffffffffffffffffffff16815260200190815260200160002060000160009054906101000a900473ffffffffffffffffffffffffffffffffffffffff166018600084815260200190815260200160002060020154614fd9565b83615d25919061756d565b9250508080615d3390617922565b915050615bcd565b508091505060018081905550919050565b5050565b60606000600267ffffffffffffffff811115615d95577f4e487b7100000000000000000000000000000000000000000000000000000000600052604160045260246000fd5b604051908082528060200260200182016040528015615dc35781602001602082028036833780820191505090505b5090508281600081518110615e01577f4e487b7100000000000000000000000000000000000000000000000000000000600052603260045260246000fd5b602002602001019073ffffffffffffffffffffffffffffffffffffffff16908173ffffffffffffffffffffffffffffffffffffffff1681525050600a60009054906101000a900473ffffffffffffffffffffffffffffffffffffffff1681600181518110615e98577f4e487b7100000000000000000000000000000000000000000000000000000000600052603260045260246000fd5b602002602001019073ffffffffffffffffffffffffffffffffffffffff16908173ffffffffffffffffffffffffffffffffffffffff16815250506000615f0f600d546001615ee69190617765565b600360009054906101000a900473ffffffffffffffffffffffffffffffffffffffff168461630c565b90506000811115615f24578192505050616307565b600b60009054906101000a900473ffffffffffffffffffffffffffffffffffffffff1682600181518110615f81577f4e487b7100000000000000000000000000000000000000000000000000000000600052603260045260246000fd5b602002602001019073ffffffffffffffffffffffffffffffffffffffff16908173ffffffffffffffffffffffffffffffffffffffff1681525050600a60009054906101000a900473ffffffffffffffffffffffffffffffffffffffff1682600281518110616018577f4e487b7100000000000000000000000000000000000000000000000000000000600052603260045260246000fd5b602002602001019073ffffffffffffffffffffffffffffffffffffffff16908173ffffffffffffffffffffffffffffffffffffffff168152505061608d600d5460016160649190617765565b600360009054906101000a900473ffffffffffffffffffffffffffffffffffffffff168461630c565b905060008111156160a2578192505050616307565b600367ffffffffffffffff8111156160e3577f4e487b7100000000000000000000000000000000000000000000000000000000600052604160045260246000fd5b6040519080825280602002602001820160405280156161115781602001602082028036833780820191505090505b509150600c60009054906101000a900473ffffffffffffffffffffffffffffffffffffffff1682600181518110616171577f4e487b7100000000000000000000000000000000000000000000000000000000600052603260045260246000fd5b602002602001019073ffffffffffffffffffffffffffffffffffffffff16908173ffffffffffffffffffffffffffffffffffffffff1681525050600a60009054906101000a900473ffffffffffffffffffffffffffffffffffffffff1682600281518110616208577f4e487b7100000000000000000000000000000000000000000000000000000000600052603260045260246000fd5b602002602001019073ffffffffffffffffffffffffffffffffffffffff16908173ffffffffffffffffffffffffffffffffffffffff168152505061627d600d5460016162549190617765565b600360009054906101000a900473ffffffffffffffffffffffffffffffffffffffff168461630c565b90506000811115616292578192505050616307565b600067ffffffffffffffff8111156162d3577f4e487b7100000000000000000000000000000000000000000000000000000000600052604160045260246000fd5b6040519080825280602002602001820160405280156163015781602001602082028036833780820191505090505b50925050505b919050565b6000808373ffffffffffffffffffffffffffffffffffffffff1663d06ca61f86856040518363ffffffff1660e01b815260040161634a929190617420565b60006040518083038186803b15801561636257600080fd5b505afa158015616376573d6000803e3d6000fd5b505050506040513d6000823e3d601f19601f8201168201806040525081019061639f91906167bb565b905080600182516163b091906177bf565b815181106163e7577f4e487b7100000000000000000000000000000000000000000000000000000000600052603260045260246000fd5b60200260200101519150509392505050565b600061640c61640784617475565b617450565b9050808382526020820190508285602086028201111561642b57600080fd5b60005b8581101561645b578161644188826165bd565b84526020840193506020830192505060018101905061642e565b5050509392505050565b60008135905061647481617ec4565b92915050565b60008083601f84011261648c57600080fd5b8235905067ffffffffffffffff8111156164a557600080fd5b6020830191508360608202830111156164bd57600080fd5b9250929050565b600082601f8301126164d557600080fd5b81516164e58482602086016163f9565b91505092915050565b6000815190506164fd81617edb565b92915050565b60008135905061651281617ef2565b92915050565b60008083601f84011261652a57600080fd5b8235905067ffffffffffffffff81111561654357600080fd5b60208301915083600182028301111561655b57600080fd5b9250929050565b60008151905061657181617f09565b92915050565b6000610100828403121561658a57600080fd5b81905092915050565b6000813590506165a281617f20565b92915050565b6000813590506165b781617f37565b92915050565b6000815190506165cc81617f37565b92915050565b6000813590506165e181617f4e565b92915050565b6000815190506165f681617f65565b92915050565b60006020828403121561660e57600080fd5b600061661c84828501616465565b91505092915050565b6000806040838503121561663857600080fd5b600061664685828601616465565b9250506020616657858286016165a8565b9150509250929050565b6000806000806080858703121561667757600080fd5b600061668587828801616465565b9450506020616696878288016165a8565b93505060406166a787828801616465565b92505060606166b8878288016165a8565b91505092959194509250565b6000806000606084860312156166d957600080fd5b60006166e786828701616465565b93505060206166f8868287016165a8565b9250506040616709868287016165a8565b9150509250925092565b6000806000806080858703121561672957600080fd5b600061673787828801616465565b9450506020616748878288016165a8565b9350506040616759878288016165a8565b925050606061676a87828801616465565b91505092959194509250565b6000806020838503121561678957600080fd5b600083013567ffffffffffffffff8111156167a357600080fd5b6167af8582860161647a565b92509250509250929050565b6000602082840312156167cd57600080fd5b600082015167ffffffffffffffff8111156167e757600080fd5b6167f3848285016164c4565b91505092915050565b60006020828403121561680e57600080fd5b600061681c848285016164ee565b91505092915050565b60006020828403121561683757600080fd5b600061684584828501616503565b91505092915050565b6000806020838503121561686157600080fd5b600083013567ffffffffffffffff81111561687b57600080fd5b61688785828601616518565b92509250509250929050565b6000602082840312156168a557600080fd5b60006168b384828501616562565b91505092915050565b600061010082840312156168cf57600080fd5b60006168dd84828501616577565b91505092915050565b6000602082840312156168f857600080fd5b600061690684828501616593565b91505092915050565b60006020828403121561692157600080fd5b600061692f848285016165a8565b91505092915050565b60006020828403121561694a57600080fd5b6000616958848285016165d2565b91505092915050565b60006020828403121561697357600080fd5b6000616981848285016165e7565b91505092915050565b600061699683836169a2565b60208301905092915050565b6169ab816177f3565b82525050565b6169ba816177f3565b82525050565b6169d16169cc826177f3565b6179a4565b82525050565b60006169e2826174c6565b6169ec81856174e9565b93506169f7836174a1565b8060005b83811015616a28578151616a0f888261698a565b9750616a1a836174dc565b9250506001810190506169fb565b5085935050505092915050565b616a3e81617805565b82525050565b616a4d81617805565b82525050565b6000616a5e826174d1565b616a6881856174fa565b9350616a7881856020860161788c565b616a8181617a84565b840191505092915050565b60008154616a99816178bf565b616aa3818661751c565b94506001821660008114616abe5760018114616acf57616b02565b60ff19831686528186019350616b02565b616ad8856174b1565b60005b83811015616afa57815481890152600182019150602081019050616adb565b838801955050505b50505092915050565b6000616b18602f8361750b565b9150616b2382617aaf565b604082019050919050565b6000616b3b60188361750b565b9150616b4682617afe565b602082019050919050565b6000616b5e601d8361750b565b9150616b6982617b27565b602082019050919050565b6000616b81602d8361750b565b9150616b8c82617b50565b604082019050919050565b6000616ba460268361750b565b9150616baf82617b9f565b604082019050919050565b6000616bc760298361750b565b9150616bd282617bee565b604082019050919050565b6000616bea60228361750b565b9150616bf582617c3d565b604082019050919050565b6000616c0d601c8361750b565b9150616c1882617c8c565b602082019050919050565b6000616c30601d8361750b565b9150616c3b82617cb5565b602082019050919050565b6000616c53601a8361750b565b9150616c5e82617cde565b602082019050919050565b6000616c76601c8361750b565b9150616c8182617d07565b602082019050919050565b6000616c9960208361750b565b9150616ca482617d30565b602082019050919050565b6000616cbc60208361750b565b9150616cc782617d59565b602082019050919050565b6000616cdf60358361750b565b9150616cea82617d82565b604082019050919050565b6000616d02602f8361750b565b9150616d0d82617dd1565b604082019050919050565b6000616d2560178361750b565b9150616d3082617e20565b602082019050919050565b6000616d48601f8361750b565b9150616d5382617e49565b602082019050919050565b6000616d6b60208361750b565b9150616d7682617e72565b602082019050919050565b6000616d8e600d8361750b565b9150616d9982617e9b565b602082019050919050565b60e082016000820151616dba60008501826169a2565b506020820151616dcd6020850182616a35565b506040820151616de06040850182616e41565b506060820151616df36060850182616e41565b506080820151616e066080850182616e41565b5060a0820151616e1960a0850182616e41565b5060c0820151616e2c60c0850182616a35565b50505050565b616e3b81617825565b82525050565b616e4a81617861565b82525050565b616e5981617861565b82525050565b6000616e6b82866169c0565b601482019150616e7b82856169c0565b601482019150616e8b8284616a8c565b9150819050949350505050565b6000602082019050616ead60008301846169b1565b92915050565b600061010082019050616ec9600083018b6169b1565b616ed6602083018a6169b1565b616ee36040830189616a44565b616ef06060830188616e50565b616efd60808301876169b1565b616f0a60a0830186616e50565b616f1760c08301856169b1565b616f2460e0830184616e50565b9998505050505050505050565b600060a082019050616f4660008301886169b1565b616f5360208301876169b1565b616f606040830186616a44565b616f6d6060830185616e50565b616f7a6080830184616e50565b9695505050505050565b6000606082019050616f9960008301866169b1565b616fa660208301856169b1565b616fb36040830184616e50565b949350505050565b6000608082019050616fd060008301876169b1565b616fdd60208301866169b1565b616fea6040830185616e50565b616ff76060830184616e50565b95945050505050565b600060e082019050617015600083018a6169b1565b6170226020830189616a44565b61702f6040830188616e50565b61703c6060830187616e50565b6170496080830186616e50565b61705660a0830185616e50565b61706360c0830184616a44565b98975050505050505050565b600061010082019050617085600083018b6169b1565b617092602083018a616a44565b61709f6040830189616e50565b6170ac6060830188616e50565b6170b96080830187616e50565b6170c660a0830186616e50565b6170d360c0830185616e50565b6170e060e0830184616e50565b9998505050505050505050565b600060408201905061710260008301856169b1565b61710f6020830184616e50565b9392505050565b600060208201905061712b6000830184616a44565b92915050565b60006040820190506171466000830185616a44565b81810360208301526171588184616a53565b90509392505050565b60006040820190506171766000830185616a44565b6171836020830184616e32565b9392505050565b600060208201905081810360008301526171a381616b0b565b9050919050565b600060208201905081810360008301526171c381616b2e565b9050919050565b600060208201905081810360008301526171e381616b51565b9050919050565b6000602082019050818103600083015261720381616b74565b9050919050565b6000602082019050818103600083015261722381616b97565b9050919050565b6000602082019050818103600083015261724381616bba565b9050919050565b6000602082019050818103600083015261726381616bdd565b9050919050565b6000602082019050818103600083015261728381616c00565b9050919050565b600060208201905081810360008301526172a381616c23565b9050919050565b600060208201905081810360008301526172c381616c46565b9050919050565b600060208201905081810360008301526172e381616c69565b9050919050565b6000602082019050818103600083015261730381616c8c565b9050919050565b6000602082019050818103600083015261732381616caf565b9050919050565b6000602082019050818103600083015261734381616cd2565b9050919050565b6000602082019050818103600083015261736381616cf5565b9050919050565b6000602082019050818103600083015261738381616d18565b9050919050565b600060208201905081810360008301526173a381616d3b565b9050919050565b600060208201905081810360008301526173c381616d5e565b9050919050565b600060208201905081810360008301526173e381616d81565b9050919050565b600060e0820190506173ff6000830184616da4565b92915050565b600060208201905061741a6000830184616e50565b92915050565b60006040820190506174356000830185616e50565b818103602083015261744781846169d7565b90509392505050565b600061745a61746b565b905061746682826178f1565b919050565b6000604051905090565b600067ffffffffffffffff8211156174905761748f617a55565b5b602082029050602081019050919050565b6000819050602082019050919050565b60008190508160005260206000209050919050565b600081519050919050565b600081519050919050565b6000602082019050919050565b600082825260208201905092915050565b600082825260208201905092915050565b600082825260208201905092915050565b600081905092915050565b600061753282617825565b915061753d83617825565b9250826fffffffffffffffffffffffffffffffff03821115617562576175616179c8565b5b828201905092915050565b600061757882617861565b915061758383617861565b9250827fffffffffffffffffffffffffffffffffffffffffffffffffffffffffffffffff038211156175b8576175b76179c8565b5b828201905092915050565b60006175ce82617861565b91506175d983617861565b9250826175e9576175e86179f7565b5b828204905092915050565b6000808291508390505b600185111561763e5780860481111561761a576176196179c8565b5b60018516156176295780820291505b808102905061763785617aa2565b94506175fe565b94509492505050565b600061765282617861565b915061765d8361787f565b925061768a7fffffffffffffffffffffffffffffffffffffffffffffffffffffffffffffffff8484617692565b905092915050565b6000826176a2576001905061775e565b816176b0576000905061775e565b81600181146176c657600281146176d0576176ff565b600191505061775e565b60ff8411156176e2576176e16179c8565b5b8360020a9150848211156176f9576176f86179c8565b5b5061775e565b5060208310610133831016604e8410600b84101617156177345782820a90508381111561772f5761772e6179c8565b5b61775e565b61774184848460016175f4565b92509050818404811115617758576177576179c8565b5b81810290505b9392505050565b600061777082617861565b915061777b83617861565b9250817fffffffffffffffffffffffffffffffffffffffffffffffffffffffffffffffff04831182151516156177b4576177b36179c8565b5b828202905092915050565b60006177ca82617861565b91506177d583617861565b9250828210156177e8576177e76179c8565b5b828203905092915050565b60006177fe82617841565b9050919050565b60008115159050919050565b6000819050919050565b6000819050919050565b60006fffffffffffffffffffffffffffffffff82169050919050565b600073ffffffffffffffffffffffffffffffffffffffff82169050919050565b6000819050919050565b600067ffffffffffffffff82169050919050565b600060ff82169050919050565b60005b838110156178aa57808201518184015260208101905061788f565b838111156178b9576000848401525b50505050565b600060028204905060018216806178d757607f821691505b602082108114156178eb576178ea617a26565b5b50919050565b6178fa82617a84565b810181811067ffffffffffffffff8211171561791957617918617a55565b5b80604052505050565b600061792d82617825565b91506fffffffffffffffffffffffffffffffff8214156179505761794f6179c8565b5b600182019050919050565b600061796682617861565b91507fffffffffffffffffffffffffffffffffffffffffffffffffffffffffffffffff821415617999576179986179c8565b5b600182019050919050565b60006179af826179b6565b9050919050565b60006179c182617a95565b9050919050565b7f4e487b7100000000000000000000000000000000000000000000000000000000600052601160045260246000fd5b7f4e487b7100000000000000000000000000000000000000000000000000000000600052601260045260246000fd5b7f4e487b7100000000000000000000000000000000000000000000000000000000600052602260045260246000fd5b7f4e487b7100000000000000000000000000000000000000000000000000000000600052604160045260246000fd5b6000601f19601f8301169050919050565b60008160601b9050919050565b60008160011c9050919050565b7f55736572206e6f7420616c6c6f77656420666f7220746869732066756e63746960008201527f6f6e2c2041646d696e206f6e6c792e0000000000000000000000000000000000602082015250565b7f416d6f756e7420746f6f206c6f7720666f722072657061790000000000000000600082015250565b7f416d6f756e7420746f6f206c6f7720666f7220636f6c616c746572616c000000600082015250565b7f70617468206d75737420626520646566696e697469766520616e64206772656160008201527f746572207468616e207a65726f00000000000000000000000000000000000000602082015250565b7f4f776e61626c653a206e6577206f776e657220697320746865207a65726f206160008201527f6464726573730000000000000000000000000000000000000000000000000000602082015250565b7f4e6f7420656e6f75676820616d6f756e7420746f206b69636b7374617274206160008201527f206e657720706f6f6c0000000000000000000000000000000000000000000000602082015250565b7f7472616e7366657246726f6d206661696c65642066726f6d20636f6e7472616360008201527f742e000000000000000000000000000000000000000000000000000000000000602082015250565b7f6d61726b6574206e6f74206f70656e206f7220617661696c61626c6500000000600082015250565b7f416d6f756e7420746f6f206c6f7720666f72207769746864726177616c000000600082015250565b7f416d6f756e7420746f6f206c6f7720666f72207374616b696e67000000000000600082015250565b7f416d6f756e7420746f6f206c6f7720666f7220626f72726f77696e6700000000600082015250565b7f4f776e61626c653a2063616c6c6572206973206e6f7420746865206f776e6572600082015250565b7f6d61726b657420616c7265616479206f70656e206f7220617661696c61626c65600082015250565b7f416d6f756e742067726561746572207468616e20616c6c6f77656420616d6f7560008201527f6e7420666f72207573657220746f20626f72726f770000000000000000000000602082015250565b7f4e6f7420616c6c6f77656420746f20706572666f726d2061207472616e73616360008201527f74696f6e207269676874206e6f772e0000000000000000000000000000000000602082015250565b7f7573657220646f6573206e6f7420657869737420796574000000000000000000600082015250565b7f5265656e7472616e637947756172643a207265656e7472616e742063616c6c00600082015250565b7f4e6f7420656e6f756768206c697175696469747920746f207769746864726177600082015250565b7f55736572206e6f742066756e6400000000000000000000000000000000000000600082015250565b617ecd816177f3565b8114617ed857600080fd5b50565b617ee481617805565b8114617eef57600080fd5b50565b617efb81617811565b8114617f0657600080fd5b50565b617f128161781b565b8114617f1d57600080fd5b50565b617f2981617825565b8114617f3457600080fd5b50565b617f4081617861565b8114617f4b57600080fd5b50565b617f578161786b565b8114617f6257600080fd5b50565b617f6e8161787f565b8114617f7957600080fd5b5056fea2646970667358221220694658241fab4b7c12ace4e273a81630c207c462cc9c109dbd537bc30c868c6864736f6c63430008040033",
  "linkReferences": {},
  "deployedLinkReferences": {}
}