{
  "_format": "hh-sol-artifact-1",
  "contractName": "HeadenFinanceChild",
  "sourceName": "contracts/headenFinanceChild.sol",
  "abi": [
    {
      "inputs": [
        {
          "internalType": "uint256",
          "name": "_interval",
          "type": "uint256"
        },
        {
          "internalType": "address",
          "name": "_multichainRouter",
          "type": "address"
        },
        {
          "internalType": "string",
          "name": "_hashSalt",
          "type": "string"
        },
        {
          "internalType": "address",
          "name": "_swapRouter",
          "type": "address"
        },
        {
          "internalType": "address",
          "name": "_usdc",
          "type": "address"
        },
        {
          "internalType": "address",
          "name": "_dai",
          "type": "address"
        },
        {
          "internalType": "address",
          "name": "_matic",
          "type": "address"
        },
        {
          "components": [
            {
              "internalType": "uint64",
              "name": "supplyKink",
              "type": "uint64"
            },
            {
              "internalType": "uint64",
              "name": "supplyPerYearInterestRateSlopeLow",
              "type": "uint64"
            },
            {
              "internalType": "uint64",
              "name": "supplyPerYearInterestRateSlopeHigh",
              "type": "uint64"
            },
            {
              "internalType": "uint64",
              "name": "supplyPerYearInterestRateBase",
              "type": "uint64"
            },
            {
              "internalType": "uint64",
              "name": "borrowKink",
              "type": "uint64"
            },
            {
              "internalType": "uint64",
              "name": "borrowPerYearInterestRateSlopeLow",
              "type": "uint64"
            },
            {
              "internalType": "uint64",
              "name": "borrowPerYearInterestRateSlopeHigh",
              "type": "uint64"
            },
            {
              "internalType": "uint64",
              "name": "borrowPerYearInterestRateBase",
              "type": "uint64"
            }
          ],
          "internalType": "struct HeadenUtils.Configuration",
          "name": "config",
          "type": "tuple"
        }
      ],
      "stateMutability": "nonpayable",
      "type": "constructor"
    },
    {
      "anonymous": false,
      "inputs": [
        {
          "indexed": true,
          "internalType": "address",
          "name": "abacusConnectionManager",
          "type": "address"
        }
      ],
      "name": "AbacusConnectionManagerSet",
      "type": "event"
    },
    {
      "anonymous": false,
      "inputs": [],
      "name": "Borrowed",
      "type": "event"
    },
    {
      "anonymous": false,
      "inputs": [
        {
          "indexed": false,
          "internalType": "address",
          "name": "user",
          "type": "address"
        }
      ],
      "name": "ChainSyncRequired",
      "type": "event"
    },
    {
      "anonymous": false,
      "inputs": [],
      "name": "FullChainSyncRequired",
      "type": "event"
    },
    {
      "anonymous": false,
      "inputs": [
        {
          "indexed": false,
          "internalType": "uint8",
          "name": "version",
          "type": "uint8"
        }
      ],
      "name": "Initialized",
      "type": "event"
    },
    {
      "anonymous": false,
      "inputs": [
        {
          "indexed": true,
          "internalType": "address",
          "name": "interchainGasPaymaster",
          "type": "address"
        }
      ],
      "name": "InterchainGasPaymasterSet",
      "type": "event"
    },
    {
      "anonymous": false,
      "inputs": [
        {
          "indexed": false,
          "internalType": "address",
          "name": "user",
          "type": "address"
        }
      ],
      "name": "LockUntilUpdateFromParentChain",
      "type": "event"
    },
    {
      "anonymous": false,
      "inputs": [
        {
          "indexed": true,
          "internalType": "address",
          "name": "previousOwner",
          "type": "address"
        },
        {
          "indexed": true,
          "internalType": "address",
          "name": "newOwner",
          "type": "address"
        }
      ],
      "name": "OwnershipTransferred",
      "type": "event"
    },
    {
      "anonymous": false,
      "inputs": [
        {
          "indexed": true,
          "internalType": "uint32",
          "name": "domain",
          "type": "uint32"
        },
        {
          "indexed": true,
          "internalType": "bytes32",
          "name": "router",
          "type": "bytes32"
        }
      ],
      "name": "RemoteRouterEnrolled",
      "type": "event"
    },
    {
      "anonymous": false,
      "inputs": [],
      "name": "Staked",
      "type": "event"
    },
    {
      "anonymous": false,
      "inputs": [
        {
          "components": [
            {
              "internalType": "address",
              "name": "userAddress",
              "type": "address"
            },
            {
              "internalType": "bool",
              "name": "available",
              "type": "bool"
            },
            {
              "internalType": "uint256",
              "name": "totalAmountBorrowed",
              "type": "uint256"
            },
            {
              "internalType": "uint256",
              "name": "totalAmountStaked",
              "type": "uint256"
            },
            {
              "internalType": "uint256",
              "name": "creditScore",
              "type": "uint256"
            },
            {
              "internalType": "uint256",
              "name": "ltv",
              "type": "uint256"
            },
            {
              "internalType": "bool",
              "name": "lock",
              "type": "bool"
            }
          ],
          "indexed": false,
          "internalType": "struct HeadenFinanceChild.User",
          "name": "user",
          "type": "tuple"
        }
      ],
      "name": "UpdateParentChain",
      "type": "event"
    },
    {
      "anonymous": false,
      "inputs": [],
      "name": "Withdrawn",
      "type": "event"
    },
    {
      "inputs": [],
      "name": "SECONDS_PER_YEAR",
      "outputs": [
        {
          "internalType": "uint256",
          "name": "",
          "type": "uint256"
        }
      ],
      "stateMutability": "view",
      "type": "function"
    },
    {
      "inputs": [],
      "name": "abacusConnectionManager",
      "outputs": [
        {
          "internalType": "contract IAbacusConnectionManager",
          "name": "",
          "type": "address"
        }
      ],
      "stateMutability": "view",
      "type": "function"
    },
    {
      "inputs": [
        {
          "internalType": "uint128",
          "name": "_id",
          "type": "uint128"
        }
      ],
      "name": "borrowInterestRates",
      "outputs": [
        {
          "internalType": "uint256",
          "name": "",
          "type": "uint256"
        }
      ],
      "stateMutability": "nonpayable",
      "type": "function"
    },
    {
      "inputs": [],
      "name": "borrowKink",
      "outputs": [
        {
          "internalType": "uint256",
          "name": "",
          "type": "uint256"
        }
      ],
      "stateMutability": "view",
      "type": "function"
    },
    {
      "inputs": [],
      "name": "borrowPerSecondInterestRateBase",
      "outputs": [
        {
          "internalType": "uint256",
          "name": "",
          "type": "uint256"
        }
      ],
      "stateMutability": "view",
      "type": "function"
    },
    {
      "inputs": [],
      "name": "borrowPerSecondInterestRateSlopeHigh",
      "outputs": [
        {
          "internalType": "uint256",
          "name": "",
          "type": "uint256"
        }
      ],
      "stateMutability": "view",
      "type": "function"
    },
    {
      "inputs": [],
      "name": "borrowPerSecondInterestRateSlopeLow",
      "outputs": [
        {
          "internalType": "uint256",
          "name": "",
          "type": "uint256"
        }
      ],
      "stateMutability": "view",
      "type": "function"
    },
    {
      "inputs": [
        {
          "internalType": "address",
          "name": "_tokenAddress",
          "type": "address"
        },
        {
          "internalType": "uint256",
          "name": "_amountToBorrow",
          "type": "uint256"
        }
      ],
      "name": "borrowToken",
      "outputs": [],
      "stateMutability": "nonpayable",
      "type": "function"
    },
    {
      "inputs": [
        {
          "internalType": "address",
          "name": "_tokenAddress",
          "type": "address"
        },
        {
          "internalType": "uint256",
          "name": "_amountToBorrow",
          "type": "uint256"
        },
        {
          "internalType": "address",
          "name": "_collateralAddress",
          "type": "address"
        },
        {
          "internalType": "uint256",
          "name": "_collateralAmount",
          "type": "uint256"
        }
      ],
      "name": "borrowTokenWithCollateral",
      "outputs": [],
      "stateMutability": "nonpayable",
      "type": "function"
    },
    {
      "inputs": [],
      "name": "chainId",
      "outputs": [
        {
          "internalType": "uint256",
          "name": "",
          "type": "uint256"
        }
      ],
      "stateMutability": "view",
      "type": "function"
    },
    {
      "inputs": [
        {
          "internalType": "bytes",
          "name": "",
          "type": "bytes"
        }
      ],
      "name": "checkUpkeep",
      "outputs": [
        {
          "internalType": "bool",
          "name": "upkeepNeeded",
          "type": "bool"
        },
        {
          "internalType": "bytes",
          "name": "",
          "type": "bytes"
        }
      ],
      "stateMutability": "view",
      "type": "function"
    },
    {
      "inputs": [
        {
          "internalType": "address",
          "name": "_token",
          "type": "address"
        }
      ],
      "name": "createMarket",
      "outputs": [],
      "stateMutability": "nonpayable",
      "type": "function"
    },
    {
      "inputs": [
        {
          "internalType": "address",
          "name": "_token",
          "type": "address"
        },
        {
          "internalType": "uint256",
          "name": "amount",
          "type": "uint256"
        }
      ],
      "name": "createMarketPool",
      "outputs": [],
      "stateMutability": "nonpayable",
      "type": "function"
    },
    {
      "inputs": [],
      "name": "dai",
      "outputs": [
        {
          "internalType": "address",
          "name": "",
          "type": "address"
        }
      ],
      "stateMutability": "view",
      "type": "function"
    },
    {
      "inputs": [
        {
          "internalType": "uint32",
          "name": "_domain",
          "type": "uint32"
        },
        {
          "internalType": "bytes32",
          "name": "_router",
          "type": "bytes32"
        }
      ],
      "name": "enrollRemoteRouter",
      "outputs": [],
      "stateMutability": "nonpayable",
      "type": "function"
    },
    {
      "inputs": [],
      "name": "getRiskLevel",
      "outputs": [
        {
          "internalType": "uint256",
          "name": "",
          "type": "uint256"
        }
      ],
      "stateMutability": "view",
      "type": "function"
    },
    {
      "inputs": [
        {
          "internalType": "uint32",
          "name": "_origin",
          "type": "uint32"
        },
        {
          "internalType": "bytes32",
          "name": "_sender",
          "type": "bytes32"
        },
        {
          "internalType": "bytes",
          "name": "_message",
          "type": "bytes"
        }
      ],
      "name": "handle",
      "outputs": [],
      "stateMutability": "nonpayable",
      "type": "function"
    },
    {
      "inputs": [],
      "name": "interchainGasPaymaster",
      "outputs": [
        {
          "internalType": "contract IInterchainGasPaymaster",
          "name": "",
          "type": "address"
        }
      ],
      "stateMutability": "view",
      "type": "function"
    },
    {
      "inputs": [],
      "name": "interval",
      "outputs": [
        {
          "internalType": "uint256",
          "name": "",
          "type": "uint256"
        }
      ],
      "stateMutability": "view",
      "type": "function"
    },
    {
      "inputs": [],
      "name": "lastTimeStamp",
      "outputs": [
        {
          "internalType": "uint256",
          "name": "",
          "type": "uint256"
        }
      ],
      "stateMutability": "view",
      "type": "function"
    },
    {
      "inputs": [
        {
          "internalType": "address",
          "name": "user",
          "type": "address"
        }
      ],
      "name": "lockThisUserUntilParentUpdate",
      "outputs": [],
      "stateMutability": "nonpayable",
      "type": "function"
    },
    {
      "inputs": [
        {
          "internalType": "address",
          "name": "",
          "type": "address"
        }
      ],
      "name": "marketTokens",
      "outputs": [
        {
          "internalType": "bool",
          "name": "available",
          "type": "bool"
        },
        {
          "internalType": "uint128",
          "name": "_id",
          "type": "uint128"
        }
      ],
      "stateMutability": "view",
      "type": "function"
    },
    {
      "inputs": [
        {
          "internalType": "uint128",
          "name": "",
          "type": "uint128"
        }
      ],
      "name": "markets",
      "outputs": [
        {
          "internalType": "address",
          "name": "tokenAddress",
          "type": "address"
        },
        {
          "internalType": "bool",
          "name": "available",
          "type": "bool"
        },
        {
          "internalType": "uint256",
          "name": "amountStaked",
          "type": "uint256"
        },
        {
          "internalType": "uint256",
          "name": "amountBorrowed",
          "type": "uint256"
        },
        {
          "internalType": "uint256",
          "name": "timeLastBorrowed",
          "type": "uint256"
        },
        {
          "internalType": "uint256",
          "name": "timeLastStaked",
          "type": "uint256"
        },
        {
          "internalType": "uint256",
          "name": "borrowRate",
          "type": "uint256"
        },
        {
          "internalType": "uint256",
          "name": "supplyRate",
          "type": "uint256"
        }
      ],
      "stateMutability": "view",
      "type": "function"
    },
    {
      "inputs": [],
      "name": "matic",
      "outputs": [
        {
          "internalType": "address",
          "name": "",
          "type": "address"
        }
      ],
      "stateMutability": "view",
      "type": "function"
    },
    {
      "inputs": [],
      "name": "multichainRouter",
      "outputs": [
        {
          "internalType": "address",
          "name": "",
          "type": "address"
        }
      ],
      "stateMutability": "view",
      "type": "function"
    },
    {
      "inputs": [],
      "name": "owner",
      "outputs": [
        {
          "internalType": "address",
          "name": "",
          "type": "address"
        }
      ],
      "stateMutability": "view",
      "type": "function"
    },
    {
      "inputs": [
        {
          "internalType": "uint256",
          "name": "amount",
          "type": "uint256"
        }
      ],
      "name": "per_amount",
      "outputs": [
        {
          "internalType": "uint256",
          "name": "",
          "type": "uint256"
        }
      ],
      "stateMutability": "view",
      "type": "function"
    },
    {
      "inputs": [
        {
          "internalType": "bytes",
          "name": "",
          "type": "bytes"
        }
      ],
      "name": "performUpkeep",
      "outputs": [],
      "stateMutability": "nonpayable",
      "type": "function"
    },
    {
      "inputs": [
        {
          "components": [
            {
              "internalType": "address",
              "name": "user",
              "type": "address"
            },
            {
              "internalType": "uint256",
              "name": "totalStakes",
              "type": "uint256"
            },
            {
              "internalType": "uint256",
              "name": "totalBorrows",
              "type": "uint256"
            }
          ],
          "internalType": "struct HeadenFinanceChild.FullUpdateData[]",
          "name": "usersData",
          "type": "tuple[]"
        }
      ],
      "name": "receiveFullUpdateFromParentChain",
      "outputs": [],
      "stateMutability": "nonpayable",
      "type": "function"
    },
    {
      "inputs": [
        {
          "internalType": "address",
          "name": "user",
          "type": "address"
        },
        {
          "internalType": "uint256",
          "name": "totalStakes",
          "type": "uint256"
        },
        {
          "internalType": "uint256",
          "name": "totalBorrows",
          "type": "uint256"
        }
      ],
      "name": "receiveUpdateFromParentChain",
      "outputs": [],
      "stateMutability": "nonpayable",
      "type": "function"
    },
    {
      "inputs": [
        {
          "internalType": "address",
          "name": "",
          "type": "address"
        }
      ],
      "name": "relayers",
      "outputs": [
        {
          "internalType": "bool",
          "name": "",
          "type": "bool"
        }
      ],
      "stateMutability": "view",
      "type": "function"
    },
    {
      "inputs": [],
      "name": "renounceOwnership",
      "outputs": [],
      "stateMutability": "nonpayable",
      "type": "function"
    },
    {
      "inputs": [
        {
          "internalType": "address",
          "name": "_tokenAddress",
          "type": "address"
        },
        {
          "internalType": "uint256",
          "name": "_amount",
          "type": "uint256"
        }
      ],
      "name": "repayLoan",
      "outputs": [],
      "stateMutability": "nonpayable",
      "type": "function"
    },
    {
      "inputs": [
        {
          "internalType": "uint32",
          "name": "",
          "type": "uint32"
        }
      ],
      "name": "routers",
      "outputs": [
        {
          "internalType": "bytes32",
          "name": "",
          "type": "bytes32"
        }
      ],
      "stateMutability": "view",
      "type": "function"
    },
    {
      "inputs": [
        {
          "internalType": "address",
          "name": "_abacusConnectionManager",
          "type": "address"
        }
      ],
      "name": "setAbacusConnectionManager",
      "outputs": [],
      "stateMutability": "nonpayable",
      "type": "function"
    },
    {
      "inputs": [
        {
          "internalType": "address",
          "name": "_interchainGasPaymaster",
          "type": "address"
        }
      ],
      "name": "setInterchainGasPaymaster",
      "outputs": [],
      "stateMutability": "nonpayable",
      "type": "function"
    },
    {
      "inputs": [
        {
          "internalType": "address",
          "name": "_tokenAddress",
          "type": "address"
        },
        {
          "internalType": "uint256",
          "name": "_amountToStake",
          "type": "uint256"
        }
      ],
      "name": "stakeToken",
      "outputs": [],
      "stateMutability": "nonpayable",
      "type": "function"
    },
    {
      "inputs": [
        {
          "internalType": "uint128",
          "name": "_id",
          "type": "uint128"
        }
      ],
      "name": "supplyInterestRates",
      "outputs": [
        {
          "internalType": "uint256",
          "name": "",
          "type": "uint256"
        }
      ],
      "stateMutability": "nonpayable",
      "type": "function"
    },
    {
      "inputs": [],
      "name": "supplyKink",
      "outputs": [
        {
          "internalType": "uint256",
          "name": "",
          "type": "uint256"
        }
      ],
      "stateMutability": "view",
      "type": "function"
    },
    {
      "inputs": [],
      "name": "supplyPerSecondInterestRateBase",
      "outputs": [
        {
          "internalType": "uint256",
          "name": "",
          "type": "uint256"
        }
      ],
      "stateMutability": "view",
      "type": "function"
    },
    {
      "inputs": [],
      "name": "supplyPerSecondInterestRateSlopeHigh",
      "outputs": [
        {
          "internalType": "uint256",
          "name": "",
          "type": "uint256"
        }
      ],
      "stateMutability": "view",
      "type": "function"
    },
    {
      "inputs": [],
      "name": "supplyPerSecondInterestRateSlopeLow",
      "outputs": [
        {
          "internalType": "uint256",
          "name": "",
          "type": "uint256"
        }
      ],
      "stateMutability": "view",
      "type": "function"
    },
    {
      "inputs": [],
      "name": "tax",
      "outputs": [
        {
          "internalType": "uint256",
          "name": "",
          "type": "uint256"
        }
      ],
      "stateMutability": "view",
      "type": "function"
    },
    {
      "inputs": [
        {
          "internalType": "address",
          "name": "newOwner",
          "type": "address"
        }
      ],
      "name": "transferOwnership",
      "outputs": [],
      "stateMutability": "nonpayable",
      "type": "function"
    },
    {
      "inputs": [
        {
          "components": [
            {
              "internalType": "uint64",
              "name": "supplyKink",
              "type": "uint64"
            },
            {
              "internalType": "uint64",
              "name": "supplyPerYearInterestRateSlopeLow",
              "type": "uint64"
            },
            {
              "internalType": "uint64",
              "name": "supplyPerYearInterestRateSlopeHigh",
              "type": "uint64"
            },
            {
              "internalType": "uint64",
              "name": "supplyPerYearInterestRateBase",
              "type": "uint64"
            },
            {
              "internalType": "uint64",
              "name": "borrowKink",
              "type": "uint64"
            },
            {
              "internalType": "uint64",
              "name": "borrowPerYearInterestRateSlopeLow",
              "type": "uint64"
            },
            {
              "internalType": "uint64",
              "name": "borrowPerYearInterestRateSlopeHigh",
              "type": "uint64"
            },
            {
              "internalType": "uint64",
              "name": "borrowPerYearInterestRateBase",
              "type": "uint64"
            }
          ],
          "internalType": "struct HeadenUtils.Configuration",
          "name": "config",
          "type": "tuple"
        },
        {
          "internalType": "address",
          "name": "_relayer",
          "type": "address"
        }
      ],
      "name": "updateSettings",
      "outputs": [],
      "stateMutability": "nonpayable",
      "type": "function"
    },
    {
      "inputs": [],
      "name": "usdc",
      "outputs": [
        {
          "internalType": "address",
          "name": "",
          "type": "address"
        }
      ],
      "stateMutability": "view",
      "type": "function"
    },
    {
      "inputs": [
        {
          "internalType": "address",
          "name": "",
          "type": "address"
        }
      ],
      "name": "users",
      "outputs": [
        {
          "internalType": "address",
          "name": "userAddress",
          "type": "address"
        },
        {
          "internalType": "bool",
          "name": "available",
          "type": "bool"
        },
        {
          "internalType": "uint256",
          "name": "totalAmountBorrowed",
          "type": "uint256"
        },
        {
          "internalType": "uint256",
          "name": "totalAmountStaked",
          "type": "uint256"
        },
        {
          "internalType": "uint256",
          "name": "creditScore",
          "type": "uint256"
        },
        {
          "internalType": "uint256",
          "name": "ltv",
          "type": "uint256"
        },
        {
          "internalType": "bool",
          "name": "lock",
          "type": "bool"
        }
      ],
      "stateMutability": "view",
      "type": "function"
    },
    {
      "inputs": [
        {
          "internalType": "bytes32",
          "name": "",
          "type": "bytes32"
        }
      ],
      "name": "usersborrows",
      "outputs": [
        {
          "internalType": "address",
          "name": "userAddress",
          "type": "address"
        },
        {
          "internalType": "address",
          "name": "tokenAddress",
          "type": "address"
        },
        {
          "internalType": "bool",
          "name": "available",
          "type": "bool"
        },
        {
          "internalType": "uint256",
          "name": "amountBorrowed",
          "type": "uint256"
        },
        {
          "internalType": "address",
          "name": "collateralAddress",
          "type": "address"
        },
        {
          "internalType": "uint256",
          "name": "collateralAmount",
          "type": "uint256"
        },
        {
          "internalType": "address",
          "name": "borrowRouter",
          "type": "address"
        },
        {
          "internalType": "uint256",
          "name": "timeLastBorrowed",
          "type": "uint256"
        }
      ],
      "stateMutability": "view",
      "type": "function"
    },
    {
      "inputs": [
        {
          "internalType": "bytes32",
          "name": "",
          "type": "bytes32"
        }
      ],
      "name": "userstakes",
      "outputs": [
        {
          "internalType": "address",
          "name": "userAddress",
          "type": "address"
        },
        {
          "internalType": "address",
          "name": "tokenAddress",
          "type": "address"
        },
        {
          "internalType": "bool",
          "name": "available",
          "type": "bool"
        },
        {
          "internalType": "uint256",
          "name": "amountStaked",
          "type": "uint256"
        },
        {
          "internalType": "uint256",
          "name": "timeLastStaked",
          "type": "uint256"
        }
      ],
      "stateMutability": "view",
      "type": "function"
    },
    {
      "inputs": [],
      "name": "validateUsers",
      "outputs": [],
      "stateMutability": "nonpayable",
      "type": "function"
    },
    {
      "inputs": [
        {
          "internalType": "address",
          "name": "_tokenAddress",
          "type": "address"
        },
        {
          "internalType": "uint256",
          "name": "_amountToWithdraw",
          "type": "uint256"
        },
        {
          "internalType": "uint256",
          "name": "_chainId",
          "type": "uint256"
        },
        {
          "internalType": "address",
          "name": "_to",
          "type": "address"
        }
      ],
      "name": "withdrawToken",
      "outputs": [],
      "stateMutability": "nonpayable",
      "type": "function"
    }
  ],
  "bytecode": "0x60a060405273103a2d37ea6b3b4da2f5bb44e001001729e743546000806101000a81548173ffffffffffffffffffffffffffffffffffffffff021916908373ffffffffffffffffffffffffffffffffffffffff16021790555061015e600455670de0b6b3a76400006009556301e13380600a55600060e460006101000a8154816fffffffffffffffffffffffffffffffff02191690836fffffffffffffffffffffffffffffffff160217905550348015620000b957600080fd5b506040516200a5753803806200a5758339818101604052810190620000df91906200085f565b87878787878787876001808190555086600560006101000a81548173ffffffffffffffffffffffffffffffffffffffff021916908373ffffffffffffffffffffffffffffffffffffffff1602179055508560039080519060200190620001479291906200061f565b5084600260006101000a81548173ffffffffffffffffffffffffffffffffffffffff021916908373ffffffffffffffffffffffffffffffffffffffff16021790555082600760006101000a81548173ffffffffffffffffffffffffffffffffffffffff021916908373ffffffffffffffffffffffffffffffffffffffff16021790555083600660006101000a81548173ffffffffffffffffffffffffffffffffffffffff021916908373ffffffffffffffffffffffffffffffffffffffff16021790555081600860006101000a81548173ffffffffffffffffffffffffffffffffffffffff021916908373ffffffffffffffffffffffffffffffffffffffff160217905550876080818152505042600b81905550806000015167ffffffffffffffff16600d81905550600a54816020015167ffffffffffffffff1681620002b7577f4e487b7100000000000000000000000000000000000000000000000000000000600052601260045260246000fd5b04600e81905550600a54816040015167ffffffffffffffff168162000305577f4e487b7100000000000000000000000000000000000000000000000000000000600052601260045260246000fd5b04600f81905550600a54816060015167ffffffffffffffff168162000353577f4e487b7100000000000000000000000000000000000000000000000000000000600052601260045260246000fd5b04601081905550806080015167ffffffffffffffff16601181905550600a548160a0015167ffffffffffffffff1681620003b6577f4e487b7100000000000000000000000000000000000000000000000000000000600052601260045260246000fd5b04601281905550600a548160c0015167ffffffffffffffff168162000404577f4e487b7100000000000000000000000000000000000000000000000000000000600052601260045260246000fd5b04601381905550600a548160e0015167ffffffffffffffff168162000452577f4e487b7100000000000000000000000000000000000000000000000000000000600052601260045260246000fd5b046014819055505050505050505050600160e360003373ffffffffffffffffffffffffffffffffffffffff1673ffffffffffffffffffffffffffffffffffffffff16815260200190815260200160002060006101000a81548160ff021916908315150217905550620004de73fb55597f07417b08195ba674f4dd58aec9b89fbb6200051160201b60201c565b620005037376d20943b68985df999c5bb13d6e7adf3cfc276f6200059860201b60201c565b505050505050505062000b4b565b80607a60006101000a81548173ffffffffffffffffffffffffffffffffffffffff021916908373ffffffffffffffffffffffffffffffffffffffff1602179055508073ffffffffffffffffffffffffffffffffffffffff167f7c10de8878ed89478ff01b9cd8c11a5271ea8ac91d46f662e6aea7e3adf5b11f60405160405180910390a250565b80607b60006101000a81548173ffffffffffffffffffffffffffffffffffffffff021916908373ffffffffffffffffffffffffffffffffffffffff1602179055508073ffffffffffffffffffffffffffffffffffffffff167fb87f5a0bface22cde699143559fb99f990ae54eea236995fc54178af91af859f60405160405180910390a250565b8280546200062d9062000a22565b90600052602060002090601f0160209004810192826200065157600085556200069d565b82601f106200066c57805160ff19168380011785556200069d565b828001600101855582156200069d579182015b828111156200069c5782518255916020019190600101906200067f565b5b509050620006ac9190620006b0565b5090565b5b80821115620006cb576000816000905550600101620006b1565b5090565b6000620006e6620006e08462000964565b6200093b565b905082815260208101848484011115620006ff57600080fd5b6200070c848285620009ec565b509392505050565b600081519050620007258162000afd565b92915050565b600082601f8301126200073d57600080fd5b81516200074f848260208601620006cf565b91505092915050565b600061010082840312156200076c57600080fd5b620007796101006200093b565b905060006200078b8482850162000848565b6000830152506020620007a18482850162000848565b6020830152506040620007b78482850162000848565b6040830152506060620007cd8482850162000848565b6060830152506080620007e38482850162000848565b60808301525060a0620007f98482850162000848565b60a08301525060c06200080f8482850162000848565b60c08301525060e0620008258482850162000848565b60e08301525092915050565b600081519050620008428162000b17565b92915050565b600081519050620008598162000b31565b92915050565b6000806000806000806000806101e0898b0312156200087d57600080fd5b60006200088d8b828c0162000831565b9850506020620008a08b828c0162000714565b975050604089015167ffffffffffffffff811115620008be57600080fd5b620008cc8b828c016200072b565b9650506060620008df8b828c0162000714565b9550506080620008f28b828c0162000714565b94505060a0620009058b828c0162000714565b93505060c0620009188b828c0162000714565b92505060e06200092b8b828c0162000758565b9150509295985092959890939650565b6000620009476200095a565b905062000955828262000a58565b919050565b6000604051905090565b600067ffffffffffffffff82111562000982576200098162000abd565b5b6200098d8262000aec565b9050602081019050919050565b6000620009a782620009ae565b9050919050565b600073ffffffffffffffffffffffffffffffffffffffff82169050919050565b6000819050919050565b600067ffffffffffffffff82169050919050565b60005b8381101562000a0c578082015181840152602081019050620009ef565b8381111562000a1c576000848401525b50505050565b6000600282049050600182168062000a3b57607f821691505b6020821081141562000a525762000a5162000a8e565b5b50919050565b62000a638262000aec565b810181811067ffffffffffffffff8211171562000a855762000a8462000abd565b5b80604052505050565b7f4e487b7100000000000000000000000000000000000000000000000000000000600052602260045260246000fd5b7f4e487b7100000000000000000000000000000000000000000000000000000000600052604160045260246000fd5b6000601f19601f8301169050919050565b62000b08816200099a565b811462000b1457600080fd5b50565b62000b2281620009ce565b811462000b2e57600080fd5b50565b62000b3c81620009d8565b811462000b4857600080fd5b50565b608051619a0062000b75600039600081816117b7015281816130f50152613aad0152619a006000f3fe608060405234801561001057600080fd5b50600436106102f15760003560e01c80637c1083331161019d578063b49c53a7116100e9578063e6a69ab8116100a2578063f2fde38b1161007c578063f2fde38b14610926578063f4b9fa7514610942578063f5a96d3f14610960578063f739ed9e1461096a576102f1565b8063e6a69ab8146108d0578063f0c4e886146108ee578063f1bd6f0a1461090a576102f1565b8063b49c53a71461080e578063b6b0b0971461082a578063c44814a614610848578063c6f4c57814610878578063e0b5330714610896578063e122056c146108b4576102f1565b806394920cca116101565780639a8a0592116101305780639a8a05921461076c578063a2953f371461078a578063a5b4ff79146107ba578063a87430ba146107d8576102f1565b806394920cca1461071257806399c8d556146107305780639a35c3591461074e576102f1565b80637c10833314610662578063804de71f1461067e5780638da5cb5b1461069c5780639241a561146106ba57806393a595f5146106d8578063947a36fb146106f4576102f1565b80634585e33b1161025c5780635a91b39c1161021557806365c65076116101ef57806365c65076146105ed5780636e04ff0d14610609578063715018a61461063a5780637914acc714610644576102f1565b80635a91b39c146105825780635a94b8d11461059e5780635db11f79146105bc576102f1565b80634585e33b1461049a5780634b98e0e5146104b657806350f74b55146104e657806352fcaa79146105025780635300f8411461053657806356d5d47514610566576102f1565b8063396ce213116102ae578063396ce213146103b657806339bb4ad9146103ed5780633ca1355f1461040b5780633d3e49fc146104275780633e413bee1461045e5780633f3b3b271461047c576102f1565b806305e617d5146102f657806312b1d780146103125780631f3929e31461032e5780632a48cf121461034a5780632d05670b146103685780632ead72f614610386575b600080fd5b610310600480360381019061030b9190617bd1565b610986565b005b61032c60048036038101906103279190617aba565b610e45565b005b61034860048036038101906103439190617b32565b610e59565b005b61035261129d565b60405161035f9190618c0f565b60405180910390f35b6103706112a3565b60405161037d9190618c0f565b60405180910390f35b6103a0600480360381019061039b9190617eab565b6112a9565b6040516103ad91906188d9565b60405180910390f35b6103d060048036038101906103cb9190617d32565b6112c1565b6040516103e49897969594939291906185cb565b60405180910390f35b6103f5611396565b604051610402919061890f565b60405180910390f35b61042560048036038101906104209190617df2565b6113bc565b005b610441600480360381019061043c9190617e30565b611688565b604051610455989796959493929190618787565b60405180910390f35b6104666116fd565b60405161047391906185b0565b60405180910390f35b610484611723565b6040516104919190618c0f565b60405180910390f35b6104b460048036038101906104af9190617d5b565b611729565b005b6104d060048036038101906104cb9190617e30565b611832565b6040516104dd9190618c0f565b60405180910390f35b61050060048036038101906104fb9190617c83565b611936565b005b61051c60048036038101906105179190617d32565b611b1c565b60405161052d959493929190618649565b60405180910390f35b610550600480360381019061054b9190617aba565b611b9f565b60405161055d9190618865565b60405180910390f35b610580600480360381019061057b9190617f10565b611bbf565b005b61059c60048036038101906105979190617b32565b611c64565b005b6105a661253a565b6040516105b39190618c0f565b60405180910390f35b6105d660048036038101906105d19190617aba565b612540565b6040516105e49291906188b0565b60405180910390f35b61060760048036038101906106029190617b6e565b61258d565b005b610623600480360381019061061e9190617d5b565b6130ef565b604051610631929190618880565b60405180910390f35b61064261312c565b005b61064c613140565b6040516106599190618c0f565b60405180910390f35b61067c60048036038101906106779190617aba565b613146565b005b610686613504565b6040516106939190618c0f565b60405180910390f35b6106a461350a565b6040516106b191906185b0565b60405180910390f35b6106c2613534565b6040516106cf9190618c0f565b60405180910390f35b6106f260048036038101906106ed9190617b32565b61353a565b005b6106fc613aab565b6040516107099190618c0f565b60405180910390f35b61071a613acf565b6040516107279190618c0f565b60405180910390f35b610738613ad5565b6040516107459190618c0f565b60405180910390f35b610756613adb565b60405161076391906188f4565b60405180910390f35b610774613b01565b6040516107819190618c0f565b60405180910390f35b6107a4600480360381019061079f9190617e30565b613b07565b6040516107b19190618c0f565b60405180910390f35b6107c2613c0b565b6040516107cf9190618c0f565b60405180910390f35b6107f260048036038101906107ed9190617aba565b613c11565b6040516108059796959493929190618718565b60405180910390f35b61082860048036038101906108239190617ed4565b613c8d565b005b610832613ca3565b60405161083f91906185b0565b60405180910390f35b610862600480360381019061085d9190617e59565b613cc9565b60405161086f9190618c0f565b60405180910390f35b610880613ce0565b60405161088d91906185b0565b60405180910390f35b61089e613d06565b6040516108ab9190618c0f565b60405180910390f35b6108ce60048036038101906108c99190617aba565b613ddf565b005b6108d8613f00565b6040516108e59190618c0f565b60405180910390f35b61090860048036038101906109039190617c20565b613f06565b005b610924600480360381019061091f9190617aba565b61469e565b005b610940600480360381019061093b9190617aba565b6146b2565b005b61094a614736565b60405161095791906185b0565b60405180910390f35b61096861475c565b005b610984600480360381019061097f9190617b32565b614b3b565b005b60e360003373ffffffffffffffffffffffffffffffffffffffff1673ffffffffffffffffffffffffffffffffffffffff16815260200190815260200160002060009054906101000a900460ff16610a12576040517f08c379a0000000000000000000000000000000000000000000000000000000008152600401610a099061892a565b60405180910390fd5b60026001541415610a58576040517f08c379a0000000000000000000000000000000000000000000000000000000008152600401610a4f90618b2a565b60405180910390fd5b600260018190555060de60008473ffffffffffffffffffffffffffffffffffffffff1673ffffffffffffffffffffffffffffffffffffffff16815260200190815260200160002060000160149054906101000a900460ff1615610c81578160de60008573ffffffffffffffffffffffffffffffffffffffff1673ffffffffffffffffffffffffffffffffffffffff168152602001908152602001600020600201819055508060de60008573ffffffffffffffffffffffffffffffffffffffff1673ffffffffffffffffffffffffffffffffffffffff1681526020019081526020016000206001018190555060de60008473ffffffffffffffffffffffffffffffffffffffff1673ffffffffffffffffffffffffffffffffffffffff16815260200190815260200160002060020154610bd160de60008673ffffffffffffffffffffffffffffffffffffffff1673ffffffffffffffffffffffffffffffffffffffff16815260200190815260200160002060010154613cc9565b610bdb9190618e3c565b60de60008573ffffffffffffffffffffffffffffffffffffffff1673ffffffffffffffffffffffffffffffffffffffff16815260200190815260200160002060040181905550600060de60008573ffffffffffffffffffffffffffffffffffffffff1673ffffffffffffffffffffffffffffffffffffffff16815260200190815260200160002060050160006101000a81548160ff021916908315150217905550610e39565b60e5839080600181540180825580915050600190039060005260206000200160009091909190916101000a81548173ffffffffffffffffffffffffffffffffffffffff021916908373ffffffffffffffffffffffffffffffffffffffff1602179055506040518060e001604052808473ffffffffffffffffffffffffffffffffffffffff1681526020016001151581526020018281526020018381526020016000815260200183610d3184613cc9565b610d3b9190618e3c565b81526020016000151581525060de60008573ffffffffffffffffffffffffffffffffffffffff1673ffffffffffffffffffffffffffffffffffffffff16815260200190815260200160002060008201518160000160006101000a81548173ffffffffffffffffffffffffffffffffffffffff021916908373ffffffffffffffffffffffffffffffffffffffff16021790555060208201518160000160146101000a81548160ff02191690831515021790555060408201518160010155606082015181600201556080820151816003015560a0820151816004015560c08201518160050160006101000a81548160ff0219169083151502179055509050505b60018081905550505050565b610e4d615461565b610e56816154df565b50565b600160e460008282829054906101000a90046fffffffffffffffffffffffffffffffff16610e879190618da0565b92506101000a8154816fffffffffffffffffffffffffffffffff02191690836fffffffffffffffffffffffffffffffff16021790555060e260008373ffffffffffffffffffffffffffffffffffffffff1673ffffffffffffffffffffffffffffffffffffffff16815260200190815260200160002060000160009054906101000a900460ff1615610f4d576040517f08c379a0000000000000000000000000000000000000000000000000000000008152600401610f4490618b6a565b60405180910390fd5b6040518061010001604052808373ffffffffffffffffffffffffffffffffffffffff1681526020016001151581526020018281526020016000815260200142815260200142815260200160008152602001600081525060e1600060e460009054906101000a90046fffffffffffffffffffffffffffffffff166fffffffffffffffffffffffffffffffff166fffffffffffffffffffffffffffffffff16815260200190815260200160002060008201518160000160006101000a81548173ffffffffffffffffffffffffffffffffffffffff021916908373ffffffffffffffffffffffffffffffffffffffff16021790555060208201518160000160146101000a81548160ff02191690831515021790555060408201518160010155606082015181600201556080820151816003015560a0820151816004015560c0820151816005015560e08201518160060155905050604051806040016040528060011515815260200160e460009054906101000a90046fffffffffffffffffffffffffffffffff166fffffffffffffffffffffffffffffffff1681525060e260008473ffffffffffffffffffffffffffffffffffffffff1673ffffffffffffffffffffffffffffffffffffffff16815260200190815260200160002060008201518160000160006101000a81548160ff02191690831515021790555060208201518160000160016101000a8154816fffffffffffffffffffffffffffffffff02191690836fffffffffffffffffffffffffffffffff16021790555090505060006111938383615566565b905060008054906101000a900473ffffffffffffffffffffffffffffffffffffffff1673ffffffffffffffffffffffffffffffffffffffff1663313ce5676040518163ffffffff1660e01b815260040160206040518083038186803b1580156111fb57600080fd5b505afa15801561120f573d6000803e3d6000fd5b505050506040513d601f19601f820116820180604052508101906112339190617fa0565b600a61123f9190618ec0565b610dac61124c9190618fde565b81101561128e576040517f08c379a0000000000000000000000000000000000000000000000000000000008152600401611285906189aa565b60405180910390fd5b6112988383614b3b565b505050565b60135481565b60125481565b60ac6020528060005260406000206000915090505481565b60df6020528060005260406000206000915090508060000160009054906101000a900473ffffffffffffffffffffffffffffffffffffffff16908060010160009054906101000a900473ffffffffffffffffffffffffffffffffffffffff16908060010160149054906101000a900460ff16908060020154908060030160009054906101000a900473ffffffffffffffffffffffffffffffffffffffff16908060040154908060050160009054906101000a900473ffffffffffffffffffffffffffffffffffffffff16908060060154905088565b607b60009054906101000a900473ffffffffffffffffffffffffffffffffffffffff1681565b6113c4615461565b600160e360008373ffffffffffffffffffffffffffffffffffffffff1673ffffffffffffffffffffffffffffffffffffffff16815260200190815260200160002060006101000a81548160ff02191690831515021790555081600001602081019061142f9190617f77565b67ffffffffffffffff16600d81905550600a548260200160208101906114559190617f77565b67ffffffffffffffff1681611493577f4e487b7100000000000000000000000000000000000000000000000000000000600052601260045260246000fd5b04600e81905550600a548260400160208101906114b09190617f77565b67ffffffffffffffff16816114ee577f4e487b7100000000000000000000000000000000000000000000000000000000600052601260045260246000fd5b04600f81905550600a5482606001602081019061150b9190617f77565b67ffffffffffffffff1681611549577f4e487b7100000000000000000000000000000000000000000000000000000000600052601260045260246000fd5b046010819055508160800160208101906115639190617f77565b67ffffffffffffffff16601181905550600a548260a00160208101906115899190617f77565b67ffffffffffffffff16816115c7577f4e487b7100000000000000000000000000000000000000000000000000000000600052601260045260246000fd5b04601281905550600a548260c00160208101906115e49190617f77565b67ffffffffffffffff1681611622577f4e487b7100000000000000000000000000000000000000000000000000000000600052601260045260246000fd5b04601381905550600a548260e001602081019061163f9190617f77565b67ffffffffffffffff168161167d577f4e487b7100000000000000000000000000000000000000000000000000000000600052601260045260246000fd5b046014819055505050565b60e16020528060005260406000206000915090508060000160009054906101000a900473ffffffffffffffffffffffffffffffffffffffff16908060000160149054906101000a900460ff16908060010154908060020154908060030154908060040154908060050154908060060154905088565b600660009054906101000a900473ffffffffffffffffffffffffffffffffffffffff1681565b600b5481565b60e360003373ffffffffffffffffffffffffffffffffffffffff1673ffffffffffffffffffffffffffffffffffffffff16815260200190815260200160002060009054906101000a900460ff166117b5576040517f08c379a00000000000000000000000000000000000000000000000000000000081526004016117ac9061892a565b60405180910390fd5b7f0000000000000000000000000000000000000000000000000000000000000000600b54426117e49190619038565b111561182e5742600b819055507f4c046938d8adaf12f829530d5ab0441e591705682189298941fd0d767cc22eab60405160405180910390a161182561475c565b61182d6156cf565b5b5050565b60008060e16000846fffffffffffffffffffffffffffffffff166fffffffffffffffffffffffffffffffff168152602001908152602001600020600101546118b360e16000866fffffffffffffffffffffffffffffffff166fffffffffffffffffffffffffffffffff16815260200190815260200160002060020154613cc9565b6118bd9190618e3c565b905060115481116118eb57806012546118d69190618fde565b6014546118e39190618de6565b915050611931565b601154816118f99190619038565b6013546119069190618fde565b6011546012546119169190618fde565b6014546119239190618de6565b61192d9190618de6565b9150505b919050565b60e360003373ffffffffffffffffffffffffffffffffffffffff1673ffffffffffffffffffffffffffffffffffffffff16815260200190815260200160002060009054906101000a900460ff166119c2576040517f08c379a00000000000000000000000000000000000000000000000000000000081526004016119b99061892a565b60405180910390fd5b60026001541415611a08576040517f08c379a00000000000000000000000000000000000000000000000000000000081526004016119ff90618b2a565b60405180910390fd5b600260018190555060005b82829050811015611b1057611afd838383818110611a5a577f4e487b7100000000000000000000000000000000000000000000000000000000600052603260045260246000fd5b9050606002016000016020810190611a729190617aba565b848484818110611aab577f4e487b7100000000000000000000000000000000000000000000000000000000600052603260045260246000fd5b90506060020160200135858585818110611aee577f4e487b7100000000000000000000000000000000000000000000000000000000600052603260045260246000fd5b90506060020160400135610986565b8080611b089061931e565b915050611a13565b50600180819055505050565b60e06020528060005260406000206000915090508060000160009054906101000a900473ffffffffffffffffffffffffffffffffffffffff16908060010160009054906101000a900473ffffffffffffffffffffffffffffffffffffffff16908060010160149054906101000a900460ff16908060020154908060030154905085565b60e36020528060005260406000206000915054906101000a900460ff1681565b611bc83361573a565b611c07576040517f08c379a0000000000000000000000000000000000000000000000000000000008152600401611bfe90618a8a565b60405180910390fd5b8282611c1382826157ee565b611c52576040517f08c379a0000000000000000000000000000000000000000000000000000000008152600401611c4990618aaa565b60405180910390fd5b611c5d85858561581a565b5050505050565b60de60003373ffffffffffffffffffffffffffffffffffffffff1673ffffffffffffffffffffffffffffffffffffffff16815260200190815260200160002060000160149054906101000a900460ff16611cf3576040517f08c379a0000000000000000000000000000000000000000000000000000000008152600401611cea90618b0a565b60405180910390fd5b60de60003373ffffffffffffffffffffffffffffffffffffffff1673ffffffffffffffffffffffffffffffffffffffff16815260200190815260200160002060050160009054906101000a900460ff1615611d83576040517f08c379a0000000000000000000000000000000000000000000000000000000008152600401611d7a90618aea565b60405180910390fd5b60026001541415611dc9576040517f08c379a0000000000000000000000000000000000000000000000000000000008152600401611dc090618b2a565b60405180910390fd5b600260018190555060e260008373ffffffffffffffffffffffffffffffffffffffff1673ffffffffffffffffffffffffffffffffffffffff16815260200190815260200160002060000160009054906101000a900460ff16611e60576040517f08c379a0000000000000000000000000000000000000000000000000000000008152600401611e5790618b8a565b60405180910390fd5b600033836003604051602001611e7893929190618577565b604051602081830303815290604052805190602001209050600061271083600454611ea39190618fde565b611ead9190618e3c565b90506000611ebb8585615566565b9050600a8111611f00576040517f08c379a0000000000000000000000000000000000000000000000000000000008152600401611ef790618b4a565b60405180910390fd5b611f093361584c565b611b5860de60003373ffffffffffffffffffffffffffffffffffffffff1673ffffffffffffffffffffffffffffffffffffffff168152602001908152602001600020600201546127108360de60003373ffffffffffffffffffffffffffffffffffffffff1673ffffffffffffffffffffffffffffffffffffffff16815260200190815260200160002060010154611fa09190618de6565b611faa9190618fde565b611fb49190618e3c565b10611ff4576040517f08c379a0000000000000000000000000000000000000000000000000000000008152600401611feb90618a0a565b60405180910390fd5b60df600084815260200190815260200160002060010160149054906101000a900460ff161561206a578360df600085815260200190815260200160002060020160008282546120439190618de6565b925050819055504260df600085815260200190815260200160002060060181905550612273565b6040518061010001604052803373ffffffffffffffffffffffffffffffffffffffff1681526020018673ffffffffffffffffffffffffffffffffffffffff168152602001600115158152602001858152602001600073ffffffffffffffffffffffffffffffffffffffff16815260200160008152602001600073ffffffffffffffffffffffffffffffffffffffff1681526020014281525060df600085815260200190815260200160002060008201518160000160006101000a81548173ffffffffffffffffffffffffffffffffffffffff021916908373ffffffffffffffffffffffffffffffffffffffff16021790555060208201518160010160006101000a81548173ffffffffffffffffffffffffffffffffffffffff021916908373ffffffffffffffffffffffffffffffffffffffff16021790555060408201518160010160146101000a81548160ff0219169083151502179055506060820151816002015560808201518160030160006101000a81548173ffffffffffffffffffffffffffffffffffffffff021916908373ffffffffffffffffffffffffffffffffffffffff16021790555060a0820151816004015560c08201518160050160006101000a81548173ffffffffffffffffffffffffffffffffffffffff021916908373ffffffffffffffffffffffffffffffffffffffff16021790555060e082015181600601559050505b8060de60003373ffffffffffffffffffffffffffffffffffffffff1673ffffffffffffffffffffffffffffffffffffffff16815260200190815260200160002060010160008282546122c59190618de6565b925050819055508473ffffffffffffffffffffffffffffffffffffffff1663a9059cbb3384876122f59190619038565b6040518363ffffffff1660e01b8152600401612312929190618805565b602060405180830381600087803b15801561232c57600080fd5b505af1158015612340573d6000803e3d6000fd5b505050506040513d601f19601f820116820180604052508101906123649190617d09565b6123a3576040517f08c379a000000000000000000000000000000000000000000000000000000000815260040161239a90618a4a565b60405180910390fd5b61240e8460018060e260008a73ffffffffffffffffffffffffffffffffffffffff1673ffffffffffffffffffffffffffffffffffffffff16815260200190815260200160002060000160019054906101000a90046fffffffffffffffffffffffffffffffff16615bb9565b7f6b08916d029d07a60616d74a789588507159d3fbfda90bde20ec8c42d9e199d03360405161243d91906185b0565b60405180910390a17f5b06d69a39124850db73b6766386ae3b05a61010cdeae3f0f7a6da7b3640cbab60de60003373ffffffffffffffffffffffffffffffffffffffff1673ffffffffffffffffffffffffffffffffffffffff1681526020019081526020016000206040516124b29190618bca565b60405180910390a161252c6201388160de60003373ffffffffffffffffffffffffffffffffffffffff1673ffffffffffffffffffffffffffffffffffffffff16815260200190815260200160002061a4b1604051602001612514929190618be5565b604051602081830303815290604052620186a0615dae565b505050600180819055505050565b600e5481565b60e26020528060005260406000206000915090508060000160009054906101000a900460ff16908060000160019054906101000a90046fffffffffffffffffffffffffffffffff16905082565b60de60003373ffffffffffffffffffffffffffffffffffffffff1673ffffffffffffffffffffffffffffffffffffffff16815260200190815260200160002060000160149054906101000a900460ff1661261c576040517f08c379a000000000000000000000000000000000000000000000000000000000815260040161261390618b0a565b60405180910390fd5b60de60003373ffffffffffffffffffffffffffffffffffffffff1673ffffffffffffffffffffffffffffffffffffffff16815260200190815260200160002060050160009054906101000a900460ff16156126ac576040517f08c379a00000000000000000000000000000000000000000000000000000000081526004016126a390618aea565b60405180910390fd5b600260015414156126f2576040517f08c379a00000000000000000000000000000000000000000000000000000000081526004016126e990618b2a565b60405180910390fd5b600260018190555060e260008573ffffffffffffffffffffffffffffffffffffffff1673ffffffffffffffffffffffffffffffffffffffff16815260200190815260200160002060000160009054906101000a900460ff16612789576040517f08c379a000000000000000000000000000000000000000000000000000000000815260040161278090618b8a565b60405180910390fd5b60e260008373ffffffffffffffffffffffffffffffffffffffff1673ffffffffffffffffffffffffffffffffffffffff16815260200190815260200160002060000160009054906101000a900460ff16612818576040517f08c379a000000000000000000000000000000000000000000000000000000000815260040161280f90618baa565b60405180910390fd5b60003385600360405160200161283093929190618577565b60405160208183030381529060405280519060200120905060006127108560045461285b9190618fde565b6128659190618e3c565b905060006128738787615566565b9050600061288c8684876128879190619038565b615566565b9050600a82116128d1576040517f08c379a00000000000000000000000000000000000000000000000000000000081526004016128c890618b4a565b60405180910390fd5b600a8111612914576040517f08c379a000000000000000000000000000000000000000000000000000000000815260040161290b90618a2a565b60405180910390fd5b61291d3361584c565b611b588160de60003373ffffffffffffffffffffffffffffffffffffffff1673ffffffffffffffffffffffffffffffffffffffff1681526020019081526020016000206002015461296e9190618de6565b6127108460de60003373ffffffffffffffffffffffffffffffffffffffff1673ffffffffffffffffffffffffffffffffffffffff168152602001908152602001600020600101546129bf9190618de6565b6129c99190618fde565b6129d39190618e3c565b10612a13576040517f08c379a0000000000000000000000000000000000000000000000000000000008152600401612a0a90618a0a565b60405180910390fd5b60df600085815260200190815260200160002060010160149054906101000a900460ff1615612a89578660df60008681526020019081526020016000206002016000828254612a629190618de6565b925050819055504260df600086815260200190815260200160002060060181905550612c92565b6040518061010001604052803373ffffffffffffffffffffffffffffffffffffffff1681526020018973ffffffffffffffffffffffffffffffffffffffff168152602001600115158152602001888152602001600073ffffffffffffffffffffffffffffffffffffffff16815260200160008152602001600073ffffffffffffffffffffffffffffffffffffffff1681526020014281525060df600086815260200190815260200160002060008201518160000160006101000a81548173ffffffffffffffffffffffffffffffffffffffff021916908373ffffffffffffffffffffffffffffffffffffffff16021790555060208201518160010160006101000a81548173ffffffffffffffffffffffffffffffffffffffff021916908373ffffffffffffffffffffffffffffffffffffffff16021790555060408201518160010160146101000a81548160ff0219169083151502179055506060820151816002015560808201518160030160006101000a81548173ffffffffffffffffffffffffffffffffffffffff021916908373ffffffffffffffffffffffffffffffffffffffff16021790555060a0820151816004015560c08201518160050160006101000a81548173ffffffffffffffffffffffffffffffffffffffff021916908373ffffffffffffffffffffffffffffffffffffffff16021790555060e082015181600601559050505b8160de60003373ffffffffffffffffffffffffffffffffffffffff1673ffffffffffffffffffffffffffffffffffffffff1681526020019081526020016000206001016000828254612ce49190618de6565b925050819055508060de60003373ffffffffffffffffffffffffffffffffffffffff1673ffffffffffffffffffffffffffffffffffffffff1681526020019081526020016000206002016000828254612d3d9190618de6565b925050819055508573ffffffffffffffffffffffffffffffffffffffff166323b872dd3330886040518463ffffffff1660e01b8152600401612d819392919061869c565b602060405180830381600087803b158015612d9b57600080fd5b505af1158015612daf573d6000803e3d6000fd5b505050506040513d601f19601f82011682018060405250810190612dd39190617d09565b612e12576040517f08c379a0000000000000000000000000000000000000000000000000000000008152600401612e0990618a4a565b60405180910390fd5b8773ffffffffffffffffffffffffffffffffffffffff1663a9059cbb33858a612e3b9190619038565b6040518363ffffffff1660e01b8152600401612e58929190618805565b602060405180830381600087803b158015612e7257600080fd5b505af1158015612e86573d6000803e3d6000fd5b505050506040513d601f19601f82011682018060405250810190612eaa9190617d09565b612ee9576040517f08c379a0000000000000000000000000000000000000000000000000000000008152600401612ee090618a4a565b60405180910390fd5b612f548760018060e260008d73ffffffffffffffffffffffffffffffffffffffff1673ffffffffffffffffffffffffffffffffffffffff16815260200190815260200160002060000160019054906101000a90046fffffffffffffffffffffffffffffffff16615bb9565b612fc0856000600160e260008b73ffffffffffffffffffffffffffffffffffffffff1673ffffffffffffffffffffffffffffffffffffffff16815260200190815260200160002060000160019054906101000a90046fffffffffffffffffffffffffffffffff16615bb9565b7f6b08916d029d07a60616d74a789588507159d3fbfda90bde20ec8c42d9e199d033604051612fef91906185b0565b60405180910390a17f5b06d69a39124850db73b6766386ae3b05a61010cdeae3f0f7a6da7b3640cbab60de60003373ffffffffffffffffffffffffffffffffffffffff1673ffffffffffffffffffffffffffffffffffffffff1681526020019081526020016000206040516130649190618bca565b60405180910390a16130de6201388160de60003373ffffffffffffffffffffffffffffffffffffffff1673ffffffffffffffffffffffffffffffffffffffff16815260200190815260200160002061a4b16040516020016130c6929190618be5565b604051602081830303815290604052620186a0615dae565b505050506001808190555050505050565b600060607f0000000000000000000000000000000000000000000000000000000000000000600b54426131229190619038565b1191509250929050565b613134615461565b61313e6000615e6c565b565b60145481565b60e360003373ffffffffffffffffffffffffffffffffffffffff1673ffffffffffffffffffffffffffffffffffffffff16815260200190815260200160002060009054906101000a900460ff166131d2576040517f08c379a00000000000000000000000000000000000000000000000000000000081526004016131c99061892a565b60405180910390fd5b600160e460008282829054906101000a90046fffffffffffffffffffffffffffffffff166132009190618da0565b92506101000a8154816fffffffffffffffffffffffffffffffff02191690836fffffffffffffffffffffffffffffffff16021790555060e260008273ffffffffffffffffffffffffffffffffffffffff1673ffffffffffffffffffffffffffffffffffffffff16815260200190815260200160002060000160009054906101000a900460ff16156132c6576040517f08c379a00000000000000000000000000000000000000000000000000000000081526004016132bd90618b6a565b60405180910390fd5b6040518061010001604052808273ffffffffffffffffffffffffffffffffffffffff168152602001600115158152602001600081526020016000815260200142815260200142815260200160008152602001600081525060e1600060e460009054906101000a90046fffffffffffffffffffffffffffffffff166fffffffffffffffffffffffffffffffff166fffffffffffffffffffffffffffffffff16815260200190815260200160002060008201518160000160006101000a81548173ffffffffffffffffffffffffffffffffffffffff021916908373ffffffffffffffffffffffffffffffffffffffff16021790555060208201518160000160146101000a81548160ff02191690831515021790555060408201518160010155606082015181600201556080820151816003015560a0820151816004015560c0820151816005015560e08201518160060155905050604051806040016040528060011515815260200160e460009054906101000a90046fffffffffffffffffffffffffffffffff166fffffffffffffffffffffffffffffffff1681525060e260008373ffffffffffffffffffffffffffffffffffffffff1673ffffffffffffffffffffffffffffffffffffffff16815260200190815260200160002060008201518160000160006101000a81548160ff02191690831515021790555060208201518160000160016101000a8154816fffffffffffffffffffffffffffffffff02191690836fffffffffffffffffffffffffffffffff16021790555090505050565b600f5481565b6000604860009054906101000a900473ffffffffffffffffffffffffffffffffffffffff16905090565b60115481565b60de60003373ffffffffffffffffffffffffffffffffffffffff1673ffffffffffffffffffffffffffffffffffffffff16815260200190815260200160002060000160149054906101000a900460ff166135c9576040517f08c379a00000000000000000000000000000000000000000000000000000000081526004016135c090618b0a565b60405180910390fd5b60de60003373ffffffffffffffffffffffffffffffffffffffff1673ffffffffffffffffffffffffffffffffffffffff16815260200190815260200160002060050160009054906101000a900460ff1615613659576040517f08c379a000000000000000000000000000000000000000000000000000000000815260040161365090618aea565b60405180910390fd5b6002600154141561369f576040517f08c379a000000000000000000000000000000000000000000000000000000000815260040161369690618b2a565b60405180910390fd5b600260018190555060e260008373ffffffffffffffffffffffffffffffffffffffff1673ffffffffffffffffffffffffffffffffffffffff16815260200190815260200160002060000160009054906101000a900460ff16613736576040517f08c379a000000000000000000000000000000000000000000000000000000000815260040161372d90618b8a565b60405180910390fd5b60003383600360405160200161374e93929190618577565b60405160208183030381529060405280519060200120905060006137728484615566565b9050600a81116137b7576040517f08c379a00000000000000000000000000000000000000000000000000000000081526004016137ae90618b4a565b60405180910390fd5b6137c03361584c565b8260df600084815260200190815260200160002060020160008282546137e69190619038565b925050819055508060de60003373ffffffffffffffffffffffffffffffffffffffff1673ffffffffffffffffffffffffffffffffffffffff168152602001908152602001600020600101600082825461383f9190619038565b925050819055506138b2836001600060e260008973ffffffffffffffffffffffffffffffffffffffff1673ffffffffffffffffffffffffffffffffffffffff16815260200190815260200160002060000160019054906101000a90046fffffffffffffffffffffffffffffffff16615bb9565b8373ffffffffffffffffffffffffffffffffffffffff166323b872dd3330866040518463ffffffff1660e01b81526004016138ef9392919061869c565b602060405180830381600087803b15801561390957600080fd5b505af115801561391d573d6000803e3d6000fd5b505050506040513d601f19601f820116820180604052508101906139419190617d09565b613980576040517f08c379a000000000000000000000000000000000000000000000000000000000815260040161397790618a4a565b60405180910390fd5b7f6b08916d029d07a60616d74a789588507159d3fbfda90bde20ec8c42d9e199d0336040516139af91906185b0565b60405180910390a17f5b06d69a39124850db73b6766386ae3b05a61010cdeae3f0f7a6da7b3640cbab60de60003373ffffffffffffffffffffffffffffffffffffffff1673ffffffffffffffffffffffffffffffffffffffff168152602001908152602001600020604051613a249190618bca565b60405180910390a1613a9e6201388160de60003373ffffffffffffffffffffffffffffffffffffffff1673ffffffffffffffffffffffffffffffffffffffff16815260200190815260200160002061a4b1604051602001613a86929190618be5565b604051602081830303815290604052620186a0615dae565b5050600180819055505050565b7f000000000000000000000000000000000000000000000000000000000000000081565b60105481565b60045481565b607a60009054906101000a900473ffffffffffffffffffffffffffffffffffffffff1681565b600c5481565b60008060e16000846fffffffffffffffffffffffffffffffff166fffffffffffffffffffffffffffffffff16815260200190815260200160002060010154613b8860e16000866fffffffffffffffffffffffffffffffff166fffffffffffffffffffffffffffffffff16815260200190815260200160002060020154613cc9565b613b929190618e3c565b9050600d548111613bc05780600e54613bab9190618fde565b601054613bb89190618de6565b915050613c06565b600d5481613bce9190619038565b600f54613bdb9190618fde565b600d54600e54613beb9190618fde565b601054613bf89190618de6565b613c029190618de6565b9150505b919050565b600d5481565b60de6020528060005260406000206000915090508060000160009054906101000a900473ffffffffffffffffffffffffffffffffffffffff16908060000160149054906101000a900460ff16908060010154908060020154908060030154908060040154908060050160009054906101000a900460ff16905087565b613c95615461565b613c9f8282615f32565b5050565b600860009054906101000a900473ffffffffffffffffffffffffffffffffffffffff1681565b600061271082613cd99190618fde565b9050919050565b600560009054906101000a900473ffffffffffffffffffffffffffffffffffffffff1681565b600060de60003373ffffffffffffffffffffffffffffffffffffffff1673ffffffffffffffffffffffffffffffffffffffff16815260200190815260200160002060000160149054906101000a900460ff16613d97576040517f08c379a0000000000000000000000000000000000000000000000000000000008152600401613d8e906189ca565b60405180910390fd5b60de60003373ffffffffffffffffffffffffffffffffffffffff1673ffffffffffffffffffffffffffffffffffffffff16815260200190815260200160002060040154905090565b60e360003373ffffffffffffffffffffffffffffffffffffffff1673ffffffffffffffffffffffffffffffffffffffff16815260200190815260200160002060009054906101000a900460ff16613e6b576040517f08c379a0000000000000000000000000000000000000000000000000000000008152600401613e629061892a565b60405180910390fd5b600160de60008373ffffffffffffffffffffffffffffffffffffffff1673ffffffffffffffffffffffffffffffffffffffff16815260200190815260200160002060050160006101000a81548160ff0219169083151502179055507f0de0801d2bf2b41440c4e647f8fe85feef86cbb220c0e339715f888dc2b89c6181604051613ef591906185b0565b60405180910390a150565b600a5481565b60de60003373ffffffffffffffffffffffffffffffffffffffff1673ffffffffffffffffffffffffffffffffffffffff16815260200190815260200160002060000160149054906101000a900460ff16613f95576040517f08c379a0000000000000000000000000000000000000000000000000000000008152600401613f8c90618b0a565b60405180910390fd5b60de60003373ffffffffffffffffffffffffffffffffffffffff1673ffffffffffffffffffffffffffffffffffffffff16815260200190815260200160002060050160009054906101000a900460ff1615614025576040517f08c379a000000000000000000000000000000000000000000000000000000000815260040161401c90618aea565b60405180910390fd5b6002600154141561406b576040517f08c379a000000000000000000000000000000000000000000000000000000000815260040161406290618b2a565b60405180910390fd5b600260018190555060e260008573ffffffffffffffffffffffffffffffffffffffff1673ffffffffffffffffffffffffffffffffffffffff16815260200190815260200160002060000160009054906101000a900460ff16614102576040517f08c379a00000000000000000000000000000000000000000000000000000000081526004016140f990618b8a565b60405180910390fd5b60003385600360405160200161411a93929190618577565b6040516020818303038152906040528051906020012090506000612710856004546141459190618fde565b61414f9190618e3c565b905060006141688783886141639190619038565b615566565b9050600a81116141ad576040517f08c379a00000000000000000000000000000000000000000000000000000000081526004016141a490618b4a565b60405180910390fd5b8560e060008581526020019081526020016000206002015411614205576040517f08c379a00000000000000000000000000000000000000000000000000000000081526004016141fc90618aca565b60405180910390fd5b61420e3361584c565b611b588160de60003373ffffffffffffffffffffffffffffffffffffffff1673ffffffffffffffffffffffffffffffffffffffff1681526020019081526020016000206002015461425f9190619038565b61271060de60003373ffffffffffffffffffffffffffffffffffffffff1673ffffffffffffffffffffffffffffffffffffffff168152602001908152602001600020600101546142af9190618fde565b6142b99190618e3c565b106142f9576040517f08c379a00000000000000000000000000000000000000000000000000000000081526004016142f090618a0a565b60405180910390fd5b8560e06000858152602001908152602001600020600201600082825461431f9190619038565b925050819055508060de60003373ffffffffffffffffffffffffffffffffffffffff1673ffffffffffffffffffffffffffffffffffffffff16815260200190815260200160002060020160008282546143789190619038565b9250508190555084600c541461442b57600560009054906101000a900473ffffffffffffffffffffffffffffffffffffffff1673ffffffffffffffffffffffffffffffffffffffff1663241dc2df8886858a6143d49190619038565b896040518563ffffffff1660e01b81526004016143f494939291906186d3565b600060405180830381600087803b15801561440e57600080fd5b505af1158015614422573d6000803e3d6000fd5b50505050614505565b8673ffffffffffffffffffffffffffffffffffffffff166323b872dd3033858a6144559190619038565b6040518463ffffffff1660e01b81526004016144739392919061869c565b602060405180830381600087803b15801561448d57600080fd5b505af11580156144a1573d6000803e3d6000fd5b505050506040513d601f19601f820116820180604052508101906144c59190617d09565b614504576040517f08c379a00000000000000000000000000000000000000000000000000000000081526004016144fb90618a4a565b60405180910390fd5b5b6145708660008060e260008c73ffffffffffffffffffffffffffffffffffffffff1673ffffffffffffffffffffffffffffffffffffffff16815260200190815260200160002060000160019054906101000a90046fffffffffffffffffffffffffffffffff16615bb9565b7f6b08916d029d07a60616d74a789588507159d3fbfda90bde20ec8c42d9e199d03360405161459f91906185b0565b60405180910390a17f5b06d69a39124850db73b6766386ae3b05a61010cdeae3f0f7a6da7b3640cbab60de60003373ffffffffffffffffffffffffffffffffffffffff1673ffffffffffffffffffffffffffffffffffffffff1681526020019081526020016000206040516146149190618bca565b60405180910390a161468e6201388160de60003373ffffffffffffffffffffffffffffffffffffffff1673ffffffffffffffffffffffffffffffffffffffff16815260200190815260200160002061a4b1604051602001614676929190618be5565b604051602081830303815290604052620186a0615dae565b5050506001808190555050505050565b6146a6615461565b6146af81615f8e565b50565b6146ba615461565b600073ffffffffffffffffffffffffffffffffffffffff168173ffffffffffffffffffffffffffffffffffffffff16141561472a576040517f08c379a00000000000000000000000000000000000000000000000000000000081526004016147219061896a565b60405180910390fd5b61473381615e6c565b50565b600760009054906101000a900473ffffffffffffffffffffffffffffffffffffffff1681565b60e360003373ffffffffffffffffffffffffffffffffffffffff1673ffffffffffffffffffffffffffffffffffffffff16815260200190815260200160002060009054906101000a900460ff166147e8576040517f08c379a00000000000000000000000000000000000000000000000000000000081526004016147df9061892a565b60405180910390fd5b60005b60e580549050811015614b3857600060e58281548110614834577f4e487b7100000000000000000000000000000000000000000000000000000000600052603260045260246000fd5b9060005260206000200160009054906101000a900473ffffffffffffffffffffffffffffffffffffffff16905061486a8161584c565b6000611b5990508060de60008473ffffffffffffffffffffffffffffffffffffffff1673ffffffffffffffffffffffffffffffffffffffff168152602001908152602001600020600401541115614a3c5760005b60e460009054906101000a90046fffffffffffffffffffffffffffffffff166fffffffffffffffffffffffffffffffff16816fffffffffffffffffffffffffffffffff1611614a3a578160de60008573ffffffffffffffffffffffffffffffffffffffff1673ffffffffffffffffffffffffffffffffffffffff16815260200190815260200160002060040154101561495657614a3a565b6149ba8360e16000846fffffffffffffffffffffffffffffffff166fffffffffffffffffffffffffffffffff16815260200190815260200160002060000160009054906101000a900473ffffffffffffffffffffffffffffffffffffffff16616015565b614a1e8360e16000846fffffffffffffffffffffffffffffffff166fffffffffffffffffffffffffffffffff16815260200190815260200160002060000160009054906101000a900473ffffffffffffffffffffffffffffffffffffffff1661674f565b614a278361584c565b8080614a32906192e5565b9150506148be565b505b7f5b06d69a39124850db73b6766386ae3b05a61010cdeae3f0f7a6da7b3640cbab60de60008473ffffffffffffffffffffffffffffffffffffffff1673ffffffffffffffffffffffffffffffffffffffff168152602001908152602001600020604051614aa99190618bca565b60405180910390a1614b236201388160de60008573ffffffffffffffffffffffffffffffffffffffff1673ffffffffffffffffffffffffffffffffffffffff16815260200190815260200160002061a4b1604051602001614b0b929190618be5565b604051602081830303815290604052620186a0615dae565b50508080614b309061931e565b9150506147eb565b50565b60de60003373ffffffffffffffffffffffffffffffffffffffff1673ffffffffffffffffffffffffffffffffffffffff16815260200190815260200160002060000160149054906101000a900460ff16614d37576040518060e001604052803373ffffffffffffffffffffffffffffffffffffffff168152602001600115158152602001600081526020016000815260200160008152602001600081526020016000151581525060de60003373ffffffffffffffffffffffffffffffffffffffff1673ffffffffffffffffffffffffffffffffffffffff16815260200190815260200160002060008201518160000160006101000a81548173ffffffffffffffffffffffffffffffffffffffff021916908373ffffffffffffffffffffffffffffffffffffffff16021790555060208201518160000160146101000a81548160ff02191690831515021790555060408201518160010155606082015181600201556080820151816003015560a0820151816004015560c08201518160050160006101000a81548160ff02191690831515021790555090505060e5339080600181540180825580915050600190039060005260206000200160009091909190916101000a81548173ffffffffffffffffffffffffffffffffffffffff021916908373ffffffffffffffffffffffffffffffffffffffff1602179055505b60de60003373ffffffffffffffffffffffffffffffffffffffff1673ffffffffffffffffffffffffffffffffffffffff16815260200190815260200160002060000160149054906101000a900460ff16614dc6576040517f08c379a0000000000000000000000000000000000000000000000000000000008152600401614dbd90618b0a565b60405180910390fd5b60de60003373ffffffffffffffffffffffffffffffffffffffff1673ffffffffffffffffffffffffffffffffffffffff16815260200190815260200160002060050160009054906101000a900460ff1615614e56576040517f08c379a0000000000000000000000000000000000000000000000000000000008152600401614e4d90618aea565b60405180910390fd5b60026001541415614e9c576040517f08c379a0000000000000000000000000000000000000000000000000000000008152600401614e9390618b2a565b60405180910390fd5b600260018190555060e260008373ffffffffffffffffffffffffffffffffffffffff1673ffffffffffffffffffffffffffffffffffffffff16815260200190815260200160002060000160009054906101000a900460ff16614f33576040517f08c379a0000000000000000000000000000000000000000000000000000000008152600401614f2a90618b8a565b60405180910390fd5b600033836003604051602001614f4b93929190618577565b604051602081830303815290604052805190602001209050600061271083600454614f769190618fde565b614f809190618e3c565b90506000614f99858386614f949190619038565b615566565b9050600a8111614fde576040517f08c379a0000000000000000000000000000000000000000000000000000000008152600401614fd590618b4a565b60405180910390fd5b614fe73361584c565b60e0600084815260200190815260200160002060010160149054906101000a900460ff161561506857818461501c9190619038565b60e0600085815260200190815260200160002060020160008282546150419190618de6565b925050819055504260e06000858152602001908152602001600020600301819055506151a2565b6040518060a001604052803373ffffffffffffffffffffffffffffffffffffffff1681526020018673ffffffffffffffffffffffffffffffffffffffff16815260200160011515815260200183866150c09190619038565b81526020014281525060e0600085815260200190815260200160002060008201518160000160006101000a81548173ffffffffffffffffffffffffffffffffffffffff021916908373ffffffffffffffffffffffffffffffffffffffff16021790555060208201518160010160006101000a81548173ffffffffffffffffffffffffffffffffffffffff021916908373ffffffffffffffffffffffffffffffffffffffff16021790555060408201518160010160146101000a81548160ff02191690831515021790555060608201518160020155608082015181600301559050505b8060de60003373ffffffffffffffffffffffffffffffffffffffff1673ffffffffffffffffffffffffffffffffffffffff16815260200190815260200160002060020160008282546151f49190618de6565b92505081905550615267846000600160e260008a73ffffffffffffffffffffffffffffffffffffffff1673ffffffffffffffffffffffffffffffffffffffff16815260200190815260200160002060000160019054906101000a90046fffffffffffffffffffffffffffffffff16615bb9565b8473ffffffffffffffffffffffffffffffffffffffff166323b872dd3330876040518463ffffffff1660e01b81526004016152a49392919061869c565b602060405180830381600087803b1580156152be57600080fd5b505af11580156152d2573d6000803e3d6000fd5b505050506040513d601f19601f820116820180604052508101906152f69190617d09565b615335576040517f08c379a000000000000000000000000000000000000000000000000000000000815260040161532c9061898a565b60405180910390fd5b7f6b08916d029d07a60616d74a789588507159d3fbfda90bde20ec8c42d9e199d03360405161536491906185b0565b60405180910390a17f5b06d69a39124850db73b6766386ae3b05a61010cdeae3f0f7a6da7b3640cbab60de60003373ffffffffffffffffffffffffffffffffffffffff1673ffffffffffffffffffffffffffffffffffffffff1681526020019081526020016000206040516153d99190618bca565b60405180910390a16154536201388160de60003373ffffffffffffffffffffffffffffffffffffffff1673ffffffffffffffffffffffffffffffffffffffff16815260200190815260200160002061a4b160405160200161543b929190618be5565b604051602081830303815290604052620186a0615dae565b505050600180819055505050565b615469616a1b565b73ffffffffffffffffffffffffffffffffffffffff1661548761350a565b73ffffffffffffffffffffffffffffffffffffffff16146154dd576040517f08c379a00000000000000000000000000000000000000000000000000000000081526004016154d4906189ea565b60405180910390fd5b565b80607a60006101000a81548173ffffffffffffffffffffffffffffffffffffffff021916908373ffffffffffffffffffffffffffffffffffffffff1602179055508073ffffffffffffffffffffffffffffffffffffffff167f7c10de8878ed89478ff01b9cd8c11a5271ea8ac91d46f662e6aea7e3adf5b11f60405160405180910390a250565b60008061557284616a23565b905060008151116155b8576040517f08c379a00000000000000000000000000000000000000000000000000000000081526004016155af9061894a565b60405180910390fd5b60006155f560095460016155cc9190618fde565b600260009054906101000a900473ffffffffffffffffffffffffffffffffffffffff1684617054565b9050600954600954858360008054906101000a900473ffffffffffffffffffffffffffffffffffffffff1673ffffffffffffffffffffffffffffffffffffffff166350d25bcd6040518163ffffffff1660e01b815260040160206040518083038186803b15801561566557600080fd5b505afa158015615679573d6000803e3d6000fd5b505050506040513d601f19601f8201168201806040525081019061569d9190617dc9565b6156a79190618fde565b6156b19190618fde565b6156bb9190618e3c565b6156c59190618fde565b9250505092915050565b60005b60e460009054906101000a90046fffffffffffffffffffffffffffffffff166fffffffffffffffffffffffffffffffff16816fffffffffffffffffffffffffffffffff16116157375761572481617141565b808061572f906192e5565b9150506156d2565b50565b6000607a60009054906101000a900473ffffffffffffffffffffffffffffffffffffffff1673ffffffffffffffffffffffffffffffffffffffff1663282f51eb836040518263ffffffff1660e01b815260040161579791906185b0565b60206040518083038186803b1580156157af57600080fd5b505afa1580156157c3573d6000803e3d6000fd5b505050506040513d601f19601f820116820180604052508101906157e79190617d09565b9050919050565b60008160ac60008563ffffffff1663ffffffff1681526020019081526020016000205414905092915050565b6000806000838060200190518101906158339190617ae3565b925092509250615844838383617220565b505050505050565b60008060005b60e460009054906101000a90046fffffffffffffffffffffffffffffffff166fffffffffffffffffffffffffffffffff16816fffffffffffffffffffffffffffffffff1611615a475760008460e16000846fffffffffffffffffffffffffffffffff166fffffffffffffffffffffffffffffffff16815260200190815260200160002060000160009054906101000a900473ffffffffffffffffffffffffffffffffffffffff16600360405160200161590d93929190618577565b60405160208183030381529060405280519060200120905061599f60e16000846fffffffffffffffffffffffffffffffff166fffffffffffffffffffffffffffffffff16815260200190815260200160002060000160009054906101000a900473ffffffffffffffffffffffffffffffffffffffff1660e0600084815260200190815260200160002060020154615566565b846159aa9190618de6565b9350615a2660e16000846fffffffffffffffffffffffffffffffff166fffffffffffffffffffffffffffffffff16815260200190815260200160002060000160009054906101000a900473ffffffffffffffffffffffffffffffffffffffff1660df600084815260200190815260200160002060020154615566565b83615a319190618de6565b9250508080615a3f906192e5565b915050615852565b508060de60008573ffffffffffffffffffffffffffffffffffffffff1673ffffffffffffffffffffffffffffffffffffffff168152602001908152602001600020600101819055508160de60008573ffffffffffffffffffffffffffffffffffffffff1673ffffffffffffffffffffffffffffffffffffffff1681526020019081526020016000206002018190555060de60008473ffffffffffffffffffffffffffffffffffffffff1673ffffffffffffffffffffffffffffffffffffffff16815260200190815260200160002060020154615b6460de60008673ffffffffffffffffffffffffffffffffffffffff1673ffffffffffffffffffffffffffffffffffffffff16815260200190815260200160002060010154613cc9565b615b6e9190618e3c565b60de60008573ffffffffffffffffffffffffffffffffffffffff1673ffffffffffffffffffffffffffffffffffffffff16815260200190815260200160002060040181905550505050565b8215615cb1578115615c1b578360e16000836fffffffffffffffffffffffffffffffff166fffffffffffffffffffffffffffffffff1681526020019081526020016000206002016000828254615c0f9190618de6565b92505081905550615c6d565b8360e16000836fffffffffffffffffffffffffffffffff166fffffffffffffffffffffffffffffffff1681526020019081526020016000206002016000828254615c659190619038565b925050819055505b4260e16000836fffffffffffffffffffffffffffffffff166fffffffffffffffffffffffffffffffff16815260200190815260200160002060030181905550615d9f565b8115615d0d578360e16000836fffffffffffffffffffffffffffffffff166fffffffffffffffffffffffffffffffff1681526020019081526020016000206001016000828254615d019190618de6565b92505081905550615d5f565b8360e16000836fffffffffffffffffffffffffffffffff166fffffffffffffffffffffffffffffffff1681526020019081526020016000206001016000828254615d579190619038565b925050819055505b4260e16000836fffffffffffffffffffffffffffffffff166fffffffffffffffffffffffffffffffff168152602001908152602001600020600401819055505b615da881617141565b50505050565b6000615db8617653565b90506000615dc78286866176fa565b90506000831115615e6557607b60009054906101000a900473ffffffffffffffffffffffffffffffffffffffff1673ffffffffffffffffffffffffffffffffffffffff1663a5703c8e848484896040518563ffffffff1660e01b8152600401615e329392919061882e565b6000604051808303818588803b158015615e4b57600080fd5b505af1158015615e5f573d6000803e3d6000fd5b50505050505b5050505050565b6000604860009054906101000a900473ffffffffffffffffffffffffffffffffffffffff16905081604860006101000a81548173ffffffffffffffffffffffffffffffffffffffff021916908373ffffffffffffffffffffffffffffffffffffffff1602179055508173ffffffffffffffffffffffffffffffffffffffff168173ffffffffffffffffffffffffffffffffffffffff167f8be0079c531659141344cd1fd0a4f28419497f9722a3daafe3b4186f6b6457e060405160405180910390a35050565b8060ac60008463ffffffff1663ffffffff16815260200190815260200160002081905550808263ffffffff167f97fd51fef1f80c854cbd0150c248e8b2ac4ecdc97cc05e742b5f61c9f4dc645860405160405180910390a35050565b80607b60006101000a81548173ffffffffffffffffffffffffffffffffffffffff021916908373ffffffffffffffffffffffffffffffffffffffff1602179055508073ffffffffffffffffffffffffffffffffffffffff167fb87f5a0bface22cde699143559fb99f990ae54eea236995fc54178af91af859f60405160405180910390a250565b6000610708905060008383600360405160200161603493929190618577565b6040516020818303038152906040528051906020012090506000826160b660e260008773ffffffffffffffffffffffffffffffffffffffff1673ffffffffffffffffffffffffffffffffffffffff16815260200190815260200160002060000160019054906101000a90046fffffffffffffffffffffffffffffffff16611832565b6160c09190618fde565b905060008361612c60e260008873ffffffffffffffffffffffffffffffffffffffff1673ffffffffffffffffffffffffffffffffffffffff16815260200190815260200160002060000160019054906101000a90046fffffffffffffffffffffffffffffffff16613b07565b6161369190618fde565b9050600061271060de60008973ffffffffffffffffffffffffffffffffffffffff1673ffffffffffffffffffffffffffffffffffffffff16815260200190815260200160002060020154600260045461618f9190618fde565b6161999190618fde565b6161a39190618e3c565b905060008054906101000a900473ffffffffffffffffffffffffffffffffffffffff1673ffffffffffffffffffffffffffffffffffffffff1663313ce5676040518163ffffffff1660e01b815260040160206040518083038186803b15801561620b57600080fd5b505afa15801561621f573d6000803e3d6000fd5b505050506040513d601f19601f820116820180604052508101906162439190617fa0565b600a61624f9190618ec0565b60e0600086815260200190815260200160002060020154836162719190618fde565b61627b9190618e3c565b60e0600086815260200190815260200160002060020160008282546162a09190618de6565b9250508190555060008054906101000a900473ffffffffffffffffffffffffffffffffffffffff1673ffffffffffffffffffffffffffffffffffffffff1663313ce5676040518163ffffffff1660e01b815260040160206040518083038186803b15801561630d57600080fd5b505afa158015616321573d6000803e3d6000fd5b505050506040513d601f19601f820116820180604052508101906163459190617fa0565b600a6163519190618ec0565b60df600086815260200190815260200160002060020154846163739190618fde565b61637d9190618e3c565b60df600086815260200190815260200160002060020160008282546163a29190618de6565b925050819055508060008054906101000a900473ffffffffffffffffffffffffffffffffffffffff1673ffffffffffffffffffffffffffffffffffffffff1663313ce5676040518163ffffffff1660e01b815260040160206040518083038186803b15801561641057600080fd5b505afa158015616424573d6000803e3d6000fd5b505050506040513d601f19601f820116820180604052508101906164489190617fa0565b600a6164549190618ec0565b60de60008a73ffffffffffffffffffffffffffffffffffffffff1673ffffffffffffffffffffffffffffffffffffffff16815260200190815260200160002060020154846164a29190618fde565b6164ac9190618e3c565b6164b69190619038565b60de60008973ffffffffffffffffffffffffffffffffffffffff1673ffffffffffffffffffffffffffffffffffffffff16815260200190815260200160002060020160008282546165079190618de6565b9250508190555060008054906101000a900473ffffffffffffffffffffffffffffffffffffffff1673ffffffffffffffffffffffffffffffffffffffff1663313ce5676040518163ffffffff1660e01b815260040160206040518083038186803b15801561657457600080fd5b505afa158015616588573d6000803e3d6000fd5b505050506040513d601f19601f820116820180604052508101906165ac9190617fa0565b600a6165b89190618ec0565b60de60008973ffffffffffffffffffffffffffffffffffffffff1673ffffffffffffffffffffffffffffffffffffffff16815260200190815260200160002060010154846166069190618fde565b6166109190618e3c565b60de60008973ffffffffffffffffffffffffffffffffffffffff1673ffffffffffffffffffffffffffffffffffffffff16815260200190815260200160002060010160008282546166619190618de6565b9250508190555060de60008873ffffffffffffffffffffffffffffffffffffffff1673ffffffffffffffffffffffffffffffffffffffff168152602001908152602001600020600201546166f660de60008a73ffffffffffffffffffffffffffffffffffffffff1673ffffffffffffffffffffffffffffffffffffffff16815260200190815260200160002060010154613cc9565b6167009190618e3c565b60de60008973ffffffffffffffffffffffffffffffffffffffff1673ffffffffffffffffffffffffffffffffffffffff1681526020019081526020016000206004018190555050505050505050565b611b5960de60008473ffffffffffffffffffffffffffffffffffffffff1673ffffffffffffffffffffffffffffffffffffffff16815260200190815260200160002060040154116167d5576040517f08c379a00000000000000000000000000000000000000000000000000000000081526004016167cc90618a6a565b60405180910390fd5b6167de8261584c565b6000828260036040516020016167f693929190618577565b60405160208183030381529060405280519060200120905060006168308360e0600085815260200190815260200160002060020154615566565b905060006127108260026004546168479190618fde565b6168519190618fde565b61685b9190618e3c565b9050600060e060008581526020019081526020016000206002018190555080826168859190618de6565b60de60008773ffffffffffffffffffffffffffffffffffffffff1673ffffffffffffffffffffffffffffffffffffffff16815260200190815260200160002060020160008282546168d69190619038565b925050819055508160de60008773ffffffffffffffffffffffffffffffffffffffff1673ffffffffffffffffffffffffffffffffffffffff168152602001908152602001600020600101600082825461692f9190619038565b9250508190555060de60008673ffffffffffffffffffffffffffffffffffffffff1673ffffffffffffffffffffffffffffffffffffffff168152602001908152602001600020600201546169c460de60008873ffffffffffffffffffffffffffffffffffffffff1673ffffffffffffffffffffffffffffffffffffffff16815260200190815260200160002060010154613cc9565b6169ce9190618e3c565b60de60008773ffffffffffffffffffffffffffffffffffffffff1673ffffffffffffffffffffffffffffffffffffffff168152602001908152602001600020600401819055505050505050565b600033905090565b60606000600267ffffffffffffffff811115616a68577f4e487b7100000000000000000000000000000000000000000000000000000000600052604160045260246000fd5b604051908082528060200260200182016040528015616a965781602001602082028036833780820191505090505b5090508281600081518110616ad4577f4e487b7100000000000000000000000000000000000000000000000000000000600052603260045260246000fd5b602002602001019073ffffffffffffffffffffffffffffffffffffffff16908173ffffffffffffffffffffffffffffffffffffffff1681525050600660009054906101000a900473ffffffffffffffffffffffffffffffffffffffff1681600181518110616b6b577f4e487b7100000000000000000000000000000000000000000000000000000000600052603260045260246000fd5b602002602001019073ffffffffffffffffffffffffffffffffffffffff16908173ffffffffffffffffffffffffffffffffffffffff16815250506000616be26009546001616bb99190618fde565b600260009054906101000a900473ffffffffffffffffffffffffffffffffffffffff1684617054565b90506000811115616bf757819250505061704f565b600367ffffffffffffffff811115616c38577f4e487b7100000000000000000000000000000000000000000000000000000000600052604160045260246000fd5b604051908082528060200260200182016040528015616c665781602001602082028036833780820191505090505b5091508382600081518110616ca4577f4e487b7100000000000000000000000000000000000000000000000000000000600052603260045260246000fd5b602002602001019073ffffffffffffffffffffffffffffffffffffffff16908173ffffffffffffffffffffffffffffffffffffffff1681525050600760009054906101000a900473ffffffffffffffffffffffffffffffffffffffff1682600181518110616d3b577f4e487b7100000000000000000000000000000000000000000000000000000000600052603260045260246000fd5b602002602001019073ffffffffffffffffffffffffffffffffffffffff16908173ffffffffffffffffffffffffffffffffffffffff1681525050600660009054906101000a900473ffffffffffffffffffffffffffffffffffffffff1682600281518110616dd2577f4e487b7100000000000000000000000000000000000000000000000000000000600052603260045260246000fd5b602002602001019073ffffffffffffffffffffffffffffffffffffffff16908173ffffffffffffffffffffffffffffffffffffffff1681525050616e476009546001616e1e9190618fde565b600260009054906101000a900473ffffffffffffffffffffffffffffffffffffffff1684617054565b90506000811115616e5c57819250505061704f565b600860009054906101000a900473ffffffffffffffffffffffffffffffffffffffff1682600181518110616eb9577f4e487b7100000000000000000000000000000000000000000000000000000000600052603260045260246000fd5b602002602001019073ffffffffffffffffffffffffffffffffffffffff16908173ffffffffffffffffffffffffffffffffffffffff1681525050600660009054906101000a900473ffffffffffffffffffffffffffffffffffffffff1682600281518110616f50577f4e487b7100000000000000000000000000000000000000000000000000000000600052603260045260246000fd5b602002602001019073ffffffffffffffffffffffffffffffffffffffff16908173ffffffffffffffffffffffffffffffffffffffff1681525050616fc56009546001616f9c9190618fde565b600260009054906101000a900473ffffffffffffffffffffffffffffffffffffffff1684617054565b90506000811115616fda57819250505061704f565b600067ffffffffffffffff81111561701b577f4e487b7100000000000000000000000000000000000000000000000000000000600052604160045260246000fd5b6040519080825280602002602001820160405280156170495781602001602082028036833780820191505090505b50925050505b919050565b6000808373ffffffffffffffffffffffffffffffffffffffff1663d06ca61f86856040518363ffffffff1660e01b8152600401617092929190618c2a565b60006040518083038186803b1580156170aa57600080fd5b505afa1580156170be573d6000803e3d6000fd5b505050506040513d6000823e3d601f19601f820116820180604052508101906170e79190617cc8565b905080600182516170f89190619038565b8151811061712f577f4e487b7100000000000000000000000000000000000000000000000000000000600052603260045260246000fd5b60200260200101519150509392505050565b60e16000826fffffffffffffffffffffffffffffffff166fffffffffffffffffffffffffffffffff16815260200190815260200160002060000160149054906101000a900460ff161561721d5761719781611832565b60e16000836fffffffffffffffffffffffffffffffff166fffffffffffffffffffffffffffffffff168152602001908152602001600020600501819055506171de81613b07565b60e16000836fffffffffffffffffffffffffffffffff166fffffffffffffffffffffffffffffffff168152602001908152602001600020600601819055505b50565b60026001541415617266576040517f08c379a000000000000000000000000000000000000000000000000000000000815260040161725d90618b2a565b60405180910390fd5b600260018190555060de60008473ffffffffffffffffffffffffffffffffffffffff1673ffffffffffffffffffffffffffffffffffffffff16815260200190815260200160002060000160149054906101000a900460ff161561748f578160de60008573ffffffffffffffffffffffffffffffffffffffff1673ffffffffffffffffffffffffffffffffffffffff168152602001908152602001600020600201819055508060de60008573ffffffffffffffffffffffffffffffffffffffff1673ffffffffffffffffffffffffffffffffffffffff1681526020019081526020016000206001018190555060de60008473ffffffffffffffffffffffffffffffffffffffff1673ffffffffffffffffffffffffffffffffffffffff168152602001908152602001600020600201546173df60de60008673ffffffffffffffffffffffffffffffffffffffff1673ffffffffffffffffffffffffffffffffffffffff16815260200190815260200160002060010154613cc9565b6173e99190618e3c565b60de60008573ffffffffffffffffffffffffffffffffffffffff1673ffffffffffffffffffffffffffffffffffffffff16815260200190815260200160002060040181905550600060de60008573ffffffffffffffffffffffffffffffffffffffff1673ffffffffffffffffffffffffffffffffffffffff16815260200190815260200160002060050160006101000a81548160ff021916908315150217905550617647565b60e5839080600181540180825580915050600190039060005260206000200160009091909190916101000a81548173ffffffffffffffffffffffffffffffffffffffff021916908373ffffffffffffffffffffffffffffffffffffffff1602179055506040518060e001604052808473ffffffffffffffffffffffffffffffffffffffff168152602001600115158152602001828152602001838152602001600081526020018361753f84613cc9565b6175499190618e3c565b81526020016000151581525060de60008573ffffffffffffffffffffffffffffffffffffffff1673ffffffffffffffffffffffffffffffffffffffff16815260200190815260200160002060008201518160000160006101000a81548173ffffffffffffffffffffffffffffffffffffffff021916908373ffffffffffffffffffffffffffffffffffffffff16021790555060208201518160000160146101000a81548160ff02191690831515021790555060408201518160010155606082015181600201556080820151816003015560a0820151816004015560c08201518160050160006101000a81548160ff0219169083151502179055509050505b60018081905550505050565b6000607a60009054906101000a900473ffffffffffffffffffffffffffffffffffffffff1673ffffffffffffffffffffffffffffffffffffffff1663ce11e6ab6040518163ffffffff1660e01b815260040160206040518083038186803b1580156176bd57600080fd5b505afa1580156176d1573d6000803e3d6000fd5b505050506040513d601f19601f820116820180604052508101906176f59190617da0565b905090565b600080617706846177a1565b90508473ffffffffffffffffffffffffffffffffffffffff1663fa31de018583866040518463ffffffff1660e01b815260040161774593929190618c5a565b602060405180830381600087803b15801561775f57600080fd5b505af1158015617773573d6000803e3d6000fd5b505050506040513d601f19601f820116820180604052508101906177979190617e82565b9150509392505050565b600060ac60008363ffffffff1663ffffffff1681526020019081526020016000205490506000801b81141561780b576040517f08c379a000000000000000000000000000000000000000000000000000000000815260040161780290618aaa565b60405180910390fd5b919050565b600061782361781e84618cbd565b618c98565b9050808382526020820190508285602086028201111561784257600080fd5b60005b8581101561787257816178588882617a66565b845260208401935060208301925050600181019050617845565b5050509392505050565b600061788f61788a84618ce9565b618c98565b9050828152602081018484840111156178a757600080fd5b6178b28482856191d8565b509392505050565b6000813590506178c9816198cd565b92915050565b6000815190506178de816198e4565b92915050565b60008083601f8401126178f657600080fd5b8235905067ffffffffffffffff81111561790f57600080fd5b60208301915083606082028301111561792757600080fd5b9250929050565b600082601f83011261793f57600080fd5b815161794f848260208601617810565b91505092915050565b600081519050617967816198fb565b92915050565b60008135905061797c81619912565b92915050565b60008083601f84011261799457600080fd5b8235905067ffffffffffffffff8111156179ad57600080fd5b6020830191508360018202830111156179c557600080fd5b9250929050565b600082601f8301126179dd57600080fd5b81356179ed84826020860161787c565b91505092915050565b600081519050617a0581619929565b92915050565b600081519050617a1a81619940565b92915050565b60006101008284031215617a3357600080fd5b81905092915050565b600081359050617a4b81619957565b92915050565b600081359050617a608161996e565b92915050565b600081519050617a758161996e565b92915050565b600081359050617a8a81619985565b92915050565b600081359050617a9f8161999c565b92915050565b600081519050617ab4816199b3565b92915050565b600060208284031215617acc57600080fd5b6000617ada848285016178ba565b91505092915050565b600080600060608486031215617af857600080fd5b6000617b06868287016178cf565b9350506020617b1786828701617a66565b9250506040617b2886828701617a66565b9150509250925092565b60008060408385031215617b4557600080fd5b6000617b53858286016178ba565b9250506020617b6485828601617a51565b9150509250929050565b60008060008060808587031215617b8457600080fd5b6000617b92878288016178ba565b9450506020617ba387828801617a51565b9350506040617bb4878288016178ba565b9250506060617bc587828801617a51565b91505092959194509250565b600080600060608486031215617be657600080fd5b6000617bf4868287016178ba565b9350506020617c0586828701617a51565b9250506040617c1686828701617a51565b9150509250925092565b60008060008060808587031215617c3657600080fd5b6000617c44878288016178ba565b9450506020617c5587828801617a51565b9350506040617c6687828801617a51565b9250506060617c77878288016178ba565b91505092959194509250565b60008060208385031215617c9657600080fd5b600083013567ffffffffffffffff811115617cb057600080fd5b617cbc858286016178e4565b92509250509250929050565b600060208284031215617cda57600080fd5b600082015167ffffffffffffffff811115617cf457600080fd5b617d008482850161792e565b91505092915050565b600060208284031215617d1b57600080fd5b6000617d2984828501617958565b91505092915050565b600060208284031215617d4457600080fd5b6000617d528482850161796d565b91505092915050565b60008060208385031215617d6e57600080fd5b600083013567ffffffffffffffff811115617d8857600080fd5b617d9485828601617982565b92509250509250929050565b600060208284031215617db257600080fd5b6000617dc0848285016179f6565b91505092915050565b600060208284031215617ddb57600080fd5b6000617de984828501617a0b565b91505092915050565b6000806101208385031215617e0657600080fd5b6000617e1485828601617a20565b925050610100617e26858286016178ba565b9150509250929050565b600060208284031215617e4257600080fd5b6000617e5084828501617a3c565b91505092915050565b600060208284031215617e6b57600080fd5b6000617e7984828501617a51565b91505092915050565b600060208284031215617e9457600080fd5b6000617ea284828501617a66565b91505092915050565b600060208284031215617ebd57600080fd5b6000617ecb84828501617a7b565b91505092915050565b60008060408385031215617ee757600080fd5b6000617ef585828601617a7b565b9250506020617f068582860161796d565b9150509250929050565b600080600060608486031215617f2557600080fd5b6000617f3386828701617a7b565b9350506020617f448682870161796d565b925050604084013567ffffffffffffffff811115617f6157600080fd5b617f6d868287016179cc565b9150509250925092565b600060208284031215617f8957600080fd5b6000617f9784828501617a90565b91505092915050565b600060208284031215617fb257600080fd5b6000617fc084828501617aa5565b91505092915050565b6000617fd58383617fe1565b60208301905092915050565b617fea816190a3565b82525050565b617ff9816190a3565b82525050565b61801061800b826190a3565b619367565b82525050565b600061802182618d3f565b61802b8185618d62565b935061803683618d1a565b8060005b8381101561806757815161804e8882617fc9565b975061805983618d55565b92505060018101905061803a565b5085935050505092915050565b61807d816190c7565b82525050565b61808c816190c7565b82525050565b61809b816190d3565b82525050565b60006180ac82618d4a565b6180b68185618d73565b93506180c68185602086016191e7565b6180cf81619447565b840191505092915050565b6180e38161917e565b82525050565b6180f2816191a2565b82525050565b618101816191c6565b82525050565b600081546181148161921a565b61811e8186618d95565b94506001821660008114618139576001811461814a5761817d565b60ff1983168652818601935061817d565b61815385618d2a565b60005b8381101561817557815481890152600182019150602081019050618156565b838801955050505b50505092915050565b6000618193602f83618d84565b915061819e8261948c565b604082019050919050565b60006181b6602d83618d84565b91506181c1826194db565b604082019050919050565b60006181d9602683618d84565b91506181e48261952a565b604082019050919050565b60006181fc602283618d84565b915061820782619579565b604082019050919050565b600061821f601983618d84565b915061822a826195c8565b602082019050919050565b6000618242600e83618d84565b915061824d826195f1565b602082019050919050565b6000618265602083618d84565b91506182708261961a565b602082019050919050565b6000618288602283618d84565b915061829382619643565b604082019050919050565b60006182ab601283618d84565b91506182b682619692565b602082019050919050565b60006182ce601383618d84565b91506182d9826196bb565b602082019050919050565b60006182f1601883618d84565b91506182fc826196e4565b602082019050919050565b6000618314600683618d84565b915061831f8261970d565b602082019050919050565b6000618337600783618d84565b915061834282619736565b602082019050919050565b600061835a601483618d84565b91506183658261975f565b602082019050919050565b600061837d602f83618d84565b915061838882619788565b604082019050919050565b60006183a0601783618d84565b91506183ab826197d7565b602082019050919050565b60006183c3601f83618d84565b91506183ce82619800565b602082019050919050565b60006183e6600e83618d84565b91506183f182619829565b602082019050919050565b6000618409601883618d84565b915061841482619852565b602082019050919050565b600061842c601483618d84565b91506184378261987b565b602082019050919050565b600061844f601883618d84565b915061845a826198a4565b602082019050919050565b60e08201600080830154905061847a8161924c565b6184876000860182617fe1565b506184918161929a565b61849e6020860182618074565b50600183015490506184af81619280565b6184bc604086018261854a565b50600283015490506184cd81619280565b6184da606086018261854a565b50600383015490506184eb81619280565b6184f8608086018261854a565b506004830154905061850981619280565b61851660a086018261854a565b506005830154905061852781619266565b61853460c0860182618074565b5050505050565b618544816190f9565b82525050565b61855381619143565b82525050565b61856281619143565b82525050565b6185718161914d565b82525050565b60006185838286617fff565b6014820191506185938285617fff565b6014820191506185a38284618107565b9150819050949350505050565b60006020820190506185c56000830184617ff0565b92915050565b6000610100820190506185e1600083018b617ff0565b6185ee602083018a617ff0565b6185fb6040830189618083565b6186086060830188618559565b6186156080830187617ff0565b61862260a0830186618559565b61862f60c0830185617ff0565b61863c60e0830184618559565b9998505050505050505050565b600060a08201905061865e6000830188617ff0565b61866b6020830187617ff0565b6186786040830186618083565b6186856060830185618559565b6186926080830184618559565b9695505050505050565b60006060820190506186b16000830186617ff0565b6186be6020830185617ff0565b6186cb6040830184618559565b949350505050565b60006080820190506186e86000830187617ff0565b6186f56020830186617ff0565b6187026040830185618559565b61870f6060830184618559565b95945050505050565b600060e08201905061872d600083018a617ff0565b61873a6020830189618083565b6187476040830188618559565b6187546060830187618559565b6187616080830186618559565b61876e60a0830185618559565b61877b60c0830184618083565b98975050505050505050565b60006101008201905061879d600083018b617ff0565b6187aa602083018a618083565b6187b76040830189618559565b6187c46060830188618559565b6187d16080830187618559565b6187de60a0830186618559565b6187eb60c0830185618559565b6187f860e0830184618559565b9998505050505050505050565b600060408201905061881a6000830185617ff0565b6188276020830184618559565b9392505050565b60006060820190506188436000830186617ff0565b6188506020830185618559565b61885d6040830184618568565b949350505050565b600060208201905061887a6000830184618083565b92915050565b60006040820190506188956000830185618083565b81810360208301526188a781846180a1565b90509392505050565b60006040820190506188c56000830185618083565b6188d2602083018461853b565b9392505050565b60006020820190506188ee6000830184618092565b92915050565b600060208201905061890960008301846180da565b92915050565b600060208201905061892460008301846180e9565b92915050565b6000602082019050818103600083015261894381618186565b9050919050565b60006020820190508181036000830152618963816181a9565b9050919050565b60006020820190508181036000830152618983816181cc565b9050919050565b600060208201905081810360008301526189a3816181ef565b9050919050565b600060208201905081810360008301526189c381618212565b9050919050565b600060208201905081810360008301526189e381618235565b9050919050565b60006020820190508181036000830152618a0381618258565b9050919050565b60006020820190508181036000830152618a238161827b565b9050919050565b60006020820190508181036000830152618a438161829e565b9050919050565b60006020820190508181036000830152618a63816182c1565b9050919050565b60006020820190508181036000830152618a83816182e4565b9050919050565b60006020820190508181036000830152618aa381618307565b9050919050565b60006020820190508181036000830152618ac38161832a565b9050919050565b60006020820190508181036000830152618ae38161834d565b9050919050565b60006020820190508181036000830152618b0381618370565b9050919050565b60006020820190508181036000830152618b2381618393565b9050919050565b60006020820190508181036000830152618b43816183b6565b9050919050565b60006020820190508181036000830152618b63816183d9565b9050919050565b60006020820190508181036000830152618b83816183fc565b9050919050565b60006020820190508181036000830152618ba38161841f565b9050919050565b60006020820190508181036000830152618bc381618442565b9050919050565b600060e082019050618bdf6000830184618465565b92915050565b600061010082019050618bfb6000830185618465565b618c0860e08301846180f8565b9392505050565b6000602082019050618c246000830184618559565b92915050565b6000604082019050618c3f6000830185618559565b8181036020830152618c518184618016565b90509392505050565b6000606082019050618c6f6000830186618568565b618c7c6020830185618092565b8181036040830152618c8e81846180a1565b9050949350505050565b6000618ca2618cb3565b9050618cae82826192b4565b919050565b6000604051905090565b600067ffffffffffffffff821115618cd857618cd7619418565b5b602082029050602081019050919050565b600067ffffffffffffffff821115618d0457618d03619418565b5b618d0d82619447565b9050602081019050919050565b6000819050602082019050919050565b60008190508160005260206000209050919050565b600081519050919050565b600081519050919050565b6000602082019050919050565b600082825260208201905092915050565b600082825260208201905092915050565b600082825260208201905092915050565b600081905092915050565b6000618dab826190f9565b9150618db6836190f9565b9250826fffffffffffffffffffffffffffffffff03821115618ddb57618dda61938b565b5b828201905092915050565b6000618df182619143565b9150618dfc83619143565b9250827fffffffffffffffffffffffffffffffffffffffffffffffffffffffffffffffff03821115618e3157618e3061938b565b5b828201905092915050565b6000618e4782619143565b9150618e5283619143565b925082618e6257618e616193ba565b5b828204905092915050565b6000808291508390505b6001851115618eb757808604811115618e9357618e9261938b565b5b6001851615618ea25780820291505b8081029050618eb08561947f565b9450618e77565b94509492505050565b6000618ecb82619143565b9150618ed683619171565b9250618f037fffffffffffffffffffffffffffffffffffffffffffffffffffffffffffffffff8484618f0b565b905092915050565b600082618f1b5760019050618fd7565b81618f295760009050618fd7565b8160018114618f3f5760028114618f4957618f78565b6001915050618fd7565b60ff841115618f5b57618f5a61938b565b5b8360020a915084821115618f7257618f7161938b565b5b50618fd7565b5060208310610133831016604e8410600b8410161715618fad5782820a905083811115618fa857618fa761938b565b5b618fd7565b618fba8484846001618e6d565b92509050818404811115618fd157618fd061938b565b5b81810290505b9392505050565b6000618fe982619143565b9150618ff483619143565b9250817fffffffffffffffffffffffffffffffffffffffffffffffffffffffffffffffff048311821515161561902d5761902c61938b565b5b828202905092915050565b600061904382619143565b915061904e83619143565b9250828210156190615761906061938b565b5b828203905092915050565b600073ffffffffffffffffffffffffffffffffffffffff82169050919050565b600060ff82169050919050565b6000819050919050565b60006190ae82619123565b9050919050565b60006190c082619123565b9050919050565b60008115159050919050565b6000819050919050565b60006190e8826190a3565b9050919050565b6000819050919050565b60006fffffffffffffffffffffffffffffffff82169050919050565b600061ffff82169050919050565b600073ffffffffffffffffffffffffffffffffffffffff82169050919050565b6000819050919050565b600063ffffffff82169050919050565b600067ffffffffffffffff82169050919050565b600060ff82169050919050565b600061918982619190565b9050919050565b600061919b82619123565b9050919050565b60006191ad826191b4565b9050919050565b60006191bf82619123565b9050919050565b60006191d182619115565b9050919050565b82818337600083830152505050565b60005b838110156192055780820151818401526020810190506191ea565b83811115619214576000848401525b50505050565b6000600282049050600182168061923257607f821691505b60208210811415619246576192456193e9565b5b50919050565b600061925f61925a83619465565b61906c565b9050919050565b600061927961927483619465565b61908c565b9050919050565b600061929361928e83619465565b619099565b9050919050565b60006192ad6192a883619472565b61908c565b9050919050565b6192bd82619447565b810181811067ffffffffffffffff821117156192dc576192db619418565b5b80604052505050565b60006192f0826190f9565b91506fffffffffffffffffffffffffffffffff8214156193135761931261938b565b5b600182019050919050565b600061932982619143565b91507fffffffffffffffffffffffffffffffffffffffffffffffffffffffffffffffff82141561935c5761935b61938b565b5b600182019050919050565b600061937282619379565b9050919050565b600061938482619458565b9050919050565b7f4e487b7100000000000000000000000000000000000000000000000000000000600052601160045260246000fd5b7f4e487b7100000000000000000000000000000000000000000000000000000000600052601260045260246000fd5b7f4e487b7100000000000000000000000000000000000000000000000000000000600052602260045260246000fd5b7f4e487b7100000000000000000000000000000000000000000000000000000000600052604160045260246000fd5b6000601f19601f8301169050919050565b60008160601b9050919050565b60008160001c9050919050565b60008160a01c9050919050565b60008160011c9050919050565b7f55736572206e6f7420616c6c6f77656420666f7220746869732066756e63746960008201527f6f6e2c2041646d696e206f6e6c792e0000000000000000000000000000000000602082015250565b7f70617468206d75737420626520646566696e697469766520616e64206772656160008201527f746572207468616e207a65726f00000000000000000000000000000000000000602082015250565b7f4f776e61626c653a206e6577206f776e657220697320746865207a65726f206160008201527f6464726573730000000000000000000000000000000000000000000000000000602082015250565b7f7472616e7366657246726f6d206661696c65642066726f6d20636f6e7472616360008201527f742e000000000000000000000000000000000000000000000000000000000000602082015250565b7f4e6f7420656e6f756768207374617274206e657720706f6f6c00000000000000600082015250565b7f55736572206e6f7420666f756e64000000000000000000000000000000000000600082015250565b7f4f776e61626c653a2063616c6c6572206973206e6f7420746865206f776e6572600082015250565b7f416d6f756e742067726561746572207468616e20616c6c6f77656420616d6f7560008201527f6e74000000000000000000000000000000000000000000000000000000000000602082015250565b7f436f6c20616d6f756e7420746f6f206c6f770000000000000000000000000000600082015250565b7f7472616e7366657246726f6d206661696c656400000000000000000000000000600082015250565b7f4c69717569646174696f6e206e6f7420706f737369626c650000000000000000600082015250565b7f21696e626f780000000000000000000000000000000000000000000000000000600082015250565b7f21726f7574657200000000000000000000000000000000000000000000000000600082015250565b7f4e6f7420656e6f756768206c6971756964697479000000000000000000000000600082015250565b7f4e6f7420616c6c6f77656420746f20706572666f726d2061207472616e73616360008201527f74696f6e207269676874206e6f772e0000000000000000000000000000000000602082015250565b7f7573657220646f6573206e6f7420657869737420796574000000000000000000600082015250565b7f5265656e7472616e637947756172643a207265656e7472616e742063616c6c00600082015250565b7f416d6f756e7420746f6f206c6f77000000000000000000000000000000000000600082015250565b7f6d61726b657420616c726561647920617661696c61626c650000000000000000600082015250565b7f6d61726b6574206e6f7420617661696c61626c65000000000000000000000000600082015250565b7f436f6c206d61726b6574206e6f7420617661696c61626c650000000000000000600082015250565b6198d6816190a3565b81146198e157600080fd5b50565b6198ed816190b5565b81146198f857600080fd5b50565b619904816190c7565b811461990f57600080fd5b50565b61991b816190d3565b811461992657600080fd5b50565b619932816190dd565b811461993d57600080fd5b50565b619949816190ef565b811461995457600080fd5b50565b619960816190f9565b811461996b57600080fd5b50565b61997781619143565b811461998257600080fd5b50565b61998e8161914d565b811461999957600080fd5b50565b6199a58161915d565b81146199b057600080fd5b50565b6199bc81619171565b81146199c757600080fd5b5056fea2646970667358221220f77677262c1fb1b57f9cdc08a4f664544429dd5beb326e94a2f8b2f8a4bc896664736f6c63430008040033",
  "linkReferences": {},
  "deployedLinkReferences": {}
}