{
  "_format": "hh-sol-artifact-1",
  "contractName": "HeadenFinanceChild",
  "sourceName": "contracts/headenFinanceChild.sol",
  "abi": [
    {
      "inputs": [
        {
          "internalType": "uint256",
          "name": "_interval",
          "type": "uint256"
        },
        {
          "internalType": "address",
          "name": "_multichainRouter",
          "type": "address"
        },
        {
          "internalType": "string",
          "name": "_hashSalt",
          "type": "string"
        },
        {
          "internalType": "address",
          "name": "_swapRouter",
          "type": "address"
        },
        {
          "internalType": "address",
          "name": "_usdc",
          "type": "address"
        },
        {
          "internalType": "address",
          "name": "_dai",
          "type": "address"
        },
        {
          "internalType": "address",
          "name": "_matic",
          "type": "address"
        },
        {
          "components": [
            {
              "internalType": "address",
              "name": "_abacusManager",
              "type": "address"
            },
            {
              "internalType": "address",
              "name": "_abacusPay",
              "type": "address"
            }
          ],
          "internalType": "struct HeadenFinanceChild.Abacus",
          "name": "_abacus",
          "type": "tuple"
        },
        {
          "components": [
            {
              "internalType": "address",
              "name": "_parentAddress",
              "type": "address"
            },
            {
              "internalType": "uint256",
              "name": "_parentChainId",
              "type": "uint256"
            },
            {
              "internalType": "uint32",
              "name": "_hlParentId",
              "type": "uint32"
            }
          ],
          "internalType": "struct HeadenFinanceChild.Parent",
          "name": "_parent",
          "type": "tuple"
        },
        {
          "internalType": "uint256",
          "name": "_chainId",
          "type": "uint256"
        },
        {
          "components": [
            {
              "internalType": "uint64",
              "name": "supplyKink",
              "type": "uint64"
            },
            {
              "internalType": "uint64",
              "name": "supplyPerYearInterestRateSlopeLow",
              "type": "uint64"
            },
            {
              "internalType": "uint64",
              "name": "supplyPerYearInterestRateSlopeHigh",
              "type": "uint64"
            },
            {
              "internalType": "uint64",
              "name": "supplyPerYearInterestRateBase",
              "type": "uint64"
            },
            {
              "internalType": "uint64",
              "name": "borrowKink",
              "type": "uint64"
            },
            {
              "internalType": "uint64",
              "name": "borrowPerYearInterestRateSlopeLow",
              "type": "uint64"
            },
            {
              "internalType": "uint64",
              "name": "borrowPerYearInterestRateSlopeHigh",
              "type": "uint64"
            },
            {
              "internalType": "uint64",
              "name": "borrowPerYearInterestRateBase",
              "type": "uint64"
            }
          ],
          "internalType": "struct HeadenUtils.Configuration",
          "name": "config",
          "type": "tuple"
        }
      ],
      "stateMutability": "nonpayable",
      "type": "constructor"
    },
    {
      "anonymous": false,
      "inputs": [
        {
          "indexed": true,
          "internalType": "address",
          "name": "abacusConnectionManager",
          "type": "address"
        }
      ],
      "name": "AbacusConnectionManagerSet",
      "type": "event"
    },
    {
      "anonymous": false,
      "inputs": [],
      "name": "Borrowed",
      "type": "event"
    },
    {
      "anonymous": false,
      "inputs": [
        {
          "indexed": false,
          "internalType": "address",
          "name": "user",
          "type": "address"
        }
      ],
      "name": "ChainSyncRequired",
      "type": "event"
    },
    {
      "anonymous": false,
      "inputs": [],
      "name": "FullChainSyncRequired",
      "type": "event"
    },
    {
      "anonymous": false,
      "inputs": [
        {
          "indexed": false,
          "internalType": "uint8",
          "name": "version",
          "type": "uint8"
        }
      ],
      "name": "Initialized",
      "type": "event"
    },
    {
      "anonymous": false,
      "inputs": [
        {
          "indexed": true,
          "internalType": "address",
          "name": "interchainGasPaymaster",
          "type": "address"
        }
      ],
      "name": "InterchainGasPaymasterSet",
      "type": "event"
    },
    {
      "anonymous": false,
      "inputs": [
        {
          "indexed": false,
          "internalType": "address",
          "name": "user",
          "type": "address"
        }
      ],
      "name": "LockUntilUpdateFromParentChain",
      "type": "event"
    },
    {
      "anonymous": false,
      "inputs": [
        {
          "indexed": true,
          "internalType": "address",
          "name": "previousOwner",
          "type": "address"
        },
        {
          "indexed": true,
          "internalType": "address",
          "name": "newOwner",
          "type": "address"
        }
      ],
      "name": "OwnershipTransferred",
      "type": "event"
    },
    {
      "anonymous": false,
      "inputs": [
        {
          "indexed": true,
          "internalType": "uint32",
          "name": "domain",
          "type": "uint32"
        },
        {
          "indexed": true,
          "internalType": "bytes32",
          "name": "router",
          "type": "bytes32"
        }
      ],
      "name": "RemoteRouterEnrolled",
      "type": "event"
    },
    {
      "anonymous": false,
      "inputs": [],
      "name": "Staked",
      "type": "event"
    },
    {
      "anonymous": false,
      "inputs": [
        {
          "components": [
            {
              "internalType": "address",
              "name": "userAddress",
              "type": "address"
            },
            {
              "internalType": "bool",
              "name": "available",
              "type": "bool"
            },
            {
              "internalType": "uint256",
              "name": "totalAmountBorrowed",
              "type": "uint256"
            },
            {
              "internalType": "uint256",
              "name": "totalAmountStaked",
              "type": "uint256"
            },
            {
              "internalType": "uint256",
              "name": "ltv",
              "type": "uint256"
            },
            {
              "internalType": "bool",
              "name": "lock",
              "type": "bool"
            }
          ],
          "indexed": false,
          "internalType": "struct HeadenFinanceChild.User",
          "name": "user",
          "type": "tuple"
        }
      ],
      "name": "UpdateParentChain",
      "type": "event"
    },
    {
      "anonymous": false,
      "inputs": [],
      "name": "Withdrawn",
      "type": "event"
    },
    {
      "inputs": [],
      "name": "SECONDS_PER_YEAR",
      "outputs": [
        {
          "internalType": "uint256",
          "name": "",
          "type": "uint256"
        }
      ],
      "stateMutability": "view",
      "type": "function"
    },
    {
      "inputs": [],
      "name": "abacusConnectionManager",
      "outputs": [
        {
          "internalType": "contract IAbacusConnectionManager",
          "name": "",
          "type": "address"
        }
      ],
      "stateMutability": "view",
      "type": "function"
    },
    {
      "inputs": [
        {
          "internalType": "uint128",
          "name": "_id",
          "type": "uint128"
        }
      ],
      "name": "borrowInterestRates",
      "outputs": [
        {
          "internalType": "uint256",
          "name": "",
          "type": "uint256"
        }
      ],
      "stateMutability": "view",
      "type": "function"
    },
    {
      "inputs": [],
      "name": "borrowKink",
      "outputs": [
        {
          "internalType": "uint256",
          "name": "",
          "type": "uint256"
        }
      ],
      "stateMutability": "view",
      "type": "function"
    },
    {
      "inputs": [],
      "name": "borrowPerSecondInterestRateBase",
      "outputs": [
        {
          "internalType": "uint256",
          "name": "",
          "type": "uint256"
        }
      ],
      "stateMutability": "view",
      "type": "function"
    },
    {
      "inputs": [],
      "name": "borrowPerSecondInterestRateSlopeHigh",
      "outputs": [
        {
          "internalType": "uint256",
          "name": "",
          "type": "uint256"
        }
      ],
      "stateMutability": "view",
      "type": "function"
    },
    {
      "inputs": [],
      "name": "borrowPerSecondInterestRateSlopeLow",
      "outputs": [
        {
          "internalType": "uint256",
          "name": "",
          "type": "uint256"
        }
      ],
      "stateMutability": "view",
      "type": "function"
    },
    {
      "inputs": [
        {
          "internalType": "address",
          "name": "_tokenAddress",
          "type": "address"
        },
        {
          "internalType": "uint256",
          "name": "_amountToBorrow",
          "type": "uint256"
        }
      ],
      "name": "borrowToken",
      "outputs": [],
      "stateMutability": "nonpayable",
      "type": "function"
    },
    {
      "inputs": [
        {
          "internalType": "address",
          "name": "_tokenAddress",
          "type": "address"
        },
        {
          "internalType": "uint256",
          "name": "_amountToBorrow",
          "type": "uint256"
        },
        {
          "internalType": "address",
          "name": "_collateralAddress",
          "type": "address"
        },
        {
          "internalType": "uint256",
          "name": "_collateralAmount",
          "type": "uint256"
        }
      ],
      "name": "borrowTokenWithCollateral",
      "outputs": [],
      "stateMutability": "nonpayable",
      "type": "function"
    },
    {
      "inputs": [],
      "name": "chainId",
      "outputs": [
        {
          "internalType": "uint256",
          "name": "",
          "type": "uint256"
        }
      ],
      "stateMutability": "view",
      "type": "function"
    },
    {
      "inputs": [
        {
          "internalType": "bytes",
          "name": "",
          "type": "bytes"
        }
      ],
      "name": "checkUpkeep",
      "outputs": [
        {
          "internalType": "bool",
          "name": "upkeepNeeded",
          "type": "bool"
        },
        {
          "internalType": "bytes",
          "name": "",
          "type": "bytes"
        }
      ],
      "stateMutability": "view",
      "type": "function"
    },
    {
      "inputs": [
        {
          "internalType": "address",
          "name": "_token",
          "type": "address"
        }
      ],
      "name": "createMarket",
      "outputs": [],
      "stateMutability": "nonpayable",
      "type": "function"
    },
    {
      "inputs": [
        {
          "internalType": "address",
          "name": "_token",
          "type": "address"
        },
        {
          "internalType": "uint256",
          "name": "amount",
          "type": "uint256"
        }
      ],
      "name": "createMarketPool",
      "outputs": [],
      "stateMutability": "nonpayable",
      "type": "function"
    },
    {
      "inputs": [],
      "name": "dai",
      "outputs": [
        {
          "internalType": "address",
          "name": "",
          "type": "address"
        }
      ],
      "stateMutability": "view",
      "type": "function"
    },
    {
      "inputs": [
        {
          "internalType": "uint32",
          "name": "_domain",
          "type": "uint32"
        },
        {
          "internalType": "bytes32",
          "name": "_router",
          "type": "bytes32"
        }
      ],
      "name": "enrollRemoteRouter",
      "outputs": [],
      "stateMutability": "nonpayable",
      "type": "function"
    },
    {
      "inputs": [],
      "name": "getRiskLevel",
      "outputs": [
        {
          "internalType": "uint256",
          "name": "",
          "type": "uint256"
        }
      ],
      "stateMutability": "view",
      "type": "function"
    },
    {
      "inputs": [
        {
          "internalType": "uint32",
          "name": "_origin",
          "type": "uint32"
        },
        {
          "internalType": "bytes32",
          "name": "_sender",
          "type": "bytes32"
        },
        {
          "internalType": "bytes",
          "name": "_message",
          "type": "bytes"
        }
      ],
      "name": "handle",
      "outputs": [],
      "stateMutability": "nonpayable",
      "type": "function"
    },
    {
      "inputs": [],
      "name": "interchainGasPaymaster",
      "outputs": [
        {
          "internalType": "contract IInterchainGasPaymaster",
          "name": "",
          "type": "address"
        }
      ],
      "stateMutability": "view",
      "type": "function"
    },
    {
      "inputs": [],
      "name": "interval",
      "outputs": [
        {
          "internalType": "uint256",
          "name": "",
          "type": "uint256"
        }
      ],
      "stateMutability": "view",
      "type": "function"
    },
    {
      "inputs": [],
      "name": "lastAPRUpdate",
      "outputs": [
        {
          "internalType": "uint256",
          "name": "",
          "type": "uint256"
        }
      ],
      "stateMutability": "view",
      "type": "function"
    },
    {
      "inputs": [],
      "name": "lastTimeStamp",
      "outputs": [
        {
          "internalType": "uint256",
          "name": "",
          "type": "uint256"
        }
      ],
      "stateMutability": "view",
      "type": "function"
    },
    {
      "inputs": [
        {
          "internalType": "address",
          "name": "user",
          "type": "address"
        }
      ],
      "name": "lockThisUserUntilParentUpdate",
      "outputs": [],
      "stateMutability": "nonpayable",
      "type": "function"
    },
    {
      "inputs": [
        {
          "internalType": "address",
          "name": "",
          "type": "address"
        }
      ],
      "name": "marketTokens",
      "outputs": [
        {
          "internalType": "bool",
          "name": "available",
          "type": "bool"
        },
        {
          "internalType": "uint128",
          "name": "_id",
          "type": "uint128"
        }
      ],
      "stateMutability": "view",
      "type": "function"
    },
    {
      "inputs": [
        {
          "internalType": "uint128",
          "name": "",
          "type": "uint128"
        }
      ],
      "name": "markets",
      "outputs": [
        {
          "internalType": "address",
          "name": "tokenAddress",
          "type": "address"
        },
        {
          "internalType": "bool",
          "name": "available",
          "type": "bool"
        },
        {
          "internalType": "uint256",
          "name": "amountStaked",
          "type": "uint256"
        },
        {
          "internalType": "uint256",
          "name": "amountBorrowed",
          "type": "uint256"
        },
        {
          "internalType": "uint256",
          "name": "timeLastBorrowed",
          "type": "uint256"
        },
        {
          "internalType": "uint256",
          "name": "timeLastStaked",
          "type": "uint256"
        },
        {
          "internalType": "uint256",
          "name": "borrowRate",
          "type": "uint256"
        },
        {
          "internalType": "uint256",
          "name": "supplyRate",
          "type": "uint256"
        }
      ],
      "stateMutability": "view",
      "type": "function"
    },
    {
      "inputs": [],
      "name": "matic",
      "outputs": [
        {
          "internalType": "address",
          "name": "",
          "type": "address"
        }
      ],
      "stateMutability": "view",
      "type": "function"
    },
    {
      "inputs": [],
      "name": "maxLTV",
      "outputs": [
        {
          "internalType": "uint256",
          "name": "",
          "type": "uint256"
        }
      ],
      "stateMutability": "view",
      "type": "function"
    },
    {
      "inputs": [],
      "name": "multichainRouter",
      "outputs": [
        {
          "internalType": "address",
          "name": "",
          "type": "address"
        }
      ],
      "stateMutability": "view",
      "type": "function"
    },
    {
      "inputs": [],
      "name": "owner",
      "outputs": [
        {
          "internalType": "address",
          "name": "",
          "type": "address"
        }
      ],
      "stateMutability": "view",
      "type": "function"
    },
    {
      "inputs": [
        {
          "internalType": "uint256",
          "name": "amount",
          "type": "uint256"
        }
      ],
      "name": "per_amount",
      "outputs": [
        {
          "internalType": "uint256",
          "name": "",
          "type": "uint256"
        }
      ],
      "stateMutability": "pure",
      "type": "function"
    },
    {
      "inputs": [
        {
          "internalType": "bytes",
          "name": "",
          "type": "bytes"
        }
      ],
      "name": "performUpkeep",
      "outputs": [],
      "stateMutability": "nonpayable",
      "type": "function"
    },
    {
      "inputs": [
        {
          "components": [
            {
              "internalType": "address",
              "name": "user",
              "type": "address"
            },
            {
              "internalType": "uint256",
              "name": "totalStakes",
              "type": "uint256"
            },
            {
              "internalType": "uint256",
              "name": "totalBorrows",
              "type": "uint256"
            }
          ],
          "internalType": "struct HeadenFinanceChild.FullUpdateData[]",
          "name": "usersData",
          "type": "tuple[]"
        }
      ],
      "name": "receiveFullUpdateFromParentChain",
      "outputs": [],
      "stateMutability": "nonpayable",
      "type": "function"
    },
    {
      "inputs": [
        {
          "internalType": "address",
          "name": "user",
          "type": "address"
        },
        {
          "internalType": "uint256",
          "name": "totalStakes",
          "type": "uint256"
        },
        {
          "internalType": "uint256",
          "name": "totalBorrows",
          "type": "uint256"
        }
      ],
      "name": "receiveUpdateFromParentChain",
      "outputs": [],
      "stateMutability": "nonpayable",
      "type": "function"
    },
    {
      "inputs": [
        {
          "internalType": "address",
          "name": "",
          "type": "address"
        }
      ],
      "name": "relayers",
      "outputs": [
        {
          "internalType": "bool",
          "name": "",
          "type": "bool"
        }
      ],
      "stateMutability": "view",
      "type": "function"
    },
    {
      "inputs": [],
      "name": "renounceOwnership",
      "outputs": [],
      "stateMutability": "nonpayable",
      "type": "function"
    },
    {
      "inputs": [
        {
          "internalType": "address",
          "name": "_tokenAddress",
          "type": "address"
        },
        {
          "internalType": "uint256",
          "name": "_amount",
          "type": "uint256"
        }
      ],
      "name": "repayLoan",
      "outputs": [],
      "stateMutability": "nonpayable",
      "type": "function"
    },
    {
      "inputs": [
        {
          "internalType": "uint32",
          "name": "",
          "type": "uint32"
        }
      ],
      "name": "routers",
      "outputs": [
        {
          "internalType": "bytes32",
          "name": "",
          "type": "bytes32"
        }
      ],
      "stateMutability": "view",
      "type": "function"
    },
    {
      "inputs": [
        {
          "internalType": "address",
          "name": "_abacusConnectionManager",
          "type": "address"
        }
      ],
      "name": "setAbacusConnectionManager",
      "outputs": [],
      "stateMutability": "nonpayable",
      "type": "function"
    },
    {
      "inputs": [
        {
          "internalType": "address",
          "name": "_interchainGasPaymaster",
          "type": "address"
        }
      ],
      "name": "setInterchainGasPaymaster",
      "outputs": [],
      "stateMutability": "nonpayable",
      "type": "function"
    },
    {
      "inputs": [
        {
          "internalType": "address",
          "name": "_tokenAddress",
          "type": "address"
        },
        {
          "internalType": "uint256",
          "name": "_amountToStake",
          "type": "uint256"
        }
      ],
      "name": "stakeToken",
      "outputs": [],
      "stateMutability": "nonpayable",
      "type": "function"
    },
    {
      "inputs": [
        {
          "internalType": "uint128",
          "name": "_id",
          "type": "uint128"
        }
      ],
      "name": "supplyInterestRates",
      "outputs": [
        {
          "internalType": "uint256",
          "name": "",
          "type": "uint256"
        }
      ],
      "stateMutability": "view",
      "type": "function"
    },
    {
      "inputs": [],
      "name": "supplyKink",
      "outputs": [
        {
          "internalType": "uint256",
          "name": "",
          "type": "uint256"
        }
      ],
      "stateMutability": "view",
      "type": "function"
    },
    {
      "inputs": [],
      "name": "supplyPerSecondInterestRateBase",
      "outputs": [
        {
          "internalType": "uint256",
          "name": "",
          "type": "uint256"
        }
      ],
      "stateMutability": "view",
      "type": "function"
    },
    {
      "inputs": [],
      "name": "supplyPerSecondInterestRateSlopeHigh",
      "outputs": [
        {
          "internalType": "uint256",
          "name": "",
          "type": "uint256"
        }
      ],
      "stateMutability": "view",
      "type": "function"
    },
    {
      "inputs": [],
      "name": "supplyPerSecondInterestRateSlopeLow",
      "outputs": [
        {
          "internalType": "uint256",
          "name": "",
          "type": "uint256"
        }
      ],
      "stateMutability": "view",
      "type": "function"
    },
    {
      "inputs": [],
      "name": "tax",
      "outputs": [
        {
          "internalType": "uint256",
          "name": "",
          "type": "uint256"
        }
      ],
      "stateMutability": "view",
      "type": "function"
    },
    {
      "inputs": [
        {
          "internalType": "address",
          "name": "newOwner",
          "type": "address"
        }
      ],
      "name": "transferOwnership",
      "outputs": [],
      "stateMutability": "nonpayable",
      "type": "function"
    },
    {
      "inputs": [
        {
          "components": [
            {
              "internalType": "uint64",
              "name": "supplyKink",
              "type": "uint64"
            },
            {
              "internalType": "uint64",
              "name": "supplyPerYearInterestRateSlopeLow",
              "type": "uint64"
            },
            {
              "internalType": "uint64",
              "name": "supplyPerYearInterestRateSlopeHigh",
              "type": "uint64"
            },
            {
              "internalType": "uint64",
              "name": "supplyPerYearInterestRateBase",
              "type": "uint64"
            },
            {
              "internalType": "uint64",
              "name": "borrowKink",
              "type": "uint64"
            },
            {
              "internalType": "uint64",
              "name": "borrowPerYearInterestRateSlopeLow",
              "type": "uint64"
            },
            {
              "internalType": "uint64",
              "name": "borrowPerYearInterestRateSlopeHigh",
              "type": "uint64"
            },
            {
              "internalType": "uint64",
              "name": "borrowPerYearInterestRateBase",
              "type": "uint64"
            }
          ],
          "internalType": "struct HeadenUtils.Configuration",
          "name": "config",
          "type": "tuple"
        },
        {
          "internalType": "address",
          "name": "_relayer",
          "type": "address"
        }
      ],
      "name": "updateSettings",
      "outputs": [],
      "stateMutability": "nonpayable",
      "type": "function"
    },
    {
      "inputs": [],
      "name": "usdc",
      "outputs": [
        {
          "internalType": "address",
          "name": "",
          "type": "address"
        }
      ],
      "stateMutability": "view",
      "type": "function"
    },
    {
      "inputs": [
        {
          "internalType": "address",
          "name": "",
          "type": "address"
        }
      ],
      "name": "users",
      "outputs": [
        {
          "internalType": "address",
          "name": "userAddress",
          "type": "address"
        },
        {
          "internalType": "bool",
          "name": "available",
          "type": "bool"
        },
        {
          "internalType": "uint256",
          "name": "totalAmountBorrowed",
          "type": "uint256"
        },
        {
          "internalType": "uint256",
          "name": "totalAmountStaked",
          "type": "uint256"
        },
        {
          "internalType": "uint256",
          "name": "ltv",
          "type": "uint256"
        },
        {
          "internalType": "bool",
          "name": "lock",
          "type": "bool"
        }
      ],
      "stateMutability": "view",
      "type": "function"
    },
    {
      "inputs": [
        {
          "internalType": "bytes32",
          "name": "",
          "type": "bytes32"
        }
      ],
      "name": "usersborrows",
      "outputs": [
        {
          "internalType": "address",
          "name": "userAddress",
          "type": "address"
        },
        {
          "internalType": "address",
          "name": "tokenAddress",
          "type": "address"
        },
        {
          "internalType": "bool",
          "name": "available",
          "type": "bool"
        },
        {
          "internalType": "uint256",
          "name": "amountBorrowed",
          "type": "uint256"
        }
      ],
      "stateMutability": "view",
      "type": "function"
    },
    {
      "inputs": [
        {
          "internalType": "bytes32",
          "name": "",
          "type": "bytes32"
        }
      ],
      "name": "userstakes",
      "outputs": [
        {
          "internalType": "address",
          "name": "userAddress",
          "type": "address"
        },
        {
          "internalType": "address",
          "name": "tokenAddress",
          "type": "address"
        },
        {
          "internalType": "bool",
          "name": "available",
          "type": "bool"
        },
        {
          "internalType": "uint256",
          "name": "amountStaked",
          "type": "uint256"
        }
      ],
      "stateMutability": "view",
      "type": "function"
    },
    {
      "inputs": [],
      "name": "validateUsers",
      "outputs": [],
      "stateMutability": "nonpayable",
      "type": "function"
    },
    {
      "inputs": [
        {
          "internalType": "address",
          "name": "_tokenAddress",
          "type": "address"
        },
        {
          "internalType": "uint256",
          "name": "_amountToWithdraw",
          "type": "uint256"
        },
        {
          "internalType": "uint256",
          "name": "_chainId",
          "type": "uint256"
        },
        {
          "internalType": "address",
          "name": "_to",
          "type": "address"
        }
      ],
      "name": "withdrawToken",
      "outputs": [],
      "stateMutability": "nonpayable",
      "type": "function"
    }
  ],
  "bytecode": "0x60a060405273103a2d37ea6b3b4da2f5bb44e001001729e743546000806101000a81548173ffffffffffffffffffffffffffffffffffffffff021916908373ffffffffffffffffffffffffffffffffffffffff16021790555061015e600455670de0b6b3a76400006009556301e13380600a55611b58600d5542600e55600060e660006101000a8154816fffffffffffffffffffffffffffffffff02191690836fffffffffffffffffffffffffffffffff160217905550348015620000c357600080fd5b506040516200a7683803806200a7688339818101604052810190620000e991906200099d565b8a8a8a8a8a8a8a88886001808190555087600560006101000a81548173ffffffffffffffffffffffffffffffffffffffff021916908373ffffffffffffffffffffffffffffffffffffffff1602179055508660039080519060200190620001529291906200068a565b5085600260006101000a81548173ffffffffffffffffffffffffffffffffffffffff021916908373ffffffffffffffffffffffffffffffffffffffff16021790555083600760006101000a81548173ffffffffffffffffffffffffffffffffffffffff021916908373ffffffffffffffffffffffffffffffffffffffff16021790555084600660006101000a81548173ffffffffffffffffffffffffffffffffffffffff021916908373ffffffffffffffffffffffffffffffffffffffff16021790555082600860006101000a81548173ffffffffffffffffffffffffffffffffffffffff021916908373ffffffffffffffffffffffffffffffffffffffff160217905550886080818152505042600b8190555081600c81905550806000015167ffffffffffffffff16600f81905550600a54816020015167ffffffffffffffff1681620002c9577f4e487b7100000000000000000000000000000000000000000000000000000000600052601260045260246000fd5b04601081905550600a54816040015167ffffffffffffffff168162000317577f4e487b7100000000000000000000000000000000000000000000000000000000600052601260045260246000fd5b04601181905550600a54816060015167ffffffffffffffff168162000365577f4e487b7100000000000000000000000000000000000000000000000000000000600052601260045260246000fd5b04601281905550806080015167ffffffffffffffff16601381905550600a548160a0015167ffffffffffffffff1681620003c8577f4e487b7100000000000000000000000000000000000000000000000000000000600052601260045260246000fd5b04601481905550600a548160c0015167ffffffffffffffff168162000416577f4e487b7100000000000000000000000000000000000000000000000000000000600052601260045260246000fd5b04601581905550600a548160e0015167ffffffffffffffff168162000464577f4e487b7100000000000000000000000000000000000000000000000000000000600052601260045260246000fd5b04601681905550505050505050505050600160e560003373ffffffffffffffffffffffffffffffffffffffff1673ffffffffffffffffffffffffffffffffffffffff16815260200190815260200160002060006101000a81548160ff021916908315150217905550620004e184600001516200057c60201b60201c565b620004f684602001516200060360201b60201c565b826040015160e860006101000a81548163ffffffff021916908363ffffffff160217905550826000015160e860046101000a81548173ffffffffffffffffffffffffffffffffffffffff021916908373ffffffffffffffffffffffffffffffffffffffff160217905550826020015160e981905550505050505050505050505062000cf7565b80607c60006101000a81548173ffffffffffffffffffffffffffffffffffffffff021916908373ffffffffffffffffffffffffffffffffffffffff1602179055508073ffffffffffffffffffffffffffffffffffffffff167f7c10de8878ed89478ff01b9cd8c11a5271ea8ac91d46f662e6aea7e3adf5b11f60405160405180910390a250565b80607d60006101000a81548173ffffffffffffffffffffffffffffffffffffffff021916908373ffffffffffffffffffffffffffffffffffffffff1602179055508073ffffffffffffffffffffffffffffffffffffffff167fb87f5a0bface22cde699143559fb99f990ae54eea236995fc54178af91af859f60405160405180910390a250565b828054620006989062000bb4565b90600052602060002090601f016020900481019282620006bc576000855562000708565b82601f10620006d757805160ff191683800117855562000708565b8280016001018555821562000708579182015b8281111562000707578251825591602001919060010190620006ea565b5b5090506200071791906200071b565b5090565b5b80821115620007365760008160009055506001016200071c565b5090565b6000620007516200074b8462000ae6565b62000abd565b9050828152602081018484840111156200076a57600080fd5b6200077784828562000b7e565b509392505050565b600081519050620007908162000c8f565b92915050565b600082601f830112620007a857600080fd5b8151620007ba8482602086016200073a565b91505092915050565b600060408284031215620007d657600080fd5b620007e2604062000abd565b90506000620007f4848285016200077f565b60008301525060206200080a848285016200077f565b60208301525092915050565b600061010082840312156200082a57600080fd5b6200083761010062000abd565b90506000620008498482850162000986565b60008301525060206200085f8482850162000986565b6020830152506040620008758482850162000986565b60408301525060606200088b8482850162000986565b6060830152506080620008a18482850162000986565b60808301525060a0620008b78482850162000986565b60a08301525060c0620008cd8482850162000986565b60c08301525060e0620008e38482850162000986565b60e08301525092915050565b6000606082840312156200090257600080fd5b6200090e606062000abd565b9050600062000920848285016200077f565b6000830152506020620009368482850162000958565b60208301525060406200094c848285016200096f565b60408301525092915050565b600081519050620009698162000ca9565b92915050565b600081519050620009808162000cc3565b92915050565b600081519050620009978162000cdd565b92915050565b60008060008060008060008060008060006102a08c8e031215620009c057600080fd5b6000620009d08e828f0162000958565b9b50506020620009e38e828f016200077f565b9a505060408c015167ffffffffffffffff81111562000a0157600080fd5b62000a0f8e828f0162000796565b995050606062000a228e828f016200077f565b985050608062000a358e828f016200077f565b97505060a062000a488e828f016200077f565b96505060c062000a5b8e828f016200077f565b95505060e062000a6e8e828f01620007c3565b94505061012062000a828e828f01620008ef565b93505061018062000a968e828f0162000958565b9250506101a062000aaa8e828f0162000816565b9150509295989b509295989b9093969950565b600062000ac962000adc565b905062000ad7828262000bea565b919050565b6000604051905090565b600067ffffffffffffffff82111562000b045762000b0362000c4f565b5b62000b0f8262000c7e565b9050602081019050919050565b600062000b298262000b30565b9050919050565b600073ffffffffffffffffffffffffffffffffffffffff82169050919050565b6000819050919050565b600063ffffffff82169050919050565b600067ffffffffffffffff82169050919050565b60005b8381101562000b9e57808201518184015260208101905062000b81565b8381111562000bae576000848401525b50505050565b6000600282049050600182168062000bcd57607f821691505b6020821081141562000be45762000be362000c20565b5b50919050565b62000bf58262000c7e565b810181811067ffffffffffffffff8211171562000c175762000c1662000c4f565b5b80604052505050565b7f4e487b7100000000000000000000000000000000000000000000000000000000600052602260045260246000fd5b7f4e487b7100000000000000000000000000000000000000000000000000000000600052604160045260246000fd5b6000601f19601f8301169050919050565b62000c9a8162000b1c565b811462000ca657600080fd5b50565b62000cb48162000b50565b811462000cc057600080fd5b50565b62000cce8162000b5a565b811462000cda57600080fd5b50565b62000ce88162000b6a565b811462000cf457600080fd5b50565b608051619a4762000d216000396000818161140301528181612da901526136f80152619a476000f3fe608060405234801561001057600080fd5b50600436106103275760003560e01c80637c108333116101b8578063b49c53a711610104578063f0c4e886116100a2578063f384bd051161007c578063f384bd0514610990578063f4b9fa75146109ae578063f5a96d3f146109cc578063f739ed9e146109d657610327565b8063f0c4e8861461093c578063f1bd6f0a14610958578063f2fde38b1461097457610327565b8063c6f4c578116100de578063c6f4c578146108c6578063e0b53307146108e4578063e122056c14610902578063e6a69ab81461091e57610327565b8063b49c53a71461085c578063b6b0b09714610878578063c44814a61461089657610327565b806394920cca116101715780639a8a05921161014b5780639a8a0592146107bb578063a2953f37146107d9578063a5b4ff7914610809578063a87430ba1461082757610327565b806394920cca1461076157806399c8d5561461077f5780639a35c3591461079d57610327565b80637c108333146106b1578063804de71f146106cd5780638da5cb5b146106eb5780639241a5611461070957806393a595f514610727578063947a36fb1461074357610327565b80634585e33b116102775780635a91b39c1161023057806365c650761161020a57806365c650761461063c5780636e04ff0d14610658578063715018a6146106895780637914acc71461069357610327565b80635a91b39c146105d15780635a94b8d1146105ed5780635db11f791461060b57610327565b80634585e33b146104ea5780634b98e0e51461050657806350f74b551461053657806352fcaa79146105525780635300f8411461058557806356d5d475146105b557610327565b8063396ce213116102e45780633cd83bda116102be5780633cd83bda146104595780633d3e49fc146104775780633e413bee146104ae5780633f3b3b27146104cc57610327565b8063396ce213146103ec57806339bb4ad91461041f5780633ca1355f1461043d57610327565b806305e617d51461032c57806312b1d780146103485780631f3929e3146103645780632a48cf12146103805780632d05670b1461039e5780632ead72f6146103bc575b600080fd5b61034660048036038101906103419190617a17565b6109f2565b005b610362600480360381019061035d9190617900565b610ae3565b005b61037e60048036038101906103799190617978565b610af7565b005b610388610f3b565b6040516103959190618aed565b60405180910390f35b6103a6610f41565b6040516103b39190618aed565b60405180910390f35b6103d660048036038101906103d19190617cf1565b610f47565b6040516103e39190618761565b60405180910390f35b61040660048036038101906104019190617b78565b610f5f565b604051610416949392919061847f565b60405180910390f35b610427610fdc565b6040516104349190618797565b60405180910390f35b61045760048036038101906104529190617c38565b611002565b005b6104616112ce565b60405161046e9190618aed565b60405180910390f35b610491600480360381019061048c9190617c76565b6112d4565b6040516104a59897969594939291906185a1565b60405180910390f35b6104b6611349565b6040516104c39190618464565b60405180910390f35b6104d461136f565b6040516104e19190618aed565b60405180910390f35b61050460048036038101906104ff9190617ba1565b611375565b005b610520600480360381019061051b9190617c76565b61147e565b60405161052d9190618aed565b60405180910390f35b610550600480360381019061054b9190617ac9565b611582565b005b61056c60048036038101906105679190617b78565b611768565b60405161057c949392919061847f565b60405180910390f35b61059f600480360381019061059a9190617900565b6117e5565b6040516105ac91906186ed565b60405180910390f35b6105cf60048036038101906105ca9190617d56565b611805565b005b6105eb60048036038101906105e69190617978565b6118aa565b005b6105f56120ff565b6040516106029190618aed565b60405180910390f35b61062560048036038101906106209190617900565b612105565b604051610633929190618738565b60405180910390f35b610656600480360381019061065191906179b4565b612152565b005b610672600480360381019061066d9190617ba1565b612da3565b604051610680929190618708565b60405180910390f35b610691612de0565b005b61069b612df4565b6040516106a89190618aed565b60405180910390f35b6106cb60048036038101906106c69190617900565b612dfa565b005b6106d56131b8565b6040516106e29190618aed565b60405180910390f35b6106f36131be565b6040516107009190618464565b60405180910390f35b6107116131e8565b60405161071e9190618aed565b60405180910390f35b610741600480360381019061073c9190617978565b6131ee565b005b61074b6136f6565b6040516107589190618aed565b60405180910390f35b61076961371a565b6040516107769190618aed565b60405180910390f35b610787613720565b6040516107949190618aed565b60405180910390f35b6107a5613726565b6040516107b2919061877c565b60405180910390f35b6107c361374c565b6040516107d09190618aed565b60405180910390f35b6107f360048036038101906107ee9190617c76565b613752565b6040516108009190618aed565b60405180910390f35b610811613856565b60405161081e9190618aed565b60405180910390f35b610841600480360381019061083c9190617900565b61385c565b60405161085396959493929190618540565b60405180910390f35b61087660048036038101906108719190617d1a565b6138d2565b005b6108806138e8565b60405161088d9190618464565b60405180910390f35b6108b060048036038101906108ab9190617c9f565b61390e565b6040516108bd9190618aed565b60405180910390f35b6108ce613925565b6040516108db9190618464565b60405180910390f35b6108ec61394b565b6040516108f99190618aed565b60405180910390f35b61091c60048036038101906109179190617900565b613a24565b005b610926613b45565b6040516109339190618aed565b60405180910390f35b61095660048036038101906109519190617a66565b613b4b565b005b610972600480360381019061096d9190617900565b614367565b005b61098e60048036038101906109899190617900565b61437b565b005b6109986143ff565b6040516109a59190618aed565b60405180910390f35b6109b6614405565b6040516109c39190618464565b60405180910390f35b6109d461442b565b005b6109f060048036038101906109eb9190617978565b61474c565b005b60e560003373ffffffffffffffffffffffffffffffffffffffff1673ffffffffffffffffffffffffffffffffffffffff16815260200190815260200160002060009054906101000a900460ff16610a7e576040517f08c379a0000000000000000000000000000000000000000000000000000000008152600401610a75906187b2565b60405180910390fd5b60026001541415610ac4576040517f08c379a0000000000000000000000000000000000000000000000000000000008152600401610abb90618a32565b60405180910390fd5b6002600181905550610ad7838383614ab9565b60018081905550505050565b610aeb614dfe565b610af481614e7c565b50565b600160e660008282829054906101000a90046fffffffffffffffffffffffffffffffff16610b259190618c7e565b92506101000a8154816fffffffffffffffffffffffffffffffff02191690836fffffffffffffffffffffffffffffffff16021790555060e460008373ffffffffffffffffffffffffffffffffffffffff1673ffffffffffffffffffffffffffffffffffffffff16815260200190815260200160002060000160009054906101000a900460ff1615610beb576040517f08c379a0000000000000000000000000000000000000000000000000000000008152600401610be290618a72565b60405180910390fd5b6040518061010001604052808373ffffffffffffffffffffffffffffffffffffffff1681526020016001151581526020018281526020016000815260200142815260200142815260200160008152602001600081525060e3600060e660009054906101000a90046fffffffffffffffffffffffffffffffff166fffffffffffffffffffffffffffffffff166fffffffffffffffffffffffffffffffff16815260200190815260200160002060008201518160000160006101000a81548173ffffffffffffffffffffffffffffffffffffffff021916908373ffffffffffffffffffffffffffffffffffffffff16021790555060208201518160000160146101000a81548160ff02191690831515021790555060408201518160010155606082015181600201556080820151816003015560a0820151816004015560c0820151816005015560e08201518160060155905050604051806040016040528060011515815260200160e660009054906101000a90046fffffffffffffffffffffffffffffffff166fffffffffffffffffffffffffffffffff1681525060e460008473ffffffffffffffffffffffffffffffffffffffff1673ffffffffffffffffffffffffffffffffffffffff16815260200190815260200160002060008201518160000160006101000a81548160ff02191690831515021790555060208201518160000160016101000a8154816fffffffffffffffffffffffffffffffff02191690836fffffffffffffffffffffffffffffffff1602179055509050506000610e318383614f03565b905060008054906101000a900473ffffffffffffffffffffffffffffffffffffffff1673ffffffffffffffffffffffffffffffffffffffff1663313ce5676040518163ffffffff1660e01b815260040160206040518083038186803b158015610e9957600080fd5b505afa158015610ead573d6000803e3d6000fd5b505050506040513d601f19601f82011682018060405250810190610ed19190617de6565b600a610edd9190618d9e565b610dac610eea9190618ebc565b811015610f2c576040517f08c379a0000000000000000000000000000000000000000000000000000000008152600401610f2390618872565b60405180910390fd5b610f368383615250565b505050565b60155481565b60145481565b60ae6020528060005260406000206000915090505481565b60e16020528060005260406000206000915090508060000160009054906101000a900473ffffffffffffffffffffffffffffffffffffffff16908060010160009054906101000a900473ffffffffffffffffffffffffffffffffffffffff16908060010160149054906101000a900460ff16908060020154905084565b607d60009054906101000a900473ffffffffffffffffffffffffffffffffffffffff1681565b61100a614dfe565b600160e560008373ffffffffffffffffffffffffffffffffffffffff1673ffffffffffffffffffffffffffffffffffffffff16815260200190815260200160002060006101000a81548160ff0219169083151502179055508160000160208101906110759190617dbd565b67ffffffffffffffff16600f81905550600a5482602001602081019061109b9190617dbd565b67ffffffffffffffff16816110d9577f4e487b7100000000000000000000000000000000000000000000000000000000600052601260045260246000fd5b04601081905550600a548260400160208101906110f69190617dbd565b67ffffffffffffffff1681611134577f4e487b7100000000000000000000000000000000000000000000000000000000600052601260045260246000fd5b04601181905550600a548260600160208101906111519190617dbd565b67ffffffffffffffff168161118f577f4e487b7100000000000000000000000000000000000000000000000000000000600052601260045260246000fd5b046012819055508160800160208101906111a99190617dbd565b67ffffffffffffffff16601381905550600a548260a00160208101906111cf9190617dbd565b67ffffffffffffffff168161120d577f4e487b7100000000000000000000000000000000000000000000000000000000600052601260045260246000fd5b04601481905550600a548260c001602081019061122a9190617dbd565b67ffffffffffffffff1681611268577f4e487b7100000000000000000000000000000000000000000000000000000000600052601260045260246000fd5b04601581905550600a548260e00160208101906112859190617dbd565b67ffffffffffffffff16816112c3577f4e487b7100000000000000000000000000000000000000000000000000000000600052601260045260246000fd5b046016819055505050565b600e5481565b60e36020528060005260406000206000915090508060000160009054906101000a900473ffffffffffffffffffffffffffffffffffffffff16908060000160149054906101000a900460ff16908060010154908060020154908060030154908060040154908060050154908060060154905088565b600660009054906101000a900473ffffffffffffffffffffffffffffffffffffffff1681565b600b5481565b60e560003373ffffffffffffffffffffffffffffffffffffffff1673ffffffffffffffffffffffffffffffffffffffff16815260200190815260200160002060009054906101000a900460ff16611401576040517f08c379a00000000000000000000000000000000000000000000000000000000081526004016113f8906187b2565b60405180910390fd5b7f0000000000000000000000000000000000000000000000000000000000000000600b54426114309190618f51565b111561147a5742600b819055507f4c046938d8adaf12f829530d5ab0441e591705682189298941fd0d767cc22eab60405160405180910390a161147161442b565b61147961577d565b5b5050565b60008060e36000846fffffffffffffffffffffffffffffffff166fffffffffffffffffffffffffffffffff168152602001908152602001600020600101546114ff60e36000866fffffffffffffffffffffffffffffffff166fffffffffffffffffffffffffffffffff1681526020019081526020016000206002015461390e565b6115099190618d1a565b9050601354811161153757806014546115229190618ebc565b60165461152f9190618cc4565b91505061157d565b601354816115459190618f51565b6015546115529190618ebc565b6013546014546115629190618ebc565b60165461156f9190618cc4565b6115799190618cc4565b9150505b919050565b60e560003373ffffffffffffffffffffffffffffffffffffffff1673ffffffffffffffffffffffffffffffffffffffff16815260200190815260200160002060009054906101000a900460ff1661160e576040517f08c379a0000000000000000000000000000000000000000000000000000000008152600401611605906187b2565b60405180910390fd5b60026001541415611654576040517f08c379a000000000000000000000000000000000000000000000000000000000815260040161164b90618a32565b60405180910390fd5b600260018190555060005b8282905081101561175c576117498383838181106116a6577f4e487b7100000000000000000000000000000000000000000000000000000000600052603260045260246000fd5b90506060020160000160208101906116be9190617900565b8484848181106116f7577f4e487b7100000000000000000000000000000000000000000000000000000000600052603260045260246000fd5b9050606002016020013585858581811061173a577f4e487b7100000000000000000000000000000000000000000000000000000000600052603260045260246000fd5b905060600201604001356109f2565b808061175490619229565b91505061165f565b50600180819055505050565b60e26020528060005260406000206000915090508060000160009054906101000a900473ffffffffffffffffffffffffffffffffffffffff16908060010160009054906101000a900473ffffffffffffffffffffffffffffffffffffffff16908060010160149054906101000a900460ff16908060020154905084565b60e56020528060005260406000206000915054906101000a900460ff1681565b61180e336157e8565b61184d576040517f08c379a000000000000000000000000000000000000000000000000000000000815260040161184490618972565b60405180910390fd5b8282611859828261589c565b611898576040517f08c379a000000000000000000000000000000000000000000000000000000000815260040161188f90618992565b60405180910390fd5b6118a38585856158c8565b5050505050565b60e060003373ffffffffffffffffffffffffffffffffffffffff1673ffffffffffffffffffffffffffffffffffffffff16815260200190815260200160002060000160149054906101000a900460ff16611939576040517f08c379a0000000000000000000000000000000000000000000000000000000008152600401611930906189f2565b60405180910390fd5b60e060003373ffffffffffffffffffffffffffffffffffffffff1673ffffffffffffffffffffffffffffffffffffffff16815260200190815260200160002060040160009054906101000a900460ff16156119c9576040517f08c379a00000000000000000000000000000000000000000000000000000000081526004016119c0906189d2565b60405180910390fd5b60026001541415611a0f576040517f08c379a0000000000000000000000000000000000000000000000000000000008152600401611a0690618a32565b60405180910390fd5b600260018190555060e460008373ffffffffffffffffffffffffffffffffffffffff1673ffffffffffffffffffffffffffffffffffffffff16815260200190815260200160002060000160009054906101000a900460ff16611aa6576040517f08c379a0000000000000000000000000000000000000000000000000000000008152600401611a9d90618a92565b60405180910390fd5b600033836003604051602001611abe9392919061842b565b604051602081830303815290604052805190602001209050600061271083600454611ae99190618ebc565b611af39190618d1a565b90506000611b018585614f03565b905060058111611b46576040517f08c379a0000000000000000000000000000000000000000000000000000000008152600401611b3d906187f2565b60405180910390fd5b611b4f33615986565b600d5460e060003373ffffffffffffffffffffffffffffffffffffffff1673ffffffffffffffffffffffffffffffffffffffff168152602001908152602001600020600201546127108360e060003373ffffffffffffffffffffffffffffffffffffffff1673ffffffffffffffffffffffffffffffffffffffff16815260200190815260200160002060010154611be69190618cc4565b611bf09190618ebc565b611bfa9190618d1a565b10611c3a576040517f08c379a0000000000000000000000000000000000000000000000000000000008152600401611c31906188f2565b60405180910390fd5b60e1600084815260200190815260200160002060010160149054906101000a900460ff1615611c95578360e160008581526020019081526020016000206002016000828254611c899190618cc4565b92505081905550611db4565b60405180608001604052803373ffffffffffffffffffffffffffffffffffffffff1681526020018673ffffffffffffffffffffffffffffffffffffffff1681526020016001151581526020018581525060e1600085815260200190815260200160002060008201518160000160006101000a81548173ffffffffffffffffffffffffffffffffffffffff021916908373ffffffffffffffffffffffffffffffffffffffff16021790555060208201518160010160006101000a81548173ffffffffffffffffffffffffffffffffffffffff021916908373ffffffffffffffffffffffffffffffffffffffff16021790555060408201518160010160146101000a81548160ff021916908315150217905550606082015181600201559050505b8060e060003373ffffffffffffffffffffffffffffffffffffffff1673ffffffffffffffffffffffffffffffffffffffff1681526020019081526020016000206001016000828254611e069190618cc4565b92505081905550838573ffffffffffffffffffffffffffffffffffffffff166370a08231306040518263ffffffff1660e01b8152600401611e479190618464565b60206040518083038186803b158015611e5f57600080fd5b505afa158015611e73573d6000803e3d6000fd5b505050506040513d601f19601f82011682018060405250810190611e979190617cc8565b1015611ef957611eb385600286611eae9190618ebc565b615d8c565b6000611ef4576040517f08c379a0000000000000000000000000000000000000000000000000000000008152600401611eeb90618952565b60405180910390fd5b611fd1565b8473ffffffffffffffffffffffffffffffffffffffff1663a9059cbb338487611f229190618f51565b6040518363ffffffff1660e01b8152600401611f3f92919061861f565b602060405180830381600087803b158015611f5957600080fd5b505af1158015611f6d573d6000803e3d6000fd5b505050506040513d601f19601f82011682018060405250810190611f919190617b4f565b611fd0576040517f08c379a0000000000000000000000000000000000000000000000000000000008152600401611fc790618912565b60405180910390fd5b5b61203c8460018060e460008a73ffffffffffffffffffffffffffffffffffffffff1673ffffffffffffffffffffffffffffffffffffffff16815260200190815260200160002060000160019054906101000a90046fffffffffffffffffffffffffffffffff16615dd4565b7f6b08916d029d07a60616d74a789588507159d3fbfda90bde20ec8c42d9e199d03360405161206b9190618464565b60405180910390a17fdd7324310e26e2387473ef905671e820fd2aacd13e9d3e398e3c2cd5a16d813860e060003373ffffffffffffffffffffffffffffffffffffffff1673ffffffffffffffffffffffffffffffffffffffff1681526020019081526020016000206040516120e09190618ad2565b60405180910390a16120f133615fc9565b505050600180819055505050565b60105481565b60e46020528060005260406000206000915090508060000160009054906101000a900460ff16908060000160019054906101000a90046fffffffffffffffffffffffffffffffff16905082565b60e060003373ffffffffffffffffffffffffffffffffffffffff1673ffffffffffffffffffffffffffffffffffffffff16815260200190815260200160002060000160149054906101000a900460ff166121e1576040517f08c379a00000000000000000000000000000000000000000000000000000000081526004016121d8906189f2565b60405180910390fd5b60e060003373ffffffffffffffffffffffffffffffffffffffff1673ffffffffffffffffffffffffffffffffffffffff16815260200190815260200160002060040160009054906101000a900460ff1615612271576040517f08c379a0000000000000000000000000000000000000000000000000000000008152600401612268906189d2565b60405180910390fd5b600260015414156122b7576040517f08c379a00000000000000000000000000000000000000000000000000000000081526004016122ae90618a32565b60405180910390fd5b600260018190555060e460008573ffffffffffffffffffffffffffffffffffffffff1673ffffffffffffffffffffffffffffffffffffffff16815260200190815260200160002060000160009054906101000a900460ff1661234e576040517f08c379a000000000000000000000000000000000000000000000000000000000815260040161234590618a92565b60405180910390fd5b60e460008373ffffffffffffffffffffffffffffffffffffffff1673ffffffffffffffffffffffffffffffffffffffff16815260200190815260200160002060000160009054906101000a900460ff166123dd576040517f08c379a00000000000000000000000000000000000000000000000000000000081526004016123d490618ab2565b60405180910390fd5b6000338560036040516020016123f59392919061842b565b6040516020818303038152906040528051906020012090506000612710856004546124209190618ebc565b61242a9190618d1a565b905060006124388787614f03565b905060006124468686614f03565b90506005821161248b576040517f08c379a000000000000000000000000000000000000000000000000000000000815260040161248290618a52565b60405180910390fd5b600581116124ce576040517f08c379a00000000000000000000000000000000000000000000000000000000081526004016124c5906187d2565b60405180910390fd5b6124d733615986565b600d548160e060003373ffffffffffffffffffffffffffffffffffffffff1673ffffffffffffffffffffffffffffffffffffffff168152602001908152602001600020600201546125289190618cc4565b6127108460e060003373ffffffffffffffffffffffffffffffffffffffff1673ffffffffffffffffffffffffffffffffffffffff168152602001908152602001600020600101546125799190618cc4565b6125839190618ebc565b61258d9190618d1a565b106125cd576040517f08c379a00000000000000000000000000000000000000000000000000000000081526004016125c4906188f2565b60405180910390fd5b60e1600085815260200190815260200160002060010160149054906101000a900460ff1615612628578660e16000868152602001908152602001600020600201600082825461261c9190618cc4565b92505081905550612747565b60405180608001604052803373ffffffffffffffffffffffffffffffffffffffff1681526020018973ffffffffffffffffffffffffffffffffffffffff1681526020016001151581526020018881525060e1600086815260200190815260200160002060008201518160000160006101000a81548173ffffffffffffffffffffffffffffffffffffffff021916908373ffffffffffffffffffffffffffffffffffffffff16021790555060208201518160010160006101000a81548173ffffffffffffffffffffffffffffffffffffffff021916908373ffffffffffffffffffffffffffffffffffffffff16021790555060408201518160010160146101000a81548160ff021916908315150217905550606082015181600201559050505b60e2600085815260200190815260200160002060010160149054906101000a900460ff16156127a2578460e2600086815260200190815260200160002060020160008282546127969190618cc4565b925050819055506128c1565b60405180608001604052803373ffffffffffffffffffffffffffffffffffffffff1681526020018973ffffffffffffffffffffffffffffffffffffffff1681526020016001151581526020018681525060e2600086815260200190815260200160002060008201518160000160006101000a81548173ffffffffffffffffffffffffffffffffffffffff021916908373ffffffffffffffffffffffffffffffffffffffff16021790555060208201518160010160006101000a81548173ffffffffffffffffffffffffffffffffffffffff021916908373ffffffffffffffffffffffffffffffffffffffff16021790555060408201518160010160146101000a81548160ff021916908315150217905550606082015181600201559050505b8160e060003373ffffffffffffffffffffffffffffffffffffffff1673ffffffffffffffffffffffffffffffffffffffff16815260200190815260200160002060010160008282546129139190618cc4565b925050819055508060e060003373ffffffffffffffffffffffffffffffffffffffff1673ffffffffffffffffffffffffffffffffffffffff168152602001908152602001600020600201600082825461296c9190618cc4565b92505081905550868873ffffffffffffffffffffffffffffffffffffffff166370a08231306040518263ffffffff1660e01b81526004016129ad9190618464565b60206040518083038186803b1580156129c557600080fd5b505afa1580156129d9573d6000803e3d6000fd5b505050506040513d601f19601f820116820180604052508101906129fd9190617cc8565b1015612a5f57612a1988600289612a149190618ebc565b615d8c565b6000612a5a576040517f08c379a0000000000000000000000000000000000000000000000000000000008152600401612a5190618952565b60405180910390fd5b612c05565b8573ffffffffffffffffffffffffffffffffffffffff166323b872dd3330886040518463ffffffff1660e01b8152600401612a9c939291906184c4565b602060405180830381600087803b158015612ab657600080fd5b505af1158015612aca573d6000803e3d6000fd5b505050506040513d601f19601f82011682018060405250810190612aee9190617b4f565b612b2d576040517f08c379a0000000000000000000000000000000000000000000000000000000008152600401612b2490618912565b60405180910390fd5b8773ffffffffffffffffffffffffffffffffffffffff1663a9059cbb33858a612b569190618f51565b6040518363ffffffff1660e01b8152600401612b7392919061861f565b602060405180830381600087803b158015612b8d57600080fd5b505af1158015612ba1573d6000803e3d6000fd5b505050506040513d601f19601f82011682018060405250810190612bc59190617b4f565b612c04576040517f08c379a0000000000000000000000000000000000000000000000000000000008152600401612bfb90618912565b60405180910390fd5b5b612c71876001600060e460008d73ffffffffffffffffffffffffffffffffffffffff1673ffffffffffffffffffffffffffffffffffffffff16815260200190815260200160002060000160019054906101000a90046fffffffffffffffffffffffffffffffff16615dd4565b612cdd856000600160e460008b73ffffffffffffffffffffffffffffffffffffffff1673ffffffffffffffffffffffffffffffffffffffff16815260200190815260200160002060000160019054906101000a90046fffffffffffffffffffffffffffffffff16615dd4565b7f6b08916d029d07a60616d74a789588507159d3fbfda90bde20ec8c42d9e199d033604051612d0c9190618464565b60405180910390a17fdd7324310e26e2387473ef905671e820fd2aacd13e9d3e398e3c2cd5a16d813860e060003373ffffffffffffffffffffffffffffffffffffffff1673ffffffffffffffffffffffffffffffffffffffff168152602001908152602001600020604051612d819190618ad2565b60405180910390a1612d9233615fc9565b505050506001808190555050505050565b600060607f0000000000000000000000000000000000000000000000000000000000000000600b5442612dd69190618f51565b1191509250929050565b612de8614dfe565b612df26000616093565b565b60165481565b60e560003373ffffffffffffffffffffffffffffffffffffffff1673ffffffffffffffffffffffffffffffffffffffff16815260200190815260200160002060009054906101000a900460ff16612e86576040517f08c379a0000000000000000000000000000000000000000000000000000000008152600401612e7d906187b2565b60405180910390fd5b60e460008273ffffffffffffffffffffffffffffffffffffffff1673ffffffffffffffffffffffffffffffffffffffff16815260200190815260200160002060000160009054906101000a900460ff1615612f16576040517f08c379a0000000000000000000000000000000000000000000000000000000008152600401612f0d90618a72565b60405180910390fd5b600160e660008282829054906101000a90046fffffffffffffffffffffffffffffffff16612f449190618c7e565b92506101000a8154816fffffffffffffffffffffffffffffffff02191690836fffffffffffffffffffffffffffffffff1602179055506040518061010001604052808273ffffffffffffffffffffffffffffffffffffffff168152602001600115158152602001600081526020016000815260200142815260200142815260200160008152602001600081525060e3600060e660009054906101000a90046fffffffffffffffffffffffffffffffff166fffffffffffffffffffffffffffffffff166fffffffffffffffffffffffffffffffff16815260200190815260200160002060008201518160000160006101000a81548173ffffffffffffffffffffffffffffffffffffffff021916908373ffffffffffffffffffffffffffffffffffffffff16021790555060208201518160000160146101000a81548160ff02191690831515021790555060408201518160010155606082015181600201556080820151816003015560a0820151816004015560c0820151816005015560e08201518160060155905050604051806040016040528060011515815260200160e660009054906101000a90046fffffffffffffffffffffffffffffffff166fffffffffffffffffffffffffffffffff1681525060e460008373ffffffffffffffffffffffffffffffffffffffff1673ffffffffffffffffffffffffffffffffffffffff16815260200190815260200160002060008201518160000160006101000a81548160ff02191690831515021790555060208201518160000160016101000a8154816fffffffffffffffffffffffffffffffff02191690836fffffffffffffffffffffffffffffffff16021790555090505050565b60115481565b6000604a60009054906101000a900473ffffffffffffffffffffffffffffffffffffffff16905090565b60135481565b60e060003373ffffffffffffffffffffffffffffffffffffffff1673ffffffffffffffffffffffffffffffffffffffff16815260200190815260200160002060000160149054906101000a900460ff1661327d576040517f08c379a0000000000000000000000000000000000000000000000000000000008152600401613274906189f2565b60405180910390fd5b60e060003373ffffffffffffffffffffffffffffffffffffffff1673ffffffffffffffffffffffffffffffffffffffff16815260200190815260200160002060040160009054906101000a900460ff161561330d576040517f08c379a0000000000000000000000000000000000000000000000000000000008152600401613304906189d2565b60405180910390fd5b60026001541415613353576040517f08c379a000000000000000000000000000000000000000000000000000000000815260040161334a90618a32565b60405180910390fd5b600260018190555060e460008373ffffffffffffffffffffffffffffffffffffffff1673ffffffffffffffffffffffffffffffffffffffff16815260200190815260200160002060000160009054906101000a900460ff166133ea576040517f08c379a00000000000000000000000000000000000000000000000000000000081526004016133e190618a92565b60405180910390fd5b6000338360036040516020016134029392919061842b565b60405160208183030381529060405280519060200120905060006134268484614f03565b90506005811161346b576040517f08c379a000000000000000000000000000000000000000000000000000000000815260040161346290618832565b60405180910390fd5b61347433615986565b8260e16000848152602001908152602001600020600201600082825461349a9190618f51565b925050819055508060e060003373ffffffffffffffffffffffffffffffffffffffff1673ffffffffffffffffffffffffffffffffffffffff16815260200190815260200160002060010160008282546134f39190618f51565b92505081905550613566836001600060e460008973ffffffffffffffffffffffffffffffffffffffff1673ffffffffffffffffffffffffffffffffffffffff16815260200190815260200160002060000160019054906101000a90046fffffffffffffffffffffffffffffffff16615dd4565b8373ffffffffffffffffffffffffffffffffffffffff166323b872dd3330866040518463ffffffff1660e01b81526004016135a3939291906184c4565b602060405180830381600087803b1580156135bd57600080fd5b505af11580156135d1573d6000803e3d6000fd5b505050506040513d601f19601f820116820180604052508101906135f59190617b4f565b613634576040517f08c379a000000000000000000000000000000000000000000000000000000000815260040161362b90618912565b60405180910390fd5b7f6b08916d029d07a60616d74a789588507159d3fbfda90bde20ec8c42d9e199d0336040516136639190618464565b60405180910390a17fdd7324310e26e2387473ef905671e820fd2aacd13e9d3e398e3c2cd5a16d813860e060003373ffffffffffffffffffffffffffffffffffffffff1673ffffffffffffffffffffffffffffffffffffffff1681526020019081526020016000206040516136d89190618ad2565b60405180910390a16136e933615fc9565b5050600180819055505050565b7f000000000000000000000000000000000000000000000000000000000000000081565b60125481565b60045481565b607c60009054906101000a900473ffffffffffffffffffffffffffffffffffffffff1681565b600c5481565b60008060e36000846fffffffffffffffffffffffffffffffff166fffffffffffffffffffffffffffffffff168152602001908152602001600020600101546137d360e36000866fffffffffffffffffffffffffffffffff166fffffffffffffffffffffffffffffffff1681526020019081526020016000206002015461390e565b6137dd9190618d1a565b9050600f54811161380b57806010546137f69190618ebc565b6012546138039190618cc4565b915050613851565b600f54816138199190618f51565b6011546138269190618ebc565b600f546010546138369190618ebc565b6012546138439190618cc4565b61384d9190618cc4565b9150505b919050565b600f5481565b60e06020528060005260406000206000915090508060000160009054906101000a900473ffffffffffffffffffffffffffffffffffffffff16908060000160149054906101000a900460ff16908060010154908060020154908060030154908060040160009054906101000a900460ff16905086565b6138da614dfe565b6138e48282616159565b5050565b600860009054906101000a900473ffffffffffffffffffffffffffffffffffffffff1681565b60006127108261391e9190618ebc565b9050919050565b600560009054906101000a900473ffffffffffffffffffffffffffffffffffffffff1681565b600060e060003373ffffffffffffffffffffffffffffffffffffffff1673ffffffffffffffffffffffffffffffffffffffff16815260200190815260200160002060000160149054906101000a900460ff166139dc576040517f08c379a00000000000000000000000000000000000000000000000000000000081526004016139d390618892565b60405180910390fd5b60e060003373ffffffffffffffffffffffffffffffffffffffff1673ffffffffffffffffffffffffffffffffffffffff16815260200190815260200160002060030154905090565b60e560003373ffffffffffffffffffffffffffffffffffffffff1673ffffffffffffffffffffffffffffffffffffffff16815260200190815260200160002060009054906101000a900460ff16613ab0576040517f08c379a0000000000000000000000000000000000000000000000000000000008152600401613aa7906187b2565b60405180910390fd5b600160e060008373ffffffffffffffffffffffffffffffffffffffff1673ffffffffffffffffffffffffffffffffffffffff16815260200190815260200160002060040160006101000a81548160ff0219169083151502179055507f0de0801d2bf2b41440c4e647f8fe85feef86cbb220c0e339715f888dc2b89c6181604051613b3a9190618464565b60405180910390a150565b600a5481565b60e060003373ffffffffffffffffffffffffffffffffffffffff1673ffffffffffffffffffffffffffffffffffffffff16815260200190815260200160002060000160149054906101000a900460ff16613bda576040517f08c379a0000000000000000000000000000000000000000000000000000000008152600401613bd1906189f2565b60405180910390fd5b60e060003373ffffffffffffffffffffffffffffffffffffffff1673ffffffffffffffffffffffffffffffffffffffff16815260200190815260200160002060040160009054906101000a900460ff1615613c6a576040517f08c379a0000000000000000000000000000000000000000000000000000000008152600401613c61906189d2565b60405180910390fd5b60026001541415613cb0576040517f08c379a0000000000000000000000000000000000000000000000000000000008152600401613ca790618a32565b60405180910390fd5b600260018190555060e460008573ffffffffffffffffffffffffffffffffffffffff1673ffffffffffffffffffffffffffffffffffffffff16815260200190815260200160002060000160009054906101000a900460ff16613d47576040517f08c379a0000000000000000000000000000000000000000000000000000000008152600401613d3e90618a92565b60405180910390fd5b600033856003604051602001613d5f9392919061842b565b604051602081830303815290604052805190602001209050600061271085600454613d8a9190618ebc565b613d949190618d1a565b90506000613dad878388613da89190618f51565b614f03565b9050600a8111613df2576040517f08c379a0000000000000000000000000000000000000000000000000000000008152600401613de990618a52565b60405180910390fd5b8560e260008581526020019081526020016000206002015411613e4a576040517f08c379a0000000000000000000000000000000000000000000000000000000008152600401613e41906189b2565b60405180910390fd5b613e5333615986565b600d548160e060003373ffffffffffffffffffffffffffffffffffffffff1673ffffffffffffffffffffffffffffffffffffffff16815260200190815260200160002060020154613ea49190618f51565b61271060e060003373ffffffffffffffffffffffffffffffffffffffff1673ffffffffffffffffffffffffffffffffffffffff16815260200190815260200160002060010154613ef49190618ebc565b613efe9190618d1a565b10613f3e576040517f08c379a0000000000000000000000000000000000000000000000000000000008152600401613f35906188f2565b60405180910390fd5b8560e260008581526020019081526020016000206002016000828254613f649190618f51565b925050819055508060e060003373ffffffffffffffffffffffffffffffffffffffff1673ffffffffffffffffffffffffffffffffffffffff1681526020019081526020016000206002016000828254613fbd9190618f51565b92505081905550858773ffffffffffffffffffffffffffffffffffffffff166370a08231306040518263ffffffff1660e01b8152600401613ffe9190618464565b60206040518083038186803b15801561401657600080fd5b505afa15801561402a573d6000803e3d6000fd5b505050506040513d601f19601f8201168201806040525081019061404e9190617cc8565b10156140b05761406a876002886140659190618ebc565b615d8c565b60006140ab576040517f08c379a00000000000000000000000000000000000000000000000000000000081526004016140a290618952565b60405180910390fd5b614237565b84600c541461415c57600560009054906101000a900473ffffffffffffffffffffffffffffffffffffffff1673ffffffffffffffffffffffffffffffffffffffff1663241dc2df8886858a6141059190618f51565b896040518563ffffffff1660e01b815260040161412594939291906184fb565b600060405180830381600087803b15801561413f57600080fd5b505af1158015614153573d6000803e3d6000fd5b50505050614236565b8673ffffffffffffffffffffffffffffffffffffffff166323b872dd3086858a6141869190618f51565b6040518463ffffffff1660e01b81526004016141a4939291906184c4565b602060405180830381600087803b1580156141be57600080fd5b505af11580156141d2573d6000803e3d6000fd5b505050506040513d601f19601f820116820180604052508101906141f69190617b4f565b614235576040517f08c379a000000000000000000000000000000000000000000000000000000000815260040161422c90618912565b60405180910390fd5b5b5b6142a28660008060e460008c73ffffffffffffffffffffffffffffffffffffffff1673ffffffffffffffffffffffffffffffffffffffff16815260200190815260200160002060000160019054906101000a90046fffffffffffffffffffffffffffffffff16615dd4565b7f6b08916d029d07a60616d74a789588507159d3fbfda90bde20ec8c42d9e199d0336040516142d19190618464565b60405180910390a17fdd7324310e26e2387473ef905671e820fd2aacd13e9d3e398e3c2cd5a16d813860e060003373ffffffffffffffffffffffffffffffffffffffff1673ffffffffffffffffffffffffffffffffffffffff1681526020019081526020016000206040516143469190618ad2565b60405180910390a161435733615fc9565b5050506001808190555050505050565b61436f614dfe565b614378816161b5565b50565b614383614dfe565b600073ffffffffffffffffffffffffffffffffffffffff168173ffffffffffffffffffffffffffffffffffffffff1614156143f3576040517f08c379a00000000000000000000000000000000000000000000000000000000081526004016143ea90618812565b60405180910390fd5b6143fc81616093565b50565b600d5481565b600760009054906101000a900473ffffffffffffffffffffffffffffffffffffffff1681565b60e560003373ffffffffffffffffffffffffffffffffffffffff1673ffffffffffffffffffffffffffffffffffffffff16815260200190815260200160002060009054906101000a900460ff166144b7576040517f08c379a00000000000000000000000000000000000000000000000000000000081526004016144ae906187b2565b60405180910390fd5b60005b60e78054905081101561474957600060e78281548110614503577f4e487b7100000000000000000000000000000000000000000000000000000000600052603260045260246000fd5b9060005260206000200160009054906101000a900473ffffffffffffffffffffffffffffffffffffffff16905061453981615986565b60005b60e660009054906101000a90046fffffffffffffffffffffffffffffffff166fffffffffffffffffffffffffffffffff16816fffffffffffffffffffffffffffffffff16116146b6576145e98260e36000846fffffffffffffffffffffffffffffffff166fffffffffffffffffffffffffffffffff16815260200190815260200160002060000160009054906101000a900473ffffffffffffffffffffffffffffffffffffffff1661623c565b50600d5460e060008473ffffffffffffffffffffffffffffffffffffffff1673ffffffffffffffffffffffffffffffffffffffff16815260200190815260200160002060030154106146a3576146998260e36000846fffffffffffffffffffffffffffffffff166fffffffffffffffffffffffffffffffff16815260200190815260200160002060000160009054906101000a900473ffffffffffffffffffffffffffffffffffffffff166167a2565b6146a282615986565b5b80806146ae906191f0565b91505061453c565b507fdd7324310e26e2387473ef905671e820fd2aacd13e9d3e398e3c2cd5a16d813860e060008373ffffffffffffffffffffffffffffffffffffffff1673ffffffffffffffffffffffffffffffffffffffff1681526020019081526020016000206040516147249190618ad2565b60405180910390a161473581615fc9565b50808061474190619229565b9150506144ba565b50565b60e060003373ffffffffffffffffffffffffffffffffffffffff1673ffffffffffffffffffffffffffffffffffffffff16815260200190815260200160002060000160149054906101000a900460ff16614937576040518060c001604052803373ffffffffffffffffffffffffffffffffffffffff1681526020016001151581526020016000815260200160008152602001600081526020016000151581525060e060003373ffffffffffffffffffffffffffffffffffffffff1673ffffffffffffffffffffffffffffffffffffffff16815260200190815260200160002060008201518160000160006101000a81548173ffffffffffffffffffffffffffffffffffffffff021916908373ffffffffffffffffffffffffffffffffffffffff16021790555060208201518160000160146101000a81548160ff02191690831515021790555060408201518160010155606082015181600201556080820151816003015560a08201518160040160006101000a81548160ff02191690831515021790555090505060e7339080600181540180825580915050600190039060005260206000200160009091909190916101000a81548173ffffffffffffffffffffffffffffffffffffffff021916908373ffffffffffffffffffffffffffffffffffffffff1602179055505b60e060003373ffffffffffffffffffffffffffffffffffffffff1673ffffffffffffffffffffffffffffffffffffffff16815260200190815260200160002060000160149054906101000a900460ff166149c6576040517f08c379a00000000000000000000000000000000000000000000000000000000081526004016149bd906189f2565b60405180910390fd5b60e060003373ffffffffffffffffffffffffffffffffffffffff1673ffffffffffffffffffffffffffffffffffffffff16815260200190815260200160002060040160009054906101000a900460ff1615614a56576040517f08c379a0000000000000000000000000000000000000000000000000000000008152600401614a4d906189d2565b60405180910390fd5b60026001541415614a9c576040517f08c379a0000000000000000000000000000000000000000000000000000000008152600401614a9390618a32565b60405180910390fd5b6002600181905550614aae8282615250565b600180819055505050565b600080831115614ada5782614acd8361390e565b614ad79190618d1a565b90505b60e060008573ffffffffffffffffffffffffffffffffffffffff1673ffffffffffffffffffffffffffffffffffffffff16815260200190815260200160002060000160149054906101000a900460ff1615614c64578260e060008673ffffffffffffffffffffffffffffffffffffffff1673ffffffffffffffffffffffffffffffffffffffff168152602001908152602001600020600201819055508160e060008673ffffffffffffffffffffffffffffffffffffffff1673ffffffffffffffffffffffffffffffffffffffff168152602001908152602001600020600101819055508060e060008673ffffffffffffffffffffffffffffffffffffffff1673ffffffffffffffffffffffffffffffffffffffff16815260200190815260200160002060030181905550600060e060008673ffffffffffffffffffffffffffffffffffffffff1673ffffffffffffffffffffffffffffffffffffffff16815260200190815260200160002060040160006101000a81548160ff021916908315150217905550614df8565b60e7849080600181540180825580915050600190039060005260206000200160009091909190916101000a81548173ffffffffffffffffffffffffffffffffffffffff021916908373ffffffffffffffffffffffffffffffffffffffff1602179055506040518060c001604052808573ffffffffffffffffffffffffffffffffffffffff1681526020016001151581526020018381526020018481526020018281526020016000151581525060e060008673ffffffffffffffffffffffffffffffffffffffff1673ffffffffffffffffffffffffffffffffffffffff16815260200190815260200160002060008201518160000160006101000a81548173ffffffffffffffffffffffffffffffffffffffff021916908373ffffffffffffffffffffffffffffffffffffffff16021790555060208201518160000160146101000a81548160ff02191690831515021790555060408201518160010155606082015181600201556080820151816003015560a08201518160040160006101000a81548160ff0219169083151502179055509050505b50505050565b614e06616b07565b73ffffffffffffffffffffffffffffffffffffffff16614e246131be565b73ffffffffffffffffffffffffffffffffffffffff1614614e7a576040517f08c379a0000000000000000000000000000000000000000000000000000000008152600401614e71906188d2565b60405180910390fd5b565b80607c60006101000a81548173ffffffffffffffffffffffffffffffffffffffff021916908373ffffffffffffffffffffffffffffffffffffffff1602179055508073ffffffffffffffffffffffffffffffffffffffff167f7c10de8878ed89478ff01b9cd8c11a5271ea8ac91d46f662e6aea7e3adf5b11f60405160405180910390a250565b600080600660009054906101000a900473ffffffffffffffffffffffffffffffffffffffff1673ffffffffffffffffffffffffffffffffffffffff1663313ce5676040518163ffffffff1660e01b815260040160206040518083038186803b158015614f6e57600080fd5b505afa158015614f82573d6000803e3d6000fd5b505050506040513d601f19601f82011682018060405250810190614fa69190617de6565b6001614fb29190618f16565b60ff169050600660009054906101000a900473ffffffffffffffffffffffffffffffffffffffff1673ffffffffffffffffffffffffffffffffffffffff168473ffffffffffffffffffffffffffffffffffffffff161461505b5761501584616b0f565b90506000811161505a576040517f08c379a0000000000000000000000000000000000000000000000000000000008152600401615051906188b2565b60405180910390fd5b5b600660009054906101000a900473ffffffffffffffffffffffffffffffffffffffff1673ffffffffffffffffffffffffffffffffffffffff1663313ce5676040518163ffffffff1660e01b815260040160206040518083038186803b1580156150c357600080fd5b505afa1580156150d7573d6000803e3d6000fd5b505050506040513d601f19601f820116820180604052508101906150fb9190617de6565b60ff168473ffffffffffffffffffffffffffffffffffffffff1663313ce5676040518163ffffffff1660e01b815260040160206040518083038186803b15801561514457600080fd5b505afa158015615158573d6000803e3d6000fd5b505050506040513d601f19601f8201168201806040525081019061517c9190617de6565b60ff16848360008054906101000a900473ffffffffffffffffffffffffffffffffffffffff1673ffffffffffffffffffffffffffffffffffffffff166350d25bcd6040518163ffffffff1660e01b815260040160206040518083038186803b1580156151e757600080fd5b505afa1580156151fb573d6000803e3d6000fd5b505050506040513d601f19601f8201168201806040525081019061521f9190617c0f565b6152299190618ebc565b6152339190618ebc565b61523d9190618d1a565b6152479190618ebc565b91505092915050565b60e460008373ffffffffffffffffffffffffffffffffffffffff1673ffffffffffffffffffffffffffffffffffffffff16815260200190815260200160002060000160009054906101000a900460ff166152df576040517f08c379a00000000000000000000000000000000000000000000000000000000081526004016152d690618a92565b60405180910390fd5b6000338360036040516020016152f79392919061842b565b6040516020818303038152906040528051906020012090506000612710836004546153229190618ebc565b61532c9190618d1a565b905060006153458583866153409190618f51565b614f03565b90506005811161538a576040517f08c379a000000000000000000000000000000000000000000000000000000000815260040161538190618a12565b60405180910390fd5b61539333615986565b60e2600084815260200190815260200160002060010160149054906101000a900460ff16156153f95781846153c89190618f51565b60e2600085815260200190815260200160002060020160008282546153ed9190618cc4565b92505081905550615523565b60405180608001604052803373ffffffffffffffffffffffffffffffffffffffff1681526020018673ffffffffffffffffffffffffffffffffffffffff16815260200160011515815260200183866154519190618f51565b81525060e2600085815260200190815260200160002060008201518160000160006101000a81548173ffffffffffffffffffffffffffffffffffffffff021916908373ffffffffffffffffffffffffffffffffffffffff16021790555060208201518160010160006101000a81548173ffffffffffffffffffffffffffffffffffffffff021916908373ffffffffffffffffffffffffffffffffffffffff16021790555060408201518160010160146101000a81548160ff021916908315150217905550606082015181600201559050505b8060e060003373ffffffffffffffffffffffffffffffffffffffff1673ffffffffffffffffffffffffffffffffffffffff16815260200190815260200160002060020160008282546155759190618cc4565b925050819055506155f3828561558b9190618f51565b6000600160e460008a73ffffffffffffffffffffffffffffffffffffffff1673ffffffffffffffffffffffffffffffffffffffff16815260200190815260200160002060000160019054906101000a90046fffffffffffffffffffffffffffffffff16615dd4565b8473ffffffffffffffffffffffffffffffffffffffff166323b872dd3330876040518463ffffffff1660e01b8152600401615630939291906184c4565b602060405180830381600087803b15801561564a57600080fd5b505af115801561565e573d6000803e3d6000fd5b505050506040513d601f19601f820116820180604052508101906156829190617b4f565b6156c1576040517f08c379a00000000000000000000000000000000000000000000000000000000081526004016156b890618852565b60405180910390fd5b7f6b08916d029d07a60616d74a789588507159d3fbfda90bde20ec8c42d9e199d0336040516156f09190618464565b60405180910390a17fdd7324310e26e2387473ef905671e820fd2aacd13e9d3e398e3c2cd5a16d813860e060003373ffffffffffffffffffffffffffffffffffffffff1673ffffffffffffffffffffffffffffffffffffffff1681526020019081526020016000206040516157659190618ad2565b60405180910390a161577633615fc9565b5050505050565b60005b60e660009054906101000a90046fffffffffffffffffffffffffffffffff166fffffffffffffffffffffffffffffffff16816fffffffffffffffffffffffffffffffff16116157e5576157d281617154565b80806157dd906191f0565b915050615780565b50565b6000607c60009054906101000a900473ffffffffffffffffffffffffffffffffffffffff1673ffffffffffffffffffffffffffffffffffffffff1663282f51eb836040518263ffffffff1660e01b81526004016158459190618464565b60206040518083038186803b15801561585d57600080fd5b505afa158015615871573d6000803e3d6000fd5b505050506040513d601f19601f820116820180604052508101906158959190617b4f565b9050919050565b60008160ae60008563ffffffff1663ffffffff1681526020019081526020016000205414905092915050565b60e860009054906101000a900463ffffffff1663ffffffff168363ffffffff161415615981576000806000838060200190518101906159079190617929565b92509250925060e060008473ffffffffffffffffffffffffffffffffffffffff1673ffffffffffffffffffffffffffffffffffffffff16815260200190815260200160002060000160149054906101000a900460ff16156159725761596d838383614ab9565b61597d565b61597c8383617233565b5b5050505b505050565b60008060005b60e660009054906101000a90046fffffffffffffffffffffffffffffffff166fffffffffffffffffffffffffffffffff16816fffffffffffffffffffffffffffffffff1611615b815760008460e36000846fffffffffffffffffffffffffffffffff166fffffffffffffffffffffffffffffffff16815260200190815260200160002060000160009054906101000a900473ffffffffffffffffffffffffffffffffffffffff166003604051602001615a479392919061842b565b604051602081830303815290604052805190602001209050615ad960e36000846fffffffffffffffffffffffffffffffff166fffffffffffffffffffffffffffffffff16815260200190815260200160002060000160009054906101000a900473ffffffffffffffffffffffffffffffffffffffff1660e2600084815260200190815260200160002060020154614f03565b84615ae49190618cc4565b9350615b6060e36000846fffffffffffffffffffffffffffffffff166fffffffffffffffffffffffffffffffff16815260200190815260200160002060000160009054906101000a900473ffffffffffffffffffffffffffffffffffffffff1660e1600084815260200190815260200160002060020154614f03565b83615b6b9190618cc4565b9250508080615b79906191f0565b91505061598c565b508060e060008573ffffffffffffffffffffffffffffffffffffffff1673ffffffffffffffffffffffffffffffffffffffff168152602001908152602001600020600101819055508160e060008573ffffffffffffffffffffffffffffffffffffffff1673ffffffffffffffffffffffffffffffffffffffff16815260200190815260200160002060020181905550600060e060008573ffffffffffffffffffffffffffffffffffffffff1673ffffffffffffffffffffffffffffffffffffffff168152602001908152602001600020600201541115615d3e5760e060008473ffffffffffffffffffffffffffffffffffffffff1673ffffffffffffffffffffffffffffffffffffffff16815260200190815260200160002060020154615ce960e060008673ffffffffffffffffffffffffffffffffffffffff1673ffffffffffffffffffffffffffffffffffffffff1681526020019081526020016000206001015461390e565b615cf39190618d1a565b60e060008573ffffffffffffffffffffffffffffffffffffffff1673ffffffffffffffffffffffffffffffffffffffff16815260200190815260200160002060030181905550615d87565b600060e060008573ffffffffffffffffffffffffffffffffffffffff1673ffffffffffffffffffffffffffffffffffffffff168152602001908152602001600020600301819055505b505050565b615dd060e860009054906101000a900463ffffffff1683836000604051602001615db893929190618648565b604051602081830303815290604052629896806172ee565b5050565b8215615ecc578115615e36578360e36000836fffffffffffffffffffffffffffffffff166fffffffffffffffffffffffffffffffff1681526020019081526020016000206002016000828254615e2a9190618f51565b92505081905550615e88565b8360e36000836fffffffffffffffffffffffffffffffff166fffffffffffffffffffffffffffffffff1681526020019081526020016000206002016000828254615e809190618cc4565b925050819055505b4260e36000836fffffffffffffffffffffffffffffffff166fffffffffffffffffffffffffffffffff16815260200190815260200160002060030181905550615fba565b8115615f28578360e36000836fffffffffffffffffffffffffffffffff166fffffffffffffffffffffffffffffffff1681526020019081526020016000206001016000828254615f1c9190618cc4565b92505081905550615f7a565b8360e36000836fffffffffffffffffffffffffffffffff166fffffffffffffffffffffffffffffffff1681526020019081526020016000206001016000828254615f729190618f51565b925050819055505b4260e36000836fffffffffffffffffffffffffffffffff166fffffffffffffffffffffffffffffffff168152602001908152602001600020600401819055505b615fc381617154565b50505050565b61609060e860009054906101000a900463ffffffff168260e060008573ffffffffffffffffffffffffffffffffffffffff1673ffffffffffffffffffffffffffffffffffffffff1681526020019081526020016000206002015460e060008673ffffffffffffffffffffffffffffffffffffffff1673ffffffffffffffffffffffffffffffffffffffff168152602001908152602001600020600101546040516020016160789392919061867f565b604051602081830303815290604052629896806172ee565b50565b6000604a60009054906101000a900473ffffffffffffffffffffffffffffffffffffffff16905081604a60006101000a81548173ffffffffffffffffffffffffffffffffffffffff021916908373ffffffffffffffffffffffffffffffffffffffff1602179055508173ffffffffffffffffffffffffffffffffffffffff168173ffffffffffffffffffffffffffffffffffffffff167f8be0079c531659141344cd1fd0a4f28419497f9722a3daafe3b4186f6b6457e060405160405180910390a35050565b8060ae60008463ffffffff1663ffffffff16815260200190815260200160002081905550808263ffffffff167f97fd51fef1f80c854cbd0150c248e8b2ac4ecdc97cc05e742b5f61c9f4dc645860405160405180910390a35050565b80607d60006101000a81548173ffffffffffffffffffffffffffffffffffffffff021916908373ffffffffffffffffffffffffffffffffffffffff1602179055508073ffffffffffffffffffffffffffffffffffffffff167fb87f5a0bface22cde699143559fb99f990ae54eea236995fc54178af91af859f60405160405180910390a250565b60008062278d00905080600e54426162549190618f51565b101561626457600091505061679c565b60008484600360405160200161627c9392919061842b565b6040516020818303038152906040528051906020012090506000826162fe60e460008873ffffffffffffffffffffffffffffffffffffffff1673ffffffffffffffffffffffffffffffffffffffff16815260200190815260200160002060000160019054906101000a90046fffffffffffffffffffffffffffffffff1661147e565b6163089190618ebc565b905060008361637460e460008973ffffffffffffffffffffffffffffffffffffffff1673ffffffffffffffffffffffffffffffffffffffff16815260200190815260200160002060000160019054906101000a90046fffffffffffffffffffffffffffffffff16613752565b61637e9190618ebc565b9050600061271060e060008a73ffffffffffffffffffffffffffffffffffffffff1673ffffffffffffffffffffffffffffffffffffffff1681526020019081526020016000206002015460026004546163d79190618ebc565b6163e19190618ebc565b6163eb9190618d1a565b905061271060e2600086815260200190815260200160002060020154836164129190618ebc565b61641c9190618d1a565b60e2600086815260200190815260200160002060020160008282546164419190618cc4565b9250508190555061271060e16000868152602001908152602001600020600201548461646d9190618ebc565b6164779190618d1a565b60e16000868152602001908152602001600020600201600082825461649c9190618cc4565b925050819055508061271060e060008b73ffffffffffffffffffffffffffffffffffffffff1673ffffffffffffffffffffffffffffffffffffffff16815260200190815260200160002060020154846164f59190618ebc565b6164ff9190618d1a565b6165099190618f51565b60e060008a73ffffffffffffffffffffffffffffffffffffffff1673ffffffffffffffffffffffffffffffffffffffff168152602001908152602001600020600201600082825461655a9190618cc4565b9250508190555061271060e060008a73ffffffffffffffffffffffffffffffffffffffff1673ffffffffffffffffffffffffffffffffffffffff16815260200190815260200160002060010154846165b29190618ebc565b6165bc9190618d1a565b60e060008a73ffffffffffffffffffffffffffffffffffffffff1673ffffffffffffffffffffffffffffffffffffffff168152602001908152602001600020600101600082825461660d9190618cc4565b92505081905550600060e060008a73ffffffffffffffffffffffffffffffffffffffff1673ffffffffffffffffffffffffffffffffffffffff1681526020019081526020016000206002015411156167425760e060008973ffffffffffffffffffffffffffffffffffffffff1673ffffffffffffffffffffffffffffffffffffffff168152602001908152602001600020600201546166ed60e060008b73ffffffffffffffffffffffffffffffffffffffff1673ffffffffffffffffffffffffffffffffffffffff1681526020019081526020016000206001015461390e565b6166f79190618d1a565b60e060008a73ffffffffffffffffffffffffffffffffffffffff1673ffffffffffffffffffffffffffffffffffffffff1681526020019081526020016000206003018190555061678b565b600060e060008a73ffffffffffffffffffffffffffffffffffffffff1673ffffffffffffffffffffffffffffffffffffffff168152602001908152602001600020600301819055505b42600e819055506001955050505050505b92915050565b600d5460e060008473ffffffffffffffffffffffffffffffffffffffff1673ffffffffffffffffffffffffffffffffffffffff1681526020019081526020016000206003015410616828576040517f08c379a000000000000000000000000000000000000000000000000000000000815260040161681f90618932565b60405180910390fd5b61683182615986565b6000828260036040516020016168499392919061842b565b60405160208183030381529060405280519060200120905060006168838360e2600085815260200190815260200160002060020154614f03565b9050600061271082600560045461689a9190618ebc565b6168a49190618ebc565b6168ae9190618d1a565b9050600060e260008581526020019081526020016000206002018190555080826168d89190618f51565b60e060008773ffffffffffffffffffffffffffffffffffffffff1673ffffffffffffffffffffffffffffffffffffffff16815260200190815260200160002060020160008282546169299190618f51565b925050819055508160e060008773ffffffffffffffffffffffffffffffffffffffff1673ffffffffffffffffffffffffffffffffffffffff16815260200190815260200160002060010160008282546169829190618f51565b92505081905550600060e060008773ffffffffffffffffffffffffffffffffffffffff1673ffffffffffffffffffffffffffffffffffffffff168152602001908152602001600020600201541115616ab75760e060008673ffffffffffffffffffffffffffffffffffffffff1673ffffffffffffffffffffffffffffffffffffffff16815260200190815260200160002060020154616a6260e060008873ffffffffffffffffffffffffffffffffffffffff1673ffffffffffffffffffffffffffffffffffffffff1681526020019081526020016000206001015461390e565b616a6c9190618d1a565b60e060008773ffffffffffffffffffffffffffffffffffffffff1673ffffffffffffffffffffffffffffffffffffffff16815260200190815260200160002060030181905550616b00565b600060e060008773ffffffffffffffffffffffffffffffffffffffff1673ffffffffffffffffffffffffffffffffffffffff168152602001908152602001600020600301819055505b5050505050565b600033905090565b6000808273ffffffffffffffffffffffffffffffffffffffff1663313ce5676040518163ffffffff1660e01b815260040160206040518083038186803b158015616b5857600080fd5b505afa158015616b6c573d6000803e3d6000fd5b505050506040513d601f19601f82011682018060405250810190616b909190617de6565b60ff1690506000600267ffffffffffffffff811115616bd8577f4e487b7100000000000000000000000000000000000000000000000000000000600052604160045260246000fd5b604051908082528060200260200182016040528015616c065781602001602082028036833780820191505090505b5090508381600081518110616c44577f4e487b7100000000000000000000000000000000000000000000000000000000600052603260045260246000fd5b602002602001019073ffffffffffffffffffffffffffffffffffffffff16908173ffffffffffffffffffffffffffffffffffffffff1681525050600660009054906101000a900473ffffffffffffffffffffffffffffffffffffffff1681600181518110616cdb577f4e487b7100000000000000000000000000000000000000000000000000000000600052603260045260246000fd5b602002602001019073ffffffffffffffffffffffffffffffffffffffff16908173ffffffffffffffffffffffffffffffffffffffff16815250506000616d50836001616d279190618ebc565b600260009054906101000a900473ffffffffffffffffffffffffffffffffffffffff16846173ac565b90506000811115616d665780935050505061714f565b600367ffffffffffffffff811115616da7577f4e487b7100000000000000000000000000000000000000000000000000000000600052604160045260246000fd5b604051908082528060200260200182016040528015616dd55781602001602082028036833780820191505090505b5091508482600081518110616e13577f4e487b7100000000000000000000000000000000000000000000000000000000600052603260045260246000fd5b602002602001019073ffffffffffffffffffffffffffffffffffffffff16908173ffffffffffffffffffffffffffffffffffffffff1681525050600760009054906101000a900473ffffffffffffffffffffffffffffffffffffffff1682600181518110616eaa577f4e487b7100000000000000000000000000000000000000000000000000000000600052603260045260246000fd5b602002602001019073ffffffffffffffffffffffffffffffffffffffff16908173ffffffffffffffffffffffffffffffffffffffff1681525050600660009054906101000a900473ffffffffffffffffffffffffffffffffffffffff1682600281518110616f41577f4e487b7100000000000000000000000000000000000000000000000000000000600052603260045260246000fd5b602002602001019073ffffffffffffffffffffffffffffffffffffffff16908173ffffffffffffffffffffffffffffffffffffffff1681525050616fb4836001616f8b9190618ebc565b600260009054906101000a900473ffffffffffffffffffffffffffffffffffffffff16846173ac565b90506000811115616fca5780935050505061714f565b600860009054906101000a900473ffffffffffffffffffffffffffffffffffffffff1682600181518110617027577f4e487b7100000000000000000000000000000000000000000000000000000000600052603260045260246000fd5b602002602001019073ffffffffffffffffffffffffffffffffffffffff16908173ffffffffffffffffffffffffffffffffffffffff1681525050600660009054906101000a900473ffffffffffffffffffffffffffffffffffffffff16826002815181106170be577f4e487b7100000000000000000000000000000000000000000000000000000000600052603260045260246000fd5b602002602001019073ffffffffffffffffffffffffffffffffffffffff16908173ffffffffffffffffffffffffffffffffffffffff16815250506171318360016171089190618ebc565b600260009054906101000a900473ffffffffffffffffffffffffffffffffffffffff16846173ac565b905060008111156171475780935050505061714f565b600093505050505b919050565b60e36000826fffffffffffffffffffffffffffffffff166fffffffffffffffffffffffffffffffff16815260200190815260200160002060000160149054906101000a900460ff1615617230576171aa8161147e565b60e36000836fffffffffffffffffffffffffffffffff166fffffffffffffffffffffffffffffffff168152602001908152602001600020600501819055506171f181613752565b60e36000836fffffffffffffffffffffffffffffffff166fffffffffffffffffffffffffffffffff168152602001908152602001600020600601819055505b50565b600560009054906101000a900473ffffffffffffffffffffffffffffffffffffffff1673ffffffffffffffffffffffffffffffffffffffff1663241dc2df8360e860049054906101000a900473ffffffffffffffffffffffffffffffffffffffff168460e9546040518563ffffffff1660e01b81526004016172b894939291906184fb565b600060405180830381600087803b1580156172d257600080fd5b505af11580156172e6573d6000803e3d6000fd5b505050505050565b60006172f8617499565b90506000617307828686617540565b905060008311156173a557607d60009054906101000a900473ffffffffffffffffffffffffffffffffffffffff1673ffffffffffffffffffffffffffffffffffffffff1663a5703c8e848484896040518563ffffffff1660e01b8152600401617372939291906186b6565b6000604051808303818588803b15801561738b57600080fd5b505af115801561739f573d6000803e3d6000fd5b50505050505b5050505050565b6000808373ffffffffffffffffffffffffffffffffffffffff1663d06ca61f86856040518363ffffffff1660e01b81526004016173ea929190618b08565b60006040518083038186803b15801561740257600080fd5b505afa158015617416573d6000803e3d6000fd5b505050506040513d6000823e3d601f19601f8201168201806040525081019061743f9190617b0e565b905080600182516174509190618f51565b81518110617487577f4e487b7100000000000000000000000000000000000000000000000000000000600052603260045260246000fd5b60200260200101519150509392505050565b6000607c60009054906101000a900473ffffffffffffffffffffffffffffffffffffffff1673ffffffffffffffffffffffffffffffffffffffff1663ce11e6ab6040518163ffffffff1660e01b815260040160206040518083038186803b15801561750357600080fd5b505afa158015617517573d6000803e3d6000fd5b505050506040513d601f19601f8201168201806040525081019061753b9190617be6565b905090565b60008061754c846175e7565b90508473ffffffffffffffffffffffffffffffffffffffff1663fa31de018583866040518463ffffffff1660e01b815260040161758b93929190618b38565b602060405180830381600087803b1580156175a557600080fd5b505af11580156175b9573d6000803e3d6000fd5b505050506040513d601f19601f820116820180604052508101906175dd9190617cc8565b9150509392505050565b600060ae60008363ffffffff1663ffffffff1681526020019081526020016000205490506000801b811415617651576040517f08c379a000000000000000000000000000000000000000000000000000000000815260040161764890618992565b60405180910390fd5b919050565b600061766961766484618b9b565b618b76565b9050808382526020820190508285602086028201111561768857600080fd5b60005b858110156176b8578161769e88826178ac565b84526020840193506020830192505060018101905061768b565b5050509392505050565b60006176d56176d084618bc7565b618b76565b9050828152602081018484840111156176ed57600080fd5b6176f88482856190e3565b509392505050565b60008135905061770f81619914565b92915050565b6000815190506177248161992b565b92915050565b60008083601f84011261773c57600080fd5b8235905067ffffffffffffffff81111561775557600080fd5b60208301915083606082028301111561776d57600080fd5b9250929050565b600082601f83011261778557600080fd5b8151617795848260208601617656565b91505092915050565b6000815190506177ad81619942565b92915050565b6000813590506177c281619959565b92915050565b60008083601f8401126177da57600080fd5b8235905067ffffffffffffffff8111156177f357600080fd5b60208301915083600182028301111561780b57600080fd5b9250929050565b600082601f83011261782357600080fd5b81356178338482602086016176c2565b91505092915050565b60008151905061784b81619970565b92915050565b60008151905061786081619987565b92915050565b6000610100828403121561787957600080fd5b81905092915050565b6000813590506178918161999e565b92915050565b6000813590506178a6816199b5565b92915050565b6000815190506178bb816199b5565b92915050565b6000813590506178d0816199cc565b92915050565b6000813590506178e5816199e3565b92915050565b6000815190506178fa816199fa565b92915050565b60006020828403121561791257600080fd5b600061792084828501617700565b91505092915050565b60008060006060848603121561793e57600080fd5b600061794c86828701617715565b935050602061795d868287016178ac565b925050604061796e868287016178ac565b9150509250925092565b6000806040838503121561798b57600080fd5b600061799985828601617700565b92505060206179aa85828601617897565b9150509250929050565b600080600080608085870312156179ca57600080fd5b60006179d887828801617700565b94505060206179e987828801617897565b93505060406179fa87828801617700565b9250506060617a0b87828801617897565b91505092959194509250565b600080600060608486031215617a2c57600080fd5b6000617a3a86828701617700565b9350506020617a4b86828701617897565b9250506040617a5c86828701617897565b9150509250925092565b60008060008060808587031215617a7c57600080fd5b6000617a8a87828801617700565b9450506020617a9b87828801617897565b9350506040617aac87828801617897565b9250506060617abd87828801617700565b91505092959194509250565b60008060208385031215617adc57600080fd5b600083013567ffffffffffffffff811115617af657600080fd5b617b028582860161772a565b92509250509250929050565b600060208284031215617b2057600080fd5b600082015167ffffffffffffffff811115617b3a57600080fd5b617b4684828501617774565b91505092915050565b600060208284031215617b6157600080fd5b6000617b6f8482850161779e565b91505092915050565b600060208284031215617b8a57600080fd5b6000617b98848285016177b3565b91505092915050565b60008060208385031215617bb457600080fd5b600083013567ffffffffffffffff811115617bce57600080fd5b617bda858286016177c8565b92509250509250929050565b600060208284031215617bf857600080fd5b6000617c068482850161783c565b91505092915050565b600060208284031215617c2157600080fd5b6000617c2f84828501617851565b91505092915050565b6000806101208385031215617c4c57600080fd5b6000617c5a85828601617866565b925050610100617c6c85828601617700565b9150509250929050565b600060208284031215617c8857600080fd5b6000617c9684828501617882565b91505092915050565b600060208284031215617cb157600080fd5b6000617cbf84828501617897565b91505092915050565b600060208284031215617cda57600080fd5b6000617ce8848285016178ac565b91505092915050565b600060208284031215617d0357600080fd5b6000617d11848285016178c1565b91505092915050565b60008060408385031215617d2d57600080fd5b6000617d3b858286016178c1565b9250506020617d4c858286016177b3565b9150509250929050565b600080600060608486031215617d6b57600080fd5b6000617d79868287016178c1565b9350506020617d8a868287016177b3565b925050604084013567ffffffffffffffff811115617da757600080fd5b617db386828701617812565b9150509250925092565b600060208284031215617dcf57600080fd5b6000617ddd848285016178d6565b91505092915050565b600060208284031215617df857600080fd5b6000617e06848285016178eb565b91505092915050565b6000617e1b8383617e27565b60208301905092915050565b617e3081618fbc565b82525050565b617e3f81618fbc565b82525050565b617e56617e5182618fbc565b619272565b82525050565b6000617e6782618c1d565b617e718185618c40565b9350617e7c83618bf8565b8060005b83811015617ead578151617e948882617e0f565b9750617e9f83618c33565b925050600181019050617e80565b5085935050505092915050565b617ec381618fe0565b82525050565b617ed281618fe0565b82525050565b617ee181618fec565b82525050565b6000617ef282618c28565b617efc8185618c51565b9350617f0c8185602086016190f2565b617f1581619352565b840191505092915050565b617f2981619089565b82525050565b617f38816190ad565b82525050565b617f47816190d1565b82525050565b60008154617f5a81619125565b617f648186618c73565b94506001821660008114617f7f5760018114617f9057617fc3565b60ff19831686528186019350617fc3565b617f9985618c08565b60005b83811015617fbb57815481890152600182019150602081019050617f9c565b838801955050505b50505092915050565b6000617fd9602f83618c62565b9150617fe482619397565b604082019050919050565b6000617ffc601483618c62565b9150618007826193e6565b602082019050919050565b600061801f603883618c62565b915061802a8261940f565b604082019050919050565b6000618042602683618c62565b915061804d8261945e565b604082019050919050565b6000618065601483618c62565b9150618070826194ad565b602082019050919050565b6000618088602283618c62565b9150618093826194d6565b604082019050919050565b60006180ab601983618c62565b91506180b682619525565b602082019050919050565b60006180ce600e83618c62565b91506180d98261954e565b602082019050919050565b60006180f1602683618c62565b91506180fc82619577565b604082019050919050565b6000618114602083618c62565b915061811f826195c6565b602082019050919050565b6000618137602283618c62565b9150618142826195ef565b604082019050919050565b600061815a601383618c62565b91506181658261963e565b602082019050919050565b600061817d601883618c62565b915061818882619667565b602082019050919050565b60006181a0604683618c62565b91506181ab82619690565b606082019050919050565b60006181c3600683618c62565b91506181ce82619705565b602082019050919050565b60006181e6600783618c62565b91506181f18261972e565b602082019050919050565b6000618209601483618c62565b915061821482619757565b602082019050919050565b600061822c602f83618c62565b915061823782619780565b604082019050919050565b600061824f601783618c62565b915061825a826197cf565b602082019050919050565b6000618272603783618c62565b915061827d826197f8565b604082019050919050565b6000618295601f83618c62565b91506182a082619847565b602082019050919050565b60006182b8600e83618c62565b91506182c382619870565b602082019050919050565b60006182db601883618c62565b91506182e682619899565b602082019050919050565b60006182fe601483618c62565b9150618309826198c2565b602082019050919050565b6000618321601883618c62565b915061832c826198eb565b602082019050919050565b60c08201600080830154905061834c81619157565b6183596000860182617e27565b50618363816191a5565b6183706020860182617eba565b50600183015490506183818161918b565b61838e60408601826183fe565b506002830154905061839f8161918b565b6183ac60608601826183fe565b50600383015490506183bd8161918b565b6183ca60808601826183fe565b50600483015490506183db81619171565b6183e860a0860182617eba565b5050505050565b6183f881619012565b82525050565b6184078161904e565b82525050565b6184168161904e565b82525050565b61842581619058565b82525050565b60006184378286617e45565b6014820191506184478285617e45565b6014820191506184578284617f4d565b9150819050949350505050565b60006020820190506184796000830184617e36565b92915050565b60006080820190506184946000830187617e36565b6184a16020830186617e36565b6184ae6040830185617ec9565b6184bb606083018461840d565b95945050505050565b60006060820190506184d96000830186617e36565b6184e66020830185617e36565b6184f3604083018461840d565b949350505050565b60006080820190506185106000830187617e36565b61851d6020830186617e36565b61852a604083018561840d565b618537606083018461840d565b95945050505050565b600060c0820190506185556000830189617e36565b6185626020830188617ec9565b61856f604083018761840d565b61857c606083018661840d565b618589608083018561840d565b61859660a0830184617ec9565b979650505050505050565b6000610100820190506185b7600083018b617e36565b6185c4602083018a617ec9565b6185d1604083018961840d565b6185de606083018861840d565b6185eb608083018761840d565b6185f860a083018661840d565b61860560c083018561840d565b61861260e083018461840d565b9998505050505050505050565b60006040820190506186346000830185617e36565b618641602083018461840d565b9392505050565b600060608201905061865d6000830186617e36565b61866a602083018561840d565b6186776040830184617f3e565b949350505050565b60006060820190506186946000830186617e36565b6186a1602083018561840d565b6186ae604083018461840d565b949350505050565b60006060820190506186cb6000830186617e36565b6186d8602083018561840d565b6186e5604083018461841c565b949350505050565b60006020820190506187026000830184617ec9565b92915050565b600060408201905061871d6000830185617ec9565b818103602083015261872f8184617ee7565b90509392505050565b600060408201905061874d6000830185617ec9565b61875a60208301846183ef565b9392505050565b60006020820190506187766000830184617ed8565b92915050565b60006020820190506187916000830184617f20565b92915050565b60006020820190506187ac6000830184617f2f565b92915050565b600060208201905081810360008301526187cb81617fcc565b9050919050565b600060208201905081810360008301526187eb81617fef565b9050919050565b6000602082019050818103600083015261880b81618012565b9050919050565b6000602082019050818103600083015261882b81618035565b9050919050565b6000602082019050818103600083015261884b81618058565b9050919050565b6000602082019050818103600083015261886b8161807b565b9050919050565b6000602082019050818103600083015261888b8161809e565b9050919050565b600060208201905081810360008301526188ab816180c1565b9050919050565b600060208201905081810360008301526188cb816180e4565b9050919050565b600060208201905081810360008301526188eb81618107565b9050919050565b6000602082019050818103600083015261890b8161812a565b9050919050565b6000602082019050818103600083015261892b8161814d565b9050919050565b6000602082019050818103600083015261894b81618170565b9050919050565b6000602082019050818103600083015261896b81618193565b9050919050565b6000602082019050818103600083015261898b816181b6565b9050919050565b600060208201905081810360008301526189ab816181d9565b9050919050565b600060208201905081810360008301526189cb816181fc565b9050919050565b600060208201905081810360008301526189eb8161821f565b9050919050565b60006020820190508181036000830152618a0b81618242565b9050919050565b60006020820190508181036000830152618a2b81618265565b9050919050565b60006020820190508181036000830152618a4b81618288565b9050919050565b60006020820190508181036000830152618a6b816182ab565b9050919050565b60006020820190508181036000830152618a8b816182ce565b9050919050565b60006020820190508181036000830152618aab816182f1565b9050919050565b60006020820190508181036000830152618acb81618314565b9050919050565b600060c082019050618ae76000830184618337565b92915050565b6000602082019050618b02600083018461840d565b92915050565b6000604082019050618b1d600083018561840d565b8181036020830152618b2f8184617e5c565b90509392505050565b6000606082019050618b4d600083018661841c565b618b5a6020830185617ed8565b8181036040830152618b6c8184617ee7565b9050949350505050565b6000618b80618b91565b9050618b8c82826191bf565b919050565b6000604051905090565b600067ffffffffffffffff821115618bb657618bb5619323565b5b602082029050602081019050919050565b600067ffffffffffffffff821115618be257618be1619323565b5b618beb82619352565b9050602081019050919050565b6000819050602082019050919050565b60008190508160005260206000209050919050565b600081519050919050565b600081519050919050565b6000602082019050919050565b600082825260208201905092915050565b600082825260208201905092915050565b600082825260208201905092915050565b600081905092915050565b6000618c8982619012565b9150618c9483619012565b9250826fffffffffffffffffffffffffffffffff03821115618cb957618cb8619296565b5b828201905092915050565b6000618ccf8261904e565b9150618cda8361904e565b9250827fffffffffffffffffffffffffffffffffffffffffffffffffffffffffffffffff03821115618d0f57618d0e619296565b5b828201905092915050565b6000618d258261904e565b9150618d308361904e565b925082618d4057618d3f6192c5565b5b828204905092915050565b6000808291508390505b6001851115618d9557808604811115618d7157618d70619296565b5b6001851615618d805780820291505b8081029050618d8e8561938a565b9450618d55565b94509492505050565b6000618da98261904e565b9150618db48361907c565b9250618de17fffffffffffffffffffffffffffffffffffffffffffffffffffffffffffffffff8484618de9565b905092915050565b600082618df95760019050618eb5565b81618e075760009050618eb5565b8160018114618e1d5760028114618e2757618e56565b6001915050618eb5565b60ff841115618e3957618e38619296565b5b8360020a915084821115618e5057618e4f619296565b5b50618eb5565b5060208310610133831016604e8410600b8410161715618e8b5782820a905083811115618e8657618e85619296565b5b618eb5565b618e988484846001618d4b565b92509050818404811115618eaf57618eae619296565b5b81810290505b9392505050565b6000618ec78261904e565b9150618ed28361904e565b9250817fffffffffffffffffffffffffffffffffffffffffffffffffffffffffffffffff0483118215151615618f0b57618f0a619296565b5b828202905092915050565b6000618f218261907c565b9150618f2c8361907c565b92508160ff0483118215151615618f4657618f45619296565b5b828202905092915050565b6000618f5c8261904e565b9150618f678361904e565b925082821015618f7a57618f79619296565b5b828203905092915050565b600073ffffffffffffffffffffffffffffffffffffffff82169050919050565b600060ff82169050919050565b6000819050919050565b6000618fc78261902e565b9050919050565b6000618fd98261902e565b9050919050565b60008115159050919050565b6000819050919050565b600061900182618fbc565b9050919050565b6000819050919050565b60006fffffffffffffffffffffffffffffffff82169050919050565b600073ffffffffffffffffffffffffffffffffffffffff82169050919050565b6000819050919050565b600063ffffffff82169050919050565b600067ffffffffffffffff82169050919050565b600060ff82169050919050565b60006190948261909b565b9050919050565b60006190a68261902e565b9050919050565b60006190b8826190bf565b9050919050565b60006190ca8261902e565b9050919050565b60006190dc8261907c565b9050919050565b82818337600083830152505050565b60005b838110156191105780820151818401526020810190506190f5565b8381111561911f576000848401525b50505050565b6000600282049050600182168061913d57607f821691505b60208210811415619151576191506192f4565b5b50919050565b600061916a61916583619370565b618f85565b9050919050565b600061918461917f83619370565b618fa5565b9050919050565b600061919e61919983619370565b618fb2565b9050919050565b60006191b86191b38361937d565b618fa5565b9050919050565b6191c882619352565b810181811067ffffffffffffffff821117156191e7576191e6619323565b5b80604052505050565b60006191fb82619012565b91506fffffffffffffffffffffffffffffffff82141561921e5761921d619296565b5b600182019050919050565b60006192348261904e565b91507fffffffffffffffffffffffffffffffffffffffffffffffffffffffffffffffff82141561926757619266619296565b5b600182019050919050565b600061927d82619284565b9050919050565b600061928f82619363565b9050919050565b7f4e487b7100000000000000000000000000000000000000000000000000000000600052601160045260246000fd5b7f4e487b7100000000000000000000000000000000000000000000000000000000600052601260045260246000fd5b7f4e487b7100000000000000000000000000000000000000000000000000000000600052602260045260246000fd5b7f4e487b7100000000000000000000000000000000000000000000000000000000600052604160045260246000fd5b6000601f19601f8301169050919050565b60008160601b9050919050565b60008160001c9050919050565b60008160a01c9050919050565b60008160011c9050919050565b7f55736572206e6f7420616c6c6f77656420666f7220746869732066756e63746960008201527f6f6e2c2041646d696e206f6e6c792e0000000000000000000000000000000000602082015250565b7f496e70757420616d6f756e7420746f6f206c6f77000000000000000000000000600082015250565b7f416d6f756e7420746f6f206c6f7720746f20726570617920776974682c20696e60008201527f707574206174206c656173742035205553442076616c75650000000000000000602082015250565b7f4f776e61626c653a206e6577206f776e657220697320746865207a65726f206160008201527f6464726573730000000000000000000000000000000000000000000000000000602082015250565b7f496e70757420416d6f756e7420746f6f206c6f77000000000000000000000000600082015250565b7f7472616e7366657246726f6d206661696c65642066726f6d20636f6e7472616360008201527f742e000000000000000000000000000000000000000000000000000000000000602082015250565b7f4e6f7420656e6f756768207374617274206e657720706f6f6c00000000000000600082015250565b7f55736572206e6f7420666f756e64000000000000000000000000000000000000600082015250565b7f7072696365206f7574707574206d75737420626520677265617465722074686160008201527f6e207a65726f0000000000000000000000000000000000000000000000000000602082015250565b7f4f776e61626c653a2063616c6c6572206973206e6f7420746865206f776e6572600082015250565b7f416d6f756e742067726561746572207468616e20616c6c6f77656420616d6f7560008201527f6e74000000000000000000000000000000000000000000000000000000000000602082015250565b7f7472616e7366657246726f6d206661696c656400000000000000000000000000600082015250565b7f4c69717569646174696f6e206e6f7420706f737369626c650000000000000000600082015250565b7f4e6f7420656e6f756768204c697175696469747920746f2073656e6420746f2060008201527f757365722c20706c656173652074727920616761696e20616674657220736f6d60208201527f6574696d652e0000000000000000000000000000000000000000000000000000604082015250565b7f21696e626f780000000000000000000000000000000000000000000000000000600082015250565b7f21726f7574657200000000000000000000000000000000000000000000000000600082015250565b7f4e6f7420656e6f756768206c6971756964697479000000000000000000000000600082015250565b7f4e6f7420616c6c6f77656420746f20706572666f726d2061207472616e73616360008201527f74696f6e207269676874206e6f772e0000000000000000000000000000000000602082015250565b7f7573657220646f6573206e6f7420657869737420796574000000000000000000600082015250565b7f416d6f756e7420746f6f206c6f772c20656e74657220616e20696e707574206760008201527f726561746572207468616e2035205553442076616c7565000000000000000000602082015250565b7f5265656e7472616e637947756172643a207265656e7472616e742063616c6c00600082015250565b7f416d6f756e7420746f6f206c6f77000000000000000000000000000000000000600082015250565b7f6d61726b657420616c726561647920617661696c61626c650000000000000000600082015250565b7f6d61726b6574206e6f7420617661696c61626c65000000000000000000000000600082015250565b7f436f6c206d61726b6574206e6f7420617661696c61626c650000000000000000600082015250565b61991d81618fbc565b811461992857600080fd5b50565b61993481618fce565b811461993f57600080fd5b50565b61994b81618fe0565b811461995657600080fd5b50565b61996281618fec565b811461996d57600080fd5b50565b61997981618ff6565b811461998457600080fd5b50565b61999081619008565b811461999b57600080fd5b50565b6199a781619012565b81146199b257600080fd5b50565b6199be8161904e565b81146199c957600080fd5b50565b6199d581619058565b81146199e057600080fd5b50565b6199ec81619068565b81146199f757600080fd5b50565b619a038161907c565b8114619a0e57600080fd5b5056fea2646970667358221220c7069331434a92db52f235f7b116cbb09880596871eec6f0323370a05359256664736f6c63430008040033",
  "linkReferences": {},
  "deployedLinkReferences": {}
}